{
  "transactions": [
    {
      "hash": "0xb756afabbf1055b8be5fda40f36f86765d9360d8171b84f93c6ce2d0629b2f6f",
      "transactionType": "CALL",
      "contractName": null,
      "contractAddress": "0xcb841a28f16f99e3a561dbeba7e09abc9120a45f",
      "function": "safeBurn(uint256)",
      "arguments": [
        "1"
      ],
      "transaction": {
        "from": "0x027a5ce58fc466d0e3a9d1990404354029398541",
        "to": "0xcb841a28f16f99e3a561dbeba7e09abc9120a45f",
        "gas": "0xc941",
        "value": "0x0",
        "input": "0xdbf513250000000000000000000000000000000000000000000000000000000000000001",
        "nonce": "0x35cc",
        "chainId": "0x2105"
      },
      "additionalContracts": [],
      "isFixedGasLimit": false
    },
    {
      "hash": "0x4a615f2a2925cd17fa2afb25131e9c401e0b3f5e2cda24a48d5b8d2ade4a9bc3",
      "transactionType": "CALL",
      "contractName": null,
      "contractAddress": "0xcb841a28f16f99e3a561dbeba7e09abc9120a45f",
      "function": "safeBurn(uint256)",
      "arguments": [
        "21"
      ],
      "transaction": {
        "from": "0x027a5ce58fc466d0e3a9d1990404354029398541",
        "to": "0xcb841a28f16f99e3a561dbeba7e09abc9120a45f",
        "gas": "0xc941",
        "value": "0x0",
        "input": "0xdbf513250000000000000000000000000000000000000000000000000000000000000015",
        "nonce": "0x35cd",
        "chainId": "0x2105"
      },
      "additionalContracts": [],
      "isFixedGasLimit": false
    },
    {
      "hash": "0x19abb09c8efee96bd34b07e9f99f9a43f6667a7094fa16f7add80646c1e35584",
      "transactionType": "CALL",
      "contractName": null,
      "contractAddress": "0xcb841a28f16f99e3a561dbeba7e09abc9120a45f",
      "function": "safeBurn(uint256)",
      "arguments": [
        "41"
      ],
      "transaction": {
        "from": "0x027a5ce58fc466d0e3a9d1990404354029398541",
        "to": "0xcb841a28f16f99e3a561dbeba7e09abc9120a45f",
        "gas": "0xc941",
        "value": "0x0",
        "input": "0xdbf513250000000000000000000000000000000000000000000000000000000000000029",
        "nonce": "0x35ce",
        "chainId": "0x2105"
      },
      "additionalContracts": [],
      "isFixedGasLimit": false
    },
    {
      "hash": "0x555db13db7ae25e6817f6a93d201cbade93157925aafd95b1f01d240173226a3",
      "transactionType": "CALL",
      "contractName": null,
      "contractAddress": "0xcb841a28f16f99e3a561dbeba7e09abc9120a45f",
      "function": "safeBurn(uint256)",
      "arguments": [
        "53"
      ],
      "transaction": {
        "from": "0x027a5ce58fc466d0e3a9d1990404354029398541",
        "to": "0xcb841a28f16f99e3a561dbeba7e09abc9120a45f",
        "gas": "0xc941",
        "value": "0x0",
        "input": "0xdbf513250000000000000000000000000000000000000000000000000000000000000035",
        "nonce": "0x35cf",
        "chainId": "0x2105"
      },
      "additionalContracts": [],
      "isFixedGasLimit": false
    },
    {
      "hash": "0xb5f3d462bd8b7f4db27ca1ab1a6548ec90e049400915ba1ed027220dfaaf9bbe",
      "transactionType": "CALL",
      "contractName": null,
      "contractAddress": "0xcb841a28f16f99e3a561dbeba7e09abc9120a45f",
      "function": "safeBurn(uint256)",
      "arguments": [
        "64"
      ],
      "transaction": {
        "from": "0x027a5ce58fc466d0e3a9d1990404354029398541",
        "to": "0xcb841a28f16f99e3a561dbeba7e09abc9120a45f",
        "gas": "0xc941",
        "value": "0x0",
        "input": "0xdbf513250000000000000000000000000000000000000000000000000000000000000040",
        "nonce": "0x35d0",
        "chainId": "0x2105"
      },
      "additionalContracts": [],
      "isFixedGasLimit": false
    },
    {
      "hash": "0x348a618c3482e3ca08056ea32585bc86103102c8b24833ed85223c637d7f9dbb",
      "transactionType": "CALL",
      "contractName": null,
      "contractAddress": "0xcb841a28f16f99e3a561dbeba7e09abc9120a45f",
      "function": "safeBurn(uint256)",
      "arguments": [
        "74"
      ],
      "transaction": {
        "from": "0x027a5ce58fc466d0e3a9d1990404354029398541",
        "to": "0xcb841a28f16f99e3a561dbeba7e09abc9120a45f",
        "gas": "0xc941",
        "value": "0x0",
        "input": "0xdbf51325000000000000000000000000000000000000000000000000000000000000004a",
        "nonce": "0x35d1",
        "chainId": "0x2105"
      },
      "additionalContracts": [],
      "isFixedGasLimit": false
    },
    {
      "hash": "0x17a89c77ac59fa09589ac8cfe1b11db3d312b23c9259c1dd6a716ac883225a5f",
      "transactionType": "CALL",
      "contractName": null,
      "contractAddress": "0xcb841a28f16f99e3a561dbeba7e09abc9120a45f",
      "function": "safeBurn(uint256)",
      "arguments": [
        "84"
      ],
      "transaction": {
        "from": "0x027a5ce58fc466d0e3a9d1990404354029398541",
        "to": "0xcb841a28f16f99e3a561dbeba7e09abc9120a45f",
        "gas": "0xc941",
        "value": "0x0",
        "input": "0xdbf513250000000000000000000000000000000000000000000000000000000000000054",
        "nonce": "0x35d2",
        "chainId": "0x2105"
      },
      "additionalContracts": [],
      "isFixedGasLimit": false
    },
    {
      "hash": "0xfe5e9d7d94f392533e157eb327b9d445fcc176574a3c7ce237f16e6d5be17eae",
      "transactionType": "CALL",
      "contractName": null,
      "contractAddress": "0xcb841a28f16f99e3a561dbeba7e09abc9120a45f",
      "function": "safeBurn(uint256)",
      "arguments": [
        "94"
      ],
      "transaction": {
        "from": "0x027a5ce58fc466d0e3a9d1990404354029398541",
        "to": "0xcb841a28f16f99e3a561dbeba7e09abc9120a45f",
        "gas": "0xc941",
        "value": "0x0",
        "input": "0xdbf51325000000000000000000000000000000000000000000000000000000000000005e",
        "nonce": "0x35d3",
        "chainId": "0x2105"
      },
      "additionalContracts": [],
      "isFixedGasLimit": false
    },
    {
      "hash": "0xc0319b7b23ddbc55f692bce3f4cf8c3cbc5c11a087349bd05ae5b3503df95931",
      "transactionType": "CALL",
      "contractName": null,
      "contractAddress": "0xcb841a28f16f99e3a561dbeba7e09abc9120a45f",
      "function": "safeBurn(uint256)",
      "arguments": [
        "104"
      ],
      "transaction": {
        "from": "0x027a5ce58fc466d0e3a9d1990404354029398541",
        "to": "0xcb841a28f16f99e3a561dbeba7e09abc9120a45f",
        "gas": "0xc941",
        "value": "0x0",
        "input": "0xdbf513250000000000000000000000000000000000000000000000000000000000000068",
        "nonce": "0x35d4",
        "chainId": "0x2105"
      },
      "additionalContracts": [],
      "isFixedGasLimit": false
    },
    {
      "hash": "0x25d0865d899ab9bc753cdeded8a0183779c1906c78f3d66b10cdebb62e4bcb23",
      "transactionType": "CALL",
      "contractName": null,
      "contractAddress": "0xcb841a28f16f99e3a561dbeba7e09abc9120a45f",
      "function": "safeBurn(uint256)",
      "arguments": [
        "114"
      ],
      "transaction": {
        "from": "0x027a5ce58fc466d0e3a9d1990404354029398541",
        "to": "0xcb841a28f16f99e3a561dbeba7e09abc9120a45f",
        "gas": "0xc941",
        "value": "0x0",
        "input": "0xdbf513250000000000000000000000000000000000000000000000000000000000000072",
        "nonce": "0x35d5",
        "chainId": "0x2105"
      },
      "additionalContracts": [],
      "isFixedGasLimit": false
    },
    {
      "hash": "0x997f19fc9309300725115c7f102f8f4f87ea493044bab4a5ec09ac87328524e1",
      "transactionType": "CALL",
      "contractName": null,
      "contractAddress": "0xcb841a28f16f99e3a561dbeba7e09abc9120a45f",
      "function": "safeBurn(uint256)",
      "arguments": [
        "124"
      ],
      "transaction": {
        "from": "0x027a5ce58fc466d0e3a9d1990404354029398541",
        "to": "0xcb841a28f16f99e3a561dbeba7e09abc9120a45f",
        "gas": "0xc941",
        "value": "0x0",
        "input": "0xdbf51325000000000000000000000000000000000000000000000000000000000000007c",
        "nonce": "0x35d6",
        "chainId": "0x2105"
      },
      "additionalContracts": [],
      "isFixedGasLimit": false
    },
    {
      "hash": "0xe60e0ee541e9f035c1bab3182d78e2f7b628391da88c707029922722de69705b",
      "transactionType": "CALL",
      "contractName": null,
      "contractAddress": "0xcb841a28f16f99e3a561dbeba7e09abc9120a45f",
      "function": "safeBurn(uint256)",
      "arguments": [
        "134"
      ],
      "transaction": {
        "from": "0x027a5ce58fc466d0e3a9d1990404354029398541",
        "to": "0xcb841a28f16f99e3a561dbeba7e09abc9120a45f",
        "gas": "0xc941",
        "value": "0x0",
        "input": "0xdbf513250000000000000000000000000000000000000000000000000000000000000086",
        "nonce": "0x35d7",
        "chainId": "0x2105"
      },
      "additionalContracts": [],
      "isFixedGasLimit": false
    },
    {
      "hash": "0x7eff5ba4a9c81ba0725a79fbf57d252f04d3be62d5b5bfc0859cabf6ddc19ee1",
      "transactionType": "CALL",
      "contractName": null,
      "contractAddress": "0xcb841a28f16f99e3a561dbeba7e09abc9120a45f",
      "function": "safeBurn(uint256)",
      "arguments": [
        "144"
      ],
      "transaction": {
        "from": "0x027a5ce58fc466d0e3a9d1990404354029398541",
        "to": "0xcb841a28f16f99e3a561dbeba7e09abc9120a45f",
        "gas": "0xc941",
        "value": "0x0",
        "input": "0xdbf513250000000000000000000000000000000000000000000000000000000000000090",
        "nonce": "0x35d8",
        "chainId": "0x2105"
      },
      "additionalContracts": [],
      "isFixedGasLimit": false
    },
    {
      "hash": "0x95f1e3f627866ea500b1aea797f12ce11d24eabf9f4adec5e38affa1dbcb83a9",
      "transactionType": "CALL",
      "contractName": null,
      "contractAddress": "0xcb841a28f16f99e3a561dbeba7e09abc9120a45f",
      "function": "safeBurn(uint256)",
      "arguments": [
        "154"
      ],
      "transaction": {
        "from": "0x027a5ce58fc466d0e3a9d1990404354029398541",
        "to": "0xcb841a28f16f99e3a561dbeba7e09abc9120a45f",
        "gas": "0xc941",
        "value": "0x0",
        "input": "0xdbf51325000000000000000000000000000000000000000000000000000000000000009a",
        "nonce": "0x35d9",
        "chainId": "0x2105"
      },
      "additionalContracts": [],
      "isFixedGasLimit": false
    },
    {
      "hash": "0x86c38f836abcd62776741e3a55a84a5199c66dc0ffe478a1e1f14fd12542e74e",
      "transactionType": "CALL",
      "contractName": null,
      "contractAddress": "0xcb841a28f16f99e3a561dbeba7e09abc9120a45f",
      "function": "safeBurn(uint256)",
      "arguments": [
        "164"
      ],
      "transaction": {
        "from": "0x027a5ce58fc466d0e3a9d1990404354029398541",
        "to": "0xcb841a28f16f99e3a561dbeba7e09abc9120a45f",
        "gas": "0xc941",
        "value": "0x0",
        "input": "0xdbf5132500000000000000000000000000000000000000000000000000000000000000a4",
        "nonce": "0x35da",
        "chainId": "0x2105"
      },
      "additionalContracts": [],
      "isFixedGasLimit": false
    },
    {
      "hash": "0x95574fae1b26031486fa5a2da3e372eaefc4997ad94511b962a9ec2822bf0c9d",
      "transactionType": "CALL",
      "contractName": null,
      "contractAddress": "0xcb841a28f16f99e3a561dbeba7e09abc9120a45f",
      "function": "safeBurn(uint256)",
      "arguments": [
        "174"
      ],
      "transaction": {
        "from": "0x027a5ce58fc466d0e3a9d1990404354029398541",
        "to": "0xcb841a28f16f99e3a561dbeba7e09abc9120a45f",
        "gas": "0xc941",
        "value": "0x0",
        "input": "0xdbf5132500000000000000000000000000000000000000000000000000000000000000ae",
        "nonce": "0x35db",
        "chainId": "0x2105"
      },
      "additionalContracts": [],
      "isFixedGasLimit": false
    },
    {
      "hash": "0xe56b6c52e6463934e03dd6ebc494f8c52803fa507cb37a5e76df0cb8d27dcac4",
      "transactionType": "CALL",
      "contractName": null,
      "contractAddress": "0xcb841a28f16f99e3a561dbeba7e09abc9120a45f",
      "function": "safeBurn(uint256)",
      "arguments": [
        "184"
      ],
      "transaction": {
        "from": "0x027a5ce58fc466d0e3a9d1990404354029398541",
        "to": "0xcb841a28f16f99e3a561dbeba7e09abc9120a45f",
        "gas": "0xc941",
        "value": "0x0",
        "input": "0xdbf5132500000000000000000000000000000000000000000000000000000000000000b8",
        "nonce": "0x35dc",
        "chainId": "0x2105"
      },
      "additionalContracts": [],
      "isFixedGasLimit": false
    },
    {
      "hash": "0xb2c9f12bfb249dcc97394766c3d9ac8cef5c05b02344c570b6aee8e0848685b1",
      "transactionType": "CALL",
      "contractName": null,
      "contractAddress": "0xcb841a28f16f99e3a561dbeba7e09abc9120a45f",
      "function": "safeBurn(uint256)",
      "arguments": [
        "194"
      ],
      "transaction": {
        "from": "0x027a5ce58fc466d0e3a9d1990404354029398541",
        "to": "0xcb841a28f16f99e3a561dbeba7e09abc9120a45f",
        "gas": "0xc941",
        "value": "0x0",
        "input": "0xdbf5132500000000000000000000000000000000000000000000000000000000000000c2",
        "nonce": "0x35dd",
        "chainId": "0x2105"
      },
      "additionalContracts": [],
      "isFixedGasLimit": false
    }
  ],
  "receipts": [
    {
      "status": "0x1",
      "cumulativeGasUsed": "0xe9d636",
      "logs": [
        {
          "address": "0xcb841a28f16f99e3a561dbeba7e09abc9120a45f",
          "topics": [
            "0xddf252ad1be2c89b69c2b068fc378daa952ba7f163c4a11628f55a4df523b3ef",
            "0x000000000000000000000000b2937626152956d7b5bfffd4a22d021c8592d6be",
            "0x0000000000000000000000000000000000000000000000000000000000000000",
            "0x0000000000000000000000000000000000000000000000000000000000000001"
          ],
          "data": "0x",
          "blockHash": "0x7a6a97aad447135a8a6dec9ba446820e1ce7b872abe23fb8dd81a855c835fb47",
          "blockNumber": "0xf8ffe8",
          "transactionHash": "0xb756afabbf1055b8be5fda40f36f86765d9360d8171b84f93c6ce2d0629b2f6f",
          "transactionIndex": "0x46",
          "logIndex": "0x19a",
          "removed": false
        }
      ],
      "logsBloom": "0x00000000000000000000000000000000000000000000000000000000000000000000000000000000000000000000000000000000000000000000800000040000000000000000000000000008000000000000000000040000000000200000000000002000020000000000000000000800000000000000000000000010000000000000000100000000000000000000000000000000000000000002000000000000000000000000000000000000000000000000000000000000000000000000000000000002000000000000000000000800000000000000000000000000000060000000000000000000000000000000000000000000000000000000000000000000",
      "type": "0x2",
      "transactionHash": "0xb756afabbf1055b8be5fda40f36f86765d9360d8171b84f93c6ce2d0629b2f6f",
      "transactionIndex": "0x46",
      "blockHash": "0x7a6a97aad447135a8a6dec9ba446820e1ce7b872abe23fb8dd81a855c835fb47",
      "blockNumber": "0xf8ffe8",
      "gasUsed": "0x91b5",
      "effectiveGasPrice": "0x62db66",
      "from": "0x027a5ce58fc466d0e3a9d1990404354029398541",
      "to": "0xcb841a28f16f99e3a561dbeba7e09abc9120a45f",
      "contractAddress": null,
      "l1Fee": "0x330e1d1a9",
      "l1GasPrice": "0x169991045",
      "l1GasUsed": "0x7bc"
    },
    {
      "status": "0x1",
      "cumulativeGasUsed": "0xea67eb",
      "logs": [
        {
          "address": "0xcb841a28f16f99e3a561dbeba7e09abc9120a45f",
          "topics": [
            "0xddf252ad1be2c89b69c2b068fc378daa952ba7f163c4a11628f55a4df523b3ef",
            "0x000000000000000000000000c5518dfb40870fc5f08ab726ff646cb99a2f1cc7",
            "0x0000000000000000000000000000000000000000000000000000000000000000",
            "0x0000000000000000000000000000000000000000000000000000000000000015"
          ],
          "data": "0x",
          "blockHash": "0x7a6a97aad447135a8a6dec9ba446820e1ce7b872abe23fb8dd81a855c835fb47",
          "blockNumber": "0xf8ffe8",
          "transactionHash": "0x4a615f2a2925cd17fa2afb25131e9c401e0b3f5e2cda24a48d5b8d2ade4a9bc3",
          "transactionIndex": "0x47",
          "logIndex": "0x19b",
          "removed": false
        }
      ],
      "logsBloom": "0x00000000000000000000000000000000000000000000000000000000000000000000000000000000000000000000000000000080000000000000800000000000001000000000000000000008000000000000000000000000000000200000000000000000020000000000000000000800000000000000000000000010000000000000000100000000000000000000000000000000000000000000000000000000000000000000000000000000010000000000000000000000000000000000000000200002000000000000000000000000000000000000000000000000000020002000000000000000008000000000000000000000000000000000000000000000",
      "type": "0x2",
      "transactionHash": "0x4a615f2a2925cd17fa2afb25131e9c401e0b3f5e2cda24a48d5b8d2ade4a9bc3",
      "transactionIndex": "0x47",
      "blockHash": "0x7a6a97aad447135a8a6dec9ba446820e1ce7b872abe23fb8dd81a855c835fb47",
      "blockNumber": "0xf8ffe8",
      "gasUsed": "0x91b5",
      "effectiveGasPrice": "0x62db66",
      "from": "0x027a5ce58fc466d0e3a9d1990404354029398541",
      "to": "0xcb841a28f16f99e3a561dbeba7e09abc9120a45f",
      "contractAddress": null,
      "l1Fee": "0x32bee69fd",
      "l1GasPrice": "0x169991045",
      "l1GasUsed": "0x7b0"
    },
    {
      "status": "0x1",
      "cumulativeGasUsed": "0xeb4ba8",
      "logs": [
        {
          "address": "0xcb841a28f16f99e3a561dbeba7e09abc9120a45f",
          "topics": [
            "0xddf252ad1be2c89b69c2b068fc378daa952ba7f163c4a11628f55a4df523b3ef",
            "0x0000000000000000000000000c33cb6d97d35f8c638154b9ab4c1b162fed3649",
            "0x0000000000000000000000000000000000000000000000000000000000000000",
            "0x0000000000000000000000000000000000000000000000000000000000000029"
          ],
          "data": "0x",
          "blockHash": "0x7a6a97aad447135a8a6dec9ba446820e1ce7b872abe23fb8dd81a855c835fb47",
          "blockNumber": "0xf8ffe8",
          "transactionHash": "0x19abb09c8efee96bd34b07e9f99f9a43f6667a7094fa16f7add80646c1e35584",
          "transactionIndex": "0x49",
          "logIndex": "0x19c",
          "removed": false
        }
      ],
      "logsBloom": "0x00000000000000000000000000008000000000000000000000000000000000000000000000000000000000000000000000000000000000000000800000000000000000000000000000000008000000000200000000000000000000200000000000000000020040000000000000000800000000000000000000000010000000000000000100000000000000000000000010000000001000000000000000000000000000000200000000000000000000000000000000000000000000000000000000000002000000000000000000000000000000000000000000000000000020000000000000000000000000000000000000000000000000000000000000000000",
      "type": "0x2",
      "transactionHash": "0x19abb09c8efee96bd34b07e9f99f9a43f6667a7094fa16f7add80646c1e35584",
      "transactionIndex": "0x49",
      "blockHash": "0x7a6a97aad447135a8a6dec9ba446820e1ce7b872abe23fb8dd81a855c835fb47",
      "blockNumber": "0xf8ffe8",
      "gasUsed": "0x91b5",
      "effectiveGasPrice": "0x62db66",
      "from": "0x027a5ce58fc466d0e3a9d1990404354029398541",
      "to": "0xcb841a28f16f99e3a561dbeba7e09abc9120a45f",
      "contractAddress": null,
      "l1Fee": "0x330e1d1a9",
      "l1GasPrice": "0x169991045",
      "l1GasUsed": "0x7bc"
    },
    {
      "status": "0x1",
      "cumulativeGasUsed": "0xebdd5d",
      "logs": [
        {
          "address": "0xcb841a28f16f99e3a561dbeba7e09abc9120a45f",
          "topics": [
            "0xddf252ad1be2c89b69c2b068fc378daa952ba7f163c4a11628f55a4df523b3ef",
            "0x0000000000000000000000009784a7861dbbb736deee0ee03f31af8e69b883b8",
            "0x0000000000000000000000000000000000000000000000000000000000000000",
            "0x0000000000000000000000000000000000000000000000000000000000000035"
          ],
          "data": "0x",
          "blockHash": "0x7a6a97aad447135a8a6dec9ba446820e1ce7b872abe23fb8dd81a855c835fb47",
          "blockNumber": "0xf8ffe8",
          "transactionHash": "0x555db13db7ae25e6817f6a93d201cbade93157925aafd95b1f01d240173226a3",
          "transactionIndex": "0x4a",
          "logIndex": "0x19d",
          "removed": false
        }
      ],
      "logsBloom": "0x00000000000000000000001000000000000000000000000001000000000000000000000000000002000000000000000000000000000000000000800000000000000000000000000000000008000000000000000000000000000000200000000000000000020000000000000000000800000000000000000000000010000000000000000100000000000000000000000000000000000000000000020000000000000000000000000000000000000000000000000000000000001000200000000000000002000000000000000000000000000000000000000000000000000020000000000000000000000000000000000000000000000000000000000000000000",
      "type": "0x2",
      "transactionHash": "0x555db13db7ae25e6817f6a93d201cbade93157925aafd95b1f01d240173226a3",
      "transactionIndex": "0x4a",
      "blockHash": "0x7a6a97aad447135a8a6dec9ba446820e1ce7b872abe23fb8dd81a855c835fb47",
      "blockNumber": "0xf8ffe8",
      "gasUsed": "0x91b5",
      "effectiveGasPrice": "0x62db66",
      "from": "0x027a5ce58fc466d0e3a9d1990404354029398541",
      "to": "0xcb841a28f16f99e3a561dbeba7e09abc9120a45f",
      "contractAddress": null,
      "l1Fee": "0x330e1d1a9",
      "l1GasPrice": "0x169991045",
      "l1GasUsed": "0x7bc"
    },
    {
      "status": "0x1",
      "cumulativeGasUsed": "0xec6f12",
      "logs": [
        {
          "address": "0xcb841a28f16f99e3a561dbeba7e09abc9120a45f",
          "topics": [
            "0xddf252ad1be2c89b69c2b068fc378daa952ba7f163c4a11628f55a4df523b3ef",
            "0x00000000000000000000000001cf90b0a87877e9016791997750b871cab70ff3",
            "0x0000000000000000000000000000000000000000000000000000000000000000",
            "0x0000000000000000000000000000000000000000000000000000000000000040"
          ],
          "data": "0x",
          "blockHash": "0x7a6a97aad447135a8a6dec9ba446820e1ce7b872abe23fb8dd81a855c835fb47",
          "blockNumber": "0xf8ffe8",
          "transactionHash": "0xb5f3d462bd8b7f4db27ca1ab1a6548ec90e049400915ba1ed027220dfaaf9bbe",
          "transactionIndex": "0x4b",
          "logIndex": "0x19e",
          "removed": false
        }
      ],
      "logsBloom": "0x00000000000000000000000000000000000000000000000000000000000000000000000100008000000000020000000000010020000000000000800000000000000000000000000000000008000000000000000000000000000080200000000000000000020000000000000000000800000000000000000000000010000000000000000100000000000000000000000000000000000000000000000000000000000000000000000000000000000000000000000000000000000000000000000000000002000000000000000000000000000000000000000000000000000020000000000000000000000000000000000000000000000000000000000000000000",
      "type": "0x2",
      "transactionHash": "0xb5f3d462bd8b7f4db27ca1ab1a6548ec90e049400915ba1ed027220dfaaf9bbe",
      "transactionIndex": "0x4b",
      "blockHash": "0x7a6a97aad447135a8a6dec9ba446820e1ce7b872abe23fb8dd81a855c835fb47",
      "blockNumber": "0xf8ffe8",
      "gasUsed": "0x91b5",
      "effectiveGasPrice": "0x62db66",
      "from": "0x027a5ce58fc466d0e3a9d1990404354029398541",
      "to": "0xcb841a28f16f99e3a561dbeba7e09abc9120a45f",
      "contractAddress": null,
      "l1Fee": "0x330e1d1a9",
      "l1GasPrice": "0x169991045",
      "l1GasUsed": "0x7bc"
    },
    {
      "status": "0x1",
      "cumulativeGasUsed": "0xed00c7",
      "logs": [
        {
          "address": "0xcb841a28f16f99e3a561dbeba7e09abc9120a45f",
          "topics": [
            "0xddf252ad1be2c89b69c2b068fc378daa952ba7f163c4a11628f55a4df523b3ef",
            "0x00000000000000000000000003f2efdcb4bf042edcebe7c2a22c8fcdb7e0af76",
            "0x0000000000000000000000000000000000000000000000000000000000000000",
            "0x000000000000000000000000000000000000000000000000000000000000004a"
          ],
          "data": "0x",
          "blockHash": "0x7a6a97aad447135a8a6dec9ba446820e1ce7b872abe23fb8dd81a855c835fb47",
          "blockNumber": "0xf8ffe8",
          "transactionHash": "0x348a618c3482e3ca08056ea32585bc86103102c8b24833ed85223c637d7f9dbb",
          "transactionIndex": "0x4c",
          "logIndex": "0x19f",
          "removed": false
        }
      ],
      "logsBloom": "0x00000000000000000000000000000000000000000000000000000000000000000000000000000000000000000000000000000000000000000000800000000000000000000000000000000008000000000000000000000000000000200000000000000000021000200000000000000800000000000000000000000010000000000000000100000000000000000000000000000000000000000000000000000000000000000000000000000000000000000000000000000000000040000400000000000002000000000000000000020000000000000000000000000000000020001000000000000000000000000000000000000000000000000000000000000000",
      "type": "0x2",
      "transactionHash": "0x348a618c3482e3ca08056ea32585bc86103102c8b24833ed85223c637d7f9dbb",
      "transactionIndex": "0x4c",
      "blockHash": "0x7a6a97aad447135a8a6dec9ba446820e1ce7b872abe23fb8dd81a855c835fb47",
      "blockNumber": "0xf8ffe8",
      "gasUsed": "0x91b5",
      "effectiveGasPrice": "0x62db66",
      "from": "0x027a5ce58fc466d0e3a9d1990404354029398541",
      "to": "0xcb841a28f16f99e3a561dbeba7e09abc9120a45f",
      "contractAddress": null,
      "l1Fee": "0x326fb0251",
      "l1GasPrice": "0x169991045",
      "l1GasUsed": "0x7a4"
    },
    {
      "status": "0x1",
      "cumulativeGasUsed": "0xed927c",
      "logs": [
        {
          "address": "0xcb841a28f16f99e3a561dbeba7e09abc9120a45f",
          "topics": [
            "0xddf252ad1be2c89b69c2b068fc378daa952ba7f163c4a11628f55a4df523b3ef",
            "0x0000000000000000000000002799aa9a16592847fe8314fd6072a516402557ea",
            "0x0000000000000000000000000000000000000000000000000000000000000000",
            "0x0000000000000000000000000000000000000000000000000000000000000054"
          ],
          "data": "0x",
          "blockHash": "0x7a6a97aad447135a8a6dec9ba446820e1ce7b872abe23fb8dd81a855c835fb47",
          "blockNumber": "0xf8ffe8",
          "transactionHash": "0x17a89c77ac59fa09589ac8cfe1b11db3d312b23c9259c1dd6a716ac883225a5f",
          "transactionIndex": "0x4d",
          "logIndex": "0x1a0",
          "removed": false
        }
      ],
      "logsBloom": "0x00000000000000000000000000000000000000000002000000000000000000000000000000000080000000000000000000000000000000000000800000000000000000000000000000000008000000000000000000000000000000200000000000000000020000000000000000000800000000000000000000000010000000000000000100000000000000000000000000000000000000000000000000000000000000000800000000000000000000000000000080000000000000000000000000000002000000000000000000000000000000800000000000000000000020000000000000400000000000000000000000000000000000000000000000000000",
      "type": "0x2",
      "transactionHash": "0x17a89c77ac59fa09589ac8cfe1b11db3d312b23c9259c1dd6a716ac883225a5f",
      "transactionIndex": "0x4d",
      "blockHash": "0x7a6a97aad447135a8a6dec9ba446820e1ce7b872abe23fb8dd81a855c835fb47",
      "blockNumber": "0xf8ffe8",
      "gasUsed": "0x91b5",
      "effectiveGasPrice": "0x62db66",
      "from": "0x027a5ce58fc466d0e3a9d1990404354029398541",
      "to": "0xcb841a28f16f99e3a561dbeba7e09abc9120a45f",
      "contractAddress": null,
      "l1Fee": "0x330e1d1a9",
      "l1GasPrice": "0x169991045",
      "l1GasUsed": "0x7bc"
    },
    {
      "status": "0x1",
      "cumulativeGasUsed": "0xee2431",
      "logs": [
        {
          "address": "0xcb841a28f16f99e3a561dbeba7e09abc9120a45f",
          "topics": [
            "0xddf252ad1be2c89b69c2b068fc378daa952ba7f163c4a11628f55a4df523b3ef",
            "0x0000000000000000000000002872a7e0fceb3975cbbdc36a81d678941977727c",
            "0x0000000000000000000000000000000000000000000000000000000000000000",
            "0x000000000000000000000000000000000000000000000000000000000000005e"
          ],
          "data": "0x",
          "blockHash": "0x7a6a97aad447135a8a6dec9ba446820e1ce7b872abe23fb8dd81a855c835fb47",
          "blockNumber": "0xf8ffe8",
          "transactionHash": "0xfe5e9d7d94f392533e157eb327b9d445fcc176574a3c7ce237f16e6d5be17eae",
          "transactionIndex": "0x4e",
          "logIndex": "0x1a1",
          "removed": false
        }
      ],
      "logsBloom": "0x00000000000000000000000000010000000000008000000000000000000000000000000000000000000000000000000000000000000000000010800000000000000000000000000000000008000000000000000000000000004000200000000000000000020800000000000000000800000000000000000000000010000000000000000100000000000000000000000000000000000000000000000002000000000000000000000000000000000000000000000000000000000000000000000000000002000000000000000000000000000000000000000000000000000020000000000000000000000000000000000000000000000000000000000000000000",
      "type": "0x2",
      "transactionHash": "0xfe5e9d7d94f392533e157eb327b9d445fcc176574a3c7ce237f16e6d5be17eae",
      "transactionIndex": "0x4e",
      "blockHash": "0x7a6a97aad447135a8a6dec9ba446820e1ce7b872abe23fb8dd81a855c835fb47",
      "blockNumber": "0xf8ffe8",
      "gasUsed": "0x91b5",
      "effectiveGasPrice": "0x62db66",
      "from": "0x027a5ce58fc466d0e3a9d1990404354029398541",
      "to": "0xcb841a28f16f99e3a561dbeba7e09abc9120a45f",
      "contractAddress": null,
      "l1Fee": "0x330e1d1a9",
      "l1GasPrice": "0x169991045",
      "l1GasUsed": "0x7bc"
    },
    {
      "status": "0x1",
      "cumulativeGasUsed": "0xeeb5e6",
      "logs": [
        {
          "address": "0xcb841a28f16f99e3a561dbeba7e09abc9120a45f",
          "topics": [
            "0xddf252ad1be2c89b69c2b068fc378daa952ba7f163c4a11628f55a4df523b3ef",
            "0x00000000000000000000000059c6c112547b9e9f884cd89ab2d0194c0cee5bcf",
            "0x0000000000000000000000000000000000000000000000000000000000000000",
            "0x0000000000000000000000000000000000000000000000000000000000000068"
          ],
          "data": "0x",
          "blockHash": "0x7a6a97aad447135a8a6dec9ba446820e1ce7b872abe23fb8dd81a855c835fb47",
          "blockNumber": "0xf8ffe8",
          "transactionHash": "0xc0319b7b23ddbc55f692bce3f4cf8c3cbc5c11a087349bd05ae5b3503df95931",
          "transactionIndex": "0x4f",
          "logIndex": "0x1a2",
          "removed": false
        }
      ],
      "logsBloom": "0x00000000000000000000000000000000000000000000000000000000000000000000000000000000000000000000000000000000000000000000800000000000000000000000000000000008000000000000000000000000000000200000000000000000020000000000000000000800000000000000000000000011000000000000000100000000000000000000000000000000000000000000000000000000000000000000000000000000000000000000200000000000000000000020000000000002000000000000000000000000000000000000000000000000000020200000000004000000000000000000000000000000000000100000000000000000",
      "type": "0x2",
      "transactionHash": "0xc0319b7b23ddbc55f692bce3f4cf8c3cbc5c11a087349bd05ae5b3503df95931",
      "transactionIndex": "0x4f",
      "blockHash": "0x7a6a97aad447135a8a6dec9ba446820e1ce7b872abe23fb8dd81a855c835fb47",
      "blockNumber": "0xf8ffe8",
      "gasUsed": "0x91b5",
      "effectiveGasPrice": "0x62db66",
      "from": "0x027a5ce58fc466d0e3a9d1990404354029398541",
      "to": "0xcb841a28f16f99e3a561dbeba7e09abc9120a45f",
      "contractAddress": null,
      "l1Fee": "0x330e1d1a9",
      "l1GasPrice": "0x169991045",
      "l1GasUsed": "0x7bc"
    },
    {
      "status": "0x1",
      "cumulativeGasUsed": "0xf25c5f",
      "logs": [
        {
          "address": "0xcb841a28f16f99e3a561dbeba7e09abc9120a45f",
          "topics": [
            "0xddf252ad1be2c89b69c2b068fc378daa952ba7f163c4a11628f55a4df523b3ef",
            "0x0000000000000000000000005e021ba73a2014e089bcbfc15cfe867606c6274e",
            "0x0000000000000000000000000000000000000000000000000000000000000000",
            "0x0000000000000000000000000000000000000000000000000000000000000072"
          ],
          "data": "0x",
          "blockHash": "0x7a6a97aad447135a8a6dec9ba446820e1ce7b872abe23fb8dd81a855c835fb47",
          "blockNumber": "0xf8ffe8",
          "transactionHash": "0x25d0865d899ab9bc753cdeded8a0183779c1906c78f3d66b10cdebb62e4bcb23",
          "transactionIndex": "0x51",
          "logIndex": "0x1ac",
          "removed": false
        }
      ],
      "logsBloom": "0x08000000000000020000000000000000000000000000000000000000000000000000000000000000000000000000000000000000000010000000800000000000000000000000000000000008000000000000000000000000000000200000000200000000020000000000008000000800000000000000000000000010000000000000000100000000000000000400000000000000000000000000000000000000000000000000000000000000000000000000000000000000000000000000000000000002000000000000000000000000000000000000000000000000000020000000000000000000000000000000000000000000000000000000000000000000",
      "type": "0x2",
      "transactionHash": "0x25d0865d899ab9bc753cdeded8a0183779c1906c78f3d66b10cdebb62e4bcb23",
      "transactionIndex": "0x51",
      "blockHash": "0x7a6a97aad447135a8a6dec9ba446820e1ce7b872abe23fb8dd81a855c835fb47",
      "blockNumber": "0xf8ffe8",
      "gasUsed": "0x91b5",
      "effectiveGasPrice": "0x62db66",
      "from": "0x027a5ce58fc466d0e3a9d1990404354029398541",
      "to": "0xcb841a28f16f99e3a561dbeba7e09abc9120a45f",
      "contractAddress": null,
      "l1Fee": "0x330e1d1a9",
      "l1GasPrice": "0x169991045",
      "l1GasUsed": "0x7bc"
    },
    {
      "status": "0x1",
      "cumulativeGasUsed": "0xf2ee14",
      "logs": [
        {
          "address": "0xcb841a28f16f99e3a561dbeba7e09abc9120a45f",
          "topics": [
            "0xddf252ad1be2c89b69c2b068fc378daa952ba7f163c4a11628f55a4df523b3ef",
            "0x000000000000000000000000636d26031441d889476ce82e60d94500d2496461",
            "0x0000000000000000000000000000000000000000000000000000000000000000",
            "0x000000000000000000000000000000000000000000000000000000000000007c"
          ],
          "data": "0x",
          "blockHash": "0x7a6a97aad447135a8a6dec9ba446820e1ce7b872abe23fb8dd81a855c835fb47",
          "blockNumber": "0xf8ffe8",
          "transactionHash": "0x997f19fc9309300725115c7f102f8f4f87ea493044bab4a5ec09ac87328524e1",
          "transactionIndex": "0x52",
          "logIndex": "0x1ad",
          "removed": false
        }
      ],
      "logsBloom": "0x00000000000000000000000000000000000000000000000000000000000000000000000000000000000000000000000000000000000000000000800000000000000000000000000000000008000000000000000000000000000000200000000000000000020000000000000000000800000000000000000000000010000000000020000100000000000000000000000000000000000000000000000000000000000000000000020000000400000000000000000000000000000000040000000000000002000000000000000000000000000000000000000000000000000020000000000020000000000000000000000010000000000000000000000000000000",
      "type": "0x2",
      "transactionHash": "0x997f19fc9309300725115c7f102f8f4f87ea493044bab4a5ec09ac87328524e1",
      "transactionIndex": "0x52",
      "blockHash": "0x7a6a97aad447135a8a6dec9ba446820e1ce7b872abe23fb8dd81a855c835fb47",
      "blockNumber": "0xf8ffe8",
      "gasUsed": "0x91b5",
      "effectiveGasPrice": "0x62db66",
      "from": "0x027a5ce58fc466d0e3a9d1990404354029398541",
      "to": "0xcb841a28f16f99e3a561dbeba7e09abc9120a45f",
      "contractAddress": null,
      "l1Fee": "0x330e1d1a9",
      "l1GasPrice": "0x169991045",
      "l1GasUsed": "0x7bc"
    },
    {
      "status": "0x1",
      "cumulativeGasUsed": "0xf5c205",
      "logs": [
        {
          "address": "0xcb841a28f16f99e3a561dbeba7e09abc9120a45f",
          "topics": [
            "0xddf252ad1be2c89b69c2b068fc378daa952ba7f163c4a11628f55a4df523b3ef",
            "0x00000000000000000000000068f0b43ad26d43fe21ee155d9879cc7f6c997016",
            "0x0000000000000000000000000000000000000000000000000000000000000000",
            "0x0000000000000000000000000000000000000000000000000000000000000086"
          ],
          "data": "0x",
          "blockHash": "0x7a6a97aad447135a8a6dec9ba446820e1ce7b872abe23fb8dd81a855c835fb47",
          "blockNumber": "0xf8ffe8",
          "transactionHash": "0xe60e0ee541e9f035c1bab3182d78e2f7b628391da88c707029922722de69705b",
          "transactionIndex": "0x54",
          "logIndex": "0x1b1",
          "removed": false
        }
      ],
      "logsBloom": "0x00000000000000000000000000800000000000000000000000000000000000000000000000000000008000000000000000000000000000000000800000000000000000000000000000000008000000000000000000000000000000200000000000000000020000000000000000000800000000000000000400000010000000000000000100000000000000000000000000000000000000000000000000000000000000000000000000000000000000100000000000000000000000000000000000000002000000000000000000000000000000000000000000000400000020000000000000000000000000000000000000000000000000000000000100000000",
      "type": "0x2",
      "transactionHash": "0xe60e0ee541e9f035c1bab3182d78e2f7b628391da88c707029922722de69705b",
      "transactionIndex": "0x54",
      "blockHash": "0x7a6a97aad447135a8a6dec9ba446820e1ce7b872abe23fb8dd81a855c835fb47",
      "blockNumber": "0xf8ffe8",
      "gasUsed": "0x91b5",
      "effectiveGasPrice": "0x62db66",
      "from": "0x027a5ce58fc466d0e3a9d1990404354029398541",
      "to": "0xcb841a28f16f99e3a561dbeba7e09abc9120a45f",
      "contractAddress": null,
      "l1Fee": "0x330e1d1a9",
      "l1GasPrice": "0x169991045",
      "l1GasUsed": "0x7bc"
    },
    {
      "status": "0x1",
      "cumulativeGasUsed": "0xf653ba",
      "logs": [
        {
          "address": "0xcb841a28f16f99e3a561dbeba7e09abc9120a45f",
          "topics": [
            "0xddf252ad1be2c89b69c2b068fc378daa952ba7f163c4a11628f55a4df523b3ef",
            "0x0000000000000000000000006f20f024a967b9030f5975e9dccc90bad57d9383",
            "0x0000000000000000000000000000000000000000000000000000000000000000",
            "0x0000000000000000000000000000000000000000000000000000000000000090"
          ],
          "data": "0x",
          "blockHash": "0x7a6a97aad447135a8a6dec9ba446820e1ce7b872abe23fb8dd81a855c835fb47",
          "blockNumber": "0xf8ffe8",
          "transactionHash": "0x7eff5ba4a9c81ba0725a79fbf57d252f04d3be62d5b5bfc0859cabf6ddc19ee1",
          "transactionIndex": "0x55",
          "logIndex": "0x1b2",
          "removed": false
        }
      ],
      "logsBloom": "0x00000000000000000000000000000000000000000000000000000000000000000000000000000000000000000000000000000000000000000000800000000000000000000000000000000008000000000000000000000000000000200000000000000000020000000000000000000800000000000000000000000010000000000000000100000000000000000000000000000000000000000000002000000000000000000000000000000000000000000000000000000010000000000000000000000002001000000000000000000000000000000000000000000000000020000200000000000000000200000000000000000040000000000000000000000000",
      "type": "0x2",
      "transactionHash": "0x7eff5ba4a9c81ba0725a79fbf57d252f04d3be62d5b5bfc0859cabf6ddc19ee1",
      "transactionIndex": "0x55",
      "blockHash": "0x7a6a97aad447135a8a6dec9ba446820e1ce7b872abe23fb8dd81a855c835fb47",
      "blockNumber": "0xf8ffe8",
      "gasUsed": "0x91b5",
      "effectiveGasPrice": "0x62db66",
      "from": "0x027a5ce58fc466d0e3a9d1990404354029398541",
      "to": "0xcb841a28f16f99e3a561dbeba7e09abc9120a45f",
      "contractAddress": null,
      "l1Fee": "0x330e1d1a9",
      "l1GasPrice": "0x169991045",
      "l1GasUsed": "0x7bc"
    },
    {
      "status": "0x1",
      "cumulativeGasUsed": "0xf917de",
      "logs": [
        {
          "address": "0xcb841a28f16f99e3a561dbeba7e09abc9120a45f",
          "topics": [
            "0xddf252ad1be2c89b69c2b068fc378daa952ba7f163c4a11628f55a4df523b3ef",
            "0x000000000000000000000000791a304547bbe77c3f780e0375762dce478a1c05",
            "0x0000000000000000000000000000000000000000000000000000000000000000",
            "0x000000000000000000000000000000000000000000000000000000000000009a"
          ],
          "data": "0x",
          "blockHash": "0x7a6a97aad447135a8a6dec9ba446820e1ce7b872abe23fb8dd81a855c835fb47",
          "blockNumber": "0xf8ffe8",
          "transactionHash": "0x95f1e3f627866ea500b1aea797f12ce11d24eabf9f4adec5e38affa1dbcb83a9",
          "transactionIndex": "0x57",
          "logIndex": "0x1b7",
          "removed": false
        }
      ],
      "logsBloom": "0x00000000000000000000000000400000000000000000000000000000000000000000000000000000000000000000000000000000000000000000800000000000000000000000000000000008000008000000000000000000020000200000000000000000060000000000000000000800000000000000000000000010000000000000000100000000000000000000000000000000000000000000000000000000000000000000000000000000000000008000000000000000000000000000000000000002000000000000000000000000000000000000000000000000000020000000000000000000000000000000000000000000000000000000000080000000",
      "type": "0x2",
      "transactionHash": "0x95f1e3f627866ea500b1aea797f12ce11d24eabf9f4adec5e38affa1dbcb83a9",
      "transactionIndex": "0x57",
      "blockHash": "0x7a6a97aad447135a8a6dec9ba446820e1ce7b872abe23fb8dd81a855c835fb47",
      "blockNumber": "0xf8ffe8",
      "gasUsed": "0x91b5",
      "effectiveGasPrice": "0x62db66",
      "from": "0x027a5ce58fc466d0e3a9d1990404354029398541",
      "to": "0xcb841a28f16f99e3a561dbeba7e09abc9120a45f",
      "contractAddress": null,
      "l1Fee": "0x330e1d1a9",
      "l1GasPrice": "0x169991045",
      "l1GasUsed": "0x7bc"
    },
    {
      "status": "0x1",
      "cumulativeGasUsed": "0xf9a993",
      "logs": [
        {
          "address": "0xcb841a28f16f99e3a561dbeba7e09abc9120a45f",
          "topics": [
            "0xddf252ad1be2c89b69c2b068fc378daa952ba7f163c4a11628f55a4df523b3ef",
            "0x0000000000000000000000007968e6e01cd7353f9989cf4d6477787693871329",
            "0x0000000000000000000000000000000000000000000000000000000000000000",
            "0x00000000000000000000000000000000000000000000000000000000000000a4"
          ],
          "data": "0x",
          "blockHash": "0x7a6a97aad447135a8a6dec9ba446820e1ce7b872abe23fb8dd81a855c835fb47",
          "blockNumber": "0xf8ffe8",
          "transactionHash": "0x86c38f836abcd62776741e3a55a84a5199c66dc0ffe478a1e1f14fd12542e74e",
          "transactionIndex": "0x58",
          "logIndex": "0x1b8",
          "removed": false
        }
      ],
      "logsBloom": "0x00000000000000000000000000000000000000000000000000000000000000000000000000000000000000000080000000000000000000000000800000000000000000000000000000000008000000000000000000000000000000220000000400000000020000000000000000000800000000000000000000300010000000000000000100000000000000000000000000000000000000000000000000000000000000000000000000000000000000000000000000000000000000000000010000000002000000000000000000000000000000000000000000000000000020000000000000000000000000000000000000000000000000000000000000000000",
      "type": "0x2",
      "transactionHash": "0x86c38f836abcd62776741e3a55a84a5199c66dc0ffe478a1e1f14fd12542e74e",
      "transactionIndex": "0x58",
      "blockHash": "0x7a6a97aad447135a8a6dec9ba446820e1ce7b872abe23fb8dd81a855c835fb47",
      "blockNumber": "0xf8ffe8",
      "gasUsed": "0x91b5",
      "effectiveGasPrice": "0x62db66",
      "from": "0x027a5ce58fc466d0e3a9d1990404354029398541",
      "to": "0xcb841a28f16f99e3a561dbeba7e09abc9120a45f",
      "contractAddress": null,
      "l1Fee": "0x330e1d1a9",
      "l1GasPrice": "0x169991045",
      "l1GasUsed": "0x7bc"
    },
    {
      "status": "0x1",
      "cumulativeGasUsed": "0xfa3b48",
      "logs": [
        {
          "address": "0xcb841a28f16f99e3a561dbeba7e09abc9120a45f",
          "topics": [
            "0xddf252ad1be2c89b69c2b068fc378daa952ba7f163c4a11628f55a4df523b3ef",
            "0x0000000000000000000000008bb34d77f0a588668b0400ec1ccc27568ce800d9",
            "0x0000000000000000000000000000000000000000000000000000000000000000",
            "0x00000000000000000000000000000000000000000000000000000000000000ae"
          ],
          "data": "0x",
          "blockHash": "0x7a6a97aad447135a8a6dec9ba446820e1ce7b872abe23fb8dd81a855c835fb47",
          "blockNumber": "0xf8ffe8",
          "transactionHash": "0x95574fae1b26031486fa5a2da3e372eaefc4997ad94511b962a9ec2822bf0c9d",
          "transactionIndex": "0x59",
          "logIndex": "0x1b9",
          "removed": false
        }
      ],
      "logsBloom": "0x00000000000000000000000000000000000000002000000000000000000000000000000000000000000000000000000000000000000100000000800000000000000000000000000000000008000000000000000000000000000000200000000000000000020000000000000000000800000000000000000000000010000000000000000100000000400000400000000000000000000000000000000000000000000000000000000000000000000000000000000000000000000000020000000000000002000000000000000000000000000000000000000000000000000020000000000000000000000000000000000000000000000000000000000000008000",
      "type": "0x2",
      "transactionHash": "0x95574fae1b26031486fa5a2da3e372eaefc4997ad94511b962a9ec2822bf0c9d",
      "transactionIndex": "0x59",
      "blockHash": "0x7a6a97aad447135a8a6dec9ba446820e1ce7b872abe23fb8dd81a855c835fb47",
      "blockNumber": "0xf8ffe8",
      "gasUsed": "0x91b5",
      "effectiveGasPrice": "0x62db66",
      "from": "0x027a5ce58fc466d0e3a9d1990404354029398541",
      "to": "0xcb841a28f16f99e3a561dbeba7e09abc9120a45f",
      "contractAddress": null,
      "l1Fee": "0x330e1d1a9",
      "l1GasPrice": "0x169991045",
      "l1GasUsed": "0x7bc"
    },
    {
      "status": "0x1",
      "cumulativeGasUsed": "0xfaccfd",
      "logs": [
        {
          "address": "0xcb841a28f16f99e3a561dbeba7e09abc9120a45f",
          "topics": [
            "0xddf252ad1be2c89b69c2b068fc378daa952ba7f163c4a11628f55a4df523b3ef",
            "0x000000000000000000000000916375018b118eebb54eb77873e0a524a0959b34",
            "0x0000000000000000000000000000000000000000000000000000000000000000",
            "0x00000000000000000000000000000000000000000000000000000000000000b8"
          ],
          "data": "0x",
          "blockHash": "0x7a6a97aad447135a8a6dec9ba446820e1ce7b872abe23fb8dd81a855c835fb47",
          "blockNumber": "0xf8ffe8",
          "transactionHash": "0xe56b6c52e6463934e03dd6ebc494f8c52803fa507cb37a5e76df0cb8d27dcac4",
          "transactionIndex": "0x5a",
          "logIndex": "0x1ba",
          "removed": false
        }
      ],
      "logsBloom": "0x00000000000000000000000000000000000000000000000000000000000100000000000000000000000000000000000000000000000001000000800000000000000000000000000000000008000000000000000000000000000000200000000000000000020100000000000000000800000000000000000000000010000000000000000100000000000000000000000000000000000000000000000000000000000000000000000000000000000000000000000000000000000000000000000000000002000000000000000000000000000000000000800000000000300020000000000000000000000000000000000000000000000000000000000000000000",
      "type": "0x2",
      "transactionHash": "0xe56b6c52e6463934e03dd6ebc494f8c52803fa507cb37a5e76df0cb8d27dcac4",
      "transactionIndex": "0x5a",
      "blockHash": "0x7a6a97aad447135a8a6dec9ba446820e1ce7b872abe23fb8dd81a855c835fb47",
      "blockNumber": "0xf8ffe8",
      "gasUsed": "0x91b5",
      "effectiveGasPrice": "0x62db66",
      "from": "0x027a5ce58fc466d0e3a9d1990404354029398541",
      "to": "0xcb841a28f16f99e3a561dbeba7e09abc9120a45f",
      "contractAddress": null,
      "l1Fee": "0x330e1d1a9",
      "l1GasPrice": "0x169991045",
      "l1GasUsed": "0x7bc"
    },
    {
      "status": "0x1",
      "cumulativeGasUsed": "0xfd912d",
      "logs": [
        {
          "address": "0xcb841a28f16f99e3a561dbeba7e09abc9120a45f",
          "topics": [
            "0xddf252ad1be2c89b69c2b068fc378daa952ba7f163c4a11628f55a4df523b3ef",
            "0x00000000000000000000000096ab370638751c2eb503cbd74d78d44df6526f1c",
            "0x0000000000000000000000000000000000000000000000000000000000000000",
            "0x00000000000000000000000000000000000000000000000000000000000000c2"
          ],
          "data": "0x",
          "blockHash": "0x7a6a97aad447135a8a6dec9ba446820e1ce7b872abe23fb8dd81a855c835fb47",
          "blockNumber": "0xf8ffe8",
          "transactionHash": "0xb2c9f12bfb249dcc97394766c3d9ac8cef5c05b02344c570b6aee8e0848685b1",
          "transactionIndex": "0x5c",
          "logIndex": "0x1bf",
          "removed": false
        }
      ],
      "logsBloom": "0x00000000200000000000000000000000000000000000008000000000000000000000000000000000000000000000000000000000000000000000800000000000000000000000000000000008000000000000000000000400000000200000000000000000020200000000000000000800000000000000000000000010000000000000000100000000000000000000000000000000000000080000000000000000000000000000000000000000000000000000000000000000000000000000000000000002000000000000000000000000000000000000000040000000000020000000000000000000000000000000000000000000000000000000000000000000",
      "type": "0x2",
      "transactionHash": "0xb2c9f12bfb249dcc97394766c3d9ac8cef5c05b02344c570b6aee8e0848685b1",
      "transactionIndex": "0x5c",
      "blockHash": "0x7a6a97aad447135a8a6dec9ba446820e1ce7b872abe23fb8dd81a855c835fb47",
      "blockNumber": "0xf8ffe8",
      "gasUsed": "0x91b5",
      "effectiveGasPrice": "0x62db66",
      "from": "0x027a5ce58fc466d0e3a9d1990404354029398541",
      "to": "0xcb841a28f16f99e3a561dbeba7e09abc9120a45f",
      "contractAddress": null,
      "l1Fee": "0x330e1d1a9",
      "l1GasPrice": "0x169991045",
      "l1GasUsed": "0x7bc"
    }
  ],
  "libraries": [],
  "pending": [],
  "returns": {},
  "timestamp": 1719426239,
  "chain": 8453,
  "commit": "3dd2ed9"
}