{
  "transactions": [
    {
      "hash": "0xa5b2be035cc4e2d5dfee862c192177df4e61226322531b81525a55c01ca4d9f4",
      "transactionType": "CALL",
      "contractName": null,
      "contractAddress": "0xcb841a28f16f99e3a561dbeba7e09abc9120a45f",
      "function": "safeMint(address,uint256)",
      "arguments": [
        "0xB2937626152956D7B5bfFFD4a22d021C8592d6bE",
        "1"
      ],
      "transaction": {
        "from": "0x027a5ce58fc466d0e3a9d1990404354029398541",
        "to": "0xcb841a28f16f99e3a561dbeba7e09abc9120a45f",
        "gas": "0x37b53",
        "value": "0x0",
        "input": "0xa1448194000000000000000000000000b2937626152956d7b5bfffd4a22d021c8592d6be0000000000000000000000000000000000000000000000000000000000000001",
        "nonce": "0x35ba",
        "chainId": "0x2105"
      },
      "additionalContracts": [
        {
          "transactionType": "CREATE2",
          "address": "0x60147b293b2bb6357169395d8d0c151dcb3ce17d",
          "initCode": "0x3d60ad80600a3d3981f3363d3d373d3d3d363d73e8ff8eb7e37955e3c1acde1dd164ce4e0916aedc5af43d82803e903d91602b57fd5bf300000000000000000000000000000000000000000000000000000000000000000000000000000000000000000000000000000000000000000000000000002105000000000000000000000000cb841a28f16f99e3a561dbeba7e09abc9120a45f0000000000000000000000000000000000000000000000000000000000000001"
        }
      ],
      "isFixedGasLimit": false
    },
    {
      "hash": "0xebe8cbe2edb6ff01bffe4951a641c6a64bf0a89150e99ce20a577f77d5e30e41",
      "transactionType": "CALL",
      "contractName": null,
      "contractAddress": "0xcb841a28f16f99e3a561dbeba7e09abc9120a45f",
      "function": "safeMint(address,uint256)",
      "arguments": [
        "0xC5518DfB40870Fc5F08AB726Ff646Cb99a2F1Cc7",
        "21"
      ],
      "transaction": {
        "from": "0x027a5ce58fc466d0e3a9d1990404354029398541",
        "to": "0xcb841a28f16f99e3a561dbeba7e09abc9120a45f",
        "gas": "0x37b53",
        "value": "0x0",
        "input": "0xa1448194000000000000000000000000c5518dfb40870fc5f08ab726ff646cb99a2f1cc70000000000000000000000000000000000000000000000000000000000000015",
        "nonce": "0x35bb",
        "chainId": "0x2105"
      },
      "additionalContracts": [
        {
          "transactionType": "CREATE2",
          "address": "0x77e4803d8004f101b70a398754ad1208a3c3af38",
          "initCode": "0x3d60ad80600a3d3981f3363d3d373d3d3d363d73e8ff8eb7e37955e3c1acde1dd164ce4e0916aedc5af43d82803e903d91602b57fd5bf300000000000000000000000000000000000000000000000000000000000000000000000000000000000000000000000000000000000000000000000000002105000000000000000000000000cb841a28f16f99e3a561dbeba7e09abc9120a45f0000000000000000000000000000000000000000000000000000000000000015"
        }
      ],
      "isFixedGasLimit": false
    },
    {
      "hash": "0x31ee11b7e4cbdefb440b7a292639baab672ada110b3e36c6cefb98c03fa8ab7e",
      "transactionType": "CALL",
      "contractName": null,
      "contractAddress": "0xcb841a28f16f99e3a561dbeba7e09abc9120a45f",
      "function": "safeMint(address,uint256)",
      "arguments": [
        "0x0c33Cb6d97D35f8c638154B9aB4c1b162FEd3649",
        "41"
      ],
      "transaction": {
        "from": "0x027a5ce58fc466d0e3a9d1990404354029398541",
        "to": "0xcb841a28f16f99e3a561dbeba7e09abc9120a45f",
        "gas": "0x37b53",
        "value": "0x0",
        "input": "0xa14481940000000000000000000000000c33cb6d97d35f8c638154b9ab4c1b162fed36490000000000000000000000000000000000000000000000000000000000000029",
        "nonce": "0x35bc",
        "chainId": "0x2105"
      },
      "additionalContracts": [
        {
          "transactionType": "CREATE2",
          "address": "0xff8572131b157adf9f10b08510ba0aa23891acc5",
          "initCode": "0x3d60ad80600a3d3981f3363d3d373d3d3d363d73e8ff8eb7e37955e3c1acde1dd164ce4e0916aedc5af43d82803e903d91602b57fd5bf300000000000000000000000000000000000000000000000000000000000000000000000000000000000000000000000000000000000000000000000000002105000000000000000000000000cb841a28f16f99e3a561dbeba7e09abc9120a45f0000000000000000000000000000000000000000000000000000000000000029"
        }
      ],
      "isFixedGasLimit": false
    },
    {
      "hash": "0x31b2021be7ecf18e4dca17f462ec907facf8a3d95429f4bda7bfd159eef480d4",
      "transactionType": "CALL",
      "contractName": null,
      "contractAddress": "0xcb841a28f16f99e3a561dbeba7e09abc9120a45f",
      "function": "safeMint(address,uint256)",
      "arguments": [
        "0x9784a7861DBBB736DEee0Ee03f31aF8E69b883b8",
        "53"
      ],
      "transaction": {
        "from": "0x027a5ce58fc466d0e3a9d1990404354029398541",
        "to": "0xcb841a28f16f99e3a561dbeba7e09abc9120a45f",
        "gas": "0x37b53",
        "value": "0x0",
        "input": "0xa14481940000000000000000000000009784a7861dbbb736deee0ee03f31af8e69b883b80000000000000000000000000000000000000000000000000000000000000035",
        "nonce": "0x35bd",
        "chainId": "0x2105"
      },
      "additionalContracts": [
        {
          "transactionType": "CREATE2",
          "address": "0x4c6765bfc1fd87a232e6e2cc9b919180d37c8151",
          "initCode": "0x3d60ad80600a3d3981f3363d3d373d3d3d363d73e8ff8eb7e37955e3c1acde1dd164ce4e0916aedc5af43d82803e903d91602b57fd5bf300000000000000000000000000000000000000000000000000000000000000000000000000000000000000000000000000000000000000000000000000002105000000000000000000000000cb841a28f16f99e3a561dbeba7e09abc9120a45f0000000000000000000000000000000000000000000000000000000000000035"
        }
      ],
      "isFixedGasLimit": false
    },
    {
      "hash": "0xbd5582f8fa0b9e96a31b9205ab38f7d9cf698983cee1b8ea701b36b656f153e9",
      "transactionType": "CALL",
      "contractName": null,
      "contractAddress": "0xcb841a28f16f99e3a561dbeba7e09abc9120a45f",
      "function": "safeMint(address,uint256)",
      "arguments": [
        "0x01cF90B0A87877E9016791997750B871CAB70fF3",
        "64"
      ],
      "transaction": {
        "from": "0x027a5ce58fc466d0e3a9d1990404354029398541",
        "to": "0xcb841a28f16f99e3a561dbeba7e09abc9120a45f",
        "gas": "0x37b53",
        "value": "0x0",
        "input": "0xa144819400000000000000000000000001cf90b0a87877e9016791997750b871cab70ff30000000000000000000000000000000000000000000000000000000000000040",
        "nonce": "0x35be",
        "chainId": "0x2105"
      },
      "additionalContracts": [
        {
          "transactionType": "CREATE2",
          "address": "0x048d55fe0edd91049d3f53559d5261e05c9f97c2",
          "initCode": "0x3d60ad80600a3d3981f3363d3d373d3d3d363d73e8ff8eb7e37955e3c1acde1dd164ce4e0916aedc5af43d82803e903d91602b57fd5bf300000000000000000000000000000000000000000000000000000000000000000000000000000000000000000000000000000000000000000000000000002105000000000000000000000000cb841a28f16f99e3a561dbeba7e09abc9120a45f0000000000000000000000000000000000000000000000000000000000000040"
        }
      ],
      "isFixedGasLimit": false
    },
    {
      "hash": "0x62cac6767669081b16ce79290789fa704544104981ac5d862f393599fe6d964b",
      "transactionType": "CALL",
      "contractName": null,
      "contractAddress": "0xcb841a28f16f99e3a561dbeba7e09abc9120a45f",
      "function": "safeMint(address,uint256)",
      "arguments": [
        "0x03F2eFdcb4BF042EDceBe7c2A22c8fCDB7E0aF76",
        "74"
      ],
      "transaction": {
        "from": "0x027a5ce58fc466d0e3a9d1990404354029398541",
        "to": "0xcb841a28f16f99e3a561dbeba7e09abc9120a45f",
        "gas": "0x37b53",
        "value": "0x0",
        "input": "0xa144819400000000000000000000000003f2efdcb4bf042edcebe7c2a22c8fcdb7e0af76000000000000000000000000000000000000000000000000000000000000004a",
        "nonce": "0x35bf",
        "chainId": "0x2105"
      },
      "additionalContracts": [
        {
          "transactionType": "CREATE2",
          "address": "0xfee7ef27410400717575d7ae2cb2f604621802da",
          "initCode": "0x3d60ad80600a3d3981f3363d3d373d3d3d363d73e8ff8eb7e37955e3c1acde1dd164ce4e0916aedc5af43d82803e903d91602b57fd5bf300000000000000000000000000000000000000000000000000000000000000000000000000000000000000000000000000000000000000000000000000002105000000000000000000000000cb841a28f16f99e3a561dbeba7e09abc9120a45f000000000000000000000000000000000000000000000000000000000000004a"
        }
      ],
      "isFixedGasLimit": false
    },
    {
      "hash": "0xbc455655a96f34edc918d5f36105638ffea239892cf8618c047097f678e9f371",
      "transactionType": "CALL",
      "contractName": null,
      "contractAddress": "0xcb841a28f16f99e3a561dbeba7e09abc9120a45f",
      "function": "safeMint(address,uint256)",
      "arguments": [
        "0x2799Aa9a16592847Fe8314fd6072A516402557ea",
        "84"
      ],
      "transaction": {
        "from": "0x027a5ce58fc466d0e3a9d1990404354029398541",
        "to": "0xcb841a28f16f99e3a561dbeba7e09abc9120a45f",
        "gas": "0x37b53",
        "value": "0x0",
        "input": "0xa14481940000000000000000000000002799aa9a16592847fe8314fd6072a516402557ea0000000000000000000000000000000000000000000000000000000000000054",
        "nonce": "0x35c0",
        "chainId": "0x2105"
      },
      "additionalContracts": [
        {
          "transactionType": "CREATE2",
          "address": "0x66df23ce7a2578d3931dee70fe539ceb4f68424c",
          "initCode": "0x3d60ad80600a3d3981f3363d3d373d3d3d363d73e8ff8eb7e37955e3c1acde1dd164ce4e0916aedc5af43d82803e903d91602b57fd5bf300000000000000000000000000000000000000000000000000000000000000000000000000000000000000000000000000000000000000000000000000002105000000000000000000000000cb841a28f16f99e3a561dbeba7e09abc9120a45f0000000000000000000000000000000000000000000000000000000000000054"
        }
      ],
      "isFixedGasLimit": false
    },
    {
      "hash": "0x431b95abe6aa1503ae5e400d203f4d44f555555bf2b488e1ec19ef5c1cc35edf",
      "transactionType": "CALL",
      "contractName": null,
      "contractAddress": "0xcb841a28f16f99e3a561dbeba7e09abc9120a45f",
      "function": "safeMint(address,uint256)",
      "arguments": [
        "0x2872A7E0FcEb3975cbBDC36a81d678941977727c",
        "94"
      ],
      "transaction": {
        "from": "0x027a5ce58fc466d0e3a9d1990404354029398541",
        "to": "0xcb841a28f16f99e3a561dbeba7e09abc9120a45f",
        "gas": "0x37b53",
        "value": "0x0",
        "input": "0xa14481940000000000000000000000002872a7e0fceb3975cbbdc36a81d678941977727c000000000000000000000000000000000000000000000000000000000000005e",
        "nonce": "0x35c1",
        "chainId": "0x2105"
      },
      "additionalContracts": [
        {
          "transactionType": "CREATE2",
          "address": "0x3a26161213866c030c6c0b8d0574c2a673c1d78a",
          "initCode": "0x3d60ad80600a3d3981f3363d3d373d3d3d363d73e8ff8eb7e37955e3c1acde1dd164ce4e0916aedc5af43d82803e903d91602b57fd5bf300000000000000000000000000000000000000000000000000000000000000000000000000000000000000000000000000000000000000000000000000002105000000000000000000000000cb841a28f16f99e3a561dbeba7e09abc9120a45f000000000000000000000000000000000000000000000000000000000000005e"
        }
      ],
      "isFixedGasLimit": false
    },
    {
      "hash": "0x53b7312ca31a03e1b373e29fa512b2626abbfd3135e10af6a532f448bc5dc127",
      "transactionType": "CALL",
      "contractName": null,
      "contractAddress": "0xcb841a28f16f99e3a561dbeba7e09abc9120a45f",
      "function": "safeMint(address,uint256)",
      "arguments": [
        "0x59c6C112547B9E9F884cd89ab2D0194c0CEe5BCF",
        "104"
      ],
      "transaction": {
        "from": "0x027a5ce58fc466d0e3a9d1990404354029398541",
        "to": "0xcb841a28f16f99e3a561dbeba7e09abc9120a45f",
        "gas": "0x37b53",
        "value": "0x0",
        "input": "0xa144819400000000000000000000000059c6c112547b9e9f884cd89ab2d0194c0cee5bcf0000000000000000000000000000000000000000000000000000000000000068",
        "nonce": "0x35c2",
        "chainId": "0x2105"
      },
      "additionalContracts": [
        {
          "transactionType": "CREATE2",
          "address": "0xaaba14522659b278d969ae8752e326443035c250",
          "initCode": "0x3d60ad80600a3d3981f3363d3d373d3d3d363d73e8ff8eb7e37955e3c1acde1dd164ce4e0916aedc5af43d82803e903d91602b57fd5bf300000000000000000000000000000000000000000000000000000000000000000000000000000000000000000000000000000000000000000000000000002105000000000000000000000000cb841a28f16f99e3a561dbeba7e09abc9120a45f0000000000000000000000000000000000000000000000000000000000000068"
        }
      ],
      "isFixedGasLimit": false
    },
    {
      "hash": "0x5182b3556c41523f7b35c2dccabe3f82cc778b164461f75a52e6e8f0d77e619a",
      "transactionType": "CALL",
      "contractName": null,
      "contractAddress": "0xcb841a28f16f99e3a561dbeba7e09abc9120a45f",
      "function": "safeMint(address,uint256)",
      "arguments": [
        "0x5e021BA73A2014E089BcBfC15cFe867606c6274E",
        "114"
      ],
      "transaction": {
        "from": "0x027a5ce58fc466d0e3a9d1990404354029398541",
        "to": "0xcb841a28f16f99e3a561dbeba7e09abc9120a45f",
        "gas": "0x37b53",
        "value": "0x0",
        "input": "0xa14481940000000000000000000000005e021ba73a2014e089bcbfc15cfe867606c6274e0000000000000000000000000000000000000000000000000000000000000072",
        "nonce": "0x35c3",
        "chainId": "0x2105"
      },
      "additionalContracts": [
        {
          "transactionType": "CREATE2",
          "address": "0xa5b93eff7892718b3ef1ecd4bf6eb5fb8391f71f",
          "initCode": "0x3d60ad80600a3d3981f3363d3d373d3d3d363d73e8ff8eb7e37955e3c1acde1dd164ce4e0916aedc5af43d82803e903d91602b57fd5bf300000000000000000000000000000000000000000000000000000000000000000000000000000000000000000000000000000000000000000000000000002105000000000000000000000000cb841a28f16f99e3a561dbeba7e09abc9120a45f0000000000000000000000000000000000000000000000000000000000000072"
        }
      ],
      "isFixedGasLimit": false
    },
    {
      "hash": "0xc83a362d67c235bb97fd122bf79cca6500d8d5ce23778601f7b1d0032709a7ca",
      "transactionType": "CALL",
      "contractName": null,
      "contractAddress": "0xcb841a28f16f99e3a561dbeba7e09abc9120a45f",
      "function": "safeMint(address,uint256)",
      "arguments": [
        "0x636d26031441d889476cE82E60D94500D2496461",
        "124"
      ],
      "transaction": {
        "from": "0x027a5ce58fc466d0e3a9d1990404354029398541",
        "to": "0xcb841a28f16f99e3a561dbeba7e09abc9120a45f",
        "gas": "0x3afb1",
        "value": "0x0",
        "input": "0xa1448194000000000000000000000000636d26031441d889476ce82e60d94500d2496461000000000000000000000000000000000000000000000000000000000000007c",
        "nonce": "0x35c4",
        "chainId": "0x2105"
      },
      "additionalContracts": [
        {
          "transactionType": "CREATE2",
          "address": "0x412496114f2cb6203f1421f0f3b263e5fb8a9f83",
          "initCode": "0x3d60ad80600a3d3981f3363d3d373d3d3d363d73e8ff8eb7e37955e3c1acde1dd164ce4e0916aedc5af43d82803e903d91602b57fd5bf300000000000000000000000000000000000000000000000000000000000000000000000000000000000000000000000000000000000000000000000000002105000000000000000000000000cb841a28f16f99e3a561dbeba7e09abc9120a45f000000000000000000000000000000000000000000000000000000000000007c"
        }
      ],
      "isFixedGasLimit": false
    },
    {
      "hash": "0x60318b382351912f35dd2fda8fd0c3857da78235e010eeb649868bcd7c24537e",
      "transactionType": "CALL",
      "contractName": null,
      "contractAddress": "0xcb841a28f16f99e3a561dbeba7e09abc9120a45f",
      "function": "safeMint(address,uint256)",
      "arguments": [
        "0x68F0b43Ad26d43fe21Ee155d9879cC7F6C997016",
        "134"
      ],
      "transaction": {
        "from": "0x027a5ce58fc466d0e3a9d1990404354029398541",
        "to": "0xcb841a28f16f99e3a561dbeba7e09abc9120a45f",
        "gas": "0x37b53",
        "value": "0x0",
        "input": "0xa144819400000000000000000000000068f0b43ad26d43fe21ee155d9879cc7f6c9970160000000000000000000000000000000000000000000000000000000000000086",
        "nonce": "0x35c5",
        "chainId": "0x2105"
      },
      "additionalContracts": [
        {
          "transactionType": "CREATE2",
          "address": "0x3761d16d1fe64c366a31f6b10641c99c43edb657",
          "initCode": "0x3d60ad80600a3d3981f3363d3d373d3d3d363d73e8ff8eb7e37955e3c1acde1dd164ce4e0916aedc5af43d82803e903d91602b57fd5bf300000000000000000000000000000000000000000000000000000000000000000000000000000000000000000000000000000000000000000000000000002105000000000000000000000000cb841a28f16f99e3a561dbeba7e09abc9120a45f0000000000000000000000000000000000000000000000000000000000000086"
        }
      ],
      "isFixedGasLimit": false
    },
    {
      "hash": "0x1397e4bc677c6765c8cea71b97ef1e404c4a53142d0ae80376112e19dbc4856f",
      "transactionType": "CALL",
      "contractName": null,
      "contractAddress": "0xcb841a28f16f99e3a561dbeba7e09abc9120a45f",
      "function": "safeMint(address,uint256)",
      "arguments": [
        "0x6F20f024a967b9030F5975E9DCcc90BAD57D9383",
        "144"
      ],
      "transaction": {
        "from": "0x027a5ce58fc466d0e3a9d1990404354029398541",
        "to": "0xcb841a28f16f99e3a561dbeba7e09abc9120a45f",
        "gas": "0x37b53",
        "value": "0x0",
        "input": "0xa14481940000000000000000000000006f20f024a967b9030f5975e9dccc90bad57d93830000000000000000000000000000000000000000000000000000000000000090",
        "nonce": "0x35c6",
        "chainId": "0x2105"
      },
      "additionalContracts": [
        {
          "transactionType": "CREATE2",
          "address": "0x48f706e7f3a97b21d317b9fbc85d339df5a85873",
          "initCode": "0x3d60ad80600a3d3981f3363d3d373d3d3d363d73e8ff8eb7e37955e3c1acde1dd164ce4e0916aedc5af43d82803e903d91602b57fd5bf300000000000000000000000000000000000000000000000000000000000000000000000000000000000000000000000000000000000000000000000000002105000000000000000000000000cb841a28f16f99e3a561dbeba7e09abc9120a45f0000000000000000000000000000000000000000000000000000000000000090"
        }
      ],
      "isFixedGasLimit": false
    },
    {
      "hash": "0xe1cd3f13fa3ec1edd85174d05969e7f442db933c29f42c9881f5b26b267d2c17",
      "transactionType": "CALL",
      "contractName": null,
      "contractAddress": "0xcb841a28f16f99e3a561dbeba7e09abc9120a45f",
      "function": "safeMint(address,uint256)",
      "arguments": [
        "0x791a304547BbE77C3F780e0375762DCE478A1c05",
        "154"
      ],
      "transaction": {
        "from": "0x027a5ce58fc466d0e3a9d1990404354029398541",
        "to": "0xcb841a28f16f99e3a561dbeba7e09abc9120a45f",
        "gas": "0x37b53",
        "value": "0x0",
        "input": "0xa1448194000000000000000000000000791a304547bbe77c3f780e0375762dce478a1c05000000000000000000000000000000000000000000000000000000000000009a",
        "nonce": "0x35c7",
        "chainId": "0x2105"
      },
      "additionalContracts": [
        {
          "transactionType": "CREATE2",
          "address": "0x4fdcf309ae9360a18984a2f8e8dbdbac9346a905",
          "initCode": "0x3d60ad80600a3d3981f3363d3d373d3d3d363d73e8ff8eb7e37955e3c1acde1dd164ce4e0916aedc5af43d82803e903d91602b57fd5bf300000000000000000000000000000000000000000000000000000000000000000000000000000000000000000000000000000000000000000000000000002105000000000000000000000000cb841a28f16f99e3a561dbeba7e09abc9120a45f000000000000000000000000000000000000000000000000000000000000009a"
        }
      ],
      "isFixedGasLimit": false
    },
    {
      "hash": "0x4543880f681c54f0a946e80f007dc651ef09ea01e4adaf0321257272c2bfa193",
      "transactionType": "CALL",
      "contractName": null,
      "contractAddress": "0xcb841a28f16f99e3a561dbeba7e09abc9120a45f",
      "function": "safeMint(address,uint256)",
      "arguments": [
        "0x7968E6e01CD7353f9989CF4d6477787693871329",
        "164"
      ],
      "transaction": {
        "from": "0x027a5ce58fc466d0e3a9d1990404354029398541",
        "to": "0xcb841a28f16f99e3a561dbeba7e09abc9120a45f",
        "gas": "0x37b53",
        "value": "0x0",
        "input": "0xa14481940000000000000000000000007968e6e01cd7353f9989cf4d647778769387132900000000000000000000000000000000000000000000000000000000000000a4",
        "nonce": "0x35c8",
        "chainId": "0x2105"
      },
      "additionalContracts": [
        {
          "transactionType": "CREATE2",
          "address": "0xdc6ed600407757bf51ab4314b76bbbf6d7531aae",
          "initCode": "0x3d60ad80600a3d3981f3363d3d373d3d3d363d73e8ff8eb7e37955e3c1acde1dd164ce4e0916aedc5af43d82803e903d91602b57fd5bf300000000000000000000000000000000000000000000000000000000000000000000000000000000000000000000000000000000000000000000000000002105000000000000000000000000cb841a28f16f99e3a561dbeba7e09abc9120a45f00000000000000000000000000000000000000000000000000000000000000a4"
        }
      ],
      "isFixedGasLimit": false
    },
    {
      "hash": "0x2e5145324424185cf90b8fa9532f4c5c0127a570cf445087f8c4df6c0007fdfb",
      "transactionType": "CALL",
      "contractName": null,
      "contractAddress": "0xcb841a28f16f99e3a561dbeba7e09abc9120a45f",
      "function": "safeMint(address,uint256)",
      "arguments": [
        "0x8Bb34D77f0a588668b0400Ec1CCc27568CE800d9",
        "174"
      ],
      "transaction": {
        "from": "0x027a5ce58fc466d0e3a9d1990404354029398541",
        "to": "0xcb841a28f16f99e3a561dbeba7e09abc9120a45f",
        "gas": "0x37b33",
        "value": "0x0",
        "input": "0xa14481940000000000000000000000008bb34d77f0a588668b0400ec1ccc27568ce800d900000000000000000000000000000000000000000000000000000000000000ae",
        "nonce": "0x35c9",
        "chainId": "0x2105"
      },
      "additionalContracts": [
        {
          "transactionType": "CREATE2",
          "address": "0xfa9a1a31a6fa94fb3a5208c2e782bc69b105a92c",
          "initCode": "0x3d60ad80600a3d3981f3363d3d373d3d3d363d73e8ff8eb7e37955e3c1acde1dd164ce4e0916aedc5af43d82803e903d91602b57fd5bf300000000000000000000000000000000000000000000000000000000000000000000000000000000000000000000000000000000000000000000000000002105000000000000000000000000cb841a28f16f99e3a561dbeba7e09abc9120a45f00000000000000000000000000000000000000000000000000000000000000ae"
        }
      ],
      "isFixedGasLimit": false
    },
    {
      "hash": "0xa4206d74e0ab32caa3c67e9083f614ea8f635815fe063b929fb1943a52715717",
      "transactionType": "CALL",
      "contractName": null,
      "contractAddress": "0xcb841a28f16f99e3a561dbeba7e09abc9120a45f",
      "function": "safeMint(address,uint256)",
      "arguments": [
        "0x916375018B118EeBb54eB77873e0A524A0959B34",
        "184"
      ],
      "transaction": {
        "from": "0x027a5ce58fc466d0e3a9d1990404354029398541",
        "to": "0xcb841a28f16f99e3a561dbeba7e09abc9120a45f",
        "gas": "0x37b53",
        "value": "0x0",
        "input": "0xa1448194000000000000000000000000916375018b118eebb54eb77873e0a524a0959b3400000000000000000000000000000000000000000000000000000000000000b8",
        "nonce": "0x35ca",
        "chainId": "0x2105"
      },
      "additionalContracts": [
        {
          "transactionType": "CREATE2",
          "address": "0xa5119b2ad6dcb8f072f806ad937e980b2132d655",
          "initCode": "0x3d60ad80600a3d3981f3363d3d373d3d3d363d73e8ff8eb7e37955e3c1acde1dd164ce4e0916aedc5af43d82803e903d91602b57fd5bf300000000000000000000000000000000000000000000000000000000000000000000000000000000000000000000000000000000000000000000000000002105000000000000000000000000cb841a28f16f99e3a561dbeba7e09abc9120a45f00000000000000000000000000000000000000000000000000000000000000b8"
        }
      ],
      "isFixedGasLimit": false
    },
    {
      "hash": "0xd0303359c9d90357b735cd47b51d34bc01c216d57810b746aa856ee57b0b161a",
      "transactionType": "CALL",
      "contractName": null,
      "contractAddress": "0xcb841a28f16f99e3a561dbeba7e09abc9120a45f",
      "function": "safeMint(address,uint256)",
      "arguments": [
        "0x96Ab370638751c2eB503cBd74d78d44df6526f1C",
        "194"
      ],
      "transaction": {
        "from": "0x027a5ce58fc466d0e3a9d1990404354029398541",
        "to": "0xcb841a28f16f99e3a561dbeba7e09abc9120a45f",
        "gas": "0x37b53",
        "value": "0x0",
        "input": "0xa144819400000000000000000000000096ab370638751c2eb503cbd74d78d44df6526f1c00000000000000000000000000000000000000000000000000000000000000c2",
        "nonce": "0x35cb",
        "chainId": "0x2105"
      },
      "additionalContracts": [
        {
          "transactionType": "CREATE2",
          "address": "0x97c76d1bf6743ba14314e28877baea42b832ecbf",
          "initCode": "0x3d60ad80600a3d3981f3363d3d373d3d3d363d73e8ff8eb7e37955e3c1acde1dd164ce4e0916aedc5af43d82803e903d91602b57fd5bf300000000000000000000000000000000000000000000000000000000000000000000000000000000000000000000000000000000000000000000000000002105000000000000000000000000cb841a28f16f99e3a561dbeba7e09abc9120a45f00000000000000000000000000000000000000000000000000000000000000c2"
        }
      ],
      "isFixedGasLimit": false
    }
  ],
  "receipts": [
    {
      "status": "0x1",
      "cumulativeGasUsed": "0xa2102f",
      "logs": [
        {
          "address": "0xcb841a28f16f99e3a561dbeba7e09abc9120a45f",
          "topics": [
            "0xddf252ad1be2c89b69c2b068fc378daa952ba7f163c4a11628f55a4df523b3ef",
            "0x0000000000000000000000000000000000000000000000000000000000000000",
            "0x000000000000000000000000b2937626152956d7b5bfffd4a22d021c8592d6be",
            "0x0000000000000000000000000000000000000000000000000000000000000001"
          ],
          "data": "0x",
          "blockHash": "0x5767cc9198572bb32c690a9ba32da9082515312e85f535fea1083976cf4f6a3b",
          "blockNumber": "0xf8fb86",
          "transactionHash": "0xa5b2be035cc4e2d5dfee862c192177df4e61226322531b81525a55c01ca4d9f4",
          "transactionIndex": "0x46",
          "logIndex": "0xfe",
          "removed": false
        },
        {
          "address": "0x42481fb333b4255cd7d1259a4451d5675dfa2c35",
          "topics": [
            "0x79f19b3655ee38b1ce526556b7731a20c8f218fbda4a3990b6cc4172fdf88722",
            "0x000000000000000000000000e8ff8eb7e37955e3c1acde1dd164ce4e0916aedc",
            "0x000000000000000000000000cb841a28f16f99e3a561dbeba7e09abc9120a45f",
            "0x0000000000000000000000000000000000000000000000000000000000000001"
          ],
          "data": "0x00000000000000000000000060147b293b2bb6357169395d8d0c151dcb3ce17d00000000000000000000000000000000000000000000000000000000000000000000000000000000000000000000000000000000000000000000000000002105",
          "blockHash": "0x5767cc9198572bb32c690a9ba32da9082515312e85f535fea1083976cf4f6a3b",
          "blockNumber": "0xf8fb86",
          "transactionHash": "0xa5b2be035cc4e2d5dfee862c192177df4e61226322531b81525a55c01ca4d9f4",
          "transactionIndex": "0x46",
          "logIndex": "0xff",
          "removed": false
        },
        {
          "address": "0xcb841a28f16f99e3a561dbeba7e09abc9120a45f",
          "topics": [
            "0xa0038d61ac7f17fe47f8776a0cf1e4845408cdca012144f1b7a61bc084e2eaa5",
            "0x00000000000000000000000060147b293b2bb6357169395d8d0c151dcb3ce17d"
          ],
          "data": "0x000000000000000000000000cb841a28f16f99e3a561dbeba7e09abc9120a45f0000000000000000000000000000000000000000000000000000000000000001",
          "blockHash": "0x5767cc9198572bb32c690a9ba32da9082515312e85f535fea1083976cf4f6a3b",
          "blockNumber": "0xf8fb86",
          "transactionHash": "0xa5b2be035cc4e2d5dfee862c192177df4e61226322531b81525a55c01ca4d9f4",
          "transactionIndex": "0x46",
          "logIndex": "0x100",
          "removed": false
        }
      ],
      "logsBloom": "0x20010000000000010000000200000004000000000000000040000004000000000000000000000000000000000000000000000000000001000040800000040000000000000000000000000008000000000000000000040000000000200000000000002000020000000000000000000800000000000000010000000010000000000010080100000040000020000000000000000000000000000002000000000100000000000000000000000000000000000000000000000000000000000000000000000002000000008000000000000800000000000000000000000000000060000000000000000000000000000000000000200000000000008000000000000000",
      "type": "0x2",
      "transactionHash": "0xa5b2be035cc4e2d5dfee862c192177df4e61226322531b81525a55c01ca4d9f4",
      "transactionIndex": "0x46",
      "blockHash": "0x5767cc9198572bb32c690a9ba32da9082515312e85f535fea1083976cf4f6a3b",
      "blockNumber": "0xf8fb86",
      "gasUsed": "0x2854f",
      "effectiveGasPrice": "0x6ed336",
      "from": "0x027a5ce58fc466d0e3a9d1990404354029398541",
      "to": "0xcb841a28f16f99e3a561dbeba7e09abc9120a45f",
      "contractAddress": null,
      "l1Fee": "0x7ed1122a2",
      "l1GasPrice": "0x2faad37e3",
      "l1GasUsed": "0x94c"
    },
    {
      "status": "0x1",
      "cumulativeGasUsed": "0xa4957e",
      "logs": [
        {
          "address": "0xcb841a28f16f99e3a561dbeba7e09abc9120a45f",
          "topics": [
            "0xddf252ad1be2c89b69c2b068fc378daa952ba7f163c4a11628f55a4df523b3ef",
            "0x0000000000000000000000000000000000000000000000000000000000000000",
            "0x000000000000000000000000c5518dfb40870fc5f08ab726ff646cb99a2f1cc7",
            "0x0000000000000000000000000000000000000000000000000000000000000015"
          ],
          "data": "0x",
          "blockHash": "0x5767cc9198572bb32c690a9ba32da9082515312e85f535fea1083976cf4f6a3b",
          "blockNumber": "0xf8fb86",
          "transactionHash": "0xebe8cbe2edb6ff01bffe4951a641c6a64bf0a89150e99ce20a577f77d5e30e41",
          "transactionIndex": "0x47",
          "logIndex": "0x101",
          "removed": false
        },
        {
          "address": "0x42481fb333b4255cd7d1259a4451d5675dfa2c35",
          "topics": [
            "0x79f19b3655ee38b1ce526556b7731a20c8f218fbda4a3990b6cc4172fdf88722",
            "0x000000000000000000000000e8ff8eb7e37955e3c1acde1dd164ce4e0916aedc",
            "0x000000000000000000000000cb841a28f16f99e3a561dbeba7e09abc9120a45f",
            "0x0000000000000000000000000000000000000000000000000000000000000015"
          ],
          "data": "0x00000000000000000000000077e4803d8004f101b70a398754ad1208a3c3af3800000000000000000000000000000000000000000000000000000000000000000000000000000000000000000000000000000000000000000000000000002105",
          "blockHash": "0x5767cc9198572bb32c690a9ba32da9082515312e85f535fea1083976cf4f6a3b",
          "blockNumber": "0xf8fb86",
          "transactionHash": "0xebe8cbe2edb6ff01bffe4951a641c6a64bf0a89150e99ce20a577f77d5e30e41",
          "transactionIndex": "0x47",
          "logIndex": "0x102",
          "removed": false
        },
        {
          "address": "0xcb841a28f16f99e3a561dbeba7e09abc9120a45f",
          "topics": [
            "0xa0038d61ac7f17fe47f8776a0cf1e4845408cdca012144f1b7a61bc084e2eaa5",
            "0x00000000000000000000000077e4803d8004f101b70a398754ad1208a3c3af38"
          ],
          "data": "0x000000000000000000000000cb841a28f16f99e3a561dbeba7e09abc9120a45f0000000000000000000000000000000000000000000000000000000000000015",
          "blockHash": "0x5767cc9198572bb32c690a9ba32da9082515312e85f535fea1083976cf4f6a3b",
          "blockNumber": "0xf8fb86",
          "transactionHash": "0xebe8cbe2edb6ff01bffe4951a641c6a64bf0a89150e99ce20a577f77d5e30e41",
          "transactionIndex": "0x47",
          "logIndex": "0x103",
          "removed": false
        }
      ],
      "logsBloom": "0x00010000800000000000000200000004000000000000000040200004000000000000000000000000000000000000000000000080000001000040800000000000001000000000000000000008000000000000000000000000000000200000000000000000020000000000000000000800000000000000010000000010000000000010080100010000000020000000000000000000000000000000000000000100000000000000000000000000010000000000000000000000000000000000000000200002000000008000000000000000000000000000000000000000000020002000000000000000008000000000000000200000000000008000000000000000",
      "type": "0x2",
      "transactionHash": "0xebe8cbe2edb6ff01bffe4951a641c6a64bf0a89150e99ce20a577f77d5e30e41",
      "transactionIndex": "0x47",
      "blockHash": "0x5767cc9198572bb32c690a9ba32da9082515312e85f535fea1083976cf4f6a3b",
      "blockNumber": "0xf8fb86",
      "gasUsed": "0x2854f",
      "effectiveGasPrice": "0x6ed336",
      "from": "0x027a5ce58fc466d0e3a9d1990404354029398541",
      "to": "0xcb841a28f16f99e3a561dbeba7e09abc9120a45f",
      "contractAddress": null,
      "l1Fee": "0x7ed1122a2",
      "l1GasPrice": "0x2faad37e3",
      "l1GasUsed": "0x94c"
    },
    {
      "status": "0x1",
      "cumulativeGasUsed": "0xa71acd",
      "logs": [
        {
          "address": "0xcb841a28f16f99e3a561dbeba7e09abc9120a45f",
          "topics": [
            "0xddf252ad1be2c89b69c2b068fc378daa952ba7f163c4a11628f55a4df523b3ef",
            "0x0000000000000000000000000000000000000000000000000000000000000000",
            "0x0000000000000000000000000c33cb6d97d35f8c638154b9ab4c1b162fed3649",
            "0x0000000000000000000000000000000000000000000000000000000000000029"
          ],
          "data": "0x",
          "blockHash": "0x5767cc9198572bb32c690a9ba32da9082515312e85f535fea1083976cf4f6a3b",
          "blockNumber": "0xf8fb86",
          "transactionHash": "0x31ee11b7e4cbdefb440b7a292639baab672ada110b3e36c6cefb98c03fa8ab7e",
          "transactionIndex": "0x48",
          "logIndex": "0x104",
          "removed": false
        },
        {
          "address": "0x42481fb333b4255cd7d1259a4451d5675dfa2c35",
          "topics": [
            "0x79f19b3655ee38b1ce526556b7731a20c8f218fbda4a3990b6cc4172fdf88722",
            "0x000000000000000000000000e8ff8eb7e37955e3c1acde1dd164ce4e0916aedc",
            "0x000000000000000000000000cb841a28f16f99e3a561dbeba7e09abc9120a45f",
            "0x0000000000000000000000000000000000000000000000000000000000000029"
          ],
          "data": "0x000000000000000000000000ff8572131b157adf9f10b08510ba0aa23891acc500000000000000000000000000000000000000000000000000000000000000000000000000000000000000000000000000000000000000000000000000002105",
          "blockHash": "0x5767cc9198572bb32c690a9ba32da9082515312e85f535fea1083976cf4f6a3b",
          "blockNumber": "0xf8fb86",
          "transactionHash": "0x31ee11b7e4cbdefb440b7a292639baab672ada110b3e36c6cefb98c03fa8ab7e",
          "transactionIndex": "0x48",
          "logIndex": "0x105",
          "removed": false
        },
        {
          "address": "0xcb841a28f16f99e3a561dbeba7e09abc9120a45f",
          "topics": [
            "0xa0038d61ac7f17fe47f8776a0cf1e4845408cdca012144f1b7a61bc084e2eaa5",
            "0x000000000000000000000000ff8572131b157adf9f10b08510ba0aa23891acc5"
          ],
          "data": "0x000000000000000000000000cb841a28f16f99e3a561dbeba7e09abc9120a45f0000000000000000000000000000000000000000000000000000000000000029",
          "blockHash": "0x5767cc9198572bb32c690a9ba32da9082515312e85f535fea1083976cf4f6a3b",
          "blockNumber": "0xf8fb86",
          "transactionHash": "0x31ee11b7e4cbdefb440b7a292639baab672ada110b3e36c6cefb98c03fa8ab7e",
          "transactionIndex": "0x48",
          "logIndex": "0x106",
          "removed": false
        }
      ],
      "logsBloom": "0x00010000000000000000000200008004000000000000000040000004000000000000000000000000000000000000000000000000000001000040800000000000000000000000000080000008000000000200000000000000000000200000000000000001020040000000000000000800000000000020010000000010000000000010080100000000000020000000000010000000001000000000000000000100000000000200000000000000000000000000000000000000000000000000000000000002000000008000000000000000000000000000000000000000000020000000000000000000000000000000000000200000000000008000000000000000",
      "type": "0x2",
      "transactionHash": "0x31ee11b7e4cbdefb440b7a292639baab672ada110b3e36c6cefb98c03fa8ab7e",
      "transactionIndex": "0x48",
      "blockHash": "0x5767cc9198572bb32c690a9ba32da9082515312e85f535fea1083976cf4f6a3b",
      "blockNumber": "0xf8fb86",
      "gasUsed": "0x2854f",
      "effectiveGasPrice": "0x6ed336",
      "from": "0x027a5ce58fc466d0e3a9d1990404354029398541",
      "to": "0xcb841a28f16f99e3a561dbeba7e09abc9120a45f",
      "contractAddress": null,
      "l1Fee": "0x7df6d1813",
      "l1GasPrice": "0x2faad37e3",
      "l1GasUsed": "0x93c"
    },
    {
      "status": "0x1",
      "cumulativeGasUsed": "0xa9a01c",
      "logs": [
        {
          "address": "0xcb841a28f16f99e3a561dbeba7e09abc9120a45f",
          "topics": [
            "0xddf252ad1be2c89b69c2b068fc378daa952ba7f163c4a11628f55a4df523b3ef",
            "0x0000000000000000000000000000000000000000000000000000000000000000",
            "0x0000000000000000000000009784a7861dbbb736deee0ee03f31af8e69b883b8",
            "0x0000000000000000000000000000000000000000000000000000000000000035"
          ],
          "data": "0x",
          "blockHash": "0x5767cc9198572bb32c690a9ba32da9082515312e85f535fea1083976cf4f6a3b",
          "blockNumber": "0xf8fb86",
          "transactionHash": "0x31b2021be7ecf18e4dca17f462ec907facf8a3d95429f4bda7bfd159eef480d4",
          "transactionIndex": "0x49",
          "logIndex": "0x107",
          "removed": false
        },
        {
          "address": "0x42481fb333b4255cd7d1259a4451d5675dfa2c35",
          "topics": [
            "0x79f19b3655ee38b1ce526556b7731a20c8f218fbda4a3990b6cc4172fdf88722",
            "0x000000000000000000000000e8ff8eb7e37955e3c1acde1dd164ce4e0916aedc",
            "0x000000000000000000000000cb841a28f16f99e3a561dbeba7e09abc9120a45f",
            "0x0000000000000000000000000000000000000000000000000000000000000035"
          ],
          "data": "0x0000000000000000000000004c6765bfc1fd87a232e6e2cc9b919180d37c815100000000000000000000000000000000000000000000000000000000000000000000000000000000000000000000000000000000000000000000000000002105",
          "blockHash": "0x5767cc9198572bb32c690a9ba32da9082515312e85f535fea1083976cf4f6a3b",
          "blockNumber": "0xf8fb86",
          "transactionHash": "0x31b2021be7ecf18e4dca17f462ec907facf8a3d95429f4bda7bfd159eef480d4",
          "transactionIndex": "0x49",
          "logIndex": "0x108",
          "removed": false
        },
        {
          "address": "0xcb841a28f16f99e3a561dbeba7e09abc9120a45f",
          "topics": [
            "0xa0038d61ac7f17fe47f8776a0cf1e4845408cdca012144f1b7a61bc084e2eaa5",
            "0x0000000000000000000000004c6765bfc1fd87a232e6e2cc9b919180d37c8151"
          ],
          "data": "0x000000000000000000000000cb841a28f16f99e3a561dbeba7e09abc9120a45f0000000000000000000000000000000000000000000000000000000000000035",
          "blockHash": "0x5767cc9198572bb32c690a9ba32da9082515312e85f535fea1083976cf4f6a3b",
          "blockNumber": "0xf8fb86",
          "transactionHash": "0x31b2021be7ecf18e4dca17f462ec907facf8a3d95429f4bda7bfd159eef480d4",
          "transactionIndex": "0x49",
          "logIndex": "0x109",
          "removed": false
        }
      ],
      "logsBloom": "0x00010000000000000000001200000004000000000000000041000004000000000000000000000002000000000000000000000000000001000040900000000000000000000000000000000008000000800000000000000000000000200000000000000000020000000000000000000800000000000000010000000010000000000010080100000000000020800000000000000000000000000000020000000100000000000000000000000000000000000000000000000000001000200000000000000002000000008000000000000000000000000000000000000000000020000000000000000000000000000000000000200000000000008000000000000000",
      "type": "0x2",
      "transactionHash": "0x31b2021be7ecf18e4dca17f462ec907facf8a3d95429f4bda7bfd159eef480d4",
      "transactionIndex": "0x49",
      "blockHash": "0x5767cc9198572bb32c690a9ba32da9082515312e85f535fea1083976cf4f6a3b",
      "blockNumber": "0xf8fb86",
      "gasUsed": "0x2854f",
      "effectiveGasPrice": "0x6ed336",
      "from": "0x027a5ce58fc466d0e3a9d1990404354029398541",
      "to": "0xcb841a28f16f99e3a561dbeba7e09abc9120a45f",
      "contractAddress": null,
      "l1Fee": "0x7ed1122a2",
      "l1GasPrice": "0x2faad37e3",
      "l1GasUsed": "0x94c"
    },
    {
      "status": "0x1",
      "cumulativeGasUsed": "0xac256b",
      "logs": [
        {
          "address": "0xcb841a28f16f99e3a561dbeba7e09abc9120a45f",
          "topics": [
            "0xddf252ad1be2c89b69c2b068fc378daa952ba7f163c4a11628f55a4df523b3ef",
            "0x0000000000000000000000000000000000000000000000000000000000000000",
            "0x00000000000000000000000001cf90b0a87877e9016791997750b871cab70ff3",
            "0x0000000000000000000000000000000000000000000000000000000000000040"
          ],
          "data": "0x",
          "blockHash": "0x5767cc9198572bb32c690a9ba32da9082515312e85f535fea1083976cf4f6a3b",
          "blockNumber": "0xf8fb86",
          "transactionHash": "0xbd5582f8fa0b9e96a31b9205ab38f7d9cf698983cee1b8ea701b36b656f153e9",
          "transactionIndex": "0x4a",
          "logIndex": "0x10a",
          "removed": false
        },
        {
          "address": "0x42481fb333b4255cd7d1259a4451d5675dfa2c35",
          "topics": [
            "0x79f19b3655ee38b1ce526556b7731a20c8f218fbda4a3990b6cc4172fdf88722",
            "0x000000000000000000000000e8ff8eb7e37955e3c1acde1dd164ce4e0916aedc",
            "0x000000000000000000000000cb841a28f16f99e3a561dbeba7e09abc9120a45f",
            "0x0000000000000000000000000000000000000000000000000000000000000040"
          ],
          "data": "0x000000000000000000000000048d55fe0edd91049d3f53559d5261e05c9f97c200000000000000000000000000000000000000000000000000000000000000000000000000000000000000000000000000000000000000000000000000002105",
          "blockHash": "0x5767cc9198572bb32c690a9ba32da9082515312e85f535fea1083976cf4f6a3b",
          "blockNumber": "0xf8fb86",
          "transactionHash": "0xbd5582f8fa0b9e96a31b9205ab38f7d9cf698983cee1b8ea701b36b656f153e9",
          "transactionIndex": "0x4a",
          "logIndex": "0x10b",
          "removed": false
        },
        {
          "address": "0xcb841a28f16f99e3a561dbeba7e09abc9120a45f",
          "topics": [
            "0xa0038d61ac7f17fe47f8776a0cf1e4845408cdca012144f1b7a61bc084e2eaa5",
            "0x000000000000000000000000048d55fe0edd91049d3f53559d5261e05c9f97c2"
          ],
          "data": "0x000000000000000000000000cb841a28f16f99e3a561dbeba7e09abc9120a45f0000000000000000000000000000000000000000000000000000000000000040",
          "blockHash": "0x5767cc9198572bb32c690a9ba32da9082515312e85f535fea1083976cf4f6a3b",
          "blockNumber": "0xf8fb86",
          "transactionHash": "0xbd5582f8fa0b9e96a31b9205ab38f7d9cf698983cee1b8ea701b36b656f153e9",
          "transactionIndex": "0x4a",
          "logIndex": "0x10c",
          "removed": false
        }
      ],
      "logsBloom": "0x00010040000000001000000200000004000000000000000040000004000000000000000100008000000000020000000000010020000001000040800000000000000000000000000000000008000000000000000000000000000080200000000000000000020000000000000000000800000000000000010000000010000000000010080100000000000020000000000000000000000000000000000000000100000000000000000000000000000000000000000000000000000000000000000000000002000000008000000000000000000000000000000000000100000020000000000000000000000000000000000000200000000000008000000000000000",
      "type": "0x2",
      "transactionHash": "0xbd5582f8fa0b9e96a31b9205ab38f7d9cf698983cee1b8ea701b36b656f153e9",
      "transactionIndex": "0x4a",
      "blockHash": "0x5767cc9198572bb32c690a9ba32da9082515312e85f535fea1083976cf4f6a3b",
      "blockNumber": "0xf8fb86",
      "gasUsed": "0x2854f",
      "effectiveGasPrice": "0x6ed336",
      "from": "0x027a5ce58fc466d0e3a9d1990404354029398541",
      "to": "0xcb841a28f16f99e3a561dbeba7e09abc9120a45f",
      "contractAddress": null,
      "l1Fee": "0x7e2d61ab7",
      "l1GasPrice": "0x2faad37e3",
      "l1GasUsed": "0x940"
    },
    {
      "status": "0x1",
      "cumulativeGasUsed": "0xaeaaba",
      "logs": [
        {
          "address": "0xcb841a28f16f99e3a561dbeba7e09abc9120a45f",
          "topics": [
            "0xddf252ad1be2c89b69c2b068fc378daa952ba7f163c4a11628f55a4df523b3ef",
            "0x0000000000000000000000000000000000000000000000000000000000000000",
            "0x00000000000000000000000003f2efdcb4bf042edcebe7c2a22c8fcdb7e0af76",
            "0x000000000000000000000000000000000000000000000000000000000000004a"
          ],
          "data": "0x",
          "blockHash": "0x5767cc9198572bb32c690a9ba32da9082515312e85f535fea1083976cf4f6a3b",
          "blockNumber": "0xf8fb86",
          "transactionHash": "0x62cac6767669081b16ce79290789fa704544104981ac5d862f393599fe6d964b",
          "transactionIndex": "0x4b",
          "logIndex": "0x10d",
          "removed": false
        },
        {
          "address": "0x42481fb333b4255cd7d1259a4451d5675dfa2c35",
          "topics": [
            "0x79f19b3655ee38b1ce526556b7731a20c8f218fbda4a3990b6cc4172fdf88722",
            "0x000000000000000000000000e8ff8eb7e37955e3c1acde1dd164ce4e0916aedc",
            "0x000000000000000000000000cb841a28f16f99e3a561dbeba7e09abc9120a45f",
            "0x000000000000000000000000000000000000000000000000000000000000004a"
          ],
          "data": "0x000000000000000000000000fee7ef27410400717575d7ae2cb2f604621802da00000000000000000000000000000000000000000000000000000000000000000000000000000000000000000000000000000000000000000000000000002105",
          "blockHash": "0x5767cc9198572bb32c690a9ba32da9082515312e85f535fea1083976cf4f6a3b",
          "blockNumber": "0xf8fb86",
          "transactionHash": "0x62cac6767669081b16ce79290789fa704544104981ac5d862f393599fe6d964b",
          "transactionIndex": "0x4b",
          "logIndex": "0x10e",
          "removed": false
        },
        {
          "address": "0xcb841a28f16f99e3a561dbeba7e09abc9120a45f",
          "topics": [
            "0xa0038d61ac7f17fe47f8776a0cf1e4845408cdca012144f1b7a61bc084e2eaa5",
            "0x000000000000000000000000fee7ef27410400717575d7ae2cb2f604621802da"
          ],
          "data": "0x000000000000000000000000cb841a28f16f99e3a561dbeba7e09abc9120a45f000000000000000000000000000000000000000000000000000000000000004a",
          "blockHash": "0x5767cc9198572bb32c690a9ba32da9082515312e85f535fea1083976cf4f6a3b",
          "blockNumber": "0xf8fb86",
          "transactionHash": "0x62cac6767669081b16ce79290789fa704544104981ac5d862f393599fe6d964b",
          "transactionIndex": "0x4b",
          "logIndex": "0x10f",
          "removed": false
        }
      ],
      "logsBloom": "0x00010000000010000000000200000004000000000000000040000004000000000000000000000000000000000000000000000000000001000040800000000000000000000000000000000008004000000000000000000000000000200000000000000000021000200000000000000800000000000000010000000010000000000010080100000000000020000000000000000000000000000000000000000100000000000000000000000000000000000000000000000000000040000400000000000002000000008200000000020000000000000000000000000000000020001000000000000000000000000000000000200000000000008000000000000000",
      "type": "0x2",
      "transactionHash": "0x62cac6767669081b16ce79290789fa704544104981ac5d862f393599fe6d964b",
      "transactionIndex": "0x4b",
      "blockHash": "0x5767cc9198572bb32c690a9ba32da9082515312e85f535fea1083976cf4f6a3b",
      "blockNumber": "0xf8fb86",
      "gasUsed": "0x2854f",
      "effectiveGasPrice": "0x6ed336",
      "from": "0x027a5ce58fc466d0e3a9d1990404354029398541",
      "to": "0xcb841a28f16f99e3a561dbeba7e09abc9120a45f",
      "contractAddress": null,
      "l1Fee": "0x7e2d61ab7",
      "l1GasPrice": "0x2faad37e3",
      "l1GasUsed": "0x940"
    },
    {
      "status": "0x1",
      "cumulativeGasUsed": "0xb13009",
      "logs": [
        {
          "address": "0xcb841a28f16f99e3a561dbeba7e09abc9120a45f",
          "topics": [
            "0xddf252ad1be2c89b69c2b068fc378daa952ba7f163c4a11628f55a4df523b3ef",
            "0x0000000000000000000000000000000000000000000000000000000000000000",
            "0x0000000000000000000000002799aa9a16592847fe8314fd6072a516402557ea",
            "0x0000000000000000000000000000000000000000000000000000000000000054"
          ],
          "data": "0x",
          "blockHash": "0x5767cc9198572bb32c690a9ba32da9082515312e85f535fea1083976cf4f6a3b",
          "blockNumber": "0xf8fb86",
          "transactionHash": "0xbc455655a96f34edc918d5f36105638ffea239892cf8618c047097f678e9f371",
          "transactionIndex": "0x4c",
          "logIndex": "0x110",
          "removed": false
        },
        {
          "address": "0x42481fb333b4255cd7d1259a4451d5675dfa2c35",
          "topics": [
            "0x79f19b3655ee38b1ce526556b7731a20c8f218fbda4a3990b6cc4172fdf88722",
            "0x000000000000000000000000e8ff8eb7e37955e3c1acde1dd164ce4e0916aedc",
            "0x000000000000000000000000cb841a28f16f99e3a561dbeba7e09abc9120a45f",
            "0x0000000000000000000000000000000000000000000000000000000000000054"
          ],
          "data": "0x00000000000000000000000066df23ce7a2578d3931dee70fe539ceb4f68424c00000000000000000000000000000000000000000000000000000000000000000000000000000000000000000000000000000000000000000000000000002105",
          "blockHash": "0x5767cc9198572bb32c690a9ba32da9082515312e85f535fea1083976cf4f6a3b",
          "blockNumber": "0xf8fb86",
          "transactionHash": "0xbc455655a96f34edc918d5f36105638ffea239892cf8618c047097f678e9f371",
          "transactionIndex": "0x4c",
          "logIndex": "0x111",
          "removed": false
        },
        {
          "address": "0xcb841a28f16f99e3a561dbeba7e09abc9120a45f",
          "topics": [
            "0xa0038d61ac7f17fe47f8776a0cf1e4845408cdca012144f1b7a61bc084e2eaa5",
            "0x00000000000000000000000066df23ce7a2578d3931dee70fe539ceb4f68424c"
          ],
          "data": "0x000000000000000000000000cb841a28f16f99e3a561dbeba7e09abc9120a45f0000000000000000000000000000000000000000000000000000000000000054",
          "blockHash": "0x5767cc9198572bb32c690a9ba32da9082515312e85f535fea1083976cf4f6a3b",
          "blockNumber": "0xf8fb86",
          "transactionHash": "0xbc455655a96f34edc918d5f36105638ffea239892cf8618c047097f678e9f371",
          "transactionIndex": "0x4c",
          "logIndex": "0x112",
          "removed": false
        }
      ],
      "logsBloom": "0x00010000000000000000000200000004000000000002000040000004000000000000000000000080000000000000000000000000000001000040800000000000000000000000000000000008000000000000000000000000000000200000000000000000020000000000000000000800000000000000010000000010000000000018080100000000000020000000000000000000000000000000000000000100000000000800000000000000000000000000000080000000000000000000000000000002000008008000000000000000000000800000000000000000000020000000000000400000000000000000000000200000000000008000000000000000",
      "type": "0x2",
      "transactionHash": "0xbc455655a96f34edc918d5f36105638ffea239892cf8618c047097f678e9f371",
      "transactionIndex": "0x4c",
      "blockHash": "0x5767cc9198572bb32c690a9ba32da9082515312e85f535fea1083976cf4f6a3b",
      "blockNumber": "0xf8fb86",
      "gasUsed": "0x2854f",
      "effectiveGasPrice": "0x6ed336",
      "from": "0x027a5ce58fc466d0e3a9d1990404354029398541",
      "to": "0xcb841a28f16f99e3a561dbeba7e09abc9120a45f",
      "contractAddress": null,
      "l1Fee": "0x7e2d61ab7",
      "l1GasPrice": "0x2faad37e3",
      "l1GasUsed": "0x940"
    },
    {
      "status": "0x1",
      "cumulativeGasUsed": "0xb3b558",
      "logs": [
        {
          "address": "0xcb841a28f16f99e3a561dbeba7e09abc9120a45f",
          "topics": [
            "0xddf252ad1be2c89b69c2b068fc378daa952ba7f163c4a11628f55a4df523b3ef",
            "0x0000000000000000000000000000000000000000000000000000000000000000",
            "0x0000000000000000000000002872a7e0fceb3975cbbdc36a81d678941977727c",
            "0x000000000000000000000000000000000000000000000000000000000000005e"
          ],
          "data": "0x",
          "blockHash": "0x5767cc9198572bb32c690a9ba32da9082515312e85f535fea1083976cf4f6a3b",
          "blockNumber": "0xf8fb86",
          "transactionHash": "0x431b95abe6aa1503ae5e400d203f4d44f555555bf2b488e1ec19ef5c1cc35edf",
          "transactionIndex": "0x4d",
          "logIndex": "0x113",
          "removed": false
        },
        {
          "address": "0x42481fb333b4255cd7d1259a4451d5675dfa2c35",
          "topics": [
            "0x79f19b3655ee38b1ce526556b7731a20c8f218fbda4a3990b6cc4172fdf88722",
            "0x000000000000000000000000e8ff8eb7e37955e3c1acde1dd164ce4e0916aedc",
            "0x000000000000000000000000cb841a28f16f99e3a561dbeba7e09abc9120a45f",
            "0x000000000000000000000000000000000000000000000000000000000000005e"
          ],
          "data": "0x0000000000000000000000003a26161213866c030c6c0b8d0574c2a673c1d78a00000000000000000000000000000000000000000000000000000000000000000000000000000000000000000000000000000000000000000000000000002105",
          "blockHash": "0x5767cc9198572bb32c690a9ba32da9082515312e85f535fea1083976cf4f6a3b",
          "blockNumber": "0xf8fb86",
          "transactionHash": "0x431b95abe6aa1503ae5e400d203f4d44f555555bf2b488e1ec19ef5c1cc35edf",
          "transactionIndex": "0x4d",
          "logIndex": "0x114",
          "removed": false
        },
        {
          "address": "0xcb841a28f16f99e3a561dbeba7e09abc9120a45f",
          "topics": [
            "0xa0038d61ac7f17fe47f8776a0cf1e4845408cdca012144f1b7a61bc084e2eaa5",
            "0x0000000000000000000000003a26161213866c030c6c0b8d0574c2a673c1d78a"
          ],
          "data": "0x000000000000000000000000cb841a28f16f99e3a561dbeba7e09abc9120a45f000000000000000000000000000000000000000000000000000000000000005e",
          "blockHash": "0x5767cc9198572bb32c690a9ba32da9082515312e85f535fea1083976cf4f6a3b",
          "blockNumber": "0xf8fb86",
          "transactionHash": "0x431b95abe6aa1503ae5e400d203f4d44f555555bf2b488e1ec19ef5c1cc35edf",
          "transactionIndex": "0x4d",
          "logIndex": "0x115",
          "removed": false
        }
      ],
      "logsBloom": "0x00010000000000000000000200010004000000008000000040000004000000000000000000000000000000000000000000000000000001000050800000000000000000000000000800000008000000000000000000000000004000200000000000000000020800000000000000000800000000000000010000000010000000100010080100000000000020000000000000000000000000000000000002000100000000000000000000000000000000000000000000000000000000000000000000000002000008008000000000000000000000000000000000000000000020000000000000000000000000000000000000200000000000008000000000000000",
      "type": "0x2",
      "transactionHash": "0x431b95abe6aa1503ae5e400d203f4d44f555555bf2b488e1ec19ef5c1cc35edf",
      "transactionIndex": "0x4d",
      "blockHash": "0x5767cc9198572bb32c690a9ba32da9082515312e85f535fea1083976cf4f6a3b",
      "blockNumber": "0xf8fb86",
      "gasUsed": "0x2854f",
      "effectiveGasPrice": "0x6ed336",
      "from": "0x027a5ce58fc466d0e3a9d1990404354029398541",
      "to": "0xcb841a28f16f99e3a561dbeba7e09abc9120a45f",
      "contractAddress": null,
      "l1Fee": "0x7ed1122a2",
      "l1GasPrice": "0x2faad37e3",
      "l1GasUsed": "0x94c"
    },
    {
      "status": "0x1",
      "cumulativeGasUsed": "0xb63aa7",
      "logs": [
        {
          "address": "0xcb841a28f16f99e3a561dbeba7e09abc9120a45f",
          "topics": [
            "0xddf252ad1be2c89b69c2b068fc378daa952ba7f163c4a11628f55a4df523b3ef",
            "0x0000000000000000000000000000000000000000000000000000000000000000",
            "0x00000000000000000000000059c6c112547b9e9f884cd89ab2d0194c0cee5bcf",
            "0x0000000000000000000000000000000000000000000000000000000000000068"
          ],
          "data": "0x",
          "blockHash": "0x5767cc9198572bb32c690a9ba32da9082515312e85f535fea1083976cf4f6a3b",
          "blockNumber": "0xf8fb86",
          "transactionHash": "0x53b7312ca31a03e1b373e29fa512b2626abbfd3135e10af6a532f448bc5dc127",
          "transactionIndex": "0x4e",
          "logIndex": "0x116",
          "removed": false
        },
        {
          "address": "0x42481fb333b4255cd7d1259a4451d5675dfa2c35",
          "topics": [
            "0x79f19b3655ee38b1ce526556b7731a20c8f218fbda4a3990b6cc4172fdf88722",
            "0x000000000000000000000000e8ff8eb7e37955e3c1acde1dd164ce4e0916aedc",
            "0x000000000000000000000000cb841a28f16f99e3a561dbeba7e09abc9120a45f",
            "0x0000000000000000000000000000000000000000000000000000000000000068"
          ],
          "data": "0x000000000000000000000000aaba14522659b278d969ae8752e326443035c25000000000000000000000000000000000000000000000000000000000000000000000000000000000000000000000000000000000000000000000000000002105",
          "blockHash": "0x5767cc9198572bb32c690a9ba32da9082515312e85f535fea1083976cf4f6a3b",
          "blockNumber": "0xf8fb86",
          "transactionHash": "0x53b7312ca31a03e1b373e29fa512b2626abbfd3135e10af6a532f448bc5dc127",
          "transactionIndex": "0x4e",
          "logIndex": "0x117",
          "removed": false
        },
        {
          "address": "0xcb841a28f16f99e3a561dbeba7e09abc9120a45f",
          "topics": [
            "0xa0038d61ac7f17fe47f8776a0cf1e4845408cdca012144f1b7a61bc084e2eaa5",
            "0x000000000000000000000000aaba14522659b278d969ae8752e326443035c250"
          ],
          "data": "0x000000000000000000000000cb841a28f16f99e3a561dbeba7e09abc9120a45f0000000000000000000000000000000000000000000000000000000000000068",
          "blockHash": "0x5767cc9198572bb32c690a9ba32da9082515312e85f535fea1083976cf4f6a3b",
          "blockNumber": "0xf8fb86",
          "transactionHash": "0x53b7312ca31a03e1b373e29fa512b2626abbfd3135e10af6a532f448bc5dc127",
          "transactionIndex": "0x4e",
          "logIndex": "0x118",
          "removed": false
        }
      ],
      "logsBloom": "0x00010000000000000000000200000004000000000000000040000004000000000000000000000000000000000000000000000000000001000040800000000000000000000000000000000008000000000000000000000000000000200000000000000000020000000000000000000800000000000000010000000011000000000010080100000000000020008000000000000000000000000000000000000100100000000000000000000000000000000000200000000000000000000020000000000002000000008000000000000000000000000000000000000000000020200000000004000000000000000000000000200000000000108000000000000000",
      "type": "0x2",
      "transactionHash": "0x53b7312ca31a03e1b373e29fa512b2626abbfd3135e10af6a532f448bc5dc127",
      "transactionIndex": "0x4e",
      "blockHash": "0x5767cc9198572bb32c690a9ba32da9082515312e85f535fea1083976cf4f6a3b",
      "blockNumber": "0xf8fb86",
      "gasUsed": "0x2854f",
      "effectiveGasPrice": "0x6ed336",
      "from": "0x027a5ce58fc466d0e3a9d1990404354029398541",
      "to": "0xcb841a28f16f99e3a561dbeba7e09abc9120a45f",
      "contractAddress": null,
      "l1Fee": "0x7ed1122a2",
      "l1GasPrice": "0x2faad37e3",
      "l1GasUsed": "0x94c"
    },
    {
      "status": "0x1",
      "cumulativeGasUsed": "0xb8bff6",
      "logs": [
        {
          "address": "0xcb841a28f16f99e3a561dbeba7e09abc9120a45f",
          "topics": [
            "0xddf252ad1be2c89b69c2b068fc378daa952ba7f163c4a11628f55a4df523b3ef",
            "0x0000000000000000000000000000000000000000000000000000000000000000",
            "0x0000000000000000000000005e021ba73a2014e089bcbfc15cfe867606c6274e",
            "0x0000000000000000000000000000000000000000000000000000000000000072"
          ],
          "data": "0x",
          "blockHash": "0x5767cc9198572bb32c690a9ba32da9082515312e85f535fea1083976cf4f6a3b",
          "blockNumber": "0xf8fb86",
          "transactionHash": "0x5182b3556c41523f7b35c2dccabe3f82cc778b164461f75a52e6e8f0d77e619a",
          "transactionIndex": "0x4f",
          "logIndex": "0x119",
          "removed": false
        },
        {
          "address": "0x42481fb333b4255cd7d1259a4451d5675dfa2c35",
          "topics": [
            "0x79f19b3655ee38b1ce526556b7731a20c8f218fbda4a3990b6cc4172fdf88722",
            "0x000000000000000000000000e8ff8eb7e37955e3c1acde1dd164ce4e0916aedc",
            "0x000000000000000000000000cb841a28f16f99e3a561dbeba7e09abc9120a45f",
            "0x0000000000000000000000000000000000000000000000000000000000000072"
          ],
          "data": "0x000000000000000000000000a5b93eff7892718b3ef1ecd4bf6eb5fb8391f71f00000000000000000000000000000000000000000000000000000000000000000000000000000000000000000000000000000000000000000000000000002105",
          "blockHash": "0x5767cc9198572bb32c690a9ba32da9082515312e85f535fea1083976cf4f6a3b",
          "blockNumber": "0xf8fb86",
          "transactionHash": "0x5182b3556c41523f7b35c2dccabe3f82cc778b164461f75a52e6e8f0d77e619a",
          "transactionIndex": "0x4f",
          "logIndex": "0x11a",
          "removed": false
        },
        {
          "address": "0xcb841a28f16f99e3a561dbeba7e09abc9120a45f",
          "topics": [
            "0xa0038d61ac7f17fe47f8776a0cf1e4845408cdca012144f1b7a61bc084e2eaa5",
            "0x000000000000000000000000a5b93eff7892718b3ef1ecd4bf6eb5fb8391f71f"
          ],
          "data": "0x000000000000000000000000cb841a28f16f99e3a561dbeba7e09abc9120a45f0000000000000000000000000000000000000000000000000000000000000072",
          "blockHash": "0x5767cc9198572bb32c690a9ba32da9082515312e85f535fea1083976cf4f6a3b",
          "blockNumber": "0xf8fb86",
          "transactionHash": "0x5182b3556c41523f7b35c2dccabe3f82cc778b164461f75a52e6e8f0d77e619a",
          "transactionIndex": "0x4f",
          "logIndex": "0x11b",
          "removed": false
        }
      ],
      "logsBloom": "0x08010000000000020000000200000004000000000000000040000004000000000000000000000000000000000000000000000200000011000040800000000000000000000000000000000008000000000000000000000000000000200000000200000000020000000000008000000800000000000000010000000010000000000010080100000000000020000400000000000000000000000000000000000100000000000000000000000000000000000000000000000000000000000000000000000002000000008000000000000000000000000000000000000000000020000000000000000000000008000040000000200000000000008000000000000000",
      "type": "0x2",
      "transactionHash": "0x5182b3556c41523f7b35c2dccabe3f82cc778b164461f75a52e6e8f0d77e619a",
      "transactionIndex": "0x4f",
      "blockHash": "0x5767cc9198572bb32c690a9ba32da9082515312e85f535fea1083976cf4f6a3b",
      "blockNumber": "0xf8fb86",
      "gasUsed": "0x2854f",
      "effectiveGasPrice": "0x6ed336",
      "from": "0x027a5ce58fc466d0e3a9d1990404354029398541",
      "to": "0xcb841a28f16f99e3a561dbeba7e09abc9120a45f",
      "contractAddress": null,
      "l1Fee": "0x7ed1122a2",
      "l1GasPrice": "0x2faad37e3",
      "l1GasUsed": "0x94c"
    },
    {
      "status": "0x1",
      "cumulativeGasUsed": "0xbb4539",
      "logs": [
        {
          "address": "0xcb841a28f16f99e3a561dbeba7e09abc9120a45f",
          "topics": [
            "0xddf252ad1be2c89b69c2b068fc378daa952ba7f163c4a11628f55a4df523b3ef",
            "0x0000000000000000000000000000000000000000000000000000000000000000",
            "0x000000000000000000000000636d26031441d889476ce82e60d94500d2496461",
            "0x000000000000000000000000000000000000000000000000000000000000007c"
          ],
          "data": "0x",
          "blockHash": "0x5767cc9198572bb32c690a9ba32da9082515312e85f535fea1083976cf4f6a3b",
          "blockNumber": "0xf8fb86",
          "transactionHash": "0xc83a362d67c235bb97fd122bf79cca6500d8d5ce23778601f7b1d0032709a7ca",
          "transactionIndex": "0x50",
          "logIndex": "0x11c",
          "removed": false
        },
        {
          "address": "0x42481fb333b4255cd7d1259a4451d5675dfa2c35",
          "topics": [
            "0x79f19b3655ee38b1ce526556b7731a20c8f218fbda4a3990b6cc4172fdf88722",
            "0x000000000000000000000000e8ff8eb7e37955e3c1acde1dd164ce4e0916aedc",
            "0x000000000000000000000000cb841a28f16f99e3a561dbeba7e09abc9120a45f",
            "0x000000000000000000000000000000000000000000000000000000000000007c"
          ],
          "data": "0x000000000000000000000000412496114f2cb6203f1421f0f3b263e5fb8a9f8300000000000000000000000000000000000000000000000000000000000000000000000000000000000000000000000000000000000000000000000000002105",
          "blockHash": "0x5767cc9198572bb32c690a9ba32da9082515312e85f535fea1083976cf4f6a3b",
          "blockNumber": "0xf8fb86",
          "transactionHash": "0xc83a362d67c235bb97fd122bf79cca6500d8d5ce23778601f7b1d0032709a7ca",
          "transactionIndex": "0x50",
          "logIndex": "0x11d",
          "removed": false
        },
        {
          "address": "0xcb841a28f16f99e3a561dbeba7e09abc9120a45f",
          "topics": [
            "0xa0038d61ac7f17fe47f8776a0cf1e4845408cdca012144f1b7a61bc084e2eaa5",
            "0x000000000000000000000000412496114f2cb6203f1421f0f3b263e5fb8a9f83"
          ],
          "data": "0x000000000000000000000000cb841a28f16f99e3a561dbeba7e09abc9120a45f000000000000000000000000000000000000000000000000000000000000007c",
          "blockHash": "0x5767cc9198572bb32c690a9ba32da9082515312e85f535fea1083976cf4f6a3b",
          "blockNumber": "0xf8fb86",
          "transactionHash": "0xc83a362d67c235bb97fd122bf79cca6500d8d5ce23778601f7b1d0032709a7ca",
          "transactionIndex": "0x50",
          "logIndex": "0x11e",
          "removed": false
        }
      ],
      "logsBloom": "0x00010000000000000000000200000004000000000000000040000004000000000000000000000000000000000000000000000000000001000040800000000000000000000000000000000008000000000000000000000000000000200000000000000000020000000000000000000800002000000000010000000010000000000030080100000000000020000000000000000000000000000000000000000100000010000000020000000400000000000000000000000000000000040000000000000002000000008000000000000000000000000000000000000000000020000000000020000000000000000000000010200000000000008008000000000000",
      "type": "0x2",
      "transactionHash": "0xc83a362d67c235bb97fd122bf79cca6500d8d5ce23778601f7b1d0032709a7ca",
      "transactionIndex": "0x50",
      "blockHash": "0x5767cc9198572bb32c690a9ba32da9082515312e85f535fea1083976cf4f6a3b",
      "blockNumber": "0xf8fb86",
      "gasUsed": "0x28543",
      "effectiveGasPrice": "0x6ed336",
      "from": "0x027a5ce58fc466d0e3a9d1990404354029398541",
      "to": "0xcb841a28f16f99e3a561dbeba7e09abc9120a45f",
      "contractAddress": null,
      "l1Fee": "0x7e2d61ab7",
      "l1GasPrice": "0x2faad37e3",
      "l1GasUsed": "0x940"
    },
    {
      "status": "0x1",
      "cumulativeGasUsed": "0xbdca88",
      "logs": [
        {
          "address": "0xcb841a28f16f99e3a561dbeba7e09abc9120a45f",
          "topics": [
            "0xddf252ad1be2c89b69c2b068fc378daa952ba7f163c4a11628f55a4df523b3ef",
            "0x0000000000000000000000000000000000000000000000000000000000000000",
            "0x00000000000000000000000068f0b43ad26d43fe21ee155d9879cc7f6c997016",
            "0x0000000000000000000000000000000000000000000000000000000000000086"
          ],
          "data": "0x",
          "blockHash": "0x5767cc9198572bb32c690a9ba32da9082515312e85f535fea1083976cf4f6a3b",
          "blockNumber": "0xf8fb86",
          "transactionHash": "0x60318b382351912f35dd2fda8fd0c3857da78235e010eeb649868bcd7c24537e",
          "transactionIndex": "0x51",
          "logIndex": "0x11f",
          "removed": false
        },
        {
          "address": "0x42481fb333b4255cd7d1259a4451d5675dfa2c35",
          "topics": [
            "0x79f19b3655ee38b1ce526556b7731a20c8f218fbda4a3990b6cc4172fdf88722",
            "0x000000000000000000000000e8ff8eb7e37955e3c1acde1dd164ce4e0916aedc",
            "0x000000000000000000000000cb841a28f16f99e3a561dbeba7e09abc9120a45f",
            "0x0000000000000000000000000000000000000000000000000000000000000086"
          ],
          "data": "0x0000000000000000000000003761d16d1fe64c366a31f6b10641c99c43edb65700000000000000000000000000000000000000000000000000000000000000000000000000000000000000000000000000000000000000000000000000002105",
          "blockHash": "0x5767cc9198572bb32c690a9ba32da9082515312e85f535fea1083976cf4f6a3b",
          "blockNumber": "0xf8fb86",
          "transactionHash": "0x60318b382351912f35dd2fda8fd0c3857da78235e010eeb649868bcd7c24537e",
          "transactionIndex": "0x51",
          "logIndex": "0x120",
          "removed": false
        },
        {
          "address": "0xcb841a28f16f99e3a561dbeba7e09abc9120a45f",
          "topics": [
            "0xa0038d61ac7f17fe47f8776a0cf1e4845408cdca012144f1b7a61bc084e2eaa5",
            "0x0000000000000000000000003761d16d1fe64c366a31f6b10641c99c43edb657"
          ],
          "data": "0x000000000000000000000000cb841a28f16f99e3a561dbeba7e09abc9120a45f0000000000000000000000000000000000000000000000000000000000000086",
          "blockHash": "0x5767cc9198572bb32c690a9ba32da9082515312e85f535fea1083976cf4f6a3b",
          "blockNumber": "0xf8fb86",
          "transactionHash": "0x60318b382351912f35dd2fda8fd0c3857da78235e010eeb649868bcd7c24537e",
          "transactionIndex": "0x51",
          "logIndex": "0x121",
          "removed": false
        }
      ],
      "logsBloom": "0x00010000000000000000000200800004000000000000000040000004000000000000000000000000008000000000000000000000000001000040800000000000000000000000000000000008000000000000000000000000000000200000000000000000020000000000000000000800000000000000010400000010002000000010080100000000000020000000000000000000000000000000000000000100000000000000000000000000000000100000100000000000000000000000000000000002000000008000000000000000000000000000000000000400000020000000000000000000000000000010000000200000000000008000000100000000",
      "type": "0x2",
      "transactionHash": "0x60318b382351912f35dd2fda8fd0c3857da78235e010eeb649868bcd7c24537e",
      "transactionIndex": "0x51",
      "blockHash": "0x5767cc9198572bb32c690a9ba32da9082515312e85f535fea1083976cf4f6a3b",
      "blockNumber": "0xf8fb86",
      "gasUsed": "0x2854f",
      "effectiveGasPrice": "0x6ed336",
      "from": "0x027a5ce58fc466d0e3a9d1990404354029398541",
      "to": "0xcb841a28f16f99e3a561dbeba7e09abc9120a45f",
      "contractAddress": null,
      "l1Fee": "0x7ed1122a2",
      "l1GasPrice": "0x2faad37e3",
      "l1GasUsed": "0x94c"
    },
    {
      "status": "0x1",
      "cumulativeGasUsed": "0xc04fd7",
      "logs": [
        {
          "address": "0xcb841a28f16f99e3a561dbeba7e09abc9120a45f",
          "topics": [
            "0xddf252ad1be2c89b69c2b068fc378daa952ba7f163c4a11628f55a4df523b3ef",
            "0x0000000000000000000000000000000000000000000000000000000000000000",
            "0x0000000000000000000000006f20f024a967b9030f5975e9dccc90bad57d9383",
            "0x0000000000000000000000000000000000000000000000000000000000000090"
          ],
          "data": "0x",
          "blockHash": "0x5767cc9198572bb32c690a9ba32da9082515312e85f535fea1083976cf4f6a3b",
          "blockNumber": "0xf8fb86",
          "transactionHash": "0x1397e4bc677c6765c8cea71b97ef1e404c4a53142d0ae80376112e19dbc4856f",
          "transactionIndex": "0x52",
          "logIndex": "0x122",
          "removed": false
        },
        {
          "address": "0x42481fb333b4255cd7d1259a4451d5675dfa2c35",
          "topics": [
            "0x79f19b3655ee38b1ce526556b7731a20c8f218fbda4a3990b6cc4172fdf88722",
            "0x000000000000000000000000e8ff8eb7e37955e3c1acde1dd164ce4e0916aedc",
            "0x000000000000000000000000cb841a28f16f99e3a561dbeba7e09abc9120a45f",
            "0x0000000000000000000000000000000000000000000000000000000000000090"
          ],
          "data": "0x00000000000000000000000048f706e7f3a97b21d317b9fbc85d339df5a8587300000000000000000000000000000000000000000000000000000000000000000000000000000000000000000000000000000000000000000000000000002105",
          "blockHash": "0x5767cc9198572bb32c690a9ba32da9082515312e85f535fea1083976cf4f6a3b",
          "blockNumber": "0xf8fb86",
          "transactionHash": "0x1397e4bc677c6765c8cea71b97ef1e404c4a53142d0ae80376112e19dbc4856f",
          "transactionIndex": "0x52",
          "logIndex": "0x123",
          "removed": false
        },
        {
          "address": "0xcb841a28f16f99e3a561dbeba7e09abc9120a45f",
          "topics": [
            "0xa0038d61ac7f17fe47f8776a0cf1e4845408cdca012144f1b7a61bc084e2eaa5",
            "0x00000000000000000000000048f706e7f3a97b21d317b9fbc85d339df5a85873"
          ],
          "data": "0x000000000000000000000000cb841a28f16f99e3a561dbeba7e09abc9120a45f0000000000000000000000000000000000000000000000000000000000000090",
          "blockHash": "0x5767cc9198572bb32c690a9ba32da9082515312e85f535fea1083976cf4f6a3b",
          "blockNumber": "0xf8fb86",
          "transactionHash": "0x1397e4bc677c6765c8cea71b97ef1e404c4a53142d0ae80376112e19dbc4856f",
          "transactionIndex": "0x52",
          "logIndex": "0x124",
          "removed": false
        }
      ],
      "logsBloom": "0x00010000000000000000000200000004000000800000000040000004000000000000000000000000000000000000000000000000000001000040800000000100000000000000000000000008000000000000000000000000000000200000000000000000020000000000000000000800000000000000010000000010000000000010080100000000000020000000000000000000000000000000002000000100000000000000000000000000000000000000000000000010000000000000000000000002001000028000000000000000000000000000000000000000000020000200000000000000000200000000000000200040000000008000000000000000",
      "type": "0x2",
      "transactionHash": "0x1397e4bc677c6765c8cea71b97ef1e404c4a53142d0ae80376112e19dbc4856f",
      "transactionIndex": "0x52",
      "blockHash": "0x5767cc9198572bb32c690a9ba32da9082515312e85f535fea1083976cf4f6a3b",
      "blockNumber": "0xf8fb86",
      "gasUsed": "0x2854f",
      "effectiveGasPrice": "0x6ed336",
      "from": "0x027a5ce58fc466d0e3a9d1990404354029398541",
      "to": "0xcb841a28f16f99e3a561dbeba7e09abc9120a45f",
      "contractAddress": null,
      "l1Fee": "0x7ed1122a2",
      "l1GasPrice": "0x2faad37e3",
      "l1GasUsed": "0x94c"
    },
    {
      "status": "0x1",
      "cumulativeGasUsed": "0xc2d526",
      "logs": [
        {
          "address": "0xcb841a28f16f99e3a561dbeba7e09abc9120a45f",
          "topics": [
            "0xddf252ad1be2c89b69c2b068fc378daa952ba7f163c4a11628f55a4df523b3ef",
            "0x0000000000000000000000000000000000000000000000000000000000000000",
            "0x000000000000000000000000791a304547bbe77c3f780e0375762dce478a1c05",
            "0x000000000000000000000000000000000000000000000000000000000000009a"
          ],
          "data": "0x",
          "blockHash": "0x5767cc9198572bb32c690a9ba32da9082515312e85f535fea1083976cf4f6a3b",
          "blockNumber": "0xf8fb86",
          "transactionHash": "0xe1cd3f13fa3ec1edd85174d05969e7f442db933c29f42c9881f5b26b267d2c17",
          "transactionIndex": "0x53",
          "logIndex": "0x125",
          "removed": false
        },
        {
          "address": "0x42481fb333b4255cd7d1259a4451d5675dfa2c35",
          "topics": [
            "0x79f19b3655ee38b1ce526556b7731a20c8f218fbda4a3990b6cc4172fdf88722",
            "0x000000000000000000000000e8ff8eb7e37955e3c1acde1dd164ce4e0916aedc",
            "0x000000000000000000000000cb841a28f16f99e3a561dbeba7e09abc9120a45f",
            "0x000000000000000000000000000000000000000000000000000000000000009a"
          ],
          "data": "0x0000000000000000000000004fdcf309ae9360a18984a2f8e8dbdbac9346a90500000000000000000000000000000000000000000000000000000000000000000000000000000000000000000000000000000000000000000000000000002105",
          "blockHash": "0x5767cc9198572bb32c690a9ba32da9082515312e85f535fea1083976cf4f6a3b",
          "blockNumber": "0xf8fb86",
          "transactionHash": "0xe1cd3f13fa3ec1edd85174d05969e7f442db933c29f42c9881f5b26b267d2c17",
          "transactionIndex": "0x53",
          "logIndex": "0x126",
          "removed": false
        },
        {
          "address": "0xcb841a28f16f99e3a561dbeba7e09abc9120a45f",
          "topics": [
            "0xa0038d61ac7f17fe47f8776a0cf1e4845408cdca012144f1b7a61bc084e2eaa5",
            "0x0000000000000000000000004fdcf309ae9360a18984a2f8e8dbdbac9346a905"
          ],
          "data": "0x000000000000000000000000cb841a28f16f99e3a561dbeba7e09abc9120a45f000000000000000000000000000000000000000000000000000000000000009a",
          "blockHash": "0x5767cc9198572bb32c690a9ba32da9082515312e85f535fea1083976cf4f6a3b",
          "blockNumber": "0xf8fb86",
          "transactionHash": "0xe1cd3f13fa3ec1edd85174d05969e7f442db933c29f42c9881f5b26b267d2c17",
          "transactionIndex": "0x53",
          "logIndex": "0x127",
          "removed": false
        }
      ],
      "logsBloom": "0x00010000000000000000000200400004000000000000000040000004000000000000000000000000000000000000000000000000000001000040800000000000000000000000000000000008000048000000000000000000020000200000000000000000060000000000000000000900000000000000010000000010000000000010080100000000000020000000000000000000000000000000000000000100000000000000000000000000000000008000000000000000000000000000000000000002000000008000000000000000000000040000000000000000000020000000000000000000000000000000000000200000000000008000000080000000",
      "type": "0x2",
      "transactionHash": "0xe1cd3f13fa3ec1edd85174d05969e7f442db933c29f42c9881f5b26b267d2c17",
      "transactionIndex": "0x53",
      "blockHash": "0x5767cc9198572bb32c690a9ba32da9082515312e85f535fea1083976cf4f6a3b",
      "blockNumber": "0xf8fb86",
      "gasUsed": "0x2854f",
      "effectiveGasPrice": "0x6ed336",
      "from": "0x027a5ce58fc466d0e3a9d1990404354029398541",
      "to": "0xcb841a28f16f99e3a561dbeba7e09abc9120a45f",
      "contractAddress": null,
      "l1Fee": "0x7ed1122a2",
      "l1GasPrice": "0x2faad37e3",
      "l1GasUsed": "0x94c"
    },
    {
      "status": "0x1",
      "cumulativeGasUsed": "0xc55a75",
      "logs": [
        {
          "address": "0xcb841a28f16f99e3a561dbeba7e09abc9120a45f",
          "topics": [
            "0xddf252ad1be2c89b69c2b068fc378daa952ba7f163c4a11628f55a4df523b3ef",
            "0x0000000000000000000000000000000000000000000000000000000000000000",
            "0x0000000000000000000000007968e6e01cd7353f9989cf4d6477787693871329",
            "0x00000000000000000000000000000000000000000000000000000000000000a4"
          ],
          "data": "0x",
          "blockHash": "0x5767cc9198572bb32c690a9ba32da9082515312e85f535fea1083976cf4f6a3b",
          "blockNumber": "0xf8fb86",
          "transactionHash": "0x4543880f681c54f0a946e80f007dc651ef09ea01e4adaf0321257272c2bfa193",
          "transactionIndex": "0x54",
          "logIndex": "0x128",
          "removed": false
        },
        {
          "address": "0x42481fb333b4255cd7d1259a4451d5675dfa2c35",
          "topics": [
            "0x79f19b3655ee38b1ce526556b7731a20c8f218fbda4a3990b6cc4172fdf88722",
            "0x000000000000000000000000e8ff8eb7e37955e3c1acde1dd164ce4e0916aedc",
            "0x000000000000000000000000cb841a28f16f99e3a561dbeba7e09abc9120a45f",
            "0x00000000000000000000000000000000000000000000000000000000000000a4"
          ],
          "data": "0x000000000000000000000000dc6ed600407757bf51ab4314b76bbbf6d7531aae00000000000000000000000000000000000000000000000000000000000000000000000000000000000000000000000000000000000000000000000000002105",
          "blockHash": "0x5767cc9198572bb32c690a9ba32da9082515312e85f535fea1083976cf4f6a3b",
          "blockNumber": "0xf8fb86",
          "transactionHash": "0x4543880f681c54f0a946e80f007dc651ef09ea01e4adaf0321257272c2bfa193",
          "transactionIndex": "0x54",
          "logIndex": "0x129",
          "removed": false
        },
        {
          "address": "0xcb841a28f16f99e3a561dbeba7e09abc9120a45f",
          "topics": [
            "0xa0038d61ac7f17fe47f8776a0cf1e4845408cdca012144f1b7a61bc084e2eaa5",
            "0x000000000000000000000000dc6ed600407757bf51ab4314b76bbbf6d7531aae"
          ],
          "data": "0x000000000000000000000000cb841a28f16f99e3a561dbeba7e09abc9120a45f00000000000000000000000000000000000000000000000000000000000000a4",
          "blockHash": "0x5767cc9198572bb32c690a9ba32da9082515312e85f535fea1083976cf4f6a3b",
          "blockNumber": "0xf8fb86",
          "transactionHash": "0x4543880f681c54f0a946e80f007dc651ef09ea01e4adaf0321257272c2bfa193",
          "transactionIndex": "0x54",
          "logIndex": "0x12a",
          "removed": false
        }
      ],
      "logsBloom": "0x00010000000000000000000201000004000000000000000040000004000000000000000000000000000000000080000000000000000001000040800000000000000000000000000000000008000000000000000000000000000000220000000400000000020000000000000000000800000000000000010000300010000000000010080100000000000020000000000000000000000000000000000000000100000000000000000000000000000000000000000000000000000000000000010000001002000000008000000000000000000000000000000000000000000020000000000000000000000000000000400000200000000000008000000000000000",
      "type": "0x2",
      "transactionHash": "0x4543880f681c54f0a946e80f007dc651ef09ea01e4adaf0321257272c2bfa193",
      "transactionIndex": "0x54",
      "blockHash": "0x5767cc9198572bb32c690a9ba32da9082515312e85f535fea1083976cf4f6a3b",
      "blockNumber": "0xf8fb86",
      "gasUsed": "0x2854f",
      "effectiveGasPrice": "0x6ed336",
      "from": "0x027a5ce58fc466d0e3a9d1990404354029398541",
      "to": "0xcb841a28f16f99e3a561dbeba7e09abc9120a45f",
      "contractAddress": null,
      "l1Fee": "0x7e2d61ab7",
      "l1GasPrice": "0x2faad37e3",
      "l1GasUsed": "0x940"
    },
    {
      "status": "0x1",
      "cumulativeGasUsed": "0xc7dfac",
      "logs": [
        {
          "address": "0xcb841a28f16f99e3a561dbeba7e09abc9120a45f",
          "topics": [
            "0xddf252ad1be2c89b69c2b068fc378daa952ba7f163c4a11628f55a4df523b3ef",
            "0x0000000000000000000000000000000000000000000000000000000000000000",
            "0x0000000000000000000000008bb34d77f0a588668b0400ec1ccc27568ce800d9",
            "0x00000000000000000000000000000000000000000000000000000000000000ae"
          ],
          "data": "0x",
          "blockHash": "0x5767cc9198572bb32c690a9ba32da9082515312e85f535fea1083976cf4f6a3b",
          "blockNumber": "0xf8fb86",
          "transactionHash": "0x2e5145324424185cf90b8fa9532f4c5c0127a570cf445087f8c4df6c0007fdfb",
          "transactionIndex": "0x55",
          "logIndex": "0x12b",
          "removed": false
        },
        {
          "address": "0x42481fb333b4255cd7d1259a4451d5675dfa2c35",
          "topics": [
            "0x79f19b3655ee38b1ce526556b7731a20c8f218fbda4a3990b6cc4172fdf88722",
            "0x000000000000000000000000e8ff8eb7e37955e3c1acde1dd164ce4e0916aedc",
            "0x000000000000000000000000cb841a28f16f99e3a561dbeba7e09abc9120a45f",
            "0x00000000000000000000000000000000000000000000000000000000000000ae"
          ],
          "data": "0x000000000000000000000000fa9a1a31a6fa94fb3a5208c2e782bc69b105a92c00000000000000000000000000000000000000000000000000000000000000000000000000000000000000000000000000000000000000000000000000002105",
          "blockHash": "0x5767cc9198572bb32c690a9ba32da9082515312e85f535fea1083976cf4f6a3b",
          "blockNumber": "0xf8fb86",
          "transactionHash": "0x2e5145324424185cf90b8fa9532f4c5c0127a570cf445087f8c4df6c0007fdfb",
          "transactionIndex": "0x55",
          "logIndex": "0x12c",
          "removed": false
        },
        {
          "address": "0xcb841a28f16f99e3a561dbeba7e09abc9120a45f",
          "topics": [
            "0xa0038d61ac7f17fe47f8776a0cf1e4845408cdca012144f1b7a61bc084e2eaa5",
            "0x000000000000000000000000fa9a1a31a6fa94fb3a5208c2e782bc69b105a92c"
          ],
          "data": "0x000000000000000000000000cb841a28f16f99e3a561dbeba7e09abc9120a45f00000000000000000000000000000000000000000000000000000000000000ae",
          "blockHash": "0x5767cc9198572bb32c690a9ba32da9082515312e85f535fea1083976cf4f6a3b",
          "blockNumber": "0xf8fb86",
          "transactionHash": "0x2e5145324424185cf90b8fa9532f4c5c0127a570cf445087f8c4df6c0007fdfb",
          "transactionIndex": "0x55",
          "logIndex": "0x12d",
          "removed": false
        }
      ],
      "logsBloom": "0x00010000000000000000000200000004000000002000000040000004008000000000000000000000040000000000000000000000000101000040800000000000000000000000000000000008000000000000000000000000000000200000000000000000020000000000000000000800000000000000010000000010000000000010080100000000400020400000000000000000000000000000000000000100000000000000000000000000000000000000000000000000000000020000000000000002000000008000000000000000000000000000000020000000000020000000000000000000000000000000000000200000000000008000000000008000",
      "type": "0x2",
      "transactionHash": "0x2e5145324424185cf90b8fa9532f4c5c0127a570cf445087f8c4df6c0007fdfb",
      "transactionIndex": "0x55",
      "blockHash": "0x5767cc9198572bb32c690a9ba32da9082515312e85f535fea1083976cf4f6a3b",
      "blockNumber": "0xf8fb86",
      "gasUsed": "0x28537",
      "effectiveGasPrice": "0x6ed336",
      "from": "0x027a5ce58fc466d0e3a9d1990404354029398541",
      "to": "0xcb841a28f16f99e3a561dbeba7e09abc9120a45f",
      "contractAddress": null,
      "l1Fee": "0x7ce600ae0",
      "l1GasPrice": "0x2faad37e3",
      "l1GasUsed": "0x928"
    },
    {
      "status": "0x1",
      "cumulativeGasUsed": "0xca64fb",
      "logs": [
        {
          "address": "0xcb841a28f16f99e3a561dbeba7e09abc9120a45f",
          "topics": [
            "0xddf252ad1be2c89b69c2b068fc378daa952ba7f163c4a11628f55a4df523b3ef",
            "0x0000000000000000000000000000000000000000000000000000000000000000",
            "0x000000000000000000000000916375018b118eebb54eb77873e0a524a0959b34",
            "0x00000000000000000000000000000000000000000000000000000000000000b8"
          ],
          "data": "0x",
          "blockHash": "0x5767cc9198572bb32c690a9ba32da9082515312e85f535fea1083976cf4f6a3b",
          "blockNumber": "0xf8fb86",
          "transactionHash": "0xa4206d74e0ab32caa3c67e9083f614ea8f635815fe063b929fb1943a52715717",
          "transactionIndex": "0x56",
          "logIndex": "0x12e",
          "removed": false
        },
        {
          "address": "0x42481fb333b4255cd7d1259a4451d5675dfa2c35",
          "topics": [
            "0x79f19b3655ee38b1ce526556b7731a20c8f218fbda4a3990b6cc4172fdf88722",
            "0x000000000000000000000000e8ff8eb7e37955e3c1acde1dd164ce4e0916aedc",
            "0x000000000000000000000000cb841a28f16f99e3a561dbeba7e09abc9120a45f",
            "0x00000000000000000000000000000000000000000000000000000000000000b8"
          ],
          "data": "0x000000000000000000000000a5119b2ad6dcb8f072f806ad937e980b2132d65500000000000000000000000000000000000000000000000000000000000000000000000000000000000000000000000000000000000000000000000000002105",
          "blockHash": "0x5767cc9198572bb32c690a9ba32da9082515312e85f535fea1083976cf4f6a3b",
          "blockNumber": "0xf8fb86",
          "transactionHash": "0xa4206d74e0ab32caa3c67e9083f614ea8f635815fe063b929fb1943a52715717",
          "transactionIndex": "0x56",
          "logIndex": "0x12f",
          "removed": false
        },
        {
          "address": "0xcb841a28f16f99e3a561dbeba7e09abc9120a45f",
          "topics": [
            "0xa0038d61ac7f17fe47f8776a0cf1e4845408cdca012144f1b7a61bc084e2eaa5",
            "0x000000000000000000000000a5119b2ad6dcb8f072f806ad937e980b2132d655"
          ],
          "data": "0x000000000000000000000000cb841a28f16f99e3a561dbeba7e09abc9120a45f00000000000000000000000000000000000000000000000000000000000000b8",
          "blockHash": "0x5767cc9198572bb32c690a9ba32da9082515312e85f535fea1083976cf4f6a3b",
          "blockNumber": "0xf8fb86",
          "transactionHash": "0xa4206d74e0ab32caa3c67e9083f614ea8f635815fe063b929fb1943a52715717",
          "transactionIndex": "0x56",
          "logIndex": "0x130",
          "removed": false
        }
      ],
      "logsBloom": "0x00010000000000000000000200000004000000000000000040000004000100000000000000000000000000000000008000000000000001000040800400000000000000000000000000000008000000000000000000000000000000202000000000000000020100000000000000000800000000000000010000000010000000000010080100000000000020000000000000000000000000000000000000000100000000000000000000000000000000000000000000000000000000000000000000000002000000008000000000000000000000000000800000000000300020000000000000000000000000000000000000200000000000008000000000000000",
      "type": "0x2",
      "transactionHash": "0xa4206d74e0ab32caa3c67e9083f614ea8f635815fe063b929fb1943a52715717",
      "transactionIndex": "0x56",
      "blockHash": "0x5767cc9198572bb32c690a9ba32da9082515312e85f535fea1083976cf4f6a3b",
      "blockNumber": "0xf8fb86",
      "gasUsed": "0x2854f",
      "effectiveGasPrice": "0x6ed336",
      "from": "0x027a5ce58fc466d0e3a9d1990404354029398541",
      "to": "0xcb841a28f16f99e3a561dbeba7e09abc9120a45f",
      "contractAddress": null,
      "l1Fee": "0x7ed1122a2",
      "l1GasPrice": "0x2faad37e3",
      "l1GasUsed": "0x94c"
    },
    {
      "status": "0x1",
      "cumulativeGasUsed": "0xccea4a",
      "logs": [
        {
          "address": "0xcb841a28f16f99e3a561dbeba7e09abc9120a45f",
          "topics": [
            "0xddf252ad1be2c89b69c2b068fc378daa952ba7f163c4a11628f55a4df523b3ef",
            "0x0000000000000000000000000000000000000000000000000000000000000000",
            "0x00000000000000000000000096ab370638751c2eb503cbd74d78d44df6526f1c",
            "0x00000000000000000000000000000000000000000000000000000000000000c2"
          ],
          "data": "0x",
          "blockHash": "0x5767cc9198572bb32c690a9ba32da9082515312e85f535fea1083976cf4f6a3b",
          "blockNumber": "0xf8fb86",
          "transactionHash": "0xd0303359c9d90357b735cd47b51d34bc01c216d57810b746aa856ee57b0b161a",
          "transactionIndex": "0x57",
          "logIndex": "0x131",
          "removed": false
        },
        {
          "address": "0x42481fb333b4255cd7d1259a4451d5675dfa2c35",
          "topics": [
            "0x79f19b3655ee38b1ce526556b7731a20c8f218fbda4a3990b6cc4172fdf88722",
            "0x000000000000000000000000e8ff8eb7e37955e3c1acde1dd164ce4e0916aedc",
            "0x000000000000000000000000cb841a28f16f99e3a561dbeba7e09abc9120a45f",
            "0x00000000000000000000000000000000000000000000000000000000000000c2"
          ],
          "data": "0x00000000000000000000000097c76d1bf6743ba14314e28877baea42b832ecbf00000000000000000000000000000000000000000000000000000000000000000000000000000000000000000000000000000000000000000000000000002105",
          "blockHash": "0x5767cc9198572bb32c690a9ba32da9082515312e85f535fea1083976cf4f6a3b",
          "blockNumber": "0xf8fb86",
          "transactionHash": "0xd0303359c9d90357b735cd47b51d34bc01c216d57810b746aa856ee57b0b161a",
          "transactionIndex": "0x57",
          "logIndex": "0x132",
          "removed": false
        },
        {
          "address": "0xcb841a28f16f99e3a561dbeba7e09abc9120a45f",
          "topics": [
            "0xa0038d61ac7f17fe47f8776a0cf1e4845408cdca012144f1b7a61bc084e2eaa5",
            "0x00000000000000000000000097c76d1bf6743ba14314e28877baea42b832ecbf"
          ],
          "data": "0x000000000000000000000000cb841a28f16f99e3a561dbeba7e09abc9120a45f00000000000000000000000000000000000000000000000000000000000000c2",
          "blockHash": "0x5767cc9198572bb32c690a9ba32da9082515312e85f535fea1083976cf4f6a3b",
          "blockNumber": "0xf8fb86",
          "transactionHash": "0xd0303359c9d90357b735cd47b51d34bc01c216d57810b746aa856ee57b0b161a",
          "transactionIndex": "0x57",
          "logIndex": "0x133",
          "removed": false
        }
      ],
      "logsBloom": "0x00010000200000000000000200000004000000000000008040000004000000000000000000000000000000000000000000000000000001000040800000000000000000000000000000000008000000000000000000000400000000200000000000000000020200000000000000000800000000000000010000000010000000000010080100000800000020000000000000040000000000080000000000000100000000000000000010000000000000000000000000000000000000000000000000000002000000008000000000000000000000000000000040000000000020000000000000000000000000000000000000200000000000008000000000000000",
      "type": "0x2",
      "transactionHash": "0xd0303359c9d90357b735cd47b51d34bc01c216d57810b746aa856ee57b0b161a",
      "transactionIndex": "0x57",
      "blockHash": "0x5767cc9198572bb32c690a9ba32da9082515312e85f535fea1083976cf4f6a3b",
      "blockNumber": "0xf8fb86",
      "gasUsed": "0x2854f",
      "effectiveGasPrice": "0x6ed336",
      "from": "0x027a5ce58fc466d0e3a9d1990404354029398541",
      "to": "0xcb841a28f16f99e3a561dbeba7e09abc9120a45f",
      "contractAddress": null,
      "l1Fee": "0x7ed1122a2",
      "l1GasPrice": "0x2faad37e3",
      "l1GasUsed": "0x94c"
    }
  ],
  "libraries": [],
  "pending": [],
  "returns": {},
  "timestamp": 1719423994,
  "chain": 8453,
  "commit": "3dd2ed9"
}