{
  "transactions": [
    {
      "hash": "0x2ede71eb807544b76a7d927a4309fb5328bdc20bd5f8ddf9b56ab801b833f408",
      "transactionType": "CALL",
      "contractName": null,
      "contractAddress": "0x49d2da22aee28f3111a85f4b4b6cb53c5c379669",
      "function": "safeBurn(uint256)",
      "arguments": [
        "168"
      ],
      "transaction": {
        "from": "0x027a5ce58fc466d0e3a9d1990404354029398541",
        "to": "0x49d2da22aee28f3111a85f4b4b6cb53c5c379669",
        "gas": "0xc941",
        "value": "0x0",
        "input": "0xdbf5132500000000000000000000000000000000000000000000000000000000000000a8",
        "nonce": "0x1c1",
        "chainId": "0x2105"
      },
      "additionalContracts": [],
      "isFixedGasLimit": false
    },
    {
      "hash": "0x757538b47777beefcfe101ab402ab42ca6435d0e733f0472a8441134e0e0d12b",
      "transactionType": "CALL",
      "contractName": null,
      "contractAddress": "0x49d2da22aee28f3111a85f4b4b6cb53c5c379669",
      "function": "safeBurn(uint256)",
      "arguments": [
        "169"
      ],
      "transaction": {
        "from": "0x027a5ce58fc466d0e3a9d1990404354029398541",
        "to": "0x49d2da22aee28f3111a85f4b4b6cb53c5c379669",
        "gas": "0xc941",
        "value": "0x0",
        "input": "0xdbf5132500000000000000000000000000000000000000000000000000000000000000a9",
        "nonce": "0x1c2",
        "chainId": "0x2105"
      },
      "additionalContracts": [],
      "isFixedGasLimit": false
    },
    {
      "hash": "0xdbb24ff8ee7c4165f0b4483dd007a5e26b8f6a682c1fc0b7e1d5e646b577c943",
      "transactionType": "CALL",
      "contractName": null,
      "contractAddress": "0x49d2da22aee28f3111a85f4b4b6cb53c5c379669",
      "function": "safeBurn(uint256)",
      "arguments": [
        "170"
      ],
      "transaction": {
        "from": "0x027a5ce58fc466d0e3a9d1990404354029398541",
        "to": "0x49d2da22aee28f3111a85f4b4b6cb53c5c379669",
        "gas": "0xc941",
        "value": "0x0",
        "input": "0xdbf5132500000000000000000000000000000000000000000000000000000000000000aa",
        "nonce": "0x1c3",
        "chainId": "0x2105"
      },
      "additionalContracts": [],
      "isFixedGasLimit": false
    },
    {
      "hash": "0x88d7dad6efaba8090202a4ff754a51399185d9c7d056abf1828f232f9c3e706a",
      "transactionType": "CALL",
      "contractName": null,
      "contractAddress": "0x49d2da22aee28f3111a85f4b4b6cb53c5c379669",
      "function": "safeBurn(uint256)",
      "arguments": [
        "171"
      ],
      "transaction": {
        "from": "0x027a5ce58fc466d0e3a9d1990404354029398541",
        "to": "0x49d2da22aee28f3111a85f4b4b6cb53c5c379669",
        "gas": "0xc941",
        "value": "0x0",
        "input": "0xdbf5132500000000000000000000000000000000000000000000000000000000000000ab",
        "nonce": "0x1c4",
        "chainId": "0x2105"
      },
      "additionalContracts": [],
      "isFixedGasLimit": false
    },
    {
      "hash": "0x69d9cc2acadb4d1c441c38742903a10d4153e481ff11355705b569a20d0c6c22",
      "transactionType": "CALL",
      "contractName": null,
      "contractAddress": "0x49d2da22aee28f3111a85f4b4b6cb53c5c379669",
      "function": "safeBurn(uint256)",
      "arguments": [
        "172"
      ],
      "transaction": {
        "from": "0x027a5ce58fc466d0e3a9d1990404354029398541",
        "to": "0x49d2da22aee28f3111a85f4b4b6cb53c5c379669",
        "gas": "0xc941",
        "value": "0x0",
        "input": "0xdbf5132500000000000000000000000000000000000000000000000000000000000000ac",
        "nonce": "0x1c5",
        "chainId": "0x2105"
      },
      "additionalContracts": [],
      "isFixedGasLimit": false
    },
    {
      "hash": "0xa081e225e2ead04b9dce42849ecff42e8fd9cbb6b47e80be4abd675495237cfa",
      "transactionType": "CALL",
      "contractName": null,
      "contractAddress": "0x49d2da22aee28f3111a85f4b4b6cb53c5c379669",
      "function": "safeBurn(uint256)",
      "arguments": [
        "173"
      ],
      "transaction": {
        "from": "0x027a5ce58fc466d0e3a9d1990404354029398541",
        "to": "0x49d2da22aee28f3111a85f4b4b6cb53c5c379669",
        "gas": "0xc941",
        "value": "0x0",
        "input": "0xdbf5132500000000000000000000000000000000000000000000000000000000000000ad",
        "nonce": "0x1c6",
        "chainId": "0x2105"
      },
      "additionalContracts": [],
      "isFixedGasLimit": false
    },
    {
      "hash": "0x77c716ef61f9cc2c019765c6ffadc27c13f2cbb9039210e003b2a1ef9060f7cf",
      "transactionType": "CALL",
      "contractName": null,
      "contractAddress": "0x49d2da22aee28f3111a85f4b4b6cb53c5c379669",
      "function": "safeBurn(uint256)",
      "arguments": [
        "174"
      ],
      "transaction": {
        "from": "0x027a5ce58fc466d0e3a9d1990404354029398541",
        "to": "0x49d2da22aee28f3111a85f4b4b6cb53c5c379669",
        "gas": "0xc941",
        "value": "0x0",
        "input": "0xdbf5132500000000000000000000000000000000000000000000000000000000000000ae",
        "nonce": "0x1c7",
        "chainId": "0x2105"
      },
      "additionalContracts": [],
      "isFixedGasLimit": false
    },
    {
      "hash": "0x90b68d1564b7738b4c451854a3e9a5e6cbc4f2c0362f623cb3444403ed460457",
      "transactionType": "CALL",
      "contractName": null,
      "contractAddress": "0x49d2da22aee28f3111a85f4b4b6cb53c5c379669",
      "function": "safeBurn(uint256)",
      "arguments": [
        "175"
      ],
      "transaction": {
        "from": "0x027a5ce58fc466d0e3a9d1990404354029398541",
        "to": "0x49d2da22aee28f3111a85f4b4b6cb53c5c379669",
        "gas": "0xc941",
        "value": "0x0",
        "input": "0xdbf5132500000000000000000000000000000000000000000000000000000000000000af",
        "nonce": "0x1c8",
        "chainId": "0x2105"
      },
      "additionalContracts": [],
      "isFixedGasLimit": false
    },
    {
      "hash": "0x3bfc4798ad8bb41ee565418fbd3d95834e17cf34ae5cb59b513dc7a0b873d14e",
      "transactionType": "CALL",
      "contractName": null,
      "contractAddress": "0x49d2da22aee28f3111a85f4b4b6cb53c5c379669",
      "function": "safeBurn(uint256)",
      "arguments": [
        "176"
      ],
      "transaction": {
        "from": "0x027a5ce58fc466d0e3a9d1990404354029398541",
        "to": "0x49d2da22aee28f3111a85f4b4b6cb53c5c379669",
        "gas": "0xc941",
        "value": "0x0",
        "input": "0xdbf5132500000000000000000000000000000000000000000000000000000000000000b0",
        "nonce": "0x1c9",
        "chainId": "0x2105"
      },
      "additionalContracts": [],
      "isFixedGasLimit": false
    },
    {
      "hash": "0x1f282cf16512921d6bfb4d6dbd656fa78ed2466e8db04f4eec32288c8f2c069b",
      "transactionType": "CALL",
      "contractName": null,
      "contractAddress": "0x49d2da22aee28f3111a85f4b4b6cb53c5c379669",
      "function": "safeBurn(uint256)",
      "arguments": [
        "177"
      ],
      "transaction": {
        "from": "0x027a5ce58fc466d0e3a9d1990404354029398541",
        "to": "0x49d2da22aee28f3111a85f4b4b6cb53c5c379669",
        "gas": "0xc941",
        "value": "0x0",
        "input": "0xdbf5132500000000000000000000000000000000000000000000000000000000000000b1",
        "nonce": "0x1ca",
        "chainId": "0x2105"
      },
      "additionalContracts": [],
      "isFixedGasLimit": false
    },
    {
      "hash": "0x4c373c5ab4677ed225d2c3080951d3caae629d4f4c7f983e43dc2fb18fec325f",
      "transactionType": "CALL",
      "contractName": null,
      "contractAddress": "0x49d2da22aee28f3111a85f4b4b6cb53c5c379669",
      "function": "safeBurn(uint256)",
      "arguments": [
        "178"
      ],
      "transaction": {
        "from": "0x027a5ce58fc466d0e3a9d1990404354029398541",
        "to": "0x49d2da22aee28f3111a85f4b4b6cb53c5c379669",
        "gas": "0xc941",
        "value": "0x0",
        "input": "0xdbf5132500000000000000000000000000000000000000000000000000000000000000b2",
        "nonce": "0x1cb",
        "chainId": "0x2105"
      },
      "additionalContracts": [],
      "isFixedGasLimit": false
    },
    {
      "hash": "0x28a215e01f88a6577e823d5f44472954c8a5c1806cf65e3a0bdcfbef7a03aab7",
      "transactionType": "CALL",
      "contractName": null,
      "contractAddress": "0x49d2da22aee28f3111a85f4b4b6cb53c5c379669",
      "function": "safeBurn(uint256)",
      "arguments": [
        "179"
      ],
      "transaction": {
        "from": "0x027a5ce58fc466d0e3a9d1990404354029398541",
        "to": "0x49d2da22aee28f3111a85f4b4b6cb53c5c379669",
        "gas": "0xc941",
        "value": "0x0",
        "input": "0xdbf5132500000000000000000000000000000000000000000000000000000000000000b3",
        "nonce": "0x1cc",
        "chainId": "0x2105"
      },
      "additionalContracts": [],
      "isFixedGasLimit": false
    },
    {
      "hash": "0x4353a387120e0a62a24174062a94972eb767d493ec68937d638da19a961424e8",
      "transactionType": "CALL",
      "contractName": null,
      "contractAddress": "0x49d2da22aee28f3111a85f4b4b6cb53c5c379669",
      "function": "safeBurn(uint256)",
      "arguments": [
        "180"
      ],
      "transaction": {
        "from": "0x027a5ce58fc466d0e3a9d1990404354029398541",
        "to": "0x49d2da22aee28f3111a85f4b4b6cb53c5c379669",
        "gas": "0xc941",
        "value": "0x0",
        "input": "0xdbf5132500000000000000000000000000000000000000000000000000000000000000b4",
        "nonce": "0x1cd",
        "chainId": "0x2105"
      },
      "additionalContracts": [],
      "isFixedGasLimit": false
    },
    {
      "hash": "0x38c8f062f4d17c1a07eb867241dc17104106814300324fce7c32c39304fbae3f",
      "transactionType": "CALL",
      "contractName": null,
      "contractAddress": "0x49d2da22aee28f3111a85f4b4b6cb53c5c379669",
      "function": "safeBurn(uint256)",
      "arguments": [
        "181"
      ],
      "transaction": {
        "from": "0x027a5ce58fc466d0e3a9d1990404354029398541",
        "to": "0x49d2da22aee28f3111a85f4b4b6cb53c5c379669",
        "gas": "0xc941",
        "value": "0x0",
        "input": "0xdbf5132500000000000000000000000000000000000000000000000000000000000000b5",
        "nonce": "0x1ce",
        "chainId": "0x2105"
      },
      "additionalContracts": [],
      "isFixedGasLimit": false
    },
    {
      "hash": "0xbc6e1e62229fa09cc151e0326be90efcd17f3a379cc4fd29a6a1ca152aedf6ed",
      "transactionType": "CALL",
      "contractName": null,
      "contractAddress": "0x49d2da22aee28f3111a85f4b4b6cb53c5c379669",
      "function": "safeBurn(uint256)",
      "arguments": [
        "182"
      ],
      "transaction": {
        "from": "0x027a5ce58fc466d0e3a9d1990404354029398541",
        "to": "0x49d2da22aee28f3111a85f4b4b6cb53c5c379669",
        "gas": "0xc941",
        "value": "0x0",
        "input": "0xdbf5132500000000000000000000000000000000000000000000000000000000000000b6",
        "nonce": "0x1cf",
        "chainId": "0x2105"
      },
      "additionalContracts": [],
      "isFixedGasLimit": false
    },
    {
      "hash": "0xd31b0c14629bfe679594c37820782510ce87d6377d937f48e1b71bb1ec31d5a7",
      "transactionType": "CALL",
      "contractName": null,
      "contractAddress": "0x49d2da22aee28f3111a85f4b4b6cb53c5c379669",
      "function": "safeBurn(uint256)",
      "arguments": [
        "183"
      ],
      "transaction": {
        "from": "0x027a5ce58fc466d0e3a9d1990404354029398541",
        "to": "0x49d2da22aee28f3111a85f4b4b6cb53c5c379669",
        "gas": "0xc941",
        "value": "0x0",
        "input": "0xdbf5132500000000000000000000000000000000000000000000000000000000000000b7",
        "nonce": "0x1d0",
        "chainId": "0x2105"
      },
      "additionalContracts": [],
      "isFixedGasLimit": false
    },
    {
      "hash": "0x6637336e8e2276d5aa89014bced2e232c903aa20b38f2faae9652b2f02ec036e",
      "transactionType": "CALL",
      "contractName": null,
      "contractAddress": "0x49d2da22aee28f3111a85f4b4b6cb53c5c379669",
      "function": "safeBurn(uint256)",
      "arguments": [
        "184"
      ],
      "transaction": {
        "from": "0x027a5ce58fc466d0e3a9d1990404354029398541",
        "to": "0x49d2da22aee28f3111a85f4b4b6cb53c5c379669",
        "gas": "0xc941",
        "value": "0x0",
        "input": "0xdbf5132500000000000000000000000000000000000000000000000000000000000000b8",
        "nonce": "0x1d1",
        "chainId": "0x2105"
      },
      "additionalContracts": [],
      "isFixedGasLimit": false
    },
    {
      "hash": "0x9a9396ba6b53f0ffa52c3852475c935a823c565e54e5d36952886ecca1a42623",
      "transactionType": "CALL",
      "contractName": null,
      "contractAddress": "0x49d2da22aee28f3111a85f4b4b6cb53c5c379669",
      "function": "safeBurn(uint256)",
      "arguments": [
        "185"
      ],
      "transaction": {
        "from": "0x027a5ce58fc466d0e3a9d1990404354029398541",
        "to": "0x49d2da22aee28f3111a85f4b4b6cb53c5c379669",
        "gas": "0xc941",
        "value": "0x0",
        "input": "0xdbf5132500000000000000000000000000000000000000000000000000000000000000b9",
        "nonce": "0x1d2",
        "chainId": "0x2105"
      },
      "additionalContracts": [],
      "isFixedGasLimit": false
    },
    {
      "hash": "0x8608bad4d49a891c8e73fe3d6e5cddf16481d96aba329b83b46f128012eb9758",
      "transactionType": "CALL",
      "contractName": null,
      "contractAddress": "0x49d2da22aee28f3111a85f4b4b6cb53c5c379669",
      "function": "safeBurn(uint256)",
      "arguments": [
        "186"
      ],
      "transaction": {
        "from": "0x027a5ce58fc466d0e3a9d1990404354029398541",
        "to": "0x49d2da22aee28f3111a85f4b4b6cb53c5c379669",
        "gas": "0xc941",
        "value": "0x0",
        "input": "0xdbf5132500000000000000000000000000000000000000000000000000000000000000ba",
        "nonce": "0x1d3",
        "chainId": "0x2105"
      },
      "additionalContracts": [],
      "isFixedGasLimit": false
    },
    {
      "hash": "0x1e809f4792792017159a61ad81103a830cae2f28147e3aa3704f78d17749f2f7",
      "transactionType": "CALL",
      "contractName": null,
      "contractAddress": "0x49d2da22aee28f3111a85f4b4b6cb53c5c379669",
      "function": "safeBurn(uint256)",
      "arguments": [
        "187"
      ],
      "transaction": {
        "from": "0x027a5ce58fc466d0e3a9d1990404354029398541",
        "to": "0x49d2da22aee28f3111a85f4b4b6cb53c5c379669",
        "gas": "0xc941",
        "value": "0x0",
        "input": "0xdbf5132500000000000000000000000000000000000000000000000000000000000000bb",
        "nonce": "0x1d4",
        "chainId": "0x2105"
      },
      "additionalContracts": [],
      "isFixedGasLimit": false
    },
    {
      "hash": "0x7afa8733e387f960bca3a48dbd11a4d97d35ac89a4be682eca894efdba9c1837",
      "transactionType": "CALL",
      "contractName": null,
      "contractAddress": "0x49d2da22aee28f3111a85f4b4b6cb53c5c379669",
      "function": "safeBurn(uint256)",
      "arguments": [
        "188"
      ],
      "transaction": {
        "from": "0x027a5ce58fc466d0e3a9d1990404354029398541",
        "to": "0x49d2da22aee28f3111a85f4b4b6cb53c5c379669",
        "gas": "0xc941",
        "value": "0x0",
        "input": "0xdbf5132500000000000000000000000000000000000000000000000000000000000000bc",
        "nonce": "0x1d5",
        "chainId": "0x2105"
      },
      "additionalContracts": [],
      "isFixedGasLimit": false
    },
    {
      "hash": "0xb9dd7f6b8b8cab18c93e4a7bc938d5871c6cb7e27a0ce473b53544e749f873f0",
      "transactionType": "CALL",
      "contractName": null,
      "contractAddress": "0x49d2da22aee28f3111a85f4b4b6cb53c5c379669",
      "function": "safeBurn(uint256)",
      "arguments": [
        "189"
      ],
      "transaction": {
        "from": "0x027a5ce58fc466d0e3a9d1990404354029398541",
        "to": "0x49d2da22aee28f3111a85f4b4b6cb53c5c379669",
        "gas": "0xc941",
        "value": "0x0",
        "input": "0xdbf5132500000000000000000000000000000000000000000000000000000000000000bd",
        "nonce": "0x1d6",
        "chainId": "0x2105"
      },
      "additionalContracts": [],
      "isFixedGasLimit": false
    },
    {
      "hash": "0xd8f56be8a73564561becdb8eaaf75a8ee7e654a9c18076a63c3a2abdbafc3b8b",
      "transactionType": "CALL",
      "contractName": null,
      "contractAddress": "0x49d2da22aee28f3111a85f4b4b6cb53c5c379669",
      "function": "safeBurn(uint256)",
      "arguments": [
        "190"
      ],
      "transaction": {
        "from": "0x027a5ce58fc466d0e3a9d1990404354029398541",
        "to": "0x49d2da22aee28f3111a85f4b4b6cb53c5c379669",
        "gas": "0xc941",
        "value": "0x0",
        "input": "0xdbf5132500000000000000000000000000000000000000000000000000000000000000be",
        "nonce": "0x1d7",
        "chainId": "0x2105"
      },
      "additionalContracts": [],
      "isFixedGasLimit": false
    },
    {
      "hash": "0xccc0f2739d51cc2530b837740ed7247534737f9e10f677c5cf477033740d42e3",
      "transactionType": "CALL",
      "contractName": null,
      "contractAddress": "0x49d2da22aee28f3111a85f4b4b6cb53c5c379669",
      "function": "safeBurn(uint256)",
      "arguments": [
        "191"
      ],
      "transaction": {
        "from": "0x027a5ce58fc466d0e3a9d1990404354029398541",
        "to": "0x49d2da22aee28f3111a85f4b4b6cb53c5c379669",
        "gas": "0xc941",
        "value": "0x0",
        "input": "0xdbf5132500000000000000000000000000000000000000000000000000000000000000bf",
        "nonce": "0x1d8",
        "chainId": "0x2105"
      },
      "additionalContracts": [],
      "isFixedGasLimit": false
    },
    {
      "hash": "0xd4487d113099ffa128b366504f8986df28b119b9ef9e4043f7f3dacb123438da",
      "transactionType": "CALL",
      "contractName": null,
      "contractAddress": "0x49d2da22aee28f3111a85f4b4b6cb53c5c379669",
      "function": "safeBurn(uint256)",
      "arguments": [
        "192"
      ],
      "transaction": {
        "from": "0x027a5ce58fc466d0e3a9d1990404354029398541",
        "to": "0x49d2da22aee28f3111a85f4b4b6cb53c5c379669",
        "gas": "0xc941",
        "value": "0x0",
        "input": "0xdbf5132500000000000000000000000000000000000000000000000000000000000000c0",
        "nonce": "0x1d9",
        "chainId": "0x2105"
      },
      "additionalContracts": [],
      "isFixedGasLimit": false
    },
    {
      "hash": "0x8d97438de3f58c488dfbaee9b5456cce4cfa6c32ab19267fc19e1077b9370c1f",
      "transactionType": "CALL",
      "contractName": null,
      "contractAddress": "0x49d2da22aee28f3111a85f4b4b6cb53c5c379669",
      "function": "safeBurn(uint256)",
      "arguments": [
        "193"
      ],
      "transaction": {
        "from": "0x027a5ce58fc466d0e3a9d1990404354029398541",
        "to": "0x49d2da22aee28f3111a85f4b4b6cb53c5c379669",
        "gas": "0xc941",
        "value": "0x0",
        "input": "0xdbf5132500000000000000000000000000000000000000000000000000000000000000c1",
        "nonce": "0x1da",
        "chainId": "0x2105"
      },
      "additionalContracts": [],
      "isFixedGasLimit": false
    },
    {
      "hash": "0xbbdbee1b1360a4683c8e0bcddfbbf992440078e928ab3a3e12c91b946ce88d51",
      "transactionType": "CALL",
      "contractName": null,
      "contractAddress": "0x49d2da22aee28f3111a85f4b4b6cb53c5c379669",
      "function": "safeBurn(uint256)",
      "arguments": [
        "194"
      ],
      "transaction": {
        "from": "0x027a5ce58fc466d0e3a9d1990404354029398541",
        "to": "0x49d2da22aee28f3111a85f4b4b6cb53c5c379669",
        "gas": "0xc941",
        "value": "0x0",
        "input": "0xdbf5132500000000000000000000000000000000000000000000000000000000000000c2",
        "nonce": "0x1db",
        "chainId": "0x2105"
      },
      "additionalContracts": [],
      "isFixedGasLimit": false
    },
    {
      "hash": "0x0e86b5d6166af34c5f96e2c75a07dc9afab145f6eeda857212b873cc5e4df5b4",
      "transactionType": "CALL",
      "contractName": null,
      "contractAddress": "0x49d2da22aee28f3111a85f4b4b6cb53c5c379669",
      "function": "safeBurn(uint256)",
      "arguments": [
        "195"
      ],
      "transaction": {
        "from": "0x027a5ce58fc466d0e3a9d1990404354029398541",
        "to": "0x49d2da22aee28f3111a85f4b4b6cb53c5c379669",
        "gas": "0xc941",
        "value": "0x0",
        "input": "0xdbf5132500000000000000000000000000000000000000000000000000000000000000c3",
        "nonce": "0x1dc",
        "chainId": "0x2105"
      },
      "additionalContracts": [],
      "isFixedGasLimit": false
    },
    {
      "hash": "0xb9759dff04b958222a4b7b706ae71c3b4f1d8df326c0f1f9358552a85426ae76",
      "transactionType": "CALL",
      "contractName": null,
      "contractAddress": "0x49d2da22aee28f3111a85f4b4b6cb53c5c379669",
      "function": "safeBurn(uint256)",
      "arguments": [
        "196"
      ],
      "transaction": {
        "from": "0x027a5ce58fc466d0e3a9d1990404354029398541",
        "to": "0x49d2da22aee28f3111a85f4b4b6cb53c5c379669",
        "gas": "0xc941",
        "value": "0x0",
        "input": "0xdbf5132500000000000000000000000000000000000000000000000000000000000000c4",
        "nonce": "0x1dd",
        "chainId": "0x2105"
      },
      "additionalContracts": [],
      "isFixedGasLimit": false
    },
    {
      "hash": "0x0eb3201b999d5b7d472d172687c49145d95fbfdf9e25dbb54daee2e2eb35acb3",
      "transactionType": "CALL",
      "contractName": null,
      "contractAddress": "0x49d2da22aee28f3111a85f4b4b6cb53c5c379669",
      "function": "safeBurn(uint256)",
      "arguments": [
        "197"
      ],
      "transaction": {
        "from": "0x027a5ce58fc466d0e3a9d1990404354029398541",
        "to": "0x49d2da22aee28f3111a85f4b4b6cb53c5c379669",
        "gas": "0xc941",
        "value": "0x0",
        "input": "0xdbf5132500000000000000000000000000000000000000000000000000000000000000c5",
        "nonce": "0x1de",
        "chainId": "0x2105"
      },
      "additionalContracts": [],
      "isFixedGasLimit": false
    },
    {
      "hash": "0x320ee594381bd4a433a7bfb4c19f23134bba24a32f33714f7228e3ad44f99cbd",
      "transactionType": "CALL",
      "contractName": null,
      "contractAddress": "0x49d2da22aee28f3111a85f4b4b6cb53c5c379669",
      "function": "safeBurn(uint256)",
      "arguments": [
        "198"
      ],
      "transaction": {
        "from": "0x027a5ce58fc466d0e3a9d1990404354029398541",
        "to": "0x49d2da22aee28f3111a85f4b4b6cb53c5c379669",
        "gas": "0xc941",
        "value": "0x0",
        "input": "0xdbf5132500000000000000000000000000000000000000000000000000000000000000c6",
        "nonce": "0x1df",
        "chainId": "0x2105"
      },
      "additionalContracts": [],
      "isFixedGasLimit": false
    },
    {
      "hash": "0x273d3b71460baf82f5850304bf64ae47933ab62820c7727e4100e1432d437edb",
      "transactionType": "CALL",
      "contractName": null,
      "contractAddress": "0x49d2da22aee28f3111a85f4b4b6cb53c5c379669",
      "function": "safeBurn(uint256)",
      "arguments": [
        "199"
      ],
      "transaction": {
        "from": "0x027a5ce58fc466d0e3a9d1990404354029398541",
        "to": "0x49d2da22aee28f3111a85f4b4b6cb53c5c379669",
        "gas": "0xc941",
        "value": "0x0",
        "input": "0xdbf5132500000000000000000000000000000000000000000000000000000000000000c7",
        "nonce": "0x1e0",
        "chainId": "0x2105"
      },
      "additionalContracts": [],
      "isFixedGasLimit": false
    },
    {
      "hash": "0x7db040f99088e5e3547618365385535c88901379c2212fc9c13130dd70f34846",
      "transactionType": "CALL",
      "contractName": null,
      "contractAddress": "0x49d2da22aee28f3111a85f4b4b6cb53c5c379669",
      "function": "safeBurn(uint256)",
      "arguments": [
        "200"
      ],
      "transaction": {
        "from": "0x027a5ce58fc466d0e3a9d1990404354029398541",
        "to": "0x49d2da22aee28f3111a85f4b4b6cb53c5c379669",
        "gas": "0xc941",
        "value": "0x0",
        "input": "0xdbf5132500000000000000000000000000000000000000000000000000000000000000c8",
        "nonce": "0x1e1",
        "chainId": "0x2105"
      },
      "additionalContracts": [],
      "isFixedGasLimit": false
    },
    {
      "hash": "0x506e8c357b384fe5bf0a19da3a3b5543e5a6565803111f77e72a87850857d6a5",
      "transactionType": "CALL",
      "contractName": null,
      "contractAddress": "0x49d2da22aee28f3111a85f4b4b6cb53c5c379669",
      "function": "safeBurn(uint256)",
      "arguments": [
        "201"
      ],
      "transaction": {
        "from": "0x027a5ce58fc466d0e3a9d1990404354029398541",
        "to": "0x49d2da22aee28f3111a85f4b4b6cb53c5c379669",
        "gas": "0xc941",
        "value": "0x0",
        "input": "0xdbf5132500000000000000000000000000000000000000000000000000000000000000c9",
        "nonce": "0x1e2",
        "chainId": "0x2105"
      },
      "additionalContracts": [],
      "isFixedGasLimit": false
    },
    {
      "hash": "0x552f2eceadae81edb90efadb611aa5e5364036e90e838ab5a9af2f3dbc755d58",
      "transactionType": "CALL",
      "contractName": null,
      "contractAddress": "0x49d2da22aee28f3111a85f4b4b6cb53c5c379669",
      "function": "safeBurn(uint256)",
      "arguments": [
        "202"
      ],
      "transaction": {
        "from": "0x027a5ce58fc466d0e3a9d1990404354029398541",
        "to": "0x49d2da22aee28f3111a85f4b4b6cb53c5c379669",
        "gas": "0xc941",
        "value": "0x0",
        "input": "0xdbf5132500000000000000000000000000000000000000000000000000000000000000ca",
        "nonce": "0x1e3",
        "chainId": "0x2105"
      },
      "additionalContracts": [],
      "isFixedGasLimit": false
    },
    {
      "hash": "0x2283e05080e421e397b952a8af278c838064c93d6a323ca67178357fad1abb3a",
      "transactionType": "CALL",
      "contractName": null,
      "contractAddress": "0x49d2da22aee28f3111a85f4b4b6cb53c5c379669",
      "function": "safeBurn(uint256)",
      "arguments": [
        "203"
      ],
      "transaction": {
        "from": "0x027a5ce58fc466d0e3a9d1990404354029398541",
        "to": "0x49d2da22aee28f3111a85f4b4b6cb53c5c379669",
        "gas": "0xc941",
        "value": "0x0",
        "input": "0xdbf5132500000000000000000000000000000000000000000000000000000000000000cb",
        "nonce": "0x1e4",
        "chainId": "0x2105"
      },
      "additionalContracts": [],
      "isFixedGasLimit": false
    },
    {
      "hash": "0x49d92891bac7d469071bde6692df406b05ccefafec8c39f2efa02338909ce75f",
      "transactionType": "CALL",
      "contractName": null,
      "contractAddress": "0x49d2da22aee28f3111a85f4b4b6cb53c5c379669",
      "function": "safeBurn(uint256)",
      "arguments": [
        "204"
      ],
      "transaction": {
        "from": "0x027a5ce58fc466d0e3a9d1990404354029398541",
        "to": "0x49d2da22aee28f3111a85f4b4b6cb53c5c379669",
        "gas": "0xc941",
        "value": "0x0",
        "input": "0xdbf5132500000000000000000000000000000000000000000000000000000000000000cc",
        "nonce": "0x1e5",
        "chainId": "0x2105"
      },
      "additionalContracts": [],
      "isFixedGasLimit": false
    },
    {
      "hash": "0x8351a43ee3e51c908220b9c67bceaaefee3feeff57d8b46cafa1f07f94ecb9a9",
      "transactionType": "CALL",
      "contractName": null,
      "contractAddress": "0x49d2da22aee28f3111a85f4b4b6cb53c5c379669",
      "function": "safeBurn(uint256)",
      "arguments": [
        "205"
      ],
      "transaction": {
        "from": "0x027a5ce58fc466d0e3a9d1990404354029398541",
        "to": "0x49d2da22aee28f3111a85f4b4b6cb53c5c379669",
        "gas": "0xc941",
        "value": "0x0",
        "input": "0xdbf5132500000000000000000000000000000000000000000000000000000000000000cd",
        "nonce": "0x1e6",
        "chainId": "0x2105"
      },
      "additionalContracts": [],
      "isFixedGasLimit": false
    },
    {
      "hash": "0x0c3acc66276f12b713f43e4520c465ee05e187fd5df632867098ef5c5dfdcf35",
      "transactionType": "CALL",
      "contractName": null,
      "contractAddress": "0x49d2da22aee28f3111a85f4b4b6cb53c5c379669",
      "function": "safeBurn(uint256)",
      "arguments": [
        "206"
      ],
      "transaction": {
        "from": "0x027a5ce58fc466d0e3a9d1990404354029398541",
        "to": "0x49d2da22aee28f3111a85f4b4b6cb53c5c379669",
        "gas": "0xc941",
        "value": "0x0",
        "input": "0xdbf5132500000000000000000000000000000000000000000000000000000000000000ce",
        "nonce": "0x1e7",
        "chainId": "0x2105"
      },
      "additionalContracts": [],
      "isFixedGasLimit": false
    },
    {
      "hash": "0xaf4e409475fbbbb0b73f03c8f7f3b25e70cf6adada69a34e1612d82ee2daf6b2",
      "transactionType": "CALL",
      "contractName": null,
      "contractAddress": "0x49d2da22aee28f3111a85f4b4b6cb53c5c379669",
      "function": "safeBurn(uint256)",
      "arguments": [
        "207"
      ],
      "transaction": {
        "from": "0x027a5ce58fc466d0e3a9d1990404354029398541",
        "to": "0x49d2da22aee28f3111a85f4b4b6cb53c5c379669",
        "gas": "0xc941",
        "value": "0x0",
        "input": "0xdbf5132500000000000000000000000000000000000000000000000000000000000000cf",
        "nonce": "0x1e8",
        "chainId": "0x2105"
      },
      "additionalContracts": [],
      "isFixedGasLimit": false
    },
    {
      "hash": "0xb77541bae0ab8c914dcd28a3d74a3c745a3944df39c0340fff47390fa8f9a31c",
      "transactionType": "CALL",
      "contractName": null,
      "contractAddress": "0x49d2da22aee28f3111a85f4b4b6cb53c5c379669",
      "function": "safeBurn(uint256)",
      "arguments": [
        "208"
      ],
      "transaction": {
        "from": "0x027a5ce58fc466d0e3a9d1990404354029398541",
        "to": "0x49d2da22aee28f3111a85f4b4b6cb53c5c379669",
        "gas": "0xc941",
        "value": "0x0",
        "input": "0xdbf5132500000000000000000000000000000000000000000000000000000000000000d0",
        "nonce": "0x1e9",
        "chainId": "0x2105"
      },
      "additionalContracts": [],
      "isFixedGasLimit": false
    },
    {
      "hash": "0xaaef111adf5702b8ecc36f15e2843e56d39f9f9a7a2c002edb473df277aed4ad",
      "transactionType": "CALL",
      "contractName": null,
      "contractAddress": "0x49d2da22aee28f3111a85f4b4b6cb53c5c379669",
      "function": "safeBurn(uint256)",
      "arguments": [
        "209"
      ],
      "transaction": {
        "from": "0x027a5ce58fc466d0e3a9d1990404354029398541",
        "to": "0x49d2da22aee28f3111a85f4b4b6cb53c5c379669",
        "gas": "0xc941",
        "value": "0x0",
        "input": "0xdbf5132500000000000000000000000000000000000000000000000000000000000000d1",
        "nonce": "0x1ea",
        "chainId": "0x2105"
      },
      "additionalContracts": [],
      "isFixedGasLimit": false
    },
    {
      "hash": "0x144ef8262c97b04a071ea460a26b5f263f08f8ea69d437af502f5b65e9e8e21c",
      "transactionType": "CALL",
      "contractName": null,
      "contractAddress": "0x49d2da22aee28f3111a85f4b4b6cb53c5c379669",
      "function": "safeBurn(uint256)",
      "arguments": [
        "210"
      ],
      "transaction": {
        "from": "0x027a5ce58fc466d0e3a9d1990404354029398541",
        "to": "0x49d2da22aee28f3111a85f4b4b6cb53c5c379669",
        "gas": "0xc941",
        "value": "0x0",
        "input": "0xdbf5132500000000000000000000000000000000000000000000000000000000000000d2",
        "nonce": "0x1eb",
        "chainId": "0x2105"
      },
      "additionalContracts": [],
      "isFixedGasLimit": false
    },
    {
      "hash": "0x558967a24972b5a9e0f09beebac6d947109ee771c5daa8acc59f111b5727a021",
      "transactionType": "CALL",
      "contractName": null,
      "contractAddress": "0x49d2da22aee28f3111a85f4b4b6cb53c5c379669",
      "function": "safeBurn(uint256)",
      "arguments": [
        "211"
      ],
      "transaction": {
        "from": "0x027a5ce58fc466d0e3a9d1990404354029398541",
        "to": "0x49d2da22aee28f3111a85f4b4b6cb53c5c379669",
        "gas": "0xc941",
        "value": "0x0",
        "input": "0xdbf5132500000000000000000000000000000000000000000000000000000000000000d3",
        "nonce": "0x1ec",
        "chainId": "0x2105"
      },
      "additionalContracts": [],
      "isFixedGasLimit": false
    },
    {
      "hash": "0x80d145df169a0937f2afdb95f01a9d1af4647c2267450b374ffa9ad727c9db0c",
      "transactionType": "CALL",
      "contractName": null,
      "contractAddress": "0x49d2da22aee28f3111a85f4b4b6cb53c5c379669",
      "function": "safeBurn(uint256)",
      "arguments": [
        "212"
      ],
      "transaction": {
        "from": "0x027a5ce58fc466d0e3a9d1990404354029398541",
        "to": "0x49d2da22aee28f3111a85f4b4b6cb53c5c379669",
        "gas": "0xc941",
        "value": "0x0",
        "input": "0xdbf5132500000000000000000000000000000000000000000000000000000000000000d4",
        "nonce": "0x1ed",
        "chainId": "0x2105"
      },
      "additionalContracts": [],
      "isFixedGasLimit": false
    },
    {
      "hash": "0x8ef487196a17cd7e3042b677e4be38999fc1e129f449c272319be25b53a3b60d",
      "transactionType": "CALL",
      "contractName": null,
      "contractAddress": "0x49d2da22aee28f3111a85f4b4b6cb53c5c379669",
      "function": "safeBurn(uint256)",
      "arguments": [
        "213"
      ],
      "transaction": {
        "from": "0x027a5ce58fc466d0e3a9d1990404354029398541",
        "to": "0x49d2da22aee28f3111a85f4b4b6cb53c5c379669",
        "gas": "0xc941",
        "value": "0x0",
        "input": "0xdbf5132500000000000000000000000000000000000000000000000000000000000000d5",
        "nonce": "0x1ee",
        "chainId": "0x2105"
      },
      "additionalContracts": [],
      "isFixedGasLimit": false
    },
    {
      "hash": "0xa6bc4a26f64fcc57927af128efc5c4ada708887912ab19a88f9b2adfe2d13bc7",
      "transactionType": "CALL",
      "contractName": null,
      "contractAddress": "0x49d2da22aee28f3111a85f4b4b6cb53c5c379669",
      "function": "safeBurn(uint256)",
      "arguments": [
        "214"
      ],
      "transaction": {
        "from": "0x027a5ce58fc466d0e3a9d1990404354029398541",
        "to": "0x49d2da22aee28f3111a85f4b4b6cb53c5c379669",
        "gas": "0xc941",
        "value": "0x0",
        "input": "0xdbf5132500000000000000000000000000000000000000000000000000000000000000d6",
        "nonce": "0x1ef",
        "chainId": "0x2105"
      },
      "additionalContracts": [],
      "isFixedGasLimit": false
    },
    {
      "hash": "0xdc218b78214aa2608cf1c6bbe7e7a03fb2456193c9c18ec6e8b104d63a58e196",
      "transactionType": "CALL",
      "contractName": null,
      "contractAddress": "0x49d2da22aee28f3111a85f4b4b6cb53c5c379669",
      "function": "safeBurn(uint256)",
      "arguments": [
        "215"
      ],
      "transaction": {
        "from": "0x027a5ce58fc466d0e3a9d1990404354029398541",
        "to": "0x49d2da22aee28f3111a85f4b4b6cb53c5c379669",
        "gas": "0xc941",
        "value": "0x0",
        "input": "0xdbf5132500000000000000000000000000000000000000000000000000000000000000d7",
        "nonce": "0x1f0",
        "chainId": "0x2105"
      },
      "additionalContracts": [],
      "isFixedGasLimit": false
    },
    {
      "hash": "0x334244407abcccda4e419170c92ea233fade3a4328b47326184bb88ada5ad6ea",
      "transactionType": "CALL",
      "contractName": null,
      "contractAddress": "0x49d2da22aee28f3111a85f4b4b6cb53c5c379669",
      "function": "safeBurn(uint256)",
      "arguments": [
        "216"
      ],
      "transaction": {
        "from": "0x027a5ce58fc466d0e3a9d1990404354029398541",
        "to": "0x49d2da22aee28f3111a85f4b4b6cb53c5c379669",
        "gas": "0xc941",
        "value": "0x0",
        "input": "0xdbf5132500000000000000000000000000000000000000000000000000000000000000d8",
        "nonce": "0x1f1",
        "chainId": "0x2105"
      },
      "additionalContracts": [],
      "isFixedGasLimit": false
    },
    {
      "hash": "0x45826b413a1e4f54e447c8b28dd76d1df9c599ca97bbb464c57548239dad314c",
      "transactionType": "CALL",
      "contractName": null,
      "contractAddress": "0x49d2da22aee28f3111a85f4b4b6cb53c5c379669",
      "function": "safeBurn(uint256)",
      "arguments": [
        "217"
      ],
      "transaction": {
        "from": "0x027a5ce58fc466d0e3a9d1990404354029398541",
        "to": "0x49d2da22aee28f3111a85f4b4b6cb53c5c379669",
        "gas": "0xc941",
        "value": "0x0",
        "input": "0xdbf5132500000000000000000000000000000000000000000000000000000000000000d9",
        "nonce": "0x1f2",
        "chainId": "0x2105"
      },
      "additionalContracts": [],
      "isFixedGasLimit": false
    }
  ],
  "receipts": [
    {
      "status": "0x1",
      "cumulativeGasUsed": "0xa2a291",
      "logs": [
        {
          "address": "0x49d2da22aee28f3111a85f4b4b6cb53c5c379669",
          "topics": [
            "0xddf252ad1be2c89b69c2b068fc378daa952ba7f163c4a11628f55a4df523b3ef",
            "0x000000000000000000000000eac77814bd8f89d0c43a93041ab4a00fbe2568ac",
            "0x0000000000000000000000000000000000000000000000000000000000000000",
            "0x00000000000000000000000000000000000000000000000000000000000000a8"
          ],
          "data": "0x",
          "blockHash": "0xcfc3e7b810b6664582b8867524c408438f5441cbe10aa42ea10291c926efcae6",
          "blockNumber": "0xf7c0a5",
          "transactionHash": "0x2ede71eb807544b76a7d927a4309fb5328bdc20bd5f8ddf9b56ab801b833f408",
          "transactionIndex": "0x2c",
          "logIndex": "0xd1",
          "removed": false
        }
      ],
      "logsBloom": "0x00000000000000000000000040000000000000000000000000000000000000000000010040000000000000000000000000000000000000000000000000000000000000000000000080000008000000000000000000000000000000000080000000000000020000000000000000000800000000000100000000000010000000080000000000000000000000020000000000400000000000000000000000000000000000000000000000000000000000000000000000000000000000000000000000000002000000000000000000000000000000000000000000000000000020000000000000000000000000000000000000000000000000000000000000000000",
      "type": "0x2",
      "transactionHash": "0x2ede71eb807544b76a7d927a4309fb5328bdc20bd5f8ddf9b56ab801b833f408",
      "transactionIndex": "0x2c",
      "blockHash": "0xcfc3e7b810b6664582b8867524c408438f5441cbe10aa42ea10291c926efcae6",
      "blockNumber": "0xf7c0a5",
      "gasUsed": "0x91b5",
      "effectiveGasPrice": "0xd17e49",
      "from": "0x027a5ce58fc466d0e3a9d1990404354029398541",
      "to": "0x49d2da22aee28f3111a85f4b4b6cb53c5c379669",
      "contractAddress": null,
      "l1Fee": "0x2a254f7f8",
      "l1GasPrice": "0x132d98cd0",
      "l1GasUsed": "0x7cc"
    },
    {
      "status": "0x1",
      "cumulativeGasUsed": "0xa33446",
      "logs": [
        {
          "address": "0x49d2da22aee28f3111a85f4b4b6cb53c5c379669",
          "topics": [
            "0xddf252ad1be2c89b69c2b068fc378daa952ba7f163c4a11628f55a4df523b3ef",
            "0x000000000000000000000000ecbbb170762c20e9fce83dc82c073203a81392f8",
            "0x0000000000000000000000000000000000000000000000000000000000000000",
            "0x00000000000000000000000000000000000000000000000000000000000000a9"
          ],
          "data": "0x",
          "blockHash": "0xcfc3e7b810b6664582b8867524c408438f5441cbe10aa42ea10291c926efcae6",
          "blockNumber": "0xf7c0a5",
          "transactionHash": "0x757538b47777beefcfe101ab402ab42ca6435d0e733f0472a8441134e0e0d12b",
          "transactionIndex": "0x2d",
          "logIndex": "0xd2",
          "removed": false
        }
      ],
      "logsBloom": "0x00000000000000000000000040000000000000000000000000000000000000000000000040000000000000000004000000000000000000000000000000082000000000000000000000000008000000000000000000000000000000000000000000000000020000000000000000000800000000000100008000000010000000000000000000000000000000000000000000000000000000000000000000000000000000000000000000000000000000000000000000000000000040000000000000000002000000000000000000000000000000000000000000000000000020000000000000000000000000000000010000000000000000000000000000000000",
      "type": "0x2",
      "transactionHash": "0x757538b47777beefcfe101ab402ab42ca6435d0e733f0472a8441134e0e0d12b",
      "transactionIndex": "0x2d",
      "blockHash": "0xcfc3e7b810b6664582b8867524c408438f5441cbe10aa42ea10291c926efcae6",
      "blockNumber": "0xf7c0a5",
      "gasUsed": "0x91b5",
      "effectiveGasPrice": "0xd17e49",
      "from": "0x027a5ce58fc466d0e3a9d1990404354029398541",
      "to": "0x49d2da22aee28f3111a85f4b4b6cb53c5c379669",
      "contractAddress": null,
      "l1Fee": "0x2a254f7f8",
      "l1GasPrice": "0x132d98cd0",
      "l1GasUsed": "0x7cc"
    },
    {
      "status": "0x1",
      "cumulativeGasUsed": "0xa3c5fb",
      "logs": [
        {
          "address": "0x49d2da22aee28f3111a85f4b4b6cb53c5c379669",
          "topics": [
            "0xddf252ad1be2c89b69c2b068fc378daa952ba7f163c4a11628f55a4df523b3ef",
            "0x000000000000000000000000d4db22c5632368f50c9dccab4ebc6d7e73231356",
            "0x0000000000000000000000000000000000000000000000000000000000000000",
            "0x00000000000000000000000000000000000000000000000000000000000000aa"
          ],
          "data": "0x",
          "blockHash": "0xcfc3e7b810b6664582b8867524c408438f5441cbe10aa42ea10291c926efcae6",
          "blockNumber": "0xf7c0a5",
          "transactionHash": "0xdbb24ff8ee7c4165f0b4483dd007a5e26b8f6a682c1fc0b7e1d5e646b577c943",
          "transactionIndex": "0x2e",
          "logIndex": "0xd3",
          "removed": false
        }
      ],
      "logsBloom": "0x00000000000000000000000040000000000000000000000000000000000000000000000040000000000000000000000000000000000000000000000000000010000002000000000000000008000000000000000000000000000000000000200000000000020000000000000000000800000000000100000000000010000000000000000100000000000000000200000000000000000000000000000000000000000000000000000000000000000000000000000000000000000000000000000000000002000000000000000000000000000000000000000020000000000020000000000000000000000000000000000000000000000000000000000000000000",
      "type": "0x2",
      "transactionHash": "0xdbb24ff8ee7c4165f0b4483dd007a5e26b8f6a682c1fc0b7e1d5e646b577c943",
      "transactionIndex": "0x2e",
      "blockHash": "0xcfc3e7b810b6664582b8867524c408438f5441cbe10aa42ea10291c926efcae6",
      "blockNumber": "0xf7c0a5",
      "gasUsed": "0x91b5",
      "effectiveGasPrice": "0xd17e49",
      "from": "0x027a5ce58fc466d0e3a9d1990404354029398541",
      "to": "0x49d2da22aee28f3111a85f4b4b6cb53c5c379669",
      "contractAddress": null,
      "l1Fee": "0x2a254f7f8",
      "l1GasPrice": "0x132d98cd0",
      "l1GasUsed": "0x7cc"
    },
    {
      "status": "0x1",
      "cumulativeGasUsed": "0xa457b0",
      "logs": [
        {
          "address": "0x49d2da22aee28f3111a85f4b4b6cb53c5c379669",
          "topics": [
            "0xddf252ad1be2c89b69c2b068fc378daa952ba7f163c4a11628f55a4df523b3ef",
            "0x000000000000000000000000aed41655780147f27d22b86d939d2d9aa95e9c5e",
            "0x0000000000000000000000000000000000000000000000000000000000000000",
            "0x00000000000000000000000000000000000000000000000000000000000000ab"
          ],
          "data": "0x",
          "blockHash": "0xcfc3e7b810b6664582b8867524c408438f5441cbe10aa42ea10291c926efcae6",
          "blockNumber": "0xf7c0a5",
          "transactionHash": "0x88d7dad6efaba8090202a4ff754a51399185d9c7d056abf1828f232f9c3e706a",
          "transactionIndex": "0x2f",
          "logIndex": "0xd4",
          "removed": false
        }
      ],
      "logsBloom": "0x00000000001000000000000040000000000000000000000000000000000000000000000060000000000000000400000000000000000000000000000000000000000000000000000000000008000000000000000000000000000000200000000000000000020000000000000000000800000000000100000000800010000000000000000000000000000000000000000000000000000000000000000000000000000000000000000000000000000000000000000100000000000000000000000000000002000000000000000000000000000000000000000000000000000020000000000000000000000000000000000000000000000000000000000000000000",
      "type": "0x2",
      "transactionHash": "0x88d7dad6efaba8090202a4ff754a51399185d9c7d056abf1828f232f9c3e706a",
      "transactionIndex": "0x2f",
      "blockHash": "0xcfc3e7b810b6664582b8867524c408438f5441cbe10aa42ea10291c926efcae6",
      "blockNumber": "0xf7c0a5",
      "gasUsed": "0x91b5",
      "effectiveGasPrice": "0xd17e49",
      "from": "0x027a5ce58fc466d0e3a9d1990404354029398541",
      "to": "0x49d2da22aee28f3111a85f4b4b6cb53c5c379669",
      "contractAddress": null,
      "l1Fee": "0x2a254f7f8",
      "l1GasPrice": "0x132d98cd0",
      "l1GasUsed": "0x7cc"
    },
    {
      "status": "0x1",
      "cumulativeGasUsed": "0x8593a3",
      "logs": [
        {
          "address": "0x49d2da22aee28f3111a85f4b4b6cb53c5c379669",
          "topics": [
            "0xddf252ad1be2c89b69c2b068fc378daa952ba7f163c4a11628f55a4df523b3ef",
            "0x000000000000000000000000bb94672bb4891e2d2cde748fd9d5fc49a5adcb8b",
            "0x0000000000000000000000000000000000000000000000000000000000000000",
            "0x00000000000000000000000000000000000000000000000000000000000000ac"
          ],
          "data": "0x",
          "blockHash": "0x0f33fc492071b76549c25096d34796aad45236b62abd6f567bec8c1890e791e3",
          "blockNumber": "0xf7c0a6",
          "transactionHash": "0x69d9cc2acadb4d1c441c38742903a10d4153e481ff11355705b569a20d0c6c22",
          "transactionIndex": "0x28",
          "logIndex": "0xe8",
          "removed": false
        }
      ],
      "logsBloom": "0x00000000000000000000000040000000000000000000000000000000000000000000000040000000000000000000000000000000000000000000000000000000000000000000000004000008801000000000000000000000000000000000000000000000020000000000000000000800000000000100000000000010000000000000000000000400000000000000000000000000000000000000000000000000000000000000000000000000000000000000000000000000000000000000040000000002000000000000000000000000000000000000020000000000000020000000000000000000000000000000000000000000000000000000000000000000",
      "type": "0x2",
      "transactionHash": "0x69d9cc2acadb4d1c441c38742903a10d4153e481ff11355705b569a20d0c6c22",
      "transactionIndex": "0x28",
      "blockHash": "0x0f33fc492071b76549c25096d34796aad45236b62abd6f567bec8c1890e791e3",
      "blockNumber": "0xf7c0a6",
      "gasUsed": "0x91b5",
      "effectiveGasPrice": "0xd1516c",
      "from": "0x027a5ce58fc466d0e3a9d1990404354029398541",
      "to": "0x49d2da22aee28f3111a85f4b4b6cb53c5c379669",
      "contractAddress": null,
      "l1Fee": "0x2a254f7f8",
      "l1GasPrice": "0x132d98cd0",
      "l1GasUsed": "0x7cc"
    },
    {
      "status": "0x1",
      "cumulativeGasUsed": "0x862558",
      "logs": [
        {
          "address": "0x49d2da22aee28f3111a85f4b4b6cb53c5c379669",
          "topics": [
            "0xddf252ad1be2c89b69c2b068fc378daa952ba7f163c4a11628f55a4df523b3ef",
            "0x00000000000000000000000078c6ecf5a4a4728b4d0427b4765f32c6fc51a05c",
            "0x0000000000000000000000000000000000000000000000000000000000000000",
            "0x00000000000000000000000000000000000000000000000000000000000000ad"
          ],
          "data": "0x",
          "blockHash": "0x0f33fc492071b76549c25096d34796aad45236b62abd6f567bec8c1890e791e3",
          "blockNumber": "0xf7c0a6",
          "transactionHash": "0xa081e225e2ead04b9dce42849ecff42e8fd9cbb6b47e80be4abd675495237cfa",
          "transactionIndex": "0x29",
          "logIndex": "0xe9",
          "removed": false
        }
      ],
      "logsBloom": "0x00000000000000000000000040000000000000000000000000000000000000000000000040000000000000000000000000000000000000000000000000000000000000000000000000000008000000000040000000000000008000000000000000000040020000000000000000000800000000000100000100000010000002000000000000000000000000000000000000000000000000000000000000000000000000000000000000000000000000000000000000000000000000000000000000000002000000000000000000000000000000000200000000000000000020000000000000000000000000000000000000000000000000000000000000000000",
      "type": "0x2",
      "transactionHash": "0xa081e225e2ead04b9dce42849ecff42e8fd9cbb6b47e80be4abd675495237cfa",
      "transactionIndex": "0x29",
      "blockHash": "0x0f33fc492071b76549c25096d34796aad45236b62abd6f567bec8c1890e791e3",
      "blockNumber": "0xf7c0a6",
      "gasUsed": "0x91b5",
      "effectiveGasPrice": "0xd1516c",
      "from": "0x027a5ce58fc466d0e3a9d1990404354029398541",
      "to": "0x49d2da22aee28f3111a85f4b4b6cb53c5c379669",
      "contractAddress": null,
      "l1Fee": "0x2a254f7f8",
      "l1GasPrice": "0x132d98cd0",
      "l1GasUsed": "0x7cc"
    },
    {
      "status": "0x1",
      "cumulativeGasUsed": "0x86b70d",
      "logs": [
        {
          "address": "0x49d2da22aee28f3111a85f4b4b6cb53c5c379669",
          "topics": [
            "0xddf252ad1be2c89b69c2b068fc378daa952ba7f163c4a11628f55a4df523b3ef",
            "0x000000000000000000000000dcfa36c81724d4932e3fcb589f7b7e63993ae774",
            "0x0000000000000000000000000000000000000000000000000000000000000000",
            "0x00000000000000000000000000000000000000000000000000000000000000ae"
          ],
          "data": "0x",
          "blockHash": "0x0f33fc492071b76549c25096d34796aad45236b62abd6f567bec8c1890e791e3",
          "blockNumber": "0xf7c0a6",
          "transactionHash": "0x77c716ef61f9cc2c019765c6ffadc27c13f2cbb9039210e003b2a1ef9060f7cf",
          "transactionIndex": "0x2a",
          "logIndex": "0xea",
          "removed": false
        }
      ],
      "logsBloom": "0x00000000000000000000000040000000000000002000000000000000000000000000000040000000000002000000000000000000000100000000000000000000000000000000000000000008000000000000000000000000000000000000000000400000020000000000000000000800000000000100000000000010000000000000000000000000000000000000000000000000000000000000000000000400000000000000000000000000000000000000000000000000000000000000000000000002000000000000000000000000000000000000000000000000000020000000000000000000000000000000000000000000000000000000000000008000",
      "type": "0x2",
      "transactionHash": "0x77c716ef61f9cc2c019765c6ffadc27c13f2cbb9039210e003b2a1ef9060f7cf",
      "transactionIndex": "0x2a",
      "blockHash": "0x0f33fc492071b76549c25096d34796aad45236b62abd6f567bec8c1890e791e3",
      "blockNumber": "0xf7c0a6",
      "gasUsed": "0x91b5",
      "effectiveGasPrice": "0xd1516c",
      "from": "0x027a5ce58fc466d0e3a9d1990404354029398541",
      "to": "0x49d2da22aee28f3111a85f4b4b6cb53c5c379669",
      "contractAddress": null,
      "l1Fee": "0x29e471e7e",
      "l1GasPrice": "0x132d98cd0",
      "l1GasUsed": "0x7c0"
    },
    {
      "status": "0x1",
      "cumulativeGasUsed": "0x8748c2",
      "logs": [
        {
          "address": "0x49d2da22aee28f3111a85f4b4b6cb53c5c379669",
          "topics": [
            "0xddf252ad1be2c89b69c2b068fc378daa952ba7f163c4a11628f55a4df523b3ef",
            "0x000000000000000000000000bc3a0d037f1eea0d07f11e17fb053f6b7ec3b9b4",
            "0x0000000000000000000000000000000000000000000000000000000000000000",
            "0x00000000000000000000000000000000000000000000000000000000000000af"
          ],
          "data": "0x",
          "blockHash": "0x0f33fc492071b76549c25096d34796aad45236b62abd6f567bec8c1890e791e3",
          "blockNumber": "0xf7c0a6",
          "transactionHash": "0x90b68d1564b7738b4c451854a3e9a5e6cbc4f2c0362f623cb3444403ed460457",
          "transactionIndex": "0x2b",
          "logIndex": "0xeb",
          "removed": false
        }
      ],
      "logsBloom": "0x00000000000000000000000040000000000000000000000000000000000000000200000040000000000000000000000000000000000000000000000000000000000000000000000000000008000000000000000000000000000000000000000000000000020000000000000000000800000000000100000000000010000000000000000000000000000000600000000000000000000000000000000000000000000000000000000000000000000000000000000000000000000000000000002001000002000000000000000000000000000000000000000020000000000020000000000000000000000000000000000000000000000000000000000000000000",
      "type": "0x2",
      "transactionHash": "0x90b68d1564b7738b4c451854a3e9a5e6cbc4f2c0362f623cb3444403ed460457",
      "transactionIndex": "0x2b",
      "blockHash": "0x0f33fc492071b76549c25096d34796aad45236b62abd6f567bec8c1890e791e3",
      "blockNumber": "0xf7c0a6",
      "gasUsed": "0x91b5",
      "effectiveGasPrice": "0xd1516c",
      "from": "0x027a5ce58fc466d0e3a9d1990404354029398541",
      "to": "0x49d2da22aee28f3111a85f4b4b6cb53c5c379669",
      "contractAddress": null,
      "l1Fee": "0x29e471e7e",
      "l1GasPrice": "0x132d98cd0",
      "l1GasUsed": "0x7c0"
    },
    {
      "status": "0x1",
      "cumulativeGasUsed": "0x87da77",
      "logs": [
        {
          "address": "0x49d2da22aee28f3111a85f4b4b6cb53c5c379669",
          "topics": [
            "0xddf252ad1be2c89b69c2b068fc378daa952ba7f163c4a11628f55a4df523b3ef",
            "0x000000000000000000000000cdf06c6662d7f658a5916bfaa58e0fc78ad2518a",
            "0x0000000000000000000000000000000000000000000000000000000000000000",
            "0x00000000000000000000000000000000000000000000000000000000000000b0"
          ],
          "data": "0x",
          "blockHash": "0x0f33fc492071b76549c25096d34796aad45236b62abd6f567bec8c1890e791e3",
          "blockNumber": "0xf7c0a6",
          "transactionHash": "0x3bfc4798ad8bb41ee565418fbd3d95834e17cf34ae5cb59b513dc7a0b873d14e",
          "transactionIndex": "0x2c",
          "logIndex": "0xec",
          "removed": false
        }
      ],
      "logsBloom": "0x00000000000000000000000040000000000000000000000000000000000000000000000040000000000000000000000000000000000000000000000000000000000000000000000000000008000000000000000000000000000000000000000000000000020000000000000000000800000000000100000000000010000000000000000000000000000000000000080000000000000000000000000000000000000800000000000000020000000000000000000000000000000000000000000000000002000000000000000000000000000000000000000000000010000020000000000000010000000000000000000001000000000000000000000000000000",
      "type": "0x2",
      "transactionHash": "0x3bfc4798ad8bb41ee565418fbd3d95834e17cf34ae5cb59b513dc7a0b873d14e",
      "transactionIndex": "0x2c",
      "blockHash": "0x0f33fc492071b76549c25096d34796aad45236b62abd6f567bec8c1890e791e3",
      "blockNumber": "0xf7c0a6",
      "gasUsed": "0x91b5",
      "effectiveGasPrice": "0xd1516c",
      "from": "0x027a5ce58fc466d0e3a9d1990404354029398541",
      "to": "0x49d2da22aee28f3111a85f4b4b6cb53c5c379669",
      "contractAddress": null,
      "l1Fee": "0x29e471e7e",
      "l1GasPrice": "0x132d98cd0",
      "l1GasUsed": "0x7c0"
    },
    {
      "status": "0x1",
      "cumulativeGasUsed": "0x886c2c",
      "logs": [
        {
          "address": "0x49d2da22aee28f3111a85f4b4b6cb53c5c379669",
          "topics": [
            "0xddf252ad1be2c89b69c2b068fc378daa952ba7f163c4a11628f55a4df523b3ef",
            "0x000000000000000000000000ec58e3019f1d3a8bde5580f60585bc68b85a7120",
            "0x0000000000000000000000000000000000000000000000000000000000000000",
            "0x00000000000000000000000000000000000000000000000000000000000000b1"
          ],
          "data": "0x",
          "blockHash": "0x0f33fc492071b76549c25096d34796aad45236b62abd6f567bec8c1890e791e3",
          "blockNumber": "0xf7c0a6",
          "transactionHash": "0x1f282cf16512921d6bfb4d6dbd656fa78ed2466e8db04f4eec32288c8f2c069b",
          "transactionIndex": "0x2d",
          "logIndex": "0xed",
          "removed": false
        }
      ],
      "logsBloom": "0x00000000000000000000000040000000000000002000000000000000000000000000000040000000000000000000000000000000000000000000000000000000000000000000000000000008000000000000000000000000000000000000000000000000020009000000000000000800000000000100000000000010000000000000000000000000000000000000000000008000000000000000000000000000000000000000000000000000000000000000000000000000000000000000000000000002000000000000000000000000000000100000000000000000000020000000000000000008000000000000000000000000000000000000000000000000",
      "type": "0x2",
      "transactionHash": "0x1f282cf16512921d6bfb4d6dbd656fa78ed2466e8db04f4eec32288c8f2c069b",
      "transactionIndex": "0x2d",
      "blockHash": "0x0f33fc492071b76549c25096d34796aad45236b62abd6f567bec8c1890e791e3",
      "blockNumber": "0xf7c0a6",
      "gasUsed": "0x91b5",
      "effectiveGasPrice": "0xd1516c",
      "from": "0x027a5ce58fc466d0e3a9d1990404354029398541",
      "to": "0x49d2da22aee28f3111a85f4b4b6cb53c5c379669",
      "contractAddress": null,
      "l1Fee": "0x2a254f7f8",
      "l1GasPrice": "0x132d98cd0",
      "l1GasUsed": "0x7cc"
    },
    {
      "status": "0x1",
      "cumulativeGasUsed": "0x88fde1",
      "logs": [
        {
          "address": "0x49d2da22aee28f3111a85f4b4b6cb53c5c379669",
          "topics": [
            "0xddf252ad1be2c89b69c2b068fc378daa952ba7f163c4a11628f55a4df523b3ef",
            "0x000000000000000000000000a97d3fd2d15e8c27b26a62022bc537c1e448cf6b",
            "0x0000000000000000000000000000000000000000000000000000000000000000",
            "0x00000000000000000000000000000000000000000000000000000000000000b2"
          ],
          "data": "0x",
          "blockHash": "0x0f33fc492071b76549c25096d34796aad45236b62abd6f567bec8c1890e791e3",
          "blockNumber": "0xf7c0a6",
          "transactionHash": "0x4c373c5ab4677ed225d2c3080951d3caae629d4f4c7f983e43dc2fb18fec325f",
          "transactionIndex": "0x2e",
          "logIndex": "0xee",
          "removed": false
        }
      ],
      "logsBloom": "0x00000000000000000000000040000000000000000000000000000000000000000000000040000000000000000000000000000000000000000000000000000000000000000000000040000008000000000000000000000000000040000000000000000000020000000000000000000800000000000100000000000010000000000004800000000000000000000000000000000000000000000000000000000000000000000000000000000000000000000000000000000000000000000000000000000002000000000200000000000000000000000080000000000000000020000000000000000000000000000000000000000000000000000000000000000000",
      "type": "0x2",
      "transactionHash": "0x4c373c5ab4677ed225d2c3080951d3caae629d4f4c7f983e43dc2fb18fec325f",
      "transactionIndex": "0x2e",
      "blockHash": "0x0f33fc492071b76549c25096d34796aad45236b62abd6f567bec8c1890e791e3",
      "blockNumber": "0xf7c0a6",
      "gasUsed": "0x91b5",
      "effectiveGasPrice": "0xd1516c",
      "from": "0x027a5ce58fc466d0e3a9d1990404354029398541",
      "to": "0x49d2da22aee28f3111a85f4b4b6cb53c5c379669",
      "contractAddress": null,
      "l1Fee": "0x2a254f7f8",
      "l1GasPrice": "0x132d98cd0",
      "l1GasUsed": "0x7cc"
    },
    {
      "status": "0x1",
      "cumulativeGasUsed": "0x898f96",
      "logs": [
        {
          "address": "0x49d2da22aee28f3111a85f4b4b6cb53c5c379669",
          "topics": [
            "0xddf252ad1be2c89b69c2b068fc378daa952ba7f163c4a11628f55a4df523b3ef",
            "0x0000000000000000000000008cfd81b1b6ad733195ee8a637e21895f00386a18",
            "0x0000000000000000000000000000000000000000000000000000000000000000",
            "0x00000000000000000000000000000000000000000000000000000000000000b3"
          ],
          "data": "0x",
          "blockHash": "0x0f33fc492071b76549c25096d34796aad45236b62abd6f567bec8c1890e791e3",
          "blockNumber": "0xf7c0a6",
          "transactionHash": "0x28a215e01f88a6577e823d5f44472954c8a5c1806cf65e3a0bdcfbef7a03aab7",
          "transactionIndex": "0x2f",
          "logIndex": "0xef",
          "removed": false
        }
      ],
      "logsBloom": "0x00000000000000200000000040000000000000000000000000000000000000000000000040000000000000000000000000000000000000000000000800000000000000000000000000000008000000000000000000000000000000000000000000000000020000000000000000000800000000000100000000000010000000000000000000000000000000000000000000008000000000000000000010000000000000000000000000000000000000000000000000000000000000000000000000000002000000000000000000000000040000000000000000000000000020000000000000000000000000000000000000000000000000010000000000000000",
      "type": "0x2",
      "transactionHash": "0x28a215e01f88a6577e823d5f44472954c8a5c1806cf65e3a0bdcfbef7a03aab7",
      "transactionIndex": "0x2f",
      "blockHash": "0x0f33fc492071b76549c25096d34796aad45236b62abd6f567bec8c1890e791e3",
      "blockNumber": "0xf7c0a6",
      "gasUsed": "0x91b5",
      "effectiveGasPrice": "0xd1516c",
      "from": "0x027a5ce58fc466d0e3a9d1990404354029398541",
      "to": "0x49d2da22aee28f3111a85f4b4b6cb53c5c379669",
      "contractAddress": null,
      "l1Fee": "0x2a254f7f8",
      "l1GasPrice": "0x132d98cd0",
      "l1GasUsed": "0x7cc"
    },
    {
      "status": "0x1",
      "cumulativeGasUsed": "0x8c8ec3",
      "logs": [
        {
          "address": "0x49d2da22aee28f3111a85f4b4b6cb53c5c379669",
          "topics": [
            "0xddf252ad1be2c89b69c2b068fc378daa952ba7f163c4a11628f55a4df523b3ef",
            "0x000000000000000000000000f98d33a2a0b17cb98e7a8084cf720b4a1f97bb5c",
            "0x0000000000000000000000000000000000000000000000000000000000000000",
            "0x00000000000000000000000000000000000000000000000000000000000000b4"
          ],
          "data": "0x",
          "blockHash": "0xab79395781f3aac6e7a324c76ad538116071def9c8c4baef53bc104a529cfd76",
          "blockNumber": "0xf7c0a8",
          "transactionHash": "0x4353a387120e0a62a24174062a94972eb767d493ec68937d638da19a961424e8",
          "transactionIndex": "0x30",
          "logIndex": "0x9b",
          "removed": false
        }
      ],
      "logsBloom": "0x00001000000000000000000040000000000000000000000000000000000000000000000040000000000000000000000000000000000000000000000000000000000000000000000000000008000000000000000000000000000000000000000000000000020000000800000000000800000000008100000000000010000000000000000000000000000000000200000000000000040000000000000000000000000000000000000200000000000000000000000000000000000000000000000000000002000000000000000000000000000000000000000000000000000020000000000000000000000000000000000000000000000000000000000000000000",
      "type": "0x2",
      "transactionHash": "0x4353a387120e0a62a24174062a94972eb767d493ec68937d638da19a961424e8",
      "transactionIndex": "0x30",
      "blockHash": "0xab79395781f3aac6e7a324c76ad538116071def9c8c4baef53bc104a529cfd76",
      "blockNumber": "0xf7c0a8",
      "gasUsed": "0x91b5",
      "effectiveGasPrice": "0xd0f5fc",
      "from": "0x027a5ce58fc466d0e3a9d1990404354029398541",
      "to": "0x49d2da22aee28f3111a85f4b4b6cb53c5c379669",
      "contractAddress": null,
      "l1Fee": "0x2a254f7f8",
      "l1GasPrice": "0x132d98cd0",
      "l1GasUsed": "0x7cc"
    },
    {
      "status": "0x1",
      "cumulativeGasUsed": "0x8d2078",
      "logs": [
        {
          "address": "0x49d2da22aee28f3111a85f4b4b6cb53c5c379669",
          "topics": [
            "0xddf252ad1be2c89b69c2b068fc378daa952ba7f163c4a11628f55a4df523b3ef",
            "0x00000000000000000000000032a63867e7ba3f41eeed3e0c1ac97877f7c99208",
            "0x0000000000000000000000000000000000000000000000000000000000000000",
            "0x00000000000000000000000000000000000000000000000000000000000000b5"
          ],
          "data": "0x",
          "blockHash": "0xab79395781f3aac6e7a324c76ad538116071def9c8c4baef53bc104a529cfd76",
          "blockNumber": "0xf7c0a8",
          "transactionHash": "0x38c8f062f4d17c1a07eb867241dc17104106814300324fce7c32c39304fbae3f",
          "transactionIndex": "0x31",
          "logIndex": "0x9c",
          "removed": false
        }
      ],
      "logsBloom": "0x00000000000000000000000040000000000000000080000000000000000000000000000040000000000400000000000000000000000000000000000000000000000000000000000000000008000000000010000000000000000000000000000000000000020000000000000000000800000000000100000000000010000000000000000000000000000000000000000000000000000000000020000000000000000000000000000001000000000000000000000000000000000000000000000000000002000000000000000000000000000000000000000000000000000020000000000000000000000200000000000000000000000000000000000000000000",
      "type": "0x2",
      "transactionHash": "0x38c8f062f4d17c1a07eb867241dc17104106814300324fce7c32c39304fbae3f",
      "transactionIndex": "0x31",
      "blockHash": "0xab79395781f3aac6e7a324c76ad538116071def9c8c4baef53bc104a529cfd76",
      "blockNumber": "0xf7c0a8",
      "gasUsed": "0x91b5",
      "effectiveGasPrice": "0xd0f5fc",
      "from": "0x027a5ce58fc466d0e3a9d1990404354029398541",
      "to": "0x49d2da22aee28f3111a85f4b4b6cb53c5c379669",
      "contractAddress": null,
      "l1Fee": "0x2a254f7f8",
      "l1GasPrice": "0x132d98cd0",
      "l1GasUsed": "0x7cc"
    },
    {
      "status": "0x1",
      "cumulativeGasUsed": "0x8db22d",
      "logs": [
        {
          "address": "0x49d2da22aee28f3111a85f4b4b6cb53c5c379669",
          "topics": [
            "0xddf252ad1be2c89b69c2b068fc378daa952ba7f163c4a11628f55a4df523b3ef",
            "0x00000000000000000000000083c344b1b14fc24d9dad6c8bc3a4f814215fc89c",
            "0x0000000000000000000000000000000000000000000000000000000000000000",
            "0x00000000000000000000000000000000000000000000000000000000000000b6"
          ],
          "data": "0x",
          "blockHash": "0xab79395781f3aac6e7a324c76ad538116071def9c8c4baef53bc104a529cfd76",
          "blockNumber": "0xf7c0a8",
          "transactionHash": "0xbc6e1e62229fa09cc151e0326be90efcd17f3a379cc4fd29a6a1ca152aedf6ed",
          "transactionIndex": "0x32",
          "logIndex": "0x9d",
          "removed": false
        }
      ],
      "logsBloom": "0x00000000000040000000000040000000000000000000000000000040000000000000000040000080000000000000000000000000000000000000000000000000000000000000000000000008000000000000000000000000000000000000000000000000020000000000000000000800000000000100000000000010000000000000000000000000000000000000000000000000000000000000000004000000000000800000000000000000000000000000000000000000000000000000000000000002000000000000000000002000000000000000000000000000000020000000000000000000000000000000000000000000000000000000000000000000",
      "type": "0x2",
      "transactionHash": "0xbc6e1e62229fa09cc151e0326be90efcd17f3a379cc4fd29a6a1ca152aedf6ed",
      "transactionIndex": "0x32",
      "blockHash": "0xab79395781f3aac6e7a324c76ad538116071def9c8c4baef53bc104a529cfd76",
      "blockNumber": "0xf7c0a8",
      "gasUsed": "0x91b5",
      "effectiveGasPrice": "0xd0f5fc",
      "from": "0x027a5ce58fc466d0e3a9d1990404354029398541",
      "to": "0x49d2da22aee28f3111a85f4b4b6cb53c5c379669",
      "contractAddress": null,
      "l1Fee": "0x2a254f7f8",
      "l1GasPrice": "0x132d98cd0",
      "l1GasUsed": "0x7cc"
    },
    {
      "status": "0x1",
      "cumulativeGasUsed": "0x8e43e2",
      "logs": [
        {
          "address": "0x49d2da22aee28f3111a85f4b4b6cb53c5c379669",
          "topics": [
            "0xddf252ad1be2c89b69c2b068fc378daa952ba7f163c4a11628f55a4df523b3ef",
            "0x00000000000000000000000061bc9de1a5275a2c3739bff5e0b258b703f9a8c1",
            "0x0000000000000000000000000000000000000000000000000000000000000000",
            "0x00000000000000000000000000000000000000000000000000000000000000b7"
          ],
          "data": "0x",
          "blockHash": "0xab79395781f3aac6e7a324c76ad538116071def9c8c4baef53bc104a529cfd76",
          "blockNumber": "0xf7c0a8",
          "transactionHash": "0xd31b0c14629bfe679594c37820782510ce87d6377d937f48e1b71bb1ec31d5a7",
          "transactionIndex": "0x33",
          "logIndex": "0x9e",
          "removed": false
        }
      ],
      "logsBloom": "0x00000000000000000000000040000000000000000000000000000000000000000000000040000000000000004000000000000000000000000000002000000000000000000000000000000008000000000000000000000000000000000000000800000000020000000000000000000800000000000100000000000210000000000000000000000000000000000000000000000000000000000000000000000000000000000000000000000000000000000200000000000000000000000000000000000002000000000000000000000000000000000000000000001000000020000000000000000000000000000000000000000000000000000000000000000000",
      "type": "0x2",
      "transactionHash": "0xd31b0c14629bfe679594c37820782510ce87d6377d937f48e1b71bb1ec31d5a7",
      "transactionIndex": "0x33",
      "blockHash": "0xab79395781f3aac6e7a324c76ad538116071def9c8c4baef53bc104a529cfd76",
      "blockNumber": "0xf7c0a8",
      "gasUsed": "0x91b5",
      "effectiveGasPrice": "0xd0f5fc",
      "from": "0x027a5ce58fc466d0e3a9d1990404354029398541",
      "to": "0x49d2da22aee28f3111a85f4b4b6cb53c5c379669",
      "contractAddress": null,
      "l1Fee": "0x2a254f7f8",
      "l1GasPrice": "0x132d98cd0",
      "l1GasUsed": "0x7cc"
    },
    {
      "status": "0x1",
      "cumulativeGasUsed": "0x8ed597",
      "logs": [
        {
          "address": "0x49d2da22aee28f3111a85f4b4b6cb53c5c379669",
          "topics": [
            "0xddf252ad1be2c89b69c2b068fc378daa952ba7f163c4a11628f55a4df523b3ef",
            "0x000000000000000000000000b96d262a8572bae7e91d78b6cbf1b7f153f7806a",
            "0x0000000000000000000000000000000000000000000000000000000000000000",
            "0x00000000000000000000000000000000000000000000000000000000000000b8"
          ],
          "data": "0x",
          "blockHash": "0xab79395781f3aac6e7a324c76ad538116071def9c8c4baef53bc104a529cfd76",
          "blockNumber": "0xf7c0a8",
          "transactionHash": "0x6637336e8e2276d5aa89014bced2e232c903aa20b38f2faae9652b2f02ec036e",
          "transactionIndex": "0x34",
          "logIndex": "0x9f",
          "removed": false
        }
      ],
      "logsBloom": "0x00000000000000000000000040000000000000000000000000000000000000000000000040000000000000000000000000000000000000000000000000000000000000000000000000000008000000000000000000000000000000000000000000000000020000000000000000000800000000000100000000000010000000000000000080000000000000000000000000000000000000000000000000000000000000000000000000000000000000000000000000000000000000000000000000000002000000000000000000000000000000000000800000000000300020000000000000000000000000100000000000000000000000000000020000000000",
      "type": "0x2",
      "transactionHash": "0x6637336e8e2276d5aa89014bced2e232c903aa20b38f2faae9652b2f02ec036e",
      "transactionIndex": "0x34",
      "blockHash": "0xab79395781f3aac6e7a324c76ad538116071def9c8c4baef53bc104a529cfd76",
      "blockNumber": "0xf7c0a8",
      "gasUsed": "0x91b5",
      "effectiveGasPrice": "0xd0f5fc",
      "from": "0x027a5ce58fc466d0e3a9d1990404354029398541",
      "to": "0x49d2da22aee28f3111a85f4b4b6cb53c5c379669",
      "contractAddress": null,
      "l1Fee": "0x29e471e7e",
      "l1GasPrice": "0x132d98cd0",
      "l1GasUsed": "0x7c0"
    },
    {
      "status": "0x1",
      "cumulativeGasUsed": "0x8f674c",
      "logs": [
        {
          "address": "0x49d2da22aee28f3111a85f4b4b6cb53c5c379669",
          "topics": [
            "0xddf252ad1be2c89b69c2b068fc378daa952ba7f163c4a11628f55a4df523b3ef",
            "0x000000000000000000000000582c02c5dda408d0b5d65bc5e295e2d72f8d24a6",
            "0x0000000000000000000000000000000000000000000000000000000000000000",
            "0x00000000000000000000000000000000000000000000000000000000000000b9"
          ],
          "data": "0x",
          "blockHash": "0xab79395781f3aac6e7a324c76ad538116071def9c8c4baef53bc104a529cfd76",
          "blockNumber": "0xf7c0a8",
          "transactionHash": "0x9a9396ba6b53f0ffa52c3852475c935a823c565e54e5d36952886ecca1a42623",
          "transactionIndex": "0x35",
          "logIndex": "0xa0",
          "removed": false
        }
      ],
      "logsBloom": "0x00000000000000000000000040000000000000000100000000000000000000000000000040000000000000000000000001000000000000800000000000020000000000000000000000000008000000000000000000000000000000000000000000000000020000000000000000000800000000000100000000000010000000000000000000000000000000000000000000000000010000000000000000000000000000000000000000000000000000000000000000000000000000000000000000000002000000000000000000000000000000000000000000000000000020000000000000000000000000800000000000000000000000000000000000000000",
      "type": "0x2",
      "transactionHash": "0x9a9396ba6b53f0ffa52c3852475c935a823c565e54e5d36952886ecca1a42623",
      "transactionIndex": "0x35",
      "blockHash": "0xab79395781f3aac6e7a324c76ad538116071def9c8c4baef53bc104a529cfd76",
      "blockNumber": "0xf7c0a8",
      "gasUsed": "0x91b5",
      "effectiveGasPrice": "0xd0f5fc",
      "from": "0x027a5ce58fc466d0e3a9d1990404354029398541",
      "to": "0x49d2da22aee28f3111a85f4b4b6cb53c5c379669",
      "contractAddress": null,
      "l1Fee": "0x29e471e7e",
      "l1GasPrice": "0x132d98cd0",
      "l1GasUsed": "0x7c0"
    },
    {
      "status": "0x1",
      "cumulativeGasUsed": "0x8ff901",
      "logs": [
        {
          "address": "0x49d2da22aee28f3111a85f4b4b6cb53c5c379669",
          "topics": [
            "0xddf252ad1be2c89b69c2b068fc378daa952ba7f163c4a11628f55a4df523b3ef",
            "0x000000000000000000000000701d5a9b072d540c2d3eabcd07a5e7097f615ec5",
            "0x0000000000000000000000000000000000000000000000000000000000000000",
            "0x00000000000000000000000000000000000000000000000000000000000000ba"
          ],
          "data": "0x",
          "blockHash": "0xab79395781f3aac6e7a324c76ad538116071def9c8c4baef53bc104a529cfd76",
          "blockNumber": "0xf7c0a8",
          "transactionHash": "0x8608bad4d49a891c8e73fe3d6e5cddf16481d96aba329b83b46f128012eb9758",
          "transactionIndex": "0x36",
          "logIndex": "0xa1",
          "removed": false
        }
      ],
      "logsBloom": "0x00000000000000000080000040000000000000000000000000000000000000000000000040000000000000000000000000000000000000000400000000000000000000000000000000000008000000000000000000004000000000000000000000000000020000000000000000000800000000000100000000000010000000000000000000000000020000004000000000000000000000000000000000000000000000000000000000000000000000000000000000000000000000000000000000000002000000000080000000000000000000000000000000000000000020000000000000000000000000000000000000000000000000000000000000000000",
      "type": "0x2",
      "transactionHash": "0x8608bad4d49a891c8e73fe3d6e5cddf16481d96aba329b83b46f128012eb9758",
      "transactionIndex": "0x36",
      "blockHash": "0xab79395781f3aac6e7a324c76ad538116071def9c8c4baef53bc104a529cfd76",
      "blockNumber": "0xf7c0a8",
      "gasUsed": "0x91b5",
      "effectiveGasPrice": "0xd0f5fc",
      "from": "0x027a5ce58fc466d0e3a9d1990404354029398541",
      "to": "0x49d2da22aee28f3111a85f4b4b6cb53c5c379669",
      "contractAddress": null,
      "l1Fee": "0x2a254f7f8",
      "l1GasPrice": "0x132d98cd0",
      "l1GasUsed": "0x7cc"
    },
    {
      "status": "0x1",
      "cumulativeGasUsed": "0x908ab6",
      "logs": [
        {
          "address": "0x49d2da22aee28f3111a85f4b4b6cb53c5c379669",
          "topics": [
            "0xddf252ad1be2c89b69c2b068fc378daa952ba7f163c4a11628f55a4df523b3ef",
            "0x000000000000000000000000bd75b45f51dfed57ed2e937f3a3d9b1dbad6de4a",
            "0x0000000000000000000000000000000000000000000000000000000000000000",
            "0x00000000000000000000000000000000000000000000000000000000000000bb"
          ],
          "data": "0x",
          "blockHash": "0xab79395781f3aac6e7a324c76ad538116071def9c8c4baef53bc104a529cfd76",
          "blockNumber": "0xf7c0a8",
          "transactionHash": "0x1e809f4792792017159a61ad81103a830cae2f28147e3aa3704f78d17749f2f7",
          "transactionIndex": "0x37",
          "logIndex": "0xa2",
          "removed": false
        }
      ],
      "logsBloom": "0x00000000000000000000000040000000000000000000000000000000000000000000000040000000000000000000000000000000000000000000000000000000000000000000000000000008000000200000000000000000000000000000000000000000020000000000000000000800000000000100000000000010000000000000000000000000000000000000000000000000000000000000000000002000000000000000004000000000000000000000001000000000000000000000000000000002000000000000000000000000000008000000000000000000000020000000000000000000000080000000000000000000000000000000000000000000",
      "type": "0x2",
      "transactionHash": "0x1e809f4792792017159a61ad81103a830cae2f28147e3aa3704f78d17749f2f7",
      "transactionIndex": "0x37",
      "blockHash": "0xab79395781f3aac6e7a324c76ad538116071def9c8c4baef53bc104a529cfd76",
      "blockNumber": "0xf7c0a8",
      "gasUsed": "0x91b5",
      "effectiveGasPrice": "0xd0f5fc",
      "from": "0x027a5ce58fc466d0e3a9d1990404354029398541",
      "to": "0x49d2da22aee28f3111a85f4b4b6cb53c5c379669",
      "contractAddress": null,
      "l1Fee": "0x2a254f7f8",
      "l1GasPrice": "0x132d98cd0",
      "l1GasUsed": "0x7cc"
    },
    {
      "status": "0x1",
      "cumulativeGasUsed": "0x911c6b",
      "logs": [
        {
          "address": "0x49d2da22aee28f3111a85f4b4b6cb53c5c379669",
          "topics": [
            "0xddf252ad1be2c89b69c2b068fc378daa952ba7f163c4a11628f55a4df523b3ef",
            "0x0000000000000000000000008234dceb3211bb3d24f8e8d858b82de330919a62",
            "0x0000000000000000000000000000000000000000000000000000000000000000",
            "0x00000000000000000000000000000000000000000000000000000000000000bc"
          ],
          "data": "0x",
          "blockHash": "0xab79395781f3aac6e7a324c76ad538116071def9c8c4baef53bc104a529cfd76",
          "blockNumber": "0xf7c0a8",
          "transactionHash": "0x7afa8733e387f960bca3a48dbd11a4d97d35ac89a4be682eca894efdba9c1837",
          "transactionIndex": "0x38",
          "logIndex": "0xa3",
          "removed": false
        }
      ],
      "logsBloom": "0x00000000000000000000000040000000000000008000000000000000800000000000000040000000000000000000000000000000000000000000000000000000000000000000000000000008000000000000000000000000000000000000000000000000020000000000000000000800000000000100000000000010000000000000000000000000000000000000000000000000000000000000000000000000000000000000000000000000000020000000000000000000000000000000000000000002000000000000000000000000000000000000000000000000000020000000000000001000000000000000000000000000000080020000000000000000",
      "type": "0x2",
      "transactionHash": "0x7afa8733e387f960bca3a48dbd11a4d97d35ac89a4be682eca894efdba9c1837",
      "transactionIndex": "0x38",
      "blockHash": "0xab79395781f3aac6e7a324c76ad538116071def9c8c4baef53bc104a529cfd76",
      "blockNumber": "0xf7c0a8",
      "gasUsed": "0x91b5",
      "effectiveGasPrice": "0xd0f5fc",
      "from": "0x027a5ce58fc466d0e3a9d1990404354029398541",
      "to": "0x49d2da22aee28f3111a85f4b4b6cb53c5c379669",
      "contractAddress": null,
      "l1Fee": "0x29e471e7e",
      "l1GasPrice": "0x132d98cd0",
      "l1GasUsed": "0x7c0"
    },
    {
      "status": "0x1",
      "cumulativeGasUsed": "0x91ae20",
      "logs": [
        {
          "address": "0x49d2da22aee28f3111a85f4b4b6cb53c5c379669",
          "topics": [
            "0xddf252ad1be2c89b69c2b068fc378daa952ba7f163c4a11628f55a4df523b3ef",
            "0x00000000000000000000000092c03bc9b7e2eb57c1c17f87e7600eec55bc6d5b",
            "0x0000000000000000000000000000000000000000000000000000000000000000",
            "0x00000000000000000000000000000000000000000000000000000000000000bd"
          ],
          "data": "0x",
          "blockHash": "0xab79395781f3aac6e7a324c76ad538116071def9c8c4baef53bc104a529cfd76",
          "blockNumber": "0xf7c0a8",
          "transactionHash": "0xb9dd7f6b8b8cab18c93e4a7bc938d5871c6cb7e27a0ce473b53544e749f873f0",
          "transactionIndex": "0x39",
          "logIndex": "0xa4",
          "removed": false
        }
      ],
      "logsBloom": "0x00000000000000000000000040000000000000000000000000000000000000000000000040000000000080000000000000000000000000000400000000000000000000000000000000000008000000000000000000000000000000000000000000000000020000000000000000000800000000000100000000010010000000000000000000000000000000000000000000000000000000100000000000000000000000000000000000000000000000000000000000000000000000000000000000000002000000000000000000000000000000000000000000000000000020000000000000000000000000000000000000100000000000000000000000200000",
      "type": "0x2",
      "transactionHash": "0xb9dd7f6b8b8cab18c93e4a7bc938d5871c6cb7e27a0ce473b53544e749f873f0",
      "transactionIndex": "0x39",
      "blockHash": "0xab79395781f3aac6e7a324c76ad538116071def9c8c4baef53bc104a529cfd76",
      "blockNumber": "0xf7c0a8",
      "gasUsed": "0x91b5",
      "effectiveGasPrice": "0xd0f5fc",
      "from": "0x027a5ce58fc466d0e3a9d1990404354029398541",
      "to": "0x49d2da22aee28f3111a85f4b4b6cb53c5c379669",
      "contractAddress": null,
      "l1Fee": "0x29e471e7e",
      "l1GasPrice": "0x132d98cd0",
      "l1GasUsed": "0x7c0"
    },
    {
      "status": "0x1",
      "cumulativeGasUsed": "0x923fd5",
      "logs": [
        {
          "address": "0x49d2da22aee28f3111a85f4b4b6cb53c5c379669",
          "topics": [
            "0xddf252ad1be2c89b69c2b068fc378daa952ba7f163c4a11628f55a4df523b3ef",
            "0x000000000000000000000000d8f9f2d614f4094d8b9dd9c79c4e31f124dc4abf",
            "0x0000000000000000000000000000000000000000000000000000000000000000",
            "0x00000000000000000000000000000000000000000000000000000000000000be"
          ],
          "data": "0x",
          "blockHash": "0xab79395781f3aac6e7a324c76ad538116071def9c8c4baef53bc104a529cfd76",
          "blockNumber": "0xf7c0a8",
          "transactionHash": "0xd8f56be8a73564561becdb8eaaf75a8ee7e654a9c18076a63c3a2abdbafc3b8b",
          "transactionIndex": "0x3a",
          "logIndex": "0xa5",
          "removed": false
        }
      ],
      "logsBloom": "0x00000000000000000000000040000000000000000000000000000000000000000000000040000000000000000000000000000000000000000000000000000000000000000000000000000008000000000000000000000000000000000000000000000000020000000000000000000800000200000100000040000010000000000000000200000000000000000000000000000000000000000000000000000000000000000000000000000000000000000000000000000000000000000000000000000002000000000000000000000000000000000000000000000000000020000000000000000000000004000000000400000008000000000000000000000000",
      "type": "0x2",
      "transactionHash": "0xd8f56be8a73564561becdb8eaaf75a8ee7e654a9c18076a63c3a2abdbafc3b8b",
      "transactionIndex": "0x3a",
      "blockHash": "0xab79395781f3aac6e7a324c76ad538116071def9c8c4baef53bc104a529cfd76",
      "blockNumber": "0xf7c0a8",
      "gasUsed": "0x91b5",
      "effectiveGasPrice": "0xd0f5fc",
      "from": "0x027a5ce58fc466d0e3a9d1990404354029398541",
      "to": "0x49d2da22aee28f3111a85f4b4b6cb53c5c379669",
      "contractAddress": null,
      "l1Fee": "0x29e471e7e",
      "l1GasPrice": "0x132d98cd0",
      "l1GasUsed": "0x7c0"
    },
    {
      "status": "0x1",
      "cumulativeGasUsed": "0xaa00cb",
      "logs": [
        {
          "address": "0x49d2da22aee28f3111a85f4b4b6cb53c5c379669",
          "topics": [
            "0xddf252ad1be2c89b69c2b068fc378daa952ba7f163c4a11628f55a4df523b3ef",
            "0x0000000000000000000000006f51dca81a0c6e10615f9ce401d3855acb1f4c45",
            "0x0000000000000000000000000000000000000000000000000000000000000000",
            "0x00000000000000000000000000000000000000000000000000000000000000bf"
          ],
          "data": "0x",
          "blockHash": "0x0e5a02b93233b9f6bac684a979b8465a010afa7fbfb69b7e9f9ab325a7975c03",
          "blockNumber": "0xf7c0a9",
          "transactionHash": "0xccc0f2739d51cc2530b837740ed7247534737f9e10f677c5cf477033740d42e3",
          "transactionIndex": "0x38",
          "logIndex": "0x12d",
          "removed": false
        }
      ],
      "logsBloom": "0x00000000000000000000400040000000000000000000000000000000000000000000000040000000000000000000000000000000000000000000000000000000000000000000000000000008000000000000000000000000000010000000000000000000020000000000000000000800000000000100000000000010000000000000000000000000000000000000000000000000000100000000000000000004000000000000000000000000000000000000000000000000000000000000001000000002000000000000000000000000000000000000000001000000000020000000000000000000000000000000000000000000000000000000000000000000",
      "type": "0x2",
      "transactionHash": "0xccc0f2739d51cc2530b837740ed7247534737f9e10f677c5cf477033740d42e3",
      "transactionIndex": "0x38",
      "blockHash": "0x0e5a02b93233b9f6bac684a979b8465a010afa7fbfb69b7e9f9ab325a7975c03",
      "blockNumber": "0xf7c0a9",
      "gasUsed": "0x91b5",
      "effectiveGasPrice": "0xd0d099",
      "from": "0x027a5ce58fc466d0e3a9d1990404354029398541",
      "to": "0x49d2da22aee28f3111a85f4b4b6cb53c5c379669",
      "contractAddress": null,
      "l1Fee": "0x2a254f7f8",
      "l1GasPrice": "0x132d98cd0",
      "l1GasUsed": "0x7cc"
    },
    {
      "status": "0x1",
      "cumulativeGasUsed": "0xaa9280",
      "logs": [
        {
          "address": "0x49d2da22aee28f3111a85f4b4b6cb53c5c379669",
          "topics": [
            "0xddf252ad1be2c89b69c2b068fc378daa952ba7f163c4a11628f55a4df523b3ef",
            "0x000000000000000000000000eb5dfe18c2ef4c6a1c6b5c61f755d6b8ef6f01f0",
            "0x0000000000000000000000000000000000000000000000000000000000000000",
            "0x00000000000000000000000000000000000000000000000000000000000000c0"
          ],
          "data": "0x",
          "blockHash": "0x0e5a02b93233b9f6bac684a979b8465a010afa7fbfb69b7e9f9ab325a7975c03",
          "blockNumber": "0xf7c0a9",
          "transactionHash": "0xd4487d113099ffa128b366504f8986df28b119b9ef9e4043f7f3dacb123438da",
          "transactionIndex": "0x39",
          "logIndex": "0x12e",
          "removed": false
        }
      ],
      "logsBloom": "0x00000000000000000000000040000000000000000000000000000000000000000000000040000000000002000000000000000000000000000000020000000000000000000000000000000008000000000000000000000000000000000000000080000000020000000000020000000800000000000100000000000010000000000000000000000000000000000000000000000000000000000000000000001000000000000000000000000000000000000000000010000000000000000000000000000002000000000000000000000000000000000000000000000000000020000000000000000000000000000000000000000000000000000000000000000000",
      "type": "0x2",
      "transactionHash": "0xd4487d113099ffa128b366504f8986df28b119b9ef9e4043f7f3dacb123438da",
      "transactionIndex": "0x39",
      "blockHash": "0x0e5a02b93233b9f6bac684a979b8465a010afa7fbfb69b7e9f9ab325a7975c03",
      "blockNumber": "0xf7c0a9",
      "gasUsed": "0x91b5",
      "effectiveGasPrice": "0xd0d099",
      "from": "0x027a5ce58fc466d0e3a9d1990404354029398541",
      "to": "0x49d2da22aee28f3111a85f4b4b6cb53c5c379669",
      "contractAddress": null,
      "l1Fee": "0x2a254f7f8",
      "l1GasPrice": "0x132d98cd0",
      "l1GasUsed": "0x7cc"
    },
    {
      "status": "0x1",
      "cumulativeGasUsed": "0xab2435",
      "logs": [
        {
          "address": "0x49d2da22aee28f3111a85f4b4b6cb53c5c379669",
          "topics": [
            "0xddf252ad1be2c89b69c2b068fc378daa952ba7f163c4a11628f55a4df523b3ef",
            "0x000000000000000000000000bb2e4fa8a0d44ff3f05950a8ff271cbfea4ce376",
            "0x0000000000000000000000000000000000000000000000000000000000000000",
            "0x00000000000000000000000000000000000000000000000000000000000000c1"
          ],
          "data": "0x",
          "blockHash": "0x0e5a02b93233b9f6bac684a979b8465a010afa7fbfb69b7e9f9ab325a7975c03",
          "blockNumber": "0xf7c0a9",
          "transactionHash": "0x8d97438de3f58c488dfbaee9b5456cce4cfa6c32ab19267fc19e1077b9370c1f",
          "transactionIndex": "0x3a",
          "logIndex": "0x12f",
          "removed": false
        }
      ],
      "logsBloom": "0x00000000000000000000000040000000000000000000000000000000000000000000000040000000000000000000000010000000000000000000000000000000000000000200000000000008000000000000000000000000000000000000000000000000020002000000000000000800000000000100000002000010000000000000000000000000000000000000000000000000000000000000000000000000000000000000000000000000000000000000000000000000000000000000000004000002000000000000000000000000000000000000000000000000000020000000000000000000000000000000000000000800000000000000000000000000",
      "type": "0x2",
      "transactionHash": "0x8d97438de3f58c488dfbaee9b5456cce4cfa6c32ab19267fc19e1077b9370c1f",
      "transactionIndex": "0x3a",
      "blockHash": "0x0e5a02b93233b9f6bac684a979b8465a010afa7fbfb69b7e9f9ab325a7975c03",
      "blockNumber": "0xf7c0a9",
      "gasUsed": "0x91b5",
      "effectiveGasPrice": "0xd0d099",
      "from": "0x027a5ce58fc466d0e3a9d1990404354029398541",
      "to": "0x49d2da22aee28f3111a85f4b4b6cb53c5c379669",
      "contractAddress": null,
      "l1Fee": "0x2a254f7f8",
      "l1GasPrice": "0x132d98cd0",
      "l1GasUsed": "0x7cc"
    },
    {
      "status": "0x1",
      "cumulativeGasUsed": "0xabb5ea",
      "logs": [
        {
          "address": "0x49d2da22aee28f3111a85f4b4b6cb53c5c379669",
          "topics": [
            "0xddf252ad1be2c89b69c2b068fc378daa952ba7f163c4a11628f55a4df523b3ef",
            "0x0000000000000000000000007f6046b4a9f8d56d99faaa1eaf74d7cc75c13d11",
            "0x0000000000000000000000000000000000000000000000000000000000000000",
            "0x00000000000000000000000000000000000000000000000000000000000000c2"
          ],
          "data": "0x",
          "blockHash": "0x0e5a02b93233b9f6bac684a979b8465a010afa7fbfb69b7e9f9ab325a7975c03",
          "blockNumber": "0xf7c0a9",
          "transactionHash": "0xbbdbee1b1360a4683c8e0bcddfbbf992440078e928ab3a3e12c91b946ce88d51",
          "transactionIndex": "0x3b",
          "logIndex": "0x130",
          "removed": false
        }
      ],
      "logsBloom": "0x0000000000000000000000004000000000000000000000800000000000000000000000004000000000000000000000000000000000000000000000000000000000000000000000000000000c000000000000000000000000000000000000000000000000020200000000000000000800000000000100000000000010000000000000000000000000000000000000200000000000000000000000000000000000000000000000000000040000000000000000000000000000000000000000000000000002000000000000000000000000000000000000000040000000000020000000000000000000000000000000000000000000000000000000000000000000",
      "type": "0x2",
      "transactionHash": "0xbbdbee1b1360a4683c8e0bcddfbbf992440078e928ab3a3e12c91b946ce88d51",
      "transactionIndex": "0x3b",
      "blockHash": "0x0e5a02b93233b9f6bac684a979b8465a010afa7fbfb69b7e9f9ab325a7975c03",
      "blockNumber": "0xf7c0a9",
      "gasUsed": "0x91b5",
      "effectiveGasPrice": "0xd0d099",
      "from": "0x027a5ce58fc466d0e3a9d1990404354029398541",
      "to": "0x49d2da22aee28f3111a85f4b4b6cb53c5c379669",
      "contractAddress": null,
      "l1Fee": "0x2a254f7f8",
      "l1GasPrice": "0x132d98cd0",
      "l1GasUsed": "0x7cc"
    },
    {
      "status": "0x1",
      "cumulativeGasUsed": "0xac479f",
      "logs": [
        {
          "address": "0x49d2da22aee28f3111a85f4b4b6cb53c5c379669",
          "topics": [
            "0xddf252ad1be2c89b69c2b068fc378daa952ba7f163c4a11628f55a4df523b3ef",
            "0x00000000000000000000000089e36d3da8433b0feadfb1c1031d4de633167cea",
            "0x0000000000000000000000000000000000000000000000000000000000000000",
            "0x00000000000000000000000000000000000000000000000000000000000000c3"
          ],
          "data": "0x",
          "blockHash": "0x0e5a02b93233b9f6bac684a979b8465a010afa7fbfb69b7e9f9ab325a7975c03",
          "blockNumber": "0xf7c0a9",
          "transactionHash": "0x0e86b5d6166af34c5f96e2c75a07dc9afab145f6eeda857212b873cc5e4df5b4",
          "transactionIndex": "0x3c",
          "logIndex": "0x131",
          "removed": false
        }
      ],
      "logsBloom": "0x00000000000000000000000040000000000000200000000000000000000000080000000040000000000000000000000000000000000000000000080000000000000000000000000000000008000200000000000000004000000000000000000000000000020000000000200000000800000000000100000000000010000000000000000000000000000000000000000000000000000000000000000000000000000000000000000000000000000000000000000000000000000000000000000000000002000000000000000000000000000000000000000000000000000020000000000000000000000000000000000000000000000000000000000000000000",
      "type": "0x2",
      "transactionHash": "0x0e86b5d6166af34c5f96e2c75a07dc9afab145f6eeda857212b873cc5e4df5b4",
      "transactionIndex": "0x3c",
      "blockHash": "0x0e5a02b93233b9f6bac684a979b8465a010afa7fbfb69b7e9f9ab325a7975c03",
      "blockNumber": "0xf7c0a9",
      "gasUsed": "0x91b5",
      "effectiveGasPrice": "0xd0d099",
      "from": "0x027a5ce58fc466d0e3a9d1990404354029398541",
      "to": "0x49d2da22aee28f3111a85f4b4b6cb53c5c379669",
      "contractAddress": null,
      "l1Fee": "0x2a254f7f8",
      "l1GasPrice": "0x132d98cd0",
      "l1GasUsed": "0x7cc"
    },
    {
      "status": "0x1",
      "cumulativeGasUsed": "0xacd954",
      "logs": [
        {
          "address": "0x49d2da22aee28f3111a85f4b4b6cb53c5c379669",
          "topics": [
            "0xddf252ad1be2c89b69c2b068fc378daa952ba7f163c4a11628f55a4df523b3ef",
            "0x00000000000000000000000092724ad2d153cb5002d35dd43ee2c7d4a98ab68c",
            "0x0000000000000000000000000000000000000000000000000000000000000000",
            "0x00000000000000000000000000000000000000000000000000000000000000c4"
          ],
          "data": "0x",
          "blockHash": "0x0e5a02b93233b9f6bac684a979b8465a010afa7fbfb69b7e9f9ab325a7975c03",
          "blockNumber": "0xf7c0a9",
          "transactionHash": "0xb9759dff04b958222a4b7b706ae71c3b4f1d8df326c0f1f9358552a85426ae76",
          "transactionIndex": "0x3d",
          "logIndex": "0x132",
          "removed": false
        }
      ],
      "logsBloom": "0x00000000000000000000000040000000000000100000000000000000000000000000000040000000000000000000000000000000000000000000000000000000000000000000000000000008000000004000000000000000000000000000000000000000020000000000000000000800000000000100000000000010000000000000000040000000000000000000000000000000000000000000000000001000000000000000000000000000000000000000000000000000000000000000000000000002000000000000000000000000000000000000000000000000000020000000000000000000000000000000000000000000008000000000000000000000",
      "type": "0x2",
      "transactionHash": "0xb9759dff04b958222a4b7b706ae71c3b4f1d8df326c0f1f9358552a85426ae76",
      "transactionIndex": "0x3d",
      "blockHash": "0x0e5a02b93233b9f6bac684a979b8465a010afa7fbfb69b7e9f9ab325a7975c03",
      "blockNumber": "0xf7c0a9",
      "gasUsed": "0x91b5",
      "effectiveGasPrice": "0xd0d099",
      "from": "0x027a5ce58fc466d0e3a9d1990404354029398541",
      "to": "0x49d2da22aee28f3111a85f4b4b6cb53c5c379669",
      "contractAddress": null,
      "l1Fee": "0x2a254f7f8",
      "l1GasPrice": "0x132d98cd0",
      "l1GasUsed": "0x7cc"
    },
    {
      "status": "0x1",
      "cumulativeGasUsed": "0xad6b09",
      "logs": [
        {
          "address": "0x49d2da22aee28f3111a85f4b4b6cb53c5c379669",
          "topics": [
            "0xddf252ad1be2c89b69c2b068fc378daa952ba7f163c4a11628f55a4df523b3ef",
            "0x000000000000000000000000601b26ec9ba74e58c235c01c18c66e3c799e4faf",
            "0x0000000000000000000000000000000000000000000000000000000000000000",
            "0x00000000000000000000000000000000000000000000000000000000000000c5"
          ],
          "data": "0x",
          "blockHash": "0x0e5a02b93233b9f6bac684a979b8465a010afa7fbfb69b7e9f9ab325a7975c03",
          "blockNumber": "0xf7c0a9",
          "transactionHash": "0x0eb3201b999d5b7d472d172687c49145d95fbfdf9e25dbb54daee2e2eb35acb3",
          "transactionIndex": "0x3e",
          "logIndex": "0x133",
          "removed": false
        }
      ],
      "logsBloom": "0x00000000000000000000000040000000000000000000000000000000000000000000000040000000000000000000000000000000000000000000000000000000000000000000000000000008010000000000000000000000000000000000000000000000020000000000000000000800000000000100008000000010000000000000000000000000000000000080000000000000000000000000000000000000000000000000200000000000000000000000000000000000000000000080000000000002000000000000000000000000000000000000000000000000000020000000000000000000000000000000000000000000000400000000000000000000",
      "type": "0x2",
      "transactionHash": "0x0eb3201b999d5b7d472d172687c49145d95fbfdf9e25dbb54daee2e2eb35acb3",
      "transactionIndex": "0x3e",
      "blockHash": "0x0e5a02b93233b9f6bac684a979b8465a010afa7fbfb69b7e9f9ab325a7975c03",
      "blockNumber": "0xf7c0a9",
      "gasUsed": "0x91b5",
      "effectiveGasPrice": "0xd0d099",
      "from": "0x027a5ce58fc466d0e3a9d1990404354029398541",
      "to": "0x49d2da22aee28f3111a85f4b4b6cb53c5c379669",
      "contractAddress": null,
      "l1Fee": "0x2a254f7f8",
      "l1GasPrice": "0x132d98cd0",
      "l1GasUsed": "0x7cc"
    },
    {
      "status": "0x1",
      "cumulativeGasUsed": "0xadfcbe",
      "logs": [
        {
          "address": "0x49d2da22aee28f3111a85f4b4b6cb53c5c379669",
          "topics": [
            "0xddf252ad1be2c89b69c2b068fc378daa952ba7f163c4a11628f55a4df523b3ef",
            "0x0000000000000000000000008d97e3396b4c6dcd9d9f2c002cd8eb43fd32a58f",
            "0x0000000000000000000000000000000000000000000000000000000000000000",
            "0x00000000000000000000000000000000000000000000000000000000000000c6"
          ],
          "data": "0x",
          "blockHash": "0x0e5a02b93233b9f6bac684a979b8465a010afa7fbfb69b7e9f9ab325a7975c03",
          "blockNumber": "0xf7c0a9",
          "transactionHash": "0x320ee594381bd4a433a7bfb4c19f23134bba24a32f33714f7228e3ad44f99cbd",
          "transactionIndex": "0x3f",
          "logIndex": "0x134",
          "removed": false
        }
      ],
      "logsBloom": "0x00000000000000100000000040000000000000000000000000000000000000000000000040000000000000000000020000000000000000000000000000000000000000000000000000000008000000020000000000000000000000020000000000000000020000000000000000000800000000000100000000000010000000000000000000000000000000000000000000000000000000000000000000000000000000000000000000000000000000000000000000000000000000000000000000000002000000000000000000000004000000000000000000000000000020000000000000000000000000000000040000000000000000000000000000000000",
      "type": "0x2",
      "transactionHash": "0x320ee594381bd4a433a7bfb4c19f23134bba24a32f33714f7228e3ad44f99cbd",
      "transactionIndex": "0x3f",
      "blockHash": "0x0e5a02b93233b9f6bac684a979b8465a010afa7fbfb69b7e9f9ab325a7975c03",
      "blockNumber": "0xf7c0a9",
      "gasUsed": "0x91b5",
      "effectiveGasPrice": "0xd0d099",
      "from": "0x027a5ce58fc466d0e3a9d1990404354029398541",
      "to": "0x49d2da22aee28f3111a85f4b4b6cb53c5c379669",
      "contractAddress": null,
      "l1Fee": "0x2a254f7f8",
      "l1GasPrice": "0x132d98cd0",
      "l1GasUsed": "0x7cc"
    },
    {
      "status": "0x1",
      "cumulativeGasUsed": "0xae8e73",
      "logs": [
        {
          "address": "0x49d2da22aee28f3111a85f4b4b6cb53c5c379669",
          "topics": [
            "0xddf252ad1be2c89b69c2b068fc378daa952ba7f163c4a11628f55a4df523b3ef",
            "0x00000000000000000000000066dadacf19da7eb6b80b9e6d10cc890539a1fa36",
            "0x0000000000000000000000000000000000000000000000000000000000000000",
            "0x00000000000000000000000000000000000000000000000000000000000000c7"
          ],
          "data": "0x",
          "blockHash": "0x0e5a02b93233b9f6bac684a979b8465a010afa7fbfb69b7e9f9ab325a7975c03",
          "blockNumber": "0xf7c0a9",
          "transactionHash": "0x273d3b71460baf82f5850304bf64ae47933ab62820c7727e4100e1432d437edb",
          "transactionIndex": "0x40",
          "logIndex": "0x135",
          "removed": false
        }
      ],
      "logsBloom": "0x00000000000000000000000440000000000000000000000000000000000000000000000040000000000000000000000000000000000000000000000000000000000000000000000000000008000000400000000000000000000000000000000000000000020000000000000000000800000000200100000000000010000001000000000000000000000000000000000000000000000000000000000000000000000000000000000000000000000000000000000000000000000000000000000000000002000100000000000000000000000000000000000000000000000020000000000000000000000000000000000000000000020000000000000000000000",
      "type": "0x2",
      "transactionHash": "0x273d3b71460baf82f5850304bf64ae47933ab62820c7727e4100e1432d437edb",
      "transactionIndex": "0x40",
      "blockHash": "0x0e5a02b93233b9f6bac684a979b8465a010afa7fbfb69b7e9f9ab325a7975c03",
      "blockNumber": "0xf7c0a9",
      "gasUsed": "0x91b5",
      "effectiveGasPrice": "0xd0d099",
      "from": "0x027a5ce58fc466d0e3a9d1990404354029398541",
      "to": "0x49d2da22aee28f3111a85f4b4b6cb53c5c379669",
      "contractAddress": null,
      "l1Fee": "0x29e471e7e",
      "l1GasPrice": "0x132d98cd0",
      "l1GasUsed": "0x7c0"
    },
    {
      "status": "0x1",
      "cumulativeGasUsed": "0xd4674b",
      "logs": [
        {
          "address": "0x49d2da22aee28f3111a85f4b4b6cb53c5c379669",
          "topics": [
            "0xddf252ad1be2c89b69c2b068fc378daa952ba7f163c4a11628f55a4df523b3ef",
            "0x000000000000000000000000b4de0b141df776d22f1ef0d8b53d98cc010f8a6f",
            "0x0000000000000000000000000000000000000000000000000000000000000000",
            "0x00000000000000000000000000000000000000000000000000000000000000c8"
          ],
          "data": "0x",
          "blockHash": "0x51f4db3b85ccd71466e0e93a1e727c3fe5e8b360c0f5f1bb6ec1a435af363cdc",
          "blockNumber": "0xf7c0aa",
          "transactionHash": "0x7db040f99088e5e3547618365385535c88901379c2212fc9c13130dd70f34846",
          "transactionIndex": "0x43",
          "logIndex": "0x137",
          "removed": false
        }
      ],
      "logsBloom": "0x00000000000000000000000040000020000000000000000000000000800000000000000040000000000000000000000000000000000000000000000000000000000000000000000000000008000000000000000000000000000000000000000000000000020020000000000000000800000080000100000000000010000000000000000000000000000000000000000000000000000000000000000000000000000000000000000000000000000000000000000000000000000000000000000000000002000000004000000000000000000000000000000000000000000020000000000000000000000000000000000000000000000080000000000000000000",
      "type": "0x2",
      "transactionHash": "0x7db040f99088e5e3547618365385535c88901379c2212fc9c13130dd70f34846",
      "transactionIndex": "0x43",
      "blockHash": "0x51f4db3b85ccd71466e0e93a1e727c3fe5e8b360c0f5f1bb6ec1a435af363cdc",
      "blockNumber": "0xf7c0aa",
      "gasUsed": "0x91b5",
      "effectiveGasPrice": "0xd0a524",
      "from": "0x027a5ce58fc466d0e3a9d1990404354029398541",
      "to": "0x49d2da22aee28f3111a85f4b4b6cb53c5c379669",
      "contractAddress": null,
      "l1Fee": "0x2730a677a",
      "l1GasPrice": "0x11d548be0",
      "l1GasUsed": "0x7cc"
    },
    {
      "status": "0x1",
      "cumulativeGasUsed": "0xd4f900",
      "logs": [
        {
          "address": "0x49d2da22aee28f3111a85f4b4b6cb53c5c379669",
          "topics": [
            "0xddf252ad1be2c89b69c2b068fc378daa952ba7f163c4a11628f55a4df523b3ef",
            "0x0000000000000000000000007d9acd0801ebbed267540e6b23fcd684f232e890",
            "0x0000000000000000000000000000000000000000000000000000000000000000",
            "0x00000000000000000000000000000000000000000000000000000000000000c9"
          ],
          "data": "0x",
          "blockHash": "0x51f4db3b85ccd71466e0e93a1e727c3fe5e8b360c0f5f1bb6ec1a435af363cdc",
          "blockNumber": "0xf7c0aa",
          "transactionHash": "0x506e8c357b384fe5bf0a19da3a3b5543e5a6565803111f77e72a87850857d6a5",
          "transactionIndex": "0x44",
          "logIndex": "0x138",
          "removed": false
        }
      ],
      "logsBloom": "0x00000000000000000000000040000000000000000000000000000000002000000000000041000000400000000000000000000000000000000000000000000000000000000000000004000008000000000000000000000000000000000000000000000000020000000000000000000800000000004100000000000010000000000000000000000000000000000000000000000000000000000000000000000000000000000000000000000000000000000000000000000000000000000000000000000002000000000000000000000000000000000000000000000000000020000000000080000000000000000000000000000000000000000000000000000000",
      "type": "0x2",
      "transactionHash": "0x506e8c357b384fe5bf0a19da3a3b5543e5a6565803111f77e72a87850857d6a5",
      "transactionIndex": "0x44",
      "blockHash": "0x51f4db3b85ccd71466e0e93a1e727c3fe5e8b360c0f5f1bb6ec1a435af363cdc",
      "blockNumber": "0xf7c0aa",
      "gasUsed": "0x91b5",
      "effectiveGasPrice": "0xd0a524",
      "from": "0x027a5ce58fc466d0e3a9d1990404354029398541",
      "to": "0x49d2da22aee28f3111a85f4b4b6cb53c5c379669",
      "contractAddress": null,
      "l1Fee": "0x2730a677a",
      "l1GasPrice": "0x11d548be0",
      "l1GasUsed": "0x7cc"
    },
    {
      "status": "0x1",
      "cumulativeGasUsed": "0xd58ab5",
      "logs": [
        {
          "address": "0x49d2da22aee28f3111a85f4b4b6cb53c5c379669",
          "topics": [
            "0xddf252ad1be2c89b69c2b068fc378daa952ba7f163c4a11628f55a4df523b3ef",
            "0x000000000000000000000000f0dbef06742f9da6c3a25d35e0e6d6ff04bc808d",
            "0x0000000000000000000000000000000000000000000000000000000000000000",
            "0x00000000000000000000000000000000000000000000000000000000000000ca"
          ],
          "data": "0x",
          "blockHash": "0x51f4db3b85ccd71466e0e93a1e727c3fe5e8b360c0f5f1bb6ec1a435af363cdc",
          "blockNumber": "0xf7c0aa",
          "transactionHash": "0x552f2eceadae81edb90efadb611aa5e5364036e90e838ab5a9af2f3dbc755d58",
          "transactionIndex": "0x45",
          "logIndex": "0x139",
          "removed": false
        }
      ],
      "logsBloom": "0x00000000000000000000000040000000000000000000800000000000000000000000000040000000000000000000000000100000000020000000000000000000000000000000000000000008000000000000000000000000000000000000000000000000020000000000000000000800400000000100000000000010000000000000000000000000000000000000000000000000000000000000000000000000000000000080000800000000000000000000000000000000000000000000000000000002000000000000000000000000000000000000000000000000000020000000000000000000000000000000000000000000000000000000000000000000",
      "type": "0x2",
      "transactionHash": "0x552f2eceadae81edb90efadb611aa5e5364036e90e838ab5a9af2f3dbc755d58",
      "transactionIndex": "0x45",
      "blockHash": "0x51f4db3b85ccd71466e0e93a1e727c3fe5e8b360c0f5f1bb6ec1a435af363cdc",
      "blockNumber": "0xf7c0aa",
      "gasUsed": "0x91b5",
      "effectiveGasPrice": "0xd0a524",
      "from": "0x027a5ce58fc466d0e3a9d1990404354029398541",
      "to": "0x49d2da22aee28f3111a85f4b4b6cb53c5c379669",
      "contractAddress": null,
      "l1Fee": "0x26f4556f4",
      "l1GasPrice": "0x11d548be0",
      "l1GasUsed": "0x7c0"
    },
    {
      "status": "0x1",
      "cumulativeGasUsed": "0xd61c6a",
      "logs": [
        {
          "address": "0x49d2da22aee28f3111a85f4b4b6cb53c5c379669",
          "topics": [
            "0xddf252ad1be2c89b69c2b068fc378daa952ba7f163c4a11628f55a4df523b3ef",
            "0x000000000000000000000000a76b3bb29a25b4a3b1e6351ba2d35a99e9d1fc62",
            "0x0000000000000000000000000000000000000000000000000000000000000000",
            "0x00000000000000000000000000000000000000000000000000000000000000cb"
          ],
          "data": "0x",
          "blockHash": "0x51f4db3b85ccd71466e0e93a1e727c3fe5e8b360c0f5f1bb6ec1a435af363cdc",
          "blockNumber": "0xf7c0aa",
          "transactionHash": "0x2283e05080e421e397b952a8af278c838064c93d6a323ca67178357fad1abb3a",
          "transactionIndex": "0x46",
          "logIndex": "0x13a",
          "removed": false
        }
      ],
      "logsBloom": "0x00000000000040000000000040000000000000000000000000000000000000000000000040000000000000000000000000000000000000000000000000000000000000000000000000000008000000080000000000010000000000000000000000000000020000000000020000000800000000000100000000000010000000000000000000000000000000000000000000002000000000000000080000000000000000000000000000000000000000000000000000000000000000000000000000000002000000000000000000000000000000000000000000000000000020000000000000000000000000000000000000000000000000000000000000000000",
      "type": "0x2",
      "transactionHash": "0x2283e05080e421e397b952a8af278c838064c93d6a323ca67178357fad1abb3a",
      "transactionIndex": "0x46",
      "blockHash": "0x51f4db3b85ccd71466e0e93a1e727c3fe5e8b360c0f5f1bb6ec1a435af363cdc",
      "blockNumber": "0xf7c0aa",
      "gasUsed": "0x91b5",
      "effectiveGasPrice": "0xd0a524",
      "from": "0x027a5ce58fc466d0e3a9d1990404354029398541",
      "to": "0x49d2da22aee28f3111a85f4b4b6cb53c5c379669",
      "contractAddress": null,
      "l1Fee": "0x2730a677a",
      "l1GasPrice": "0x11d548be0",
      "l1GasUsed": "0x7cc"
    },
    {
      "status": "0x1",
      "cumulativeGasUsed": "0xd6ae1f",
      "logs": [
        {
          "address": "0x49d2da22aee28f3111a85f4b4b6cb53c5c379669",
          "topics": [
            "0xddf252ad1be2c89b69c2b068fc378daa952ba7f163c4a11628f55a4df523b3ef",
            "0x0000000000000000000000007399c1d1eac78b0809e7d383aa7a92b8b2cb1c95",
            "0x0000000000000000000000000000000000000000000000000000000000000000",
            "0x00000000000000000000000000000000000000000000000000000000000000cc"
          ],
          "data": "0x",
          "blockHash": "0x51f4db3b85ccd71466e0e93a1e727c3fe5e8b360c0f5f1bb6ec1a435af363cdc",
          "blockNumber": "0xf7c0aa",
          "transactionHash": "0x49d92891bac7d469071bde6692df406b05ccefafec8c39f2efa02338909ce75f",
          "transactionIndex": "0x47",
          "logIndex": "0x13b",
          "removed": false
        }
      ],
      "logsBloom": "0x00000000000000000000000040000000000000000000000000000000020000000000000040000000000000000000000000000000000000000000000000000000000000000000000000000008000000000000000000000000000000000000000000000000020000000000000000000800000000000100000000000010000000000000000000000000000000000000000000000000000000000000000000000000000000000000000000000000000000200000000000000000000100000000000000000012000000000000000000000000000000000000000000000000000022000000000000000000004000000000000000000000000000000000000000000000",
      "type": "0x2",
      "transactionHash": "0x49d92891bac7d469071bde6692df406b05ccefafec8c39f2efa02338909ce75f",
      "transactionIndex": "0x47",
      "blockHash": "0x51f4db3b85ccd71466e0e93a1e727c3fe5e8b360c0f5f1bb6ec1a435af363cdc",
      "blockNumber": "0xf7c0aa",
      "gasUsed": "0x91b5",
      "effectiveGasPrice": "0xd0a524",
      "from": "0x027a5ce58fc466d0e3a9d1990404354029398541",
      "to": "0x49d2da22aee28f3111a85f4b4b6cb53c5c379669",
      "contractAddress": null,
      "l1Fee": "0x26f4556f4",
      "l1GasPrice": "0x11d548be0",
      "l1GasUsed": "0x7c0"
    },
    {
      "status": "0x1",
      "cumulativeGasUsed": "0x9a9b19",
      "logs": [
        {
          "address": "0x49d2da22aee28f3111a85f4b4b6cb53c5c379669",
          "topics": [
            "0xddf252ad1be2c89b69c2b068fc378daa952ba7f163c4a11628f55a4df523b3ef",
            "0x000000000000000000000000daeca4a9633bbea4c5e93c11d6803bbed2b6654d",
            "0x0000000000000000000000000000000000000000000000000000000000000000",
            "0x00000000000000000000000000000000000000000000000000000000000000cd"
          ],
          "data": "0x",
          "blockHash": "0x2418f675d5aeafa420ea8a752c29131e92170886080b6a1e8929907a792063b0",
          "blockNumber": "0xf7c0ab",
          "transactionHash": "0x8351a43ee3e51c908220b9c67bceaaefee3feeff57d8b46cafa1f07f94ecb9a9",
          "transactionIndex": "0x2b",
          "logIndex": "0xc2",
          "removed": false
        }
      ],
      "logsBloom": "0x00000000000000000000000040000000000000000000000000000000000000000000000040000000000000000000000000000000000000000000000000000000000000000000000000000008000000000000020000000000000000000000000000000000020000000000000000000800000000002100000000000010000000000000000000000000000000000080000000000000000010000000000000000000000000000000000000000000000000000000000020000000000000000000000000000002000000100000000000000000000000000000000000000000000020000000000000000000000000000000000000000000000000000000000000000000",
      "type": "0x2",
      "transactionHash": "0x8351a43ee3e51c908220b9c67bceaaefee3feeff57d8b46cafa1f07f94ecb9a9",
      "transactionIndex": "0x2b",
      "blockHash": "0x2418f675d5aeafa420ea8a752c29131e92170886080b6a1e8929907a792063b0",
      "blockNumber": "0xf7c0ab",
      "gasUsed": "0x91b5",
      "effectiveGasPrice": "0xd0af33",
      "from": "0x027a5ce58fc466d0e3a9d1990404354029398541",
      "to": "0x49d2da22aee28f3111a85f4b4b6cb53c5c379669",
      "contractAddress": null,
      "l1Fee": "0x26f4556f4",
      "l1GasPrice": "0x11d548be0",
      "l1GasUsed": "0x7c0"
    },
    {
      "status": "0x1",
      "cumulativeGasUsed": "0x9b2cce",
      "logs": [
        {
          "address": "0x49d2da22aee28f3111a85f4b4b6cb53c5c379669",
          "topics": [
            "0xddf252ad1be2c89b69c2b068fc378daa952ba7f163c4a11628f55a4df523b3ef",
            "0x000000000000000000000000aeb3f3f6d15f948b6d69794ab5ad3fdc9c68719d",
            "0x0000000000000000000000000000000000000000000000000000000000000000",
            "0x00000000000000000000000000000000000000000000000000000000000000ce"
          ],
          "data": "0x",
          "blockHash": "0x2418f675d5aeafa420ea8a752c29131e92170886080b6a1e8929907a792063b0",
          "blockNumber": "0xf7c0ab",
          "transactionHash": "0x0c3acc66276f12b713f43e4520c465ee05e187fd5df632867098ef5c5dfdcf35",
          "transactionIndex": "0x2c",
          "logIndex": "0xc3",
          "removed": false
        }
      ],
      "logsBloom": "0x00000000000000000000000044000000000000000000000000000000000000000100000040000000000000000000000000000000000000000000000000000000000000000000000000000008000000000000000000000000000000000000000000000000020000000000000000000800000000000100000000000010000000000000000000000000000000008000000000001000000000000000000000000000000000000000000000000000000000000000000000000000000000000000000000000002000000800000000400000000000000000000000000000000000020000000000000000000000000000000000000000000000000000000000000000000",
      "type": "0x2",
      "transactionHash": "0x0c3acc66276f12b713f43e4520c465ee05e187fd5df632867098ef5c5dfdcf35",
      "transactionIndex": "0x2c",
      "blockHash": "0x2418f675d5aeafa420ea8a752c29131e92170886080b6a1e8929907a792063b0",
      "blockNumber": "0xf7c0ab",
      "gasUsed": "0x91b5",
      "effectiveGasPrice": "0xd0af33",
      "from": "0x027a5ce58fc466d0e3a9d1990404354029398541",
      "to": "0x49d2da22aee28f3111a85f4b4b6cb53c5c379669",
      "contractAddress": null,
      "l1Fee": "0x2730a677a",
      "l1GasPrice": "0x11d548be0",
      "l1GasUsed": "0x7cc"
    },
    {
      "status": "0x1",
      "cumulativeGasUsed": "0x9bbe83",
      "logs": [
        {
          "address": "0x49d2da22aee28f3111a85f4b4b6cb53c5c379669",
          "topics": [
            "0xddf252ad1be2c89b69c2b068fc378daa952ba7f163c4a11628f55a4df523b3ef",
            "0x000000000000000000000000d32988848e730f3dde404c15cb24dbe78d83012a",
            "0x0000000000000000000000000000000000000000000000000000000000000000",
            "0x00000000000000000000000000000000000000000000000000000000000000cf"
          ],
          "data": "0x",
          "blockHash": "0x2418f675d5aeafa420ea8a752c29131e92170886080b6a1e8929907a792063b0",
          "blockNumber": "0xf7c0ab",
          "transactionHash": "0xaf4e409475fbbbb0b73f03c8f7f3b25e70cf6adada69a34e1612d82ee2daf6b2",
          "transactionIndex": "0x2d",
          "logIndex": "0xc4",
          "removed": false
        }
      ],
      "logsBloom": "0x00000000000000000000000040000000000000000000000000000000000000000000000040000000000000000000000000000000000000000000000000000000000000200000000000000008000000000040000000000000000000000000000000000000020000000100000000000800000000000100000000000010000000000000000000000000000000000000000000000000000000008000000000000000000000000000800000000000000000000000000000000000000000000000000000000002000000000000000000000000000000000010000000000000000020000000000000000000000000000000000000000000000000000000000000000000",
      "type": "0x2",
      "transactionHash": "0xaf4e409475fbbbb0b73f03c8f7f3b25e70cf6adada69a34e1612d82ee2daf6b2",
      "transactionIndex": "0x2d",
      "blockHash": "0x2418f675d5aeafa420ea8a752c29131e92170886080b6a1e8929907a792063b0",
      "blockNumber": "0xf7c0ab",
      "gasUsed": "0x91b5",
      "effectiveGasPrice": "0xd0af33",
      "from": "0x027a5ce58fc466d0e3a9d1990404354029398541",
      "to": "0x49d2da22aee28f3111a85f4b4b6cb53c5c379669",
      "contractAddress": null,
      "l1Fee": "0x2730a677a",
      "l1GasPrice": "0x11d548be0",
      "l1GasUsed": "0x7cc"
    },
    {
      "status": "0x1",
      "cumulativeGasUsed": "0x9c5038",
      "logs": [
        {
          "address": "0x49d2da22aee28f3111a85f4b4b6cb53c5c379669",
          "topics": [
            "0xddf252ad1be2c89b69c2b068fc378daa952ba7f163c4a11628f55a4df523b3ef",
            "0x000000000000000000000000f67ba74c3f6e4d4184d8362c558e12fbe2ee7a88",
            "0x0000000000000000000000000000000000000000000000000000000000000000",
            "0x00000000000000000000000000000000000000000000000000000000000000d0"
          ],
          "data": "0x",
          "blockHash": "0x2418f675d5aeafa420ea8a752c29131e92170886080b6a1e8929907a792063b0",
          "blockNumber": "0xf7c0ab",
          "transactionHash": "0xb77541bae0ab8c914dcd28a3d74a3c745a3944df39c0340fff47390fa8f9a31c",
          "transactionIndex": "0x2e",
          "logIndex": "0xc5",
          "removed": false
        }
      ],
      "logsBloom": "0x00000000000000000000000040000000000000000000000000000000000000000000000040000000000000000000000000000000000000000000000000000000000000000000000000000008000000000000040000000000000000000000000000000000020001000000000000000800000000000100000000000010000000000000000000000000000008000000000000000000000000000000000000000000000000000000000000000000000000000000000000000000000000000000000000000002000000000000000000000000000000000000000040000000000020000000000000000000000000002000000000000000000000000000000000000200",
      "type": "0x2",
      "transactionHash": "0xb77541bae0ab8c914dcd28a3d74a3c745a3944df39c0340fff47390fa8f9a31c",
      "transactionIndex": "0x2e",
      "blockHash": "0x2418f675d5aeafa420ea8a752c29131e92170886080b6a1e8929907a792063b0",
      "blockNumber": "0xf7c0ab",
      "gasUsed": "0x91b5",
      "effectiveGasPrice": "0xd0af33",
      "from": "0x027a5ce58fc466d0e3a9d1990404354029398541",
      "to": "0x49d2da22aee28f3111a85f4b4b6cb53c5c379669",
      "contractAddress": null,
      "l1Fee": "0x2730a677a",
      "l1GasPrice": "0x11d548be0",
      "l1GasUsed": "0x7cc"
    },
    {
      "status": "0x1",
      "cumulativeGasUsed": "0x9ce1ed",
      "logs": [
        {
          "address": "0x49d2da22aee28f3111a85f4b4b6cb53c5c379669",
          "topics": [
            "0xddf252ad1be2c89b69c2b068fc378daa952ba7f163c4a11628f55a4df523b3ef",
            "0x000000000000000000000000a573fd70b1a12db90d8b8f07f44d1f56c11f460c",
            "0x0000000000000000000000000000000000000000000000000000000000000000",
            "0x00000000000000000000000000000000000000000000000000000000000000d1"
          ],
          "data": "0x",
          "blockHash": "0x2418f675d5aeafa420ea8a752c29131e92170886080b6a1e8929907a792063b0",
          "blockNumber": "0xf7c0ab",
          "transactionHash": "0xaaef111adf5702b8ecc36f15e2843e56d39f9f9a7a2c002edb473df277aed4ad",
          "transactionIndex": "0x2f",
          "logIndex": "0xc6",
          "removed": false
        }
      ],
      "logsBloom": "0x00000000000000000000000040800000040000000000000000000000000000000000000040000000000000000000000000000000000000000000000000000000000000000000000000000008000000000000000000000000000000000000000000000000020000000000000000000800000000000100000000000010000000000000000000000000000000000000000000000000000000000000000000080000000000000100000000000000000000000000000000000000000000000000000000000002000000000000000000000000000000008000010000000000000020000000000000000000000000000000000000000000000000000000000000000000",
      "type": "0x2",
      "transactionHash": "0xaaef111adf5702b8ecc36f15e2843e56d39f9f9a7a2c002edb473df277aed4ad",
      "transactionIndex": "0x2f",
      "blockHash": "0x2418f675d5aeafa420ea8a752c29131e92170886080b6a1e8929907a792063b0",
      "blockNumber": "0xf7c0ab",
      "gasUsed": "0x91b5",
      "effectiveGasPrice": "0xd0af33",
      "from": "0x027a5ce58fc466d0e3a9d1990404354029398541",
      "to": "0x49d2da22aee28f3111a85f4b4b6cb53c5c379669",
      "contractAddress": null,
      "l1Fee": "0x2730a677a",
      "l1GasPrice": "0x11d548be0",
      "l1GasUsed": "0x7cc"
    },
    {
      "status": "0x1",
      "cumulativeGasUsed": "0x9d73a2",
      "logs": [
        {
          "address": "0x49d2da22aee28f3111a85f4b4b6cb53c5c379669",
          "topics": [
            "0xddf252ad1be2c89b69c2b068fc378daa952ba7f163c4a11628f55a4df523b3ef",
            "0x000000000000000000000000e9fc1d1bc9df1d3436bcb51c32fedddeaf288ad3",
            "0x0000000000000000000000000000000000000000000000000000000000000000",
            "0x00000000000000000000000000000000000000000000000000000000000000d2"
          ],
          "data": "0x",
          "blockHash": "0x2418f675d5aeafa420ea8a752c29131e92170886080b6a1e8929907a792063b0",
          "blockNumber": "0xf7c0ab",
          "transactionHash": "0x144ef8262c97b04a071ea460a26b5f263f08f8ea69d437af502f5b65e9e8e21c",
          "transactionIndex": "0x30",
          "logIndex": "0xc7",
          "removed": false
        }
      ],
      "logsBloom": "0x20000000000000000400000040000000000000000000000000000000000000000000000040000000000000000000000000000000000000000000000000010000000000000000000000000008000000000000000000000000000400000000000000000000020000000000000000000800000000000100000000000010000000000000000000000000000000000000000000000000000000000000000000000000000000000000000000000000000000000000000000000000000000000200000000000002000000000000000000000000000000000000000000000000000020000000000000000000000000000000000000000000000000000040000000000000",
      "type": "0x2",
      "transactionHash": "0x144ef8262c97b04a071ea460a26b5f263f08f8ea69d437af502f5b65e9e8e21c",
      "transactionIndex": "0x30",
      "blockHash": "0x2418f675d5aeafa420ea8a752c29131e92170886080b6a1e8929907a792063b0",
      "blockNumber": "0xf7c0ab",
      "gasUsed": "0x91b5",
      "effectiveGasPrice": "0xd0af33",
      "from": "0x027a5ce58fc466d0e3a9d1990404354029398541",
      "to": "0x49d2da22aee28f3111a85f4b4b6cb53c5c379669",
      "contractAddress": null,
      "l1Fee": "0x2730a677a",
      "l1GasPrice": "0x11d548be0",
      "l1GasUsed": "0x7cc"
    },
    {
      "status": "0x1",
      "cumulativeGasUsed": "0x9e0557",
      "logs": [
        {
          "address": "0x49d2da22aee28f3111a85f4b4b6cb53c5c379669",
          "topics": [
            "0xddf252ad1be2c89b69c2b068fc378daa952ba7f163c4a11628f55a4df523b3ef",
            "0x000000000000000000000000f94a8c6eb89d83d90a0d9e9ceacf7bde3936e88e",
            "0x0000000000000000000000000000000000000000000000000000000000000000",
            "0x00000000000000000000000000000000000000000000000000000000000000d3"
          ],
          "data": "0x",
          "blockHash": "0x2418f675d5aeafa420ea8a752c29131e92170886080b6a1e8929907a792063b0",
          "blockNumber": "0xf7c0ab",
          "transactionHash": "0x558967a24972b5a9e0f09beebac6d947109ee771c5daa8acc59f111b5727a021",
          "transactionIndex": "0x31",
          "logIndex": "0xc8",
          "removed": false
        }
      ],
      "logsBloom": "0x00000000000000000004000040000000000000000000000000000000000000000000000040000000020000000000000000000000000000000000000000000000000000000000000000000008000000000000000000000000000000000000000000000400020000000000000000000800000000000100000000000010000000000000000000000000000000000000000000000000000000000000000000000000000000000000000000000000000000000000000000000000000000000000000000000002000000000000000000000000000000001008000000000000000020000000000000000000000000000000000000008000000000000000000000000000",
      "type": "0x2",
      "transactionHash": "0x558967a24972b5a9e0f09beebac6d947109ee771c5daa8acc59f111b5727a021",
      "transactionIndex": "0x31",
      "blockHash": "0x2418f675d5aeafa420ea8a752c29131e92170886080b6a1e8929907a792063b0",
      "blockNumber": "0xf7c0ab",
      "gasUsed": "0x91b5",
      "effectiveGasPrice": "0xd0af33",
      "from": "0x027a5ce58fc466d0e3a9d1990404354029398541",
      "to": "0x49d2da22aee28f3111a85f4b4b6cb53c5c379669",
      "contractAddress": null,
      "l1Fee": "0x26f4556f4",
      "l1GasPrice": "0x11d548be0",
      "l1GasUsed": "0x7c0"
    },
    {
      "status": "0x1",
      "cumulativeGasUsed": "0x9e970c",
      "logs": [
        {
          "address": "0x49d2da22aee28f3111a85f4b4b6cb53c5c379669",
          "topics": [
            "0xddf252ad1be2c89b69c2b068fc378daa952ba7f163c4a11628f55a4df523b3ef",
            "0x0000000000000000000000008b8c60ddb7c050eb1e4e7159dfea9261a1e23556",
            "0x0000000000000000000000000000000000000000000000000000000000000000",
            "0x00000000000000000000000000000000000000000000000000000000000000d4"
          ],
          "data": "0x",
          "blockHash": "0x2418f675d5aeafa420ea8a752c29131e92170886080b6a1e8929907a792063b0",
          "blockNumber": "0xf7c0ab",
          "transactionHash": "0x80d145df169a0937f2afdb95f01a9d1af4647c2267450b374ffa9ad727c9db0c",
          "transactionIndex": "0x32",
          "logIndex": "0xc9",
          "removed": false
        }
      ],
      "logsBloom": "0x00000000000000000000000040000001000000000000000000000000000000000000000040000000000200000000000000000000000000000000000000000000000000000000000000100008000000000000000000000000000000020000000000000000020000000000000000000800000000000100000000000010000000000000000000000000000000000000000000000000000000000000000000000000000000000000000000000000000000000000200000000000000000000000000000000002000000000000000000000000000000000000000000000000000020000002000000000000000000000000000000000000000000000000000000000000",
      "type": "0x2",
      "transactionHash": "0x80d145df169a0937f2afdb95f01a9d1af4647c2267450b374ffa9ad727c9db0c",
      "transactionIndex": "0x32",
      "blockHash": "0x2418f675d5aeafa420ea8a752c29131e92170886080b6a1e8929907a792063b0",
      "blockNumber": "0xf7c0ab",
      "gasUsed": "0x91b5",
      "effectiveGasPrice": "0xd0af33",
      "from": "0x027a5ce58fc466d0e3a9d1990404354029398541",
      "to": "0x49d2da22aee28f3111a85f4b4b6cb53c5c379669",
      "contractAddress": null,
      "l1Fee": "0x2730a677a",
      "l1GasPrice": "0x11d548be0",
      "l1GasUsed": "0x7cc"
    },
    {
      "status": "0x1",
      "cumulativeGasUsed": "0x9f28c1",
      "logs": [
        {
          "address": "0x49d2da22aee28f3111a85f4b4b6cb53c5c379669",
          "topics": [
            "0xddf252ad1be2c89b69c2b068fc378daa952ba7f163c4a11628f55a4df523b3ef",
            "0x000000000000000000000000b6797e91137a76a51b8f405979b2051d8bce0c6a",
            "0x0000000000000000000000000000000000000000000000000000000000000000",
            "0x00000000000000000000000000000000000000000000000000000000000000d5"
          ],
          "data": "0x",
          "blockHash": "0x2418f675d5aeafa420ea8a752c29131e92170886080b6a1e8929907a792063b0",
          "blockNumber": "0xf7c0ab",
          "transactionHash": "0x8ef487196a17cd7e3042b677e4be38999fc1e129f449c272319be25b53a3b60d",
          "transactionIndex": "0x33",
          "logIndex": "0xca",
          "removed": false
        }
      ],
      "logsBloom": "0x00000000000000000000000040000000000000000000000000000000000000000000000040000000000000000000000000000000000000000000000000000000004002000000000000000008000000000000000000000000000000000000000000000002020000080000000000000800000000000100000000000010000000000000000000000000000000000000000000000000000000000000000000000000000000000000000000000000000000000000000000000000000000000000000000000002000000000000000000000020000000000000000000000000000020000000000000000000000000000800000000000000000000000000000000000000",
      "type": "0x2",
      "transactionHash": "0x8ef487196a17cd7e3042b677e4be38999fc1e129f449c272319be25b53a3b60d",
      "transactionIndex": "0x33",
      "blockHash": "0x2418f675d5aeafa420ea8a752c29131e92170886080b6a1e8929907a792063b0",
      "blockNumber": "0xf7c0ab",
      "gasUsed": "0x91b5",
      "effectiveGasPrice": "0xd0af33",
      "from": "0x027a5ce58fc466d0e3a9d1990404354029398541",
      "to": "0x49d2da22aee28f3111a85f4b4b6cb53c5c379669",
      "contractAddress": null,
      "l1Fee": "0x26f4556f4",
      "l1GasPrice": "0x11d548be0",
      "l1GasUsed": "0x7c0"
    },
    {
      "status": "0x1",
      "cumulativeGasUsed": "0x9fba76",
      "logs": [
        {
          "address": "0x49d2da22aee28f3111a85f4b4b6cb53c5c379669",
          "topics": [
            "0xddf252ad1be2c89b69c2b068fc378daa952ba7f163c4a11628f55a4df523b3ef",
            "0x000000000000000000000000a028d2f8d6cb4055aa34e3d41631d1076a3c2b94",
            "0x0000000000000000000000000000000000000000000000000000000000000000",
            "0x00000000000000000000000000000000000000000000000000000000000000d6"
          ],
          "data": "0x",
          "blockHash": "0x2418f675d5aeafa420ea8a752c29131e92170886080b6a1e8929907a792063b0",
          "blockNumber": "0xf7c0ab",
          "transactionHash": "0xa6bc4a26f64fcc57927af128efc5c4ada708887912ab19a88f9b2adfe2d13bc7",
          "transactionIndex": "0x34",
          "logIndex": "0xcb",
          "removed": false
        }
      ],
      "logsBloom": "0x02000000000000000000000040000000000000800000000000000000000000000000000040008000000000000000000000000000000000000000000000000000000000000000000000000008000000000000000000000000000000000000000000000000020000000000000000000800000000000100000000000010000000000000000000000000000000000000000000000000000000000000000000000000000000000000000000000000000000000000000000000000000000000000000000000002000001000000000000000008000000000000000000000000000020000000000000000000000000000000000000000000000000008000000000000000",
      "type": "0x2",
      "transactionHash": "0xa6bc4a26f64fcc57927af128efc5c4ada708887912ab19a88f9b2adfe2d13bc7",
      "transactionIndex": "0x34",
      "blockHash": "0x2418f675d5aeafa420ea8a752c29131e92170886080b6a1e8929907a792063b0",
      "blockNumber": "0xf7c0ab",
      "gasUsed": "0x91b5",
      "effectiveGasPrice": "0xd0af33",
      "from": "0x027a5ce58fc466d0e3a9d1990404354029398541",
      "to": "0x49d2da22aee28f3111a85f4b4b6cb53c5c379669",
      "contractAddress": null,
      "l1Fee": "0x2730a677a",
      "l1GasPrice": "0x11d548be0",
      "l1GasUsed": "0x7cc"
    },
    {
      "status": "0x1",
      "cumulativeGasUsed": "0xa04c2b",
      "logs": [
        {
          "address": "0x49d2da22aee28f3111a85f4b4b6cb53c5c379669",
          "topics": [
            "0xddf252ad1be2c89b69c2b068fc378daa952ba7f163c4a11628f55a4df523b3ef",
            "0x000000000000000000000000fed69ef42d4ce8e166ae9e1d9f4c831702bee2d1",
            "0x0000000000000000000000000000000000000000000000000000000000000000",
            "0x00000000000000000000000000000000000000000000000000000000000000d7"
          ],
          "data": "0x",
          "blockHash": "0x2418f675d5aeafa420ea8a752c29131e92170886080b6a1e8929907a792063b0",
          "blockNumber": "0xf7c0ab",
          "transactionHash": "0xdc218b78214aa2608cf1c6bbe7e7a03fb2456193c9c18ec6e8b104d63a58e196",
          "transactionIndex": "0x35",
          "logIndex": "0xcc",
          "removed": false
        }
      ],
      "logsBloom": "0x00000000000000000000000040000000000000000000000000000000000000000000000040000000000000000000000000000000000000000000000000000000000000000000000000000008000020000000000000000000000000000000000000000000020000000000000000000800000000000100000000000010000000000000000000000000000000000000000000000000000000000000000000000000000000000000000100000000001000000000200000000000000000000000000200000002000000000000000000000000000000000000000000000000000021000000000000000000000000000000000000000000000000000000000000000000",
      "type": "0x2",
      "transactionHash": "0xdc218b78214aa2608cf1c6bbe7e7a03fb2456193c9c18ec6e8b104d63a58e196",
      "transactionIndex": "0x35",
      "blockHash": "0x2418f675d5aeafa420ea8a752c29131e92170886080b6a1e8929907a792063b0",
      "blockNumber": "0xf7c0ab",
      "gasUsed": "0x91b5",
      "effectiveGasPrice": "0xd0af33",
      "from": "0x027a5ce58fc466d0e3a9d1990404354029398541",
      "to": "0x49d2da22aee28f3111a85f4b4b6cb53c5c379669",
      "contractAddress": null,
      "l1Fee": "0x2730a677a",
      "l1GasPrice": "0x11d548be0",
      "l1GasUsed": "0x7cc"
    },
    {
      "status": "0x1",
      "cumulativeGasUsed": "0xa0dde0",
      "logs": [
        {
          "address": "0x49d2da22aee28f3111a85f4b4b6cb53c5c379669",
          "topics": [
            "0xddf252ad1be2c89b69c2b068fc378daa952ba7f163c4a11628f55a4df523b3ef",
            "0x000000000000000000000000889c6fbbdf2e35bcf76c63eaf0760d1a7f1aeea3",
            "0x0000000000000000000000000000000000000000000000000000000000000000",
            "0x00000000000000000000000000000000000000000000000000000000000000d8"
          ],
          "data": "0x",
          "blockHash": "0x2418f675d5aeafa420ea8a752c29131e92170886080b6a1e8929907a792063b0",
          "blockNumber": "0xf7c0ab",
          "transactionHash": "0x334244407abcccda4e419170c92ea233fade3a4328b47326184bb88ada5ad6ea",
          "transactionIndex": "0x36",
          "logIndex": "0xcd",
          "removed": false
        }
      ],
      "logsBloom": "0x00000000000000000000000040000000000000000000000000000000000000000000400040000000000000000000000000000000000000000000000002000000000000000000000800000008020000000000000000000000000000000000000000000000020000000000000000000800000000000100000000000010000000000000000000000000000000000000000000000000000000000000000100000000000000000000000000000000000000000000000000000000000000000000000000000002000000000000000000000000000000000000000000000000000020000000000000000000000000000000000000000000000200000000000000000000",
      "type": "0x2",
      "transactionHash": "0x334244407abcccda4e419170c92ea233fade3a4328b47326184bb88ada5ad6ea",
      "transactionIndex": "0x36",
      "blockHash": "0x2418f675d5aeafa420ea8a752c29131e92170886080b6a1e8929907a792063b0",
      "blockNumber": "0xf7c0ab",
      "gasUsed": "0x91b5",
      "effectiveGasPrice": "0xd0af33",
      "from": "0x027a5ce58fc466d0e3a9d1990404354029398541",
      "to": "0x49d2da22aee28f3111a85f4b4b6cb53c5c379669",
      "contractAddress": null,
      "l1Fee": "0x26f4556f4",
      "l1GasPrice": "0x11d548be0",
      "l1GasUsed": "0x7c0"
    },
    {
      "status": "0x1",
      "cumulativeGasUsed": "0xa16f95",
      "logs": [
        {
          "address": "0x49d2da22aee28f3111a85f4b4b6cb53c5c379669",
          "topics": [
            "0xddf252ad1be2c89b69c2b068fc378daa952ba7f163c4a11628f55a4df523b3ef",
            "0x00000000000000000000000085e5a2d4f0631f6acb4b8088e526c6a1de42a547",
            "0x0000000000000000000000000000000000000000000000000000000000000000",
            "0x00000000000000000000000000000000000000000000000000000000000000d9"
          ],
          "data": "0x",
          "blockHash": "0x2418f675d5aeafa420ea8a752c29131e92170886080b6a1e8929907a792063b0",
          "blockNumber": "0xf7c0ab",
          "transactionHash": "0x45826b413a1e4f54e447c8b28dd76d1df9c599ca97bbb464c57548239dad314c",
          "transactionIndex": "0x37",
          "logIndex": "0xce",
          "removed": false
        }
      ],
      "logsBloom": "0x00000000000000000000000040000000080000000000000000000080000000000000000060000000000000000000000000000000000000000000000000000000000000000000000000040008000000000000000000000000000000000000000000000000020000000000000000000800000000800100000000000010000000000000000000000000000000000000000000000000000000000000000000000000200000000000000000000000000000000000000000000000000000000000000000000002000000000000000000000000000000000000000000000000000020000000000000000000000000000000000000000000000000000000000000000000",
      "type": "0x2",
      "transactionHash": "0x45826b413a1e4f54e447c8b28dd76d1df9c599ca97bbb464c57548239dad314c",
      "transactionIndex": "0x37",
      "blockHash": "0x2418f675d5aeafa420ea8a752c29131e92170886080b6a1e8929907a792063b0",
      "blockNumber": "0xf7c0ab",
      "gasUsed": "0x91b5",
      "effectiveGasPrice": "0xd0af33",
      "from": "0x027a5ce58fc466d0e3a9d1990404354029398541",
      "to": "0x49d2da22aee28f3111a85f4b4b6cb53c5c379669",
      "contractAddress": null,
      "l1Fee": "0x2730a677a",
      "l1GasPrice": "0x11d548be0",
      "l1GasUsed": "0x7cc"
    }
  ],
  "libraries": [],
  "pending": [],
  "returns": {},
  "timestamp": 1719262787,
  "chain": 8453,
  "commit": "3dd2ed9"
}