{
  "transactions": [
    {
      "hash": "0x67edb20ea46e757d776a827e7c320f49d1e40194738d930eca6a7aa3dae6460f",
      "transactionType": "CALL",
      "contractName": null,
      "contractAddress": "0x49d2da22aee28f3111a85f4b4b6cb53c5c379669",
      "function": "safeMint(address,uint256)",
      "arguments": [
        "0x2Ba43F62F3dC12Bd9f5771c522889B507931Fcf8",
        "168"
      ],
      "transaction": {
        "from": "0x027a5ce58fc466d0e3a9d1990404354029398541",
        "to": "0x49d2da22aee28f3111a85f4b4b6cb53c5c379669",
        "gas": "0x21f3b",
        "value": "0x0",
        "input": "0xa14481940000000000000000000000002ba43f62f3dc12bd9f5771c522889b507931fcf800000000000000000000000000000000000000000000000000000000000000a8",
        "nonce": "0x1f3",
        "chainId": "0x2105"
      },
      "additionalContracts": [],
      "isFixedGasLimit": false
    },
    {
      "hash": "0x22ba1d841b95eafe80cd7a29928adb468ee34d536fa69220c983370fe7272d90",
      "transactionType": "CALL",
      "contractName": null,
      "contractAddress": "0x49d2da22aee28f3111a85f4b4b6cb53c5c379669",
      "function": "safeMint(address,uint256)",
      "arguments": [
        "0x6C1298e088d1eee8e2df160D3cE7ED4b67B12a3D",
        "169"
      ],
      "transaction": {
        "from": "0x027a5ce58fc466d0e3a9d1990404354029398541",
        "to": "0x49d2da22aee28f3111a85f4b4b6cb53c5c379669",
        "gas": "0x1a4c9",
        "value": "0x0",
        "input": "0xa14481940000000000000000000000006c1298e088d1eee8e2df160d3ce7ed4b67b12a3d00000000000000000000000000000000000000000000000000000000000000a9",
        "nonce": "0x1f4",
        "chainId": "0x2105"
      },
      "additionalContracts": [],
      "isFixedGasLimit": false
    },
    {
      "hash": "0x133c678f6b3a99773a54d6a49adf88d0fa9a5c830b8fe19cecbca3b003b07534",
      "transactionType": "CALL",
      "contractName": null,
      "contractAddress": "0x49d2da22aee28f3111a85f4b4b6cb53c5c379669",
      "function": "safeMint(address,uint256)",
      "arguments": [
        "0x03F2eFdcb4BF042EDceBe7c2A22c8fCDB7E0aF76",
        "170"
      ],
      "transaction": {
        "from": "0x027a5ce58fc466d0e3a9d1990404354029398541",
        "to": "0x49d2da22aee28f3111a85f4b4b6cb53c5c379669",
        "gas": "0x1a4c9",
        "value": "0x0",
        "input": "0xa144819400000000000000000000000003f2efdcb4bf042edcebe7c2a22c8fcdb7e0af7600000000000000000000000000000000000000000000000000000000000000aa",
        "nonce": "0x1f5",
        "chainId": "0x2105"
      },
      "additionalContracts": [],
      "isFixedGasLimit": false
    },
    {
      "hash": "0x88c7b19d2b7ee6d4c3b570b3f9b027c88d4df5f44c1237be1531f804939ae764",
      "transactionType": "CALL",
      "contractName": null,
      "contractAddress": "0x49d2da22aee28f3111a85f4b4b6cb53c5c379669",
      "function": "safeMint(address,uint256)",
      "arguments": [
        "0x3f4C9Ae42Cf07D38C0F8E597125bFC1485057b68",
        "171"
      ],
      "transaction": {
        "from": "0x027a5ce58fc466d0e3a9d1990404354029398541",
        "to": "0x49d2da22aee28f3111a85f4b4b6cb53c5c379669",
        "gas": "0x21f3b",
        "value": "0x0",
        "input": "0xa14481940000000000000000000000003f4c9ae42cf07d38c0f8e597125bfc1485057b6800000000000000000000000000000000000000000000000000000000000000ab",
        "nonce": "0x1f6",
        "chainId": "0x2105"
      },
      "additionalContracts": [],
      "isFixedGasLimit": false
    },
    {
      "hash": "0xe02dd578e688ff0bddb55faffcb8c1b05cd9ad79de4b00962de564886516d21d",
      "transactionType": "CALL",
      "contractName": null,
      "contractAddress": "0x49d2da22aee28f3111a85f4b4b6cb53c5c379669",
      "function": "safeMint(address,uint256)",
      "arguments": [
        "0x027a5cE58fc466D0e3A9D1990404354029398541",
        "172"
      ],
      "transaction": {
        "from": "0x027a5ce58fc466d0e3a9d1990404354029398541",
        "to": "0x49d2da22aee28f3111a85f4b4b6cb53c5c379669",
        "gas": "0x1af42",
        "value": "0x0",
        "input": "0xa1448194000000000000000000000000027a5ce58fc466d0e3a9d199040435402939854100000000000000000000000000000000000000000000000000000000000000ac",
        "nonce": "0x1f7",
        "chainId": "0x2105"
      },
      "additionalContracts": [],
      "isFixedGasLimit": false
    },
    {
      "hash": "0x54068a441a32f56b2ae82c877ad76d499234f6a7ec71e525c7094353c5dbd77e",
      "transactionType": "CALL",
      "contractName": null,
      "contractAddress": "0x49d2da22aee28f3111a85f4b4b6cb53c5c379669",
      "function": "safeMint(address,uint256)",
      "arguments": [
        "0x0eF61626449e4C3430cfE7f06A6405d26b3b021c",
        "173"
      ],
      "transaction": {
        "from": "0x027a5ce58fc466d0e3a9d1990404354029398541",
        "to": "0x49d2da22aee28f3111a85f4b4b6cb53c5c379669",
        "gas": "0x1a4c9",
        "value": "0x0",
        "input": "0xa14481940000000000000000000000000ef61626449e4c3430cfe7f06a6405d26b3b021c00000000000000000000000000000000000000000000000000000000000000ad",
        "nonce": "0x1f8",
        "chainId": "0x2105"
      },
      "additionalContracts": [],
      "isFixedGasLimit": false
    },
    {
      "hash": "0x50b47147e08730aa05d0b2f97dcebb0ab58ae88b85c6d3eee0658e4e3f46dd91",
      "transactionType": "CALL",
      "contractName": null,
      "contractAddress": "0x49d2da22aee28f3111a85f4b4b6cb53c5c379669",
      "function": "safeMint(address,uint256)",
      "arguments": [
        "0x0F927974e4C2e952cABc1Fa6bE88155402492A7C",
        "174"
      ],
      "transaction": {
        "from": "0x027a5ce58fc466d0e3a9d1990404354029398541",
        "to": "0x49d2da22aee28f3111a85f4b4b6cb53c5c379669",
        "gas": "0x1a4c9",
        "value": "0x0",
        "input": "0xa14481940000000000000000000000000f927974e4c2e952cabc1fa6be88155402492a7c00000000000000000000000000000000000000000000000000000000000000ae",
        "nonce": "0x1f9",
        "chainId": "0x2105"
      },
      "additionalContracts": [],
      "isFixedGasLimit": false
    },
    {
      "hash": "0xa097fba2b025233d2bf812c9155776ae698d0d3c5f0fdc802459b1a2d125b04a",
      "transactionType": "CALL",
      "contractName": null,
      "contractAddress": "0x49d2da22aee28f3111a85f4b4b6cb53c5c379669",
      "function": "safeMint(address,uint256)",
      "arguments": [
        "0x1518F887Cfe0907bF86A627BC3e82E2b23fAF18f",
        "175"
      ],
      "transaction": {
        "from": "0x027a5ce58fc466d0e3a9d1990404354029398541",
        "to": "0x49d2da22aee28f3111a85f4b4b6cb53c5c379669",
        "gas": "0x21f3b",
        "value": "0x0",
        "input": "0xa14481940000000000000000000000001518f887cfe0907bf86a627bc3e82e2b23faf18f00000000000000000000000000000000000000000000000000000000000000af",
        "nonce": "0x1fa",
        "chainId": "0x2105"
      },
      "additionalContracts": [],
      "isFixedGasLimit": false
    },
    {
      "hash": "0x75edce9f0e41c8f0111193e52fcb5b4cd1ccee1cab74a70395c1d4dd9e1e3f8d",
      "transactionType": "CALL",
      "contractName": null,
      "contractAddress": "0x49d2da22aee28f3111a85f4b4b6cb53c5c379669",
      "function": "safeMint(address,uint256)",
      "arguments": [
        "0x20d85B27150C4E7cF39a3B28E8D77b568B6dc530",
        "176"
      ],
      "transaction": {
        "from": "0x027a5ce58fc466d0e3a9d1990404354029398541",
        "to": "0x49d2da22aee28f3111a85f4b4b6cb53c5c379669",
        "gas": "0x21f3b",
        "value": "0x0",
        "input": "0xa144819400000000000000000000000020d85b27150c4e7cf39a3b28e8d77b568b6dc53000000000000000000000000000000000000000000000000000000000000000b0",
        "nonce": "0x1fb",
        "chainId": "0x2105"
      },
      "additionalContracts": [],
      "isFixedGasLimit": false
    },
    {
      "hash": "0x859cd5705f3d2bd34352de085a717a0be524343551b733e47efbaa383c137b94",
      "transactionType": "CALL",
      "contractName": null,
      "contractAddress": "0x49d2da22aee28f3111a85f4b4b6cb53c5c379669",
      "function": "safeMint(address,uint256)",
      "arguments": [
        "0x2196B9Fe1117df9324108d82DfFC849492C23C14",
        "177"
      ],
      "transaction": {
        "from": "0x027a5ce58fc466d0e3a9d1990404354029398541",
        "to": "0x49d2da22aee28f3111a85f4b4b6cb53c5c379669",
        "gas": "0x21f3b",
        "value": "0x0",
        "input": "0xa14481940000000000000000000000002196b9fe1117df9324108d82dffc849492c23c1400000000000000000000000000000000000000000000000000000000000000b1",
        "nonce": "0x1fc",
        "chainId": "0x2105"
      },
      "additionalContracts": [],
      "isFixedGasLimit": false
    },
    {
      "hash": "0x4206300264b740603fccedc9bcb7048fba86af30911cd45c1a7b9a156b1fd41f",
      "transactionType": "CALL",
      "contractName": null,
      "contractAddress": "0x49d2da22aee28f3111a85f4b4b6cb53c5c379669",
      "function": "safeMint(address,uint256)",
      "arguments": [
        "0x26BC0497a31d570a290edEc354d95B3d8C797A1a",
        "178"
      ],
      "transaction": {
        "from": "0x027a5ce58fc466d0e3a9d1990404354029398541",
        "to": "0x49d2da22aee28f3111a85f4b4b6cb53c5c379669",
        "gas": "0x21f3b",
        "value": "0x0",
        "input": "0xa144819400000000000000000000000026bc0497a31d570a290edec354d95b3d8c797a1a00000000000000000000000000000000000000000000000000000000000000b2",
        "nonce": "0x1fd",
        "chainId": "0x2105"
      },
      "additionalContracts": [],
      "isFixedGasLimit": false
    },
    {
      "hash": "0xb5d9a965b40424b02a45a25ade7f3b2cdc5db6cd5a28f5dcb0ba191da45493af",
      "transactionType": "CALL",
      "contractName": null,
      "contractAddress": "0x49d2da22aee28f3111a85f4b4b6cb53c5c379669",
      "function": "safeMint(address,uint256)",
      "arguments": [
        "0x2799Aa9a16592847Fe8314fd6072A516402557ea",
        "179"
      ],
      "transaction": {
        "from": "0x027a5ce58fc466d0e3a9d1990404354029398541",
        "to": "0x49d2da22aee28f3111a85f4b4b6cb53c5c379669",
        "gas": "0x1a4c9",
        "value": "0x0",
        "input": "0xa14481940000000000000000000000002799aa9a16592847fe8314fd6072a516402557ea00000000000000000000000000000000000000000000000000000000000000b3",
        "nonce": "0x1fe",
        "chainId": "0x2105"
      },
      "additionalContracts": [],
      "isFixedGasLimit": false
    },
    {
      "hash": "0x3ed17c7759ba4f1402d9abf35fd8fbcacc7e548e220e5e0de1b12b4b28cc7b73",
      "transactionType": "CALL",
      "contractName": null,
      "contractAddress": "0x49d2da22aee28f3111a85f4b4b6cb53c5c379669",
      "function": "safeMint(address,uint256)",
      "arguments": [
        "0x2826eEF91A00E5CD365C36D2E9E52769C359F8E1",
        "180"
      ],
      "transaction": {
        "from": "0x027a5ce58fc466d0e3a9d1990404354029398541",
        "to": "0x49d2da22aee28f3111a85f4b4b6cb53c5c379669",
        "gas": "0x200fc",
        "value": "0x0",
        "input": "0xa14481940000000000000000000000002826eef91a00e5cd365c36d2e9e52769c359f8e100000000000000000000000000000000000000000000000000000000000000b4",
        "nonce": "0x1ff",
        "chainId": "0x2105"
      },
      "additionalContracts": [],
      "isFixedGasLimit": false
    },
    {
      "hash": "0xfa4e3bec03ecb63b12633d1e9a7b84e5a94b234e4147cae1a550290c46d806d4",
      "transactionType": "CALL",
      "contractName": null,
      "contractAddress": "0x49d2da22aee28f3111a85f4b4b6cb53c5c379669",
      "function": "safeMint(address,uint256)",
      "arguments": [
        "0x2872A7E0FcEb3975cbBDC36a81d678941977727c",
        "181"
      ],
      "transaction": {
        "from": "0x027a5ce58fc466d0e3a9d1990404354029398541",
        "to": "0x49d2da22aee28f3111a85f4b4b6cb53c5c379669",
        "gas": "0x1a4c9",
        "value": "0x0",
        "input": "0xa14481940000000000000000000000002872a7e0fceb3975cbbdc36a81d678941977727c00000000000000000000000000000000000000000000000000000000000000b5",
        "nonce": "0x200",
        "chainId": "0x2105"
      },
      "additionalContracts": [],
      "isFixedGasLimit": false
    },
    {
      "hash": "0xb4840bbd02db0a9223c4f34efbe2cdb74b0533cf351defecdc1c899bc82d794b",
      "transactionType": "CALL",
      "contractName": null,
      "contractAddress": "0x49d2da22aee28f3111a85f4b4b6cb53c5c379669",
      "function": "safeMint(address,uint256)",
      "arguments": [
        "0x2C583f391fe2C31a55FAB86850544bF07F78295a",
        "182"
      ],
      "transaction": {
        "from": "0x027a5ce58fc466d0e3a9d1990404354029398541",
        "to": "0x49d2da22aee28f3111a85f4b4b6cb53c5c379669",
        "gas": "0x1a4c9",
        "value": "0x0",
        "input": "0xa14481940000000000000000000000002c583f391fe2c31a55fab86850544bf07f78295a00000000000000000000000000000000000000000000000000000000000000b6",
        "nonce": "0x201",
        "chainId": "0x2105"
      },
      "additionalContracts": [],
      "isFixedGasLimit": false
    },
    {
      "hash": "0x5c67aa0f0ebcca87a0d34847e74ae84477fef9790a9b7f870fb120e0b570d634",
      "transactionType": "CALL",
      "contractName": null,
      "contractAddress": "0x49d2da22aee28f3111a85f4b4b6cb53c5c379669",
      "function": "safeMint(address,uint256)",
      "arguments": [
        "0x323Fa1A506012b62F38BD4E3aF12fCE6d1F2254E",
        "183"
      ],
      "transaction": {
        "from": "0x027a5ce58fc466d0e3a9d1990404354029398541",
        "to": "0x49d2da22aee28f3111a85f4b4b6cb53c5c379669",
        "gas": "0x1a4c9",
        "value": "0x0",
        "input": "0xa1448194000000000000000000000000323fa1a506012b62f38bd4e3af12fce6d1f2254e00000000000000000000000000000000000000000000000000000000000000b7",
        "nonce": "0x202",
        "chainId": "0x2105"
      },
      "additionalContracts": [],
      "isFixedGasLimit": false
    },
    {
      "hash": "0x457286c27554c0e1a6eaf205922912cab22c99cb4dff9d15127e8c67dfe14514",
      "transactionType": "CALL",
      "contractName": null,
      "contractAddress": "0x49d2da22aee28f3111a85f4b4b6cb53c5c379669",
      "function": "safeMint(address,uint256)",
      "arguments": [
        "0x3d3b623d67Af0DAF693a1be66739de0b66DB9484",
        "184"
      ],
      "transaction": {
        "from": "0x027a5ce58fc466d0e3a9d1990404354029398541",
        "to": "0x49d2da22aee28f3111a85f4b4b6cb53c5c379669",
        "gas": "0x1a4c9",
        "value": "0x0",
        "input": "0xa14481940000000000000000000000003d3b623d67af0daf693a1be66739de0b66db948400000000000000000000000000000000000000000000000000000000000000b8",
        "nonce": "0x203",
        "chainId": "0x2105"
      },
      "additionalContracts": [],
      "isFixedGasLimit": false
    },
    {
      "hash": "0x7b53f0ee13983d8394c8e933a04ef978f5143f8248e47e6731f62df8ef8a2cb7",
      "transactionType": "CALL",
      "contractName": null,
      "contractAddress": "0x49d2da22aee28f3111a85f4b4b6cb53c5c379669",
      "function": "safeMint(address,uint256)",
      "arguments": [
        "0x3F26CbA8EfFDe6B187875dED42dd5DE9B6Afb6C2",
        "185"
      ],
      "transaction": {
        "from": "0x027a5ce58fc466d0e3a9d1990404354029398541",
        "to": "0x49d2da22aee28f3111a85f4b4b6cb53c5c379669",
        "gas": "0x1a4c9",
        "value": "0x0",
        "input": "0xa14481940000000000000000000000003f26cba8effde6b187875ded42dd5de9b6afb6c200000000000000000000000000000000000000000000000000000000000000b9",
        "nonce": "0x204",
        "chainId": "0x2105"
      },
      "additionalContracts": [],
      "isFixedGasLimit": false
    },
    {
      "hash": "0x3d35a47d5d070d1cde8b71347264732b8787647c06fa2a9deb3a139729efd253",
      "transactionType": "CALL",
      "contractName": null,
      "contractAddress": "0x49d2da22aee28f3111a85f4b4b6cb53c5c379669",
      "function": "safeMint(address,uint256)",
      "arguments": [
        "0x427B3Db6320F192fC85EBBEf0EEbb5546618B1a9",
        "186"
      ],
      "transaction": {
        "from": "0x027a5ce58fc466d0e3a9d1990404354029398541",
        "to": "0x49d2da22aee28f3111a85f4b4b6cb53c5c379669",
        "gas": "0x1a4c9",
        "value": "0x0",
        "input": "0xa1448194000000000000000000000000427b3db6320f192fc85ebbef0eebb5546618b1a900000000000000000000000000000000000000000000000000000000000000ba",
        "nonce": "0x205",
        "chainId": "0x2105"
      },
      "additionalContracts": [],
      "isFixedGasLimit": false
    },
    {
      "hash": "0x0201d330347f496a479269000791e6bd649cec6db7e66666794e9b2a1de60b15",
      "transactionType": "CALL",
      "contractName": null,
      "contractAddress": "0x49d2da22aee28f3111a85f4b4b6cb53c5c379669",
      "function": "safeMint(address,uint256)",
      "arguments": [
        "0x44AF32E540eb4a2A71a9e9B5e860d4019065d038",
        "187"
      ],
      "transaction": {
        "from": "0x027a5ce58fc466d0e3a9d1990404354029398541",
        "to": "0x49d2da22aee28f3111a85f4b4b6cb53c5c379669",
        "gas": "0x1a4c9",
        "value": "0x0",
        "input": "0xa144819400000000000000000000000044af32e540eb4a2a71a9e9b5e860d4019065d03800000000000000000000000000000000000000000000000000000000000000bb",
        "nonce": "0x206",
        "chainId": "0x2105"
      },
      "additionalContracts": [],
      "isFixedGasLimit": false
    },
    {
      "hash": "0x7d1ff2267f8367dad2fb91f73d88a91f4135741deb0fa43c127ca5b2294f1a34",
      "transactionType": "CALL",
      "contractName": null,
      "contractAddress": "0x49d2da22aee28f3111a85f4b4b6cb53c5c379669",
      "function": "safeMint(address,uint256)",
      "arguments": [
        "0x49E59dE5DBF06ED83116AfAA0570Bfe13a8D5bA7",
        "188"
      ],
      "transaction": {
        "from": "0x027a5ce58fc466d0e3a9d1990404354029398541",
        "to": "0x49d2da22aee28f3111a85f4b4b6cb53c5c379669",
        "gas": "0x21f3b",
        "value": "0x0",
        "input": "0xa144819400000000000000000000000049e59de5dbf06ed83116afaa0570bfe13a8d5ba700000000000000000000000000000000000000000000000000000000000000bc",
        "nonce": "0x207",
        "chainId": "0x2105"
      },
      "additionalContracts": [],
      "isFixedGasLimit": false
    },
    {
      "hash": "0x0361cba3ca762fabea7a4f1d8f5aa210d8700a6a519a020df00f08bd1f7c13f8",
      "transactionType": "CALL",
      "contractName": null,
      "contractAddress": "0x49d2da22aee28f3111a85f4b4b6cb53c5c379669",
      "function": "safeMint(address,uint256)",
      "arguments": [
        "0x524992190D59264778Ac9967aF18055820Cc6651",
        "189"
      ],
      "transaction": {
        "from": "0x027a5ce58fc466d0e3a9d1990404354029398541",
        "to": "0x49d2da22aee28f3111a85f4b4b6cb53c5c379669",
        "gas": "0x1a4c9",
        "value": "0x0",
        "input": "0xa1448194000000000000000000000000524992190d59264778ac9967af18055820cc665100000000000000000000000000000000000000000000000000000000000000bd",
        "nonce": "0x208",
        "chainId": "0x2105"
      },
      "additionalContracts": [],
      "isFixedGasLimit": false
    },
    {
      "hash": "0x6a7d69c77d8b0fe2ac6245e33ad5d8950879bcfafb32a37840e81d3b2fbe3c83",
      "transactionType": "CALL",
      "contractName": null,
      "contractAddress": "0x49d2da22aee28f3111a85f4b4b6cb53c5c379669",
      "function": "safeMint(address,uint256)",
      "arguments": [
        "0x636d26031441d889476cE82E60D94500D2496461",
        "190"
      ],
      "transaction": {
        "from": "0x027a5ce58fc466d0e3a9d1990404354029398541",
        "to": "0x49d2da22aee28f3111a85f4b4b6cb53c5c379669",
        "gas": "0x1bd79",
        "value": "0x0",
        "input": "0xa1448194000000000000000000000000636d26031441d889476ce82e60d94500d249646100000000000000000000000000000000000000000000000000000000000000be",
        "nonce": "0x209",
        "chainId": "0x2105"
      },
      "additionalContracts": [],
      "isFixedGasLimit": false
    },
    {
      "hash": "0xbedb14d84a7c7d9e12acbd3f2edce629a0be032c6d4ab6d8aecb158b3052354e",
      "transactionType": "CALL",
      "contractName": null,
      "contractAddress": "0x49d2da22aee28f3111a85f4b4b6cb53c5c379669",
      "function": "safeMint(address,uint256)",
      "arguments": [
        "0x678a71A480FC51e174a475865d61f7C936f87D14",
        "191"
      ],
      "transaction": {
        "from": "0x027a5ce58fc466d0e3a9d1990404354029398541",
        "to": "0x49d2da22aee28f3111a85f4b4b6cb53c5c379669",
        "gas": "0x1a4c9",
        "value": "0x0",
        "input": "0xa1448194000000000000000000000000678a71a480fc51e174a475865d61f7c936f87d1400000000000000000000000000000000000000000000000000000000000000bf",
        "nonce": "0x20a",
        "chainId": "0x2105"
      },
      "additionalContracts": [],
      "isFixedGasLimit": false
    },
    {
      "hash": "0xc0b7ed5a822edcba15578172915e65aba9f5b37760e51a9c99e59b582baf071c",
      "transactionType": "CALL",
      "contractName": null,
      "contractAddress": "0x49d2da22aee28f3111a85f4b4b6cb53c5c379669",
      "function": "safeMint(address,uint256)",
      "arguments": [
        "0x6d8DE2f7bF11e06690bB21907d24dA6136B215d4",
        "192"
      ],
      "transaction": {
        "from": "0x027a5ce58fc466d0e3a9d1990404354029398541",
        "to": "0x49d2da22aee28f3111a85f4b4b6cb53c5c379669",
        "gas": "0x1a4c9",
        "value": "0x0",
        "input": "0xa14481940000000000000000000000006d8de2f7bf11e06690bb21907d24da6136b215d400000000000000000000000000000000000000000000000000000000000000c0",
        "nonce": "0x20b",
        "chainId": "0x2105"
      },
      "additionalContracts": [],
      "isFixedGasLimit": false
    },
    {
      "hash": "0x07c23a666acad04d440ce015c64bc9dcf0b1f5a7bc7bdfc1707c5f53b4a8ef55",
      "transactionType": "CALL",
      "contractName": null,
      "contractAddress": "0x49d2da22aee28f3111a85f4b4b6cb53c5c379669",
      "function": "safeMint(address,uint256)",
      "arguments": [
        "0x6e97282D2058AA7966e22ee8D3ED99A7b857Bd81",
        "193"
      ],
      "transaction": {
        "from": "0x027a5ce58fc466d0e3a9d1990404354029398541",
        "to": "0x49d2da22aee28f3111a85f4b4b6cb53c5c379669",
        "gas": "0x21f3b",
        "value": "0x0",
        "input": "0xa14481940000000000000000000000006e97282d2058aa7966e22ee8d3ed99a7b857bd8100000000000000000000000000000000000000000000000000000000000000c1",
        "nonce": "0x20c",
        "chainId": "0x2105"
      },
      "additionalContracts": [],
      "isFixedGasLimit": false
    },
    {
      "hash": "0x7cc86bbd010c7c5845c7c87f0c11332b9d6505663adfd925ad03777037c0a5e7",
      "transactionType": "CALL",
      "contractName": null,
      "contractAddress": "0x49d2da22aee28f3111a85f4b4b6cb53c5c379669",
      "function": "safeMint(address,uint256)",
      "arguments": [
        "0x74d493aE09f72A56C665A3C80BcCa1C44D2b622F",
        "194"
      ],
      "transaction": {
        "from": "0x027a5ce58fc466d0e3a9d1990404354029398541",
        "to": "0x49d2da22aee28f3111a85f4b4b6cb53c5c379669",
        "gas": "0x1a4c9",
        "value": "0x0",
        "input": "0xa144819400000000000000000000000074d493ae09f72a56c665a3c80bcca1c44d2b622f00000000000000000000000000000000000000000000000000000000000000c2",
        "nonce": "0x20d",
        "chainId": "0x2105"
      },
      "additionalContracts": [],
      "isFixedGasLimit": false
    },
    {
      "hash": "0x93647cf11ce1b1ffeca2950bdcf08f8db915096a85a63ccd6d02662379c2fba6",
      "transactionType": "CALL",
      "contractName": null,
      "contractAddress": "0x49d2da22aee28f3111a85f4b4b6cb53c5c379669",
      "function": "safeMint(address,uint256)",
      "arguments": [
        "0x791a304547BbE77C3F780e0375762DCE478A1c05",
        "195"
      ],
      "transaction": {
        "from": "0x027a5ce58fc466d0e3a9d1990404354029398541",
        "to": "0x49d2da22aee28f3111a85f4b4b6cb53c5c379669",
        "gas": "0x1a4c9",
        "value": "0x0",
        "input": "0xa1448194000000000000000000000000791a304547bbe77c3f780e0375762dce478a1c0500000000000000000000000000000000000000000000000000000000000000c3",
        "nonce": "0x20e",
        "chainId": "0x2105"
      },
      "additionalContracts": [],
      "isFixedGasLimit": false
    },
    {
      "hash": "0x333249a51aa5d54fe679ca419d2e300daf6cc355cc4aa642e64c9da20e1aa545",
      "transactionType": "CALL",
      "contractName": null,
      "contractAddress": "0x49d2da22aee28f3111a85f4b4b6cb53c5c379669",
      "function": "safeMint(address,uint256)",
      "arguments": [
        "0x80475ECeCd1b7EC2cF6624B1A1705BBf3F20BE94",
        "196"
      ],
      "transaction": {
        "from": "0x027a5ce58fc466d0e3a9d1990404354029398541",
        "to": "0x49d2da22aee28f3111a85f4b4b6cb53c5c379669",
        "gas": "0x21f3b",
        "value": "0x0",
        "input": "0xa144819400000000000000000000000080475ececd1b7ec2cf6624b1a1705bbf3f20be9400000000000000000000000000000000000000000000000000000000000000c4",
        "nonce": "0x20f",
        "chainId": "0x2105"
      },
      "additionalContracts": [],
      "isFixedGasLimit": false
    },
    {
      "hash": "0x95ea0ae68ab8aa85f6701a1489a1fc27efd1caa2ac307ae4f5e555d09c086533",
      "transactionType": "CALL",
      "contractName": null,
      "contractAddress": "0x49d2da22aee28f3111a85f4b4b6cb53c5c379669",
      "function": "safeMint(address,uint256)",
      "arguments": [
        "0x86F3AaeD82b74eD05Cac01639A7eebE2bc082D9f",
        "197"
      ],
      "transaction": {
        "from": "0x027a5ce58fc466d0e3a9d1990404354029398541",
        "to": "0x49d2da22aee28f3111a85f4b4b6cb53c5c379669",
        "gas": "0x21f3b",
        "value": "0x0",
        "input": "0xa144819400000000000000000000000086f3aaed82b74ed05cac01639a7eebe2bc082d9f00000000000000000000000000000000000000000000000000000000000000c5",
        "nonce": "0x210",
        "chainId": "0x2105"
      },
      "additionalContracts": [],
      "isFixedGasLimit": false
    },
    {
      "hash": "0xeb8b4470e7d678bb96d24b858cf09c8c895a9d18a2b7aa6da4a9bba60582c53e",
      "transactionType": "CALL",
      "contractName": null,
      "contractAddress": "0x49d2da22aee28f3111a85f4b4b6cb53c5c379669",
      "function": "safeMint(address,uint256)",
      "arguments": [
        "0x874683B39ACcD62b952D6F13E10e41cE8306AF7C",
        "198"
      ],
      "transaction": {
        "from": "0x027a5ce58fc466d0e3a9d1990404354029398541",
        "to": "0x49d2da22aee28f3111a85f4b4b6cb53c5c379669",
        "gas": "0x1a4c9",
        "value": "0x0",
        "input": "0xa1448194000000000000000000000000874683b39accd62b952d6f13e10e41ce8306af7c00000000000000000000000000000000000000000000000000000000000000c6",
        "nonce": "0x211",
        "chainId": "0x2105"
      },
      "additionalContracts": [],
      "isFixedGasLimit": false
    },
    {
      "hash": "0xbd1fcb569b37e5174a36e7c7d7eeb4be28045818647d4a5c0d26d428fbc74d53",
      "transactionType": "CALL",
      "contractName": null,
      "contractAddress": "0x49d2da22aee28f3111a85f4b4b6cb53c5c379669",
      "function": "safeMint(address,uint256)",
      "arguments": [
        "0x96706EB471F875a9a41442f358d3B34ba02F868b",
        "199"
      ],
      "transaction": {
        "from": "0x027a5ce58fc466d0e3a9d1990404354029398541",
        "to": "0x49d2da22aee28f3111a85f4b4b6cb53c5c379669",
        "gas": "0x1a4c9",
        "value": "0x0",
        "input": "0xa144819400000000000000000000000096706eb471f875a9a41442f358d3b34ba02f868b00000000000000000000000000000000000000000000000000000000000000c7",
        "nonce": "0x212",
        "chainId": "0x2105"
      },
      "additionalContracts": [],
      "isFixedGasLimit": false
    },
    {
      "hash": "0x83e9ab6f4ea5200e29e3b04baf7142242cbc42713ab2e107d2abb0783fe48881",
      "transactionType": "CALL",
      "contractName": null,
      "contractAddress": "0x49d2da22aee28f3111a85f4b4b6cb53c5c379669",
      "function": "safeMint(address,uint256)",
      "arguments": [
        "0x9e83CF83D126374ddCf77A7d0E2eb418d3cB1B2C",
        "200"
      ],
      "transaction": {
        "from": "0x027a5ce58fc466d0e3a9d1990404354029398541",
        "to": "0x49d2da22aee28f3111a85f4b4b6cb53c5c379669",
        "gas": "0x1a4c9",
        "value": "0x0",
        "input": "0xa14481940000000000000000000000009e83cf83d126374ddcf77a7d0e2eb418d3cb1b2c00000000000000000000000000000000000000000000000000000000000000c8",
        "nonce": "0x213",
        "chainId": "0x2105"
      },
      "additionalContracts": [],
      "isFixedGasLimit": false
    },
    {
      "hash": "0x8d71c75fb218e1b2bec530afe3e310605562b0f4b0b8aef09094eed3819cbcfb",
      "transactionType": "CALL",
      "contractName": null,
      "contractAddress": "0x49d2da22aee28f3111a85f4b4b6cb53c5c379669",
      "function": "safeMint(address,uint256)",
      "arguments": [
        "0x9Ed2Af9D4Ab71740E4d63FAb593bE7E8701ea169",
        "201"
      ],
      "transaction": {
        "from": "0x027a5ce58fc466d0e3a9d1990404354029398541",
        "to": "0x49d2da22aee28f3111a85f4b4b6cb53c5c379669",
        "gas": "0x1a4c9",
        "value": "0x0",
        "input": "0xa14481940000000000000000000000009ed2af9d4ab71740e4d63fab593be7e8701ea16900000000000000000000000000000000000000000000000000000000000000c9",
        "nonce": "0x214",
        "chainId": "0x2105"
      },
      "additionalContracts": [],
      "isFixedGasLimit": false
    },
    {
      "hash": "0x3117470228975e1672f03f3bcb4b9413b0938628f2aa6d24886cf37594fa3619",
      "transactionType": "CALL",
      "contractName": null,
      "contractAddress": "0x49d2da22aee28f3111a85f4b4b6cb53c5c379669",
      "function": "safeMint(address,uint256)",
      "arguments": [
        "0xA13e3072cc6f921eb90004Fa5703305B5F88093f",
        "202"
      ],
      "transaction": {
        "from": "0x027a5ce58fc466d0e3a9d1990404354029398541",
        "to": "0x49d2da22aee28f3111a85f4b4b6cb53c5c379669",
        "gas": "0x200fc",
        "value": "0x0",
        "input": "0xa1448194000000000000000000000000a13e3072cc6f921eb90004fa5703305b5f88093f00000000000000000000000000000000000000000000000000000000000000ca",
        "nonce": "0x215",
        "chainId": "0x2105"
      },
      "additionalContracts": [],
      "isFixedGasLimit": false
    },
    {
      "hash": "0x03a707f7c080e8167c548cf1da7ee5dc12ff5176fd8393ec28652063d4be6d6d",
      "transactionType": "CALL",
      "contractName": null,
      "contractAddress": "0x49d2da22aee28f3111a85f4b4b6cb53c5c379669",
      "function": "safeMint(address,uint256)",
      "arguments": [
        "0xb42CD13d0B53088e1685Ed7f6C78066b243f42F9",
        "203"
      ],
      "transaction": {
        "from": "0x027a5ce58fc466d0e3a9d1990404354029398541",
        "to": "0x49d2da22aee28f3111a85f4b4b6cb53c5c379669",
        "gas": "0x21f3b",
        "value": "0x0",
        "input": "0xa1448194000000000000000000000000b42cd13d0b53088e1685ed7f6c78066b243f42f900000000000000000000000000000000000000000000000000000000000000cb",
        "nonce": "0x216",
        "chainId": "0x2105"
      },
      "additionalContracts": [],
      "isFixedGasLimit": false
    },
    {
      "hash": "0x9f0ed76896983dda2fed7baa8e9e1bd2a01ac102eed1761c0b7749b4f7c1f926",
      "transactionType": "CALL",
      "contractName": null,
      "contractAddress": "0x49d2da22aee28f3111a85f4b4b6cb53c5c379669",
      "function": "safeMint(address,uint256)",
      "arguments": [
        "0xB691b33ff0f88995eF2d143681463A01bC9D48b4",
        "204"
      ],
      "transaction": {
        "from": "0x027a5ce58fc466d0e3a9d1990404354029398541",
        "to": "0x49d2da22aee28f3111a85f4b4b6cb53c5c379669",
        "gas": "0x1a4c9",
        "value": "0x0",
        "input": "0xa1448194000000000000000000000000b691b33ff0f88995ef2d143681463a01bc9d48b400000000000000000000000000000000000000000000000000000000000000cc",
        "nonce": "0x217",
        "chainId": "0x2105"
      },
      "additionalContracts": [],
      "isFixedGasLimit": false
    },
    {
      "hash": "0x76eb75a5842b480a424cbe5cae037575a9910b492120c1d7483676c2aa5de758",
      "transactionType": "CALL",
      "contractName": null,
      "contractAddress": "0x49d2da22aee28f3111a85f4b4b6cb53c5c379669",
      "function": "safeMint(address,uint256)",
      "arguments": [
        "0xBA0aB3161197439c073E1cc6D5197B138F1C2148",
        "205"
      ],
      "transaction": {
        "from": "0x027a5ce58fc466d0e3a9d1990404354029398541",
        "to": "0x49d2da22aee28f3111a85f4b4b6cb53c5c379669",
        "gas": "0x1a4c9",
        "value": "0x0",
        "input": "0xa1448194000000000000000000000000ba0ab3161197439c073e1cc6d5197b138f1c214800000000000000000000000000000000000000000000000000000000000000cd",
        "nonce": "0x218",
        "chainId": "0x2105"
      },
      "additionalContracts": [],
      "isFixedGasLimit": false
    },
    {
      "hash": "0xa8d5532064b8b1df8f55c8d10ece8c64980673a6bf1353f24ab5e244b1437504",
      "transactionType": "CALL",
      "contractName": null,
      "contractAddress": "0x49d2da22aee28f3111a85f4b4b6cb53c5c379669",
      "function": "safeMint(address,uint256)",
      "arguments": [
        "0xBd5ff05DeEC6e2eB46874F0f8Eb81704fdA1be58",
        "206"
      ],
      "transaction": {
        "from": "0x027a5ce58fc466d0e3a9d1990404354029398541",
        "to": "0x49d2da22aee28f3111a85f4b4b6cb53c5c379669",
        "gas": "0x21f3b",
        "value": "0x0",
        "input": "0xa1448194000000000000000000000000bd5ff05deec6e2eb46874f0f8eb81704fda1be5800000000000000000000000000000000000000000000000000000000000000ce",
        "nonce": "0x219",
        "chainId": "0x2105"
      },
      "additionalContracts": [],
      "isFixedGasLimit": false
    },
    {
      "hash": "0x1e50f3921a79ca0b0a6ae2f131d002ade67d85c64782af35986d2105e763bbfd",
      "transactionType": "CALL",
      "contractName": null,
      "contractAddress": "0x49d2da22aee28f3111a85f4b4b6cb53c5c379669",
      "function": "safeMint(address,uint256)",
      "arguments": [
        "0xc205125419a346408476Bb332ddBF85Ec89b1bDa",
        "207"
      ],
      "transaction": {
        "from": "0x027a5ce58fc466d0e3a9d1990404354029398541",
        "to": "0x49d2da22aee28f3111a85f4b4b6cb53c5c379669",
        "gas": "0x1a4c9",
        "value": "0x0",
        "input": "0xa1448194000000000000000000000000c205125419a346408476bb332ddbf85ec89b1bda00000000000000000000000000000000000000000000000000000000000000cf",
        "nonce": "0x21a",
        "chainId": "0x2105"
      },
      "additionalContracts": [],
      "isFixedGasLimit": false
    },
    {
      "hash": "0xb84687ad152f4294eec818bef5c3375250bf30503fbf3ea5127e06a5706b8cc9",
      "transactionType": "CALL",
      "contractName": null,
      "contractAddress": "0x49d2da22aee28f3111a85f4b4b6cb53c5c379669",
      "function": "safeMint(address,uint256)",
      "arguments": [
        "0xC53c080989e6264537aE95D38260fA93Fc37a08f",
        "208"
      ],
      "transaction": {
        "from": "0x027a5ce58fc466d0e3a9d1990404354029398541",
        "to": "0x49d2da22aee28f3111a85f4b4b6cb53c5c379669",
        "gas": "0x21f3b",
        "value": "0x0",
        "input": "0xa1448194000000000000000000000000c53c080989e6264537ae95d38260fa93fc37a08f00000000000000000000000000000000000000000000000000000000000000d0",
        "nonce": "0x21b",
        "chainId": "0x2105"
      },
      "additionalContracts": [],
      "isFixedGasLimit": false
    },
    {
      "hash": "0xa852c20d437489fb7fb7a5a6212029019f9430c6cbea27e6e02c46cb1de8268f",
      "transactionType": "CALL",
      "contractName": null,
      "contractAddress": "0x49d2da22aee28f3111a85f4b4b6cb53c5c379669",
      "function": "safeMint(address,uint256)",
      "arguments": [
        "0xCe1320ca406c8c4A32669b1Fad04C42baDd0dF04",
        "209"
      ],
      "transaction": {
        "from": "0x027a5ce58fc466d0e3a9d1990404354029398541",
        "to": "0x49d2da22aee28f3111a85f4b4b6cb53c5c379669",
        "gas": "0x21f3b",
        "value": "0x0",
        "input": "0xa1448194000000000000000000000000ce1320ca406c8c4a32669b1fad04c42badd0df0400000000000000000000000000000000000000000000000000000000000000d1",
        "nonce": "0x21c",
        "chainId": "0x2105"
      },
      "additionalContracts": [],
      "isFixedGasLimit": false
    },
    {
      "hash": "0x1992e157c158dd85640f07f0a0fa92371661e7748693d8089c0df0623bc7221e",
      "transactionType": "CALL",
      "contractName": null,
      "contractAddress": "0x49d2da22aee28f3111a85f4b4b6cb53c5c379669",
      "function": "safeMint(address,uint256)",
      "arguments": [
        "0xd235F26665dF3Bab05207f80Ce1306342EC992c6",
        "210"
      ],
      "transaction": {
        "from": "0x027a5ce58fc466d0e3a9d1990404354029398541",
        "to": "0x49d2da22aee28f3111a85f4b4b6cb53c5c379669",
        "gas": "0x21f3b",
        "value": "0x0",
        "input": "0xa1448194000000000000000000000000d235f26665df3bab05207f80ce1306342ec992c600000000000000000000000000000000000000000000000000000000000000d2",
        "nonce": "0x21d",
        "chainId": "0x2105"
      },
      "additionalContracts": [],
      "isFixedGasLimit": false
    },
    {
      "hash": "0xecf76c8114591045091cb320d7bb967cea5f6ebea4952298e21b86b713a68a2b",
      "transactionType": "CALL",
      "contractName": null,
      "contractAddress": "0x49d2da22aee28f3111a85f4b4b6cb53c5c379669",
      "function": "safeMint(address,uint256)",
      "arguments": [
        "0xd2d97ec80079aebd301a603B98a837D9d1c34789",
        "211"
      ],
      "transaction": {
        "from": "0x027a5ce58fc466d0e3a9d1990404354029398541",
        "to": "0x49d2da22aee28f3111a85f4b4b6cb53c5c379669",
        "gas": "0x1bd79",
        "value": "0x0",
        "input": "0xa1448194000000000000000000000000d2d97ec80079aebd301a603b98a837d9d1c3478900000000000000000000000000000000000000000000000000000000000000d3",
        "nonce": "0x21e",
        "chainId": "0x2105"
      },
      "additionalContracts": [],
      "isFixedGasLimit": false
    },
    {
      "hash": "0x2271ef57f970403e3bbc730ec6d20a9e6554018af4e0c9e3b0fa1b6854e6c24b",
      "transactionType": "CALL",
      "contractName": null,
      "contractAddress": "0x49d2da22aee28f3111a85f4b4b6cb53c5c379669",
      "function": "safeMint(address,uint256)",
      "arguments": [
        "0xe7750D2361eB7094695cd87E23E603BbCc922CFF",
        "212"
      ],
      "transaction": {
        "from": "0x027a5ce58fc466d0e3a9d1990404354029398541",
        "to": "0x49d2da22aee28f3111a85f4b4b6cb53c5c379669",
        "gas": "0x21f3b",
        "value": "0x0",
        "input": "0xa1448194000000000000000000000000e7750d2361eb7094695cd87e23e603bbcc922cff00000000000000000000000000000000000000000000000000000000000000d4",
        "nonce": "0x21f",
        "chainId": "0x2105"
      },
      "additionalContracts": [],
      "isFixedGasLimit": false
    },
    {
      "hash": "0x50383ac15c761206849480b7b1f73ed92c03a8a0619952a1a904a830c7f01888",
      "transactionType": "CALL",
      "contractName": null,
      "contractAddress": "0x49d2da22aee28f3111a85f4b4b6cb53c5c379669",
      "function": "safeMint(address,uint256)",
      "arguments": [
        "0xf5f1c399005249FB6E8177F51b1D54210e3bD714",
        "213"
      ],
      "transaction": {
        "from": "0x027a5ce58fc466d0e3a9d1990404354029398541",
        "to": "0x49d2da22aee28f3111a85f4b4b6cb53c5c379669",
        "gas": "0x1bd79",
        "value": "0x0",
        "input": "0xa1448194000000000000000000000000f5f1c399005249fb6e8177f51b1d54210e3bd71400000000000000000000000000000000000000000000000000000000000000d5",
        "nonce": "0x220",
        "chainId": "0x2105"
      },
      "additionalContracts": [],
      "isFixedGasLimit": false
    },
    {
      "hash": "0x4ba51800014be16fa3fa118a4e3601b6f14c8a48807fcedbd3fb06a7bdbcef74",
      "transactionType": "CALL",
      "contractName": null,
      "contractAddress": "0x49d2da22aee28f3111a85f4b4b6cb53c5c379669",
      "function": "safeMint(address,uint256)",
      "arguments": [
        "0xf78eF100DD63F62cDC0BA7324B43aB7074e8262F",
        "214"
      ],
      "transaction": {
        "from": "0x027a5ce58fc466d0e3a9d1990404354029398541",
        "to": "0x49d2da22aee28f3111a85f4b4b6cb53c5c379669",
        "gas": "0x200fc",
        "value": "0x0",
        "input": "0xa1448194000000000000000000000000f78ef100dd63f62cdc0ba7324b43ab7074e8262f00000000000000000000000000000000000000000000000000000000000000d6",
        "nonce": "0x221",
        "chainId": "0x2105"
      },
      "additionalContracts": [],
      "isFixedGasLimit": false
    },
    {
      "hash": "0x7f51751eea5eb7a231e21ea646a72a27f4568dce20228a0e6b52717c1bce8842",
      "transactionType": "CALL",
      "contractName": null,
      "contractAddress": "0x49d2da22aee28f3111a85f4b4b6cb53c5c379669",
      "function": "safeMint(address,uint256)",
      "arguments": [
        "0xF9FcD5B21B72d90457065935cdE16A99af4e2Db3",
        "215"
      ],
      "transaction": {
        "from": "0x027a5ce58fc466d0e3a9d1990404354029398541",
        "to": "0x49d2da22aee28f3111a85f4b4b6cb53c5c379669",
        "gas": "0x21f3b",
        "value": "0x0",
        "input": "0xa1448194000000000000000000000000f9fcd5b21b72d90457065935cde16a99af4e2db300000000000000000000000000000000000000000000000000000000000000d7",
        "nonce": "0x222",
        "chainId": "0x2105"
      },
      "additionalContracts": [],
      "isFixedGasLimit": false
    },
    {
      "hash": "0xdc1fb4d7fd86667d73e1588db74dbfe888dd80b831b08e7c1fefbe393cb7ea7d",
      "transactionType": "CALL",
      "contractName": null,
      "contractAddress": "0x49d2da22aee28f3111a85f4b4b6cb53c5c379669",
      "function": "safeMint(address,uint256)",
      "arguments": [
        "0xfa55f550D8c2ec8778D81E09C3298B60Ff0b8c94",
        "216"
      ],
      "transaction": {
        "from": "0x027a5ce58fc466d0e3a9d1990404354029398541",
        "to": "0x49d2da22aee28f3111a85f4b4b6cb53c5c379669",
        "gas": "0x1a4c9",
        "value": "0x0",
        "input": "0xa1448194000000000000000000000000fa55f550d8c2ec8778d81e09c3298b60ff0b8c9400000000000000000000000000000000000000000000000000000000000000d8",
        "nonce": "0x223",
        "chainId": "0x2105"
      },
      "additionalContracts": [],
      "isFixedGasLimit": false
    }
  ],
  "receipts": [
    {
      "status": "0x1",
      "cumulativeGasUsed": "0xff9101",
      "logs": [
        {
          "address": "0x49d2da22aee28f3111a85f4b4b6cb53c5c379669",
          "topics": [
            "0xddf252ad1be2c89b69c2b068fc378daa952ba7f163c4a11628f55a4df523b3ef",
            "0x0000000000000000000000000000000000000000000000000000000000000000",
            "0x0000000000000000000000002ba43f62f3dc12bd9f5771c522889b507931fcf8",
            "0x00000000000000000000000000000000000000000000000000000000000000a8"
          ],
          "data": "0x",
          "blockHash": "0xee17d65cc3b7cc8ba6cd916a3e53c90b5ad571fdfe7a0727c1f7c7f0850c2bdd",
          "blockNumber": "0xf7c1b3",
          "transactionHash": "0x67edb20ea46e757d776a827e7c320f49d1e40194738d930eca6a7aa3dae6460f",
          "transactionIndex": "0x39",
          "logIndex": "0x16d",
          "removed": false
        },
        {
          "address": "0x49d2da22aee28f3111a85f4b4b6cb53c5c379669",
          "topics": [
            "0xa0038d61ac7f17fe47f8776a0cf1e4845408cdca012144f1b7a61bc084e2eaa5",
            "0x000000000000000000000000ebdd6589f25d30ba41c0024936e662fb53909e8a"
          ],
          "data": "0x00000000000000000000000049d2da22aee28f3111a85f4b4b6cb53c5c37966900000000000000000000000000000000000000000000000000000000000000a8",
          "blockHash": "0xee17d65cc3b7cc8ba6cd916a3e53c90b5ad571fdfe7a0727c1f7c7f0850c2bdd",
          "blockNumber": "0xf7c1b3",
          "transactionHash": "0x67edb20ea46e757d776a827e7c320f49d1e40194738d930eca6a7aa3dae6460f",
          "transactionIndex": "0x39",
          "logIndex": "0x16e",
          "removed": false
        }
      ],
      "logsBloom": "0x00000000000000000000000040000000000000000000400000000000000000000000010040000000000000000000000000000000000000000000000000000000000000000000000080000008000000000000000000000000000000000000000000000000020100000000000000000800000040000100000000000010000000080010000000000000000000000100000000000000000000000000000000000100000000000000000000000000000000000000000000000000000000000000010000000002000000000000000000000000000000000000000000000000000020000100000000000000000000000000000000200000000000000000000000000000",
      "type": "0x2",
      "transactionHash": "0x67edb20ea46e757d776a827e7c320f49d1e40194738d930eca6a7aa3dae6460f",
      "transactionIndex": "0x39",
      "blockHash": "0xee17d65cc3b7cc8ba6cd916a3e53c90b5ad571fdfe7a0727c1f7c7f0850c2bdd",
      "blockNumber": "0xf7c1b3",
      "gasUsed": "0x17371",
      "effectiveGasPrice": "0xb92a20",
      "from": "0x027a5ce58fc466d0e3a9d1990404354029398541",
      "to": "0x49d2da22aee28f3111a85f4b4b6cb53c5c379669",
      "contractAddress": null,
      "l1Fee": "0x3cd4fd517",
      "l1GasPrice": "0x170f573f0",
      "l1GasUsed": "0x95c"
    },
    {
      "status": "0x1",
      "cumulativeGasUsed": "0x100c1a6",
      "logs": [
        {
          "address": "0x49d2da22aee28f3111a85f4b4b6cb53c5c379669",
          "topics": [
            "0xddf252ad1be2c89b69c2b068fc378daa952ba7f163c4a11628f55a4df523b3ef",
            "0x0000000000000000000000000000000000000000000000000000000000000000",
            "0x0000000000000000000000006c1298e088d1eee8e2df160d3ce7ed4b67b12a3d",
            "0x00000000000000000000000000000000000000000000000000000000000000a9"
          ],
          "data": "0x",
          "blockHash": "0xee17d65cc3b7cc8ba6cd916a3e53c90b5ad571fdfe7a0727c1f7c7f0850c2bdd",
          "blockNumber": "0xf7c1b3",
          "transactionHash": "0x22ba1d841b95eafe80cd7a29928adb468ee34d536fa69220c983370fe7272d90",
          "transactionIndex": "0x3a",
          "logIndex": "0x16f",
          "removed": false
        },
        {
          "address": "0x49d2da22aee28f3111a85f4b4b6cb53c5c379669",
          "topics": [
            "0xa0038d61ac7f17fe47f8776a0cf1e4845408cdca012144f1b7a61bc084e2eaa5",
            "0x00000000000000000000000079df8693c005a69f995552cfb80765ac4186d074"
          ],
          "data": "0x00000000000000000000000049d2da22aee28f3111a85f4b4b6cb53c5c37966900000000000000000000000000000000000000000000000000000000000000a9",
          "blockHash": "0xee17d65cc3b7cc8ba6cd916a3e53c90b5ad571fdfe7a0727c1f7c7f0850c2bdd",
          "blockNumber": "0xf7c1b3",
          "transactionHash": "0x22ba1d841b95eafe80cd7a29928adb468ee34d536fa69220c983370fe7272d90",
          "transactionIndex": "0x3a",
          "logIndex": "0x170",
          "removed": false
        }
      ],
      "logsBloom": "0x00000000000000000000000040000000080000000000000000000000000000000000000040000000000000000000000000000000000000000000000000080000000000000000000000000008000000000000000000000000000000000000000000000000020000000000000000000800000000000100008000000010000000000010000000000000000010010020000000000000000000000000000000000100000000000000000000000000000000000000000000000000000000000000000000000002000000000000000000000000000000000000000080000000000020000000000000000000000000000000010000200000000000000000000000000000",
      "type": "0x2",
      "transactionHash": "0x22ba1d841b95eafe80cd7a29928adb468ee34d536fa69220c983370fe7272d90",
      "transactionIndex": "0x3a",
      "blockHash": "0xee17d65cc3b7cc8ba6cd916a3e53c90b5ad571fdfe7a0727c1f7c7f0850c2bdd",
      "blockNumber": "0xf7c1b3",
      "gasUsed": "0x130a5",
      "effectiveGasPrice": "0xb92a20",
      "from": "0x027a5ce58fc466d0e3a9d1990404354029398541",
      "to": "0x49d2da22aee28f3111a85f4b4b6cb53c5c379669",
      "contractAddress": null,
      "l1Fee": "0x3c86fe9d2",
      "l1GasPrice": "0x170f573f0",
      "l1GasUsed": "0x950"
    },
    {
      "status": "0x1",
      "cumulativeGasUsed": "0x101f24b",
      "logs": [
        {
          "address": "0x49d2da22aee28f3111a85f4b4b6cb53c5c379669",
          "topics": [
            "0xddf252ad1be2c89b69c2b068fc378daa952ba7f163c4a11628f55a4df523b3ef",
            "0x0000000000000000000000000000000000000000000000000000000000000000",
            "0x00000000000000000000000003f2efdcb4bf042edcebe7c2a22c8fcdb7e0af76",
            "0x00000000000000000000000000000000000000000000000000000000000000aa"
          ],
          "data": "0x",
          "blockHash": "0xee17d65cc3b7cc8ba6cd916a3e53c90b5ad571fdfe7a0727c1f7c7f0850c2bdd",
          "blockNumber": "0xf7c1b3",
          "transactionHash": "0x133c678f6b3a99773a54d6a49adf88d0fa9a5c830b8fe19cecbca3b003b07534",
          "transactionIndex": "0x3b",
          "logIndex": "0x171",
          "removed": false
        },
        {
          "address": "0x49d2da22aee28f3111a85f4b4b6cb53c5c379669",
          "topics": [
            "0xa0038d61ac7f17fe47f8776a0cf1e4845408cdca012144f1b7a61bc084e2eaa5",
            "0x0000000000000000000000006fa07a1943674b8c34ed8e839968c87d292794c7"
          ],
          "data": "0x00000000000000000000000049d2da22aee28f3111a85f4b4b6cb53c5c37966900000000000000000000000000000000000000000000000000000000000000aa",
          "blockHash": "0xee17d65cc3b7cc8ba6cd916a3e53c90b5ad571fdfe7a0727c1f7c7f0850c2bdd",
          "blockNumber": "0xf7c1b3",
          "transactionHash": "0x133c678f6b3a99773a54d6a49adf88d0fa9a5c830b8fe19cecbca3b003b07534",
          "transactionIndex": "0x3b",
          "logIndex": "0x172",
          "removed": false
        }
      ],
      "logsBloom": "0x00000000000000000000000040000000000000000000000000000000000000000000000040000000000000000000000000000000000000000000000000000000000002000000000000000008000000000000000000000000000000000000200000000000021000000000000000000800040000000100000000000010000000000010000100000000000004000000000000000000000000000000000000000100000000000000000000000000000000000000000000000000000040000000000000000002000000000000000000020000000000000000000000000000000020000000000000000000000000000000000000200000000000000000000000000000",
      "type": "0x2",
      "transactionHash": "0x133c678f6b3a99773a54d6a49adf88d0fa9a5c830b8fe19cecbca3b003b07534",
      "transactionIndex": "0x3b",
      "blockHash": "0xee17d65cc3b7cc8ba6cd916a3e53c90b5ad571fdfe7a0727c1f7c7f0850c2bdd",
      "blockNumber": "0xf7c1b3",
      "gasUsed": "0x130a5",
      "effectiveGasPrice": "0xb92a20",
      "from": "0x027a5ce58fc466d0e3a9d1990404354029398541",
      "to": "0x49d2da22aee28f3111a85f4b4b6cb53c5c379669",
      "contractAddress": null,
      "l1Fee": "0x3cd4fd517",
      "l1GasPrice": "0x170f573f0",
      "l1GasUsed": "0x95c"
    },
    {
      "status": "0x1",
      "cumulativeGasUsed": "0x10365bc",
      "logs": [
        {
          "address": "0x49d2da22aee28f3111a85f4b4b6cb53c5c379669",
          "topics": [
            "0xddf252ad1be2c89b69c2b068fc378daa952ba7f163c4a11628f55a4df523b3ef",
            "0x0000000000000000000000000000000000000000000000000000000000000000",
            "0x0000000000000000000000003f4c9ae42cf07d38c0f8e597125bfc1485057b68",
            "0x00000000000000000000000000000000000000000000000000000000000000ab"
          ],
          "data": "0x",
          "blockHash": "0xee17d65cc3b7cc8ba6cd916a3e53c90b5ad571fdfe7a0727c1f7c7f0850c2bdd",
          "blockNumber": "0xf7c1b3",
          "transactionHash": "0x88c7b19d2b7ee6d4c3b570b3f9b027c88d4df5f44c1237be1531f804939ae764",
          "transactionIndex": "0x3c",
          "logIndex": "0x173",
          "removed": false
        },
        {
          "address": "0x49d2da22aee28f3111a85f4b4b6cb53c5c379669",
          "topics": [
            "0xa0038d61ac7f17fe47f8776a0cf1e4845408cdca012144f1b7a61bc084e2eaa5",
            "0x000000000000000000000000108bdcd8b4d4066b2a8ac16ac7b12f19da660dc4"
          ],
          "data": "0x00000000000000000000000049d2da22aee28f3111a85f4b4b6cb53c5c37966900000000000000000000000000000000000000000000000000000000000000ab",
          "blockHash": "0xee17d65cc3b7cc8ba6cd916a3e53c90b5ad571fdfe7a0727c1f7c7f0850c2bdd",
          "blockNumber": "0xf7c1b3",
          "transactionHash": "0x88c7b19d2b7ee6d4c3b570b3f9b027c88d4df5f44c1237be1531f804939ae764",
          "transactionIndex": "0x3c",
          "logIndex": "0x174",
          "removed": false
        }
      ],
      "logsBloom": "0x00000000000000000000000040000000000000000000000000000000000000000000000040400000000000000400000000000000000000000000000000000000000000008000000000000008000000000000000000000000000000000000000000000000020000000000000000000800000000000100000100800014000000000010000000000000000000000000000000000000000000000000000000000100000000000000040000000000000000000000000100000000000000000000000000000002000000000000000000000000000000000008000000000000000020000000000000000000000000000000000000200000000000000000000000000000",
      "type": "0x2",
      "transactionHash": "0x88c7b19d2b7ee6d4c3b570b3f9b027c88d4df5f44c1237be1531f804939ae764",
      "transactionIndex": "0x3c",
      "blockHash": "0xee17d65cc3b7cc8ba6cd916a3e53c90b5ad571fdfe7a0727c1f7c7f0850c2bdd",
      "blockNumber": "0xf7c1b3",
      "gasUsed": "0x17371",
      "effectiveGasPrice": "0xb92a20",
      "from": "0x027a5ce58fc466d0e3a9d1990404354029398541",
      "to": "0x49d2da22aee28f3111a85f4b4b6cb53c5c379669",
      "contractAddress": null,
      "l1Fee": "0x3cd4fd517",
      "l1GasPrice": "0x170f573f0",
      "l1GasUsed": "0x95c"
    },
    {
      "status": "0x1",
      "cumulativeGasUsed": "0x1048c9d",
      "logs": [
        {
          "address": "0x49d2da22aee28f3111a85f4b4b6cb53c5c379669",
          "topics": [
            "0xddf252ad1be2c89b69c2b068fc378daa952ba7f163c4a11628f55a4df523b3ef",
            "0x0000000000000000000000000000000000000000000000000000000000000000",
            "0x000000000000000000000000027a5ce58fc466d0e3a9d1990404354029398541",
            "0x00000000000000000000000000000000000000000000000000000000000000ac"
          ],
          "data": "0x",
          "blockHash": "0xee17d65cc3b7cc8ba6cd916a3e53c90b5ad571fdfe7a0727c1f7c7f0850c2bdd",
          "blockNumber": "0xf7c1b3",
          "transactionHash": "0xe02dd578e688ff0bddb55faffcb8c1b05cd9ad79de4b00962de564886516d21d",
          "transactionIndex": "0x3d",
          "logIndex": "0x175",
          "removed": false
        },
        {
          "address": "0x49d2da22aee28f3111a85f4b4b6cb53c5c379669",
          "topics": [
            "0xa0038d61ac7f17fe47f8776a0cf1e4845408cdca012144f1b7a61bc084e2eaa5",
            "0x000000000000000000000000788b7b07c82bf9d283c6350e5b5c7cb11fc299fe"
          ],
          "data": "0x00000000000000000000000049d2da22aee28f3111a85f4b4b6cb53c5c37966900000000000000000000000000000000000000000000000000000000000000ac",
          "blockHash": "0xee17d65cc3b7cc8ba6cd916a3e53c90b5ad571fdfe7a0727c1f7c7f0850c2bdd",
          "blockNumber": "0xf7c1b3",
          "transactionHash": "0xe02dd578e688ff0bddb55faffcb8c1b05cd9ad79de4b00962de564886516d21d",
          "transactionIndex": "0x3d",
          "logIndex": "0x176",
          "removed": false
        }
      ],
      "logsBloom": "0x00000000000000000000000040000000000002000000000000000000000000000000000040000000000000000000000000000000000000000000000000000000000000000000000000000008840000000000000000000000000000000000000000000000020000000000000000000800000000000100000000000010000000000010000000001400000000000000000000000000000000000000000000000100020000000000000200000000000000000000000000000000000000000000040000000002000000000000000000000000000000000000000000000000000020000000000000000000100000000000000000200000000000000000000000000000",
      "type": "0x2",
      "transactionHash": "0xe02dd578e688ff0bddb55faffcb8c1b05cd9ad79de4b00962de564886516d21d",
      "transactionIndex": "0x3d",
      "blockHash": "0xee17d65cc3b7cc8ba6cd916a3e53c90b5ad571fdfe7a0727c1f7c7f0850c2bdd",
      "blockNumber": "0xf7c1b3",
      "gasUsed": "0x126e1",
      "effectiveGasPrice": "0xb92a20",
      "from": "0x027a5ce58fc466d0e3a9d1990404354029398541",
      "to": "0x49d2da22aee28f3111a85f4b4b6cb53c5c379669",
      "contractAddress": null,
      "l1Fee": "0x3c86fe9d2",
      "l1GasPrice": "0x170f573f0",
      "l1GasUsed": "0x950"
    },
    {
      "status": "0x1",
      "cumulativeGasUsed": "0x105bd42",
      "logs": [
        {
          "address": "0x49d2da22aee28f3111a85f4b4b6cb53c5c379669",
          "topics": [
            "0xddf252ad1be2c89b69c2b068fc378daa952ba7f163c4a11628f55a4df523b3ef",
            "0x0000000000000000000000000000000000000000000000000000000000000000",
            "0x0000000000000000000000000ef61626449e4c3430cfe7f06a6405d26b3b021c",
            "0x00000000000000000000000000000000000000000000000000000000000000ad"
          ],
          "data": "0x",
          "blockHash": "0xee17d65cc3b7cc8ba6cd916a3e53c90b5ad571fdfe7a0727c1f7c7f0850c2bdd",
          "blockNumber": "0xf7c1b3",
          "transactionHash": "0x54068a441a32f56b2ae82c877ad76d499234f6a7ec71e525c7094353c5dbd77e",
          "transactionIndex": "0x3e",
          "logIndex": "0x177",
          "removed": false
        },
        {
          "address": "0x49d2da22aee28f3111a85f4b4b6cb53c5c379669",
          "topics": [
            "0xa0038d61ac7f17fe47f8776a0cf1e4845408cdca012144f1b7a61bc084e2eaa5",
            "0x0000000000000000000000008ab6eb3ece1c64f904e6922a708c6a31b558f165"
          ],
          "data": "0x00000000000000000000000049d2da22aee28f3111a85f4b4b6cb53c5c37966900000000000000000000000000000000000000000000000000000000000000ad",
          "blockHash": "0xee17d65cc3b7cc8ba6cd916a3e53c90b5ad571fdfe7a0727c1f7c7f0850c2bdd",
          "blockNumber": "0xf7c1b3",
          "transactionHash": "0x54068a441a32f56b2ae82c877ad76d499234f6a7ec71e525c7094353c5dbd77e",
          "transactionIndex": "0x3e",
          "logIndex": "0x178",
          "removed": false
        }
      ],
      "logsBloom": "0x00000000000000000000000040000000000000000000000000000000000000000000000040000000000000000000000000000000000000000000200000000000000000080000000000000008000000000040000001000000000000000000000000000040020000000000000000000800000000000100000100000010000000000010000000000000000000000000000000000000000000000000000000000100040000000000000000000000000000000000000000000000000000000000000000000002000000000000200000000000000000000000000000000000000020000000000000000000000000000000000000200000000000000000000000000008",
      "type": "0x2",
      "transactionHash": "0x54068a441a32f56b2ae82c877ad76d499234f6a7ec71e525c7094353c5dbd77e",
      "transactionIndex": "0x3e",
      "blockHash": "0xee17d65cc3b7cc8ba6cd916a3e53c90b5ad571fdfe7a0727c1f7c7f0850c2bdd",
      "blockNumber": "0xf7c1b3",
      "gasUsed": "0x130a5",
      "effectiveGasPrice": "0xb92a20",
      "from": "0x027a5ce58fc466d0e3a9d1990404354029398541",
      "to": "0x49d2da22aee28f3111a85f4b4b6cb53c5c379669",
      "contractAddress": null,
      "l1Fee": "0x3c86fe9d2",
      "l1GasPrice": "0x170f573f0",
      "l1GasUsed": "0x950"
    },
    {
      "status": "0x1",
      "cumulativeGasUsed": "0x106ede7",
      "logs": [
        {
          "address": "0x49d2da22aee28f3111a85f4b4b6cb53c5c379669",
          "topics": [
            "0xddf252ad1be2c89b69c2b068fc378daa952ba7f163c4a11628f55a4df523b3ef",
            "0x0000000000000000000000000000000000000000000000000000000000000000",
            "0x0000000000000000000000000f927974e4c2e952cabc1fa6be88155402492a7c",
            "0x00000000000000000000000000000000000000000000000000000000000000ae"
          ],
          "data": "0x",
          "blockHash": "0xee17d65cc3b7cc8ba6cd916a3e53c90b5ad571fdfe7a0727c1f7c7f0850c2bdd",
          "blockNumber": "0xf7c1b3",
          "transactionHash": "0x50b47147e08730aa05d0b2f97dcebb0ab58ae88b85c6d3eee0658e4e3f46dd91",
          "transactionIndex": "0x3f",
          "logIndex": "0x179",
          "removed": false
        },
        {
          "address": "0x49d2da22aee28f3111a85f4b4b6cb53c5c379669",
          "topics": [
            "0xa0038d61ac7f17fe47f8776a0cf1e4845408cdca012144f1b7a61bc084e2eaa5",
            "0x0000000000000000000000007361048cab8f57cf00ae68248bfc01dac6dc7851"
          ],
          "data": "0x00000000000000000000000049d2da22aee28f3111a85f4b4b6cb53c5c37966900000000000000000000000000000000000000000000000000000000000000ae",
          "blockHash": "0xee17d65cc3b7cc8ba6cd916a3e53c90b5ad571fdfe7a0727c1f7c7f0850c2bdd",
          "blockNumber": "0xf7c1b3",
          "transactionHash": "0x50b47147e08730aa05d0b2f97dcebb0ab58ae88b85c6d3eee0658e4e3f46dd91",
          "transactionIndex": "0x3f",
          "logIndex": "0x17a",
          "removed": false
        }
      ],
      "logsBloom": "0x00000000000000000000000040000000000000002000000000000000000000000000000040000000000000000000000020000000000100000000000000000000000000000000008080000008000000000000000000000000000000000000000000000000020000000000000000000800000000000100000000000010000000000010000000000000000000000001000000000000000000000000000000000100000000000000000000000000000000000000000000000000000000000000000000000002000000000000000000000000000000000000000800000000000020000000000080000000000000000000000000200000000000000000000000008000",
      "type": "0x2",
      "transactionHash": "0x50b47147e08730aa05d0b2f97dcebb0ab58ae88b85c6d3eee0658e4e3f46dd91",
      "transactionIndex": "0x3f",
      "blockHash": "0xee17d65cc3b7cc8ba6cd916a3e53c90b5ad571fdfe7a0727c1f7c7f0850c2bdd",
      "blockNumber": "0xf7c1b3",
      "gasUsed": "0x130a5",
      "effectiveGasPrice": "0xb92a20",
      "from": "0x027a5ce58fc466d0e3a9d1990404354029398541",
      "to": "0x49d2da22aee28f3111a85f4b4b6cb53c5c379669",
      "contractAddress": null,
      "l1Fee": "0x3cd4fd517",
      "l1GasPrice": "0x170f573f0",
      "l1GasUsed": "0x95c"
    },
    {
      "status": "0x1",
      "cumulativeGasUsed": "0x8abc57",
      "logs": [
        {
          "address": "0x49d2da22aee28f3111a85f4b4b6cb53c5c379669",
          "topics": [
            "0xddf252ad1be2c89b69c2b068fc378daa952ba7f163c4a11628f55a4df523b3ef",
            "0x0000000000000000000000000000000000000000000000000000000000000000",
            "0x0000000000000000000000001518f887cfe0907bf86a627bc3e82e2b23faf18f",
            "0x00000000000000000000000000000000000000000000000000000000000000af"
          ],
          "data": "0x",
          "blockHash": "0x6adbbe2ea87791302a66477f7a04117e299de8f8642181c90b47449966f6fa22",
          "blockNumber": "0xf7c1b5",
          "transactionHash": "0xa097fba2b025233d2bf812c9155776ae698d0d3c5f0fdc802459b1a2d125b04a",
          "transactionIndex": "0x30",
          "logIndex": "0xbb",
          "removed": false
        },
        {
          "address": "0x49d2da22aee28f3111a85f4b4b6cb53c5c379669",
          "topics": [
            "0xa0038d61ac7f17fe47f8776a0cf1e4845408cdca012144f1b7a61bc084e2eaa5",
            "0x000000000000000000000000ae667f11c89cce29c1e3ac8142bb9f31a2ff5250"
          ],
          "data": "0x00000000000000000000000049d2da22aee28f3111a85f4b4b6cb53c5c37966900000000000000000000000000000000000000000000000000000000000000af",
          "blockHash": "0x6adbbe2ea87791302a66477f7a04117e299de8f8642181c90b47449966f6fa22",
          "blockNumber": "0xf7c1b5",
          "transactionHash": "0xa097fba2b025233d2bf812c9155776ae698d0d3c5f0fdc802459b1a2d125b04a",
          "transactionIndex": "0x30",
          "logIndex": "0xbc",
          "removed": false
        }
      ],
      "logsBloom": "0x00000000000000000000000040000000000000000000000000000000000000000200000040000000000000000000000000000000000000000000000000000000000000000000000000000008000000000000000000000080000000000000000000000000020000000000000000000800000000000100000002000010002000000010000000000000000000400000000000000000000000000000000000000100000000000000000000000000000000000000000000000000000000000000002000000002000000000000000000000000000000000000000000000000000020000000000000000001000000208000000000200000000000000000000000000000",
      "type": "0x2",
      "transactionHash": "0xa097fba2b025233d2bf812c9155776ae698d0d3c5f0fdc802459b1a2d125b04a",
      "transactionIndex": "0x30",
      "blockHash": "0x6adbbe2ea87791302a66477f7a04117e299de8f8642181c90b47449966f6fa22",
      "blockNumber": "0xf7c1b5",
      "gasUsed": "0x17371",
      "effectiveGasPrice": "0xb94408",
      "from": "0x027a5ce58fc466d0e3a9d1990404354029398541",
      "to": "0x49d2da22aee28f3111a85f4b4b6cb53c5c379669",
      "contractAddress": null,
      "l1Fee": "0x382684fec",
      "l1GasPrice": "0x154907aff",
      "l1GasUsed": "0x95c"
    },
    {
      "status": "0x1",
      "cumulativeGasUsed": "0x8c2fc8",
      "logs": [
        {
          "address": "0x49d2da22aee28f3111a85f4b4b6cb53c5c379669",
          "topics": [
            "0xddf252ad1be2c89b69c2b068fc378daa952ba7f163c4a11628f55a4df523b3ef",
            "0x0000000000000000000000000000000000000000000000000000000000000000",
            "0x00000000000000000000000020d85b27150c4e7cf39a3b28e8d77b568b6dc530",
            "0x00000000000000000000000000000000000000000000000000000000000000b0"
          ],
          "data": "0x",
          "blockHash": "0x6adbbe2ea87791302a66477f7a04117e299de8f8642181c90b47449966f6fa22",
          "blockNumber": "0xf7c1b5",
          "transactionHash": "0x75edce9f0e41c8f0111193e52fcb5b4cd1ccee1cab74a70395c1d4dd9e1e3f8d",
          "transactionIndex": "0x31",
          "logIndex": "0xbd",
          "removed": false
        },
        {
          "address": "0x49d2da22aee28f3111a85f4b4b6cb53c5c379669",
          "topics": [
            "0xa0038d61ac7f17fe47f8776a0cf1e4845408cdca012144f1b7a61bc084e2eaa5",
            "0x00000000000000000000000049d4f1b22c453336f9767b4d5e8dac53dd312e16"
          ],
          "data": "0x00000000000000000000000049d2da22aee28f3111a85f4b4b6cb53c5c37966900000000000000000000000000000000000000000000000000000000000000b0",
          "blockHash": "0x6adbbe2ea87791302a66477f7a04117e299de8f8642181c90b47449966f6fa22",
          "blockNumber": "0xf7c1b5",
          "transactionHash": "0x75edce9f0e41c8f0111193e52fcb5b4cd1ccee1cab74a70395c1d4dd9e1e3f8d",
          "transactionIndex": "0x31",
          "logIndex": "0xbe",
          "removed": false
        }
      ],
      "logsBloom": "0x00000000000000000000000040000000000000000000000000000000000000000000000040000000000000004000000000000000000100000000000000000000000000000000000000000008000000000000000000000000000000000000000000000000020000000000000000000800000000000100800000000010000000000010000000000000000000000000080000000000000000000000000000000100000000000000000000080000000000000000000000000000000000000000000000000002000000000000000000000000000000000000000000000000000020000000000000010000000000000000001001200400000000000000000000000000",
      "type": "0x2",
      "transactionHash": "0x75edce9f0e41c8f0111193e52fcb5b4cd1ccee1cab74a70395c1d4dd9e1e3f8d",
      "transactionIndex": "0x31",
      "blockHash": "0x6adbbe2ea87791302a66477f7a04117e299de8f8642181c90b47449966f6fa22",
      "blockNumber": "0xf7c1b5",
      "gasUsed": "0x17371",
      "effectiveGasPrice": "0xb94408",
      "from": "0x027a5ce58fc466d0e3a9d1990404354029398541",
      "to": "0x49d2da22aee28f3111a85f4b4b6cb53c5c379669",
      "contractAddress": null,
      "l1Fee": "0x37de86e4b",
      "l1GasPrice": "0x154907aff",
      "l1GasUsed": "0x950"
    },
    {
      "status": "0x1",
      "cumulativeGasUsed": "0x8da339",
      "logs": [
        {
          "address": "0x49d2da22aee28f3111a85f4b4b6cb53c5c379669",
          "topics": [
            "0xddf252ad1be2c89b69c2b068fc378daa952ba7f163c4a11628f55a4df523b3ef",
            "0x0000000000000000000000000000000000000000000000000000000000000000",
            "0x0000000000000000000000002196b9fe1117df9324108d82dffc849492c23c14",
            "0x00000000000000000000000000000000000000000000000000000000000000b1"
          ],
          "data": "0x",
          "blockHash": "0x6adbbe2ea87791302a66477f7a04117e299de8f8642181c90b47449966f6fa22",
          "blockNumber": "0xf7c1b5",
          "transactionHash": "0x859cd5705f3d2bd34352de085a717a0be524343551b733e47efbaa383c137b94",
          "transactionIndex": "0x32",
          "logIndex": "0xbf",
          "removed": false
        },
        {
          "address": "0x49d2da22aee28f3111a85f4b4b6cb53c5c379669",
          "topics": [
            "0xa0038d61ac7f17fe47f8776a0cf1e4845408cdca012144f1b7a61bc084e2eaa5",
            "0x000000000000000000000000c33aa668ca05b5601e8f80d56c2d5978a98acb06"
          ],
          "data": "0x00000000000000000000000049d2da22aee28f3111a85f4b4b6cb53c5c37966900000000000000000000000000000000000000000000000000000000000000b1",
          "blockHash": "0x6adbbe2ea87791302a66477f7a04117e299de8f8642181c90b47449966f6fa22",
          "blockNumber": "0xf7c1b5",
          "transactionHash": "0x859cd5705f3d2bd34352de085a717a0be524343551b733e47efbaa383c137b94",
          "transactionIndex": "0x32",
          "logIndex": "0xc0",
          "removed": false
        }
      ],
      "logsBloom": "0x00000000000000000000000040000000000000000000000000000000000000000000000040000000000000000000000080000000000000000000000000000000000000000000000000000008000000000000000000000000000000000000000000000000020009000000000000000800000000000100000000000010000000000010000000000000000000000000000000008000000004000000000000000100000000000000000000000000000000000000000000000000000000000000000000000002000000000000000000000000000000001000000000020000000020000000000000000000000000000000400000200000000400000000000000000000",
      "type": "0x2",
      "transactionHash": "0x859cd5705f3d2bd34352de085a717a0be524343551b733e47efbaa383c137b94",
      "transactionIndex": "0x32",
      "blockHash": "0x6adbbe2ea87791302a66477f7a04117e299de8f8642181c90b47449966f6fa22",
      "blockNumber": "0xf7c1b5",
      "gasUsed": "0x17371",
      "effectiveGasPrice": "0xb94408",
      "from": "0x027a5ce58fc466d0e3a9d1990404354029398541",
      "to": "0x49d2da22aee28f3111a85f4b4b6cb53c5c379669",
      "contractAddress": null,
      "l1Fee": "0x382684fec",
      "l1GasPrice": "0x154907aff",
      "l1GasUsed": "0x95c"
    },
    {
      "status": "0x1",
      "cumulativeGasUsed": "0x8f16aa",
      "logs": [
        {
          "address": "0x49d2da22aee28f3111a85f4b4b6cb53c5c379669",
          "topics": [
            "0xddf252ad1be2c89b69c2b068fc378daa952ba7f163c4a11628f55a4df523b3ef",
            "0x0000000000000000000000000000000000000000000000000000000000000000",
            "0x00000000000000000000000026bc0497a31d570a290edec354d95b3d8c797a1a",
            "0x00000000000000000000000000000000000000000000000000000000000000b2"
          ],
          "data": "0x",
          "blockHash": "0x6adbbe2ea87791302a66477f7a04117e299de8f8642181c90b47449966f6fa22",
          "blockNumber": "0xf7c1b5",
          "transactionHash": "0x4206300264b740603fccedc9bcb7048fba86af30911cd45c1a7b9a156b1fd41f",
          "transactionIndex": "0x33",
          "logIndex": "0xc1",
          "removed": false
        },
        {
          "address": "0x49d2da22aee28f3111a85f4b4b6cb53c5c379669",
          "topics": [
            "0xa0038d61ac7f17fe47f8776a0cf1e4845408cdca012144f1b7a61bc084e2eaa5",
            "0x0000000000000000000000004fabcbaca58f3033acbb27ebcab18a7495b31aca"
          ],
          "data": "0x00000000000000000000000049d2da22aee28f3111a85f4b4b6cb53c5c37966900000000000000000000000000000000000000000000000000000000000000b2",
          "blockHash": "0x6adbbe2ea87791302a66477f7a04117e299de8f8642181c90b47449966f6fa22",
          "blockNumber": "0xf7c1b5",
          "transactionHash": "0x4206300264b740603fccedc9bcb7048fba86af30911cd45c1a7b9a156b1fd41f",
          "transactionIndex": "0x33",
          "logIndex": "0xc2",
          "removed": false
        }
      ],
      "logsBloom": "0x00000000000000000000000240000000000000000000000000000000000000000400000040000000000000000000000000000000020000000000000000000000000000000000000040000008000000000000000000000000000000000000000000000000020000000000000000000800000000000100000000000010000000000014000000000000000000000000000000000000000000000000000000000100000000000000000000000000100000000000000000000000000000000080000000000002000000000200020000000000000000000000000000000000000020000000000000000000000000000000000000200000000000000000000000000000",
      "type": "0x2",
      "transactionHash": "0x4206300264b740603fccedc9bcb7048fba86af30911cd45c1a7b9a156b1fd41f",
      "transactionIndex": "0x33",
      "blockHash": "0x6adbbe2ea87791302a66477f7a04117e299de8f8642181c90b47449966f6fa22",
      "blockNumber": "0xf7c1b5",
      "gasUsed": "0x17371",
      "effectiveGasPrice": "0xb94408",
      "from": "0x027a5ce58fc466d0e3a9d1990404354029398541",
      "to": "0x49d2da22aee28f3111a85f4b4b6cb53c5c379669",
      "contractAddress": null,
      "l1Fee": "0x37de86e4b",
      "l1GasPrice": "0x154907aff",
      "l1GasUsed": "0x950"
    },
    {
      "status": "0x1",
      "cumulativeGasUsed": "0x90474f",
      "logs": [
        {
          "address": "0x49d2da22aee28f3111a85f4b4b6cb53c5c379669",
          "topics": [
            "0xddf252ad1be2c89b69c2b068fc378daa952ba7f163c4a11628f55a4df523b3ef",
            "0x0000000000000000000000000000000000000000000000000000000000000000",
            "0x0000000000000000000000002799aa9a16592847fe8314fd6072a516402557ea",
            "0x00000000000000000000000000000000000000000000000000000000000000b3"
          ],
          "data": "0x",
          "blockHash": "0x6adbbe2ea87791302a66477f7a04117e299de8f8642181c90b47449966f6fa22",
          "blockNumber": "0xf7c1b5",
          "transactionHash": "0xb5d9a965b40424b02a45a25ade7f3b2cdc5db6cd5a28f5dcb0ba191da45493af",
          "transactionIndex": "0x34",
          "logIndex": "0xc3",
          "removed": false
        },
        {
          "address": "0x49d2da22aee28f3111a85f4b4b6cb53c5c379669",
          "topics": [
            "0xa0038d61ac7f17fe47f8776a0cf1e4845408cdca012144f1b7a61bc084e2eaa5",
            "0x0000000000000000000000006da65851ded5b579befa126f2a776e7410576774"
          ],
          "data": "0x00000000000000000000000049d2da22aee28f3111a85f4b4b6cb53c5c37966900000000000000000000000000000000000000000000000000000000000000b3",
          "blockHash": "0x6adbbe2ea87791302a66477f7a04117e299de8f8642181c90b47449966f6fa22",
          "blockNumber": "0xf7c1b5",
          "transactionHash": "0xb5d9a965b40424b02a45a25ade7f3b2cdc5db6cd5a28f5dcb0ba191da45493af",
          "transactionIndex": "0x34",
          "logIndex": "0xc4",
          "removed": false
        }
      ],
      "logsBloom": "0x00000000000000200000000040000000000000000000000200000000000000000000000040000080000000000000000000000000000000000000000000000000000000000000000000000008000000000000000000000000000000000000000000000000020000000000000000000800000000000100000000000010000000000010000000000000000000000000000000008000000000000000000000000100000000000000080000000000000000000000000080000000000000000000000000000002000000000000000000000000000000800000000000000000000020000000000000000000010000000000000000200000000000010000000000000000",
      "type": "0x2",
      "transactionHash": "0xb5d9a965b40424b02a45a25ade7f3b2cdc5db6cd5a28f5dcb0ba191da45493af",
      "transactionIndex": "0x34",
      "blockHash": "0x6adbbe2ea87791302a66477f7a04117e299de8f8642181c90b47449966f6fa22",
      "blockNumber": "0xf7c1b5",
      "gasUsed": "0x130a5",
      "effectiveGasPrice": "0xb94408",
      "from": "0x027a5ce58fc466d0e3a9d1990404354029398541",
      "to": "0x49d2da22aee28f3111a85f4b4b6cb53c5c379669",
      "contractAddress": null,
      "l1Fee": "0x382684fec",
      "l1GasPrice": "0x154907aff",
      "l1GasUsed": "0x95c"
    },
    {
      "status": "0x1",
      "cumulativeGasUsed": "0x91bab4",
      "logs": [
        {
          "address": "0x49d2da22aee28f3111a85f4b4b6cb53c5c379669",
          "topics": [
            "0xddf252ad1be2c89b69c2b068fc378daa952ba7f163c4a11628f55a4df523b3ef",
            "0x0000000000000000000000000000000000000000000000000000000000000000",
            "0x0000000000000000000000002826eef91a00e5cd365c36d2e9e52769c359f8e1",
            "0x00000000000000000000000000000000000000000000000000000000000000b4"
          ],
          "data": "0x",
          "blockHash": "0x6adbbe2ea87791302a66477f7a04117e299de8f8642181c90b47449966f6fa22",
          "blockNumber": "0xf7c1b5",
          "transactionHash": "0x3ed17c7759ba4f1402d9abf35fd8fbcacc7e548e220e5e0de1b12b4b28cc7b73",
          "transactionIndex": "0x35",
          "logIndex": "0xc5",
          "removed": false
        },
        {
          "address": "0x49d2da22aee28f3111a85f4b4b6cb53c5c379669",
          "topics": [
            "0xa0038d61ac7f17fe47f8776a0cf1e4845408cdca012144f1b7a61bc084e2eaa5",
            "0x000000000000000000000000a32b3482bbc722cad4a8fef8c7dd769cf80f2c5b"
          ],
          "data": "0x00000000000000000000000049d2da22aee28f3111a85f4b4b6cb53c5c37966900000000000000000000000000000000000000000000000000000000000000b4",
          "blockHash": "0x6adbbe2ea87791302a66477f7a04117e299de8f8642181c90b47449966f6fa22",
          "blockNumber": "0xf7c1b5",
          "transactionHash": "0x3ed17c7759ba4f1402d9abf35fd8fbcacc7e548e220e5e0de1b12b4b28cc7b73",
          "transactionIndex": "0x35",
          "logIndex": "0xc6",
          "removed": false
        }
      ],
      "logsBloom": "0x00001000000000000000000040000000000000000000000000000000000000000000000040000000000000000000000000000000000000000000000000000000000000000000000000000008000000000000000000000000400000000000000000000000020000440000000000000800000000008100000000000010000000000010000000000000000000000000000000000000000000000000000000000100000000000000000200000000000000000000000000000000000004000000000000000002000000000000010000000000000000000000000000000000000020000000000000000000000000000000000000200000000000400000000000000000",
      "type": "0x2",
      "transactionHash": "0x3ed17c7759ba4f1402d9abf35fd8fbcacc7e548e220e5e0de1b12b4b28cc7b73",
      "transactionIndex": "0x35",
      "blockHash": "0x6adbbe2ea87791302a66477f7a04117e299de8f8642181c90b47449966f6fa22",
      "blockNumber": "0xf7c1b5",
      "gasUsed": "0x17365",
      "effectiveGasPrice": "0xb94408",
      "from": "0x027a5ce58fc466d0e3a9d1990404354029398541",
      "to": "0x49d2da22aee28f3111a85f4b4b6cb53c5c379669",
      "contractAddress": null,
      "l1Fee": "0x379688caa",
      "l1GasPrice": "0x154907aff",
      "l1GasUsed": "0x944"
    },
    {
      "status": "0x1",
      "cumulativeGasUsed": "0x92eb59",
      "logs": [
        {
          "address": "0x49d2da22aee28f3111a85f4b4b6cb53c5c379669",
          "topics": [
            "0xddf252ad1be2c89b69c2b068fc378daa952ba7f163c4a11628f55a4df523b3ef",
            "0x0000000000000000000000000000000000000000000000000000000000000000",
            "0x0000000000000000000000002872a7e0fceb3975cbbdc36a81d678941977727c",
            "0x00000000000000000000000000000000000000000000000000000000000000b5"
          ],
          "data": "0x",
          "blockHash": "0x6adbbe2ea87791302a66477f7a04117e299de8f8642181c90b47449966f6fa22",
          "blockNumber": "0xf7c1b5",
          "transactionHash": "0xfa4e3bec03ecb63b12633d1e9a7b84e5a94b234e4147cae1a550290c46d806d4",
          "transactionIndex": "0x36",
          "logIndex": "0xc7",
          "removed": false
        },
        {
          "address": "0x49d2da22aee28f3111a85f4b4b6cb53c5c379669",
          "topics": [
            "0xa0038d61ac7f17fe47f8776a0cf1e4845408cdca012144f1b7a61bc084e2eaa5",
            "0x0000000000000000000000006bf0c277ee20aa375341dae4aed04350e46cb68d"
          ],
          "data": "0x00000000000000000000000049d2da22aee28f3111a85f4b4b6cb53c5c37966900000000000000000000000000000000000000000000000000000000000000b5",
          "blockHash": "0x6adbbe2ea87791302a66477f7a04117e299de8f8642181c90b47449966f6fa22",
          "blockNumber": "0xf7c1b5",
          "transactionHash": "0xfa4e3bec03ecb63b12633d1e9a7b84e5a94b234e4147cae1a550290c46d806d4",
          "transactionIndex": "0x36",
          "logIndex": "0xc8",
          "removed": false
        }
      ],
      "logsBloom": "0x00000000000000000000000040010000000000008000000000000000000000000000000040000000000400000000000010000000000000000012000000000000000000000000000000080008000000000010000000000000000000000000000000000000020000000000000000000800000000000100000000000010000000000010000000000000000000000000000000000000000000000000000000000100000000000000000001000000000000000000000000000000000000000000000000000002000000000000000000000000000000000000000000000000000020000000000000000000000000000000000000200000000000000000000000000000",
      "type": "0x2",
      "transactionHash": "0xfa4e3bec03ecb63b12633d1e9a7b84e5a94b234e4147cae1a550290c46d806d4",
      "transactionIndex": "0x36",
      "blockHash": "0x6adbbe2ea87791302a66477f7a04117e299de8f8642181c90b47449966f6fa22",
      "blockNumber": "0xf7c1b5",
      "gasUsed": "0x130a5",
      "effectiveGasPrice": "0xb94408",
      "from": "0x027a5ce58fc466d0e3a9d1990404354029398541",
      "to": "0x49d2da22aee28f3111a85f4b4b6cb53c5c379669",
      "contractAddress": null,
      "l1Fee": "0x37de86e4b",
      "l1GasPrice": "0x154907aff",
      "l1GasUsed": "0x950"
    },
    {
      "status": "0x1",
      "cumulativeGasUsed": "0x94275f",
      "logs": [
        {
          "address": "0x49d2da22aee28f3111a85f4b4b6cb53c5c379669",
          "topics": [
            "0xddf252ad1be2c89b69c2b068fc378daa952ba7f163c4a11628f55a4df523b3ef",
            "0x0000000000000000000000000000000000000000000000000000000000000000",
            "0x0000000000000000000000002c583f391fe2c31a55fab86850544bf07f78295a",
            "0x00000000000000000000000000000000000000000000000000000000000000b6"
          ],
          "data": "0x",
          "blockHash": "0x9d85796f77efd767b72879cf6b4f507302f058ae3459e49d20deaf9ef9e4691f",
          "blockNumber": "0xf7c1b6",
          "transactionHash": "0xb4840bbd02db0a9223c4f34efbe2cdb74b0533cf351defecdc1c899bc82d794b",
          "transactionIndex": "0x32",
          "logIndex": "0xdd",
          "removed": false
        },
        {
          "address": "0x49d2da22aee28f3111a85f4b4b6cb53c5c379669",
          "topics": [
            "0xa0038d61ac7f17fe47f8776a0cf1e4845408cdca012144f1b7a61bc084e2eaa5",
            "0x000000000000000000000000057a74422ffa1ed812001e59884441d723623de1"
          ],
          "data": "0x00000000000000000000000049d2da22aee28f3111a85f4b4b6cb53c5c37966900000000000000000000000000000000000000000000000000000000000000b6",
          "blockHash": "0x9d85796f77efd767b72879cf6b4f507302f058ae3459e49d20deaf9ef9e4691f",
          "blockNumber": "0xf7c1b6",
          "transactionHash": "0xb4840bbd02db0a9223c4f34efbe2cdb74b0533cf351defecdc1c899bc82d794b",
          "transactionIndex": "0x32",
          "logIndex": "0xde",
          "removed": false
        }
      ],
      "logsBloom": "0x00000000000040000000000040000000000010000000000000000040000000000000000040000000000000000000000000000000000000000000000000000000000000000000000000000008000000000000000000000000000000000000000000000000020000000000000000000800000000000100000000000010000000000018000000000000000000000000000000000000000000000000000000000100000000800010000000000000000000000000000000400000000000000000000000000002000000000000000000000000010000000000000000000000000020000000000000000000000000000000000000a00000000000000000000000000000",
      "type": "0x2",
      "transactionHash": "0xb4840bbd02db0a9223c4f34efbe2cdb74b0533cf351defecdc1c899bc82d794b",
      "transactionIndex": "0x32",
      "blockHash": "0x9d85796f77efd767b72879cf6b4f507302f058ae3459e49d20deaf9ef9e4691f",
      "blockNumber": "0xf7c1b6",
      "gasUsed": "0x130a5",
      "effectiveGasPrice": "0xb92331",
      "from": "0x027a5ce58fc466d0e3a9d1990404354029398541",
      "to": "0x49d2da22aee28f3111a85f4b4b6cb53c5c379669",
      "contractAddress": null,
      "l1Fee": "0x382684fec",
      "l1GasPrice": "0x154907aff",
      "l1GasUsed": "0x95c"
    },
    {
      "status": "0x1",
      "cumulativeGasUsed": "0x955804",
      "logs": [
        {
          "address": "0x49d2da22aee28f3111a85f4b4b6cb53c5c379669",
          "topics": [
            "0xddf252ad1be2c89b69c2b068fc378daa952ba7f163c4a11628f55a4df523b3ef",
            "0x0000000000000000000000000000000000000000000000000000000000000000",
            "0x000000000000000000000000323fa1a506012b62f38bd4e3af12fce6d1f2254e",
            "0x00000000000000000000000000000000000000000000000000000000000000b7"
          ],
          "data": "0x",
          "blockHash": "0x9d85796f77efd767b72879cf6b4f507302f058ae3459e49d20deaf9ef9e4691f",
          "blockNumber": "0xf7c1b6",
          "transactionHash": "0x5c67aa0f0ebcca87a0d34847e74ae84477fef9790a9b7f870fb120e0b570d634",
          "transactionIndex": "0x33",
          "logIndex": "0xdf",
          "removed": false
        },
        {
          "address": "0x49d2da22aee28f3111a85f4b4b6cb53c5c379669",
          "topics": [
            "0xa0038d61ac7f17fe47f8776a0cf1e4845408cdca012144f1b7a61bc084e2eaa5",
            "0x000000000000000000000000f99aeb58013fa1f5514e200030cb9d315a3257a2"
          ],
          "data": "0x00000000000000000000000049d2da22aee28f3111a85f4b4b6cb53c5c37966900000000000000000000000000000000000000000000000000000000000000b7",
          "blockHash": "0x9d85796f77efd767b72879cf6b4f507302f058ae3459e49d20deaf9ef9e4691f",
          "blockNumber": "0xf7c1b6",
          "transactionHash": "0x5c67aa0f0ebcca87a0d34847e74ae84477fef9790a9b7f870fb120e0b570d634",
          "transactionIndex": "0x33",
          "logIndex": "0xe0",
          "removed": false
        }
      ],
      "logsBloom": "0x02000000000000000000000040000000000000000000000000000000000000000000000040000000000000000000000000000000000000000000002000000000000000000000000000000008000000000000000000000000000000000000000000000000020000000000000000000800000000000100000000000210000000000410000000000000000000000000000000000000000000008000000000000100000000000000000000000000000000000200000000000000001000000080000000000002000000000000000000000000000000000000000000000000000020001000000000000000000000000000000000200000000000000000000000000000",
      "type": "0x2",
      "transactionHash": "0x5c67aa0f0ebcca87a0d34847e74ae84477fef9790a9b7f870fb120e0b570d634",
      "transactionIndex": "0x33",
      "blockHash": "0x9d85796f77efd767b72879cf6b4f507302f058ae3459e49d20deaf9ef9e4691f",
      "blockNumber": "0xf7c1b6",
      "gasUsed": "0x130a5",
      "effectiveGasPrice": "0xb92331",
      "from": "0x027a5ce58fc466d0e3a9d1990404354029398541",
      "to": "0x49d2da22aee28f3111a85f4b4b6cb53c5c379669",
      "contractAddress": null,
      "l1Fee": "0x382684fec",
      "l1GasPrice": "0x154907aff",
      "l1GasUsed": "0x95c"
    },
    {
      "status": "0x1",
      "cumulativeGasUsed": "0x9688a9",
      "logs": [
        {
          "address": "0x49d2da22aee28f3111a85f4b4b6cb53c5c379669",
          "topics": [
            "0xddf252ad1be2c89b69c2b068fc378daa952ba7f163c4a11628f55a4df523b3ef",
            "0x0000000000000000000000000000000000000000000000000000000000000000",
            "0x0000000000000000000000003d3b623d67af0daf693a1be66739de0b66db9484",
            "0x00000000000000000000000000000000000000000000000000000000000000b8"
          ],
          "data": "0x",
          "blockHash": "0x9d85796f77efd767b72879cf6b4f507302f058ae3459e49d20deaf9ef9e4691f",
          "blockNumber": "0xf7c1b6",
          "transactionHash": "0x457286c27554c0e1a6eaf205922912cab22c99cb4dff9d15127e8c67dfe14514",
          "transactionIndex": "0x34",
          "logIndex": "0xe1",
          "removed": false
        },
        {
          "address": "0x49d2da22aee28f3111a85f4b4b6cb53c5c379669",
          "topics": [
            "0xa0038d61ac7f17fe47f8776a0cf1e4845408cdca012144f1b7a61bc084e2eaa5",
            "0x0000000000000000000000008715ce4649c155a78131b176a5ab6b40c856ac05"
          ],
          "data": "0x00000000000000000000000049d2da22aee28f3111a85f4b4b6cb53c5c37966900000000000000000000000000000000000000000000000000000000000000b8",
          "blockHash": "0x9d85796f77efd767b72879cf6b4f507302f058ae3459e49d20deaf9ef9e4691f",
          "blockNumber": "0xf7c1b6",
          "transactionHash": "0x457286c27554c0e1a6eaf205922912cab22c99cb4dff9d15127e8c67dfe14514",
          "transactionIndex": "0x34",
          "logIndex": "0xe2",
          "removed": false
        }
      ],
      "logsBloom": "0x00000000000000000000000040000000000000000000000000000000000000000000000040000000000000000000000000000000000000000000000000000000000000000000000000000008000000000000000000000000000000000000000000000000020000000000000000080800000000000100000000000010000000000010000000000000000000000000000040000000000000000000000000000100000000000000000000000001000000000000000000000000000000000000000000000002000000000020000000000000000000000000800000000000300020000002000000000080000000000000000000200000000000000000000000000000",
      "type": "0x2",
      "transactionHash": "0x457286c27554c0e1a6eaf205922912cab22c99cb4dff9d15127e8c67dfe14514",
      "transactionIndex": "0x34",
      "blockHash": "0x9d85796f77efd767b72879cf6b4f507302f058ae3459e49d20deaf9ef9e4691f",
      "blockNumber": "0xf7c1b6",
      "gasUsed": "0x130a5",
      "effectiveGasPrice": "0xb92331",
      "from": "0x027a5ce58fc466d0e3a9d1990404354029398541",
      "to": "0x49d2da22aee28f3111a85f4b4b6cb53c5c379669",
      "contractAddress": null,
      "l1Fee": "0x37de86e4b",
      "l1GasPrice": "0x154907aff",
      "l1GasUsed": "0x950"
    },
    {
      "status": "0x1",
      "cumulativeGasUsed": "0x97b94e",
      "logs": [
        {
          "address": "0x49d2da22aee28f3111a85f4b4b6cb53c5c379669",
          "topics": [
            "0xddf252ad1be2c89b69c2b068fc378daa952ba7f163c4a11628f55a4df523b3ef",
            "0x0000000000000000000000000000000000000000000000000000000000000000",
            "0x0000000000000000000000003f26cba8effde6b187875ded42dd5de9b6afb6c2",
            "0x00000000000000000000000000000000000000000000000000000000000000b9"
          ],
          "data": "0x",
          "blockHash": "0x9d85796f77efd767b72879cf6b4f507302f058ae3459e49d20deaf9ef9e4691f",
          "blockNumber": "0xf7c1b6",
          "transactionHash": "0x7b53f0ee13983d8394c8e933a04ef978f5143f8248e47e6731f62df8ef8a2cb7",
          "transactionIndex": "0x35",
          "logIndex": "0xe3",
          "removed": false
        },
        {
          "address": "0x49d2da22aee28f3111a85f4b4b6cb53c5c379669",
          "topics": [
            "0xa0038d61ac7f17fe47f8776a0cf1e4845408cdca012144f1b7a61bc084e2eaa5",
            "0x000000000000000000000000f26627e9bb2fa466d96b78c500a445d7a0f92b32"
          ],
          "data": "0x00000000000000000000000049d2da22aee28f3111a85f4b4b6cb53c5c37966900000000000000000000000000000000000000000000000000000000000000b9",
          "blockHash": "0x9d85796f77efd767b72879cf6b4f507302f058ae3459e49d20deaf9ef9e4691f",
          "blockNumber": "0xf7c1b6",
          "transactionHash": "0x7b53f0ee13983d8394c8e933a04ef978f5143f8248e47e6731f62df8ef8a2cb7",
          "transactionIndex": "0x35",
          "logIndex": "0xe4",
          "removed": false
        }
      ],
      "logsBloom": "0x00000000000000000000000040000000000000000000000000000000000000000000000040000000000000000000000000000000000000800000000000000000000000000000000000010008000000000000000000000000000000002000000000000000020000000000000000000800000000000100000000000010000000080010000000000000000000000000000000002000010000000000000000000100000000000000000000000000000000000000000000000000000400000000000000000002000000000000000000000000000000000000000000000000000020200000000000000000000000800000000000200000000000000000000000000000",
      "type": "0x2",
      "transactionHash": "0x7b53f0ee13983d8394c8e933a04ef978f5143f8248e47e6731f62df8ef8a2cb7",
      "transactionIndex": "0x35",
      "blockHash": "0x9d85796f77efd767b72879cf6b4f507302f058ae3459e49d20deaf9ef9e4691f",
      "blockNumber": "0xf7c1b6",
      "gasUsed": "0x130a5",
      "effectiveGasPrice": "0xb92331",
      "from": "0x027a5ce58fc466d0e3a9d1990404354029398541",
      "to": "0x49d2da22aee28f3111a85f4b4b6cb53c5c379669",
      "contractAddress": null,
      "l1Fee": "0x37de86e4b",
      "l1GasPrice": "0x154907aff",
      "l1GasUsed": "0x950"
    },
    {
      "status": "0x1",
      "cumulativeGasUsed": "0x98e9f3",
      "logs": [
        {
          "address": "0x49d2da22aee28f3111a85f4b4b6cb53c5c379669",
          "topics": [
            "0xddf252ad1be2c89b69c2b068fc378daa952ba7f163c4a11628f55a4df523b3ef",
            "0x0000000000000000000000000000000000000000000000000000000000000000",
            "0x000000000000000000000000427b3db6320f192fc85ebbef0eebb5546618b1a9",
            "0x00000000000000000000000000000000000000000000000000000000000000ba"
          ],
          "data": "0x",
          "blockHash": "0x9d85796f77efd767b72879cf6b4f507302f058ae3459e49d20deaf9ef9e4691f",
          "blockNumber": "0xf7c1b6",
          "transactionHash": "0x3d35a47d5d070d1cde8b71347264732b8787647c06fa2a9deb3a139729efd253",
          "transactionIndex": "0x36",
          "logIndex": "0xe5",
          "removed": false
        },
        {
          "address": "0x49d2da22aee28f3111a85f4b4b6cb53c5c379669",
          "topics": [
            "0xa0038d61ac7f17fe47f8776a0cf1e4845408cdca012144f1b7a61bc084e2eaa5",
            "0x0000000000000000000000007f5d1399c4e1eb683b8a68838d2e96247929c528"
          ],
          "data": "0x00000000000000000000000049d2da22aee28f3111a85f4b4b6cb53c5c37966900000000000000000000000000000000000000000000000000000000000000ba",
          "blockHash": "0x9d85796f77efd767b72879cf6b4f507302f058ae3459e49d20deaf9ef9e4691f",
          "blockNumber": "0xf7c1b6",
          "transactionHash": "0x3d35a47d5d070d1cde8b71347264732b8787647c06fa2a9deb3a139729efd253",
          "transactionIndex": "0x36",
          "logIndex": "0xe6",
          "removed": false
        }
      ],
      "logsBloom": "0x0000000000000000000000004000000000000000000004000000000000000000000000004000000000000000000000000000000000000000040000000000000080000000000000000000000800000000000000000000002000000000000000000000000002000000000000000000080000000000010000000000001000000000001000000000000002000000400000000000001000000000000000000000010000000000000000000000000000000000000000000000000000000000000000000000000a000000000400000000000000000000000000000000000000000020000000000000000000000000000000000000200000000000000000000000000000",
      "type": "0x2",
      "transactionHash": "0x3d35a47d5d070d1cde8b71347264732b8787647c06fa2a9deb3a139729efd253",
      "transactionIndex": "0x36",
      "blockHash": "0x9d85796f77efd767b72879cf6b4f507302f058ae3459e49d20deaf9ef9e4691f",
      "blockNumber": "0xf7c1b6",
      "gasUsed": "0x130a5",
      "effectiveGasPrice": "0xb92331",
      "from": "0x027a5ce58fc466d0e3a9d1990404354029398541",
      "to": "0x49d2da22aee28f3111a85f4b4b6cb53c5c379669",
      "contractAddress": null,
      "l1Fee": "0x382684fec",
      "l1GasPrice": "0x154907aff",
      "l1GasUsed": "0x95c"
    },
    {
      "status": "0x1",
      "cumulativeGasUsed": "0x9a1a98",
      "logs": [
        {
          "address": "0x49d2da22aee28f3111a85f4b4b6cb53c5c379669",
          "topics": [
            "0xddf252ad1be2c89b69c2b068fc378daa952ba7f163c4a11628f55a4df523b3ef",
            "0x0000000000000000000000000000000000000000000000000000000000000000",
            "0x00000000000000000000000044af32e540eb4a2a71a9e9b5e860d4019065d038",
            "0x00000000000000000000000000000000000000000000000000000000000000bb"
          ],
          "data": "0x",
          "blockHash": "0x9d85796f77efd767b72879cf6b4f507302f058ae3459e49d20deaf9ef9e4691f",
          "blockNumber": "0xf7c1b6",
          "transactionHash": "0x0201d330347f496a479269000791e6bd649cec6db7e66666794e9b2a1de60b15",
          "transactionIndex": "0x37",
          "logIndex": "0xe7",
          "removed": false
        },
        {
          "address": "0x49d2da22aee28f3111a85f4b4b6cb53c5c379669",
          "topics": [
            "0xa0038d61ac7f17fe47f8776a0cf1e4845408cdca012144f1b7a61bc084e2eaa5",
            "0x000000000000000000000000e28b8fcfe3c5314bef12fc8e4f9b196beea08345"
          ],
          "data": "0x00000000000000000000000049d2da22aee28f3111a85f4b4b6cb53c5c37966900000000000000000000000000000000000000000000000000000000000000bb",
          "blockHash": "0x9d85796f77efd767b72879cf6b4f507302f058ae3459e49d20deaf9ef9e4691f",
          "blockNumber": "0xf7c1b6",
          "transactionHash": "0x0201d330347f496a479269000791e6bd649cec6db7e66666794e9b2a1de60b15",
          "transactionIndex": "0x37",
          "logIndex": "0xe8",
          "removed": false
        }
      ],
      "logsBloom": "0x00000000000000000000000040000000000000000000000000000000000000000000000040000000000000000000000000000000000000000000000000000000000040000000000000000008000000240000000000000000000000000000000000000000020000000000000000000800000000000100000000000010000000000010000000000000000000000000000000400000000000000000000000000100000000000000000000000000000000000008000000000000000000000000000000000002000000000000000000000000000008000000000000000000000820000000000000000000000080000000000000200000000000000000000000000002",
      "type": "0x2",
      "transactionHash": "0x0201d330347f496a479269000791e6bd649cec6db7e66666794e9b2a1de60b15",
      "transactionIndex": "0x37",
      "blockHash": "0x9d85796f77efd767b72879cf6b4f507302f058ae3459e49d20deaf9ef9e4691f",
      "blockNumber": "0xf7c1b6",
      "gasUsed": "0x130a5",
      "effectiveGasPrice": "0xb92331",
      "from": "0x027a5ce58fc466d0e3a9d1990404354029398541",
      "to": "0x49d2da22aee28f3111a85f4b4b6cb53c5c379669",
      "contractAddress": null,
      "l1Fee": "0x382684fec",
      "l1GasPrice": "0x154907aff",
      "l1GasUsed": "0x95c"
    },
    {
      "status": "0x1",
      "cumulativeGasUsed": "0x9b8e09",
      "logs": [
        {
          "address": "0x49d2da22aee28f3111a85f4b4b6cb53c5c379669",
          "topics": [
            "0xddf252ad1be2c89b69c2b068fc378daa952ba7f163c4a11628f55a4df523b3ef",
            "0x0000000000000000000000000000000000000000000000000000000000000000",
            "0x00000000000000000000000049e59de5dbf06ed83116afaa0570bfe13a8d5ba7",
            "0x00000000000000000000000000000000000000000000000000000000000000bc"
          ],
          "data": "0x",
          "blockHash": "0x9d85796f77efd767b72879cf6b4f507302f058ae3459e49d20deaf9ef9e4691f",
          "blockNumber": "0xf7c1b6",
          "transactionHash": "0x7d1ff2267f8367dad2fb91f73d88a91f4135741deb0fa43c127ca5b2294f1a34",
          "transactionIndex": "0x38",
          "logIndex": "0xe9",
          "removed": false
        },
        {
          "address": "0x49d2da22aee28f3111a85f4b4b6cb53c5c379669",
          "topics": [
            "0xa0038d61ac7f17fe47f8776a0cf1e4845408cdca012144f1b7a61bc084e2eaa5",
            "0x0000000000000000000000006077ea0e519dd71ba985af2452e659af9d3fc024"
          ],
          "data": "0x00000000000000000000000049d2da22aee28f3111a85f4b4b6cb53c5c37966900000000000000000000000000000000000000000000000000000000000000bc",
          "blockHash": "0x9d85796f77efd767b72879cf6b4f507302f058ae3459e49d20deaf9ef9e4691f",
          "blockNumber": "0xf7c1b6",
          "transactionHash": "0x7d1ff2267f8367dad2fb91f73d88a91f4135741deb0fa43c127ca5b2294f1a34",
          "transactionIndex": "0x38",
          "logIndex": "0xea",
          "removed": false
        }
      ],
      "logsBloom": "0x00000000000000000000000040000000000000000000000000000000800000000000000040000000000000000100000000000000000000000000000000000000000000000000000000000008000000000000000000000000000000000000000000000000020000000000000000000800000000000100000000000010000000000010000000000000000000000000000000000000000000000000000100000100000800000000000000000000000000000000000000000000080000000000000000000002000000020000000000000000000000000200000000000000000020000000000000000000000000000000000000200000000080020000000000000000",
      "type": "0x2",
      "transactionHash": "0x7d1ff2267f8367dad2fb91f73d88a91f4135741deb0fa43c127ca5b2294f1a34",
      "transactionIndex": "0x38",
      "blockHash": "0x9d85796f77efd767b72879cf6b4f507302f058ae3459e49d20deaf9ef9e4691f",
      "blockNumber": "0xf7c1b6",
      "gasUsed": "0x17371",
      "effectiveGasPrice": "0xb92331",
      "from": "0x027a5ce58fc466d0e3a9d1990404354029398541",
      "to": "0x49d2da22aee28f3111a85f4b4b6cb53c5c379669",
      "contractAddress": null,
      "l1Fee": "0x382684fec",
      "l1GasPrice": "0x154907aff",
      "l1GasUsed": "0x95c"
    },
    {
      "status": "0x1",
      "cumulativeGasUsed": "0x9ead2e",
      "logs": [
        {
          "address": "0x49d2da22aee28f3111a85f4b4b6cb53c5c379669",
          "topics": [
            "0xddf252ad1be2c89b69c2b068fc378daa952ba7f163c4a11628f55a4df523b3ef",
            "0x0000000000000000000000000000000000000000000000000000000000000000",
            "0x000000000000000000000000524992190d59264778ac9967af18055820cc6651",
            "0x00000000000000000000000000000000000000000000000000000000000000bd"
          ],
          "data": "0x",
          "blockHash": "0xd57d6bc48eff141b4b1d1c649c6584d1ecd5b41f9819161022a8c5ac5e555835",
          "blockNumber": "0xf7c1b8",
          "transactionHash": "0x0361cba3ca762fabea7a4f1d8f5aa210d8700a6a519a020df00f08bd1f7c13f8",
          "transactionIndex": "0x3b",
          "logIndex": "0x138",
          "removed": false
        },
        {
          "address": "0x49d2da22aee28f3111a85f4b4b6cb53c5c379669",
          "topics": [
            "0xa0038d61ac7f17fe47f8776a0cf1e4845408cdca012144f1b7a61bc084e2eaa5",
            "0x00000000000000000000000084ea50562b9aa0f1873e0f810370879dd9947fe9"
          ],
          "data": "0x00000000000000000000000049d2da22aee28f3111a85f4b4b6cb53c5c37966900000000000000000000000000000000000000000000000000000000000000bd",
          "blockHash": "0xd57d6bc48eff141b4b1d1c649c6584d1ecd5b41f9819161022a8c5ac5e555835",
          "blockNumber": "0xf7c1b8",
          "transactionHash": "0x0361cba3ca762fabea7a4f1d8f5aa210d8700a6a519a020df00f08bd1f7c13f8",
          "transactionIndex": "0x3b",
          "logIndex": "0x139",
          "removed": false
        }
      ],
      "logsBloom": "0x00000000000000000000000040000000000000000000000000000000000000000000000040000000000000000000000000000000000000000000000000000000000000000000000000000008001000000000000000000000000000000000400000000000020000000000000000010800000000000100000000000210000000000010000000000001000000000000000200000000000000100000000000000100000000000000000000000000000000000000000000000000000000000000000000000002000000000000000000000000000000000000000000000000000020000000000000000000000000000000000000300000000000000000000000200000",
      "type": "0x2",
      "transactionHash": "0x0361cba3ca762fabea7a4f1d8f5aa210d8700a6a519a020df00f08bd1f7c13f8",
      "transactionIndex": "0x3b",
      "blockHash": "0xd57d6bc48eff141b4b1d1c649c6584d1ecd5b41f9819161022a8c5ac5e555835",
      "blockNumber": "0xf7c1b8",
      "gasUsed": "0x130a5",
      "effectiveGasPrice": "0xb8f717",
      "from": "0x027a5ce58fc466d0e3a9d1990404354029398541",
      "to": "0x49d2da22aee28f3111a85f4b4b6cb53c5c379669",
      "contractAddress": null,
      "l1Fee": "0x382684fec",
      "l1GasPrice": "0x154907aff",
      "l1GasUsed": "0x95c"
    },
    {
      "status": "0x1",
      "cumulativeGasUsed": "0x9fddc7",
      "logs": [
        {
          "address": "0x49d2da22aee28f3111a85f4b4b6cb53c5c379669",
          "topics": [
            "0xddf252ad1be2c89b69c2b068fc378daa952ba7f163c4a11628f55a4df523b3ef",
            "0x0000000000000000000000000000000000000000000000000000000000000000",
            "0x000000000000000000000000636d26031441d889476ce82e60d94500d2496461",
            "0x00000000000000000000000000000000000000000000000000000000000000be"
          ],
          "data": "0x",
          "blockHash": "0xd57d6bc48eff141b4b1d1c649c6584d1ecd5b41f9819161022a8c5ac5e555835",
          "blockNumber": "0xf7c1b8",
          "transactionHash": "0x6a7d69c77d8b0fe2ac6245e33ad5d8950879bcfafb32a37840e81d3b2fbe3c83",
          "transactionIndex": "0x3c",
          "logIndex": "0x13a",
          "removed": false
        },
        {
          "address": "0x49d2da22aee28f3111a85f4b4b6cb53c5c379669",
          "topics": [
            "0xa0038d61ac7f17fe47f8776a0cf1e4845408cdca012144f1b7a61bc084e2eaa5",
            "0x000000000000000000000000f4dfb6d3552328e15cbb925d3cf355f977a1d431"
          ],
          "data": "0x00000000000000000000000049d2da22aee28f3111a85f4b4b6cb53c5c37966900000000000000000000000000000000000000000000000000000000000000be",
          "blockHash": "0xd57d6bc48eff141b4b1d1c649c6584d1ecd5b41f9819161022a8c5ac5e555835",
          "blockNumber": "0xf7c1b8",
          "transactionHash": "0x6a7d69c77d8b0fe2ac6245e33ad5d8950879bcfafb32a37840e81d3b2fbe3c83",
          "transactionIndex": "0x3c",
          "logIndex": "0x13b",
          "removed": false
        }
      ],
      "logsBloom": "0x00000000000000000000000040000000000000000000000000000000000000000000000040000000000000000000000000100000000000000000000000000000000000000000000000000008000000000000000000000000000000000000000000000000020000000000000000002800000000000100000000000010000000000010000200000000000000000000000000000000000000000000020000000100000000000000020000000400000000000000000000000000000000000000000000000002000000000000000000000000000000000000000000000000000020000000000000000000000004000000000410200000000000000000000000000000",
      "type": "0x2",
      "transactionHash": "0x6a7d69c77d8b0fe2ac6245e33ad5d8950879bcfafb32a37840e81d3b2fbe3c83",
      "transactionIndex": "0x3c",
      "blockHash": "0xd57d6bc48eff141b4b1d1c649c6584d1ecd5b41f9819161022a8c5ac5e555835",
      "blockNumber": "0xf7c1b8",
      "gasUsed": "0x13099",
      "effectiveGasPrice": "0xb8f717",
      "from": "0x027a5ce58fc466d0e3a9d1990404354029398541",
      "to": "0x49d2da22aee28f3111a85f4b4b6cb53c5c379669",
      "contractAddress": null,
      "l1Fee": "0x379688caa",
      "l1GasPrice": "0x154907aff",
      "l1GasUsed": "0x944"
    },
    {
      "status": "0x1",
      "cumulativeGasUsed": "0xa10e6c",
      "logs": [
        {
          "address": "0x49d2da22aee28f3111a85f4b4b6cb53c5c379669",
          "topics": [
            "0xddf252ad1be2c89b69c2b068fc378daa952ba7f163c4a11628f55a4df523b3ef",
            "0x0000000000000000000000000000000000000000000000000000000000000000",
            "0x000000000000000000000000678a71a480fc51e174a475865d61f7c936f87d14",
            "0x00000000000000000000000000000000000000000000000000000000000000bf"
          ],
          "data": "0x",
          "blockHash": "0xd57d6bc48eff141b4b1d1c649c6584d1ecd5b41f9819161022a8c5ac5e555835",
          "blockNumber": "0xf7c1b8",
          "transactionHash": "0xbedb14d84a7c7d9e12acbd3f2edce629a0be032c6d4ab6d8aecb158b3052354e",
          "transactionIndex": "0x3d",
          "logIndex": "0x13c",
          "removed": false
        },
        {
          "address": "0x49d2da22aee28f3111a85f4b4b6cb53c5c379669",
          "topics": [
            "0xa0038d61ac7f17fe47f8776a0cf1e4845408cdca012144f1b7a61bc084e2eaa5",
            "0x0000000000000000000000005776ad9684c992b5308b7d1e3fe1439fcf897e3b"
          ],
          "data": "0x00000000000000000000000049d2da22aee28f3111a85f4b4b6cb53c5c37966900000000000000000000000000000000000000000000000000000000000000bf",
          "blockHash": "0xd57d6bc48eff141b4b1d1c649c6584d1ecd5b41f9819161022a8c5ac5e555835",
          "blockNumber": "0xf7c1b8",
          "transactionHash": "0xbedb14d84a7c7d9e12acbd3f2edce629a0be032c6d4ab6d8aecb158b3052354e",
          "transactionIndex": "0x3d",
          "logIndex": "0x13d",
          "removed": false
        }
      ],
      "logsBloom": "0x00000000000000000000000140000000000000000000000000000000000000000000000040000000000000000000000000000000000000000000000000000000000000000000000000000008000000000000000000000000000010000000000000080000020000000000000000000800000000000100000000000010000000000010000000000000000000000000000000000000000100000000040000000100000000000000000000000000000000000000000000000000000000000000000020000002000000000000000000000000000000000000000001000000000020000400000000000000000000000000020000200000000000000000000000000000",
      "type": "0x2",
      "transactionHash": "0xbedb14d84a7c7d9e12acbd3f2edce629a0be032c6d4ab6d8aecb158b3052354e",
      "transactionIndex": "0x3d",
      "blockHash": "0xd57d6bc48eff141b4b1d1c649c6584d1ecd5b41f9819161022a8c5ac5e555835",
      "blockNumber": "0xf7c1b8",
      "gasUsed": "0x130a5",
      "effectiveGasPrice": "0xb8f717",
      "from": "0x027a5ce58fc466d0e3a9d1990404354029398541",
      "to": "0x49d2da22aee28f3111a85f4b4b6cb53c5c379669",
      "contractAddress": null,
      "l1Fee": "0x382684fec",
      "l1GasPrice": "0x154907aff",
      "l1GasUsed": "0x95c"
    },
    {
      "status": "0x1",
      "cumulativeGasUsed": "0xa23f11",
      "logs": [
        {
          "address": "0x49d2da22aee28f3111a85f4b4b6cb53c5c379669",
          "topics": [
            "0xddf252ad1be2c89b69c2b068fc378daa952ba7f163c4a11628f55a4df523b3ef",
            "0x0000000000000000000000000000000000000000000000000000000000000000",
            "0x0000000000000000000000006d8de2f7bf11e06690bb21907d24da6136b215d4",
            "0x00000000000000000000000000000000000000000000000000000000000000c0"
          ],
          "data": "0x",
          "blockHash": "0xd57d6bc48eff141b4b1d1c649c6584d1ecd5b41f9819161022a8c5ac5e555835",
          "blockNumber": "0xf7c1b8",
          "transactionHash": "0xc0b7ed5a822edcba15578172915e65aba9f5b37760e51a9c99e59b582baf071c",
          "transactionIndex": "0x3e",
          "logIndex": "0x13e",
          "removed": false
        },
        {
          "address": "0x49d2da22aee28f3111a85f4b4b6cb53c5c379669",
          "topics": [
            "0xa0038d61ac7f17fe47f8776a0cf1e4845408cdca012144f1b7a61bc084e2eaa5",
            "0x0000000000000000000000007b0918b8db2d2b1ccc3232509199fe8481874720"
          ],
          "data": "0x00000000000000000000000049d2da22aee28f3111a85f4b4b6cb53c5c37966900000000000000000000000000000000000000000000000000000000000000c0",
          "blockHash": "0xd57d6bc48eff141b4b1d1c649c6584d1ecd5b41f9819161022a8c5ac5e555835",
          "blockNumber": "0xf7c1b8",
          "transactionHash": "0xc0b7ed5a822edcba15578172915e65aba9f5b37760e51a9c99e59b582baf071c",
          "transactionIndex": "0x3e",
          "logIndex": "0x13f",
          "removed": false
        }
      ],
      "logsBloom": "0x00000000000000000000000040000000000000000000000000000000020000000000000040000000000002000000000000040000000000000000020000000000000000000000000000000008000000000000000000000000000000000000000000000000020000000000000000000800000000000100000000000010000000000010000000000000000000000000000000002000000000000000000000001100000200000000000200000000000000000000000000000000000000000000000000000002000000000000000000000000000000000000000000000000000020000000000000000000000000000000000000200000000000000000400000000000",
      "type": "0x2",
      "transactionHash": "0xc0b7ed5a822edcba15578172915e65aba9f5b37760e51a9c99e59b582baf071c",
      "transactionIndex": "0x3e",
      "blockHash": "0xd57d6bc48eff141b4b1d1c649c6584d1ecd5b41f9819161022a8c5ac5e555835",
      "blockNumber": "0xf7c1b8",
      "gasUsed": "0x130a5",
      "effectiveGasPrice": "0xb8f717",
      "from": "0x027a5ce58fc466d0e3a9d1990404354029398541",
      "to": "0x49d2da22aee28f3111a85f4b4b6cb53c5c379669",
      "contractAddress": null,
      "l1Fee": "0x382684fec",
      "l1GasPrice": "0x154907aff",
      "l1GasUsed": "0x95c"
    },
    {
      "status": "0x1",
      "cumulativeGasUsed": "0xa3b282",
      "logs": [
        {
          "address": "0x49d2da22aee28f3111a85f4b4b6cb53c5c379669",
          "topics": [
            "0xddf252ad1be2c89b69c2b068fc378daa952ba7f163c4a11628f55a4df523b3ef",
            "0x0000000000000000000000000000000000000000000000000000000000000000",
            "0x0000000000000000000000006e97282d2058aa7966e22ee8d3ed99a7b857bd81",
            "0x00000000000000000000000000000000000000000000000000000000000000c1"
          ],
          "data": "0x",
          "blockHash": "0xd57d6bc48eff141b4b1d1c649c6584d1ecd5b41f9819161022a8c5ac5e555835",
          "blockNumber": "0xf7c1b8",
          "transactionHash": "0x07c23a666acad04d440ce015c64bc9dcf0b1f5a7bc7bdfc1707c5f53b4a8ef55",
          "transactionIndex": "0x3f",
          "logIndex": "0x140",
          "removed": false
        },
        {
          "address": "0x49d2da22aee28f3111a85f4b4b6cb53c5c379669",
          "topics": [
            "0xa0038d61ac7f17fe47f8776a0cf1e4845408cdca012144f1b7a61bc084e2eaa5",
            "0x000000000000000000000000e5af1c9842c0e779b164945482923246d3fac481"
          ],
          "data": "0x00000000000000000000000049d2da22aee28f3111a85f4b4b6cb53c5c37966900000000000000000000000000000000000000000000000000000000000000c1",
          "blockHash": "0xd57d6bc48eff141b4b1d1c649c6584d1ecd5b41f9819161022a8c5ac5e555835",
          "blockNumber": "0xf7c1b8",
          "transactionHash": "0x07c23a666acad04d440ce015c64bc9dcf0b1f5a7bc7bdfc1707c5f53b4a8ef55",
          "transactionIndex": "0x3f",
          "logIndex": "0x141",
          "removed": false
        }
      ],
      "logsBloom": "0x00000000000000000000000040000000000000000000000000000000000000000000000040002000000000000000000000000000000000000000080000000000000004000200000000000008000000000000000000000000000000000000000000000000020002000000000000000800000000000100000000000010000000000010000000000000000000000000000000000000000000000000000000000100000000000000000000000000000000040000000000000000001000000000000004000002000000000000000000000000000000000000000000000000000020000000000000000000000800000000000000200000000000000000000000000000",
      "type": "0x2",
      "transactionHash": "0x07c23a666acad04d440ce015c64bc9dcf0b1f5a7bc7bdfc1707c5f53b4a8ef55",
      "transactionIndex": "0x3f",
      "blockHash": "0xd57d6bc48eff141b4b1d1c649c6584d1ecd5b41f9819161022a8c5ac5e555835",
      "blockNumber": "0xf7c1b8",
      "gasUsed": "0x17371",
      "effectiveGasPrice": "0xb8f717",
      "from": "0x027a5ce58fc466d0e3a9d1990404354029398541",
      "to": "0x49d2da22aee28f3111a85f4b4b6cb53c5c379669",
      "contractAddress": null,
      "l1Fee": "0x382684fec",
      "l1GasPrice": "0x154907aff",
      "l1GasUsed": "0x95c"
    },
    {
      "status": "0x1",
      "cumulativeGasUsed": "0xa4e327",
      "logs": [
        {
          "address": "0x49d2da22aee28f3111a85f4b4b6cb53c5c379669",
          "topics": [
            "0xddf252ad1be2c89b69c2b068fc378daa952ba7f163c4a11628f55a4df523b3ef",
            "0x0000000000000000000000000000000000000000000000000000000000000000",
            "0x00000000000000000000000074d493ae09f72a56c665a3c80bcca1c44d2b622f",
            "0x00000000000000000000000000000000000000000000000000000000000000c2"
          ],
          "data": "0x",
          "blockHash": "0xd57d6bc48eff141b4b1d1c649c6584d1ecd5b41f9819161022a8c5ac5e555835",
          "blockNumber": "0xf7c1b8",
          "transactionHash": "0x7cc86bbd010c7c5845c7c87f0c11332b9d6505663adfd925ad03777037c0a5e7",
          "transactionIndex": "0x40",
          "logIndex": "0x142",
          "removed": false
        },
        {
          "address": "0x49d2da22aee28f3111a85f4b4b6cb53c5c379669",
          "topics": [
            "0xa0038d61ac7f17fe47f8776a0cf1e4845408cdca012144f1b7a61bc084e2eaa5",
            "0x0000000000000000000000007be78823de27ff85d637bfac3cd6e37a531ca584"
          ],
          "data": "0x00000000000000000000000049d2da22aee28f3111a85f4b4b6cb53c5c37966900000000000000000000000000000000000000000000000000000000000000c2",
          "blockHash": "0xd57d6bc48eff141b4b1d1c649c6584d1ecd5b41f9819161022a8c5ac5e555835",
          "blockNumber": "0xf7c1b8",
          "transactionHash": "0x7cc86bbd010c7c5845c7c87f0c11332b9d6505663adfd925ad03777037c0a5e7",
          "transactionIndex": "0x40",
          "logIndex": "0x143",
          "removed": false
        }
      ],
      "logsBloom": "0x00000000000000000000400040000000000000000000008000000000000000000000000040000000000000000000000000000000000000000000000000000000000000000000000000000008000000000000000200000000000000000000000000000000020200000000000000000800000000000100000000000010000000000010000000000000000000000000000000000000800000000000000000000100000000000000200000000000000000000200000000000000000000000000000000000002000000000000000000000000020000000000000040000000000020000000000000000000000000000000000000200000000000000000000000000000",
      "type": "0x2",
      "transactionHash": "0x7cc86bbd010c7c5845c7c87f0c11332b9d6505663adfd925ad03777037c0a5e7",
      "transactionIndex": "0x40",
      "blockHash": "0xd57d6bc48eff141b4b1d1c649c6584d1ecd5b41f9819161022a8c5ac5e555835",
      "blockNumber": "0xf7c1b8",
      "gasUsed": "0x130a5",
      "effectiveGasPrice": "0xb8f717",
      "from": "0x027a5ce58fc466d0e3a9d1990404354029398541",
      "to": "0x49d2da22aee28f3111a85f4b4b6cb53c5c379669",
      "contractAddress": null,
      "l1Fee": "0x382684fec",
      "l1GasPrice": "0x154907aff",
      "l1GasUsed": "0x95c"
    },
    {
      "status": "0x1",
      "cumulativeGasUsed": "0xa613cc",
      "logs": [
        {
          "address": "0x49d2da22aee28f3111a85f4b4b6cb53c5c379669",
          "topics": [
            "0xddf252ad1be2c89b69c2b068fc378daa952ba7f163c4a11628f55a4df523b3ef",
            "0x0000000000000000000000000000000000000000000000000000000000000000",
            "0x000000000000000000000000791a304547bbe77c3f780e0375762dce478a1c05",
            "0x00000000000000000000000000000000000000000000000000000000000000c3"
          ],
          "data": "0x",
          "blockHash": "0xd57d6bc48eff141b4b1d1c649c6584d1ecd5b41f9819161022a8c5ac5e555835",
          "blockNumber": "0xf7c1b8",
          "transactionHash": "0x93647cf11ce1b1ffeca2950bdcf08f8db915096a85a63ccd6d02662379c2fba6",
          "transactionIndex": "0x41",
          "logIndex": "0x144",
          "removed": false
        },
        {
          "address": "0x49d2da22aee28f3111a85f4b4b6cb53c5c379669",
          "topics": [
            "0xa0038d61ac7f17fe47f8776a0cf1e4845408cdca012144f1b7a61bc084e2eaa5",
            "0x0000000000000000000000000b8073a4fd13200a65afe3a3a1ebb2010a50f712"
          ],
          "data": "0x00000000000000000000000049d2da22aee28f3111a85f4b4b6cb53c5c37966900000000000000000000000000000000000000000000000000000000000000c3",
          "blockHash": "0xd57d6bc48eff141b4b1d1c649c6584d1ecd5b41f9819161022a8c5ac5e555835",
          "blockNumber": "0xf7c1b8",
          "transactionHash": "0x93647cf11ce1b1ffeca2950bdcf08f8db915096a85a63ccd6d02662379c2fba6",
          "transactionIndex": "0x41",
          "logIndex": "0x145",
          "removed": false
        }
      ],
      "logsBloom": "0x00000000000000000000000040400000000000200000000000000000000000000000000040000000000000000000000000000000000000000000080000000000000040000000000000000008000200000000000000000000020000000000000000000000020000000000000000000800000000000100000000000010000000000010000000000000000000000000000000000000000000000000000000000100000000000000000000000000000000000000000000000000000000000000000020000002000000000000000000000000000000000000000000000000000020000000000000000000000000000000000200200000000000000000000080000000",
      "type": "0x2",
      "transactionHash": "0x93647cf11ce1b1ffeca2950bdcf08f8db915096a85a63ccd6d02662379c2fba6",
      "transactionIndex": "0x41",
      "blockHash": "0xd57d6bc48eff141b4b1d1c649c6584d1ecd5b41f9819161022a8c5ac5e555835",
      "blockNumber": "0xf7c1b8",
      "gasUsed": "0x130a5",
      "effectiveGasPrice": "0xb8f717",
      "from": "0x027a5ce58fc466d0e3a9d1990404354029398541",
      "to": "0x49d2da22aee28f3111a85f4b4b6cb53c5c379669",
      "contractAddress": null,
      "l1Fee": "0x37de86e4b",
      "l1GasPrice": "0x154907aff",
      "l1GasUsed": "0x950"
    },
    {
      "status": "0x1",
      "cumulativeGasUsed": "0xa7873d",
      "logs": [
        {
          "address": "0x49d2da22aee28f3111a85f4b4b6cb53c5c379669",
          "topics": [
            "0xddf252ad1be2c89b69c2b068fc378daa952ba7f163c4a11628f55a4df523b3ef",
            "0x0000000000000000000000000000000000000000000000000000000000000000",
            "0x00000000000000000000000080475ececd1b7ec2cf6624b1a1705bbf3f20be94",
            "0x00000000000000000000000000000000000000000000000000000000000000c4"
          ],
          "data": "0x",
          "blockHash": "0xd57d6bc48eff141b4b1d1c649c6584d1ecd5b41f9819161022a8c5ac5e555835",
          "blockNumber": "0xf7c1b8",
          "transactionHash": "0x333249a51aa5d54fe679ca419d2e300daf6cc355cc4aa642e64c9da20e1aa545",
          "transactionIndex": "0x42",
          "logIndex": "0x146",
          "removed": false
        },
        {
          "address": "0x49d2da22aee28f3111a85f4b4b6cb53c5c379669",
          "topics": [
            "0xa0038d61ac7f17fe47f8776a0cf1e4845408cdca012144f1b7a61bc084e2eaa5",
            "0x0000000000000000000000002698b8132976c7c4cc3eec5eedbe048e67684e98"
          ],
          "data": "0x00000000000000000000000049d2da22aee28f3111a85f4b4b6cb53c5c37966900000000000000000000000000000000000000000000000000000000000000c4",
          "blockHash": "0xd57d6bc48eff141b4b1d1c649c6584d1ecd5b41f9819161022a8c5ac5e555835",
          "blockNumber": "0xf7c1b8",
          "transactionHash": "0x333249a51aa5d54fe679ca419d2e300daf6cc355cc4aa642e64c9da20e1aa545",
          "transactionIndex": "0x42",
          "logIndex": "0x147",
          "removed": false
        }
      ],
      "logsBloom": "0x00000000000000000000000040000000000000000000000000000000000000000000000040000000000000000000000000000000000000000000000010000000000000000000000000000008000000000000000000000000000004000000000000000000020008000000000000000800000000000100000000000010000000000010000040000000000000000000000000000400000040000000000000001100000000000000000000000000000000000000000000000000000000000000000000000002000000000000000000000000000000000000000000000000000020000000000000000000000000000000040000200000008000000000000000000000",
      "type": "0x2",
      "transactionHash": "0x333249a51aa5d54fe679ca419d2e300daf6cc355cc4aa642e64c9da20e1aa545",
      "transactionIndex": "0x42",
      "blockHash": "0xd57d6bc48eff141b4b1d1c649c6584d1ecd5b41f9819161022a8c5ac5e555835",
      "blockNumber": "0xf7c1b8",
      "gasUsed": "0x17371",
      "effectiveGasPrice": "0xb8f717",
      "from": "0x027a5ce58fc466d0e3a9d1990404354029398541",
      "to": "0x49d2da22aee28f3111a85f4b4b6cb53c5c379669",
      "contractAddress": null,
      "l1Fee": "0x382684fec",
      "l1GasPrice": "0x154907aff",
      "l1GasUsed": "0x95c"
    },
    {
      "status": "0x1",
      "cumulativeGasUsed": "0xa8faae",
      "logs": [
        {
          "address": "0x49d2da22aee28f3111a85f4b4b6cb53c5c379669",
          "topics": [
            "0xddf252ad1be2c89b69c2b068fc378daa952ba7f163c4a11628f55a4df523b3ef",
            "0x0000000000000000000000000000000000000000000000000000000000000000",
            "0x00000000000000000000000086f3aaed82b74ed05cac01639a7eebe2bc082d9f",
            "0x00000000000000000000000000000000000000000000000000000000000000c5"
          ],
          "data": "0x",
          "blockHash": "0xd57d6bc48eff141b4b1d1c649c6584d1ecd5b41f9819161022a8c5ac5e555835",
          "blockNumber": "0xf7c1b8",
          "transactionHash": "0x95ea0ae68ab8aa85f6701a1489a1fc27efd1caa2ac307ae4f5e555d09c086533",
          "transactionIndex": "0x43",
          "logIndex": "0x148",
          "removed": false
        },
        {
          "address": "0x49d2da22aee28f3111a85f4b4b6cb53c5c379669",
          "topics": [
            "0xa0038d61ac7f17fe47f8776a0cf1e4845408cdca012144f1b7a61bc084e2eaa5",
            "0x00000000000000000000000074f64cd6f09f6618c371494a5a21fffb4c162c69"
          ],
          "data": "0x00000000000000000000000049d2da22aee28f3111a85f4b4b6cb53c5c37966900000000000000000000000000000000000000000000000000000000000000c5",
          "blockHash": "0xd57d6bc48eff141b4b1d1c649c6584d1ecd5b41f9819161022a8c5ac5e555835",
          "blockNumber": "0xf7c1b8",
          "transactionHash": "0x95ea0ae68ab8aa85f6701a1489a1fc27efd1caa2ac307ae4f5e555d09c086533",
          "transactionIndex": "0x43",
          "logIndex": "0x149",
          "removed": false
        }
      ],
      "logsBloom": "0x20000000000000000000000040000000000000000000000000000000000000000000000040000000000000000000000000000000000000000000000000000000000000000000000000000008010000000000000000000000000000000000000000000000020000000000400000000800000000000100000000000010000000000010000000000000000000000000002000000000100000000000000000000100000000000000200000000000000000000000000000000000000000000080000000000002000000000000000000000000000000000000000100000000000020000000000000000000000000000000000000200000002000000000000000000000",
      "type": "0x2",
      "transactionHash": "0x95ea0ae68ab8aa85f6701a1489a1fc27efd1caa2ac307ae4f5e555d09c086533",
      "transactionIndex": "0x43",
      "blockHash": "0xd57d6bc48eff141b4b1d1c649c6584d1ecd5b41f9819161022a8c5ac5e555835",
      "blockNumber": "0xf7c1b8",
      "gasUsed": "0x17371",
      "effectiveGasPrice": "0xb8f717",
      "from": "0x027a5ce58fc466d0e3a9d1990404354029398541",
      "to": "0x49d2da22aee28f3111a85f4b4b6cb53c5c379669",
      "contractAddress": null,
      "l1Fee": "0x382684fec",
      "l1GasPrice": "0x154907aff",
      "l1GasUsed": "0x95c"
    },
    {
      "status": "0x1",
      "cumulativeGasUsed": "0xaa2b53",
      "logs": [
        {
          "address": "0x49d2da22aee28f3111a85f4b4b6cb53c5c379669",
          "topics": [
            "0xddf252ad1be2c89b69c2b068fc378daa952ba7f163c4a11628f55a4df523b3ef",
            "0x0000000000000000000000000000000000000000000000000000000000000000",
            "0x000000000000000000000000874683b39accd62b952d6f13e10e41ce8306af7c",
            "0x00000000000000000000000000000000000000000000000000000000000000c6"
          ],
          "data": "0x",
          "blockHash": "0xd57d6bc48eff141b4b1d1c649c6584d1ecd5b41f9819161022a8c5ac5e555835",
          "blockNumber": "0xf7c1b8",
          "transactionHash": "0xeb8b4470e7d678bb96d24b858cf09c8c895a9d18a2b7aa6da4a9bba60582c53e",
          "transactionIndex": "0x44",
          "logIndex": "0x14a",
          "removed": false
        },
        {
          "address": "0x49d2da22aee28f3111a85f4b4b6cb53c5c379669",
          "topics": [
            "0xa0038d61ac7f17fe47f8776a0cf1e4845408cdca012144f1b7a61bc084e2eaa5",
            "0x000000000000000000000000540ea6fce93b9c9aa8946ddea630992976d0fa66"
          ],
          "data": "0x00000000000000000000000049d2da22aee28f3111a85f4b4b6cb53c5c37966900000000000000000000000000000000000000000000000000000000000000c6",
          "blockHash": "0xd57d6bc48eff141b4b1d1c649c6584d1ecd5b41f9819161022a8c5ac5e555835",
          "blockNumber": "0xf7c1b8",
          "transactionHash": "0xeb8b4470e7d678bb96d24b858cf09c8c895a9d18a2b7aa6da4a9bba60582c53e",
          "transactionIndex": "0x44",
          "logIndex": "0x14b",
          "removed": false
        }
      ],
      "logsBloom": "0x00000000000000100000000040000000000000000000000000000000000000000000000040000000001000000000000000000000000000010000000000000000000000000000000000000008000800020000000000000000000000000000000000000000020000000000000000000800000000000100000000000010000000000010000000000000000000000000000000000000000000000000000000000100000000000000000000000000000000000000000000000000004000010000000000000002000000000000000000000004000000000000000000000000000020000000000000000000000000000000000000200000000000000000000000100000",
      "type": "0x2",
      "transactionHash": "0xeb8b4470e7d678bb96d24b858cf09c8c895a9d18a2b7aa6da4a9bba60582c53e",
      "transactionIndex": "0x44",
      "blockHash": "0xd57d6bc48eff141b4b1d1c649c6584d1ecd5b41f9819161022a8c5ac5e555835",
      "blockNumber": "0xf7c1b8",
      "gasUsed": "0x130a5",
      "effectiveGasPrice": "0xb8f717",
      "from": "0x027a5ce58fc466d0e3a9d1990404354029398541",
      "to": "0x49d2da22aee28f3111a85f4b4b6cb53c5c379669",
      "contractAddress": null,
      "l1Fee": "0x382684fec",
      "l1GasPrice": "0x154907aff",
      "l1GasUsed": "0x95c"
    },
    {
      "status": "0x1",
      "cumulativeGasUsed": "0xab5bf8",
      "logs": [
        {
          "address": "0x49d2da22aee28f3111a85f4b4b6cb53c5c379669",
          "topics": [
            "0xddf252ad1be2c89b69c2b068fc378daa952ba7f163c4a11628f55a4df523b3ef",
            "0x0000000000000000000000000000000000000000000000000000000000000000",
            "0x00000000000000000000000096706eb471f875a9a41442f358d3b34ba02f868b",
            "0x00000000000000000000000000000000000000000000000000000000000000c7"
          ],
          "data": "0x",
          "blockHash": "0xd57d6bc48eff141b4b1d1c649c6584d1ecd5b41f9819161022a8c5ac5e555835",
          "blockNumber": "0xf7c1b8",
          "transactionHash": "0xbd1fcb569b37e5174a36e7c7d7eeb4be28045818647d4a5c0d26d428fbc74d53",
          "transactionIndex": "0x45",
          "logIndex": "0x14c",
          "removed": false
        },
        {
          "address": "0x49d2da22aee28f3111a85f4b4b6cb53c5c379669",
          "topics": [
            "0xa0038d61ac7f17fe47f8776a0cf1e4845408cdca012144f1b7a61bc084e2eaa5",
            "0x0000000000000000000000006a610379681f8ff38a009bdbc4b8c2984418f74b"
          ],
          "data": "0x00000000000000000000000049d2da22aee28f3111a85f4b4b6cb53c5c37966900000000000000000000000000000000000000000000000000000000000000c7",
          "blockHash": "0xd57d6bc48eff141b4b1d1c649c6584d1ecd5b41f9819161022a8c5ac5e555835",
          "blockNumber": "0xf7c1b8",
          "transactionHash": "0xbd1fcb569b37e5174a36e7c7d7eeb4be28045818647d4a5c0d26d428fbc74d53",
          "transactionIndex": "0x45",
          "logIndex": "0x14d",
          "removed": false
        }
      ],
      "logsBloom": "0x00000000000000000000000040000000000000000000000000000000000100000000000040000000000000000000000000000000000000000000000000000000000000000000000000000008000000400000000000000000000080000000000000000000820000000000000000000800000000000100000000000010000001000010000000000000000000000000000000000000000000000000000000000100000000000000000000000000000000000000000000000000000000000400000000000002000100000000000000000000000000400000000000000000000020000000000000000000000000000000000000200000004000000000000000000000",
      "type": "0x2",
      "transactionHash": "0xbd1fcb569b37e5174a36e7c7d7eeb4be28045818647d4a5c0d26d428fbc74d53",
      "transactionIndex": "0x45",
      "blockHash": "0xd57d6bc48eff141b4b1d1c649c6584d1ecd5b41f9819161022a8c5ac5e555835",
      "blockNumber": "0xf7c1b8",
      "gasUsed": "0x130a5",
      "effectiveGasPrice": "0xb8f717",
      "from": "0x027a5ce58fc466d0e3a9d1990404354029398541",
      "to": "0x49d2da22aee28f3111a85f4b4b6cb53c5c379669",
      "contractAddress": null,
      "l1Fee": "0x382684fec",
      "l1GasPrice": "0x154907aff",
      "l1GasUsed": "0x95c"
    },
    {
      "status": "0x1",
      "cumulativeGasUsed": "0xac8c9d",
      "logs": [
        {
          "address": "0x49d2da22aee28f3111a85f4b4b6cb53c5c379669",
          "topics": [
            "0xddf252ad1be2c89b69c2b068fc378daa952ba7f163c4a11628f55a4df523b3ef",
            "0x0000000000000000000000000000000000000000000000000000000000000000",
            "0x0000000000000000000000009e83cf83d126374ddcf77a7d0e2eb418d3cb1b2c",
            "0x00000000000000000000000000000000000000000000000000000000000000c8"
          ],
          "data": "0x",
          "blockHash": "0xd57d6bc48eff141b4b1d1c649c6584d1ecd5b41f9819161022a8c5ac5e555835",
          "blockNumber": "0xf7c1b8",
          "transactionHash": "0x83e9ab6f4ea5200e29e3b04baf7142242cbc42713ab2e107d2abb0783fe48881",
          "transactionIndex": "0x46",
          "logIndex": "0x14e",
          "removed": false
        },
        {
          "address": "0x49d2da22aee28f3111a85f4b4b6cb53c5c379669",
          "topics": [
            "0xa0038d61ac7f17fe47f8776a0cf1e4845408cdca012144f1b7a61bc084e2eaa5",
            "0x0000000000000000000000005ada8575d87d5115343680fad6a7ccb93975d634"
          ],
          "data": "0x00000000000000000000000049d2da22aee28f3111a85f4b4b6cb53c5c37966900000000000000000000000000000000000000000000000000000000000000c8",
          "blockHash": "0xd57d6bc48eff141b4b1d1c649c6584d1ecd5b41f9819161022a8c5ac5e555835",
          "blockNumber": "0xf7c1b8",
          "transactionHash": "0x83e9ab6f4ea5200e29e3b04baf7142242cbc42713ab2e107d2abb0783fe48881",
          "transactionIndex": "0x46",
          "logIndex": "0x14f",
          "removed": false
        }
      ],
      "logsBloom": "0x00000000000000000000000040000020000000000000000000000000800000000000000040000000000000000000000000000000000000010000000000000000000000000000000000000008000000000000000000000000000000000000000000000000020000000000000000000800000080000100000000000010000000000010000000000000000000000000000000000000000000000000000000000100000001000000000000000000000000040000000000000000000000000000000000000002000000000000000000000000000000000000000100000000000028000000000000000000000000000000000000200000000000000000000000000004",
      "type": "0x2",
      "transactionHash": "0x83e9ab6f4ea5200e29e3b04baf7142242cbc42713ab2e107d2abb0783fe48881",
      "transactionIndex": "0x46",
      "blockHash": "0xd57d6bc48eff141b4b1d1c649c6584d1ecd5b41f9819161022a8c5ac5e555835",
      "blockNumber": "0xf7c1b8",
      "gasUsed": "0x130a5",
      "effectiveGasPrice": "0xb8f717",
      "from": "0x027a5ce58fc466d0e3a9d1990404354029398541",
      "to": "0x49d2da22aee28f3111a85f4b4b6cb53c5c379669",
      "contractAddress": null,
      "l1Fee": "0x382684fec",
      "l1GasPrice": "0x154907aff",
      "l1GasUsed": "0x95c"
    },
    {
      "status": "0x1",
      "cumulativeGasUsed": "0xadbd42",
      "logs": [
        {
          "address": "0x49d2da22aee28f3111a85f4b4b6cb53c5c379669",
          "topics": [
            "0xddf252ad1be2c89b69c2b068fc378daa952ba7f163c4a11628f55a4df523b3ef",
            "0x0000000000000000000000000000000000000000000000000000000000000000",
            "0x0000000000000000000000009ed2af9d4ab71740e4d63fab593be7e8701ea169",
            "0x00000000000000000000000000000000000000000000000000000000000000c9"
          ],
          "data": "0x",
          "blockHash": "0xd57d6bc48eff141b4b1d1c649c6584d1ecd5b41f9819161022a8c5ac5e555835",
          "blockNumber": "0xf7c1b8",
          "transactionHash": "0x8d71c75fb218e1b2bec530afe3e310605562b0f4b0b8aef09094eed3819cbcfb",
          "transactionIndex": "0x47",
          "logIndex": "0x150",
          "removed": false
        },
        {
          "address": "0x49d2da22aee28f3111a85f4b4b6cb53c5c379669",
          "topics": [
            "0xa0038d61ac7f17fe47f8776a0cf1e4845408cdca012144f1b7a61bc084e2eaa5",
            "0x000000000000000000000000639c8485741d7ebe17dda5a06c3a82718be67502"
          ],
          "data": "0x00000000000000000000000049d2da22aee28f3111a85f4b4b6cb53c5c37966900000000000000000000000000000000000000000000000000000000000000c9",
          "blockHash": "0xd57d6bc48eff141b4b1d1c649c6584d1ecd5b41f9819161022a8c5ac5e555835",
          "blockNumber": "0xf7c1b8",
          "transactionHash": "0x8d71c75fb218e1b2bec530afe3e310605562b0f4b0b8aef09094eed3819cbcfb",
          "transactionIndex": "0x47",
          "logIndex": "0x151",
          "removed": false
        }
      ],
      "logsBloom": "0x00000000000000000000000040000000000000000000000000000000002000000000000040000000400000000000000000000000000000000000000000000000000000000000000000000008000000000000000000000000000000000000000000000000020000000000000000000800000000004100000000000010000000000010000000000000000000000000000000000000000000000000000000000100000000000000000000000000000000000000000000000000000000000000000400000002000000000000100000000000000000000000400000000000000020040000000000000002000020000000000000200000000000000000000000000000",
      "type": "0x2",
      "transactionHash": "0x8d71c75fb218e1b2bec530afe3e310605562b0f4b0b8aef09094eed3819cbcfb",
      "transactionIndex": "0x47",
      "blockHash": "0xd57d6bc48eff141b4b1d1c649c6584d1ecd5b41f9819161022a8c5ac5e555835",
      "blockNumber": "0xf7c1b8",
      "gasUsed": "0x130a5",
      "effectiveGasPrice": "0xb8f717",
      "from": "0x027a5ce58fc466d0e3a9d1990404354029398541",
      "to": "0x49d2da22aee28f3111a85f4b4b6cb53c5c379669",
      "contractAddress": null,
      "l1Fee": "0x382684fec",
      "l1GasPrice": "0x154907aff",
      "l1GasUsed": "0x95c"
    },
    {
      "status": "0x1",
      "cumulativeGasUsed": "0xaf30a7",
      "logs": [
        {
          "address": "0x49d2da22aee28f3111a85f4b4b6cb53c5c379669",
          "topics": [
            "0xddf252ad1be2c89b69c2b068fc378daa952ba7f163c4a11628f55a4df523b3ef",
            "0x0000000000000000000000000000000000000000000000000000000000000000",
            "0x000000000000000000000000a13e3072cc6f921eb90004fa5703305b5f88093f",
            "0x00000000000000000000000000000000000000000000000000000000000000ca"
          ],
          "data": "0x",
          "blockHash": "0xd57d6bc48eff141b4b1d1c649c6584d1ecd5b41f9819161022a8c5ac5e555835",
          "blockNumber": "0xf7c1b8",
          "transactionHash": "0x3117470228975e1672f03f3bcb4b9413b0938628f2aa6d24886cf37594fa3619",
          "transactionIndex": "0x48",
          "logIndex": "0x152",
          "removed": false
        },
        {
          "address": "0x49d2da22aee28f3111a85f4b4b6cb53c5c379669",
          "topics": [
            "0xa0038d61ac7f17fe47f8776a0cf1e4845408cdca012144f1b7a61bc084e2eaa5",
            "0x000000000000000000000000a6a5cd7d975a4d01eefa63eb51a7cc15bf8cc59b"
          ],
          "data": "0x00000000000000000000000049d2da22aee28f3111a85f4b4b6cb53c5c37966900000000000000000000000000000000000000000000000000000000000000ca",
          "blockHash": "0xd57d6bc48eff141b4b1d1c649c6584d1ecd5b41f9819161022a8c5ac5e555835",
          "blockNumber": "0xf7c1b8",
          "transactionHash": "0x3117470228975e1672f03f3bcb4b9413b0938628f2aa6d24886cf37594fa3619",
          "transactionIndex": "0x48",
          "logIndex": "0x153",
          "removed": false
        }
      ],
      "logsBloom": "0x00000000000000000000000040000000000000000000800000000100000000000010000040000000000000000000000000100000000000000000000000000000000000000000000000000008000000000000000000000000000000000000400000000000020000000000000000000800000000000100000000000010000000080010000000000000000000000400000000000000000000000000000100000100000000000080000000000000000000000000000000000000000000000000000000000002000000000000000000000000000000000000000000000000000020000000000000000000000000000000000000200000000000000000000000000000",
      "type": "0x2",
      "transactionHash": "0x3117470228975e1672f03f3bcb4b9413b0938628f2aa6d24886cf37594fa3619",
      "transactionIndex": "0x48",
      "blockHash": "0xd57d6bc48eff141b4b1d1c649c6584d1ecd5b41f9819161022a8c5ac5e555835",
      "blockNumber": "0xf7c1b8",
      "gasUsed": "0x17365",
      "effectiveGasPrice": "0xb8f717",
      "from": "0x027a5ce58fc466d0e3a9d1990404354029398541",
      "to": "0x49d2da22aee28f3111a85f4b4b6cb53c5c379669",
      "contractAddress": null,
      "l1Fee": "0x379688caa",
      "l1GasPrice": "0x154907aff",
      "l1GasUsed": "0x944"
    },
    {
      "status": "0x1",
      "cumulativeGasUsed": "0xcc8507",
      "logs": [
        {
          "address": "0x49d2da22aee28f3111a85f4b4b6cb53c5c379669",
          "topics": [
            "0xddf252ad1be2c89b69c2b068fc378daa952ba7f163c4a11628f55a4df523b3ef",
            "0x0000000000000000000000000000000000000000000000000000000000000000",
            "0x000000000000000000000000b42cd13d0b53088e1685ed7f6c78066b243f42f9",
            "0x00000000000000000000000000000000000000000000000000000000000000cb"
          ],
          "data": "0x",
          "blockHash": "0x940bee3aabd880387ce9f228935b9e52851733225207fb6c65f2683710d0671d",
          "blockNumber": "0xf7c1ba",
          "transactionHash": "0x03a707f7c080e8167c548cf1da7ee5dc12ff5176fd8393ec28652063d4be6d6d",
          "transactionIndex": "0x48",
          "logIndex": "0x165",
          "removed": false
        },
        {
          "address": "0x49d2da22aee28f3111a85f4b4b6cb53c5c379669",
          "topics": [
            "0xa0038d61ac7f17fe47f8776a0cf1e4845408cdca012144f1b7a61bc084e2eaa5",
            "0x000000000000000000000000696775d3ff9687fc243dcda690e26866b386965a"
          ],
          "data": "0x00000000000000000000000049d2da22aee28f3111a85f4b4b6cb53c5c37966900000000000000000000000000000000000000000000000000000000000000cb",
          "blockHash": "0x940bee3aabd880387ce9f228935b9e52851733225207fb6c65f2683710d0671d",
          "blockNumber": "0xf7c1ba",
          "transactionHash": "0x03a707f7c080e8167c548cf1da7ee5dc12ff5176fd8393ec28652063d4be6d6d",
          "transactionIndex": "0x48",
          "logIndex": "0x166",
          "removed": false
        }
      ],
      "logsBloom": "0x00000000000040000000000040000000000000000000000000000000000000000000000040000000000000000010000000000000000000000000000000000000000000000000010000000008000000000000000000000000000000000000000000000000020000000000000000000800000000000100000000000010000000000010000000000000000000400000000000002000000000000000080000000100000000000000000000000000000000000000000000000000000000000200000000000002000000000000000000000000000000000000000000800004000020000000000000000000000000000000000000200000000000000000000000000000",
      "type": "0x2",
      "transactionHash": "0x03a707f7c080e8167c548cf1da7ee5dc12ff5176fd8393ec28652063d4be6d6d",
      "transactionIndex": "0x48",
      "blockHash": "0x940bee3aabd880387ce9f228935b9e52851733225207fb6c65f2683710d0671d",
      "blockNumber": "0xf7c1ba",
      "gasUsed": "0x17371",
      "effectiveGasPrice": "0xb8ea75",
      "from": "0x027a5ce58fc466d0e3a9d1990404354029398541",
      "to": "0x49d2da22aee28f3111a85f4b4b6cb53c5c379669",
      "contractAddress": null,
      "l1Fee": "0x3e1512ba3",
      "l1GasPrice": "0x17a700945",
      "l1GasUsed": "0x950"
    },
    {
      "status": "0x1",
      "cumulativeGasUsed": "0xcdb5ac",
      "logs": [
        {
          "address": "0x49d2da22aee28f3111a85f4b4b6cb53c5c379669",
          "topics": [
            "0xddf252ad1be2c89b69c2b068fc378daa952ba7f163c4a11628f55a4df523b3ef",
            "0x0000000000000000000000000000000000000000000000000000000000000000",
            "0x000000000000000000000000b691b33ff0f88995ef2d143681463a01bc9d48b4",
            "0x00000000000000000000000000000000000000000000000000000000000000cc"
          ],
          "data": "0x",
          "blockHash": "0x940bee3aabd880387ce9f228935b9e52851733225207fb6c65f2683710d0671d",
          "blockNumber": "0xf7c1ba",
          "transactionHash": "0x9f0ed76896983dda2fed7baa8e9e1bd2a01ac102eed1761c0b7749b4f7c1f926",
          "transactionIndex": "0x49",
          "logIndex": "0x167",
          "removed": false
        },
        {
          "address": "0x49d2da22aee28f3111a85f4b4b6cb53c5c379669",
          "topics": [
            "0xa0038d61ac7f17fe47f8776a0cf1e4845408cdca012144f1b7a61bc084e2eaa5",
            "0x000000000000000000000000155bea18da86304ec1bbfebbdf82d7b525980d52"
          ],
          "data": "0x00000000000000000000000049d2da22aee28f3111a85f4b4b6cb53c5c37966900000000000000000000000000000000000000000000000000000000000000cc",
          "blockHash": "0x940bee3aabd880387ce9f228935b9e52851733225207fb6c65f2683710d0671d",
          "blockNumber": "0xf7c1ba",
          "transactionHash": "0x9f0ed76896983dda2fed7baa8e9e1bd2a01ac102eed1761c0b7749b4f7c1f926",
          "transactionIndex": "0x49",
          "logIndex": "0x168",
          "removed": false
        }
      ],
      "logsBloom": "0x00000000000000000000000040000000000000000000000000000000020000000000000040000000000000000000000000000000000000000000000000000000000000000000000000000008000000000000000000000000000000000000000000000000020000000000000000000800000000000100000000000010800000000010080000000000000000000000000000000000000000000000000000020100000000000000000000000000000000000000000000000000000100002000000000000012000000000000000000000800000000000000000000000000000020000000000000000000000000010000000000200000000000000000000000000000",
      "type": "0x2",
      "transactionHash": "0x9f0ed76896983dda2fed7baa8e9e1bd2a01ac102eed1761c0b7749b4f7c1f926",
      "transactionIndex": "0x49",
      "blockHash": "0x940bee3aabd880387ce9f228935b9e52851733225207fb6c65f2683710d0671d",
      "blockNumber": "0xf7c1ba",
      "gasUsed": "0x130a5",
      "effectiveGasPrice": "0xb8ea75",
      "from": "0x027a5ce58fc466d0e3a9d1990404354029398541",
      "to": "0x49d2da22aee28f3111a85f4b4b6cb53c5c379669",
      "contractAddress": null,
      "l1Fee": "0x3e6512646",
      "l1GasPrice": "0x17a700945",
      "l1GasUsed": "0x95c"
    },
    {
      "status": "0x1",
      "cumulativeGasUsed": "0xcee651",
      "logs": [
        {
          "address": "0x49d2da22aee28f3111a85f4b4b6cb53c5c379669",
          "topics": [
            "0xddf252ad1be2c89b69c2b068fc378daa952ba7f163c4a11628f55a4df523b3ef",
            "0x0000000000000000000000000000000000000000000000000000000000000000",
            "0x000000000000000000000000ba0ab3161197439c073e1cc6d5197b138f1c2148",
            "0x00000000000000000000000000000000000000000000000000000000000000cd"
          ],
          "data": "0x",
          "blockHash": "0x940bee3aabd880387ce9f228935b9e52851733225207fb6c65f2683710d0671d",
          "blockNumber": "0xf7c1ba",
          "transactionHash": "0x76eb75a5842b480a424cbe5cae037575a9910b492120c1d7483676c2aa5de758",
          "transactionIndex": "0x4a",
          "logIndex": "0x169",
          "removed": false
        },
        {
          "address": "0x49d2da22aee28f3111a85f4b4b6cb53c5c379669",
          "topics": [
            "0xa0038d61ac7f17fe47f8776a0cf1e4845408cdca012144f1b7a61bc084e2eaa5",
            "0x0000000000000000000000001c2cd64eedba8588dbbcdcd31e6b8e07ed1a2eb9"
          ],
          "data": "0x00000000000000000000000049d2da22aee28f3111a85f4b4b6cb53c5c37966900000000000000000000000000000000000000000000000000000000000000cd",
          "blockHash": "0x940bee3aabd880387ce9f228935b9e52851733225207fb6c65f2683710d0671d",
          "blockNumber": "0xf7c1ba",
          "transactionHash": "0x76eb75a5842b480a424cbe5cae037575a9910b492120c1d7483676c2aa5de758",
          "transactionIndex": "0x4a",
          "logIndex": "0x16a",
          "removed": false
        }
      ],
      "logsBloom": "0x00000000080000000000000040000000000000000000000000000000000000000000000040000000000000000000000000000000000000000000000000000000000000000000000000000008000000000000000000000000000000000000000000000000020000000000000000000800000000000100000000000010000000000010000000000000000000000080000080000000000010000000000000000100000000800000000000000000000000000020000000000000000000000000000000000002000000100004000000000000000000000000000000000000020020000000000000000000000000000000000000200000000000000000000000000000",
      "type": "0x2",
      "transactionHash": "0x76eb75a5842b480a424cbe5cae037575a9910b492120c1d7483676c2aa5de758",
      "transactionIndex": "0x4a",
      "blockHash": "0x940bee3aabd880387ce9f228935b9e52851733225207fb6c65f2683710d0671d",
      "blockNumber": "0xf7c1ba",
      "gasUsed": "0x130a5",
      "effectiveGasPrice": "0xb8ea75",
      "from": "0x027a5ce58fc466d0e3a9d1990404354029398541",
      "to": "0x49d2da22aee28f3111a85f4b4b6cb53c5c379669",
      "contractAddress": null,
      "l1Fee": "0x3e6512646",
      "l1GasPrice": "0x17a700945",
      "l1GasUsed": "0x95c"
    },
    {
      "status": "0x1",
      "cumulativeGasUsed": "0xd059c2",
      "logs": [
        {
          "address": "0x49d2da22aee28f3111a85f4b4b6cb53c5c379669",
          "topics": [
            "0xddf252ad1be2c89b69c2b068fc378daa952ba7f163c4a11628f55a4df523b3ef",
            "0x0000000000000000000000000000000000000000000000000000000000000000",
            "0x000000000000000000000000bd5ff05deec6e2eb46874f0f8eb81704fda1be58",
            "0x00000000000000000000000000000000000000000000000000000000000000ce"
          ],
          "data": "0x",
          "blockHash": "0x940bee3aabd880387ce9f228935b9e52851733225207fb6c65f2683710d0671d",
          "blockNumber": "0xf7c1ba",
          "transactionHash": "0xa8d5532064b8b1df8f55c8d10ece8c64980673a6bf1353f24ab5e244b1437504",
          "transactionIndex": "0x4b",
          "logIndex": "0x16b",
          "removed": false
        },
        {
          "address": "0x49d2da22aee28f3111a85f4b4b6cb53c5c379669",
          "topics": [
            "0xa0038d61ac7f17fe47f8776a0cf1e4845408cdca012144f1b7a61bc084e2eaa5",
            "0x000000000000000000000000f8d2e812906ebfc957d5423fe429f41c5b192000"
          ],
          "data": "0x00000000000000000000000049d2da22aee28f3111a85f4b4b6cb53c5c37966900000000000000000000000000000000000000000000000000000000000000ce",
          "blockHash": "0x940bee3aabd880387ce9f228935b9e52851733225207fb6c65f2683710d0671d",
          "blockNumber": "0xf7c1ba",
          "transactionHash": "0xa8d5532064b8b1df8f55c8d10ece8c64980673a6bf1353f24ab5e244b1437504",
          "transactionIndex": "0x4b",
          "logIndex": "0x16c",
          "removed": false
        }
      ],
      "logsBloom": "0x08000000000000000000000040000040000000000000000000000000000000000100004040000000000000000000000000000000000000000000000000000000000000000000000000000008000000000000000000000000000000000000000000000000020000000000000000000800000000000101000000000010000000000010000000000000000000000000000000001000000000000000000000000100000000000000000000000000000000000000000000000040000000000000000000000002000000800000000000000000000000000000000000000000000020000000000000000000000000000000000000200000000000000000200000000000",
      "type": "0x2",
      "transactionHash": "0xa8d5532064b8b1df8f55c8d10ece8c64980673a6bf1353f24ab5e244b1437504",
      "transactionIndex": "0x4b",
      "blockHash": "0x940bee3aabd880387ce9f228935b9e52851733225207fb6c65f2683710d0671d",
      "blockNumber": "0xf7c1ba",
      "gasUsed": "0x17371",
      "effectiveGasPrice": "0xb8ea75",
      "from": "0x027a5ce58fc466d0e3a9d1990404354029398541",
      "to": "0x49d2da22aee28f3111a85f4b4b6cb53c5c379669",
      "contractAddress": null,
      "l1Fee": "0x3e6512646",
      "l1GasPrice": "0x17a700945",
      "l1GasUsed": "0x95c"
    },
    {
      "status": "0x1",
      "cumulativeGasUsed": "0xd18a67",
      "logs": [
        {
          "address": "0x49d2da22aee28f3111a85f4b4b6cb53c5c379669",
          "topics": [
            "0xddf252ad1be2c89b69c2b068fc378daa952ba7f163c4a11628f55a4df523b3ef",
            "0x0000000000000000000000000000000000000000000000000000000000000000",
            "0x000000000000000000000000c205125419a346408476bb332ddbf85ec89b1bda",
            "0x00000000000000000000000000000000000000000000000000000000000000cf"
          ],
          "data": "0x",
          "blockHash": "0x940bee3aabd880387ce9f228935b9e52851733225207fb6c65f2683710d0671d",
          "blockNumber": "0xf7c1ba",
          "transactionHash": "0x1e50f3921a79ca0b0a6ae2f131d002ade67d85c64782af35986d2105e763bbfd",
          "transactionIndex": "0x4c",
          "logIndex": "0x16d",
          "removed": false
        },
        {
          "address": "0x49d2da22aee28f3111a85f4b4b6cb53c5c379669",
          "topics": [
            "0xa0038d61ac7f17fe47f8776a0cf1e4845408cdca012144f1b7a61bc084e2eaa5",
            "0x000000000000000000000000ee28b5a941b1283ca81cccb0e6bd9ff48798cc01"
          ],
          "data": "0x00000000000000000000000049d2da22aee28f3111a85f4b4b6cb53c5c37966900000000000000000000000000000000000000000000000000000000000000cf",
          "blockHash": "0x940bee3aabd880387ce9f228935b9e52851733225207fb6c65f2683710d0671d",
          "blockNumber": "0xf7c1ba",
          "transactionHash": "0x1e50f3921a79ca0b0a6ae2f131d002ade67d85c64782af35986d2105e763bbfd",
          "transactionIndex": "0x4c",
          "logIndex": "0x16e",
          "removed": false
        }
      ],
      "logsBloom": "0x00000000400000000000000040000000000000000000000000000000800000080000000040000000000000000000000000000000000000000000000000000000000000000000000000000008000000000000000000000000000000000000000000000000020000000100000000000800000000000100000000000010000000000010100000000000000000000000000000000000000000000000000000000100000000004000800000000000000000000000000000000001000000000000000000000002000000000000000000000000000000000010000000000000000020000000000000000000000000000000000000200000000000000000000000000000",
      "type": "0x2",
      "transactionHash": "0x1e50f3921a79ca0b0a6ae2f131d002ade67d85c64782af35986d2105e763bbfd",
      "transactionIndex": "0x4c",
      "blockHash": "0x940bee3aabd880387ce9f228935b9e52851733225207fb6c65f2683710d0671d",
      "blockNumber": "0xf7c1ba",
      "gasUsed": "0x130a5",
      "effectiveGasPrice": "0xb8ea75",
      "from": "0x027a5ce58fc466d0e3a9d1990404354029398541",
      "to": "0x49d2da22aee28f3111a85f4b4b6cb53c5c379669",
      "contractAddress": null,
      "l1Fee": "0x3e6512646",
      "l1GasPrice": "0x17a700945",
      "l1GasUsed": "0x95c"
    },
    {
      "status": "0x1",
      "cumulativeGasUsed": "0xd2fdd8",
      "logs": [
        {
          "address": "0x49d2da22aee28f3111a85f4b4b6cb53c5c379669",
          "topics": [
            "0xddf252ad1be2c89b69c2b068fc378daa952ba7f163c4a11628f55a4df523b3ef",
            "0x0000000000000000000000000000000000000000000000000000000000000000",
            "0x000000000000000000000000c53c080989e6264537ae95d38260fa93fc37a08f",
            "0x00000000000000000000000000000000000000000000000000000000000000d0"
          ],
          "data": "0x",
          "blockHash": "0x940bee3aabd880387ce9f228935b9e52851733225207fb6c65f2683710d0671d",
          "blockNumber": "0xf7c1ba",
          "transactionHash": "0xb84687ad152f4294eec818bef5c3375250bf30503fbf3ea5127e06a5706b8cc9",
          "transactionIndex": "0x4d",
          "logIndex": "0x16f",
          "removed": false
        },
        {
          "address": "0x49d2da22aee28f3111a85f4b4b6cb53c5c379669",
          "topics": [
            "0xa0038d61ac7f17fe47f8776a0cf1e4845408cdca012144f1b7a61bc084e2eaa5",
            "0x000000000000000000000000f5739771f494a5552ec7dda721d121e763812f6e"
          ],
          "data": "0x00000000000000000000000049d2da22aee28f3111a85f4b4b6cb53c5c37966900000000000000000000000000000000000000000000000000000000000000d0",
          "blockHash": "0x940bee3aabd880387ce9f228935b9e52851733225207fb6c65f2683710d0671d",
          "blockNumber": "0xf7c1ba",
          "transactionHash": "0xb84687ad152f4294eec818bef5c3375250bf30503fbf3ea5127e06a5706b8cc9",
          "transactionIndex": "0x4d",
          "logIndex": "0x170",
          "removed": false
        }
      ],
      "logsBloom": "0x00000000000000200000000040000000000000000000000000000000000000000000000040000000000000000000000000000000000000000000000000000000000000000000000000000008000000000000040000000002000000000000000000000000020001000000000002000800000000000100000100000010000000000010000000000000000000000000000000000000000000000000000000000100000000000000000000000000000000000000000000000000000000000000000000000002000000000000000000000000000000000000000000008000000020000000001000000000000000002000000000200000000000000000000000000000",
      "type": "0x2",
      "transactionHash": "0xb84687ad152f4294eec818bef5c3375250bf30503fbf3ea5127e06a5706b8cc9",
      "transactionIndex": "0x4d",
      "blockHash": "0x940bee3aabd880387ce9f228935b9e52851733225207fb6c65f2683710d0671d",
      "blockNumber": "0xf7c1ba",
      "gasUsed": "0x17371",
      "effectiveGasPrice": "0xb8ea75",
      "from": "0x027a5ce58fc466d0e3a9d1990404354029398541",
      "to": "0x49d2da22aee28f3111a85f4b4b6cb53c5c379669",
      "contractAddress": null,
      "l1Fee": "0x3e1512ba3",
      "l1GasPrice": "0x17a700945",
      "l1GasUsed": "0x950"
    },
    {
      "status": "0x1",
      "cumulativeGasUsed": "0xd47149",
      "logs": [
        {
          "address": "0x49d2da22aee28f3111a85f4b4b6cb53c5c379669",
          "topics": [
            "0xddf252ad1be2c89b69c2b068fc378daa952ba7f163c4a11628f55a4df523b3ef",
            "0x0000000000000000000000000000000000000000000000000000000000000000",
            "0x000000000000000000000000ce1320ca406c8c4a32669b1fad04c42badd0df04",
            "0x00000000000000000000000000000000000000000000000000000000000000d1"
          ],
          "data": "0x",
          "blockHash": "0x940bee3aabd880387ce9f228935b9e52851733225207fb6c65f2683710d0671d",
          "blockNumber": "0xf7c1ba",
          "transactionHash": "0xa852c20d437489fb7fb7a5a6212029019f9430c6cbea27e6e02c46cb1de8268f",
          "transactionIndex": "0x4e",
          "logIndex": "0x171",
          "removed": false
        },
        {
          "address": "0x49d2da22aee28f3111a85f4b4b6cb53c5c379669",
          "topics": [
            "0xa0038d61ac7f17fe47f8776a0cf1e4845408cdca012144f1b7a61bc084e2eaa5",
            "0x00000000000000000000000058060c91de071d512bc34875008877394139cdfe"
          ],
          "data": "0x00000000000000000000000049d2da22aee28f3111a85f4b4b6cb53c5c37966900000000000000000000000000000000000000000000000000000000000000d1",
          "blockHash": "0x940bee3aabd880387ce9f228935b9e52851733225207fb6c65f2683710d0671d",
          "blockNumber": "0xf7c1ba",
          "transactionHash": "0xa852c20d437489fb7fb7a5a6212029019f9430c6cbea27e6e02c46cb1de8268f",
          "transactionIndex": "0x4e",
          "logIndex": "0x172",
          "removed": false
        }
      ],
      "logsBloom": "0x00000000000000000000000040000000000000000000000000000000000000000000000040000000000000000000000000000000000000000000000000000000000000000000000000000008000000000000000040000000000000000000000000000000020000000000000000000800008000000140000000000010000000000030000000000000000000000000000000000000002000000000000000080100000000400100000000000000000000000000000000000000000000000000000000000002000000000000000000000000000000008000000000000000000020000000000000000000000000000000000000200000000000000000000000000000",
      "type": "0x2",
      "transactionHash": "0xa852c20d437489fb7fb7a5a6212029019f9430c6cbea27e6e02c46cb1de8268f",
      "transactionIndex": "0x4e",
      "blockHash": "0x940bee3aabd880387ce9f228935b9e52851733225207fb6c65f2683710d0671d",
      "blockNumber": "0xf7c1ba",
      "gasUsed": "0x17371",
      "effectiveGasPrice": "0xb8ea75",
      "from": "0x027a5ce58fc466d0e3a9d1990404354029398541",
      "to": "0x49d2da22aee28f3111a85f4b4b6cb53c5c379669",
      "contractAddress": null,
      "l1Fee": "0x3e6512646",
      "l1GasPrice": "0x17a700945",
      "l1GasUsed": "0x95c"
    },
    {
      "status": "0x1",
      "cumulativeGasUsed": "0xd5e4ba",
      "logs": [
        {
          "address": "0x49d2da22aee28f3111a85f4b4b6cb53c5c379669",
          "topics": [
            "0xddf252ad1be2c89b69c2b068fc378daa952ba7f163c4a11628f55a4df523b3ef",
            "0x0000000000000000000000000000000000000000000000000000000000000000",
            "0x000000000000000000000000d235f26665df3bab05207f80ce1306342ec992c6",
            "0x00000000000000000000000000000000000000000000000000000000000000d2"
          ],
          "data": "0x",
          "blockHash": "0x940bee3aabd880387ce9f228935b9e52851733225207fb6c65f2683710d0671d",
          "blockNumber": "0xf7c1ba",
          "transactionHash": "0x1992e157c158dd85640f07f0a0fa92371661e7748693d8089c0df0623bc7221e",
          "transactionIndex": "0x4f",
          "logIndex": "0x173",
          "removed": false
        },
        {
          "address": "0x49d2da22aee28f3111a85f4b4b6cb53c5c379669",
          "topics": [
            "0xa0038d61ac7f17fe47f8776a0cf1e4845408cdca012144f1b7a61bc084e2eaa5",
            "0x00000000000000000000000033eded660f296098cac35ee627c9f8da55cac7cb"
          ],
          "data": "0x00000000000000000000000049d2da22aee28f3111a85f4b4b6cb53c5c37966900000000000000000000000000000000000000000000000000000000000000d2",
          "blockHash": "0x940bee3aabd880387ce9f228935b9e52851733225207fb6c65f2683710d0671d",
          "blockNumber": "0xf7c1ba",
          "transactionHash": "0x1992e157c158dd85640f07f0a0fa92371661e7748693d8089c0df0623bc7221e",
          "transactionIndex": "0x4f",
          "logIndex": "0x174",
          "removed": false
        }
      ],
      "logsBloom": "0x00000000000000000000000040000000000000000004000000100000000000000000000040000000000000000000000000000000000000000000000000010000000000000000000000000008000000040000000000000000000000020000000000000000020000000040000000000800000000000100000000000010000000000010000000000000000000000000000000000000000000000000000000000100000000000000020000000000000000000000000000000000000000000200000000000002000000000000000000000000000000000000000000000000000020000000000000000000000000000000000000200000000000000040000000000000",
      "type": "0x2",
      "transactionHash": "0x1992e157c158dd85640f07f0a0fa92371661e7748693d8089c0df0623bc7221e",
      "transactionIndex": "0x4f",
      "blockHash": "0x940bee3aabd880387ce9f228935b9e52851733225207fb6c65f2683710d0671d",
      "blockNumber": "0xf7c1ba",
      "gasUsed": "0x17371",
      "effectiveGasPrice": "0xb8ea75",
      "from": "0x027a5ce58fc466d0e3a9d1990404354029398541",
      "to": "0x49d2da22aee28f3111a85f4b4b6cb53c5c379669",
      "contractAddress": null,
      "l1Fee": "0x3e6512646",
      "l1GasPrice": "0x17a700945",
      "l1GasUsed": "0x95c"
    },
    {
      "status": "0x1",
      "cumulativeGasUsed": "0x7c5828",
      "logs": [
        {
          "address": "0x49d2da22aee28f3111a85f4b4b6cb53c5c379669",
          "topics": [
            "0xddf252ad1be2c89b69c2b068fc378daa952ba7f163c4a11628f55a4df523b3ef",
            "0x0000000000000000000000000000000000000000000000000000000000000000",
            "0x000000000000000000000000d2d97ec80079aebd301a603b98a837d9d1c34789",
            "0x00000000000000000000000000000000000000000000000000000000000000d3"
          ],
          "data": "0x",
          "blockHash": "0x1e74d72d07a39702410301d9345bd9a3a5a1fe6e7f6b489d734b6f3b0d34156e",
          "blockNumber": "0xf7c1bb",
          "transactionHash": "0xecf76c8114591045091cb320d7bb967cea5f6ebea4952298e21b86b713a68a2b",
          "transactionIndex": "0x39",
          "logIndex": "0xb6",
          "removed": false
        },
        {
          "address": "0x49d2da22aee28f3111a85f4b4b6cb53c5c379669",
          "topics": [
            "0xa0038d61ac7f17fe47f8776a0cf1e4845408cdca012144f1b7a61bc084e2eaa5",
            "0x0000000000000000000000005c137740269ca8a9e32d44289a92242d6193d0e1"
          ],
          "data": "0x00000000000000000000000049d2da22aee28f3111a85f4b4b6cb53c5c37966900000000000000000000000000000000000000000000000000000000000000d3",
          "blockHash": "0x1e74d72d07a39702410301d9345bd9a3a5a1fe6e7f6b489d734b6f3b0d34156e",
          "blockNumber": "0xf7c1bb",
          "transactionHash": "0xecf76c8114591045091cb320d7bb967cea5f6ebea4952298e21b86b713a68a2b",
          "transactionIndex": "0x39",
          "logIndex": "0xb7",
          "removed": false
        }
      ],
      "logsBloom": "0x00000000000000000004040040000000000000000000000000000000000000000000000040000000020000000000000000200000000000000000000000000010000000000000000000000008000000000000000000000000000000000000000000000000220000000000000000000800000000000100000000000010000000000010000000000000000000000000008000000000000000000000000000000100000000000000000000000000000000200000000000000000000000000000000000000002000000000000000000000000000000001000000000000000000020000000000000000000000000000000000000200000000000000000000000000000",
      "type": "0x2",
      "transactionHash": "0xecf76c8114591045091cb320d7bb967cea5f6ebea4952298e21b86b713a68a2b",
      "transactionIndex": "0x39",
      "blockHash": "0x1e74d72d07a39702410301d9345bd9a3a5a1fe6e7f6b489d734b6f3b0d34156e",
      "blockNumber": "0xf7c1bb",
      "gasUsed": "0x13099",
      "effectiveGasPrice": "0xb902f8",
      "from": "0x027a5ce58fc466d0e3a9d1990404354029398541",
      "to": "0x49d2da22aee28f3111a85f4b4b6cb53c5c379669",
      "contractAddress": null,
      "l1Fee": "0x3e1512ba3",
      "l1GasPrice": "0x17a700945",
      "l1GasUsed": "0x950"
    },
    {
      "status": "0x1",
      "cumulativeGasUsed": "0x7dcb99",
      "logs": [
        {
          "address": "0x49d2da22aee28f3111a85f4b4b6cb53c5c379669",
          "topics": [
            "0xddf252ad1be2c89b69c2b068fc378daa952ba7f163c4a11628f55a4df523b3ef",
            "0x0000000000000000000000000000000000000000000000000000000000000000",
            "0x000000000000000000000000e7750d2361eb7094695cd87e23e603bbcc922cff",
            "0x00000000000000000000000000000000000000000000000000000000000000d4"
          ],
          "data": "0x",
          "blockHash": "0x1e74d72d07a39702410301d9345bd9a3a5a1fe6e7f6b489d734b6f3b0d34156e",
          "blockNumber": "0xf7c1bb",
          "transactionHash": "0x2271ef57f970403e3bbc730ec6d20a9e6554018af4e0c9e3b0fa1b6854e6c24b",
          "transactionIndex": "0x3a",
          "logIndex": "0xb8",
          "removed": false
        },
        {
          "address": "0x49d2da22aee28f3111a85f4b4b6cb53c5c379669",
          "topics": [
            "0xa0038d61ac7f17fe47f8776a0cf1e4845408cdca012144f1b7a61bc084e2eaa5",
            "0x0000000000000000000000009acbbf1440042b7016fae347e503ff5179862d38"
          ],
          "data": "0x00000000000000000000000049d2da22aee28f3111a85f4b4b6cb53c5c37966900000000000000000000000000000000000000000000000000000000000000d4",
          "blockHash": "0x1e74d72d07a39702410301d9345bd9a3a5a1fe6e7f6b489d734b6f3b0d34156e",
          "blockNumber": "0xf7c1bb",
          "transactionHash": "0x2271ef57f970403e3bbc730ec6d20a9e6554018af4e0c9e3b0fa1b6854e6c24b",
          "transactionIndex": "0x3a",
          "logIndex": "0xb9",
          "removed": false
        }
      ],
      "logsBloom": "0x00000000000000000000000040000001000000000000000000000000000000000000000040000000000200000000000000000000000000000000000000000000000000000000000000000008000800000000000000000000000000000000000000000000020000000000000000000800000000080100000000000010000000000010000000000000000001000000000000000000000000000000080000000100000000000000000000000000000000000000200000000000000000000000000000000002000000000000000000000000000000000000000000000000400020000000000000000000000000000000000000200000000000004000000000000000",
      "type": "0x2",
      "transactionHash": "0x2271ef57f970403e3bbc730ec6d20a9e6554018af4e0c9e3b0fa1b6854e6c24b",
      "transactionIndex": "0x3a",
      "blockHash": "0x1e74d72d07a39702410301d9345bd9a3a5a1fe6e7f6b489d734b6f3b0d34156e",
      "blockNumber": "0xf7c1bb",
      "gasUsed": "0x17371",
      "effectiveGasPrice": "0xb902f8",
      "from": "0x027a5ce58fc466d0e3a9d1990404354029398541",
      "to": "0x49d2da22aee28f3111a85f4b4b6cb53c5c379669",
      "contractAddress": null,
      "l1Fee": "0x3e6512646",
      "l1GasPrice": "0x17a700945",
      "l1GasUsed": "0x95c"
    },
    {
      "status": "0x1",
      "cumulativeGasUsed": "0x7efc32",
      "logs": [
        {
          "address": "0x49d2da22aee28f3111a85f4b4b6cb53c5c379669",
          "topics": [
            "0xddf252ad1be2c89b69c2b068fc378daa952ba7f163c4a11628f55a4df523b3ef",
            "0x0000000000000000000000000000000000000000000000000000000000000000",
            "0x000000000000000000000000f5f1c399005249fb6e8177f51b1d54210e3bd714",
            "0x00000000000000000000000000000000000000000000000000000000000000d5"
          ],
          "data": "0x",
          "blockHash": "0x1e74d72d07a39702410301d9345bd9a3a5a1fe6e7f6b489d734b6f3b0d34156e",
          "blockNumber": "0xf7c1bb",
          "transactionHash": "0x50383ac15c761206849480b7b1f73ed92c03a8a0619952a1a904a830c7f01888",
          "transactionIndex": "0x3b",
          "logIndex": "0xba",
          "removed": false
        },
        {
          "address": "0x49d2da22aee28f3111a85f4b4b6cb53c5c379669",
          "topics": [
            "0xa0038d61ac7f17fe47f8776a0cf1e4845408cdca012144f1b7a61bc084e2eaa5",
            "0x000000000000000000000000120b2d1bd98a08c457fce7132c5558edd3adc342"
          ],
          "data": "0x00000000000000000000000049d2da22aee28f3111a85f4b4b6cb53c5c37966900000000000000000000000000000000000000000000000000000000000000d5",
          "blockHash": "0x1e74d72d07a39702410301d9345bd9a3a5a1fe6e7f6b489d734b6f3b0d34156e",
          "blockNumber": "0xf7c1bb",
          "transactionHash": "0x50383ac15c761206849480b7b1f73ed92c03a8a0619952a1a904a830c7f01888",
          "transactionIndex": "0x3b",
          "logIndex": "0xbb",
          "removed": false
        }
      ],
      "logsBloom": "0x00000000000000000000000040008000000000000000000000000002000000000000000040000000000000000002000000000000000000000000000000000000000002000000000000000008000000000000000000000000000000000000000000000000020080000000000000000800000000000100000000000010000000000010000000000000000000000000000000000000000000000000000000000100000000000000000000000000000000000000000000000000000000000000000000000002000000000000000000000020000000000000000000000000000020000000000008000000000000000800000000200200000000000000000000000000",
      "type": "0x2",
      "transactionHash": "0x50383ac15c761206849480b7b1f73ed92c03a8a0619952a1a904a830c7f01888",
      "transactionIndex": "0x3b",
      "blockHash": "0x1e74d72d07a39702410301d9345bd9a3a5a1fe6e7f6b489d734b6f3b0d34156e",
      "blockNumber": "0xf7c1bb",
      "gasUsed": "0x13099",
      "effectiveGasPrice": "0xb902f8",
      "from": "0x027a5ce58fc466d0e3a9d1990404354029398541",
      "to": "0x49d2da22aee28f3111a85f4b4b6cb53c5c379669",
      "contractAddress": null,
      "l1Fee": "0x3e1512ba3",
      "l1GasPrice": "0x17a700945",
      "l1GasUsed": "0x950"
    },
    {
      "status": "0x1",
      "cumulativeGasUsed": "0x806f97",
      "logs": [
        {
          "address": "0x49d2da22aee28f3111a85f4b4b6cb53c5c379669",
          "topics": [
            "0xddf252ad1be2c89b69c2b068fc378daa952ba7f163c4a11628f55a4df523b3ef",
            "0x0000000000000000000000000000000000000000000000000000000000000000",
            "0x000000000000000000000000f78ef100dd63f62cdc0ba7324b43ab7074e8262f",
            "0x00000000000000000000000000000000000000000000000000000000000000d6"
          ],
          "data": "0x",
          "blockHash": "0x1e74d72d07a39702410301d9345bd9a3a5a1fe6e7f6b489d734b6f3b0d34156e",
          "blockNumber": "0xf7c1bb",
          "transactionHash": "0x4ba51800014be16fa3fa118a4e3601b6f14c8a48807fcedbd3fb06a7bdbcef74",
          "transactionIndex": "0x3c",
          "logIndex": "0xbc",
          "removed": false
        },
        {
          "address": "0x49d2da22aee28f3111a85f4b4b6cb53c5c379669",
          "topics": [
            "0xa0038d61ac7f17fe47f8776a0cf1e4845408cdca012144f1b7a61bc084e2eaa5",
            "0x000000000000000000000000865c5f55832c012b302ebcf02cece76cca3e9060"
          ],
          "data": "0x00000000000000000000000049d2da22aee28f3111a85f4b4b6cb53c5c37966900000000000000000000000000000000000000000000000000000000000000d6",
          "blockHash": "0x1e74d72d07a39702410301d9345bd9a3a5a1fe6e7f6b489d734b6f3b0d34156e",
          "blockNumber": "0xf7c1bb",
          "transactionHash": "0x4ba51800014be16fa3fa118a4e3601b6f14c8a48807fcedbd3fb06a7bdbcef74",
          "transactionIndex": "0x3c",
          "logIndex": "0xbd",
          "removed": false
        }
      ],
      "logsBloom": "0x00000000000000000000000040000000000000800000000000000000000000000000000044008000000000000000000000000000000000000004000000000000000000000000000000000008000000000000000000000000000000000000000000000000020000000000000000000800000000000100000000000010000000000010000000000000010000000000000000000000000000000000000000010100000000000000000000000000800000000000000000000000000000000000000000000002000000000000000000000000000000000000000000000000010020000000000000000000000000000000000000200000000000008000000000000000",
      "type": "0x2",
      "transactionHash": "0x4ba51800014be16fa3fa118a4e3601b6f14c8a48807fcedbd3fb06a7bdbcef74",
      "transactionIndex": "0x3c",
      "blockHash": "0x1e74d72d07a39702410301d9345bd9a3a5a1fe6e7f6b489d734b6f3b0d34156e",
      "blockNumber": "0xf7c1bb",
      "gasUsed": "0x17365",
      "effectiveGasPrice": "0xb902f8",
      "from": "0x027a5ce58fc466d0e3a9d1990404354029398541",
      "to": "0x49d2da22aee28f3111a85f4b4b6cb53c5c379669",
      "contractAddress": null,
      "l1Fee": "0x3dc513100",
      "l1GasPrice": "0x17a700945",
      "l1GasUsed": "0x944"
    },
    {
      "status": "0x1",
      "cumulativeGasUsed": "0x81e308",
      "logs": [
        {
          "address": "0x49d2da22aee28f3111a85f4b4b6cb53c5c379669",
          "topics": [
            "0xddf252ad1be2c89b69c2b068fc378daa952ba7f163c4a11628f55a4df523b3ef",
            "0x0000000000000000000000000000000000000000000000000000000000000000",
            "0x000000000000000000000000f9fcd5b21b72d90457065935cde16a99af4e2db3",
            "0x00000000000000000000000000000000000000000000000000000000000000d7"
          ],
          "data": "0x",
          "blockHash": "0x1e74d72d07a39702410301d9345bd9a3a5a1fe6e7f6b489d734b6f3b0d34156e",
          "blockNumber": "0xf7c1bb",
          "transactionHash": "0x7f51751eea5eb7a231e21ea646a72a27f4568dce20228a0e6b52717c1bce8842",
          "transactionIndex": "0x3d",
          "logIndex": "0xbe",
          "removed": false
        },
        {
          "address": "0x49d2da22aee28f3111a85f4b4b6cb53c5c379669",
          "topics": [
            "0xa0038d61ac7f17fe47f8776a0cf1e4845408cdca012144f1b7a61bc084e2eaa5",
            "0x000000000000000000000000710b27fcf2e9b7fa4358bc11da468a24ce101ddb"
          ],
          "data": "0x00000000000000000000000049d2da22aee28f3111a85f4b4b6cb53c5c37966900000000000000000000000000000000000000000000000000000000000000d7",
          "blockHash": "0x1e74d72d07a39702410301d9345bd9a3a5a1fe6e7f6b489d734b6f3b0d34156e",
          "blockNumber": "0xf7c1bb",
          "transactionHash": "0x7f51751eea5eb7a231e21ea646a72a27f4568dce20228a0e6b52717c1bce8842",
          "transactionIndex": "0x3d",
          "logIndex": "0xbf",
          "removed": false
        }
      ],
      "logsBloom": "0x00000000000000000000000040000000000000000000000000000000000000000000000040000000000000000000000000000000000000000000000000000000000000000000000000000008000000000000000000000000000000000000000000000000020000000000000000000800000000000100000000000010000000000010000020000000000000000000000000000001000000000000000000000100000000000000000000000000001000000000200000000000000000000001000200000002000000000000000000000000000000000000000000000000000020000000040000000000000000000000010000200000000000000000000000800000",
      "type": "0x2",
      "transactionHash": "0x7f51751eea5eb7a231e21ea646a72a27f4568dce20228a0e6b52717c1bce8842",
      "transactionIndex": "0x3d",
      "blockHash": "0x1e74d72d07a39702410301d9345bd9a3a5a1fe6e7f6b489d734b6f3b0d34156e",
      "blockNumber": "0xf7c1bb",
      "gasUsed": "0x17371",
      "effectiveGasPrice": "0xb902f8",
      "from": "0x027a5ce58fc466d0e3a9d1990404354029398541",
      "to": "0x49d2da22aee28f3111a85f4b4b6cb53c5c379669",
      "contractAddress": null,
      "l1Fee": "0x3e1512ba3",
      "l1GasPrice": "0x17a700945",
      "l1GasUsed": "0x950"
    },
    {
      "status": "0x1",
      "cumulativeGasUsed": "0x8313ad",
      "logs": [
        {
          "address": "0x49d2da22aee28f3111a85f4b4b6cb53c5c379669",
          "topics": [
            "0xddf252ad1be2c89b69c2b068fc378daa952ba7f163c4a11628f55a4df523b3ef",
            "0x0000000000000000000000000000000000000000000000000000000000000000",
            "0x000000000000000000000000fa55f550d8c2ec8778d81e09c3298b60ff0b8c94",
            "0x00000000000000000000000000000000000000000000000000000000000000d8"
          ],
          "data": "0x",
          "blockHash": "0x1e74d72d07a39702410301d9345bd9a3a5a1fe6e7f6b489d734b6f3b0d34156e",
          "blockNumber": "0xf7c1bb",
          "transactionHash": "0xdc1fb4d7fd86667d73e1588db74dbfe888dd80b831b08e7c1fefbe393cb7ea7d",
          "transactionIndex": "0x3e",
          "logIndex": "0xc0",
          "removed": false
        },
        {
          "address": "0x49d2da22aee28f3111a85f4b4b6cb53c5c379669",
          "topics": [
            "0xa0038d61ac7f17fe47f8776a0cf1e4845408cdca012144f1b7a61bc084e2eaa5",
            "0x000000000000000000000000d13d4f535a7d1800377c6d527116a03c157c3119"
          ],
          "data": "0x00000000000000000000000049d2da22aee28f3111a85f4b4b6cb53c5c37966900000000000000000000000000000000000000000000000000000000000000d8",
          "blockHash": "0x1e74d72d07a39702410301d9345bd9a3a5a1fe6e7f6b489d734b6f3b0d34156e",
          "blockNumber": "0xf7c1bb",
          "transactionHash": "0xdc1fb4d7fd86667d73e1588db74dbfe888dd80b831b08e7c1fefbe393cb7ea7d",
          "transactionIndex": "0x3e",
          "logIndex": "0xc1",
          "removed": false
        }
      ],
      "logsBloom": "0x00000000000000000000000042000000000000000000040000000000000000000000000040000000000000000002000000000000000000000000000002000000000000000000000000000008020000000000000000000000000000000000800000000000020000000000000000000800000000000100000000000010000000000010000001000000000000000000000000000000000000000000000100000100000000000000000000000000000000000000000000000000000000000000000000000002000000000000000000000000000000000000000000000000000020000000000000000000000000000000000000200000000000000000000000000000",
      "type": "0x2",
      "transactionHash": "0xdc1fb4d7fd86667d73e1588db74dbfe888dd80b831b08e7c1fefbe393cb7ea7d",
      "transactionIndex": "0x3e",
      "blockHash": "0x1e74d72d07a39702410301d9345bd9a3a5a1fe6e7f6b489d734b6f3b0d34156e",
      "blockNumber": "0xf7c1bb",
      "gasUsed": "0x130a5",
      "effectiveGasPrice": "0xb902f8",
      "from": "0x027a5ce58fc466d0e3a9d1990404354029398541",
      "to": "0x49d2da22aee28f3111a85f4b4b6cb53c5c379669",
      "contractAddress": null,
      "l1Fee": "0x3e6512646",
      "l1GasPrice": "0x17a700945",
      "l1GasUsed": "0x95c"
    }
  ],
  "libraries": [],
  "pending": [],
  "returns": {},
  "timestamp": 1719263332,
  "chain": 8453,
  "commit": "3dd2ed9"
}