{
  "transactions": [
    {
      "hash": "0x53e27c510f6cad0feb047298f593495d656608c2f2cadbbe7c1611b5ddb4fbe4",
      "transactionType": "CALL",
      "contractName": null,
      "contractAddress": "0x49d2da22aee28f3111a85f4b4b6cb53c5c379669",
      "function": "safeMint(address,uint256)",
      "arguments": [
        "0x70b52934105F6B4a5e5FD4b7Eb17164F023F3865",
        "279"
      ],
      "transaction": {
        "from": "0x027a5ce58fc466d0e3a9d1990404354029398541",
        "to": "0x49d2da22aee28f3111a85f4b4b6cb53c5c379669",
        "gas": "0x37779",
        "value": "0x0",
        "input": "0xa144819400000000000000000000000070b52934105f6b4a5e5fd4b7eb17164f023f38650000000000000000000000000000000000000000000000000000000000000117",
        "nonce": "0x261",
        "chainId": "0x2105"
      },
      "additionalContracts": [
        {
          "transactionType": "CREATE2",
          "address": "0x7cefadcc873e0d803afb0952d44844fbbd92fd2e",
          "initCode": "0x3d60ad80600a3d3981f3363d3d373d3d3d363d7362a163d4195a826984eeff040510c92e52683c5d5af43d82803e903d91602b57fd5bf30000000000000000000000000000000000000000000000000000000000000000000000000000000000000000000000000000000000000000000000000000210500000000000000000000000049d2da22aee28f3111a85f4b4b6cb53c5c3796690000000000000000000000000000000000000000000000000000000000000117"
        }
      ],
      "isFixedGasLimit": false
    },
    {
      "hash": "0x91ac8a791404f3f13f63e96137efd18f153cb507be8ac07f10f23da5763d48a4",
      "transactionType": "CALL",
      "contractName": null,
      "contractAddress": "0x49d2da22aee28f3111a85f4b4b6cb53c5c379669",
      "function": "safeMint(address,uint256)",
      "arguments": [
        "0x89b6f75692FC8A72801485951450A97c5Bca43Df",
        "280"
      ],
      "transaction": {
        "from": "0x027a5ce58fc466d0e3a9d1990404354029398541",
        "to": "0x49d2da22aee28f3111a85f4b4b6cb53c5c379669",
        "gas": "0x37779",
        "value": "0x0",
        "input": "0xa144819400000000000000000000000089b6f75692fc8a72801485951450a97c5bca43df0000000000000000000000000000000000000000000000000000000000000118",
        "nonce": "0x262",
        "chainId": "0x2105"
      },
      "additionalContracts": [
        {
          "transactionType": "CREATE2",
          "address": "0x09dc484e620d906407c7fafbafc1de9303d8cc60",
          "initCode": "0x3d60ad80600a3d3981f3363d3d373d3d3d363d7362a163d4195a826984eeff040510c92e52683c5d5af43d82803e903d91602b57fd5bf30000000000000000000000000000000000000000000000000000000000000000000000000000000000000000000000000000000000000000000000000000210500000000000000000000000049d2da22aee28f3111a85f4b4b6cb53c5c3796690000000000000000000000000000000000000000000000000000000000000118"
        }
      ],
      "isFixedGasLimit": false
    },
    {
      "hash": "0x982b1a50b1c4da8fd53713b61264d0a23ebc0f97af9abd5f7a8d21b395cd6e73",
      "transactionType": "CALL",
      "contractName": null,
      "contractAddress": "0x49d2da22aee28f3111a85f4b4b6cb53c5c379669",
      "function": "safeMint(address,uint256)",
      "arguments": [
        "0x96706EB471F875a9a41442f358d3B34ba02F868b",
        "281"
      ],
      "transaction": {
        "from": "0x027a5ce58fc466d0e3a9d1990404354029398541",
        "to": "0x49d2da22aee28f3111a85f4b4b6cb53c5c379669",
        "gas": "0x31b35",
        "value": "0x0",
        "input": "0xa144819400000000000000000000000096706eb471f875a9a41442f358d3b34ba02f868b0000000000000000000000000000000000000000000000000000000000000119",
        "nonce": "0x263",
        "chainId": "0x2105"
      },
      "additionalContracts": [
        {
          "transactionType": "CREATE2",
          "address": "0xaa728aeafdc653311b1a6aa5f5f63d4b60a40358",
          "initCode": "0x3d60ad80600a3d3981f3363d3d373d3d3d363d7362a163d4195a826984eeff040510c92e52683c5d5af43d82803e903d91602b57fd5bf30000000000000000000000000000000000000000000000000000000000000000000000000000000000000000000000000000000000000000000000000000210500000000000000000000000049d2da22aee28f3111a85f4b4b6cb53c5c3796690000000000000000000000000000000000000000000000000000000000000119"
        }
      ],
      "isFixedGasLimit": false
    },
    {
      "hash": "0x14b7fdc024526d5f55e0aaa6078c388515f68a8ca5c956b8a5920cf4b94c95ff",
      "transactionType": "CALL",
      "contractName": null,
      "contractAddress": "0x49d2da22aee28f3111a85f4b4b6cb53c5c379669",
      "function": "safeMint(address,uint256)",
      "arguments": [
        "0xDdd3c8b0a5ABc5956D0Fec049a662167B59BbF72",
        "282"
      ],
      "transaction": {
        "from": "0x027a5ce58fc466d0e3a9d1990404354029398541",
        "to": "0x49d2da22aee28f3111a85f4b4b6cb53c5c379669",
        "gas": "0x37779",
        "value": "0x0",
        "input": "0xa1448194000000000000000000000000ddd3c8b0a5abc5956d0fec049a662167b59bbf72000000000000000000000000000000000000000000000000000000000000011a",
        "nonce": "0x264",
        "chainId": "0x2105"
      },
      "additionalContracts": [
        {
          "transactionType": "CREATE2",
          "address": "0xecca47898ebca9758badfab2d53b71371c41f3f8",
          "initCode": "0x3d60ad80600a3d3981f3363d3d373d3d3d363d7362a163d4195a826984eeff040510c92e52683c5d5af43d82803e903d91602b57fd5bf30000000000000000000000000000000000000000000000000000000000000000000000000000000000000000000000000000000000000000000000000000210500000000000000000000000049d2da22aee28f3111a85f4b4b6cb53c5c379669000000000000000000000000000000000000000000000000000000000000011a"
        }
      ],
      "isFixedGasLimit": false
    },
    {
      "hash": "0x066b1a04c9d7cc6f81947ddc6c975b97f9f0180d05b3e2c6cab62772a2132dca",
      "transactionType": "CALL",
      "contractName": null,
      "contractAddress": "0x49d2da22aee28f3111a85f4b4b6cb53c5c379669",
      "function": "safeMint(address,uint256)",
      "arguments": [
        "0xfCfb5e9d243c862AE7dA3C2f1C10636277728644",
        "283"
      ],
      "transaction": {
        "from": "0x027a5ce58fc466d0e3a9d1990404354029398541",
        "to": "0x49d2da22aee28f3111a85f4b4b6cb53c5c379669",
        "gas": "0x31b35",
        "value": "0x0",
        "input": "0xa1448194000000000000000000000000fcfb5e9d243c862ae7da3c2f1c10636277728644000000000000000000000000000000000000000000000000000000000000011b",
        "nonce": "0x265",
        "chainId": "0x2105"
      },
      "additionalContracts": [
        {
          "transactionType": "CREATE2",
          "address": "0x68d93115c8f601ca5d1c8eed0fc2e72b4b6ae83a",
          "initCode": "0x3d60ad80600a3d3981f3363d3d373d3d3d363d7362a163d4195a826984eeff040510c92e52683c5d5af43d82803e903d91602b57fd5bf30000000000000000000000000000000000000000000000000000000000000000000000000000000000000000000000000000000000000000000000000000210500000000000000000000000049d2da22aee28f3111a85f4b4b6cb53c5c379669000000000000000000000000000000000000000000000000000000000000011b"
        }
      ],
      "isFixedGasLimit": false
    }
  ],
  "receipts": [
    {
      "status": "0x1",
      "cumulativeGasUsed": "0xbc38b6",
      "logs": [
        {
          "address": "0x49d2da22aee28f3111a85f4b4b6cb53c5c379669",
          "topics": [
            "0xddf252ad1be2c89b69c2b068fc378daa952ba7f163c4a11628f55a4df523b3ef",
            "0x0000000000000000000000000000000000000000000000000000000000000000",
            "0x00000000000000000000000070b52934105f6b4a5e5fd4b7eb17164f023f3865",
            "0x0000000000000000000000000000000000000000000000000000000000000117"
          ],
          "data": "0x",
          "blockHash": "0xfe30cfa84cd9d4439ff93bc19e5713acc613ba955c13ea8706f3edc2e04850f5",
          "blockNumber": "0xf7c28b",
          "transactionHash": "0x53e27c510f6cad0feb047298f593495d656608c2f2cadbbe7c1611b5ddb4fbe4",
          "transactionIndex": "0x37",
          "logIndex": "0xc4",
          "removed": false
        },
        {
          "address": "0xf4b7aae3bc5ac55eaf83c3af3b3a06c8019533ee",
          "topics": [
            "0x79f19b3655ee38b1ce526556b7731a20c8f218fbda4a3990b6cc4172fdf88722",
            "0x00000000000000000000000062a163d4195a826984eeff040510c92e52683c5d",
            "0x00000000000000000000000049d2da22aee28f3111a85f4b4b6cb53c5c379669",
            "0x0000000000000000000000000000000000000000000000000000000000000117"
          ],
          "data": "0x0000000000000000000000007cefadcc873e0d803afb0952d44844fbbd92fd2e00000000000000000000000000000000000000000000000000000000000000000000000000000000000000000000000000000000000000000000000000002105",
          "blockHash": "0xfe30cfa84cd9d4439ff93bc19e5713acc613ba955c13ea8706f3edc2e04850f5",
          "blockNumber": "0xf7c28b",
          "transactionHash": "0x53e27c510f6cad0feb047298f593495d656608c2f2cadbbe7c1611b5ddb4fbe4",
          "transactionIndex": "0x37",
          "logIndex": "0xc5",
          "removed": false
        },
        {
          "address": "0x49d2da22aee28f3111a85f4b4b6cb53c5c379669",
          "topics": [
            "0xa0038d61ac7f17fe47f8776a0cf1e4845408cdca012144f1b7a61bc084e2eaa5",
            "0x0000000000000000000000007cefadcc873e0d803afb0952d44844fbbd92fd2e"
          ],
          "data": "0x00000000000000000000000049d2da22aee28f3111a85f4b4b6cb53c5c3796690000000000000000000000000000000000000000000000000000000000000117",
          "blockHash": "0xfe30cfa84cd9d4439ff93bc19e5713acc613ba955c13ea8706f3edc2e04850f5",
          "blockNumber": "0xf7c28b",
          "transactionHash": "0x53e27c510f6cad0feb047298f593495d656608c2f2cadbbe7c1611b5ddb4fbe4",
          "transactionIndex": "0x37",
          "logIndex": "0xc6",
          "removed": false
        }
      ],
      "logsBloom": "0x0011000000000400000000004000000400000000000000000000000400000000000000004000010000000000000000000000000000000000000000000000000000100000000000000000000800000000000000000002000000000000000000000000000002000000002000000000080000000000410000000000001100002000801000000000000000020000000000000040000000000000000000000000010000000000000000000000000000000010010000000000000000000000000000000000000e000000000000000000000000000000000000000200000000000020000002000000000000000000000000000000200000000000000000000000000000",
      "type": "0x2",
      "transactionHash": "0x53e27c510f6cad0feb047298f593495d656608c2f2cadbbe7c1611b5ddb4fbe4",
      "transactionIndex": "0x37",
      "blockHash": "0xfe30cfa84cd9d4439ff93bc19e5713acc613ba955c13ea8706f3edc2e04850f5",
      "blockNumber": "0xf7c28b",
      "gasUsed": "0x28284",
      "effectiveGasPrice": "0xb803a5",
      "from": "0x027a5ce58fc466d0e3a9d1990404354029398541",
      "to": "0x49d2da22aee28f3111a85f4b4b6cb53c5c379669",
      "contractAddress": null,
      "l1Fee": "0x417b87242",
      "l1GasPrice": "0x18b2fa2b6",
      "l1GasUsed": "0x968"
    },
    {
      "status": "0x1",
      "cumulativeGasUsed": "0xbebb3a",
      "logs": [
        {
          "address": "0x49d2da22aee28f3111a85f4b4b6cb53c5c379669",
          "topics": [
            "0xddf252ad1be2c89b69c2b068fc378daa952ba7f163c4a11628f55a4df523b3ef",
            "0x0000000000000000000000000000000000000000000000000000000000000000",
            "0x00000000000000000000000089b6f75692fc8a72801485951450a97c5bca43df",
            "0x0000000000000000000000000000000000000000000000000000000000000118"
          ],
          "data": "0x",
          "blockHash": "0xfe30cfa84cd9d4439ff93bc19e5713acc613ba955c13ea8706f3edc2e04850f5",
          "blockNumber": "0xf7c28b",
          "transactionHash": "0x91ac8a791404f3f13f63e96137efd18f153cb507be8ac07f10f23da5763d48a4",
          "transactionIndex": "0x38",
          "logIndex": "0xc7",
          "removed": false
        },
        {
          "address": "0xf4b7aae3bc5ac55eaf83c3af3b3a06c8019533ee",
          "topics": [
            "0x79f19b3655ee38b1ce526556b7731a20c8f218fbda4a3990b6cc4172fdf88722",
            "0x00000000000000000000000062a163d4195a826984eeff040510c92e52683c5d",
            "0x00000000000000000000000049d2da22aee28f3111a85f4b4b6cb53c5c379669",
            "0x0000000000000000000000000000000000000000000000000000000000000118"
          ],
          "data": "0x00000000000000000000000009dc484e620d906407c7fafbafc1de9303d8cc6000000000000000000000000000000000000000000000000000000000000000000000000000000000000000000000000000000000000000000000000000002105",
          "blockHash": "0xfe30cfa84cd9d4439ff93bc19e5713acc613ba955c13ea8706f3edc2e04850f5",
          "blockNumber": "0xf7c28b",
          "transactionHash": "0x91ac8a791404f3f13f63e96137efd18f153cb507be8ac07f10f23da5763d48a4",
          "transactionIndex": "0x38",
          "logIndex": "0xc8",
          "removed": false
        },
        {
          "address": "0x49d2da22aee28f3111a85f4b4b6cb53c5c379669",
          "topics": [
            "0xa0038d61ac7f17fe47f8776a0cf1e4845408cdca012144f1b7a61bc084e2eaa5",
            "0x00000000000000000000000009dc484e620d906407c7fafbafc1de9303d8cc60"
          ],
          "data": "0x00000000000000000000000049d2da22aee28f3111a85f4b4b6cb53c5c3796690000000000000000000000000000000000000000000000000000000000000118",
          "blockHash": "0xfe30cfa84cd9d4439ff93bc19e5713acc613ba955c13ea8706f3edc2e04850f5",
          "blockNumber": "0xf7c28b",
          "transactionHash": "0x91ac8a791404f3f13f63e96137efd18f153cb507be8ac07f10f23da5763d48a4",
          "transactionIndex": "0x38",
          "logIndex": "0xc9",
          "removed": false
        }
      ],
      "logsBloom": "0x0011000000001000000000004001000400000000002000000000000400000000000000004000000000040000000000000000000000001000000000000000000000000000000800000000000800000000000000000000000000000000000000000000000002000000002000000000080000000000410000000080001000000000001000000000000000020000000000000040000000000000000000000000010000000000000000000000000000000010010000000000000000000000000000000000000a000000000000000020000000000000000000000000000000000020000002008000000000000000000000000000200000000000000000000000000000",
      "type": "0x2",
      "transactionHash": "0x91ac8a791404f3f13f63e96137efd18f153cb507be8ac07f10f23da5763d48a4",
      "transactionIndex": "0x38",
      "blockHash": "0xfe30cfa84cd9d4439ff93bc19e5713acc613ba955c13ea8706f3edc2e04850f5",
      "blockNumber": "0xf7c28b",
      "gasUsed": "0x28284",
      "effectiveGasPrice": "0xb803a5",
      "from": "0x027a5ce58fc466d0e3a9d1990404354029398541",
      "to": "0x49d2da22aee28f3111a85f4b4b6cb53c5c379669",
      "contractAddress": null,
      "l1Fee": "0x4127fd1cc",
      "l1GasPrice": "0x18b2fa2b6",
      "l1GasUsed": "0x95c"
    },
    {
      "status": "0x1",
      "cumulativeGasUsed": "0xc0faf2",
      "logs": [
        {
          "address": "0x49d2da22aee28f3111a85f4b4b6cb53c5c379669",
          "topics": [
            "0xddf252ad1be2c89b69c2b068fc378daa952ba7f163c4a11628f55a4df523b3ef",
            "0x0000000000000000000000000000000000000000000000000000000000000000",
            "0x00000000000000000000000096706eb471f875a9a41442f358d3b34ba02f868b",
            "0x0000000000000000000000000000000000000000000000000000000000000119"
          ],
          "data": "0x",
          "blockHash": "0xfe30cfa84cd9d4439ff93bc19e5713acc613ba955c13ea8706f3edc2e04850f5",
          "blockNumber": "0xf7c28b",
          "transactionHash": "0x982b1a50b1c4da8fd53713b61264d0a23ebc0f97af9abd5f7a8d21b395cd6e73",
          "transactionIndex": "0x39",
          "logIndex": "0xca",
          "removed": false
        },
        {
          "address": "0xf4b7aae3bc5ac55eaf83c3af3b3a06c8019533ee",
          "topics": [
            "0x79f19b3655ee38b1ce526556b7731a20c8f218fbda4a3990b6cc4172fdf88722",
            "0x00000000000000000000000062a163d4195a826984eeff040510c92e52683c5d",
            "0x00000000000000000000000049d2da22aee28f3111a85f4b4b6cb53c5c379669",
            "0x0000000000000000000000000000000000000000000000000000000000000119"
          ],
          "data": "0x000000000000000000000000aa728aeafdc653311b1a6aa5f5f63d4b60a4035800000000000000000000000000000000000000000000000000000000000000000000000000000000000000000000000000000000000000000000000000002105",
          "blockHash": "0xfe30cfa84cd9d4439ff93bc19e5713acc613ba955c13ea8706f3edc2e04850f5",
          "blockNumber": "0xf7c28b",
          "transactionHash": "0x982b1a50b1c4da8fd53713b61264d0a23ebc0f97af9abd5f7a8d21b395cd6e73",
          "transactionIndex": "0x39",
          "logIndex": "0xcb",
          "removed": false
        },
        {
          "address": "0x49d2da22aee28f3111a85f4b4b6cb53c5c379669",
          "topics": [
            "0xa0038d61ac7f17fe47f8776a0cf1e4845408cdca012144f1b7a61bc084e2eaa5",
            "0x000000000000000000000000aa728aeafdc653311b1a6aa5f5f63d4b60a40358"
          ],
          "data": "0x00000000000000000000000049d2da22aee28f3111a85f4b4b6cb53c5c3796690000000000000000000000000000000000000000000000000000000000000119",
          "blockHash": "0xfe30cfa84cd9d4439ff93bc19e5713acc613ba955c13ea8706f3edc2e04850f5",
          "blockNumber": "0xf7c28b",
          "transactionHash": "0x982b1a50b1c4da8fd53713b61264d0a23ebc0f97af9abd5f7a8d21b395cd6e73",
          "transactionIndex": "0x39",
          "logIndex": "0xcc",
          "removed": false
        }
      ],
      "logsBloom": "0x0011000000000000000000004200000400000000000000000000000400010000000000004000000000000000000000000000000000000000000000000000000000000000000000000000000800000000000000000000000000008000000000000000000002000000002000000000080000000000410000000000001000000000001000000000000000020000000000000040000000000000000000000000010000000000000000000002000000000010010000000080000000000000140000000000000a000000000000000100000000000000000000000000000020000020000002000000000000000000000000000000200000000000000000000000000000",
      "type": "0x2",
      "transactionHash": "0x982b1a50b1c4da8fd53713b61264d0a23ebc0f97af9abd5f7a8d21b395cd6e73",
      "transactionIndex": "0x39",
      "blockHash": "0xfe30cfa84cd9d4439ff93bc19e5713acc613ba955c13ea8706f3edc2e04850f5",
      "blockNumber": "0xf7c28b",
      "gasUsed": "0x23fb8",
      "effectiveGasPrice": "0xb803a5",
      "from": "0x027a5ce58fc466d0e3a9d1990404354029398541",
      "to": "0x49d2da22aee28f3111a85f4b4b6cb53c5c379669",
      "contractAddress": null,
      "l1Fee": "0x417b87242",
      "l1GasPrice": "0x18b2fa2b6",
      "l1GasUsed": "0x968"
    },
    {
      "status": "0x1",
      "cumulativeGasUsed": "0xd9ef70",
      "logs": [
        {
          "address": "0x49d2da22aee28f3111a85f4b4b6cb53c5c379669",
          "topics": [
            "0xddf252ad1be2c89b69c2b068fc378daa952ba7f163c4a11628f55a4df523b3ef",
            "0x0000000000000000000000000000000000000000000000000000000000000000",
            "0x000000000000000000000000ddd3c8b0a5abc5956d0fec049a662167b59bbf72",
            "0x000000000000000000000000000000000000000000000000000000000000011a"
          ],
          "data": "0x",
          "blockHash": "0x8694a205fc59bb4e7ad1351176c1f2f0025c43b3fa3a4bdb3cca900e18e4e66e",
          "blockNumber": "0xf7c28c",
          "transactionHash": "0x14b7fdc024526d5f55e0aaa6078c388515f68a8ca5c956b8a5920cf4b94c95ff",
          "transactionIndex": "0x48",
          "logIndex": "0x116",
          "removed": false
        },
        {
          "address": "0xf4b7aae3bc5ac55eaf83c3af3b3a06c8019533ee",
          "topics": [
            "0x79f19b3655ee38b1ce526556b7731a20c8f218fbda4a3990b6cc4172fdf88722",
            "0x00000000000000000000000062a163d4195a826984eeff040510c92e52683c5d",
            "0x00000000000000000000000049d2da22aee28f3111a85f4b4b6cb53c5c379669",
            "0x000000000000000000000000000000000000000000000000000000000000011a"
          ],
          "data": "0x000000000000000000000000ecca47898ebca9758badfab2d53b71371c41f3f800000000000000000000000000000000000000000000000000000000000000000000000000000000000000000000000000000000000000000000000000002105",
          "blockHash": "0x8694a205fc59bb4e7ad1351176c1f2f0025c43b3fa3a4bdb3cca900e18e4e66e",
          "blockNumber": "0xf7c28c",
          "transactionHash": "0x14b7fdc024526d5f55e0aaa6078c388515f68a8ca5c956b8a5920cf4b94c95ff",
          "transactionIndex": "0x48",
          "logIndex": "0x117",
          "removed": false
        },
        {
          "address": "0x49d2da22aee28f3111a85f4b4b6cb53c5c379669",
          "topics": [
            "0xa0038d61ac7f17fe47f8776a0cf1e4845408cdca012144f1b7a61bc084e2eaa5",
            "0x000000000000000000000000ecca47898ebca9758badfab2d53b71371c41f3f8"
          ],
          "data": "0x00000000000000000000000049d2da22aee28f3111a85f4b4b6cb53c5c379669000000000000000000000000000000000000000000000000000000000000011a",
          "blockHash": "0x8694a205fc59bb4e7ad1351176c1f2f0025c43b3fa3a4bdb3cca900e18e4e66e",
          "blockNumber": "0xf7c28c",
          "transactionHash": "0x14b7fdc024526d5f55e0aaa6078c388515f68a8ca5c956b8a5920cf4b94c95ff",
          "transactionIndex": "0x48",
          "logIndex": "0x118",
          "removed": false
        }
      ],
      "logsBloom": "0x0011000000000200000000004000000400000000000000000000000400000000000000004000000000800000000000000000000000002000004000000000000000000000000000000000000800000000000000000000001000000000000000000000000002000000002000000000080000000000410000000200001000000000001000000000000000020000000000000040000000000000000000000000010000000000000000000000000000000010010000000000000000000000000000000000000a000000000000000000001000000000000000000080000000000020000002000000000000000000000000000000200000000000000000000000000000",
      "type": "0x2",
      "transactionHash": "0x14b7fdc024526d5f55e0aaa6078c388515f68a8ca5c956b8a5920cf4b94c95ff",
      "transactionIndex": "0x48",
      "blockHash": "0x8694a205fc59bb4e7ad1351176c1f2f0025c43b3fa3a4bdb3cca900e18e4e66e",
      "blockNumber": "0xf7c28c",
      "gasUsed": "0x28284",
      "effectiveGasPrice": "0xb7fa03",
      "from": "0x027a5ce58fc466d0e3a9d1990404354029398541",
      "to": "0x49d2da22aee28f3111a85f4b4b6cb53c5c379669",
      "contractAddress": null,
      "l1Fee": "0x417b87242",
      "l1GasPrice": "0x18b2fa2b6",
      "l1GasUsed": "0x968"
    },
    {
      "status": "0x1",
      "cumulativeGasUsed": "0xdc2f28",
      "logs": [
        {
          "address": "0x49d2da22aee28f3111a85f4b4b6cb53c5c379669",
          "topics": [
            "0xddf252ad1be2c89b69c2b068fc378daa952ba7f163c4a11628f55a4df523b3ef",
            "0x0000000000000000000000000000000000000000000000000000000000000000",
            "0x000000000000000000000000fcfb5e9d243c862ae7da3c2f1c10636277728644",
            "0x000000000000000000000000000000000000000000000000000000000000011b"
          ],
          "data": "0x",
          "blockHash": "0x8694a205fc59bb4e7ad1351176c1f2f0025c43b3fa3a4bdb3cca900e18e4e66e",
          "blockNumber": "0xf7c28c",
          "transactionHash": "0x066b1a04c9d7cc6f81947ddc6c975b97f9f0180d05b3e2c6cab62772a2132dca",
          "transactionIndex": "0x49",
          "logIndex": "0x119",
          "removed": false
        },
        {
          "address": "0xf4b7aae3bc5ac55eaf83c3af3b3a06c8019533ee",
          "topics": [
            "0x79f19b3655ee38b1ce526556b7731a20c8f218fbda4a3990b6cc4172fdf88722",
            "0x00000000000000000000000062a163d4195a826984eeff040510c92e52683c5d",
            "0x00000000000000000000000049d2da22aee28f3111a85f4b4b6cb53c5c379669",
            "0x000000000000000000000000000000000000000000000000000000000000011b"
          ],
          "data": "0x00000000000000000000000068d93115c8f601ca5d1c8eed0fc2e72b4b6ae83a00000000000000000000000000000000000000000000000000000000000000000000000000000000000000000000000000000000000000000000000000002105",
          "blockHash": "0x8694a205fc59bb4e7ad1351176c1f2f0025c43b3fa3a4bdb3cca900e18e4e66e",
          "blockNumber": "0xf7c28c",
          "transactionHash": "0x066b1a04c9d7cc6f81947ddc6c975b97f9f0180d05b3e2c6cab62772a2132dca",
          "transactionIndex": "0x49",
          "logIndex": "0x11a",
          "removed": false
        },
        {
          "address": "0x49d2da22aee28f3111a85f4b4b6cb53c5c379669",
          "topics": [
            "0xa0038d61ac7f17fe47f8776a0cf1e4845408cdca012144f1b7a61bc084e2eaa5",
            "0x00000000000000000000000068d93115c8f601ca5d1c8eed0fc2e72b4b6ae83a"
          ],
          "data": "0x00000000000000000000000049d2da22aee28f3111a85f4b4b6cb53c5c379669000000000000000000000000000000000000000000000000000000000000011b",
          "blockHash": "0x8694a205fc59bb4e7ad1351176c1f2f0025c43b3fa3a4bdb3cca900e18e4e66e",
          "blockNumber": "0xf7c28c",
          "transactionHash": "0x066b1a04c9d7cc6f81947ddc6c975b97f9f0180d05b3e2c6cab62772a2132dca",
          "transactionIndex": "0x49",
          "logIndex": "0x11b",
          "removed": false
        }
      ],
      "logsBloom": "0x001100000000000000000000c000000400000000000000000000000400000000000000004000000000000000000000000000000000000000000000000000000400000000000000000000000800000000000000000000000000000000000000000000000002000000002000002800080000000000410000000000001000000000001000000000000000020000000000000040000000000000000000000000010000000000000000000000000000000010010000000001000000000000000000000000000a000000000008000000000000000000000040000000000000001020000002000000000000000000000000000000200000000000000000000000000000",
      "type": "0x2",
      "transactionHash": "0x066b1a04c9d7cc6f81947ddc6c975b97f9f0180d05b3e2c6cab62772a2132dca",
      "transactionIndex": "0x49",
      "blockHash": "0x8694a205fc59bb4e7ad1351176c1f2f0025c43b3fa3a4bdb3cca900e18e4e66e",
      "blockNumber": "0xf7c28c",
      "gasUsed": "0x23fb8",
      "effectiveGasPrice": "0xb7fa03",
      "from": "0x027a5ce58fc466d0e3a9d1990404354029398541",
      "to": "0x49d2da22aee28f3111a85f4b4b6cb53c5c379669",
      "contractAddress": null,
      "l1Fee": "0x417b87242",
      "l1GasPrice": "0x18b2fa2b6",
      "l1GasUsed": "0x968"
    }
  ],
  "libraries": [],
  "pending": [],
  "returns": {},
  "timestamp": 1719263747,
  "chain": 8453,
  "commit": "3dd2ed9"
}