{
  "transactions": [
    {
      "hash": "0x3ef4a3410f2ec1efffb6d49e7567511d4781c2fcf17a68d5eade6fd1a1ec4b6a",
      "transactionType": "CALL",
      "contractName": null,
      "contractAddress": "0x99d3a4bd3db92d061d7704167a2c6ccd683619d3",
      "function": "safeMint(address,uint256)",
      "arguments": [
        "0x03F2eFdcb4BF042EDceBe7c2A22c8fCDB7E0aF76",
        "1"
      ],
      "transaction": {
        "from": "0x027a5ce58fc466d0e3a9d1990404354029398541",
        "to": "0x99d3a4bd3db92d061d7704167a2c6ccd683619d3",
        "gas": "0x1cf11",
        "value": "0x0",
        "input": "0xa144819400000000000000000000000003f2efdcb4bf042edcebe7c2a22c8fcdb7e0af760000000000000000000000000000000000000000000000000000000000000001",
        "nonce": "0xa5",
        "chainId": "0x2105"
      },
      "additionalContracts": [],
      "isFixedGasLimit": false
    },
    {
      "hash": "0xf121eb17b694d5e5081c56722e331bfb11e017ecd94598e661fbfebb64a684e8",
      "transactionType": "CALL",
      "contractName": null,
      "contractAddress": "0x99d3a4bd3db92d061d7704167a2c6ccd683619d3",
      "function": "safeMint(address,uint256)",
      "arguments": [
        "0xb5F98526F9be330b9d4Fb2ecE099c9B5f88094F9",
        "2"
      ],
      "transaction": {
        "from": "0x027a5ce58fc466d0e3a9d1990404354029398541",
        "to": "0x99d3a4bd3db92d061d7704167a2c6ccd683619d3",
        "gas": "0x1cf11",
        "value": "0x0",
        "input": "0xa1448194000000000000000000000000b5f98526f9be330b9d4fb2ece099c9b5f88094f90000000000000000000000000000000000000000000000000000000000000002",
        "nonce": "0xa6",
        "chainId": "0x2105"
      },
      "additionalContracts": [],
      "isFixedGasLimit": false
    },
    {
      "hash": "0x570f81b4d60ed4f286fd3787c85e01be91bbf90a4ddaa85b8bd55d6e477523b2",
      "transactionType": "CALL",
      "contractName": null,
      "contractAddress": "0x99d3a4bd3db92d061d7704167a2c6ccd683619d3",
      "function": "safeMint(address,uint256)",
      "arguments": [
        "0xDE3dB7888a28c2121243cc893FbFB2D687d1652d",
        "3"
      ],
      "transaction": {
        "from": "0x027a5ce58fc466d0e3a9d1990404354029398541",
        "to": "0x99d3a4bd3db92d061d7704167a2c6ccd683619d3",
        "gas": "0x1cf11",
        "value": "0x0",
        "input": "0xa1448194000000000000000000000000de3db7888a28c2121243cc893fbfb2d687d1652d0000000000000000000000000000000000000000000000000000000000000003",
        "nonce": "0xa7",
        "chainId": "0x2105"
      },
      "additionalContracts": [],
      "isFixedGasLimit": false
    },
    {
      "hash": "0xcec4c9fb8b3d602ba23c2c5cc699b96606060353219780fb937fdae251fab15a",
      "transactionType": "CALL",
      "contractName": null,
      "contractAddress": "0x99d3a4bd3db92d061d7704167a2c6ccd683619d3",
      "function": "safeMint(address,uint256)",
      "arguments": [
        "0x85312610faB860fEe8718C10fFe8a024E50c01f7",
        "4"
      ],
      "transaction": {
        "from": "0x027a5ce58fc466d0e3a9d1990404354029398541",
        "to": "0x99d3a4bd3db92d061d7704167a2c6ccd683619d3",
        "gas": "0x1cf11",
        "value": "0x0",
        "input": "0xa144819400000000000000000000000085312610fab860fee8718c10ffe8a024e50c01f70000000000000000000000000000000000000000000000000000000000000004",
        "nonce": "0xa8",
        "chainId": "0x2105"
      },
      "additionalContracts": [],
      "isFixedGasLimit": false
    },
    {
      "hash": "0x1fcc03869926b36289169df07f9e5bf6d5865710996110d69dc2c39acc78aa1e",
      "transactionType": "CALL",
      "contractName": null,
      "contractAddress": "0x99d3a4bd3db92d061d7704167a2c6ccd683619d3",
      "function": "safeMint(address,uint256)",
      "arguments": [
        "0x96706EB471F875a9a41442f358d3B34ba02F868b",
        "5"
      ],
      "transaction": {
        "from": "0x027a5ce58fc466d0e3a9d1990404354029398541",
        "to": "0x99d3a4bd3db92d061d7704167a2c6ccd683619d3",
        "gas": "0x1cf11",
        "value": "0x0",
        "input": "0xa144819400000000000000000000000096706eb471f875a9a41442f358d3b34ba02f868b0000000000000000000000000000000000000000000000000000000000000005",
        "nonce": "0xa9",
        "chainId": "0x2105"
      },
      "additionalContracts": [],
      "isFixedGasLimit": false
    },
    {
      "hash": "0xdaa753f00e417edcb96e0eca62faaf59119e606ef40d7d5d439d46d1897b1935",
      "transactionType": "CALL",
      "contractName": null,
      "contractAddress": "0x99d3a4bd3db92d061d7704167a2c6ccd683619d3",
      "function": "safeMint(address,uint256)",
      "arguments": [
        "0xBA0aB3161197439c073E1cc6D5197B138F1C2148",
        "6"
      ],
      "transaction": {
        "from": "0x027a5ce58fc466d0e3a9d1990404354029398541",
        "to": "0x99d3a4bd3db92d061d7704167a2c6ccd683619d3",
        "gas": "0x1cf11",
        "value": "0x0",
        "input": "0xa1448194000000000000000000000000ba0ab3161197439c073e1cc6d5197b138f1c21480000000000000000000000000000000000000000000000000000000000000006",
        "nonce": "0xaa",
        "chainId": "0x2105"
      },
      "additionalContracts": [],
      "isFixedGasLimit": false
    },
    {
      "hash": "0xbe98980a36dded8eee5244aa939f772052925b1e2683c1846be129979ed5ce1b",
      "transactionType": "CALL",
      "contractName": null,
      "contractAddress": "0x99d3a4bd3db92d061d7704167a2c6ccd683619d3",
      "function": "safeMint(address,uint256)",
      "arguments": [
        "0x5e021BA73A2014E089BcBfC15cFe867606c6274E",
        "7"
      ],
      "transaction": {
        "from": "0x027a5ce58fc466d0e3a9d1990404354029398541",
        "to": "0x99d3a4bd3db92d061d7704167a2c6ccd683619d3",
        "gas": "0x1cf11",
        "value": "0x0",
        "input": "0xa14481940000000000000000000000005e021ba73a2014e089bcbfc15cfe867606c6274e0000000000000000000000000000000000000000000000000000000000000007",
        "nonce": "0xab",
        "chainId": "0x2105"
      },
      "additionalContracts": [],
      "isFixedGasLimit": false
    },
    {
      "hash": "0x096846f1404f3ca2e7f0b5bee6a10dc4ded77a6e6ed2f03f0bf1ab6a54001e29",
      "transactionType": "CALL",
      "contractName": null,
      "contractAddress": "0x99d3a4bd3db92d061d7704167a2c6ccd683619d3",
      "function": "safeMint(address,uint256)",
      "arguments": [
        "0x827b7df8e7A44e923Cce6cD6477fC8988747362A",
        "8"
      ],
      "transaction": {
        "from": "0x027a5ce58fc466d0e3a9d1990404354029398541",
        "to": "0x99d3a4bd3db92d061d7704167a2c6ccd683619d3",
        "gas": "0x1cf11",
        "value": "0x0",
        "input": "0xa1448194000000000000000000000000827b7df8e7a44e923cce6cd6477fc8988747362a0000000000000000000000000000000000000000000000000000000000000008",
        "nonce": "0xac",
        "chainId": "0x2105"
      },
      "additionalContracts": [],
      "isFixedGasLimit": false
    },
    {
      "hash": "0x949b9e0d35bd7d3dd26d3a23ad36ce4251fb0a17a5533c26ec0a52873a3f1029",
      "transactionType": "CALL",
      "contractName": null,
      "contractAddress": "0x99d3a4bd3db92d061d7704167a2c6ccd683619d3",
      "function": "safeMint(address,uint256)",
      "arguments": [
        "0x5d0531a503b7e1bC101A53D1532700f9aAd315c3",
        "9"
      ],
      "transaction": {
        "from": "0x027a5ce58fc466d0e3a9d1990404354029398541",
        "to": "0x99d3a4bd3db92d061d7704167a2c6ccd683619d3",
        "gas": "0x1b547",
        "value": "0x0",
        "input": "0xa14481940000000000000000000000005d0531a503b7e1bc101a53d1532700f9aad315c30000000000000000000000000000000000000000000000000000000000000009",
        "nonce": "0xad",
        "chainId": "0x2105"
      },
      "additionalContracts": [],
      "isFixedGasLimit": false
    },
    {
      "hash": "0x7b4aa4fb36db42a3c4cbacc5d446eb890e9ff0d48897810fd5265ad66251ea47",
      "transactionType": "CALL",
      "contractName": null,
      "contractAddress": "0x99d3a4bd3db92d061d7704167a2c6ccd683619d3",
      "function": "safeMint(address,uint256)",
      "arguments": [
        "0x2Ba43F62F3dC12Bd9f5771c522889B507931Fcf8",
        "10"
      ],
      "transaction": {
        "from": "0x027a5ce58fc466d0e3a9d1990404354029398541",
        "to": "0x99d3a4bd3db92d061d7704167a2c6ccd683619d3",
        "gas": "0x1cf11",
        "value": "0x0",
        "input": "0xa14481940000000000000000000000002ba43f62f3dc12bd9f5771c522889b507931fcf8000000000000000000000000000000000000000000000000000000000000000a",
        "nonce": "0xae",
        "chainId": "0x2105"
      },
      "additionalContracts": [],
      "isFixedGasLimit": false
    },
    {
      "hash": "0x6a7de136511373907417733650c875fc5490a1972d551ba1c99add0a745584c5",
      "transactionType": "CALL",
      "contractName": null,
      "contractAddress": "0x99d3a4bd3db92d061d7704167a2c6ccd683619d3",
      "function": "safeMint(address,uint256)",
      "arguments": [
        "0x16E34DbbB3BC50CD38272E67F1561e9fA4754e8A",
        "11"
      ],
      "transaction": {
        "from": "0x027a5ce58fc466d0e3a9d1990404354029398541",
        "to": "0x99d3a4bd3db92d061d7704167a2c6ccd683619d3",
        "gas": "0x1cf11",
        "value": "0x0",
        "input": "0xa144819400000000000000000000000016e34dbbb3bc50cd38272e67f1561e9fa4754e8a000000000000000000000000000000000000000000000000000000000000000b",
        "nonce": "0xaf",
        "chainId": "0x2105"
      },
      "additionalContracts": [],
      "isFixedGasLimit": false
    },
    {
      "hash": "0x47d54b5d127645509f491bc25e94dae766011aa3bc309e414689dd142307ec24",
      "transactionType": "CALL",
      "contractName": null,
      "contractAddress": "0x99d3a4bd3db92d061d7704167a2c6ccd683619d3",
      "function": "safeMint(address,uint256)",
      "arguments": [
        "0xFc51a4bCf7b8Ad1e22FD34Fbf083A902c5Db70e5",
        "12"
      ],
      "transaction": {
        "from": "0x027a5ce58fc466d0e3a9d1990404354029398541",
        "to": "0x99d3a4bd3db92d061d7704167a2c6ccd683619d3",
        "gas": "0x1cf11",
        "value": "0x0",
        "input": "0xa1448194000000000000000000000000fc51a4bcf7b8ad1e22fd34fbf083a902c5db70e5000000000000000000000000000000000000000000000000000000000000000c",
        "nonce": "0xb0",
        "chainId": "0x2105"
      },
      "additionalContracts": [],
      "isFixedGasLimit": false
    },
    {
      "hash": "0xee5d490eb1087ed9e0611816fb40572740a30b328bf22aa8cc914344e73e5a06",
      "transactionType": "CALL",
      "contractName": null,
      "contractAddress": "0x99d3a4bd3db92d061d7704167a2c6ccd683619d3",
      "function": "safeMint(address,uint256)",
      "arguments": [
        "0x8B2a8467D0b1aC6518Fa13fe9fF0479963e88997",
        "13"
      ],
      "transaction": {
        "from": "0x027a5ce58fc466d0e3a9d1990404354029398541",
        "to": "0x99d3a4bd3db92d061d7704167a2c6ccd683619d3",
        "gas": "0x1cf11",
        "value": "0x0",
        "input": "0xa14481940000000000000000000000008b2a8467d0b1ac6518fa13fe9ff0479963e88997000000000000000000000000000000000000000000000000000000000000000d",
        "nonce": "0xb1",
        "chainId": "0x2105"
      },
      "additionalContracts": [],
      "isFixedGasLimit": false
    },
    {
      "hash": "0x46ae6342bb981526ebd1da93e45025ecd655b255db057cc1ce65718619f3a1e2",
      "transactionType": "CALL",
      "contractName": null,
      "contractAddress": "0x99d3a4bd3db92d061d7704167a2c6ccd683619d3",
      "function": "safeMint(address,uint256)",
      "arguments": [
        "0x59c6C112547B9E9F884cd89ab2D0194c0CEe5BCF",
        "14"
      ],
      "transaction": {
        "from": "0x027a5ce58fc466d0e3a9d1990404354029398541",
        "to": "0x99d3a4bd3db92d061d7704167a2c6ccd683619d3",
        "gas": "0x1cf11",
        "value": "0x0",
        "input": "0xa144819400000000000000000000000059c6c112547b9e9f884cd89ab2d0194c0cee5bcf000000000000000000000000000000000000000000000000000000000000000e",
        "nonce": "0xb2",
        "chainId": "0x2105"
      },
      "additionalContracts": [],
      "isFixedGasLimit": false
    },
    {
      "hash": "0x3b7eb4c5e98d4c3daf66ac59dcf0d80950714e792de73d4ef6b3fa8dc7bfaa78",
      "transactionType": "CALL",
      "contractName": null,
      "contractAddress": "0x99d3a4bd3db92d061d7704167a2c6ccd683619d3",
      "function": "safeMint(address,uint256)",
      "arguments": [
        "0x636d26031441d889476cE82E60D94500D2496461",
        "15"
      ],
      "transaction": {
        "from": "0x027a5ce58fc466d0e3a9d1990404354029398541",
        "to": "0x99d3a4bd3db92d061d7704167a2c6ccd683619d3",
        "gas": "0x1b547",
        "value": "0x0",
        "input": "0xa1448194000000000000000000000000636d26031441d889476ce82e60d94500d2496461000000000000000000000000000000000000000000000000000000000000000f",
        "nonce": "0xb3",
        "chainId": "0x2105"
      },
      "additionalContracts": [],
      "isFixedGasLimit": false
    },
    {
      "hash": "0xf05b6ce112a357c7e9b1cefac81a808c126af6271cbe30dc7552e14e02df5370",
      "transactionType": "CALL",
      "contractName": null,
      "contractAddress": "0x99d3a4bd3db92d061d7704167a2c6ccd683619d3",
      "function": "safeMint(address,uint256)",
      "arguments": [
        "0x3aC53bBab3A2B91FE1CC6Ada38D4D11a02a83F89",
        "16"
      ],
      "transaction": {
        "from": "0x027a5ce58fc466d0e3a9d1990404354029398541",
        "to": "0x99d3a4bd3db92d061d7704167a2c6ccd683619d3",
        "gas": "0x1cf11",
        "value": "0x0",
        "input": "0xa14481940000000000000000000000003ac53bbab3a2b91fe1cc6ada38d4d11a02a83f890000000000000000000000000000000000000000000000000000000000000010",
        "nonce": "0xb4",
        "chainId": "0x2105"
      },
      "additionalContracts": [],
      "isFixedGasLimit": false
    },
    {
      "hash": "0xdd9549558d5f91a9983ab613c23ce0c7f9b09a27dd9d73105f28f35d4b8755b4",
      "transactionType": "CALL",
      "contractName": null,
      "contractAddress": "0x99d3a4bd3db92d061d7704167a2c6ccd683619d3",
      "function": "safeMint(address,uint256)",
      "arguments": [
        "0x874683B39ACcD62b952D6F13E10e41cE8306AF7C",
        "17"
      ],
      "transaction": {
        "from": "0x027a5ce58fc466d0e3a9d1990404354029398541",
        "to": "0x99d3a4bd3db92d061d7704167a2c6ccd683619d3",
        "gas": "0x1cf11",
        "value": "0x0",
        "input": "0xa1448194000000000000000000000000874683b39accd62b952d6f13e10e41ce8306af7c0000000000000000000000000000000000000000000000000000000000000011",
        "nonce": "0xb5",
        "chainId": "0x2105"
      },
      "additionalContracts": [],
      "isFixedGasLimit": false
    },
    {
      "hash": "0x86721e21ee7eb9cf596c5c8a1b6fc3ca7551c96d213099ef769e43c88a7f2793",
      "transactionType": "CALL",
      "contractName": null,
      "contractAddress": "0x99d3a4bd3db92d061d7704167a2c6ccd683619d3",
      "function": "safeMint(address,uint256)",
      "arguments": [
        "0x791a304547BbE77C3F780e0375762DCE478A1c05",
        "18"
      ],
      "transaction": {
        "from": "0x027a5ce58fc466d0e3a9d1990404354029398541",
        "to": "0x99d3a4bd3db92d061d7704167a2c6ccd683619d3",
        "gas": "0x1cf11",
        "value": "0x0",
        "input": "0xa1448194000000000000000000000000791a304547bbe77c3f780e0375762dce478a1c050000000000000000000000000000000000000000000000000000000000000012",
        "nonce": "0xb6",
        "chainId": "0x2105"
      },
      "additionalContracts": [],
      "isFixedGasLimit": false
    },
    {
      "hash": "0xcb20039d76491de174bccdbb0696c8d699b026068a6dfdc21ba7756343e44a63",
      "transactionType": "CALL",
      "contractName": null,
      "contractAddress": "0x99d3a4bd3db92d061d7704167a2c6ccd683619d3",
      "function": "safeMint(address,uint256)",
      "arguments": [
        "0x7ADfF8fdE84f0288f11c8D05f168d2795239B437",
        "19"
      ],
      "transaction": {
        "from": "0x027a5ce58fc466d0e3a9d1990404354029398541",
        "to": "0x99d3a4bd3db92d061d7704167a2c6ccd683619d3",
        "gas": "0x1cf11",
        "value": "0x0",
        "input": "0xa14481940000000000000000000000007adff8fde84f0288f11c8d05f168d2795239b4370000000000000000000000000000000000000000000000000000000000000013",
        "nonce": "0xb7",
        "chainId": "0x2105"
      },
      "additionalContracts": [],
      "isFixedGasLimit": false
    },
    {
      "hash": "0xd74bceb95b115ca37d23039e0522c93a1c41627c84a37e8b9891607cec228b31",
      "transactionType": "CALL",
      "contractName": null,
      "contractAddress": "0x99d3a4bd3db92d061d7704167a2c6ccd683619d3",
      "function": "safeMint(address,uint256)",
      "arguments": [
        "0x6C1298e088d1eee8e2df160D3cE7ED4b67B12a3D",
        "20"
      ],
      "transaction": {
        "from": "0x027a5ce58fc466d0e3a9d1990404354029398541",
        "to": "0x99d3a4bd3db92d061d7704167a2c6ccd683619d3",
        "gas": "0x1cf11",
        "value": "0x0",
        "input": "0xa14481940000000000000000000000006c1298e088d1eee8e2df160d3ce7ed4b67b12a3d0000000000000000000000000000000000000000000000000000000000000014",
        "nonce": "0xb8",
        "chainId": "0x2105"
      },
      "additionalContracts": [],
      "isFixedGasLimit": false
    },
    {
      "hash": "0xa929292d33d05d573a670033d888f56a21909faf5ada9e2f488b8756d69004b6",
      "transactionType": "CALL",
      "contractName": null,
      "contractAddress": "0x99d3a4bd3db92d061d7704167a2c6ccd683619d3",
      "function": "safeMint(address,uint256)",
      "arguments": [
        "0xCe1320ca406c8c4A32669b1Fad04C42baDd0dF04",
        "21"
      ],
      "transaction": {
        "from": "0x027a5ce58fc466d0e3a9d1990404354029398541",
        "to": "0x99d3a4bd3db92d061d7704167a2c6ccd683619d3",
        "gas": "0x1cf11",
        "value": "0x0",
        "input": "0xa1448194000000000000000000000000ce1320ca406c8c4a32669b1fad04c42badd0df040000000000000000000000000000000000000000000000000000000000000015",
        "nonce": "0xb9",
        "chainId": "0x2105"
      },
      "additionalContracts": [],
      "isFixedGasLimit": false
    },
    {
      "hash": "0xcf9aec5d87da9fe4fe2d86c11fd8a11d6cc5caac1353115240c7161d011e2ae0",
      "transactionType": "CALL",
      "contractName": null,
      "contractAddress": "0x99d3a4bd3db92d061d7704167a2c6ccd683619d3",
      "function": "safeMint(address,uint256)",
      "arguments": [
        "0x678a71A480FC51e174a475865d61f7C936f87D14",
        "22"
      ],
      "transaction": {
        "from": "0x027a5ce58fc466d0e3a9d1990404354029398541",
        "to": "0x99d3a4bd3db92d061d7704167a2c6ccd683619d3",
        "gas": "0x1cf11",
        "value": "0x0",
        "input": "0xa1448194000000000000000000000000678a71a480fc51e174a475865d61f7c936f87d140000000000000000000000000000000000000000000000000000000000000016",
        "nonce": "0xba",
        "chainId": "0x2105"
      },
      "additionalContracts": [],
      "isFixedGasLimit": false
    },
    {
      "hash": "0x604e718d7d0b97eabf5a946c393be55ea75395dbcfd551c805fe358a12d6c711",
      "transactionType": "CALL",
      "contractName": null,
      "contractAddress": "0x99d3a4bd3db92d061d7704167a2c6ccd683619d3",
      "function": "safeMint(address,uint256)",
      "arguments": [
        "0x6aF4990a3837d2a940f05401BFEefAb27Cd0C70F",
        "23"
      ],
      "transaction": {
        "from": "0x027a5ce58fc466d0e3a9d1990404354029398541",
        "to": "0x99d3a4bd3db92d061d7704167a2c6ccd683619d3",
        "gas": "0x1cf11",
        "value": "0x0",
        "input": "0xa14481940000000000000000000000006af4990a3837d2a940f05401bfeefab27cd0c70f0000000000000000000000000000000000000000000000000000000000000017",
        "nonce": "0xbb",
        "chainId": "0x2105"
      },
      "additionalContracts": [],
      "isFixedGasLimit": false
    },
    {
      "hash": "0x7a5a9e5d5606935678ac80dccaaac3517f754f4382bf5a238e351ac1fb486795",
      "transactionType": "CALL",
      "contractName": null,
      "contractAddress": "0x99d3a4bd3db92d061d7704167a2c6ccd683619d3",
      "function": "safeMint(address,uint256)",
      "arguments": [
        "0x1111e925c9c493c1806038eE57776fac7a5F5Ede",
        "24"
      ],
      "transaction": {
        "from": "0x027a5ce58fc466d0e3a9d1990404354029398541",
        "to": "0x99d3a4bd3db92d061d7704167a2c6ccd683619d3",
        "gas": "0x1cf11",
        "value": "0x0",
        "input": "0xa14481940000000000000000000000001111e925c9c493c1806038ee57776fac7a5f5ede0000000000000000000000000000000000000000000000000000000000000018",
        "nonce": "0xbc",
        "chainId": "0x2105"
      },
      "additionalContracts": [],
      "isFixedGasLimit": false
    },
    {
      "hash": "0x86b56ab12e931cb816ab62e684b7fbcc4d7c108a679ba6bccd35feaaacb53b75",
      "transactionType": "CALL",
      "contractName": null,
      "contractAddress": "0x99d3a4bd3db92d061d7704167a2c6ccd683619d3",
      "function": "safeMint(address,uint256)",
      "arguments": [
        "0x10ED43C718714eb63d5aA57B78B54704E256024E",
        "25"
      ],
      "transaction": {
        "from": "0x027a5ce58fc466d0e3a9d1990404354029398541",
        "to": "0x99d3a4bd3db92d061d7704167a2c6ccd683619d3",
        "gas": "0x1cf11",
        "value": "0x0",
        "input": "0xa144819400000000000000000000000010ed43c718714eb63d5aa57b78b54704e256024e0000000000000000000000000000000000000000000000000000000000000019",
        "nonce": "0xbd",
        "chainId": "0x2105"
      },
      "additionalContracts": [],
      "isFixedGasLimit": false
    },
    {
      "hash": "0x0095efbd2e4a15fff618d42d6567b6297437ca4d300b350587c6e077d06bdd18",
      "transactionType": "CALL",
      "contractName": null,
      "contractAddress": "0x99d3a4bd3db92d061d7704167a2c6ccd683619d3",
      "function": "safeMint(address,uint256)",
      "arguments": [
        "0x0eF61626449e4C3430cfE7f06A6405d26b3b021c",
        "26"
      ],
      "transaction": {
        "from": "0x027a5ce58fc466d0e3a9d1990404354029398541",
        "to": "0x99d3a4bd3db92d061d7704167a2c6ccd683619d3",
        "gas": "0x1cf11",
        "value": "0x0",
        "input": "0xa14481940000000000000000000000000ef61626449e4c3430cfe7f06a6405d26b3b021c000000000000000000000000000000000000000000000000000000000000001a",
        "nonce": "0xbe",
        "chainId": "0x2105"
      },
      "additionalContracts": [],
      "isFixedGasLimit": false
    },
    {
      "hash": "0xa75879bad93ea2a0d4938e432b2c7d04dcc8b2283a85e691578ab1124251a607",
      "transactionType": "CALL",
      "contractName": null,
      "contractAddress": "0x99d3a4bd3db92d061d7704167a2c6ccd683619d3",
      "function": "safeMint(address,uint256)",
      "arguments": [
        "0x59F4EEBA1C5c38756d33826DE35b37B7E088ba0e",
        "27"
      ],
      "transaction": {
        "from": "0x027a5ce58fc466d0e3a9d1990404354029398541",
        "to": "0x99d3a4bd3db92d061d7704167a2c6ccd683619d3",
        "gas": "0x1cf11",
        "value": "0x0",
        "input": "0xa144819400000000000000000000000059f4eeba1c5c38756d33826de35b37b7e088ba0e000000000000000000000000000000000000000000000000000000000000001b",
        "nonce": "0xbf",
        "chainId": "0x2105"
      },
      "additionalContracts": [],
      "isFixedGasLimit": false
    },
    {
      "hash": "0xa48c7905bdf625bfc207dcd36e0fa64f5093ae650d01a75a6e7e904c010dfaf9",
      "transactionType": "CALL",
      "contractName": null,
      "contractAddress": "0x99d3a4bd3db92d061d7704167a2c6ccd683619d3",
      "function": "safeMint(address,uint256)",
      "arguments": [
        "0x02Ea2f4df9022Fe832Bbfa7F6e3A84d59A09B624",
        "28"
      ],
      "transaction": {
        "from": "0x027a5ce58fc466d0e3a9d1990404354029398541",
        "to": "0x99d3a4bd3db92d061d7704167a2c6ccd683619d3",
        "gas": "0x1cf11",
        "value": "0x0",
        "input": "0xa144819400000000000000000000000002ea2f4df9022fe832bbfa7f6e3a84d59a09b624000000000000000000000000000000000000000000000000000000000000001c",
        "nonce": "0xc0",
        "chainId": "0x2105"
      },
      "additionalContracts": [],
      "isFixedGasLimit": false
    },
    {
      "hash": "0x175fe5a2125ee3c4d0b1c3a1c833fe7b2bea2c7ca14fa54ca8e2a4b22ba2d1fa",
      "transactionType": "CALL",
      "contractName": null,
      "contractAddress": "0x99d3a4bd3db92d061d7704167a2c6ccd683619d3",
      "function": "safeMint(address,uint256)",
      "arguments": [
        "0x2196B9Fe1117df9324108d82DfFC849492C23C14",
        "29"
      ],
      "transaction": {
        "from": "0x027a5ce58fc466d0e3a9d1990404354029398541",
        "to": "0x99d3a4bd3db92d061d7704167a2c6ccd683619d3",
        "gas": "0x1cf11",
        "value": "0x0",
        "input": "0xa14481940000000000000000000000002196b9fe1117df9324108d82dffc849492c23c14000000000000000000000000000000000000000000000000000000000000001d",
        "nonce": "0xc1",
        "chainId": "0x2105"
      },
      "additionalContracts": [],
      "isFixedGasLimit": false
    },
    {
      "hash": "0x8bed607d61299ee1b3eceec43f240a9f7fd3e8f575d6b48ff2fac34f1395ef95",
      "transactionType": "CALL",
      "contractName": null,
      "contractAddress": "0x99d3a4bd3db92d061d7704167a2c6ccd683619d3",
      "function": "safeMint(address,uint256)",
      "arguments": [
        "0xd437c37C8D4042bae1B4fAf4E3d6cAb80CE39CE6",
        "30"
      ],
      "transaction": {
        "from": "0x027a5ce58fc466d0e3a9d1990404354029398541",
        "to": "0x99d3a4bd3db92d061d7704167a2c6ccd683619d3",
        "gas": "0x1cf11",
        "value": "0x0",
        "input": "0xa1448194000000000000000000000000d437c37c8d4042bae1b4faf4e3d6cab80ce39ce6000000000000000000000000000000000000000000000000000000000000001e",
        "nonce": "0xc2",
        "chainId": "0x2105"
      },
      "additionalContracts": [],
      "isFixedGasLimit": false
    },
    {
      "hash": "0x0e4f8364ded49cb8291339c5ecb213ff4d78977c0a9a01a8780fa404ea5268bc",
      "transactionType": "CALL",
      "contractName": null,
      "contractAddress": "0x99d3a4bd3db92d061d7704167a2c6ccd683619d3",
      "function": "safeMint(address,uint256)",
      "arguments": [
        "0x3d3b623d67Af0DAF693a1be66739de0b66DB9484",
        "31"
      ],
      "transaction": {
        "from": "0x027a5ce58fc466d0e3a9d1990404354029398541",
        "to": "0x99d3a4bd3db92d061d7704167a2c6ccd683619d3",
        "gas": "0x1cf11",
        "value": "0x0",
        "input": "0xa14481940000000000000000000000003d3b623d67af0daf693a1be66739de0b66db9484000000000000000000000000000000000000000000000000000000000000001f",
        "nonce": "0xc3",
        "chainId": "0x2105"
      },
      "additionalContracts": [],
      "isFixedGasLimit": false
    },
    {
      "hash": "0x12b1c4819ea17b8ec3c66da60701d11c2370c3454cd076249cf079b303f403a2",
      "transactionType": "CALL",
      "contractName": null,
      "contractAddress": "0x99d3a4bd3db92d061d7704167a2c6ccd683619d3",
      "function": "safeMint(address,uint256)",
      "arguments": [
        "0x0107A6972E279d56e6F35d009Dd4f730cba9d9fa",
        "32"
      ],
      "transaction": {
        "from": "0x027a5ce58fc466d0e3a9d1990404354029398541",
        "to": "0x99d3a4bd3db92d061d7704167a2c6ccd683619d3",
        "gas": "0x1b547",
        "value": "0x0",
        "input": "0xa14481940000000000000000000000000107a6972e279d56e6f35d009dd4f730cba9d9fa0000000000000000000000000000000000000000000000000000000000000020",
        "nonce": "0xc4",
        "chainId": "0x2105"
      },
      "additionalContracts": [],
      "isFixedGasLimit": false
    },
    {
      "hash": "0xe8c6a6c736f764cea9ee326820e82822ca7a6c9a345ceab4636a409adaf5468c",
      "transactionType": "CALL",
      "contractName": null,
      "contractAddress": "0x99d3a4bd3db92d061d7704167a2c6ccd683619d3",
      "function": "safeMint(address,uint256)",
      "arguments": [
        "0xaAcb77d3E5231050720f8e9Da9Eb1dB0098Bf05a",
        "33"
      ],
      "transaction": {
        "from": "0x027a5ce58fc466d0e3a9d1990404354029398541",
        "to": "0x99d3a4bd3db92d061d7704167a2c6ccd683619d3",
        "gas": "0x1cf11",
        "value": "0x0",
        "input": "0xa1448194000000000000000000000000aacb77d3e5231050720f8e9da9eb1db0098bf05a0000000000000000000000000000000000000000000000000000000000000021",
        "nonce": "0xc5",
        "chainId": "0x2105"
      },
      "additionalContracts": [],
      "isFixedGasLimit": false
    },
    {
      "hash": "0x61dd5807fc53b027de4f7a068b1420bbc0f9aff3be5937d19312a4f4c98b0ef4",
      "transactionType": "CALL",
      "contractName": null,
      "contractAddress": "0x99d3a4bd3db92d061d7704167a2c6ccd683619d3",
      "function": "safeMint(address,uint256)",
      "arguments": [
        "0xfa55f550D8c2ec8778D81E09C3298B60Ff0b8c94",
        "34"
      ],
      "transaction": {
        "from": "0x027a5ce58fc466d0e3a9d1990404354029398541",
        "to": "0x99d3a4bd3db92d061d7704167a2c6ccd683619d3",
        "gas": "0x1cf11",
        "value": "0x0",
        "input": "0xa1448194000000000000000000000000fa55f550d8c2ec8778d81e09c3298b60ff0b8c940000000000000000000000000000000000000000000000000000000000000022",
        "nonce": "0xc6",
        "chainId": "0x2105"
      },
      "additionalContracts": [],
      "isFixedGasLimit": false
    },
    {
      "hash": "0xeae6d505301a422405bd1a15b93c06e54901705e2636697b796cb0b8435381e6",
      "transactionType": "CALL",
      "contractName": null,
      "contractAddress": "0x99d3a4bd3db92d061d7704167a2c6ccd683619d3",
      "function": "safeMint(address,uint256)",
      "arguments": [
        "0x9d1Fb372355FdE57A8a21D72a771478966581a70",
        "35"
      ],
      "transaction": {
        "from": "0x027a5ce58fc466d0e3a9d1990404354029398541",
        "to": "0x99d3a4bd3db92d061d7704167a2c6ccd683619d3",
        "gas": "0x1cf11",
        "value": "0x0",
        "input": "0xa14481940000000000000000000000009d1fb372355fde57a8a21d72a771478966581a700000000000000000000000000000000000000000000000000000000000000023",
        "nonce": "0xc7",
        "chainId": "0x2105"
      },
      "additionalContracts": [],
      "isFixedGasLimit": false
    },
    {
      "hash": "0xda30e68c6e7641a26fadd8da24b43051bdcc99c1e7528c5995c2a1812824754b",
      "transactionType": "CALL",
      "contractName": null,
      "contractAddress": "0x99d3a4bd3db92d061d7704167a2c6ccd683619d3",
      "function": "safeMint(address,uint256)",
      "arguments": [
        "0x227F2A622AEeFEeAd40f3Aa2b43388268A59DE94",
        "36"
      ],
      "transaction": {
        "from": "0x027a5ce58fc466d0e3a9d1990404354029398541",
        "to": "0x99d3a4bd3db92d061d7704167a2c6ccd683619d3",
        "gas": "0x1cf11",
        "value": "0x0",
        "input": "0xa1448194000000000000000000000000227f2a622aeefeead40f3aa2b43388268a59de940000000000000000000000000000000000000000000000000000000000000024",
        "nonce": "0xc8",
        "chainId": "0x2105"
      },
      "additionalContracts": [],
      "isFixedGasLimit": false
    },
    {
      "hash": "0xf85622bd70558bac3686d9d95a2584ec1ed6f35ab326c21a5f898c90dcef4dd8",
      "transactionType": "CALL",
      "contractName": null,
      "contractAddress": "0x99d3a4bd3db92d061d7704167a2c6ccd683619d3",
      "function": "safeMint(address,uint256)",
      "arguments": [
        "0xB1D3b8c7259eeBA5aB55e4B7C99C645a162A3B7b",
        "37"
      ],
      "transaction": {
        "from": "0x027a5ce58fc466d0e3a9d1990404354029398541",
        "to": "0x99d3a4bd3db92d061d7704167a2c6ccd683619d3",
        "gas": "0x1cf11",
        "value": "0x0",
        "input": "0xa1448194000000000000000000000000b1d3b8c7259eeba5ab55e4b7c99c645a162a3b7b0000000000000000000000000000000000000000000000000000000000000025",
        "nonce": "0xc9",
        "chainId": "0x2105"
      },
      "additionalContracts": [],
      "isFixedGasLimit": false
    },
    {
      "hash": "0x1c1209784bf8dbf3cffce2b75f729cd928d219ea00708150806579b9fe508096",
      "transactionType": "CALL",
      "contractName": null,
      "contractAddress": "0x99d3a4bd3db92d061d7704167a2c6ccd683619d3",
      "function": "safeMint(address,uint256)",
      "arguments": [
        "0x12681f290f07DE2a5a94E890a046254323968036",
        "38"
      ],
      "transaction": {
        "from": "0x027a5ce58fc466d0e3a9d1990404354029398541",
        "to": "0x99d3a4bd3db92d061d7704167a2c6ccd683619d3",
        "gas": "0x1cf11",
        "value": "0x0",
        "input": "0xa144819400000000000000000000000012681f290f07de2a5a94e890a0462543239680360000000000000000000000000000000000000000000000000000000000000026",
        "nonce": "0xca",
        "chainId": "0x2105"
      },
      "additionalContracts": [],
      "isFixedGasLimit": false
    },
    {
      "hash": "0xb4e43525a3d2fa188ff1863b98ddd883bb6473cba286e7da8c6fa785fd770f83",
      "transactionType": "CALL",
      "contractName": null,
      "contractAddress": "0x99d3a4bd3db92d061d7704167a2c6ccd683619d3",
      "function": "safeMint(address,uint256)",
      "arguments": [
        "0x1BB38baC1D3C69983C93625e0A7D03633b7989ad",
        "39"
      ],
      "transaction": {
        "from": "0x027a5ce58fc466d0e3a9d1990404354029398541",
        "to": "0x99d3a4bd3db92d061d7704167a2c6ccd683619d3",
        "gas": "0x1cf11",
        "value": "0x0",
        "input": "0xa14481940000000000000000000000001bb38bac1d3c69983c93625e0a7d03633b7989ad0000000000000000000000000000000000000000000000000000000000000027",
        "nonce": "0xcb",
        "chainId": "0x2105"
      },
      "additionalContracts": [],
      "isFixedGasLimit": false
    },
    {
      "hash": "0xc46cd92157e0e5e5b660cb009736a2916d7ba7203cf6e0f05bfcc94a5ad795e4",
      "transactionType": "CALL",
      "contractName": null,
      "contractAddress": "0x99d3a4bd3db92d061d7704167a2c6ccd683619d3",
      "function": "safeMint(address,uint256)",
      "arguments": [
        "0xdd6f7c56B3a9B8816Df38e689221634390b70fDC",
        "40"
      ],
      "transaction": {
        "from": "0x027a5ce58fc466d0e3a9d1990404354029398541",
        "to": "0x99d3a4bd3db92d061d7704167a2c6ccd683619d3",
        "gas": "0x1cf11",
        "value": "0x0",
        "input": "0xa1448194000000000000000000000000dd6f7c56b3a9b8816df38e689221634390b70fdc0000000000000000000000000000000000000000000000000000000000000028",
        "nonce": "0xcc",
        "chainId": "0x2105"
      },
      "additionalContracts": [],
      "isFixedGasLimit": false
    },
    {
      "hash": "0x4aca77603a0fe29037ba880c4ec62dbf35e13933e15509ff4c77f3aee9c1d519",
      "transactionType": "CALL",
      "contractName": null,
      "contractAddress": "0x99d3a4bd3db92d061d7704167a2c6ccd683619d3",
      "function": "safeMint(address,uint256)",
      "arguments": [
        "0xd4805a7f11c4FF14b5fc8323DBdF56481DEA9FD4",
        "41"
      ],
      "transaction": {
        "from": "0x027a5ce58fc466d0e3a9d1990404354029398541",
        "to": "0x99d3a4bd3db92d061d7704167a2c6ccd683619d3",
        "gas": "0x1cf11",
        "value": "0x0",
        "input": "0xa1448194000000000000000000000000d4805a7f11c4ff14b5fc8323dbdf56481dea9fd40000000000000000000000000000000000000000000000000000000000000029",
        "nonce": "0xcd",
        "chainId": "0x2105"
      },
      "additionalContracts": [],
      "isFixedGasLimit": false
    },
    {
      "hash": "0xde3ac09124aa9a781b87cabc6047619287d31d10dbd3ba27a26acbaf976a5a54",
      "transactionType": "CALL",
      "contractName": null,
      "contractAddress": "0x99d3a4bd3db92d061d7704167a2c6ccd683619d3",
      "function": "safeMint(address,uint256)",
      "arguments": [
        "0xAC74126Dc2dCaf90a97DC0C8bC6d4A1318e91e1d",
        "42"
      ],
      "transaction": {
        "from": "0x027a5ce58fc466d0e3a9d1990404354029398541",
        "to": "0x99d3a4bd3db92d061d7704167a2c6ccd683619d3",
        "gas": "0x1cf11",
        "value": "0x0",
        "input": "0xa1448194000000000000000000000000ac74126dc2dcaf90a97dc0c8bc6d4a1318e91e1d000000000000000000000000000000000000000000000000000000000000002a",
        "nonce": "0xce",
        "chainId": "0x2105"
      },
      "additionalContracts": [],
      "isFixedGasLimit": false
    },
    {
      "hash": "0x2a56d7093b36be0018da12417491596ebc599ca66e895971ef39cf3e25083f8a",
      "transactionType": "CALL",
      "contractName": null,
      "contractAddress": "0x99d3a4bd3db92d061d7704167a2c6ccd683619d3",
      "function": "safeMint(address,uint256)",
      "arguments": [
        "0xabA654110C0379c79D5387D6D5c593C1855B4BA9",
        "43"
      ],
      "transaction": {
        "from": "0x027a5ce58fc466d0e3a9d1990404354029398541",
        "to": "0x99d3a4bd3db92d061d7704167a2c6ccd683619d3",
        "gas": "0x1cf11",
        "value": "0x0",
        "input": "0xa1448194000000000000000000000000aba654110c0379c79d5387d6d5c593c1855b4ba9000000000000000000000000000000000000000000000000000000000000002b",
        "nonce": "0xcf",
        "chainId": "0x2105"
      },
      "additionalContracts": [],
      "isFixedGasLimit": false
    },
    {
      "hash": "0xea40bf324141b232e3e253411ccdd4d3a99a6dd17e0ca4ff6cd553acdc7b34b9",
      "transactionType": "CALL",
      "contractName": null,
      "contractAddress": "0x99d3a4bd3db92d061d7704167a2c6ccd683619d3",
      "function": "safeMint(address,uint256)",
      "arguments": [
        "0x80475ECeCd1b7EC2cF6624B1A1705BBf3F20BE94",
        "44"
      ],
      "transaction": {
        "from": "0x027a5ce58fc466d0e3a9d1990404354029398541",
        "to": "0x99d3a4bd3db92d061d7704167a2c6ccd683619d3",
        "gas": "0x1cf11",
        "value": "0x0",
        "input": "0xa144819400000000000000000000000080475ececd1b7ec2cf6624b1a1705bbf3f20be94000000000000000000000000000000000000000000000000000000000000002c",
        "nonce": "0xd0",
        "chainId": "0x2105"
      },
      "additionalContracts": [],
      "isFixedGasLimit": false
    },
    {
      "hash": "0xba79a1db7287e8d641e3f22df67288ce669697ad0491b658acef039967d8b95e",
      "transactionType": "CALL",
      "contractName": null,
      "contractAddress": "0x99d3a4bd3db92d061d7704167a2c6ccd683619d3",
      "function": "safeMint(address,uint256)",
      "arguments": [
        "0xf78eF100DD63F62cDC0BA7324B43aB7074e8262F",
        "45"
      ],
      "transaction": {
        "from": "0x027a5ce58fc466d0e3a9d1990404354029398541",
        "to": "0x99d3a4bd3db92d061d7704167a2c6ccd683619d3",
        "gas": "0x1b547",
        "value": "0x0",
        "input": "0xa1448194000000000000000000000000f78ef100dd63f62cdc0ba7324b43ab7074e8262f000000000000000000000000000000000000000000000000000000000000002d",
        "nonce": "0xd1",
        "chainId": "0x2105"
      },
      "additionalContracts": [],
      "isFixedGasLimit": false
    },
    {
      "hash": "0xf5591bdffc92b2c8ccd2590956f2c9fce2aa79023983d745711c2dd8331833bf",
      "transactionType": "CALL",
      "contractName": null,
      "contractAddress": "0x99d3a4bd3db92d061d7704167a2c6ccd683619d3",
      "function": "safeMint(address,uint256)",
      "arguments": [
        "0xBb07Eef6AeC41017cAb296f863820C04634843AB",
        "46"
      ],
      "transaction": {
        "from": "0x027a5ce58fc466d0e3a9d1990404354029398541",
        "to": "0x99d3a4bd3db92d061d7704167a2c6ccd683619d3",
        "gas": "0x1cf11",
        "value": "0x0",
        "input": "0xa1448194000000000000000000000000bb07eef6aec41017cab296f863820c04634843ab000000000000000000000000000000000000000000000000000000000000002e",
        "nonce": "0xd2",
        "chainId": "0x2105"
      },
      "additionalContracts": [],
      "isFixedGasLimit": false
    },
    {
      "hash": "0xbc341a0e3f444a3a938b45c3f0e54cbb647f865905c240218edc37b82b8dbace",
      "transactionType": "CALL",
      "contractName": null,
      "contractAddress": "0x99d3a4bd3db92d061d7704167a2c6ccd683619d3",
      "function": "safeMint(address,uint256)",
      "arguments": [
        "0x2E6A85154332B09FC71A31ae3ff9b294928E9AdC",
        "47"
      ],
      "transaction": {
        "from": "0x027a5ce58fc466d0e3a9d1990404354029398541",
        "to": "0x99d3a4bd3db92d061d7704167a2c6ccd683619d3",
        "gas": "0x1cf11",
        "value": "0x0",
        "input": "0xa14481940000000000000000000000002e6a85154332b09fc71a31ae3ff9b294928e9adc000000000000000000000000000000000000000000000000000000000000002f",
        "nonce": "0xd3",
        "chainId": "0x2105"
      },
      "additionalContracts": [],
      "isFixedGasLimit": false
    },
    {
      "hash": "0x3fe031d972e9425d75e40e20987f2bb3fe946c74a01fdcf7d5e34c11cb12ed09",
      "transactionType": "CALL",
      "contractName": null,
      "contractAddress": "0x99d3a4bd3db92d061d7704167a2c6ccd683619d3",
      "function": "safeMint(address,uint256)",
      "arguments": [
        "0xE5728f218590E533722639485409b67F458b664C",
        "48"
      ],
      "transaction": {
        "from": "0x027a5ce58fc466d0e3a9d1990404354029398541",
        "to": "0x99d3a4bd3db92d061d7704167a2c6ccd683619d3",
        "gas": "0x1cf11",
        "value": "0x0",
        "input": "0xa1448194000000000000000000000000e5728f218590e533722639485409b67f458b664c0000000000000000000000000000000000000000000000000000000000000030",
        "nonce": "0xd4",
        "chainId": "0x2105"
      },
      "additionalContracts": [],
      "isFixedGasLimit": false
    },
    {
      "hash": "0x8207949617930db8c325b781707aa841c289a13593aeb36b0220159d7d938b3e",
      "transactionType": "CALL",
      "contractName": null,
      "contractAddress": "0x99d3a4bd3db92d061d7704167a2c6ccd683619d3",
      "function": "safeMint(address,uint256)",
      "arguments": [
        "0x41C78C5690db1bDc34C1Bcd78Bbeb39bA4CBBe1C",
        "49"
      ],
      "transaction": {
        "from": "0x027a5ce58fc466d0e3a9d1990404354029398541",
        "to": "0x99d3a4bd3db92d061d7704167a2c6ccd683619d3",
        "gas": "0x1cf11",
        "value": "0x0",
        "input": "0xa144819400000000000000000000000041c78c5690db1bdc34c1bcd78bbeb39ba4cbbe1c0000000000000000000000000000000000000000000000000000000000000031",
        "nonce": "0xd5",
        "chainId": "0x2105"
      },
      "additionalContracts": [],
      "isFixedGasLimit": false
    },
    {
      "hash": "0xbe1f19a3c26277da94bdd66d01eda3c94a0cd7f6616e863f58c002f84bffc09c",
      "transactionType": "CALL",
      "contractName": null,
      "contractAddress": "0x99d3a4bd3db92d061d7704167a2c6ccd683619d3",
      "function": "safeMint(address,uint256)",
      "arguments": [
        "0xF9FcD5B21B72d90457065935cdE16A99af4e2Db3",
        "50"
      ],
      "transaction": {
        "from": "0x027a5ce58fc466d0e3a9d1990404354029398541",
        "to": "0x99d3a4bd3db92d061d7704167a2c6ccd683619d3",
        "gas": "0x1cf11",
        "value": "0x0",
        "input": "0xa1448194000000000000000000000000f9fcd5b21b72d90457065935cde16a99af4e2db30000000000000000000000000000000000000000000000000000000000000032",
        "nonce": "0xd6",
        "chainId": "0x2105"
      },
      "additionalContracts": [],
      "isFixedGasLimit": false
    },
    {
      "hash": "0x40c77284cb6179fda15af6febc59ea9d8d2d260c89a7f503fc0a15ef498bf96d",
      "transactionType": "CALL",
      "contractName": null,
      "contractAddress": "0x99d3a4bd3db92d061d7704167a2c6ccd683619d3",
      "function": "safeMint(address,uint256)",
      "arguments": [
        "0x935aB102bdA39EE9c339d4B20510ace59b7aE35F",
        "51"
      ],
      "transaction": {
        "from": "0x027a5ce58fc466d0e3a9d1990404354029398541",
        "to": "0x99d3a4bd3db92d061d7704167a2c6ccd683619d3",
        "gas": "0x1cf11",
        "value": "0x0",
        "input": "0xa1448194000000000000000000000000935ab102bda39ee9c339d4b20510ace59b7ae35f0000000000000000000000000000000000000000000000000000000000000033",
        "nonce": "0xd7",
        "chainId": "0x2105"
      },
      "additionalContracts": [],
      "isFixedGasLimit": false
    },
    {
      "hash": "0x47a79c5fb27e0e7c6ca4b725e7d3448bdd6d69aa39943ca6449740b17d8e2d83",
      "transactionType": "CALL",
      "contractName": null,
      "contractAddress": "0x99d3a4bd3db92d061d7704167a2c6ccd683619d3",
      "function": "safeMint(address,uint256)",
      "arguments": [
        "0x2292B6A9941Af4ECaeD48371083E2cBf87dA4444",
        "52"
      ],
      "transaction": {
        "from": "0x027a5ce58fc466d0e3a9d1990404354029398541",
        "to": "0x99d3a4bd3db92d061d7704167a2c6ccd683619d3",
        "gas": "0x1cf11",
        "value": "0x0",
        "input": "0xa14481940000000000000000000000002292b6a9941af4ecaed48371083e2cbf87da44440000000000000000000000000000000000000000000000000000000000000034",
        "nonce": "0xd8",
        "chainId": "0x2105"
      },
      "additionalContracts": [],
      "isFixedGasLimit": false
    },
    {
      "hash": "0x2dff941b479d612e622d7fec023a7fff25df8227a596acb95f80705ba9ba8a25",
      "transactionType": "CALL",
      "contractName": null,
      "contractAddress": "0x99d3a4bd3db92d061d7704167a2c6ccd683619d3",
      "function": "safeMint(address,uint256)",
      "arguments": [
        "0x4502f749360c4C01dfaa8a6eEcD945C037F18fcC",
        "53"
      ],
      "transaction": {
        "from": "0x027a5ce58fc466d0e3a9d1990404354029398541",
        "to": "0x99d3a4bd3db92d061d7704167a2c6ccd683619d3",
        "gas": "0x1cf11",
        "value": "0x0",
        "input": "0xa14481940000000000000000000000004502f749360c4c01dfaa8a6eecd945c037f18fcc0000000000000000000000000000000000000000000000000000000000000035",
        "nonce": "0xd9",
        "chainId": "0x2105"
      },
      "additionalContracts": [],
      "isFixedGasLimit": false
    },
    {
      "hash": "0x62fb5099f8617e09aa2288bd87adcbda0da14ab0752046e247069d41df3fb28e",
      "transactionType": "CALL",
      "contractName": null,
      "contractAddress": "0x99d3a4bd3db92d061d7704167a2c6ccd683619d3",
      "function": "safeMint(address,uint256)",
      "arguments": [
        "0x61Bd72d67a2e5D8C3483289B0f912E40F98B3989",
        "54"
      ],
      "transaction": {
        "from": "0x027a5ce58fc466d0e3a9d1990404354029398541",
        "to": "0x99d3a4bd3db92d061d7704167a2c6ccd683619d3",
        "gas": "0x1cf11",
        "value": "0x0",
        "input": "0xa144819400000000000000000000000061bd72d67a2e5d8c3483289b0f912e40f98b39890000000000000000000000000000000000000000000000000000000000000036",
        "nonce": "0xda",
        "chainId": "0x2105"
      },
      "additionalContracts": [],
      "isFixedGasLimit": false
    },
    {
      "hash": "0x50c88f93f216b99117e77ead286c5a8a0b16cc93d755ed8c79d43e2225eb5d2b",
      "transactionType": "CALL",
      "contractName": null,
      "contractAddress": "0x99d3a4bd3db92d061d7704167a2c6ccd683619d3",
      "function": "safeMint(address,uint256)",
      "arguments": [
        "0x3d00523185A50Dce10bCAA52e7A0df19728F4416",
        "55"
      ],
      "transaction": {
        "from": "0x027a5ce58fc466d0e3a9d1990404354029398541",
        "to": "0x99d3a4bd3db92d061d7704167a2c6ccd683619d3",
        "gas": "0x1b547",
        "value": "0x0",
        "input": "0xa14481940000000000000000000000003d00523185a50dce10bcaa52e7a0df19728f44160000000000000000000000000000000000000000000000000000000000000037",
        "nonce": "0xdb",
        "chainId": "0x2105"
      },
      "additionalContracts": [],
      "isFixedGasLimit": false
    },
    {
      "hash": "0x6f6401637ead05ee48efcfa7bbf3727798c310bd774fa34b5ff0cda5f5fb720c",
      "transactionType": "CALL",
      "contractName": null,
      "contractAddress": "0x99d3a4bd3db92d061d7704167a2c6ccd683619d3",
      "function": "safeMint(address,uint256)",
      "arguments": [
        "0x742FCEA22926944b845e7cc363f5454991C223f8",
        "56"
      ],
      "transaction": {
        "from": "0x027a5ce58fc466d0e3a9d1990404354029398541",
        "to": "0x99d3a4bd3db92d061d7704167a2c6ccd683619d3",
        "gas": "0x1cf11",
        "value": "0x0",
        "input": "0xa1448194000000000000000000000000742fcea22926944b845e7cc363f5454991c223f80000000000000000000000000000000000000000000000000000000000000038",
        "nonce": "0xdc",
        "chainId": "0x2105"
      },
      "additionalContracts": [],
      "isFixedGasLimit": false
    },
    {
      "hash": "0x1dbf599f2dab91aa97df4d97a9e4b5b4b6c658fd020a9a3affcb6eab6961e74b",
      "transactionType": "CALL",
      "contractName": null,
      "contractAddress": "0x99d3a4bd3db92d061d7704167a2c6ccd683619d3",
      "function": "safeMint(address,uint256)",
      "arguments": [
        "0x323Fa1A506012b62F38BD4E3aF12fCE6d1F2254E",
        "57"
      ],
      "transaction": {
        "from": "0x027a5ce58fc466d0e3a9d1990404354029398541",
        "to": "0x99d3a4bd3db92d061d7704167a2c6ccd683619d3",
        "gas": "0x1cf11",
        "value": "0x0",
        "input": "0xa1448194000000000000000000000000323fa1a506012b62f38bd4e3af12fce6d1f2254e0000000000000000000000000000000000000000000000000000000000000039",
        "nonce": "0xdd",
        "chainId": "0x2105"
      },
      "additionalContracts": [],
      "isFixedGasLimit": false
    },
    {
      "hash": "0x3c8a764a2456433e9c55dabd7fd48879e1de94795f047cf8066e15df0b40399e",
      "transactionType": "CALL",
      "contractName": null,
      "contractAddress": "0x99d3a4bd3db92d061d7704167a2c6ccd683619d3",
      "function": "safeMint(address,uint256)",
      "arguments": [
        "0x34924a4549B28D23EeEbE6C4Fb4fE30E2FF72827",
        "58"
      ],
      "transaction": {
        "from": "0x027a5ce58fc466d0e3a9d1990404354029398541",
        "to": "0x99d3a4bd3db92d061d7704167a2c6ccd683619d3",
        "gas": "0x1cf11",
        "value": "0x0",
        "input": "0xa144819400000000000000000000000034924a4549b28d23eeebe6c4fb4fe30e2ff72827000000000000000000000000000000000000000000000000000000000000003a",
        "nonce": "0xde",
        "chainId": "0x2105"
      },
      "additionalContracts": [],
      "isFixedGasLimit": false
    },
    {
      "hash": "0x44becaa5560de3a7e065ccbb2d0986eaebb727f25a3451d3a9cc094b600b5e3c",
      "transactionType": "CALL",
      "contractName": null,
      "contractAddress": "0x99d3a4bd3db92d061d7704167a2c6ccd683619d3",
      "function": "safeMint(address,uint256)",
      "arguments": [
        "0x02fcE2EEcA511DB002Bd5Cb9Ad5c70D6ACCA9936",
        "59"
      ],
      "transaction": {
        "from": "0x027a5ce58fc466d0e3a9d1990404354029398541",
        "to": "0x99d3a4bd3db92d061d7704167a2c6ccd683619d3",
        "gas": "0x1cf11",
        "value": "0x0",
        "input": "0xa144819400000000000000000000000002fce2eeca511db002bd5cb9ad5c70d6acca9936000000000000000000000000000000000000000000000000000000000000003b",
        "nonce": "0xdf",
        "chainId": "0x2105"
      },
      "additionalContracts": [],
      "isFixedGasLimit": false
    },
    {
      "hash": "0x2c41209969c111f7eb753555942d803b4ba4badea3b12f8cf6b11300865b69e7",
      "transactionType": "CALL",
      "contractName": null,
      "contractAddress": "0x99d3a4bd3db92d061d7704167a2c6ccd683619d3",
      "function": "safeMint(address,uint256)",
      "arguments": [
        "0x3F59B5e85A9f6c3c94fBcd61B486e44B4F6B5E9F",
        "60"
      ],
      "transaction": {
        "from": "0x027a5ce58fc466d0e3a9d1990404354029398541",
        "to": "0x99d3a4bd3db92d061d7704167a2c6ccd683619d3",
        "gas": "0x1cf11",
        "value": "0x0",
        "input": "0xa14481940000000000000000000000003f59b5e85a9f6c3c94fbcd61b486e44b4f6b5e9f000000000000000000000000000000000000000000000000000000000000003c",
        "nonce": "0xe0",
        "chainId": "0x2105"
      },
      "additionalContracts": [],
      "isFixedGasLimit": false
    },
    {
      "hash": "0x4e86ebe050ea0c9ff5c80d532a8458a7f8073ac130b235de69a98e323fac6771",
      "transactionType": "CALL",
      "contractName": null,
      "contractAddress": "0x99d3a4bd3db92d061d7704167a2c6ccd683619d3",
      "function": "safeMint(address,uint256)",
      "arguments": [
        "0xb080E3e7cd25aAFD1cb27070491Ca8DECb9602D9",
        "61"
      ],
      "transaction": {
        "from": "0x027a5ce58fc466d0e3a9d1990404354029398541",
        "to": "0x99d3a4bd3db92d061d7704167a2c6ccd683619d3",
        "gas": "0x1cf11",
        "value": "0x0",
        "input": "0xa1448194000000000000000000000000b080e3e7cd25aafd1cb27070491ca8decb9602d9000000000000000000000000000000000000000000000000000000000000003d",
        "nonce": "0xe1",
        "chainId": "0x2105"
      },
      "additionalContracts": [],
      "isFixedGasLimit": false
    },
    {
      "hash": "0xf4b09552ec15220a482c57ddf8297dafd0b1f9a5d1822f41ddc09cc2747a86ef",
      "transactionType": "CALL",
      "contractName": null,
      "contractAddress": "0x99d3a4bd3db92d061d7704167a2c6ccd683619d3",
      "function": "safeMint(address,uint256)",
      "arguments": [
        "0x8587e11B68C4e4A260b9ddF5D1Fb10B5182CDCeA",
        "62"
      ],
      "transaction": {
        "from": "0x027a5ce58fc466d0e3a9d1990404354029398541",
        "to": "0x99d3a4bd3db92d061d7704167a2c6ccd683619d3",
        "gas": "0x1cf11",
        "value": "0x0",
        "input": "0xa14481940000000000000000000000008587e11b68c4e4a260b9ddf5d1fb10b5182cdcea000000000000000000000000000000000000000000000000000000000000003e",
        "nonce": "0xe2",
        "chainId": "0x2105"
      },
      "additionalContracts": [],
      "isFixedGasLimit": false
    },
    {
      "hash": "0x49bb4925856b668a3dcd99f507f8a380736768e8f8174a5792c580ffe12d028c",
      "transactionType": "CALL",
      "contractName": null,
      "contractAddress": "0x99d3a4bd3db92d061d7704167a2c6ccd683619d3",
      "function": "safeMint(address,uint256)",
      "arguments": [
        "0x96aAC1D3e4D1ae5326ffb041673F542DdE3EA6B7",
        "63"
      ],
      "transaction": {
        "from": "0x027a5ce58fc466d0e3a9d1990404354029398541",
        "to": "0x99d3a4bd3db92d061d7704167a2c6ccd683619d3",
        "gas": "0x1cf11",
        "value": "0x0",
        "input": "0xa144819400000000000000000000000096aac1d3e4d1ae5326ffb041673f542dde3ea6b7000000000000000000000000000000000000000000000000000000000000003f",
        "nonce": "0xe3",
        "chainId": "0x2105"
      },
      "additionalContracts": [],
      "isFixedGasLimit": false
    },
    {
      "hash": "0x1c707093c80f02ecd1a07149a583964aec2e988ab19be0a470af8a7eccef53d7",
      "transactionType": "CALL",
      "contractName": null,
      "contractAddress": "0x99d3a4bd3db92d061d7704167a2c6ccd683619d3",
      "function": "safeMint(address,uint256)",
      "arguments": [
        "0xf5f1c399005249FB6E8177F51b1D54210e3bD714",
        "64"
      ],
      "transaction": {
        "from": "0x027a5ce58fc466d0e3a9d1990404354029398541",
        "to": "0x99d3a4bd3db92d061d7704167a2c6ccd683619d3",
        "gas": "0x1b547",
        "value": "0x0",
        "input": "0xa1448194000000000000000000000000f5f1c399005249fb6e8177f51b1d54210e3bd7140000000000000000000000000000000000000000000000000000000000000040",
        "nonce": "0xe4",
        "chainId": "0x2105"
      },
      "additionalContracts": [],
      "isFixedGasLimit": false
    },
    {
      "hash": "0x81d082eab6c672e74326ca45894bd522e057011ad42a54be8b7a4f37886721d7",
      "transactionType": "CALL",
      "contractName": null,
      "contractAddress": "0x99d3a4bd3db92d061d7704167a2c6ccd683619d3",
      "function": "safeMint(address,uint256)",
      "arguments": [
        "0x916375018B118EeBb54eB77873e0A524A0959B34",
        "65"
      ],
      "transaction": {
        "from": "0x027a5ce58fc466d0e3a9d1990404354029398541",
        "to": "0x99d3a4bd3db92d061d7704167a2c6ccd683619d3",
        "gas": "0x1cf11",
        "value": "0x0",
        "input": "0xa1448194000000000000000000000000916375018b118eebb54eb77873e0a524a0959b340000000000000000000000000000000000000000000000000000000000000041",
        "nonce": "0xe5",
        "chainId": "0x2105"
      },
      "additionalContracts": [],
      "isFixedGasLimit": false
    }
  ],
  "receipts": [
    {
      "status": "0x1",
      "cumulativeGasUsed": "0x72f3bc",
      "logs": [
        {
          "address": "0x99d3a4bd3db92d061d7704167a2c6ccd683619d3",
          "topics": [
            "0xddf252ad1be2c89b69c2b068fc378daa952ba7f163c4a11628f55a4df523b3ef",
            "0x0000000000000000000000000000000000000000000000000000000000000000",
            "0x00000000000000000000000003f2efdcb4bf042edcebe7c2a22c8fcdb7e0af76",
            "0x0000000000000000000000000000000000000000000000000000000000000001"
          ],
          "data": "0x",
          "blockHash": "0x4e3a443099722e36995fa795d748d502b87472f99324577c91e4dfa648be92fd",
          "blockNumber": "0xf7b094",
          "transactionHash": "0x3ef4a3410f2ec1efffb6d49e7567511d4781c2fcf17a68d5eade6fd1a1ec4b6a",
          "transactionIndex": "0x23",
          "logIndex": "0xcb",
          "removed": false
        }
      ],
      "logsBloom": "0x00000000000000000000000000000000000000000000040000000000000000000000000000000000000000000000001000000000000000000000000000040000000000000000000000000008000000000000000000040000000000000000000000000000021000000000000000000800000000000000000000000010000000000000000000000000000000000000000000000000000000000000000000000000000000000000000000000000000000000000000000000000000040000000000000000002000000000000000000020000000000000000000000000000000060000000000000000000000000000000000000000000000000000000000000000000",
      "type": "0x2",
      "transactionHash": "0x3ef4a3410f2ec1efffb6d49e7567511d4781c2fcf17a68d5eade6fd1a1ec4b6a",
      "transactionIndex": "0x23",
      "blockHash": "0x4e3a443099722e36995fa795d748d502b87472f99324577c91e4dfa648be92fd",
      "blockNumber": "0xf7b094",
      "gasUsed": "0x13ca1",
      "effectiveGasPrice": "0x1df043f",
      "from": "0x027a5ce58fc466d0e3a9d1990404354029398541",
      "to": "0x99d3a4bd3db92d061d7704167a2c6ccd683619d3",
      "contractAddress": null,
      "l1Fee": "0x4b98b9450",
      "l1GasPrice": "0x1cd976b76",
      "l1GasUsed": "0x94c"
    },
    {
      "status": "0x1",
      "cumulativeGasUsed": "0x74305d",
      "logs": [
        {
          "address": "0x99d3a4bd3db92d061d7704167a2c6ccd683619d3",
          "topics": [
            "0xddf252ad1be2c89b69c2b068fc378daa952ba7f163c4a11628f55a4df523b3ef",
            "0x0000000000000000000000000000000000000000000000000000000000000000",
            "0x000000000000000000000000b5f98526f9be330b9d4fb2ece099c9b5f88094f9",
            "0x0000000000000000000000000000000000000000000000000000000000000002"
          ],
          "data": "0x",
          "blockHash": "0x4e3a443099722e36995fa795d748d502b87472f99324577c91e4dfa648be92fd",
          "blockNumber": "0xf7b094",
          "transactionHash": "0xf121eb17b694d5e5081c56722e331bfb11e017ecd94598e661fbfebb64a684e8",
          "transactionIndex": "0x24",
          "logIndex": "0xcc",
          "removed": false
        }
      ],
      "logsBloom": "0x04000000000000000000000000000000000000000000040000000002000000000000000000000000000000000000001000000000000000000000000000000000000000000000000000000008000000000000000000000000000000000000000000000000020000000000000000000800000000000000000000000010000000000000000000000000000000000000000000000000000000000000000000000000000000020000000000000100000000000000000000000000000000000000000000000802000000000000000000000000000000000000000000000000000020000000000000000000000000000000000000000000008000000000000000000000",
      "type": "0x2",
      "transactionHash": "0xf121eb17b694d5e5081c56722e331bfb11e017ecd94598e661fbfebb64a684e8",
      "transactionIndex": "0x24",
      "blockHash": "0x4e3a443099722e36995fa795d748d502b87472f99324577c91e4dfa648be92fd",
      "blockNumber": "0xf7b094",
      "gasUsed": "0x13ca1",
      "effectiveGasPrice": "0x1df043f",
      "from": "0x027a5ce58fc466d0e3a9d1990404354029398541",
      "to": "0x99d3a4bd3db92d061d7704167a2c6ccd683619d3",
      "contractAddress": null,
      "l1Fee": "0x4b169f11d",
      "l1GasPrice": "0x1cd976b76",
      "l1GasUsed": "0x93c"
    },
    {
      "status": "0x1",
      "cumulativeGasUsed": "0x756cfe",
      "logs": [
        {
          "address": "0x99d3a4bd3db92d061d7704167a2c6ccd683619d3",
          "topics": [
            "0xddf252ad1be2c89b69c2b068fc378daa952ba7f163c4a11628f55a4df523b3ef",
            "0x0000000000000000000000000000000000000000000000000000000000000000",
            "0x000000000000000000000000de3db7888a28c2121243cc893fbfb2d687d1652d",
            "0x0000000000000000000000000000000000000000000000000000000000000003"
          ],
          "data": "0x",
          "blockHash": "0x4e3a443099722e36995fa795d748d502b87472f99324577c91e4dfa648be92fd",
          "blockNumber": "0xf7b094",
          "transactionHash": "0x570f81b4d60ed4f286fd3787c85e01be91bbf90a4ddaa85b8bd55d6e477523b2",
          "transactionIndex": "0x25",
          "logIndex": "0xcd",
          "removed": false
        }
      ],
      "logsBloom": "0x00000000000000000000000000000000000000000000040000000000000000000000000000000000000000000000001000000000020000000000000000000000000000000000000000000008000000000000000000000000000000000000000000000000020800000000000000000800000000000000000000000010000000000000000000000000000000000000000000000000000000000000000000000000000040040000000000000000000000000000000000800000000000000000400000000002000000000000000000000000000000000000000000000000000020000000000000000000000000000000000000000000000000000000000000000000",
      "type": "0x2",
      "transactionHash": "0x570f81b4d60ed4f286fd3787c85e01be91bbf90a4ddaa85b8bd55d6e477523b2",
      "transactionIndex": "0x25",
      "blockHash": "0x4e3a443099722e36995fa795d748d502b87472f99324577c91e4dfa648be92fd",
      "blockNumber": "0xf7b094",
      "gasUsed": "0x13ca1",
      "effectiveGasPrice": "0x1df043f",
      "from": "0x027a5ce58fc466d0e3a9d1990404354029398541",
      "to": "0x99d3a4bd3db92d061d7704167a2c6ccd683619d3",
      "contractAddress": null,
      "l1Fee": "0x4b98b9450",
      "l1GasPrice": "0x1cd976b76",
      "l1GasUsed": "0x94c"
    },
    {
      "status": "0x1",
      "cumulativeGasUsed": "0x76a99f",
      "logs": [
        {
          "address": "0x99d3a4bd3db92d061d7704167a2c6ccd683619d3",
          "topics": [
            "0xddf252ad1be2c89b69c2b068fc378daa952ba7f163c4a11628f55a4df523b3ef",
            "0x0000000000000000000000000000000000000000000000000000000000000000",
            "0x00000000000000000000000085312610fab860fee8718c10ffe8a024e50c01f7",
            "0x0000000000000000000000000000000000000000000000000000000000000004"
          ],
          "data": "0x",
          "blockHash": "0x4e3a443099722e36995fa795d748d502b87472f99324577c91e4dfa648be92fd",
          "blockNumber": "0xf7b094",
          "transactionHash": "0xcec4c9fb8b3d602ba23c2c5cc699b96606060353219780fb937fdae251fab15a",
          "transactionIndex": "0x26",
          "logIndex": "0xce",
          "removed": false
        }
      ],
      "logsBloom": "0x00000002000000000000000000000000000000000000040000000000000000000000000000000000000000000000001000000000000000000000000000000000000000000000000000000008000000000000000000000000000000000000000008000000020000000000000000000800000000000000000000000018000000000000000000000000000000000000000000000000000000000000000000000000000000000000000000000000000080000000000000000000002000000000000000000002000000000000000000000000000000008000000000000000000020000000000000000000000000000000000000000000000000000000000000000000",
      "type": "0x2",
      "transactionHash": "0xcec4c9fb8b3d602ba23c2c5cc699b96606060353219780fb937fdae251fab15a",
      "transactionIndex": "0x26",
      "blockHash": "0x4e3a443099722e36995fa795d748d502b87472f99324577c91e4dfa648be92fd",
      "blockNumber": "0xf7b094",
      "gasUsed": "0x13ca1",
      "effectiveGasPrice": "0x1df043f",
      "from": "0x027a5ce58fc466d0e3a9d1990404354029398541",
      "to": "0x99d3a4bd3db92d061d7704167a2c6ccd683619d3",
      "contractAddress": null,
      "l1Fee": "0x4b98b9450",
      "l1GasPrice": "0x1cd976b76",
      "l1GasUsed": "0x94c"
    },
    {
      "status": "0x1",
      "cumulativeGasUsed": "0x150545d",
      "logs": [
        {
          "address": "0x99d3a4bd3db92d061d7704167a2c6ccd683619d3",
          "topics": [
            "0xddf252ad1be2c89b69c2b068fc378daa952ba7f163c4a11628f55a4df523b3ef",
            "0x0000000000000000000000000000000000000000000000000000000000000000",
            "0x00000000000000000000000096706eb471f875a9a41442f358d3b34ba02f868b",
            "0x0000000000000000000000000000000000000000000000000000000000000005"
          ],
          "data": "0x",
          "blockHash": "0x0b898c46ec64972ba1e103f7e1966b81f4caf18366d521a14dcf2a1c831453b6",
          "blockNumber": "0xf7b095",
          "transactionHash": "0x1fcc03869926b36289169df07f9e5bf6d5865710996110d69dc2c39acc78aa1e",
          "transactionIndex": "0x31",
          "logIndex": "0x2d9",
          "removed": false
        }
      ],
      "logsBloom": "0x00000000000000000000000000000000000000000000040000000000000100000000000000000000000000000000001000000000000000000000000000000000000010000000000000000008000000000000000000000000000080000000000000000000020000000000000000000800000000000000000000000010000000000000000000000000000000000000001000000800000000000000000000000000000000000000000000000000000000000000000000000000000000000400000000000002000000000000000000000000000000000000000000000000000020000000000000000000000000000000000000000000000000000000000000000000",
      "type": "0x2",
      "transactionHash": "0x1fcc03869926b36289169df07f9e5bf6d5865710996110d69dc2c39acc78aa1e",
      "transactionIndex": "0x31",
      "blockHash": "0x0b898c46ec64972ba1e103f7e1966b81f4caf18366d521a14dcf2a1c831453b6",
      "blockNumber": "0xf7b095",
      "gasUsed": "0x13ca1",
      "effectiveGasPrice": "0x1de3ba1",
      "from": "0x027a5ce58fc466d0e3a9d1990404354029398541",
      "to": "0x99d3a4bd3db92d061d7704167a2c6ccd683619d3",
      "contractAddress": null,
      "l1Fee": "0x4ad591f83",
      "l1GasPrice": "0x1cd976b76",
      "l1GasUsed": "0x934"
    },
    {
      "status": "0x1",
      "cumulativeGasUsed": "0x15190fe",
      "logs": [
        {
          "address": "0x99d3a4bd3db92d061d7704167a2c6ccd683619d3",
          "topics": [
            "0xddf252ad1be2c89b69c2b068fc378daa952ba7f163c4a11628f55a4df523b3ef",
            "0x0000000000000000000000000000000000000000000000000000000000000000",
            "0x000000000000000000000000ba0ab3161197439c073e1cc6d5197b138f1c2148",
            "0x0000000000000000000000000000000000000000000000000000000000000006"
          ],
          "data": "0x",
          "blockHash": "0x0b898c46ec64972ba1e103f7e1966b81f4caf18366d521a14dcf2a1c831453b6",
          "blockNumber": "0xf7b095",
          "transactionHash": "0xdaa753f00e417edcb96e0eca62faaf59119e606ef40d7d5d439d46d1897b1935",
          "transactionIndex": "0x32",
          "logIndex": "0x2da",
          "removed": false
        }
      ],
      "logsBloom": "0x00000000080000000000000000000000000000000000040000000000000000000000000000000000000000000000001000000000000400000000000000000000000000000000000000000008000000000000000000000000000000000000000000000000020000000000000000000800000000000000000000000010000000000000000400000000000000000000000080000000000000000000000000000000000000000000000000000000000000000000000000000000000000080000000000000002000000000000000000000000000000000000000000000000020020000000000000000000000000000000000000000000000000000000000000000000",
      "type": "0x2",
      "transactionHash": "0xdaa753f00e417edcb96e0eca62faaf59119e606ef40d7d5d439d46d1897b1935",
      "transactionIndex": "0x32",
      "blockHash": "0x0b898c46ec64972ba1e103f7e1966b81f4caf18366d521a14dcf2a1c831453b6",
      "blockNumber": "0xf7b095",
      "gasUsed": "0x13ca1",
      "effectiveGasPrice": "0x1de3ba1",
      "from": "0x027a5ce58fc466d0e3a9d1990404354029398541",
      "to": "0x99d3a4bd3db92d061d7704167a2c6ccd683619d3",
      "contractAddress": null,
      "l1Fee": "0x4b98b9450",
      "l1GasPrice": "0x1cd976b76",
      "l1GasUsed": "0x94c"
    },
    {
      "status": "0x1",
      "cumulativeGasUsed": "0x152cd9f",
      "logs": [
        {
          "address": "0x99d3a4bd3db92d061d7704167a2c6ccd683619d3",
          "topics": [
            "0xddf252ad1be2c89b69c2b068fc378daa952ba7f163c4a11628f55a4df523b3ef",
            "0x0000000000000000000000000000000000000000000000000000000000000000",
            "0x0000000000000000000000005e021ba73a2014e089bcbfc15cfe867606c6274e",
            "0x0000000000000000000000000000000000000000000000000000000000000007"
          ],
          "data": "0x",
          "blockHash": "0x0b898c46ec64972ba1e103f7e1966b81f4caf18366d521a14dcf2a1c831453b6",
          "blockNumber": "0xf7b095",
          "transactionHash": "0xbe98980a36dded8eee5244aa939f772052925b1e2683c1846be129979ed5ce1b",
          "transactionIndex": "0x33",
          "logIndex": "0x2db",
          "removed": false
        }
      ],
      "logsBloom": "0x00000000000000000000000000000000000000000000040000000000000000000000000000000000000000000000001000001000000000000000000000000000000020000000000000000008000000000000000000000000000000000000000200000000020000000000008000000800000000000000000000000010000000000000000000000000000000000400000000000000000000000000000000000000000000000000000000000000000000000000000000000000000000000000000000000002000000000000000000000000000000000000000000000100000020000000000000000000000000000000000000000000000000000000000000000000",
      "type": "0x2",
      "transactionHash": "0xbe98980a36dded8eee5244aa939f772052925b1e2683c1846be129979ed5ce1b",
      "transactionIndex": "0x33",
      "blockHash": "0x0b898c46ec64972ba1e103f7e1966b81f4caf18366d521a14dcf2a1c831453b6",
      "blockNumber": "0xf7b095",
      "gasUsed": "0x13ca1",
      "effectiveGasPrice": "0x1de3ba1",
      "from": "0x027a5ce58fc466d0e3a9d1990404354029398541",
      "to": "0x99d3a4bd3db92d061d7704167a2c6ccd683619d3",
      "contractAddress": null,
      "l1Fee": "0x4b98b9450",
      "l1GasPrice": "0x1cd976b76",
      "l1GasUsed": "0x94c"
    },
    {
      "status": "0x1",
      "cumulativeGasUsed": "0x1540a40",
      "logs": [
        {
          "address": "0x99d3a4bd3db92d061d7704167a2c6ccd683619d3",
          "topics": [
            "0xddf252ad1be2c89b69c2b068fc378daa952ba7f163c4a11628f55a4df523b3ef",
            "0x0000000000000000000000000000000000000000000000000000000000000000",
            "0x000000000000000000000000827b7df8e7a44e923cce6cd6477fc8988747362a",
            "0x0000000000000000000000000000000000000000000000000000000000000008"
          ],
          "data": "0x",
          "blockHash": "0x0b898c46ec64972ba1e103f7e1966b81f4caf18366d521a14dcf2a1c831453b6",
          "blockNumber": "0xf7b095",
          "transactionHash": "0x096846f1404f3ca2e7f0b5bee6a10dc4ded77a6e6ed2f03f0bf1ab6a54001e29",
          "transactionIndex": "0x34",
          "logIndex": "0x2dc",
          "removed": false
        }
      ],
      "logsBloom": "0x00000000000000000000000000000000000000000000040000000000000000000000000000400000000000000000001000000000000080000000000000000000000000000000000000000008000000400000000000000000000000000000000000000000020000000000000000000800000000000000000000000010000000000080000000000000000000000000000000000000000000000000000000000000000000000000000000000000000000000000000000000000000000000000000040000002000000000000000000000000000000000000000004000000000020000000000000000000000000000000000000000000000000000000000000000000",
      "type": "0x2",
      "transactionHash": "0x096846f1404f3ca2e7f0b5bee6a10dc4ded77a6e6ed2f03f0bf1ab6a54001e29",
      "transactionIndex": "0x34",
      "blockHash": "0x0b898c46ec64972ba1e103f7e1966b81f4caf18366d521a14dcf2a1c831453b6",
      "blockNumber": "0xf7b095",
      "gasUsed": "0x13ca1",
      "effectiveGasPrice": "0x1de3ba1",
      "from": "0x027a5ce58fc466d0e3a9d1990404354029398541",
      "to": "0x99d3a4bd3db92d061d7704167a2c6ccd683619d3",
      "contractAddress": null,
      "l1Fee": "0x4b98b9450",
      "l1GasPrice": "0x1cd976b76",
      "l1GasUsed": "0x94c"
    },
    {
      "status": "0x1",
      "cumulativeGasUsed": "0x15546d5",
      "logs": [
        {
          "address": "0x99d3a4bd3db92d061d7704167a2c6ccd683619d3",
          "topics": [
            "0xddf252ad1be2c89b69c2b068fc378daa952ba7f163c4a11628f55a4df523b3ef",
            "0x0000000000000000000000000000000000000000000000000000000000000000",
            "0x0000000000000000000000005d0531a503b7e1bc101a53d1532700f9aad315c3",
            "0x0000000000000000000000000000000000000000000000000000000000000009"
          ],
          "data": "0x",
          "blockHash": "0x0b898c46ec64972ba1e103f7e1966b81f4caf18366d521a14dcf2a1c831453b6",
          "blockNumber": "0xf7b095",
          "transactionHash": "0x949b9e0d35bd7d3dd26d3a23ad36ce4251fb0a17a5533c26ec0a52873a3f1029",
          "transactionIndex": "0x35",
          "logIndex": "0x2dd",
          "removed": false
        }
      ],
      "logsBloom": "0x00000000000000000000000000000000000000000000040000000000000000000000000000000000000000000000001000000000000000000000000000200000400000000000000000000009000000000000000000000000000000000000000000000000020000000000000000000800000000000000000000000010000000000000000000000000000000000000000000001000000000000000000000000000000000000000000000000000000000000000000000000000000000000000000000000002000080000000000000000000000000000000000000000000000020000000000000000000000000000000000000000000000000000000000000800000",
      "type": "0x2",
      "transactionHash": "0x949b9e0d35bd7d3dd26d3a23ad36ce4251fb0a17a5533c26ec0a52873a3f1029",
      "transactionIndex": "0x35",
      "blockHash": "0x0b898c46ec64972ba1e103f7e1966b81f4caf18366d521a14dcf2a1c831453b6",
      "blockNumber": "0xf7b095",
      "gasUsed": "0x13c95",
      "effectiveGasPrice": "0x1de3ba1",
      "from": "0x027a5ce58fc466d0e3a9d1990404354029398541",
      "to": "0x99d3a4bd3db92d061d7704167a2c6ccd683619d3",
      "contractAddress": null,
      "l1Fee": "0x4b37259ea",
      "l1GasPrice": "0x1cd976b76",
      "l1GasUsed": "0x940"
    },
    {
      "status": "0x1",
      "cumulativeGasUsed": "0x1568376",
      "logs": [
        {
          "address": "0x99d3a4bd3db92d061d7704167a2c6ccd683619d3",
          "topics": [
            "0xddf252ad1be2c89b69c2b068fc378daa952ba7f163c4a11628f55a4df523b3ef",
            "0x0000000000000000000000000000000000000000000000000000000000000000",
            "0x0000000000000000000000002ba43f62f3dc12bd9f5771c522889b507931fcf8",
            "0x000000000000000000000000000000000000000000000000000000000000000a"
          ],
          "data": "0x",
          "blockHash": "0x0b898c46ec64972ba1e103f7e1966b81f4caf18366d521a14dcf2a1c831453b6",
          "blockNumber": "0xf7b095",
          "transactionHash": "0x7b4aa4fb36db42a3c4cbacc5d446eb890e9ff0d48897810fd5265ad66251ea47",
          "transactionIndex": "0x36",
          "logIndex": "0x2de",
          "removed": false
        }
      ],
      "logsBloom": "0x00000000000000000000000000000000000000000000040000000000000000000000000000000000000000000000001000000000040000000020000000000000000000000000000000000008000000000000000000000000000000000000000000000000020000000000000000000800000000000000000000000010000000000000000000000000010000000100000000000000000000000000000000000000000000000000000000000000000000000000000000000000000000000000010000000002000000000000000000000000000000000000000000000000000020000100000000000000000000000000000000000000000000000000000000000000",
      "type": "0x2",
      "transactionHash": "0x7b4aa4fb36db42a3c4cbacc5d446eb890e9ff0d48897810fd5265ad66251ea47",
      "transactionIndex": "0x36",
      "blockHash": "0x0b898c46ec64972ba1e103f7e1966b81f4caf18366d521a14dcf2a1c831453b6",
      "blockNumber": "0xf7b095",
      "gasUsed": "0x13ca1",
      "effectiveGasPrice": "0x1de3ba1",
      "from": "0x027a5ce58fc466d0e3a9d1990404354029398541",
      "to": "0x99d3a4bd3db92d061d7704167a2c6ccd683619d3",
      "contractAddress": null,
      "l1Fee": "0x4b98b9450",
      "l1GasPrice": "0x1cd976b76",
      "l1GasUsed": "0x94c"
    },
    {
      "status": "0x1",
      "cumulativeGasUsed": "0x157c017",
      "logs": [
        {
          "address": "0x99d3a4bd3db92d061d7704167a2c6ccd683619d3",
          "topics": [
            "0xddf252ad1be2c89b69c2b068fc378daa952ba7f163c4a11628f55a4df523b3ef",
            "0x0000000000000000000000000000000000000000000000000000000000000000",
            "0x00000000000000000000000016e34dbbb3bc50cd38272e67f1561e9fa4754e8a",
            "0x000000000000000000000000000000000000000000000000000000000000000b"
          ],
          "data": "0x",
          "blockHash": "0x0b898c46ec64972ba1e103f7e1966b81f4caf18366d521a14dcf2a1c831453b6",
          "blockNumber": "0xf7b095",
          "transactionHash": "0x6a7de136511373907417733650c875fc5490a1972d551ba1c99add0a745584c5",
          "transactionIndex": "0x37",
          "logIndex": "0x2df",
          "removed": false
        }
      ],
      "logsBloom": "0x00000000000000000000004000000000000000000000040000000000000000000000000000000000000000000000001000000000000000000000000000000000000000000000000000000008000000002000000000000000000000000040000000000000020000000000000000000800000000000000000000000010000000000000000000000000000000000000000000000000000000000000000000000000000000000000000000000000000000000000000000000000000000000000000000000002000000000000000000000000002000000000000000000000000020000000000000000000000000000000000800000000000000040000000000000000",
      "type": "0x2",
      "transactionHash": "0x6a7de136511373907417733650c875fc5490a1972d551ba1c99add0a745584c5",
      "transactionIndex": "0x37",
      "blockHash": "0x0b898c46ec64972ba1e103f7e1966b81f4caf18366d521a14dcf2a1c831453b6",
      "blockNumber": "0xf7b095",
      "gasUsed": "0x13ca1",
      "effectiveGasPrice": "0x1de3ba1",
      "from": "0x027a5ce58fc466d0e3a9d1990404354029398541",
      "to": "0x99d3a4bd3db92d061d7704167a2c6ccd683619d3",
      "contractAddress": null,
      "l1Fee": "0x4b98b9450",
      "l1GasPrice": "0x1cd976b76",
      "l1GasUsed": "0x94c"
    },
    {
      "status": "0x1",
      "cumulativeGasUsed": "0x86b008",
      "logs": [
        {
          "address": "0x99d3a4bd3db92d061d7704167a2c6ccd683619d3",
          "topics": [
            "0xddf252ad1be2c89b69c2b068fc378daa952ba7f163c4a11628f55a4df523b3ef",
            "0x0000000000000000000000000000000000000000000000000000000000000000",
            "0x000000000000000000000000fc51a4bcf7b8ad1e22fd34fbf083a902c5db70e5",
            "0x000000000000000000000000000000000000000000000000000000000000000c"
          ],
          "data": "0x",
          "blockHash": "0xce2c81243ba63b20e466af947dc8a518b7edf42f132e55ad8458605e1212e2a8",
          "blockNumber": "0xf7b097",
          "transactionHash": "0x47d54b5d127645509f491bc25e94dae766011aa3bc309e414689dd142307ec24",
          "transactionIndex": "0x2e",
          "logIndex": "0xaa",
          "removed": false
        }
      ],
      "logsBloom": "0x00000000000000000000000000000000000002000000040000000000000000000000000000000200000000000000001000000000000000000000000000000000000000000000000000000008000000000000000000000000000000000000000000000000020000000000000000000800000000000000000000000010040000000000000000000000000000000000000000000000000000000000000000000000000000000400000000000000000000000000000000000000000000000000000000000002000000000000000000000000000000000000000000000000000020200000000000000000400000000000000000000000000000000000000000000000",
      "type": "0x2",
      "transactionHash": "0x47d54b5d127645509f491bc25e94dae766011aa3bc309e414689dd142307ec24",
      "transactionIndex": "0x2e",
      "blockHash": "0xce2c81243ba63b20e466af947dc8a518b7edf42f132e55ad8458605e1212e2a8",
      "blockNumber": "0xf7b097",
      "gasUsed": "0x13ca1",
      "effectiveGasPrice": "0x1de85ee",
      "from": "0x027a5ce58fc466d0e3a9d1990404354029398541",
      "to": "0x99d3a4bd3db92d061d7704167a2c6ccd683619d3",
      "contractAddress": null,
      "l1Fee": "0x4b98b9450",
      "l1GasPrice": "0x1cd976b76",
      "l1GasUsed": "0x94c"
    },
    {
      "status": "0x1",
      "cumulativeGasUsed": "0x87eca9",
      "logs": [
        {
          "address": "0x99d3a4bd3db92d061d7704167a2c6ccd683619d3",
          "topics": [
            "0xddf252ad1be2c89b69c2b068fc378daa952ba7f163c4a11628f55a4df523b3ef",
            "0x0000000000000000000000000000000000000000000000000000000000000000",
            "0x0000000000000000000000008b2a8467d0b1ac6518fa13fe9ff0479963e88997",
            "0x000000000000000000000000000000000000000000000000000000000000000d"
          ],
          "data": "0x",
          "blockHash": "0xce2c81243ba63b20e466af947dc8a518b7edf42f132e55ad8458605e1212e2a8",
          "blockNumber": "0xf7b097",
          "transactionHash": "0xee5d490eb1087ed9e0611816fb40572740a30b328bf22aa8cc914344e73e5a06",
          "transactionIndex": "0x2f",
          "logIndex": "0xab",
          "removed": false
        }
      ],
      "logsBloom": "0x00000000000000000040000000000000000000000000040000000000000000000000000000000000000000000000001000000000000000000000000000000000000000000000000000000008000000000002000000000000000000000000000000000000020000000000000000000800000000000000000000000010000000000000000000000000000000000000000000000000000000000000000000040000000000000000000040000000000000000000000000000000000000000000000000000002000000000000000000000000000000000000000000000000000020020000000000000000000000000000000000200000000000000000000000000000",
      "type": "0x2",
      "transactionHash": "0xee5d490eb1087ed9e0611816fb40572740a30b328bf22aa8cc914344e73e5a06",
      "transactionIndex": "0x2f",
      "blockHash": "0xce2c81243ba63b20e466af947dc8a518b7edf42f132e55ad8458605e1212e2a8",
      "blockNumber": "0xf7b097",
      "gasUsed": "0x13ca1",
      "effectiveGasPrice": "0x1de85ee",
      "from": "0x027a5ce58fc466d0e3a9d1990404354029398541",
      "to": "0x99d3a4bd3db92d061d7704167a2c6ccd683619d3",
      "contractAddress": null,
      "l1Fee": "0x4b37259ea",
      "l1GasPrice": "0x1cd976b76",
      "l1GasUsed": "0x940"
    },
    {
      "status": "0x1",
      "cumulativeGasUsed": "0x89294a",
      "logs": [
        {
          "address": "0x99d3a4bd3db92d061d7704167a2c6ccd683619d3",
          "topics": [
            "0xddf252ad1be2c89b69c2b068fc378daa952ba7f163c4a11628f55a4df523b3ef",
            "0x0000000000000000000000000000000000000000000000000000000000000000",
            "0x00000000000000000000000059c6c112547b9e9f884cd89ab2d0194c0cee5bcf",
            "0x000000000000000000000000000000000000000000000000000000000000000e"
          ],
          "data": "0x",
          "blockHash": "0xce2c81243ba63b20e466af947dc8a518b7edf42f132e55ad8458605e1212e2a8",
          "blockNumber": "0xf7b097",
          "transactionHash": "0x46ae6342bb981526ebd1da93e45025ecd655b255db057cc1ce65718619f3a1e2",
          "transactionIndex": "0x30",
          "logIndex": "0xac",
          "removed": false
        }
      ],
      "logsBloom": "0x00000000000000000000000000000000000000000000040000000000000000000000000000000000000000000000001000000000000000000000000000000000000000000000000800000008000000000000000000000000000000000000000000000000020000000000000000000800000000000000000000000010000000000000000000000000000000000000000008000000000000000000000000000000000000000000000000000000000000000000200000000020000000000000000000000002000000000000000000000000000000000000000000000000000020200000000004000000000000000000000000000000000000000000000000000000",
      "type": "0x2",
      "transactionHash": "0x46ae6342bb981526ebd1da93e45025ecd655b255db057cc1ce65718619f3a1e2",
      "transactionIndex": "0x30",
      "blockHash": "0xce2c81243ba63b20e466af947dc8a518b7edf42f132e55ad8458605e1212e2a8",
      "blockNumber": "0xf7b097",
      "gasUsed": "0x13ca1",
      "effectiveGasPrice": "0x1de85ee",
      "from": "0x027a5ce58fc466d0e3a9d1990404354029398541",
      "to": "0x99d3a4bd3db92d061d7704167a2c6ccd683619d3",
      "contractAddress": null,
      "l1Fee": "0x4b98b9450",
      "l1GasPrice": "0x1cd976b76",
      "l1GasUsed": "0x94c"
    },
    {
      "status": "0x1",
      "cumulativeGasUsed": "0x8b2f21",
      "logs": [
        {
          "address": "0x99d3a4bd3db92d061d7704167a2c6ccd683619d3",
          "topics": [
            "0xddf252ad1be2c89b69c2b068fc378daa952ba7f163c4a11628f55a4df523b3ef",
            "0x0000000000000000000000000000000000000000000000000000000000000000",
            "0x000000000000000000000000636d26031441d889476ce82e60d94500d2496461",
            "0x000000000000000000000000000000000000000000000000000000000000000f"
          ],
          "data": "0x",
          "blockHash": "0xce2c81243ba63b20e466af947dc8a518b7edf42f132e55ad8458605e1212e2a8",
          "blockNumber": "0xf7b097",
          "transactionHash": "0x3b7eb4c5e98d4c3daf66ac59dcf0d80950714e792de73d4ef6b3fa8dc7bfaa78",
          "transactionIndex": "0x32",
          "logIndex": "0xae",
          "removed": false
        }
      ],
      "logsBloom": "0x00000000000000000000000000000000000000000000040000000000000000000000000000000000000000000000001000000000000000000000000000000000000000000000000000000008000000000000000000000000000000000002000000000000020000000000000000000800000000000000000000000010000000000000000000000800000000000000000000000000000000000000000000000000000000000000020000000400000000000000000000000000000000000000000000000002000000000000000000000000000000000000000000000000000020000000000200000000000000000000000010000000000000000000000000000000",
      "type": "0x2",
      "transactionHash": "0x3b7eb4c5e98d4c3daf66ac59dcf0d80950714e792de73d4ef6b3fa8dc7bfaa78",
      "transactionIndex": "0x32",
      "blockHash": "0xce2c81243ba63b20e466af947dc8a518b7edf42f132e55ad8458605e1212e2a8",
      "blockNumber": "0xf7b097",
      "gasUsed": "0x13c95",
      "effectiveGasPrice": "0x1de85ee",
      "from": "0x027a5ce58fc466d0e3a9d1990404354029398541",
      "to": "0x99d3a4bd3db92d061d7704167a2c6ccd683619d3",
      "contractAddress": null,
      "l1Fee": "0x4b37259ea",
      "l1GasPrice": "0x1cd976b76",
      "l1GasUsed": "0x940"
    },
    {
      "status": "0x1",
      "cumulativeGasUsed": "0x8c6bc2",
      "logs": [
        {
          "address": "0x99d3a4bd3db92d061d7704167a2c6ccd683619d3",
          "topics": [
            "0xddf252ad1be2c89b69c2b068fc378daa952ba7f163c4a11628f55a4df523b3ef",
            "0x0000000000000000000000000000000000000000000000000000000000000000",
            "0x0000000000000000000000003ac53bbab3a2b91fe1cc6ada38d4d11a02a83f89",
            "0x0000000000000000000000000000000000000000000000000000000000000010"
          ],
          "data": "0x",
          "blockHash": "0xce2c81243ba63b20e466af947dc8a518b7edf42f132e55ad8458605e1212e2a8",
          "blockNumber": "0xf7b097",
          "transactionHash": "0xf05b6ce112a357c7e9b1cefac81a808c126af6271cbe30dc7552e14e02df5370",
          "transactionIndex": "0x33",
          "logIndex": "0xaf",
          "removed": false
        }
      ],
      "logsBloom": "0x00000000100000000000000000000000000000000000040000000000000000000000000000000000000000000040001000000000000000000000000000000000000000000000000000000008000000000000000000000000000000000000000000000000020000000000000000008800000000000000000000000010040000008000000000000000000000000000000000000100000000000000000000000000000000000000000000000000000000000000000000000000000000000000000000000002000000000000000000000000000000000000000000000000000020000000000000000000000000000000000000000000000000000000000000000000",
      "type": "0x2",
      "transactionHash": "0xf05b6ce112a357c7e9b1cefac81a808c126af6271cbe30dc7552e14e02df5370",
      "transactionIndex": "0x33",
      "blockHash": "0xce2c81243ba63b20e466af947dc8a518b7edf42f132e55ad8458605e1212e2a8",
      "blockNumber": "0xf7b097",
      "gasUsed": "0x13ca1",
      "effectiveGasPrice": "0x1de85ee",
      "from": "0x027a5ce58fc466d0e3a9d1990404354029398541",
      "to": "0x99d3a4bd3db92d061d7704167a2c6ccd683619d3",
      "contractAddress": null,
      "l1Fee": "0x4b98b9450",
      "l1GasPrice": "0x1cd976b76",
      "l1GasUsed": "0x94c"
    },
    {
      "status": "0x1",
      "cumulativeGasUsed": "0x8da863",
      "logs": [
        {
          "address": "0x99d3a4bd3db92d061d7704167a2c6ccd683619d3",
          "topics": [
            "0xddf252ad1be2c89b69c2b068fc378daa952ba7f163c4a11628f55a4df523b3ef",
            "0x0000000000000000000000000000000000000000000000000000000000000000",
            "0x000000000000000000000000874683b39accd62b952d6f13e10e41ce8306af7c",
            "0x0000000000000000000000000000000000000000000000000000000000000011"
          ],
          "data": "0x",
          "blockHash": "0xce2c81243ba63b20e466af947dc8a518b7edf42f132e55ad8458605e1212e2a8",
          "blockNumber": "0xf7b097",
          "transactionHash": "0xdd9549558d5f91a9983ab613c23ce0c7f9b09a27dd9d73105f28f35d4b8755b4",
          "transactionIndex": "0x34",
          "logIndex": "0xb0",
          "removed": false
        }
      ],
      "logsBloom": "0x00000000000000000000000000000000000000000000040000000000000000000000000000000000001000000000001000000000000000010000000000000000000000000000000000000008000800000000000000000000000000000000000000000000020000000000000000000800000000004000000000000010000000000000000000000000000000000000000000000000000000000000000000000000000000000000000000000000000000000000000000000000000000000400000000001002000000000000000000000000000000000000000000000000000020000000000000000000000000000000000000000000000000000000000000000000",
      "type": "0x2",
      "transactionHash": "0xdd9549558d5f91a9983ab613c23ce0c7f9b09a27dd9d73105f28f35d4b8755b4",
      "transactionIndex": "0x34",
      "blockHash": "0xce2c81243ba63b20e466af947dc8a518b7edf42f132e55ad8458605e1212e2a8",
      "blockNumber": "0xf7b097",
      "gasUsed": "0x13ca1",
      "effectiveGasPrice": "0x1de85ee",
      "from": "0x027a5ce58fc466d0e3a9d1990404354029398541",
      "to": "0x99d3a4bd3db92d061d7704167a2c6ccd683619d3",
      "contractAddress": null,
      "l1Fee": "0x4b98b9450",
      "l1GasPrice": "0x1cd976b76",
      "l1GasUsed": "0x94c"
    },
    {
      "status": "0x1",
      "cumulativeGasUsed": "0x8ee504",
      "logs": [
        {
          "address": "0x99d3a4bd3db92d061d7704167a2c6ccd683619d3",
          "topics": [
            "0xddf252ad1be2c89b69c2b068fc378daa952ba7f163c4a11628f55a4df523b3ef",
            "0x0000000000000000000000000000000000000000000000000000000000000000",
            "0x000000000000000000000000791a304547bbe77c3f780e0375762dce478a1c05",
            "0x0000000000000000000000000000000000000000000000000000000000000012"
          ],
          "data": "0x",
          "blockHash": "0xce2c81243ba63b20e466af947dc8a518b7edf42f132e55ad8458605e1212e2a8",
          "blockNumber": "0xf7b097",
          "transactionHash": "0x86721e21ee7eb9cf596c5c8a1b6fc3ca7551c96d213099ef769e43c88a7f2793",
          "transactionIndex": "0x35",
          "logIndex": "0xb1",
          "removed": false
        }
      ],
      "logsBloom": "0x00000000000000000000000000400000000000000000040000000000000000000000000000000000000000000000001000000000000000000000000000000000000000000000000000000008000000000000000000000000020000000000000000000000020000000000000000000800000000000000000000000010000000000000000000000000000000000000040000000000000000000000000000000000000000000000000000000000000000000000000000000040000000000000000000000002000000000400000000000000000000000000000000000000000020000000000000000000000000000000000000000000000000000000000080000000",
      "type": "0x2",
      "transactionHash": "0x86721e21ee7eb9cf596c5c8a1b6fc3ca7551c96d213099ef769e43c88a7f2793",
      "transactionIndex": "0x35",
      "blockHash": "0xce2c81243ba63b20e466af947dc8a518b7edf42f132e55ad8458605e1212e2a8",
      "blockNumber": "0xf7b097",
      "gasUsed": "0x13ca1",
      "effectiveGasPrice": "0x1de85ee",
      "from": "0x027a5ce58fc466d0e3a9d1990404354029398541",
      "to": "0x99d3a4bd3db92d061d7704167a2c6ccd683619d3",
      "contractAddress": null,
      "l1Fee": "0x4b98b9450",
      "l1GasPrice": "0x1cd976b76",
      "l1GasUsed": "0x94c"
    },
    {
      "status": "0x1",
      "cumulativeGasUsed": "0x9021a5",
      "logs": [
        {
          "address": "0x99d3a4bd3db92d061d7704167a2c6ccd683619d3",
          "topics": [
            "0xddf252ad1be2c89b69c2b068fc378daa952ba7f163c4a11628f55a4df523b3ef",
            "0x0000000000000000000000000000000000000000000000000000000000000000",
            "0x0000000000000000000000007adff8fde84f0288f11c8d05f168d2795239b437",
            "0x0000000000000000000000000000000000000000000000000000000000000013"
          ],
          "data": "0x",
          "blockHash": "0xce2c81243ba63b20e466af947dc8a518b7edf42f132e55ad8458605e1212e2a8",
          "blockNumber": "0xf7b097",
          "transactionHash": "0xcb20039d76491de174bccdbb0696c8d699b026068a6dfdc21ba7756343e44a63",
          "transactionIndex": "0x36",
          "logIndex": "0xb2",
          "removed": false
        }
      ],
      "logsBloom": "0x20000000000000000000000000800000000000000000040000000000000800000000000040000000000000000000101000000000000000000000000000000000000000000000000000000008000000000800000000000000000000000000000000000000020000000000000000000800000000000000000000000010000000000000000000000000000000000000000000000000000000000000000000000000000000000000000000000000000000000000000000000000000000000000000000000002000000000000000000000000000000000000000000000000000020000000000000000000000000000000000000000000000000000000000000000000",
      "type": "0x2",
      "transactionHash": "0xcb20039d76491de174bccdbb0696c8d699b026068a6dfdc21ba7756343e44a63",
      "transactionIndex": "0x36",
      "blockHash": "0xce2c81243ba63b20e466af947dc8a518b7edf42f132e55ad8458605e1212e2a8",
      "blockNumber": "0xf7b097",
      "gasUsed": "0x13ca1",
      "effectiveGasPrice": "0x1de85ee",
      "from": "0x027a5ce58fc466d0e3a9d1990404354029398541",
      "to": "0x99d3a4bd3db92d061d7704167a2c6ccd683619d3",
      "contractAddress": null,
      "l1Fee": "0x4b98b9450",
      "l1GasPrice": "0x1cd976b76",
      "l1GasUsed": "0x94c"
    },
    {
      "status": "0x1",
      "cumulativeGasUsed": "0x915e46",
      "logs": [
        {
          "address": "0x99d3a4bd3db92d061d7704167a2c6ccd683619d3",
          "topics": [
            "0xddf252ad1be2c89b69c2b068fc378daa952ba7f163c4a11628f55a4df523b3ef",
            "0x0000000000000000000000000000000000000000000000000000000000000000",
            "0x0000000000000000000000006c1298e088d1eee8e2df160d3ce7ed4b67b12a3d",
            "0x0000000000000000000000000000000000000000000000000000000000000014"
          ],
          "data": "0x",
          "blockHash": "0xce2c81243ba63b20e466af947dc8a518b7edf42f132e55ad8458605e1212e2a8",
          "blockNumber": "0xf7b097",
          "transactionHash": "0xd74bceb95b115ca37d23039e0522c93a1c41627c84a37e8b9891607cec228b31",
          "transactionIndex": "0x37",
          "logIndex": "0xb3",
          "removed": false
        }
      ],
      "logsBloom": "0x00000000000000000000000000000000000000000000040000000000000000000000000000000000000000000000001000002000000000000000000000000000000000000000000000000008000000000000000000000000000000000000000000000000020000000000000000000800000000000000000000000010000000000000000000000000000010010020000000000000000400000000000000000000000000000000000020000000000000000000000000000000000000000000000000000002000000000000000000000000000000000000000000000000000020000000000000000000000000000000000000000000000000000000000000000000",
      "type": "0x2",
      "transactionHash": "0xd74bceb95b115ca37d23039e0522c93a1c41627c84a37e8b9891607cec228b31",
      "transactionIndex": "0x37",
      "blockHash": "0xce2c81243ba63b20e466af947dc8a518b7edf42f132e55ad8458605e1212e2a8",
      "blockNumber": "0xf7b097",
      "gasUsed": "0x13ca1",
      "effectiveGasPrice": "0x1de85ee",
      "from": "0x027a5ce58fc466d0e3a9d1990404354029398541",
      "to": "0x99d3a4bd3db92d061d7704167a2c6ccd683619d3",
      "contractAddress": null,
      "l1Fee": "0x4b98b9450",
      "l1GasPrice": "0x1cd976b76",
      "l1GasUsed": "0x94c"
    },
    {
      "status": "0x1",
      "cumulativeGasUsed": "0x93edbf",
      "logs": [
        {
          "address": "0x99d3a4bd3db92d061d7704167a2c6ccd683619d3",
          "topics": [
            "0xddf252ad1be2c89b69c2b068fc378daa952ba7f163c4a11628f55a4df523b3ef",
            "0x0000000000000000000000000000000000000000000000000000000000000000",
            "0x000000000000000000000000ce1320ca406c8c4a32669b1fad04c42badd0df04",
            "0x0000000000000000000000000000000000000000000000000000000000000015"
          ],
          "data": "0x",
          "blockHash": "0xce2c81243ba63b20e466af947dc8a518b7edf42f132e55ad8458605e1212e2a8",
          "blockNumber": "0xf7b097",
          "transactionHash": "0xa929292d33d05d573a670033d888f56a21909faf5ada9e2f488b8756d69004b6",
          "transactionIndex": "0x39",
          "logIndex": "0xb6",
          "removed": false
        }
      ],
      "logsBloom": "0x00000000000000000000000000000000000000000000040000000000000000000000000000000000000000000000001000000000000000000000000000000000001000000000000000000008000000000000000040000000000000000000000000000000020000000000000000000800000000000040000000000010000000000000000000000000000000000000000000000000000000000000000000000000000000400000000000000000010000000000000000000000000000000000000000000002000000000000000000000000000000000000000000000000000020002000000000000000000000000000000000000000000000000000000000000000",
      "type": "0x2",
      "transactionHash": "0xa929292d33d05d573a670033d888f56a21909faf5ada9e2f488b8756d69004b6",
      "transactionIndex": "0x39",
      "blockHash": "0xce2c81243ba63b20e466af947dc8a518b7edf42f132e55ad8458605e1212e2a8",
      "blockNumber": "0xf7b097",
      "gasUsed": "0x13ca1",
      "effectiveGasPrice": "0x1de85ee",
      "from": "0x027a5ce58fc466d0e3a9d1990404354029398541",
      "to": "0x99d3a4bd3db92d061d7704167a2c6ccd683619d3",
      "contractAddress": null,
      "l1Fee": "0x4b98b9450",
      "l1GasPrice": "0x1cd976b76",
      "l1GasUsed": "0x94c"
    },
    {
      "status": "0x1",
      "cumulativeGasUsed": "0x952a60",
      "logs": [
        {
          "address": "0x99d3a4bd3db92d061d7704167a2c6ccd683619d3",
          "topics": [
            "0xddf252ad1be2c89b69c2b068fc378daa952ba7f163c4a11628f55a4df523b3ef",
            "0x0000000000000000000000000000000000000000000000000000000000000000",
            "0x000000000000000000000000678a71a480fc51e174a475865d61f7c936f87d14",
            "0x0000000000000000000000000000000000000000000000000000000000000016"
          ],
          "data": "0x",
          "blockHash": "0xce2c81243ba63b20e466af947dc8a518b7edf42f132e55ad8458605e1212e2a8",
          "blockNumber": "0xf7b097",
          "transactionHash": "0xcf9aec5d87da9fe4fe2d86c11fd8a11d6cc5caac1353115240c7161d011e2ae0",
          "transactionIndex": "0x3a",
          "logIndex": "0xb7",
          "removed": false
        }
      ],
      "logsBloom": "0x00000000000000000000000100000000000000000000040000000000000000000000000000000000000000000000001000000000000000000000000000000000000000000000000800000008000000000000000000000000000000000000000000000000020000000000000000000800200000000000000000000010000000000000000000000000000000000000000000000000000000000000000000000000000000000000000000000000000000000000000000000000000000000000000020000002000000000000000000000000000000000000000000000000000020000400000000000000000000000000000000000000000000000008000000000000",
      "type": "0x2",
      "transactionHash": "0xcf9aec5d87da9fe4fe2d86c11fd8a11d6cc5caac1353115240c7161d011e2ae0",
      "transactionIndex": "0x3a",
      "blockHash": "0xce2c81243ba63b20e466af947dc8a518b7edf42f132e55ad8458605e1212e2a8",
      "blockNumber": "0xf7b097",
      "gasUsed": "0x13ca1",
      "effectiveGasPrice": "0x1de85ee",
      "from": "0x027a5ce58fc466d0e3a9d1990404354029398541",
      "to": "0x99d3a4bd3db92d061d7704167a2c6ccd683619d3",
      "contractAddress": null,
      "l1Fee": "0x4b98b9450",
      "l1GasPrice": "0x1cd976b76",
      "l1GasUsed": "0x94c"
    },
    {
      "status": "0x1",
      "cumulativeGasUsed": "0x966701",
      "logs": [
        {
          "address": "0x99d3a4bd3db92d061d7704167a2c6ccd683619d3",
          "topics": [
            "0xddf252ad1be2c89b69c2b068fc378daa952ba7f163c4a11628f55a4df523b3ef",
            "0x0000000000000000000000000000000000000000000000000000000000000000",
            "0x0000000000000000000000006af4990a3837d2a940f05401bfeefab27cd0c70f",
            "0x0000000000000000000000000000000000000000000000000000000000000017"
          ],
          "data": "0x",
          "blockHash": "0xce2c81243ba63b20e466af947dc8a518b7edf42f132e55ad8458605e1212e2a8",
          "blockNumber": "0xf7b097",
          "transactionHash": "0x604e718d7d0b97eabf5a946c393be55ea75395dbcfd551c805fe358a12d6c711",
          "transactionIndex": "0x3b",
          "logIndex": "0xb8",
          "removed": false
        }
      ],
      "logsBloom": "0x00000000000000000000000000000000000000000000040000000000000000000000000000000000000000000000001000001000000000000000001000000000000000000000000000000008000000000000000000000000000010000000000000000000020000000000000000000800000000000004000000000010000000000000000000000000000000000040000000000000000000000000000000000000000000000000000000000000000000000000000000000000000000000000000000000002000000000000000000000000000000000000000000000000000020000000000000000000000000000000000000000000000000000000000000080000",
      "type": "0x2",
      "transactionHash": "0x604e718d7d0b97eabf5a946c393be55ea75395dbcfd551c805fe358a12d6c711",
      "transactionIndex": "0x3b",
      "blockHash": "0xce2c81243ba63b20e466af947dc8a518b7edf42f132e55ad8458605e1212e2a8",
      "blockNumber": "0xf7b097",
      "gasUsed": "0x13ca1",
      "effectiveGasPrice": "0x1de85ee",
      "from": "0x027a5ce58fc466d0e3a9d1990404354029398541",
      "to": "0x99d3a4bd3db92d061d7704167a2c6ccd683619d3",
      "contractAddress": null,
      "l1Fee": "0x4b37259ea",
      "l1GasPrice": "0x1cd976b76",
      "l1GasUsed": "0x940"
    },
    {
      "status": "0x1",
      "cumulativeGasUsed": "0x97a3a2",
      "logs": [
        {
          "address": "0x99d3a4bd3db92d061d7704167a2c6ccd683619d3",
          "topics": [
            "0xddf252ad1be2c89b69c2b068fc378daa952ba7f163c4a11628f55a4df523b3ef",
            "0x0000000000000000000000000000000000000000000000000000000000000000",
            "0x0000000000000000000000001111e925c9c493c1806038ee57776fac7a5f5ede",
            "0x0000000000000000000000000000000000000000000000000000000000000018"
          ],
          "data": "0x",
          "blockHash": "0xce2c81243ba63b20e466af947dc8a518b7edf42f132e55ad8458605e1212e2a8",
          "blockNumber": "0xf7b097",
          "transactionHash": "0x7a5a9e5d5606935678ac80dccaaac3517f754f4382bf5a238e351ac1fb486795",
          "transactionIndex": "0x3c",
          "logIndex": "0xb9",
          "removed": false
        }
      ],
      "logsBloom": "0x00000000000000000000004000000000000000000000040000000000000000000000000000000000000000000000001000000000000000000800000000000000000000000000000000000008000000000040000000000000000000000000000000000000020000000000000000000800000000000000000000000090000000000000000000000000000000000000000000000000000000000000000000000000000000000000000000000000000000000000000000000000000000000000000000100002000000000000000000000000000000000000000020000000000020000000000000000000000000000000000000000000000000000000000000000000",
      "type": "0x2",
      "transactionHash": "0x7a5a9e5d5606935678ac80dccaaac3517f754f4382bf5a238e351ac1fb486795",
      "transactionIndex": "0x3c",
      "blockHash": "0xce2c81243ba63b20e466af947dc8a518b7edf42f132e55ad8458605e1212e2a8",
      "blockNumber": "0xf7b097",
      "gasUsed": "0x13ca1",
      "effectiveGasPrice": "0x1de85ee",
      "from": "0x027a5ce58fc466d0e3a9d1990404354029398541",
      "to": "0x99d3a4bd3db92d061d7704167a2c6ccd683619d3",
      "contractAddress": null,
      "l1Fee": "0x4b37259ea",
      "l1GasPrice": "0x1cd976b76",
      "l1GasUsed": "0x940"
    },
    {
      "status": "0x1",
      "cumulativeGasUsed": "0x98e043",
      "logs": [
        {
          "address": "0x99d3a4bd3db92d061d7704167a2c6ccd683619d3",
          "topics": [
            "0xddf252ad1be2c89b69c2b068fc378daa952ba7f163c4a11628f55a4df523b3ef",
            "0x0000000000000000000000000000000000000000000000000000000000000000",
            "0x00000000000000000000000010ed43c718714eb63d5aa57b78b54704e256024e",
            "0x0000000000000000000000000000000000000000000000000000000000000019"
          ],
          "data": "0x",
          "blockHash": "0xce2c81243ba63b20e466af947dc8a518b7edf42f132e55ad8458605e1212e2a8",
          "blockNumber": "0xf7b097",
          "transactionHash": "0x86b56ab12e931cb816ab62e684b7fbcc4d7c108a679ba6bccd35feaaacb53b75",
          "transactionIndex": "0x3d",
          "logIndex": "0xba",
          "removed": false
        }
      ],
      "logsBloom": "0x00000200000000000000000000000000000000000000040000000000000000000000000000000000000000000000001000000000000000800000000000000000000000000000000000000008000000000000000000000000000000000000000000000000020000000000000000000800000000000000020000000010000000000000000000000000000000000000000000200000000000000000000000000000000000000000000000000000020000000000000000000000000000000000000000000002000000000000000000000000000000000000000000000000000020000000000000000000000000000000000000000000000000000000008000000000",
      "type": "0x2",
      "transactionHash": "0x86b56ab12e931cb816ab62e684b7fbcc4d7c108a679ba6bccd35feaaacb53b75",
      "transactionIndex": "0x3d",
      "blockHash": "0xce2c81243ba63b20e466af947dc8a518b7edf42f132e55ad8458605e1212e2a8",
      "blockNumber": "0xf7b097",
      "gasUsed": "0x13ca1",
      "effectiveGasPrice": "0x1de85ee",
      "from": "0x027a5ce58fc466d0e3a9d1990404354029398541",
      "to": "0x99d3a4bd3db92d061d7704167a2c6ccd683619d3",
      "contractAddress": null,
      "l1Fee": "0x4b98b9450",
      "l1GasPrice": "0x1cd976b76",
      "l1GasUsed": "0x94c"
    },
    {
      "status": "0x1",
      "cumulativeGasUsed": "0x9a1ce4",
      "logs": [
        {
          "address": "0x99d3a4bd3db92d061d7704167a2c6ccd683619d3",
          "topics": [
            "0xddf252ad1be2c89b69c2b068fc378daa952ba7f163c4a11628f55a4df523b3ef",
            "0x0000000000000000000000000000000000000000000000000000000000000000",
            "0x0000000000000000000000000ef61626449e4c3430cfe7f06a6405d26b3b021c",
            "0x000000000000000000000000000000000000000000000000000000000000001a"
          ],
          "data": "0x",
          "blockHash": "0xce2c81243ba63b20e466af947dc8a518b7edf42f132e55ad8458605e1212e2a8",
          "blockNumber": "0xf7b097",
          "transactionHash": "0x0095efbd2e4a15fff618d42d6567b6297437ca4d300b350587c6e077d06bdd18",
          "transactionIndex": "0x3e",
          "logIndex": "0xbb",
          "removed": false
        }
      ],
      "logsBloom": "0x00000000000000000000000000000000000000000000040000000000000000000000000000000000000000000000001000000000000000000000200000000000000000080000000000000008000000001000000000000000000000001000000000000000020000000000000000000800000000000000000000000010000000000000000000000000000000000000000000000000000000000000000000000000000000000000000000000000000000000000000000000000000000000000000000000002000000000000200000000000000000000000000000000000000020000000000000000000000000000000000000000000000004000000000000000000",
      "type": "0x2",
      "transactionHash": "0x0095efbd2e4a15fff618d42d6567b6297437ca4d300b350587c6e077d06bdd18",
      "transactionIndex": "0x3e",
      "blockHash": "0xce2c81243ba63b20e466af947dc8a518b7edf42f132e55ad8458605e1212e2a8",
      "blockNumber": "0xf7b097",
      "gasUsed": "0x13ca1",
      "effectiveGasPrice": "0x1de85ee",
      "from": "0x027a5ce58fc466d0e3a9d1990404354029398541",
      "to": "0x99d3a4bd3db92d061d7704167a2c6ccd683619d3",
      "contractAddress": null,
      "l1Fee": "0x4b37259ea",
      "l1GasPrice": "0x1cd976b76",
      "l1GasUsed": "0x940"
    },
    {
      "status": "0x1",
      "cumulativeGasUsed": "0x9b5985",
      "logs": [
        {
          "address": "0x99d3a4bd3db92d061d7704167a2c6ccd683619d3",
          "topics": [
            "0xddf252ad1be2c89b69c2b068fc378daa952ba7f163c4a11628f55a4df523b3ef",
            "0x0000000000000000000000000000000000000000000000000000000000000000",
            "0x00000000000000000000000059f4eeba1c5c38756d33826de35b37b7e088ba0e",
            "0x000000000000000000000000000000000000000000000000000000000000001b"
          ],
          "data": "0x",
          "blockHash": "0xce2c81243ba63b20e466af947dc8a518b7edf42f132e55ad8458605e1212e2a8",
          "blockNumber": "0xf7b097",
          "transactionHash": "0xa75879bad93ea2a0d4938e432b2c7d04dcc8b2283a85e691578ab1124251a607",
          "transactionIndex": "0x3f",
          "logIndex": "0xbc",
          "removed": false
        }
      ],
      "logsBloom": "0x00000000000000000000000000000000000000000010040000000000000000000000000000000000000000000000001000000000000000000000000000000000000000020000000000000008000000000000000000000000000000000000000000000000020000000000000000000800000000000000000000000010000000000000000000000000000000000000000000000000000000000000000000000000000000000100000000000000000000020000000000008000000000000000000000000002000000000000000000000000000000000000000000000000000020000000800000000000000000000000000000000000000000000000000000000000",
      "type": "0x2",
      "transactionHash": "0xa75879bad93ea2a0d4938e432b2c7d04dcc8b2283a85e691578ab1124251a607",
      "transactionIndex": "0x3f",
      "blockHash": "0xce2c81243ba63b20e466af947dc8a518b7edf42f132e55ad8458605e1212e2a8",
      "blockNumber": "0xf7b097",
      "gasUsed": "0x13ca1",
      "effectiveGasPrice": "0x1de85ee",
      "from": "0x027a5ce58fc466d0e3a9d1990404354029398541",
      "to": "0x99d3a4bd3db92d061d7704167a2c6ccd683619d3",
      "contractAddress": null,
      "l1Fee": "0x4b37259ea",
      "l1GasPrice": "0x1cd976b76",
      "l1GasUsed": "0x940"
    },
    {
      "status": "0x1",
      "cumulativeGasUsed": "0x9c9626",
      "logs": [
        {
          "address": "0x99d3a4bd3db92d061d7704167a2c6ccd683619d3",
          "topics": [
            "0xddf252ad1be2c89b69c2b068fc378daa952ba7f163c4a11628f55a4df523b3ef",
            "0x0000000000000000000000000000000000000000000000000000000000000000",
            "0x00000000000000000000000002ea2f4df9022fe832bbfa7f6e3a84d59a09b624",
            "0x000000000000000000000000000000000000000000000000000000000000001c"
          ],
          "data": "0x",
          "blockHash": "0xce2c81243ba63b20e466af947dc8a518b7edf42f132e55ad8458605e1212e2a8",
          "blockNumber": "0xf7b097",
          "transactionHash": "0xa48c7905bdf625bfc207dcd36e0fa64f5093ae650d01a75a6e7e904c010dfaf9",
          "transactionIndex": "0x40",
          "logIndex": "0xbd",
          "removed": false
        }
      ],
      "logsBloom": "0x00000000000000000000000000000000000000000000040000000000000000004000000000000000000000000000001000000000000000200000000000000000000000000000000000000008000000000000000000000000000000000000000000000000020000000000000000000800000000000000000000000010000000000000000000000000000000000000020200000000000000000000000000000000000000000000000000000002000000000000000000000010000000000000000000000002000000000000000000000000000000000000000000000000000020000000000000000000000000000000000000000000000000000000000000000000",
      "type": "0x2",
      "transactionHash": "0xa48c7905bdf625bfc207dcd36e0fa64f5093ae650d01a75a6e7e904c010dfaf9",
      "transactionIndex": "0x40",
      "blockHash": "0xce2c81243ba63b20e466af947dc8a518b7edf42f132e55ad8458605e1212e2a8",
      "blockNumber": "0xf7b097",
      "gasUsed": "0x13ca1",
      "effectiveGasPrice": "0x1de85ee",
      "from": "0x027a5ce58fc466d0e3a9d1990404354029398541",
      "to": "0x99d3a4bd3db92d061d7704167a2c6ccd683619d3",
      "contractAddress": null,
      "l1Fee": "0x4b98b9450",
      "l1GasPrice": "0x1cd976b76",
      "l1GasUsed": "0x94c"
    },
    {
      "status": "0x1",
      "cumulativeGasUsed": "0x9dd2c7",
      "logs": [
        {
          "address": "0x99d3a4bd3db92d061d7704167a2c6ccd683619d3",
          "topics": [
            "0xddf252ad1be2c89b69c2b068fc378daa952ba7f163c4a11628f55a4df523b3ef",
            "0x0000000000000000000000000000000000000000000000000000000000000000",
            "0x0000000000000000000000002196b9fe1117df9324108d82dffc849492c23c14",
            "0x000000000000000000000000000000000000000000000000000000000000001d"
          ],
          "data": "0x",
          "blockHash": "0xce2c81243ba63b20e466af947dc8a518b7edf42f132e55ad8458605e1212e2a8",
          "blockNumber": "0xf7b097",
          "transactionHash": "0x175fe5a2125ee3c4d0b1c3a1c833fe7b2bea2c7ca14fa54ca8e2a4b22ba2d1fa",
          "transactionIndex": "0x41",
          "logIndex": "0xbe",
          "removed": false
        }
      ],
      "logsBloom": "0x00000080000000000000000000000000000000000000040000000000000000000000000000000000000000000000001080000000000000000000000200000000000000000000000000000008000000000000000000000010000000000000000000000000020000000000000000000800000000000000000000000010000000000000000000000000000000000000000000000000000000000000000000000000000000000000000000000000000000000000000000000000000000000000000000000002000000000000000000000000000000001000000000020000000020000000000000000000000000000000000000000000000000000000000000000000",
      "type": "0x2",
      "transactionHash": "0x175fe5a2125ee3c4d0b1c3a1c833fe7b2bea2c7ca14fa54ca8e2a4b22ba2d1fa",
      "transactionIndex": "0x41",
      "blockHash": "0xce2c81243ba63b20e466af947dc8a518b7edf42f132e55ad8458605e1212e2a8",
      "blockNumber": "0xf7b097",
      "gasUsed": "0x13ca1",
      "effectiveGasPrice": "0x1de85ee",
      "from": "0x027a5ce58fc466d0e3a9d1990404354029398541",
      "to": "0x99d3a4bd3db92d061d7704167a2c6ccd683619d3",
      "contractAddress": null,
      "l1Fee": "0x4b37259ea",
      "l1GasPrice": "0x1cd976b76",
      "l1GasUsed": "0x940"
    },
    {
      "status": "0x1",
      "cumulativeGasUsed": "0xd1d3b7",
      "logs": [
        {
          "address": "0x99d3a4bd3db92d061d7704167a2c6ccd683619d3",
          "topics": [
            "0xddf252ad1be2c89b69c2b068fc378daa952ba7f163c4a11628f55a4df523b3ef",
            "0x0000000000000000000000000000000000000000000000000000000000000000",
            "0x000000000000000000000000d437c37c8d4042bae1b4faf4e3d6cab80ce39ce6",
            "0x000000000000000000000000000000000000000000000000000000000000001e"
          ],
          "data": "0x",
          "blockHash": "0x44030d60c6e0276477a20e948f7ae602e32676c678c2928176a84126be68d929",
          "blockNumber": "0xf7b098",
          "transactionHash": "0x8bed607d61299ee1b3eceec43f240a9f7fd3e8f575d6b48ff2fac34f1395ef95",
          "transactionIndex": "0x29",
          "logIndex": "0x6c",
          "removed": false
        }
      ],
      "logsBloom": "0x00000000000000000000000000000000000000000000040000000000000000000000000000000000000000000400001000000000000000000000000000000000000000000000008000000008000000000000200000000000000000000000000000000000020000000000100000000800000000000000000000000010000000000000000000000000000000000000000000000000000000000000000100000000000000000000000000000000000000000000000000000000000000000000000000000002000000000000000000000000000000000000000000000000000020000000000000000000080000000000000000000000000000000000000000000000",
      "type": "0x2",
      "transactionHash": "0x8bed607d61299ee1b3eceec43f240a9f7fd3e8f575d6b48ff2fac34f1395ef95",
      "transactionIndex": "0x29",
      "blockHash": "0x44030d60c6e0276477a20e948f7ae602e32676c678c2928176a84126be68d929",
      "blockNumber": "0xf7b098",
      "gasUsed": "0x13ca1",
      "effectiveGasPrice": "0x1de2780",
      "from": "0x027a5ce58fc466d0e3a9d1990404354029398541",
      "to": "0x99d3a4bd3db92d061d7704167a2c6ccd683619d3",
      "contractAddress": null,
      "l1Fee": "0x4b98b9450",
      "l1GasPrice": "0x1cd976b76",
      "l1GasUsed": "0x94c"
    },
    {
      "status": "0x1",
      "cumulativeGasUsed": "0xd31058",
      "logs": [
        {
          "address": "0x99d3a4bd3db92d061d7704167a2c6ccd683619d3",
          "topics": [
            "0xddf252ad1be2c89b69c2b068fc378daa952ba7f163c4a11628f55a4df523b3ef",
            "0x0000000000000000000000000000000000000000000000000000000000000000",
            "0x0000000000000000000000003d3b623d67af0daf693a1be66739de0b66db9484",
            "0x000000000000000000000000000000000000000000000000000000000000001f"
          ],
          "data": "0x",
          "blockHash": "0x44030d60c6e0276477a20e948f7ae602e32676c678c2928176a84126be68d929",
          "blockNumber": "0xf7b098",
          "transactionHash": "0x0e4f8364ded49cb8291339c5ecb213ff4d78977c0a9a01a8780fa404ea5268bc",
          "transactionIndex": "0x2a",
          "logIndex": "0x6d",
          "removed": false
        }
      ],
      "logsBloom": "0x00000000000000000000000400000000000000000000040000000000000000000000000000000000000000000000001000000000000000000000000000000000000000000000000000000008000000000000000000000000000000000000000000000000020000000000000000000800000000000000000000000010000000000000000000000000000000000000000000000000000000000000000000000000000000000000000000000001000000000000000000000000000000000001000000000002000000000000000000000000000000000000000000000000000020000002000000000080000000000000000000000000000000000100000000000000",
      "type": "0x2",
      "transactionHash": "0x0e4f8364ded49cb8291339c5ecb213ff4d78977c0a9a01a8780fa404ea5268bc",
      "transactionIndex": "0x2a",
      "blockHash": "0x44030d60c6e0276477a20e948f7ae602e32676c678c2928176a84126be68d929",
      "blockNumber": "0xf7b098",
      "gasUsed": "0x13ca1",
      "effectiveGasPrice": "0x1de2780",
      "from": "0x027a5ce58fc466d0e3a9d1990404354029398541",
      "to": "0x99d3a4bd3db92d061d7704167a2c6ccd683619d3",
      "contractAddress": null,
      "l1Fee": "0x4b98b9450",
      "l1GasPrice": "0x1cd976b76",
      "l1GasUsed": "0x94c"
    },
    {
      "status": "0x1",
      "cumulativeGasUsed": "0xd44ced",
      "logs": [
        {
          "address": "0x99d3a4bd3db92d061d7704167a2c6ccd683619d3",
          "topics": [
            "0xddf252ad1be2c89b69c2b068fc378daa952ba7f163c4a11628f55a4df523b3ef",
            "0x0000000000000000000000000000000000000000000000000000000000000000",
            "0x0000000000000000000000000107a6972e279d56e6f35d009dd4f730cba9d9fa",
            "0x0000000000000000000000000000000000000000000000000000000000000020"
          ],
          "data": "0x",
          "blockHash": "0x44030d60c6e0276477a20e948f7ae602e32676c678c2928176a84126be68d929",
          "blockNumber": "0xf7b098",
          "transactionHash": "0x12b1c4819ea17b8ec3c66da60701d11c2370c3454cd076249cf079b303f403a2",
          "transactionIndex": "0x2b",
          "logIndex": "0x6e",
          "removed": false
        }
      ],
      "logsBloom": "0x00000000000000000000000000000000000000000000040000000000000040000004000000000000000000000000001000000000000000000000000000000000000000000000000000000408000000000000000000000000000000000000000000000000020000000000000000000800000000000000000000000010000000000000000000000000000000000000000000000000000000000000000000000000000400000000000000000000000000000000000000000000000000000000000000000002000000000000000000000000080000000000000000000000000020000000400000000000000000000000000000000000000000000000000000000000",
      "type": "0x2",
      "transactionHash": "0x12b1c4819ea17b8ec3c66da60701d11c2370c3454cd076249cf079b303f403a2",
      "transactionIndex": "0x2b",
      "blockHash": "0x44030d60c6e0276477a20e948f7ae602e32676c678c2928176a84126be68d929",
      "blockNumber": "0xf7b098",
      "gasUsed": "0x13c95",
      "effectiveGasPrice": "0x1de2780",
      "from": "0x027a5ce58fc466d0e3a9d1990404354029398541",
      "to": "0x99d3a4bd3db92d061d7704167a2c6ccd683619d3",
      "contractAddress": null,
      "l1Fee": "0x4b37259ea",
      "l1GasPrice": "0x1cd976b76",
      "l1GasUsed": "0x940"
    },
    {
      "status": "0x1",
      "cumulativeGasUsed": "0x7fc0d0",
      "logs": [
        {
          "address": "0x99d3a4bd3db92d061d7704167a2c6ccd683619d3",
          "topics": [
            "0xddf252ad1be2c89b69c2b068fc378daa952ba7f163c4a11628f55a4df523b3ef",
            "0x0000000000000000000000000000000000000000000000000000000000000000",
            "0x000000000000000000000000aacb77d3e5231050720f8e9da9eb1db0098bf05a",
            "0x0000000000000000000000000000000000000000000000000000000000000021"
          ],
          "data": "0x",
          "blockHash": "0x61d8dc7c015974ac64a559ca6972571b087ef7889a6308b1048098c46a4eca2c",
          "blockNumber": "0xf7b099",
          "transactionHash": "0xe8c6a6c736f764cea9ee326820e82822ca7a6c9a345ceab4636a409adaf5468c",
          "transactionIndex": "0x30",
          "logIndex": "0x98",
          "removed": false
        }
      ],
      "logsBloom": "0x00000000000000000000000000000000000000000000040000000000000000020000000000000000000000000000001000000000000000000010000000000000000000000000000000000008000000000000000000000000000000000000000000000000020000000000000000000800000000000000000000004010040000000000000000000000000000000000000000000000040000000000000000000000000000000000000000000000000000000000000800000000000000000000000000000002000000000000000000000000000000000000000000000000000020000000000000000000000000000000000000000000000000000000000000000000",
      "type": "0x2",
      "transactionHash": "0xe8c6a6c736f764cea9ee326820e82822ca7a6c9a345ceab4636a409adaf5468c",
      "transactionIndex": "0x30",
      "blockHash": "0x61d8dc7c015974ac64a559ca6972571b087ef7889a6308b1048098c46a4eca2c",
      "blockNumber": "0xf7b099",
      "gasUsed": "0x13ca1",
      "effectiveGasPrice": "0x1de3ecd",
      "from": "0x027a5ce58fc466d0e3a9d1990404354029398541",
      "to": "0x99d3a4bd3db92d061d7704167a2c6ccd683619d3",
      "contractAddress": null,
      "l1Fee": "0x4b98b9450",
      "l1GasPrice": "0x1cd976b76",
      "l1GasUsed": "0x94c"
    },
    {
      "status": "0x1",
      "cumulativeGasUsed": "0x80fd71",
      "logs": [
        {
          "address": "0x99d3a4bd3db92d061d7704167a2c6ccd683619d3",
          "topics": [
            "0xddf252ad1be2c89b69c2b068fc378daa952ba7f163c4a11628f55a4df523b3ef",
            "0x0000000000000000000000000000000000000000000000000000000000000000",
            "0x000000000000000000000000fa55f550d8c2ec8778d81e09c3298b60ff0b8c94",
            "0x0000000000000000000000000000000000000000000000000000000000000022"
          ],
          "data": "0x",
          "blockHash": "0x61d8dc7c015974ac64a559ca6972571b087ef7889a6308b1048098c46a4eca2c",
          "blockNumber": "0xf7b099",
          "transactionHash": "0x61dd5807fc53b027de4f7a068b1420bbc0f9aff3be5937d19312a4f4c98b0ef4",
          "transactionIndex": "0x31",
          "logIndex": "0x99",
          "removed": false
        }
      ],
      "logsBloom": "0x00000000000000000000000002000000000000000000040000000000000000000000000000000000000000000000001000000000000000000000000000000000000000000000000000000008000000000000000000000000000000000000000000000000020000000000000000000800000000000000000000000010000000000000020001000000000000000000000000000000000000000000004000000000000000000000000000000000000000000000000000000000000000000000000000000002000000000000000000000000000000000000000000000000000020080000000000000000000000000000000000000000000000000000000000000000",
      "type": "0x2",
      "transactionHash": "0x61dd5807fc53b027de4f7a068b1420bbc0f9aff3be5937d19312a4f4c98b0ef4",
      "transactionIndex": "0x31",
      "blockHash": "0x61d8dc7c015974ac64a559ca6972571b087ef7889a6308b1048098c46a4eca2c",
      "blockNumber": "0xf7b099",
      "gasUsed": "0x13ca1",
      "effectiveGasPrice": "0x1de3ecd",
      "from": "0x027a5ce58fc466d0e3a9d1990404354029398541",
      "to": "0x99d3a4bd3db92d061d7704167a2c6ccd683619d3",
      "contractAddress": null,
      "l1Fee": "0x4b98b9450",
      "l1GasPrice": "0x1cd976b76",
      "l1GasUsed": "0x94c"
    },
    {
      "status": "0x1",
      "cumulativeGasUsed": "0x823a12",
      "logs": [
        {
          "address": "0x99d3a4bd3db92d061d7704167a2c6ccd683619d3",
          "topics": [
            "0xddf252ad1be2c89b69c2b068fc378daa952ba7f163c4a11628f55a4df523b3ef",
            "0x0000000000000000000000000000000000000000000000000000000000000000",
            "0x0000000000000000000000009d1fb372355fde57a8a21d72a771478966581a70",
            "0x0000000000000000000000000000000000000000000000000000000000000023"
          ],
          "data": "0x",
          "blockHash": "0x61d8dc7c015974ac64a559ca6972571b087ef7889a6308b1048098c46a4eca2c",
          "blockNumber": "0xf7b099",
          "transactionHash": "0xeae6d505301a422405bd1a15b93c06e54901705e2636697b796cb0b8435381e6",
          "transactionIndex": "0x32",
          "logIndex": "0x9a",
          "removed": false
        }
      ],
      "logsBloom": "0x00000000000000000000000000000000000000000000440000000000000000000000000000000000000000000000001000000000000000800200000000000000000000000000000000000008000000000800000000000000000000000000000000000000020000000000000000000800000000000000000000000010000000000000000000000000000000000000000000000000000200000000000100000000000000000000000000000000000000000000000000000000000000000000000000000002000000000000000000000000000000000000000000000000000020000000000000000000000000000000000000000000000000000000000000000000",
      "type": "0x2",
      "transactionHash": "0xeae6d505301a422405bd1a15b93c06e54901705e2636697b796cb0b8435381e6",
      "transactionIndex": "0x32",
      "blockHash": "0x61d8dc7c015974ac64a559ca6972571b087ef7889a6308b1048098c46a4eca2c",
      "blockNumber": "0xf7b099",
      "gasUsed": "0x13ca1",
      "effectiveGasPrice": "0x1de3ecd",
      "from": "0x027a5ce58fc466d0e3a9d1990404354029398541",
      "to": "0x99d3a4bd3db92d061d7704167a2c6ccd683619d3",
      "contractAddress": null,
      "l1Fee": "0x4b98b9450",
      "l1GasPrice": "0x1cd976b76",
      "l1GasUsed": "0x94c"
    },
    {
      "status": "0x1",
      "cumulativeGasUsed": "0x8376b3",
      "logs": [
        {
          "address": "0x99d3a4bd3db92d061d7704167a2c6ccd683619d3",
          "topics": [
            "0xddf252ad1be2c89b69c2b068fc378daa952ba7f163c4a11628f55a4df523b3ef",
            "0x0000000000000000000000000000000000000000000000000000000000000000",
            "0x000000000000000000000000227f2a622aeefeead40f3aa2b43388268a59de94",
            "0x0000000000000000000000000000000000000000000000000000000000000024"
          ],
          "data": "0x",
          "blockHash": "0x61d8dc7c015974ac64a559ca6972571b087ef7889a6308b1048098c46a4eca2c",
          "blockNumber": "0xf7b099",
          "transactionHash": "0xda30e68c6e7641a26fadd8da24b43051bdcc99c1e7528c5995c2a1812824754b",
          "transactionIndex": "0x33",
          "logIndex": "0x9b",
          "removed": false
        }
      ],
      "logsBloom": "0x00000000000000001000000000000000000000000000040000000000000000000004000000000000000000000000001000000000000000000000000000000000000000000000000000000008000000000000000000000000000000000000000000000000020800000000000000000800000000000000000000000010000000000000000000000000000000000008000000000000000000000000000000000000000000000002000000000000000000000000100000000000000000000000000000000002000000000000000000000000000000000000000000000000000020000000000000000000000000000000000000000000000000000000000000000000",
      "type": "0x2",
      "transactionHash": "0xda30e68c6e7641a26fadd8da24b43051bdcc99c1e7528c5995c2a1812824754b",
      "transactionIndex": "0x33",
      "blockHash": "0x61d8dc7c015974ac64a559ca6972571b087ef7889a6308b1048098c46a4eca2c",
      "blockNumber": "0xf7b099",
      "gasUsed": "0x13ca1",
      "effectiveGasPrice": "0x1de3ecd",
      "from": "0x027a5ce58fc466d0e3a9d1990404354029398541",
      "to": "0x99d3a4bd3db92d061d7704167a2c6ccd683619d3",
      "contractAddress": null,
      "l1Fee": "0x4b98b9450",
      "l1GasPrice": "0x1cd976b76",
      "l1GasUsed": "0x94c"
    },
    {
      "status": "0x1",
      "cumulativeGasUsed": "0x84b354",
      "logs": [
        {
          "address": "0x99d3a4bd3db92d061d7704167a2c6ccd683619d3",
          "topics": [
            "0xddf252ad1be2c89b69c2b068fc378daa952ba7f163c4a11628f55a4df523b3ef",
            "0x0000000000000000000000000000000000000000000000000000000000000000",
            "0x000000000000000000000000b1d3b8c7259eeba5ab55e4b7c99c645a162a3b7b",
            "0x0000000000000000000000000000000000000000000000000000000000000025"
          ],
          "data": "0x",
          "blockHash": "0x61d8dc7c015974ac64a559ca6972571b087ef7889a6308b1048098c46a4eca2c",
          "blockNumber": "0xf7b099",
          "transactionHash": "0xf85622bd70558bac3686d9d95a2584ec1ed6f35ab326c21a5f898c90dcef4dd8",
          "transactionIndex": "0x34",
          "logIndex": "0x9c",
          "removed": false
        }
      ],
      "logsBloom": "0x00000000040000000000000000000000000000000000040000000000000000000000000400000000000000000000001000000000000000000000000000000000000000000000000000000008000000000000000000000000000000000000000000000000020000000000000000000800000000000000000000000010000000000000000000000000000000000000000000000000000000000000000000000000000000000000000000000002000000000000000000000000000000000000000000000002100000000000000000000000000000000000000000000000000020008000000000000000000000000000000000000000000000000000000002000000",
      "type": "0x2",
      "transactionHash": "0xf85622bd70558bac3686d9d95a2584ec1ed6f35ab326c21a5f898c90dcef4dd8",
      "transactionIndex": "0x34",
      "blockHash": "0x61d8dc7c015974ac64a559ca6972571b087ef7889a6308b1048098c46a4eca2c",
      "blockNumber": "0xf7b099",
      "gasUsed": "0x13ca1",
      "effectiveGasPrice": "0x1de3ecd",
      "from": "0x027a5ce58fc466d0e3a9d1990404354029398541",
      "to": "0x99d3a4bd3db92d061d7704167a2c6ccd683619d3",
      "contractAddress": null,
      "l1Fee": "0x4b98b9450",
      "l1GasPrice": "0x1cd976b76",
      "l1GasUsed": "0x94c"
    },
    {
      "status": "0x1",
      "cumulativeGasUsed": "0x85eff5",
      "logs": [
        {
          "address": "0x99d3a4bd3db92d061d7704167a2c6ccd683619d3",
          "topics": [
            "0xddf252ad1be2c89b69c2b068fc378daa952ba7f163c4a11628f55a4df523b3ef",
            "0x0000000000000000000000000000000000000000000000000000000000000000",
            "0x00000000000000000000000012681f290f07de2a5a94e890a046254323968036",
            "0x0000000000000000000000000000000000000000000000000000000000000026"
          ],
          "data": "0x",
          "blockHash": "0x61d8dc7c015974ac64a559ca6972571b087ef7889a6308b1048098c46a4eca2c",
          "blockNumber": "0xf7b099",
          "transactionHash": "0x1c1209784bf8dbf3cffce2b75f729cd928d219ea00708150806579b9fe508096",
          "transactionIndex": "0x35",
          "logIndex": "0x9d",
          "removed": false
        }
      ],
      "logsBloom": "0x00000000000000000000000000000000000000000000040000000000000000000000000000000000000000000000001000000000000000000000000000000000000000000000000000000008000000000001000000000000000000000000000001000000020000000000000000000800000000200000040000000010000000000000000008000001000000000000000000000000000000000000000000000000000000000000000000000000000000000000000000000000000000000000000000000002000000000000000000000000000000000000000000000000000020000000000000000000000000000000000000000000000000000000000000000000",
      "type": "0x2",
      "transactionHash": "0x1c1209784bf8dbf3cffce2b75f729cd928d219ea00708150806579b9fe508096",
      "transactionIndex": "0x35",
      "blockHash": "0x61d8dc7c015974ac64a559ca6972571b087ef7889a6308b1048098c46a4eca2c",
      "blockNumber": "0xf7b099",
      "gasUsed": "0x13ca1",
      "effectiveGasPrice": "0x1de3ecd",
      "from": "0x027a5ce58fc466d0e3a9d1990404354029398541",
      "to": "0x99d3a4bd3db92d061d7704167a2c6ccd683619d3",
      "contractAddress": null,
      "l1Fee": "0x4b169f11d",
      "l1GasPrice": "0x1cd976b76",
      "l1GasUsed": "0x93c"
    },
    {
      "status": "0x1",
      "cumulativeGasUsed": "0x872c96",
      "logs": [
        {
          "address": "0x99d3a4bd3db92d061d7704167a2c6ccd683619d3",
          "topics": [
            "0xddf252ad1be2c89b69c2b068fc378daa952ba7f163c4a11628f55a4df523b3ef",
            "0x0000000000000000000000000000000000000000000000000000000000000000",
            "0x0000000000000000000000001bb38bac1d3c69983c93625e0a7d03633b7989ad",
            "0x0000000000000000000000000000000000000000000000000000000000000027"
          ],
          "data": "0x",
          "blockHash": "0x61d8dc7c015974ac64a559ca6972571b087ef7889a6308b1048098c46a4eca2c",
          "blockNumber": "0xf7b099",
          "transactionHash": "0xb4e43525a3d2fa188ff1863b98ddd883bb6473cba286e7da8c6fa785fd770f83",
          "transactionIndex": "0x36",
          "logIndex": "0x9e",
          "removed": false
        }
      ],
      "logsBloom": "0x00000000000000000000000000000000000000000000040000000000000000000002000000000000000000000000001000000000000000000000000000000000000000000000000000000008000000000000000000000000000000000000000000000000020000000000000000000800200000000000000000000010000000000000000000000000000008000000000000000000000000000000000000000000000000000000000000000000000000000000000000000000000000000000000000000002000000000000000000000000000000000000000000000000000020000000100000000000000000100000000008000000000000000000000000000000",
      "type": "0x2",
      "transactionHash": "0xb4e43525a3d2fa188ff1863b98ddd883bb6473cba286e7da8c6fa785fd770f83",
      "transactionIndex": "0x36",
      "blockHash": "0x61d8dc7c015974ac64a559ca6972571b087ef7889a6308b1048098c46a4eca2c",
      "blockNumber": "0xf7b099",
      "gasUsed": "0x13ca1",
      "effectiveGasPrice": "0x1de3ecd",
      "from": "0x027a5ce58fc466d0e3a9d1990404354029398541",
      "to": "0x99d3a4bd3db92d061d7704167a2c6ccd683619d3",
      "contractAddress": null,
      "l1Fee": "0x4b98b9450",
      "l1GasPrice": "0x1cd976b76",
      "l1GasUsed": "0x94c"
    },
    {
      "status": "0x1",
      "cumulativeGasUsed": "0x886937",
      "logs": [
        {
          "address": "0x99d3a4bd3db92d061d7704167a2c6ccd683619d3",
          "topics": [
            "0xddf252ad1be2c89b69c2b068fc378daa952ba7f163c4a11628f55a4df523b3ef",
            "0x0000000000000000000000000000000000000000000000000000000000000000",
            "0x000000000000000000000000dd6f7c56b3a9b8816df38e689221634390b70fdc",
            "0x0000000000000000000000000000000000000000000000000000000000000028"
          ],
          "data": "0x",
          "blockHash": "0x61d8dc7c015974ac64a559ca6972571b087ef7889a6308b1048098c46a4eca2c",
          "blockNumber": "0xf7b099",
          "transactionHash": "0xc46cd92157e0e5e5b660cb009736a2916d7ba7203cf6e0f05bfcc94a5ad795e4",
          "transactionIndex": "0x37",
          "logIndex": "0x9f",
          "removed": false
        }
      ],
      "logsBloom": "0x00000000004000000000000200000000000000000000040000000000000000000000000000000000000000000000001000000000000000000000000000000000000000000000000000000008000000000000000000000000000000000000000000000000020000000000000000000800000000000000000000000010000000000000000000000000000000000000000000000000000000000000000000000000000000000100000000000000000000000000000000000000000000800000000000000002000000000000000000000000000020000000000000000008000020000000000000000000000000000000000000000000000000000000000000000000",
      "type": "0x2",
      "transactionHash": "0xc46cd92157e0e5e5b660cb009736a2916d7ba7203cf6e0f05bfcc94a5ad795e4",
      "transactionIndex": "0x37",
      "blockHash": "0x61d8dc7c015974ac64a559ca6972571b087ef7889a6308b1048098c46a4eca2c",
      "blockNumber": "0xf7b099",
      "gasUsed": "0x13ca1",
      "effectiveGasPrice": "0x1de3ecd",
      "from": "0x027a5ce58fc466d0e3a9d1990404354029398541",
      "to": "0x99d3a4bd3db92d061d7704167a2c6ccd683619d3",
      "contractAddress": null,
      "l1Fee": "0x4b98b9450",
      "l1GasPrice": "0x1cd976b76",
      "l1GasUsed": "0x94c"
    },
    {
      "status": "0x1",
      "cumulativeGasUsed": "0x89a5d8",
      "logs": [
        {
          "address": "0x99d3a4bd3db92d061d7704167a2c6ccd683619d3",
          "topics": [
            "0xddf252ad1be2c89b69c2b068fc378daa952ba7f163c4a11628f55a4df523b3ef",
            "0x0000000000000000000000000000000000000000000000000000000000000000",
            "0x000000000000000000000000d4805a7f11c4ff14b5fc8323dbdf56481dea9fd4",
            "0x0000000000000000000000000000000000000000000000000000000000000029"
          ],
          "data": "0x",
          "blockHash": "0x61d8dc7c015974ac64a559ca6972571b087ef7889a6308b1048098c46a4eca2c",
          "blockNumber": "0xf7b099",
          "transactionHash": "0x4aca77603a0fe29037ba880c4ec62dbf35e13933e15509ff4c77f3aee9c1d519",
          "transactionIndex": "0x38",
          "logIndex": "0xa0",
          "removed": false
        }
      ],
      "logsBloom": "0x00000000000000000000000000008000000000000000040000000000000000000000000000000000000000000000001000000000000000000000000000000000000000000000000000000008000000000000000000000000000000000000000000000000020040000800000000000800000000000000000000000010000000000000000000000000000000000800000010020000000000000000000000000000000000000000000000000000000000000000000000000000000000000000000000000002000000000000000000000000000000000000000000000000000020000000000000000000000000000000000000000000000000000000000000000000",
      "type": "0x2",
      "transactionHash": "0x4aca77603a0fe29037ba880c4ec62dbf35e13933e15509ff4c77f3aee9c1d519",
      "transactionIndex": "0x38",
      "blockHash": "0x61d8dc7c015974ac64a559ca6972571b087ef7889a6308b1048098c46a4eca2c",
      "blockNumber": "0xf7b099",
      "gasUsed": "0x13ca1",
      "effectiveGasPrice": "0x1de3ecd",
      "from": "0x027a5ce58fc466d0e3a9d1990404354029398541",
      "to": "0x99d3a4bd3db92d061d7704167a2c6ccd683619d3",
      "contractAddress": null,
      "l1Fee": "0x4b98b9450",
      "l1GasPrice": "0x1cd976b76",
      "l1GasUsed": "0x94c"
    },
    {
      "status": "0x1",
      "cumulativeGasUsed": "0x8ae279",
      "logs": [
        {
          "address": "0x99d3a4bd3db92d061d7704167a2c6ccd683619d3",
          "topics": [
            "0xddf252ad1be2c89b69c2b068fc378daa952ba7f163c4a11628f55a4df523b3ef",
            "0x0000000000000000000000000000000000000000000000000000000000000000",
            "0x000000000000000000000000ac74126dc2dcaf90a97dc0c8bc6d4a1318e91e1d",
            "0x000000000000000000000000000000000000000000000000000000000000002a"
          ],
          "data": "0x",
          "blockHash": "0x61d8dc7c015974ac64a559ca6972571b087ef7889a6308b1048098c46a4eca2c",
          "blockNumber": "0xf7b099",
          "transactionHash": "0xde3ac09124aa9a781b87cabc6047619287d31d10dbd3ba27a26acbaf976a5a54",
          "transactionIndex": "0x39",
          "logIndex": "0xa1",
          "removed": false
        }
      ],
      "logsBloom": "0x00000000000000000000000000000000000000000000040000000000000000000000000000004000000000000000001000000000000000000000000000000000000000000000000000000008000000000000000000000000000010000000000000000000020000000000000000000800000000000000000000000010000000000000000000000000000000000000000000000000000000000000000000000004000000000000000000000000000800000000000000000000000000000000000000000002000000000000000000000000000000000000000000000000000020100000000000000000000000000020000000000000000000000000000000000000",
      "type": "0x2",
      "transactionHash": "0xde3ac09124aa9a781b87cabc6047619287d31d10dbd3ba27a26acbaf976a5a54",
      "transactionIndex": "0x39",
      "blockHash": "0x61d8dc7c015974ac64a559ca6972571b087ef7889a6308b1048098c46a4eca2c",
      "blockNumber": "0xf7b099",
      "gasUsed": "0x13ca1",
      "effectiveGasPrice": "0x1de3ecd",
      "from": "0x027a5ce58fc466d0e3a9d1990404354029398541",
      "to": "0x99d3a4bd3db92d061d7704167a2c6ccd683619d3",
      "contractAddress": null,
      "l1Fee": "0x4b37259ea",
      "l1GasPrice": "0x1cd976b76",
      "l1GasUsed": "0x940"
    },
    {
      "status": "0x1",
      "cumulativeGasUsed": "0x8c1f1a",
      "logs": [
        {
          "address": "0x99d3a4bd3db92d061d7704167a2c6ccd683619d3",
          "topics": [
            "0xddf252ad1be2c89b69c2b068fc378daa952ba7f163c4a11628f55a4df523b3ef",
            "0x0000000000000000000000000000000000000000000000000000000000000000",
            "0x000000000000000000000000aba654110c0379c79d5387d6d5c593c1855b4ba9",
            "0x000000000000000000000000000000000000000000000000000000000000002b"
          ],
          "data": "0x",
          "blockHash": "0x61d8dc7c015974ac64a559ca6972571b087ef7889a6308b1048098c46a4eca2c",
          "blockNumber": "0xf7b099",
          "transactionHash": "0x2a56d7093b36be0018da12417491596ebc599ca66e895971ef39cf3e25083f8a",
          "transactionIndex": "0x3a",
          "logIndex": "0xa2",
          "removed": false
        }
      ],
      "logsBloom": "0x00000000000000000000000000000000000000000000040000000000000000000000000000000000000000000000001000000000000001000000000000000000000000000000000000800808000000000000000000000000000000000000000000000000020000000000000000000800000000100000000000000010000000000000000000000000000000000000000000000000000000000010000000000000000000000000000000000000000000000000000000000000000000000000000000000002000000100000000000000000000000000000000000000000000020000000000000000000000000000000000000000000000000000000000000000000",
      "type": "0x2",
      "transactionHash": "0x2a56d7093b36be0018da12417491596ebc599ca66e895971ef39cf3e25083f8a",
      "transactionIndex": "0x3a",
      "blockHash": "0x61d8dc7c015974ac64a559ca6972571b087ef7889a6308b1048098c46a4eca2c",
      "blockNumber": "0xf7b099",
      "gasUsed": "0x13ca1",
      "effectiveGasPrice": "0x1de3ecd",
      "from": "0x027a5ce58fc466d0e3a9d1990404354029398541",
      "to": "0x99d3a4bd3db92d061d7704167a2c6ccd683619d3",
      "contractAddress": null,
      "l1Fee": "0x4b98b9450",
      "l1GasPrice": "0x1cd976b76",
      "l1GasUsed": "0x94c"
    },
    {
      "status": "0x1",
      "cumulativeGasUsed": "0x8d5bbb",
      "logs": [
        {
          "address": "0x99d3a4bd3db92d061d7704167a2c6ccd683619d3",
          "topics": [
            "0xddf252ad1be2c89b69c2b068fc378daa952ba7f163c4a11628f55a4df523b3ef",
            "0x0000000000000000000000000000000000000000000000000000000000000000",
            "0x00000000000000000000000080475ececd1b7ec2cf6624b1a1705bbf3f20be94",
            "0x000000000000000000000000000000000000000000000000000000000000002c"
          ],
          "data": "0x",
          "blockHash": "0x61d8dc7c015974ac64a559ca6972571b087ef7889a6308b1048098c46a4eca2c",
          "blockNumber": "0xf7b099",
          "transactionHash": "0xea40bf324141b232e3e253411ccdd4d3a99a6dd17e0ca4ff6cd553acdc7b34b9",
          "transactionIndex": "0x3b",
          "logIndex": "0xa3",
          "removed": false
        }
      ],
      "logsBloom": "0x00000000000000000000000000000000000000000000040000000000000000000000000000000000000000000000001000000000000000000000000010000000000000000000000000000008000000000000000000000000000004000000000000000000020000000000000100000800000000000000000000000010004000000000000000000000000000000000000000000400000000000000000000000000000000000000000000000000000000000000000000000000000000000000000000000002000000000000000000000000000000000000000800000000000020000000000000000000000000000000000000000000000000000000000000000000",
      "type": "0x2",
      "transactionHash": "0xea40bf324141b232e3e253411ccdd4d3a99a6dd17e0ca4ff6cd553acdc7b34b9",
      "transactionIndex": "0x3b",
      "blockHash": "0x61d8dc7c015974ac64a559ca6972571b087ef7889a6308b1048098c46a4eca2c",
      "blockNumber": "0xf7b099",
      "gasUsed": "0x13ca1",
      "effectiveGasPrice": "0x1de3ecd",
      "from": "0x027a5ce58fc466d0e3a9d1990404354029398541",
      "to": "0x99d3a4bd3db92d061d7704167a2c6ccd683619d3",
      "contractAddress": null,
      "l1Fee": "0x4b98b9450",
      "l1GasPrice": "0x1cd976b76",
      "l1GasUsed": "0x94c"
    },
    {
      "status": "0x1",
      "cumulativeGasUsed": "0x8e9850",
      "logs": [
        {
          "address": "0x99d3a4bd3db92d061d7704167a2c6ccd683619d3",
          "topics": [
            "0xddf252ad1be2c89b69c2b068fc378daa952ba7f163c4a11628f55a4df523b3ef",
            "0x0000000000000000000000000000000000000000000000000000000000000000",
            "0x000000000000000000000000f78ef100dd63f62cdc0ba7324b43ab7074e8262f",
            "0x000000000000000000000000000000000000000000000000000000000000002d"
          ],
          "data": "0x",
          "blockHash": "0x61d8dc7c015974ac64a559ca6972571b087ef7889a6308b1048098c46a4eca2c",
          "blockNumber": "0xf7b099",
          "transactionHash": "0xba79a1db7287e8d641e3f22df67288ce669697ad0491b658acef039967d8b95e",
          "transactionIndex": "0x3c",
          "logIndex": "0xa4",
          "removed": false
        }
      ],
      "logsBloom": "0x00000000000000000000000000000000000000000000040000000000000000000000000004000000000000000000001000000000000000000004000400000000000000000000000000000008000000000000000000000000000000000000000000000000020000000000000000000800000000000000000000000010000000000000000000000000010000000000000000000000000000000000000000000000000000000000000000000000000000000000000000000000000010000000000000000002000000000000000000000000000000000000000000000000400020000000000000000000000000000000000000000000000000000000000000000000",
      "type": "0x2",
      "transactionHash": "0xba79a1db7287e8d641e3f22df67288ce669697ad0491b658acef039967d8b95e",
      "transactionIndex": "0x3c",
      "blockHash": "0x61d8dc7c015974ac64a559ca6972571b087ef7889a6308b1048098c46a4eca2c",
      "blockNumber": "0xf7b099",
      "gasUsed": "0x13c95",
      "effectiveGasPrice": "0x1de3ecd",
      "from": "0x027a5ce58fc466d0e3a9d1990404354029398541",
      "to": "0x99d3a4bd3db92d061d7704167a2c6ccd683619d3",
      "contractAddress": null,
      "l1Fee": "0x4b37259ea",
      "l1GasPrice": "0x1cd976b76",
      "l1GasUsed": "0x940"
    },
    {
      "status": "0x1",
      "cumulativeGasUsed": "0x8fd4f1",
      "logs": [
        {
          "address": "0x99d3a4bd3db92d061d7704167a2c6ccd683619d3",
          "topics": [
            "0xddf252ad1be2c89b69c2b068fc378daa952ba7f163c4a11628f55a4df523b3ef",
            "0x0000000000000000000000000000000000000000000000000000000000000000",
            "0x000000000000000000000000bb07eef6aec41017cab296f863820c04634843ab",
            "0x000000000000000000000000000000000000000000000000000000000000002e"
          ],
          "data": "0x",
          "blockHash": "0x61d8dc7c015974ac64a559ca6972571b087ef7889a6308b1048098c46a4eca2c",
          "blockNumber": "0xf7b099",
          "transactionHash": "0xf5591bdffc92b2c8ccd2590956f2c9fce2aa79023983d745711c2dd8331833bf",
          "transactionIndex": "0x3d",
          "logIndex": "0xa5",
          "removed": false
        }
      ],
      "logsBloom": "0x04000000000000000000000000000000000000000000040000000000000000000000000000000000000000000000001000001000000000000000000000000000000000000000000080800008000000000000000000000000000000000000000000000000820000000000000000000800000000000000000000000010000000000000000000000000000000000000000000000000000000000000000000000000080000000000000000000000000000000000000000000000000000000000000000000002000000000000000000000000000000000000000000000000000020000000000000000000000000000000000000000000000000000000000000000000",
      "type": "0x2",
      "transactionHash": "0xf5591bdffc92b2c8ccd2590956f2c9fce2aa79023983d745711c2dd8331833bf",
      "transactionIndex": "0x3d",
      "blockHash": "0x61d8dc7c015974ac64a559ca6972571b087ef7889a6308b1048098c46a4eca2c",
      "blockNumber": "0xf7b099",
      "gasUsed": "0x13ca1",
      "effectiveGasPrice": "0x1de3ecd",
      "from": "0x027a5ce58fc466d0e3a9d1990404354029398541",
      "to": "0x99d3a4bd3db92d061d7704167a2c6ccd683619d3",
      "contractAddress": null,
      "l1Fee": "0x4b98b9450",
      "l1GasPrice": "0x1cd976b76",
      "l1GasUsed": "0x94c"
    },
    {
      "status": "0x1",
      "cumulativeGasUsed": "0x6ea21a",
      "logs": [
        {
          "address": "0x99d3a4bd3db92d061d7704167a2c6ccd683619d3",
          "topics": [
            "0xddf252ad1be2c89b69c2b068fc378daa952ba7f163c4a11628f55a4df523b3ef",
            "0x0000000000000000000000000000000000000000000000000000000000000000",
            "0x0000000000000000000000002e6a85154332b09fc71a31ae3ff9b294928e9adc",
            "0x000000000000000000000000000000000000000000000000000000000000002f"
          ],
          "data": "0x",
          "blockHash": "0x3b952e6ba5482bef77c9798d1dcbfe55c10f87acc790cdf4c2c3f8dbaa9f2157",
          "blockNumber": "0xf7b09a",
          "transactionHash": "0xbc341a0e3f444a3a938b45c3f0e54cbb647f865905c240218edc37b82b8dbace",
          "transactionIndex": "0x2d",
          "logIndex": "0xac",
          "removed": false
        }
      ],
      "logsBloom": "0x00000000000000000000000000000000000080000000040000000000000200000000000000000000000000000000001020000000000000000000000000000000000000000000000000000008000000000000000000000000000000000000000000000000020000000000000000000800000000000000000000000010000000000000000000000000000000000000000000000000000000000000000000000000000000000000000000000000000000000000040000000000000000000000000000000002000000000000000000000000000000000000000000000000000020000000000000000000000000000000000000000000000004000000000000080000",
      "type": "0x2",
      "transactionHash": "0xbc341a0e3f444a3a938b45c3f0e54cbb647f865905c240218edc37b82b8dbace",
      "transactionIndex": "0x2d",
      "blockHash": "0x3b952e6ba5482bef77c9798d1dcbfe55c10f87acc790cdf4c2c3f8dbaa9f2157",
      "blockNumber": "0xf7b09a",
      "gasUsed": "0x13ca1",
      "effectiveGasPrice": "0x1ddf711",
      "from": "0x027a5ce58fc466d0e3a9d1990404354029398541",
      "to": "0x99d3a4bd3db92d061d7704167a2c6ccd683619d3",
      "contractAddress": null,
      "l1Fee": "0x49877561c",
      "l1GasPrice": "0x1c33e2e5a",
      "l1GasUsed": "0x940"
    },
    {
      "status": "0x1",
      "cumulativeGasUsed": "0x6fdebb",
      "logs": [
        {
          "address": "0x99d3a4bd3db92d061d7704167a2c6ccd683619d3",
          "topics": [
            "0xddf252ad1be2c89b69c2b068fc378daa952ba7f163c4a11628f55a4df523b3ef",
            "0x0000000000000000000000000000000000000000000000000000000000000000",
            "0x000000000000000000000000e5728f218590e533722639485409b67f458b664c",
            "0x0000000000000000000000000000000000000000000000000000000000000030"
          ],
          "data": "0x",
          "blockHash": "0x3b952e6ba5482bef77c9798d1dcbfe55c10f87acc790cdf4c2c3f8dbaa9f2157",
          "blockNumber": "0xf7b09a",
          "transactionHash": "0x3fe031d972e9425d75e40e20987f2bb3fe946c74a01fdcf7d5e34c11cb12ed09",
          "transactionIndex": "0x2e",
          "logIndex": "0xad",
          "removed": false
        }
      ],
      "logsBloom": "0x02000000000000000020000000000000000000000000044000000000000000000000000000000000000000000000001000000000000000000000000000000000000000000000000000000008000000000000000000000000000000000000000000008000020000000000000000000800000000000000000000000010000000000000000000000000000000000000000000000000000000000000000000000000000000000000000000000000000000000000000002000000000000000000000000000002000000000000000000000000000000000000000000000000000020000000000000000000000000000000000000000000000000000000000000000000",
      "type": "0x2",
      "transactionHash": "0x3fe031d972e9425d75e40e20987f2bb3fe946c74a01fdcf7d5e34c11cb12ed09",
      "transactionIndex": "0x2e",
      "blockHash": "0x3b952e6ba5482bef77c9798d1dcbfe55c10f87acc790cdf4c2c3f8dbaa9f2157",
      "blockNumber": "0xf7b09a",
      "gasUsed": "0x13ca1",
      "effectiveGasPrice": "0x1ddf711",
      "from": "0x027a5ce58fc466d0e3a9d1990404354029398541",
      "to": "0x99d3a4bd3db92d061d7704167a2c6ccd683619d3",
      "contractAddress": null,
      "l1Fee": "0x49e6d900f",
      "l1GasPrice": "0x1c33e2e5a",
      "l1GasUsed": "0x94c"
    },
    {
      "status": "0x1",
      "cumulativeGasUsed": "0x711b5c",
      "logs": [
        {
          "address": "0x99d3a4bd3db92d061d7704167a2c6ccd683619d3",
          "topics": [
            "0xddf252ad1be2c89b69c2b068fc378daa952ba7f163c4a11628f55a4df523b3ef",
            "0x0000000000000000000000000000000000000000000000000000000000000000",
            "0x00000000000000000000000041c78c5690db1bdc34c1bcd78bbeb39ba4cbbe1c",
            "0x0000000000000000000000000000000000000000000000000000000000000031"
          ],
          "data": "0x",
          "blockHash": "0x3b952e6ba5482bef77c9798d1dcbfe55c10f87acc790cdf4c2c3f8dbaa9f2157",
          "blockNumber": "0xf7b09a",
          "transactionHash": "0x8207949617930db8c325b781707aa841c289a13593aeb36b0220159d7d938b3e",
          "transactionIndex": "0x2f",
          "logIndex": "0xae",
          "removed": false
        }
      ],
      "logsBloom": "0x00000000000000000000000000000000000000000000040000000000000000000000000000000000000000000000001000000000000000000000000000000000040000000000000000000008000000000000000000000001000000000000000080000000020000000000000000000800000040000000000000000050000000000000000000000000000000000000200000000000000000000000000000000000000000000000000000000000000000000000000000000000000000000000000000000002000000000000000000000000000000000000000000000000000020000000000000000000000000000000000000000000000000000000000000000000",
      "type": "0x2",
      "transactionHash": "0x8207949617930db8c325b781707aa841c289a13593aeb36b0220159d7d938b3e",
      "transactionIndex": "0x2f",
      "blockHash": "0x3b952e6ba5482bef77c9798d1dcbfe55c10f87acc790cdf4c2c3f8dbaa9f2157",
      "blockNumber": "0xf7b09a",
      "gasUsed": "0x13ca1",
      "effectiveGasPrice": "0x1ddf711",
      "from": "0x027a5ce58fc466d0e3a9d1990404354029398541",
      "to": "0x99d3a4bd3db92d061d7704167a2c6ccd683619d3",
      "contractAddress": null,
      "l1Fee": "0x49877561c",
      "l1GasPrice": "0x1c33e2e5a",
      "l1GasUsed": "0x940"
    },
    {
      "status": "0x1",
      "cumulativeGasUsed": "0x14aa2ad",
      "logs": [
        {
          "address": "0x99d3a4bd3db92d061d7704167a2c6ccd683619d3",
          "topics": [
            "0xddf252ad1be2c89b69c2b068fc378daa952ba7f163c4a11628f55a4df523b3ef",
            "0x0000000000000000000000000000000000000000000000000000000000000000",
            "0x000000000000000000000000f9fcd5b21b72d90457065935cde16a99af4e2db3",
            "0x0000000000000000000000000000000000000000000000000000000000000032"
          ],
          "data": "0x",
          "blockHash": "0xe56ab1f10f81a991909a393c888374145c592b094084e1a827de156afcdace8c",
          "blockNumber": "0xf7b09c",
          "transactionHash": "0xbe1f19a3c26277da94bdd66d01eda3c94a0cd7f6616e863f58c002f84bffc09c",
          "transactionIndex": "0x31",
          "logIndex": "0x2c5",
          "removed": false
        }
      ],
      "logsBloom": "0x00000000000000000000000000000000000000000000040000000000000000000002000000000000000000000000001000000000000000000000000000000000000000000000000000000008000000000000000000000000000000000000000000000000020000000000000000000800000000000000000000000010000000000000000020000000000000000000000000000001000000000000000000000000000000000000000000000000000000000000000000000000000000000000000000000002800000000000000000000000000000000000000000000000000820000000000000000000000000000000010000000000000000000000000000000000",
      "type": "0x2",
      "transactionHash": "0xbe1f19a3c26277da94bdd66d01eda3c94a0cd7f6616e863f58c002f84bffc09c",
      "transactionIndex": "0x31",
      "blockHash": "0xe56ab1f10f81a991909a393c888374145c592b094084e1a827de156afcdace8c",
      "blockNumber": "0xf7b09c",
      "gasUsed": "0x13ca1",
      "effectiveGasPrice": "0x1dc9c99",
      "from": "0x027a5ce58fc466d0e3a9d1990404354029398541",
      "to": "0x99d3a4bd3db92d061d7704167a2c6ccd683619d3",
      "contractAddress": null,
      "l1Fee": "0x49e6d900f",
      "l1GasPrice": "0x1c33e2e5a",
      "l1GasUsed": "0x94c"
    },
    {
      "status": "0x1",
      "cumulativeGasUsed": "0x14bdf4e",
      "logs": [
        {
          "address": "0x99d3a4bd3db92d061d7704167a2c6ccd683619d3",
          "topics": [
            "0xddf252ad1be2c89b69c2b068fc378daa952ba7f163c4a11628f55a4df523b3ef",
            "0x0000000000000000000000000000000000000000000000000000000000000000",
            "0x000000000000000000000000935ab102bda39ee9c339d4b20510ace59b7ae35f",
            "0x0000000000000000000000000000000000000000000000000000000000000033"
          ],
          "data": "0x",
          "blockHash": "0xe56ab1f10f81a991909a393c888374145c592b094084e1a827de156afcdace8c",
          "blockNumber": "0xf7b09c",
          "transactionHash": "0x40c77284cb6179fda15af6febc59ea9d8d2d260c89a7f503fc0a15ef498bf96d",
          "transactionIndex": "0x32",
          "logIndex": "0x2c6",
          "removed": false
        }
      ],
      "logsBloom": "0x00000000000080000000000000000000000000000000040000000000000000000000000000000000000000000000001000000008000000000000000000000000000000000000000000000008000000000000000000000000000000000000000000000000020000000000000000000800000000000000000000000010000000100000000040000000000000000000000000000000000000000000000000000000000001000000000000000080000000000000000000000000000000000000000000000002000000000000000000000000000000000000000000000000000020000000000000000000000000000000000000000000000000000000000000000000",
      "type": "0x2",
      "transactionHash": "0x40c77284cb6179fda15af6febc59ea9d8d2d260c89a7f503fc0a15ef498bf96d",
      "transactionIndex": "0x32",
      "blockHash": "0xe56ab1f10f81a991909a393c888374145c592b094084e1a827de156afcdace8c",
      "blockNumber": "0xf7b09c",
      "gasUsed": "0x13ca1",
      "effectiveGasPrice": "0x1dc9c99",
      "from": "0x027a5ce58fc466d0e3a9d1990404354029398541",
      "to": "0x99d3a4bd3db92d061d7704167a2c6ccd683619d3",
      "contractAddress": null,
      "l1Fee": "0x49e6d900f",
      "l1GasPrice": "0x1c33e2e5a",
      "l1GasUsed": "0x94c"
    },
    {
      "status": "0x1",
      "cumulativeGasUsed": "0x14d1bef",
      "logs": [
        {
          "address": "0x99d3a4bd3db92d061d7704167a2c6ccd683619d3",
          "topics": [
            "0xddf252ad1be2c89b69c2b068fc378daa952ba7f163c4a11628f55a4df523b3ef",
            "0x0000000000000000000000000000000000000000000000000000000000000000",
            "0x0000000000000000000000002292b6a9941af4ecaed48371083e2cbf87da4444",
            "0x0000000000000000000000000000000000000000000000000000000000000034"
          ],
          "data": "0x",
          "blockHash": "0xe56ab1f10f81a991909a393c888374145c592b094084e1a827de156afcdace8c",
          "blockNumber": "0xf7b09c",
          "transactionHash": "0x47a79c5fb27e0e7c6ca4b725e7d3448bdd6d69aa39943ca6449740b17d8e2d83",
          "transactionIndex": "0x33",
          "logIndex": "0x2c7",
          "removed": false
        }
      ],
      "logsBloom": "0x00000000000000000000000000000000000000000000040000000000000000000000000000000000200000000000001000000000000000000000000000000000000000000000000000000008000000000000000000000000000000000000000000000000020000000000000000000800000000000000000000000010000000000000000000000000000000000000000000000000000000000000000000020000000000000000000000000000000000000000000000000000000000000000000000000002000000000000000000000000000000000800000000000000000020000001020000000000000000000000000000000000000000000000001000000000",
      "type": "0x2",
      "transactionHash": "0x47a79c5fb27e0e7c6ca4b725e7d3448bdd6d69aa39943ca6449740b17d8e2d83",
      "transactionIndex": "0x33",
      "blockHash": "0xe56ab1f10f81a991909a393c888374145c592b094084e1a827de156afcdace8c",
      "blockNumber": "0xf7b09c",
      "gasUsed": "0x13ca1",
      "effectiveGasPrice": "0x1dc9c99",
      "from": "0x027a5ce58fc466d0e3a9d1990404354029398541",
      "to": "0x99d3a4bd3db92d061d7704167a2c6ccd683619d3",
      "contractAddress": null,
      "l1Fee": "0x49e6d900f",
      "l1GasPrice": "0x1c33e2e5a",
      "l1GasUsed": "0x94c"
    },
    {
      "status": "0x1",
      "cumulativeGasUsed": "0x14e5890",
      "logs": [
        {
          "address": "0x99d3a4bd3db92d061d7704167a2c6ccd683619d3",
          "topics": [
            "0xddf252ad1be2c89b69c2b068fc378daa952ba7f163c4a11628f55a4df523b3ef",
            "0x0000000000000000000000000000000000000000000000000000000000000000",
            "0x0000000000000000000000004502f749360c4c01dfaa8a6eecd945c037f18fcc",
            "0x0000000000000000000000000000000000000000000000000000000000000035"
          ],
          "data": "0x",
          "blockHash": "0xe56ab1f10f81a991909a393c888374145c592b094084e1a827de156afcdace8c",
          "blockNumber": "0xf7b09c",
          "transactionHash": "0x2dff941b479d612e622d7fec023a7fff25df8227a596acb95f80705ba9ba8a25",
          "transactionIndex": "0x34",
          "logIndex": "0x2c8",
          "removed": false
        }
      ],
      "logsBloom": "0x00000000000000000000001000000000000000020000040000000000000000000000000000000002000000000000001000000000000000000000000000000000000000000000000000000008000000000000000000000000000000000000000000000000020000000000000000000880000000000000000000000010000000000000000010000000000000000000000000000000000000000000020000000000000000000000000000000000000000000000000000000000000000000000000000000002000000000000000000000000000000000000000000000000000020000000000000000000000000000000000000000000000000000000000000000000",
      "type": "0x2",
      "transactionHash": "0x2dff941b479d612e622d7fec023a7fff25df8227a596acb95f80705ba9ba8a25",
      "transactionIndex": "0x34",
      "blockHash": "0xe56ab1f10f81a991909a393c888374145c592b094084e1a827de156afcdace8c",
      "blockNumber": "0xf7b09c",
      "gasUsed": "0x13ca1",
      "effectiveGasPrice": "0x1dc9c99",
      "from": "0x027a5ce58fc466d0e3a9d1990404354029398541",
      "to": "0x99d3a4bd3db92d061d7704167a2c6ccd683619d3",
      "contractAddress": null,
      "l1Fee": "0x49e6d900f",
      "l1GasPrice": "0x1c33e2e5a",
      "l1GasUsed": "0x94c"
    },
    {
      "status": "0x1",
      "cumulativeGasUsed": "0x14f9531",
      "logs": [
        {
          "address": "0x99d3a4bd3db92d061d7704167a2c6ccd683619d3",
          "topics": [
            "0xddf252ad1be2c89b69c2b068fc378daa952ba7f163c4a11628f55a4df523b3ef",
            "0x0000000000000000000000000000000000000000000000000000000000000000",
            "0x00000000000000000000000061bd72d67a2e5d8c3483289b0f912e40f98b3989",
            "0x0000000000000000000000000000000000000000000000000000000000000036"
          ],
          "data": "0x",
          "blockHash": "0xe56ab1f10f81a991909a393c888374145c592b094084e1a827de156afcdace8c",
          "blockNumber": "0xf7b09c",
          "transactionHash": "0x62fb5099f8617e09aa2288bd87adcbda0da14ab0752046e247069d41df3fb28e",
          "transactionIndex": "0x35",
          "logIndex": "0x2c9",
          "removed": false
        }
      ],
      "logsBloom": "0x00000000000000000000000000000000000000000000040000000000000000000400000000000000000000000000001000000000000000000000000000000000000000000000000000000008000000000000000000000000000000000000000000000000020000000000000000000800000000000000000000000010000000000000000000008000000000000000000000000000000000000000000000000000000000000000000000000000000000000008000000000000000000000002000000000002000000000000000000000000000000000000400000000000000020000000000000000000000002000000000000000000000000000000000000000000",
      "type": "0x2",
      "transactionHash": "0x62fb5099f8617e09aa2288bd87adcbda0da14ab0752046e247069d41df3fb28e",
      "transactionIndex": "0x35",
      "blockHash": "0xe56ab1f10f81a991909a393c888374145c592b094084e1a827de156afcdace8c",
      "blockNumber": "0xf7b09c",
      "gasUsed": "0x13ca1",
      "effectiveGasPrice": "0x1dc9c99",
      "from": "0x027a5ce58fc466d0e3a9d1990404354029398541",
      "to": "0x99d3a4bd3db92d061d7704167a2c6ccd683619d3",
      "contractAddress": null,
      "l1Fee": "0x49e6d900f",
      "l1GasPrice": "0x1c33e2e5a",
      "l1GasUsed": "0x94c"
    },
    {
      "status": "0x1",
      "cumulativeGasUsed": "0x150d1c6",
      "logs": [
        {
          "address": "0x99d3a4bd3db92d061d7704167a2c6ccd683619d3",
          "topics": [
            "0xddf252ad1be2c89b69c2b068fc378daa952ba7f163c4a11628f55a4df523b3ef",
            "0x0000000000000000000000000000000000000000000000000000000000000000",
            "0x0000000000000000000000003d00523185a50dce10bcaa52e7a0df19728f4416",
            "0x0000000000000000000000000000000000000000000000000000000000000037"
          ],
          "data": "0x",
          "blockHash": "0xe56ab1f10f81a991909a393c888374145c592b094084e1a827de156afcdace8c",
          "blockNumber": "0xf7b09c",
          "transactionHash": "0x50c88f93f216b99117e77ead286c5a8a0b16cc93d755ed8c79d43e2225eb5d2b",
          "transactionIndex": "0x36",
          "logIndex": "0x2ca",
          "removed": false
        }
      ],
      "logsBloom": "0x00000000200000000000000000000000000000000000040000000000000000000000000000000000000000000000001000000000000000000000000000000000000000000000000000000008000000000000000000004000000000000000000000000000020000000004000000000800000000000000000000000010000000000000000000000000000000000000000000000000000000000000000000000000000000000000000000000080000000000000000000000000000000000000000000000002000000000000000000000000000000000000000000000000000020000000000000000000000000000000000000000000100000008000000000000000",
      "type": "0x2",
      "transactionHash": "0x50c88f93f216b99117e77ead286c5a8a0b16cc93d755ed8c79d43e2225eb5d2b",
      "transactionIndex": "0x36",
      "blockHash": "0xe56ab1f10f81a991909a393c888374145c592b094084e1a827de156afcdace8c",
      "blockNumber": "0xf7b09c",
      "gasUsed": "0x13c95",
      "effectiveGasPrice": "0x1dc9c99",
      "from": "0x027a5ce58fc466d0e3a9d1990404354029398541",
      "to": "0x99d3a4bd3db92d061d7704167a2c6ccd683619d3",
      "contractAddress": null,
      "l1Fee": "0x49877561c",
      "l1GasPrice": "0x1c33e2e5a",
      "l1GasUsed": "0x940"
    },
    {
      "status": "0x1",
      "cumulativeGasUsed": "0x1520e67",
      "logs": [
        {
          "address": "0x99d3a4bd3db92d061d7704167a2c6ccd683619d3",
          "topics": [
            "0xddf252ad1be2c89b69c2b068fc378daa952ba7f163c4a11628f55a4df523b3ef",
            "0x0000000000000000000000000000000000000000000000000000000000000000",
            "0x000000000000000000000000742fcea22926944b845e7cc363f5454991c223f8",
            "0x0000000000000000000000000000000000000000000000000000000000000038"
          ],
          "data": "0x",
          "blockHash": "0xe56ab1f10f81a991909a393c888374145c592b094084e1a827de156afcdace8c",
          "blockNumber": "0xf7b09c",
          "transactionHash": "0x6f6401637ead05ee48efcfa7bbf3727798c310bd774fa34b5ff0cda5f5fb720c",
          "transactionIndex": "0x37",
          "logIndex": "0x2cb",
          "removed": false
        }
      ],
      "logsBloom": "0x00000000000000000000000000000000000100000000040000000000000000000000000000000000000020000000001000000000000000000000000000000000000000000000000000000008000000000000000000000000000000000000000000000000020000000000000000000800000000002000000000000010000000000000000000000000000000000000000000000000100000000000000000000000000000000000000000000000000000000000000000000000000000000000001000000002000000000000000000000000000000000000000000000000000020000000000000000000000000000000000000000000000000000200000000000000",
      "type": "0x2",
      "transactionHash": "0x6f6401637ead05ee48efcfa7bbf3727798c310bd774fa34b5ff0cda5f5fb720c",
      "transactionIndex": "0x37",
      "blockHash": "0xe56ab1f10f81a991909a393c888374145c592b094084e1a827de156afcdace8c",
      "blockNumber": "0xf7b09c",
      "gasUsed": "0x13ca1",
      "effectiveGasPrice": "0x1dc9c99",
      "from": "0x027a5ce58fc466d0e3a9d1990404354029398541",
      "to": "0x99d3a4bd3db92d061d7704167a2c6ccd683619d3",
      "contractAddress": null,
      "l1Fee": "0x49e6d900f",
      "l1GasPrice": "0x1c33e2e5a",
      "l1GasUsed": "0x94c"
    },
    {
      "status": "0x1",
      "cumulativeGasUsed": "0x1534b08",
      "logs": [
        {
          "address": "0x99d3a4bd3db92d061d7704167a2c6ccd683619d3",
          "topics": [
            "0xddf252ad1be2c89b69c2b068fc378daa952ba7f163c4a11628f55a4df523b3ef",
            "0x0000000000000000000000000000000000000000000000000000000000000000",
            "0x000000000000000000000000323fa1a506012b62f38bd4e3af12fce6d1f2254e",
            "0x0000000000000000000000000000000000000000000000000000000000000039"
          ],
          "data": "0x",
          "blockHash": "0xe56ab1f10f81a991909a393c888374145c592b094084e1a827de156afcdace8c",
          "blockNumber": "0xf7b09c",
          "transactionHash": "0x1dbf599f2dab91aa97df4d97a9e4b5b4b6c658fd020a9a3affcb6eab6961e74b",
          "transactionIndex": "0x38",
          "logIndex": "0x2cc",
          "removed": false
        }
      ],
      "logsBloom": "0x00000000000000000000000000002000000000000000040000000000000000000080000000000000000000000000001000000000000000000000000000000000000000000000000000000008000000000000000000000000000000000000000000000000020000000000000000000800000000000000000000000010004000000000000000000000000000000000000000000000000000008000000000000000000000000000000000000000000000000000000000000000001000000080000000000002000000000000000000000000000000000000000000000000000020000000000000000000000000000000000000000000000000000000000000000000",
      "type": "0x2",
      "transactionHash": "0x1dbf599f2dab91aa97df4d97a9e4b5b4b6c658fd020a9a3affcb6eab6961e74b",
      "transactionIndex": "0x38",
      "blockHash": "0xe56ab1f10f81a991909a393c888374145c592b094084e1a827de156afcdace8c",
      "blockNumber": "0xf7b09c",
      "gasUsed": "0x13ca1",
      "effectiveGasPrice": "0x1dc9c99",
      "from": "0x027a5ce58fc466d0e3a9d1990404354029398541",
      "to": "0x99d3a4bd3db92d061d7704167a2c6ccd683619d3",
      "contractAddress": null,
      "l1Fee": "0x49e6d900f",
      "l1GasPrice": "0x1c33e2e5a",
      "l1GasUsed": "0x94c"
    },
    {
      "status": "0x1",
      "cumulativeGasUsed": "0x15487a9",
      "logs": [
        {
          "address": "0x99d3a4bd3db92d061d7704167a2c6ccd683619d3",
          "topics": [
            "0xddf252ad1be2c89b69c2b068fc378daa952ba7f163c4a11628f55a4df523b3ef",
            "0x0000000000000000000000000000000000000000000000000000000000000000",
            "0x00000000000000000000000034924a4549b28d23eeebe6c4fb4fe30e2ff72827",
            "0x000000000000000000000000000000000000000000000000000000000000003a"
          ],
          "data": "0x",
          "blockHash": "0xe56ab1f10f81a991909a393c888374145c592b094084e1a827de156afcdace8c",
          "blockNumber": "0xf7b09c",
          "transactionHash": "0x3c8a764a2456433e9c55dabd7fd48879e1de94795f047cf8066e15df0b40399e",
          "transactionIndex": "0x39",
          "logIndex": "0x2cd",
          "removed": false
        }
      ],
      "logsBloom": "0x00000000000000000000000000000000000000000000040000100000000000000000000000000000000000000000001000000000000000000000000000000000000000000000000000000008000000020000000000000000000000000000000000000000020000000000000000000800000000000000000000000010000000000000000000000000000800000000000000000080000000000000000000000000000000000000000000000000020000000000000000000000000000000000000000000002000000000000000000000000000000000000000000000000000020000000000000000000000000000000000000000000000000000000000000000000",
      "type": "0x2",
      "transactionHash": "0x3c8a764a2456433e9c55dabd7fd48879e1de94795f047cf8066e15df0b40399e",
      "transactionIndex": "0x39",
      "blockHash": "0xe56ab1f10f81a991909a393c888374145c592b094084e1a827de156afcdace8c",
      "blockNumber": "0xf7b09c",
      "gasUsed": "0x13ca1",
      "effectiveGasPrice": "0x1dc9c99",
      "from": "0x027a5ce58fc466d0e3a9d1990404354029398541",
      "to": "0x99d3a4bd3db92d061d7704167a2c6ccd683619d3",
      "contractAddress": null,
      "l1Fee": "0x49e6d900f",
      "l1GasPrice": "0x1c33e2e5a",
      "l1GasUsed": "0x94c"
    },
    {
      "status": "0x1",
      "cumulativeGasUsed": "0x155c44a",
      "logs": [
        {
          "address": "0x99d3a4bd3db92d061d7704167a2c6ccd683619d3",
          "topics": [
            "0xddf252ad1be2c89b69c2b068fc378daa952ba7f163c4a11628f55a4df523b3ef",
            "0x0000000000000000000000000000000000000000000000000000000000000000",
            "0x00000000000000000000000002fce2eeca511db002bd5cb9ad5c70d6acca9936",
            "0x000000000000000000000000000000000000000000000000000000000000003b"
          ],
          "data": "0x",
          "blockHash": "0xe56ab1f10f81a991909a393c888374145c592b094084e1a827de156afcdace8c",
          "blockNumber": "0xf7b09c",
          "transactionHash": "0x44becaa5560de3a7e065ccbb2d0986eaebb727f25a3451d3a9cc094b600b5e3c",
          "transactionIndex": "0x3a",
          "logIndex": "0x2ce",
          "removed": false
        }
      ],
      "logsBloom": "0x00000000000000000000000000000000000000000000040000000000000000000000000000000000000000000000001000000000000000000000000000000000000000000000000000000008000000000000000000000000000000000000000000000000020000000000000000000820000000000000000000000010000000000000000800000000000000000000000000000000000001000000000000000000000000000000000000000020000000000000000000000000000000000000000000000002000000000000000000000000000000000000000000000002000020000000000000000000000000000000000000000000000002000000000000000000",
      "type": "0x2",
      "transactionHash": "0x44becaa5560de3a7e065ccbb2d0986eaebb727f25a3451d3a9cc094b600b5e3c",
      "transactionIndex": "0x3a",
      "blockHash": "0xe56ab1f10f81a991909a393c888374145c592b094084e1a827de156afcdace8c",
      "blockNumber": "0xf7b09c",
      "gasUsed": "0x13ca1",
      "effectiveGasPrice": "0x1dc9c99",
      "from": "0x027a5ce58fc466d0e3a9d1990404354029398541",
      "to": "0x99d3a4bd3db92d061d7704167a2c6ccd683619d3",
      "contractAddress": null,
      "l1Fee": "0x49e6d900f",
      "l1GasPrice": "0x1c33e2e5a",
      "l1GasUsed": "0x94c"
    },
    {
      "status": "0x1",
      "cumulativeGasUsed": "0x15700eb",
      "logs": [
        {
          "address": "0x99d3a4bd3db92d061d7704167a2c6ccd683619d3",
          "topics": [
            "0xddf252ad1be2c89b69c2b068fc378daa952ba7f163c4a11628f55a4df523b3ef",
            "0x0000000000000000000000000000000000000000000000000000000000000000",
            "0x0000000000000000000000003f59b5e85a9f6c3c94fbcd61b486e44b4f6b5e9f",
            "0x000000000000000000000000000000000000000000000000000000000000003c"
          ],
          "data": "0x",
          "blockHash": "0xe56ab1f10f81a991909a393c888374145c592b094084e1a827de156afcdace8c",
          "blockNumber": "0xf7b09c",
          "transactionHash": "0x2c41209969c111f7eb753555942d803b4ba4badea3b12f8cf6b11300865b69e7",
          "transactionIndex": "0x3b",
          "logIndex": "0x2cf",
          "removed": false
        }
      ],
      "logsBloom": "0x00000000000000000000000000040000000000000000040000000000000000000000000000000a00080000000000001000000000000000000000000000000000000000000000000000000008000000000000000000000000000000000000000010000000020000000000000000000800000000000000000000000010000000000000000000000000000000000000000000000000000000000000000000000000000000000000000000000000000000000000000000000000000000000000000000000002000000000000000000000000000000000000000000000000000020000000000000000000000000000000000000000000000000000000040000000000",
      "type": "0x2",
      "transactionHash": "0x2c41209969c111f7eb753555942d803b4ba4badea3b12f8cf6b11300865b69e7",
      "transactionIndex": "0x3b",
      "blockHash": "0xe56ab1f10f81a991909a393c888374145c592b094084e1a827de156afcdace8c",
      "blockNumber": "0xf7b09c",
      "gasUsed": "0x13ca1",
      "effectiveGasPrice": "0x1dc9c99",
      "from": "0x027a5ce58fc466d0e3a9d1990404354029398541",
      "to": "0x99d3a4bd3db92d061d7704167a2c6ccd683619d3",
      "contractAddress": null,
      "l1Fee": "0x49e6d900f",
      "l1GasPrice": "0x1c33e2e5a",
      "l1GasUsed": "0x94c"
    },
    {
      "status": "0x1",
      "cumulativeGasUsed": "0x1583d8c",
      "logs": [
        {
          "address": "0x99d3a4bd3db92d061d7704167a2c6ccd683619d3",
          "topics": [
            "0xddf252ad1be2c89b69c2b068fc378daa952ba7f163c4a11628f55a4df523b3ef",
            "0x0000000000000000000000000000000000000000000000000000000000000000",
            "0x000000000000000000000000b080e3e7cd25aafd1cb27070491ca8decb9602d9",
            "0x000000000000000000000000000000000000000000000000000000000000003d"
          ],
          "data": "0x",
          "blockHash": "0xe56ab1f10f81a991909a393c888374145c592b094084e1a827de156afcdace8c",
          "blockNumber": "0xf7b09c",
          "transactionHash": "0x4e86ebe050ea0c9ff5c80d532a8458a7f8073ac130b235de69a98e323fac6771",
          "transactionIndex": "0x3c",
          "logIndex": "0x2d0",
          "removed": false
        }
      ],
      "logsBloom": "0x00000000000000000000000000000000000000000000040000000000000000000000000000000000000000000000001000000000000000000000000000000000000000000000000000000008000000000000000000000000000000040000000020000040020000000000000000000800000000000000000000000010000000000000000000000000000000000000000000000000000000000000000000000000000000000000000000000000000000000000000000000000000001000000000000000006000000000000000000000000000000000000000000000000000020000000000000000000000000000000000000000000000000000001000000000000",
      "type": "0x2",
      "transactionHash": "0x4e86ebe050ea0c9ff5c80d532a8458a7f8073ac130b235de69a98e323fac6771",
      "transactionIndex": "0x3c",
      "blockHash": "0xe56ab1f10f81a991909a393c888374145c592b094084e1a827de156afcdace8c",
      "blockNumber": "0xf7b09c",
      "gasUsed": "0x13ca1",
      "effectiveGasPrice": "0x1dc9c99",
      "from": "0x027a5ce58fc466d0e3a9d1990404354029398541",
      "to": "0x99d3a4bd3db92d061d7704167a2c6ccd683619d3",
      "contractAddress": null,
      "l1Fee": "0x49e6d900f",
      "l1GasPrice": "0x1c33e2e5a",
      "l1GasUsed": "0x94c"
    },
    {
      "status": "0x1",
      "cumulativeGasUsed": "0x1597a2d",
      "logs": [
        {
          "address": "0x99d3a4bd3db92d061d7704167a2c6ccd683619d3",
          "topics": [
            "0xddf252ad1be2c89b69c2b068fc378daa952ba7f163c4a11628f55a4df523b3ef",
            "0x0000000000000000000000000000000000000000000000000000000000000000",
            "0x0000000000000000000000008587e11b68c4e4a260b9ddf5d1fb10b5182cdcea",
            "0x000000000000000000000000000000000000000000000000000000000000003e"
          ],
          "data": "0x",
          "blockHash": "0xe56ab1f10f81a991909a393c888374145c592b094084e1a827de156afcdace8c",
          "blockNumber": "0xf7b09c",
          "transactionHash": "0xf4b09552ec15220a482c57ddf8297dafd0b1f9a5d1822f41ddc09cc2747a86ef",
          "transactionIndex": "0x3d",
          "logIndex": "0x2d1",
          "removed": false
        }
      ],
      "logsBloom": "0x00000000000000000040000000000000000000400000040000000000000000000000000000000000000000000000001000000000000000000000000000000000000000000000000000000008000000010000004000000000000000000000000000000000020800000000000000000800000000000000000000000010000000000000000000000000000000000000000000000000000000000000000000000000000000000000000000000000000000000000000000000000000000000000000000000002000000000000000000000000000000000000000000000000000020000000000000000000000000000000000000400000000000000000000000000000",
      "type": "0x2",
      "transactionHash": "0xf4b09552ec15220a482c57ddf8297dafd0b1f9a5d1822f41ddc09cc2747a86ef",
      "transactionIndex": "0x3d",
      "blockHash": "0xe56ab1f10f81a991909a393c888374145c592b094084e1a827de156afcdace8c",
      "blockNumber": "0xf7b09c",
      "gasUsed": "0x13ca1",
      "effectiveGasPrice": "0x1dc9c99",
      "from": "0x027a5ce58fc466d0e3a9d1990404354029398541",
      "to": "0x99d3a4bd3db92d061d7704167a2c6ccd683619d3",
      "contractAddress": null,
      "l1Fee": "0x49e6d900f",
      "l1GasPrice": "0x1c33e2e5a",
      "l1GasUsed": "0x94c"
    },
    {
      "status": "0x1",
      "cumulativeGasUsed": "0x15ab6ce",
      "logs": [
        {
          "address": "0x99d3a4bd3db92d061d7704167a2c6ccd683619d3",
          "topics": [
            "0xddf252ad1be2c89b69c2b068fc378daa952ba7f163c4a11628f55a4df523b3ef",
            "0x0000000000000000000000000000000000000000000000000000000000000000",
            "0x00000000000000000000000096aac1d3e4d1ae5326ffb041673f542dde3ea6b7",
            "0x000000000000000000000000000000000000000000000000000000000000003f"
          ],
          "data": "0x",
          "blockHash": "0xe56ab1f10f81a991909a393c888374145c592b094084e1a827de156afcdace8c",
          "blockNumber": "0xf7b09c",
          "transactionHash": "0x49bb4925856b668a3dcd99f507f8a380736768e8f8174a5792c580ffe12d028c",
          "transactionIndex": "0x3e",
          "logIndex": "0x2d2",
          "removed": false
        }
      ],
      "logsBloom": "0x00000000000000000000000000000000010000000008040000000000000000000000000000000000000000000000001000000000000000000000000000000080000000000000000000000088000000000000000000000000000000000000000000000008020000000000000000000800000000000000000000000010000000000000000000000000000000000000000000000000000000000000000000000000000000000000000000000000000000000000000000000000000000000000000000000002000000000000000000000000000000000000000000000000000020000000000000000000000000000000000000000000000000000001000000000000",
      "type": "0x2",
      "transactionHash": "0x49bb4925856b668a3dcd99f507f8a380736768e8f8174a5792c580ffe12d028c",
      "transactionIndex": "0x3e",
      "blockHash": "0xe56ab1f10f81a991909a393c888374145c592b094084e1a827de156afcdace8c",
      "blockNumber": "0xf7b09c",
      "gasUsed": "0x13ca1",
      "effectiveGasPrice": "0x1dc9c99",
      "from": "0x027a5ce58fc466d0e3a9d1990404354029398541",
      "to": "0x99d3a4bd3db92d061d7704167a2c6ccd683619d3",
      "contractAddress": null,
      "l1Fee": "0x49877561c",
      "l1GasPrice": "0x1c33e2e5a",
      "l1GasUsed": "0x940"
    },
    {
      "status": "0x1",
      "cumulativeGasUsed": "0x7379de",
      "logs": [
        {
          "address": "0x99d3a4bd3db92d061d7704167a2c6ccd683619d3",
          "topics": [
            "0xddf252ad1be2c89b69c2b068fc378daa952ba7f163c4a11628f55a4df523b3ef",
            "0x0000000000000000000000000000000000000000000000000000000000000000",
            "0x000000000000000000000000f5f1c399005249fb6e8177f51b1d54210e3bd714",
            "0x0000000000000000000000000000000000000000000000000000000000000040"
          ],
          "data": "0x",
          "blockHash": "0x80154fcceb525a3317ad83097bebb1f81bcbc86e2bfca83c95680e408db7a57e",
          "blockNumber": "0xf7b09d",
          "transactionHash": "0x1c707093c80f02ecd1a07149a583964aec2e988ab19be0a470af8a7eccef53d7",
          "transactionIndex": "0x29",
          "logIndex": "0xa6",
          "removed": false
        }
      ],
      "logsBloom": "0x00000000000000000000000000008000000000000000040000000002000000000000000100000000000000020002001000000000000000000000000000000000000000000000000000000008000000000000000000000000000080000000000000000000020000000000000000000800000000000000000000000010000000000000000000000000000000000000000000000000000000000000000000000000000000000000000000000000000000000000000000000000000000000000000000000002000000000000000000000000000000000000000000000000000020000000000000000000000000000000000000000000000000000000000000000000",
      "type": "0x2",
      "transactionHash": "0x1c707093c80f02ecd1a07149a583964aec2e988ab19be0a470af8a7eccef53d7",
      "transactionIndex": "0x29",
      "blockHash": "0x80154fcceb525a3317ad83097bebb1f81bcbc86e2bfca83c95680e408db7a57e",
      "blockNumber": "0xf7b09d",
      "gasUsed": "0x13c95",
      "effectiveGasPrice": "0x1ddbada",
      "from": "0x027a5ce58fc466d0e3a9d1990404354029398541",
      "to": "0x99d3a4bd3db92d061d7704167a2c6ccd683619d3",
      "contractAddress": null,
      "l1Fee": "0x49877561c",
      "l1GasPrice": "0x1c33e2e5a",
      "l1GasUsed": "0x940"
    },
    {
      "status": "0x1",
      "cumulativeGasUsed": "0x74b67f",
      "logs": [
        {
          "address": "0x99d3a4bd3db92d061d7704167a2c6ccd683619d3",
          "topics": [
            "0xddf252ad1be2c89b69c2b068fc378daa952ba7f163c4a11628f55a4df523b3ef",
            "0x0000000000000000000000000000000000000000000000000000000000000000",
            "0x000000000000000000000000916375018b118eebb54eb77873e0a524a0959b34",
            "0x0000000000000000000000000000000000000000000000000000000000000041"
          ],
          "data": "0x",
          "blockHash": "0x80154fcceb525a3317ad83097bebb1f81bcbc86e2bfca83c95680e408db7a57e",
          "blockNumber": "0xf7b09d",
          "transactionHash": "0x81d082eab6c672e74326ca45894bd522e057011ad42a54be8b7a4f37886721d7",
          "transactionIndex": "0x2a",
          "logIndex": "0xa7",
          "removed": false
        }
      ],
      "logsBloom": "0x00000000000000000000000000000000000000000000040000000000000100000000000000000000000000000000001000000000000001000000000000000000000001000000000000000008000000000000000000000000000000000000000000000000020100000000000000800800000000000000000000000010004000000000000000000000000000000000000000000000000000000000000000000000000000000000000000000000000000000000000000000000000000000000000000000002000000000000000000000000000000000000000000000000000020000000000000000000000000000000000000000000000000000000000000000000",
      "type": "0x2",
      "transactionHash": "0x81d082eab6c672e74326ca45894bd522e057011ad42a54be8b7a4f37886721d7",
      "transactionIndex": "0x2a",
      "blockHash": "0x80154fcceb525a3317ad83097bebb1f81bcbc86e2bfca83c95680e408db7a57e",
      "blockNumber": "0xf7b09d",
      "gasUsed": "0x13ca1",
      "effectiveGasPrice": "0x1ddbada",
      "from": "0x027a5ce58fc466d0e3a9d1990404354029398541",
      "to": "0x99d3a4bd3db92d061d7704167a2c6ccd683619d3",
      "contractAddress": null,
      "l1Fee": "0x49877561c",
      "l1GasPrice": "0x1c33e2e5a",
      "l1GasUsed": "0x940"
    }
  ],
  "libraries": [],
  "pending": [],
  "returns": {},
  "timestamp": 1719254566,
  "chain": 8453,
  "commit": "3dd2ed9"
}