{
  "transactions": [
    {
      "hash": "0x8ce5283755a893b046e035a13762cbe1e33df5d0b2a6a61eb9515783cbe2bc47",
      "transactionType": "CALL",
      "contractName": null,
      "contractAddress": "0x3530bf96982fa5a9e0d8bad84d3587e51a33d332",
      "function": "safeMint(address,uint256)",
      "arguments": [
        "0x54aE72de93fe75E04CEb8eDbcEff562523794f5B",
        "13378"
      ],
      "transaction": {
        "from": "0x027a5ce58fc466d0e3a9d1990404354029398541",
        "to": "0x3530bf96982fa5a9e0d8bad84d3587e51a33d332",
        "gas": "0x1b958",
        "value": "0x0",
        "input": "0xa144819400000000000000000000000054ae72de93fe75e04ceb8edbceff562523794f5b0000000000000000000000000000000000000000000000000000000000003442",
        "nonce": "0x3573",
        "chainId": "0x2105"
      },
      "additionalContracts": [],
      "isFixedGasLimit": false
    },
    {
      "hash": "0x5994e2058bd28f94f421807452886777521ea7e392f6331ed9b3a947adce7ebb",
      "transactionType": "CALL",
      "contractName": null,
      "contractAddress": "0x3530bf96982fa5a9e0d8bad84d3587e51a33d332",
      "function": "safeMint(address,uint256)",
      "arguments": [
        "0xCBd7d15Cbb99Ac716656eaab140CC5cb9d7D4b95",
        "13379"
      ],
      "transaction": {
        "from": "0x027a5ce58fc466d0e3a9d1990404354029398541",
        "to": "0x3530bf96982fa5a9e0d8bad84d3587e51a33d332",
        "gas": "0x1b958",
        "value": "0x0",
        "input": "0xa1448194000000000000000000000000cbd7d15cbb99ac716656eaab140cc5cb9d7d4b950000000000000000000000000000000000000000000000000000000000003443",
        "nonce": "0x3574",
        "chainId": "0x2105"
      },
      "additionalContracts": [],
      "isFixedGasLimit": false
    },
    {
      "hash": "0x9998893b529f998c0ac03dcab9064f82fb51101b4dbbbd2efb7f46261403da12",
      "transactionType": "CALL",
      "contractName": null,
      "contractAddress": "0x3530bf96982fa5a9e0d8bad84d3587e51a33d332",
      "function": "safeMint(address,uint256)",
      "arguments": [
        "0x895a77133Dac4B7dC21C428003c2633593dEF9f0",
        "13380"
      ],
      "transaction": {
        "from": "0x027a5ce58fc466d0e3a9d1990404354029398541",
        "to": "0x3530bf96982fa5a9e0d8bad84d3587e51a33d332",
        "gas": "0x1b958",
        "value": "0x0",
        "input": "0xa1448194000000000000000000000000895a77133dac4b7dc21c428003c2633593def9f00000000000000000000000000000000000000000000000000000000000003444",
        "nonce": "0x3575",
        "chainId": "0x2105"
      },
      "additionalContracts": [],
      "isFixedGasLimit": false
    },
    {
      "hash": "0x6c675cbda6c3524c3b4d8126406c0bcae23ff44eef5570354e177cd77ea5c0eb",
      "transactionType": "CALL",
      "contractName": null,
      "contractAddress": "0x3530bf96982fa5a9e0d8bad84d3587e51a33d332",
      "function": "safeMint(address,uint256)",
      "arguments": [
        "0xb68b0718d22887db9cA80ebFa6659E55C418C6E0",
        "13381"
      ],
      "transaction": {
        "from": "0x027a5ce58fc466d0e3a9d1990404354029398541",
        "to": "0x3530bf96982fa5a9e0d8bad84d3587e51a33d332",
        "gas": "0x1b958",
        "value": "0x0",
        "input": "0xa1448194000000000000000000000000b68b0718d22887db9ca80ebfa6659e55c418c6e00000000000000000000000000000000000000000000000000000000000003445",
        "nonce": "0x3576",
        "chainId": "0x2105"
      },
      "additionalContracts": [],
      "isFixedGasLimit": false
    },
    {
      "hash": "0x65fa39402983fc02a174874f71c097d2125d349f1e4a368d6b65695916ba5c97",
      "transactionType": "CALL",
      "contractName": null,
      "contractAddress": "0x3530bf96982fa5a9e0d8bad84d3587e51a33d332",
      "function": "safeMint(address,uint256)",
      "arguments": [
        "0xcd8E23BCc8F405F11D81075E4C58bE8cD6641Ae9",
        "13382"
      ],
      "transaction": {
        "from": "0x027a5ce58fc466d0e3a9d1990404354029398541",
        "to": "0x3530bf96982fa5a9e0d8bad84d3587e51a33d332",
        "gas": "0x1b958",
        "value": "0x0",
        "input": "0xa1448194000000000000000000000000cd8e23bcc8f405f11d81075e4c58be8cd6641ae90000000000000000000000000000000000000000000000000000000000003446",
        "nonce": "0x3577",
        "chainId": "0x2105"
      },
      "additionalContracts": [],
      "isFixedGasLimit": false
    },
    {
      "hash": "0xb874a2a130ef3f4dbdc3e6beefdd958a34c96007cdd7793b31c53a614f896839",
      "transactionType": "CALL",
      "contractName": null,
      "contractAddress": "0x3530bf96982fa5a9e0d8bad84d3587e51a33d332",
      "function": "safeMint(address,uint256)",
      "arguments": [
        "0xffC54eF536B51F36ffc657b146fBCc431BA42A9E",
        "13383"
      ],
      "transaction": {
        "from": "0x027a5ce58fc466d0e3a9d1990404354029398541",
        "to": "0x3530bf96982fa5a9e0d8bad84d3587e51a33d332",
        "gas": "0x1b958",
        "value": "0x0",
        "input": "0xa1448194000000000000000000000000ffc54ef536b51f36ffc657b146fbcc431ba42a9e0000000000000000000000000000000000000000000000000000000000003447",
        "nonce": "0x3578",
        "chainId": "0x2105"
      },
      "additionalContracts": [],
      "isFixedGasLimit": false
    },
    {
      "hash": "0xbb0cd7c5e7a2cd2f7d6d407eb6946ca7de5de6054ff4cc0fd6ec6e94e7336ad0",
      "transactionType": "CALL",
      "contractName": null,
      "contractAddress": "0x3530bf96982fa5a9e0d8bad84d3587e51a33d332",
      "function": "safeMint(address,uint256)",
      "arguments": [
        "0x7Ce57277d19075f34fA09d82391c796f027759AA",
        "13384"
      ],
      "transaction": {
        "from": "0x027a5ce58fc466d0e3a9d1990404354029398541",
        "to": "0x3530bf96982fa5a9e0d8bad84d3587e51a33d332",
        "gas": "0x1b958",
        "value": "0x0",
        "input": "0xa14481940000000000000000000000007ce57277d19075f34fa09d82391c796f027759aa0000000000000000000000000000000000000000000000000000000000003448",
        "nonce": "0x3579",
        "chainId": "0x2105"
      },
      "additionalContracts": [],
      "isFixedGasLimit": false
    },
    {
      "hash": "0x9e5428cdb8f3011a8d375c04b151e100c767e8cdeb25a085aea4a6397861c847",
      "transactionType": "CALL",
      "contractName": null,
      "contractAddress": "0x3530bf96982fa5a9e0d8bad84d3587e51a33d332",
      "function": "safeMint(address,uint256)",
      "arguments": [
        "0xAFFa58a1008301dED8732f991E51C4E3fFBD8A6C",
        "13385"
      ],
      "transaction": {
        "from": "0x027a5ce58fc466d0e3a9d1990404354029398541",
        "to": "0x3530bf96982fa5a9e0d8bad84d3587e51a33d332",
        "gas": "0x1d33d",
        "value": "0x0",
        "input": "0xa1448194000000000000000000000000affa58a1008301ded8732f991e51c4e3ffbd8a6c0000000000000000000000000000000000000000000000000000000000003449",
        "nonce": "0x357a",
        "chainId": "0x2105"
      },
      "additionalContracts": [],
      "isFixedGasLimit": false
    },
    {
      "hash": "0x049f410cb97e7c5f2830ba56f9474e577ccf4144282105038bc759ffe9e7e6f8",
      "transactionType": "CALL",
      "contractName": null,
      "contractAddress": "0x3530bf96982fa5a9e0d8bad84d3587e51a33d332",
      "function": "safeMint(address,uint256)",
      "arguments": [
        "0x407ac624E4876A51b756e333F0e010D56dA95A56",
        "13386"
      ],
      "transaction": {
        "from": "0x027a5ce58fc466d0e3a9d1990404354029398541",
        "to": "0x3530bf96982fa5a9e0d8bad84d3587e51a33d332",
        "gas": "0x1b958",
        "value": "0x0",
        "input": "0xa1448194000000000000000000000000407ac624e4876a51b756e333f0e010d56da95a56000000000000000000000000000000000000000000000000000000000000344a",
        "nonce": "0x357b",
        "chainId": "0x2105"
      },
      "additionalContracts": [],
      "isFixedGasLimit": false
    },
    {
      "hash": "0xb99db25be9edbcb93e2d0e03ddf73dae38feff650919051a327d5a8bc1ab8844",
      "transactionType": "CALL",
      "contractName": null,
      "contractAddress": "0x3530bf96982fa5a9e0d8bad84d3587e51a33d332",
      "function": "safeMint(address,uint256)",
      "arguments": [
        "0x832355cE6D1058D531eBde938dA3EaCb09437658",
        "13387"
      ],
      "transaction": {
        "from": "0x027a5ce58fc466d0e3a9d1990404354029398541",
        "to": "0x3530bf96982fa5a9e0d8bad84d3587e51a33d332",
        "gas": "0x1b958",
        "value": "0x0",
        "input": "0xa1448194000000000000000000000000832355ce6d1058d531ebde938da3eacb09437658000000000000000000000000000000000000000000000000000000000000344b",
        "nonce": "0x357c",
        "chainId": "0x2105"
      },
      "additionalContracts": [],
      "isFixedGasLimit": false
    },
    {
      "hash": "0xa7db0267c3369b0f642684d89a9968447e116b37040cc2bb4283221c61a5f184",
      "transactionType": "CALL",
      "contractName": null,
      "contractAddress": "0x3530bf96982fa5a9e0d8bad84d3587e51a33d332",
      "function": "safeMint(address,uint256)",
      "arguments": [
        "0xb8e59A6Fb75D2feab9d01405964e3cEfeE83f74b",
        "13388"
      ],
      "transaction": {
        "from": "0x027a5ce58fc466d0e3a9d1990404354029398541",
        "to": "0x3530bf96982fa5a9e0d8bad84d3587e51a33d332",
        "gas": "0x1b958",
        "value": "0x0",
        "input": "0xa1448194000000000000000000000000b8e59a6fb75d2feab9d01405964e3cefee83f74b000000000000000000000000000000000000000000000000000000000000344c",
        "nonce": "0x357d",
        "chainId": "0x2105"
      },
      "additionalContracts": [],
      "isFixedGasLimit": false
    },
    {
      "hash": "0x0396865e50921189e933de2192b005395130e93260e44fa67583b3a4495ece39",
      "transactionType": "CALL",
      "contractName": null,
      "contractAddress": "0x3530bf96982fa5a9e0d8bad84d3587e51a33d332",
      "function": "safeMint(address,uint256)",
      "arguments": [
        "0x1AFD29b6C99272e0889206279B2299a34d928C47",
        "13389"
      ],
      "transaction": {
        "from": "0x027a5ce58fc466d0e3a9d1990404354029398541",
        "to": "0x3530bf96982fa5a9e0d8bad84d3587e51a33d332",
        "gas": "0x1b958",
        "value": "0x0",
        "input": "0xa14481940000000000000000000000001afd29b6c99272e0889206279b2299a34d928c47000000000000000000000000000000000000000000000000000000000000344d",
        "nonce": "0x357e",
        "chainId": "0x2105"
      },
      "additionalContracts": [],
      "isFixedGasLimit": false
    },
    {
      "hash": "0x1200cb8281db5c76ec3d0113378c935bf4efe40fd920c637db2cf34e1f70734a",
      "transactionType": "CALL",
      "contractName": null,
      "contractAddress": "0x3530bf96982fa5a9e0d8bad84d3587e51a33d332",
      "function": "safeMint(address,uint256)",
      "arguments": [
        "0xFaFEC344b71676AeF0677756ca0dEaD889962343",
        "13390"
      ],
      "transaction": {
        "from": "0x027a5ce58fc466d0e3a9d1990404354029398541",
        "to": "0x3530bf96982fa5a9e0d8bad84d3587e51a33d332",
        "gas": "0x1b958",
        "value": "0x0",
        "input": "0xa1448194000000000000000000000000fafec344b71676aef0677756ca0dead889962343000000000000000000000000000000000000000000000000000000000000344e",
        "nonce": "0x357f",
        "chainId": "0x2105"
      },
      "additionalContracts": [],
      "isFixedGasLimit": false
    },
    {
      "hash": "0x9d0c8913c406b96af8cee7516038e2c08571c421973c4e8b547093cdd1f0ded6",
      "transactionType": "CALL",
      "contractName": null,
      "contractAddress": "0x3530bf96982fa5a9e0d8bad84d3587e51a33d332",
      "function": "safeMint(address,uint256)",
      "arguments": [
        "0xD3858e21A6BAA209bE27D9E053458Ce6906B4790",
        "13391"
      ],
      "transaction": {
        "from": "0x027a5ce58fc466d0e3a9d1990404354029398541",
        "to": "0x3530bf96982fa5a9e0d8bad84d3587e51a33d332",
        "gas": "0x1b958",
        "value": "0x0",
        "input": "0xa1448194000000000000000000000000d3858e21a6baa209be27d9e053458ce6906b4790000000000000000000000000000000000000000000000000000000000000344f",
        "nonce": "0x3580",
        "chainId": "0x2105"
      },
      "additionalContracts": [],
      "isFixedGasLimit": false
    },
    {
      "hash": "0x380704f1c55ed7ddf9151c357acf2f548156006cbfae9af1c0605f13438aef18",
      "transactionType": "CALL",
      "contractName": null,
      "contractAddress": "0x3530bf96982fa5a9e0d8bad84d3587e51a33d332",
      "function": "safeMint(address,uint256)",
      "arguments": [
        "0xaAD1b961f39a37AE85b70aE357BD20De1954ed36",
        "13392"
      ],
      "transaction": {
        "from": "0x027a5ce58fc466d0e3a9d1990404354029398541",
        "to": "0x3530bf96982fa5a9e0d8bad84d3587e51a33d332",
        "gas": "0x1b958",
        "value": "0x0",
        "input": "0xa1448194000000000000000000000000aad1b961f39a37ae85b70ae357bd20de1954ed360000000000000000000000000000000000000000000000000000000000003450",
        "nonce": "0x3581",
        "chainId": "0x2105"
      },
      "additionalContracts": [],
      "isFixedGasLimit": false
    },
    {
      "hash": "0x9ff603d48fddca95150add1c542c7215589d41f97e95fa9daae10f712f5b941b",
      "transactionType": "CALL",
      "contractName": null,
      "contractAddress": "0x3530bf96982fa5a9e0d8bad84d3587e51a33d332",
      "function": "safeMint(address,uint256)",
      "arguments": [
        "0xEBebC21F43d46d59985878864146BC9f0a42227E",
        "13393"
      ],
      "transaction": {
        "from": "0x027a5ce58fc466d0e3a9d1990404354029398541",
        "to": "0x3530bf96982fa5a9e0d8bad84d3587e51a33d332",
        "gas": "0x1b958",
        "value": "0x0",
        "input": "0xa1448194000000000000000000000000ebebc21f43d46d59985878864146bc9f0a42227e0000000000000000000000000000000000000000000000000000000000003451",
        "nonce": "0x3582",
        "chainId": "0x2105"
      },
      "additionalContracts": [],
      "isFixedGasLimit": false
    },
    {
      "hash": "0x9551cb46aa7f826d7d16a1195f341cb25252856b9fea36ac05e6f5dd0157a6c0",
      "transactionType": "CALL",
      "contractName": null,
      "contractAddress": "0x3530bf96982fa5a9e0d8bad84d3587e51a33d332",
      "function": "safeMint(address,uint256)",
      "arguments": [
        "0x4463F3DF05a4B297D29562A94F5C4ffDD98Afa9a",
        "13394"
      ],
      "transaction": {
        "from": "0x027a5ce58fc466d0e3a9d1990404354029398541",
        "to": "0x3530bf96982fa5a9e0d8bad84d3587e51a33d332",
        "gas": "0x1b958",
        "value": "0x0",
        "input": "0xa14481940000000000000000000000004463f3df05a4b297d29562a94f5c4ffdd98afa9a0000000000000000000000000000000000000000000000000000000000003452",
        "nonce": "0x3583",
        "chainId": "0x2105"
      },
      "additionalContracts": [],
      "isFixedGasLimit": false
    },
    {
      "hash": "0x1bc2d09119f778c52de5b7538db7e87aa75cdb622f67eb2185af4ad043481c77",
      "transactionType": "CALL",
      "contractName": null,
      "contractAddress": "0x3530bf96982fa5a9e0d8bad84d3587e51a33d332",
      "function": "safeMint(address,uint256)",
      "arguments": [
        "0x031bc8B88562493A23EBAC35718e944D035fdeA4",
        "13395"
      ],
      "transaction": {
        "from": "0x027a5ce58fc466d0e3a9d1990404354029398541",
        "to": "0x3530bf96982fa5a9e0d8bad84d3587e51a33d332",
        "gas": "0x1b958",
        "value": "0x0",
        "input": "0xa1448194000000000000000000000000031bc8b88562493a23ebac35718e944d035fdea40000000000000000000000000000000000000000000000000000000000003453",
        "nonce": "0x3584",
        "chainId": "0x2105"
      },
      "additionalContracts": [],
      "isFixedGasLimit": false
    },
    {
      "hash": "0xeb02c2b70dfd1e100ef60817f8a34813e6fc3eaee7d7ce39966731eb8200c61a",
      "transactionType": "CALL",
      "contractName": null,
      "contractAddress": "0x3530bf96982fa5a9e0d8bad84d3587e51a33d332",
      "function": "safeMint(address,uint256)",
      "arguments": [
        "0x195cbCD2DE87e11CD3dC3B7Cc3a81E84b93ac521",
        "13396"
      ],
      "transaction": {
        "from": "0x027a5ce58fc466d0e3a9d1990404354029398541",
        "to": "0x3530bf96982fa5a9e0d8bad84d3587e51a33d332",
        "gas": "0x1b958",
        "value": "0x0",
        "input": "0xa1448194000000000000000000000000195cbcd2de87e11cd3dc3b7cc3a81e84b93ac5210000000000000000000000000000000000000000000000000000000000003454",
        "nonce": "0x3585",
        "chainId": "0x2105"
      },
      "additionalContracts": [],
      "isFixedGasLimit": false
    },
    {
      "hash": "0x21b100f5031a41da3f3dbfa6207fd3873ad6dc5594e63a566cd6c6435329c21f",
      "transactionType": "CALL",
      "contractName": null,
      "contractAddress": "0x3530bf96982fa5a9e0d8bad84d3587e51a33d332",
      "function": "safeMint(address,uint256)",
      "arguments": [
        "0x3cCd38Faf46a8465231D2752BEF36e5556545aF0",
        "13397"
      ],
      "transaction": {
        "from": "0x027a5ce58fc466d0e3a9d1990404354029398541",
        "to": "0x3530bf96982fa5a9e0d8bad84d3587e51a33d332",
        "gas": "0x1b958",
        "value": "0x0",
        "input": "0xa14481940000000000000000000000003ccd38faf46a8465231d2752bef36e5556545af00000000000000000000000000000000000000000000000000000000000003455",
        "nonce": "0x3586",
        "chainId": "0x2105"
      },
      "additionalContracts": [],
      "isFixedGasLimit": false
    },
    {
      "hash": "0xb174679bf3446d587361c5e53f3e541c1e0cfdefdc178c0ee9836a73331637b8",
      "transactionType": "CALL",
      "contractName": null,
      "contractAddress": "0x3530bf96982fa5a9e0d8bad84d3587e51a33d332",
      "function": "safeMint(address,uint256)",
      "arguments": [
        "0xDc5d0e333eA5220e41928538B023EA64aB41B81C",
        "13398"
      ],
      "transaction": {
        "from": "0x027a5ce58fc466d0e3a9d1990404354029398541",
        "to": "0x3530bf96982fa5a9e0d8bad84d3587e51a33d332",
        "gas": "0x1b958",
        "value": "0x0",
        "input": "0xa1448194000000000000000000000000dc5d0e333ea5220e41928538b023ea64ab41b81c0000000000000000000000000000000000000000000000000000000000003456",
        "nonce": "0x3587",
        "chainId": "0x2105"
      },
      "additionalContracts": [],
      "isFixedGasLimit": false
    },
    {
      "hash": "0xfa44ee40c666e9b96f1dee2207fb07d4176bb5895248407ccc17578ba3853b9d",
      "transactionType": "CALL",
      "contractName": null,
      "contractAddress": "0x3530bf96982fa5a9e0d8bad84d3587e51a33d332",
      "function": "safeMint(address,uint256)",
      "arguments": [
        "0xC9cdD1DeA780Da17a95eFc72780B6b33Fd49134A",
        "13399"
      ],
      "transaction": {
        "from": "0x027a5ce58fc466d0e3a9d1990404354029398541",
        "to": "0x3530bf96982fa5a9e0d8bad84d3587e51a33d332",
        "gas": "0x1b958",
        "value": "0x0",
        "input": "0xa1448194000000000000000000000000c9cdd1dea780da17a95efc72780b6b33fd49134a0000000000000000000000000000000000000000000000000000000000003457",
        "nonce": "0x3588",
        "chainId": "0x2105"
      },
      "additionalContracts": [],
      "isFixedGasLimit": false
    },
    {
      "hash": "0x7e1692b860b50b3bf83dacb5bef72e47042aac0477a7dc49f068570d27b0e753",
      "transactionType": "CALL",
      "contractName": null,
      "contractAddress": "0x3530bf96982fa5a9e0d8bad84d3587e51a33d332",
      "function": "safeMint(address,uint256)",
      "arguments": [
        "0xB9CB4C538210b69a4d5b5dFA4e18c52193170fA9",
        "13400"
      ],
      "transaction": {
        "from": "0x027a5ce58fc466d0e3a9d1990404354029398541",
        "to": "0x3530bf96982fa5a9e0d8bad84d3587e51a33d332",
        "gas": "0x1b958",
        "value": "0x0",
        "input": "0xa1448194000000000000000000000000b9cb4c538210b69a4d5b5dfa4e18c52193170fa90000000000000000000000000000000000000000000000000000000000003458",
        "nonce": "0x3589",
        "chainId": "0x2105"
      },
      "additionalContracts": [],
      "isFixedGasLimit": false
    },
    {
      "hash": "0x7c78daa97336d4d8e5d4f6fb5569326121cd87c8e515ca57743e0bcffc7756ab",
      "transactionType": "CALL",
      "contractName": null,
      "contractAddress": "0x3530bf96982fa5a9e0d8bad84d3587e51a33d332",
      "function": "safeMint(address,uint256)",
      "arguments": [
        "0xb9C1c633d7802aAF30C153c266759EAe27d054bD",
        "13401"
      ],
      "transaction": {
        "from": "0x027a5ce58fc466d0e3a9d1990404354029398541",
        "to": "0x3530bf96982fa5a9e0d8bad84d3587e51a33d332",
        "gas": "0x1b958",
        "value": "0x0",
        "input": "0xa1448194000000000000000000000000b9c1c633d7802aaf30c153c266759eae27d054bd0000000000000000000000000000000000000000000000000000000000003459",
        "nonce": "0x358a",
        "chainId": "0x2105"
      },
      "additionalContracts": [],
      "isFixedGasLimit": false
    },
    {
      "hash": "0x201e6e402281878749d0107d8782912b5d7d81820c3e954d9621cf7c77a05dc5",
      "transactionType": "CALL",
      "contractName": null,
      "contractAddress": "0x3530bf96982fa5a9e0d8bad84d3587e51a33d332",
      "function": "safeMint(address,uint256)",
      "arguments": [
        "0xb4F35d3998512f45312Fa4059bD2A6F466A66F31",
        "13402"
      ],
      "transaction": {
        "from": "0x027a5ce58fc466d0e3a9d1990404354029398541",
        "to": "0x3530bf96982fa5a9e0d8bad84d3587e51a33d332",
        "gas": "0x1b958",
        "value": "0x0",
        "input": "0xa1448194000000000000000000000000b4f35d3998512f45312fa4059bd2a6f466a66f31000000000000000000000000000000000000000000000000000000000000345a",
        "nonce": "0x358b",
        "chainId": "0x2105"
      },
      "additionalContracts": [],
      "isFixedGasLimit": false
    },
    {
      "hash": "0x60fcce34ff0003bbe98cf00e20f17421feea87e79be33ac85cd5c9ffd845104f",
      "transactionType": "CALL",
      "contractName": null,
      "contractAddress": "0x3530bf96982fa5a9e0d8bad84d3587e51a33d332",
      "function": "safeMint(address,uint256)",
      "arguments": [
        "0x5D57B4486C006c1E20273A1B69424e390678DF34",
        "13403"
      ],
      "transaction": {
        "from": "0x027a5ce58fc466d0e3a9d1990404354029398541",
        "to": "0x3530bf96982fa5a9e0d8bad84d3587e51a33d332",
        "gas": "0x1d33d",
        "value": "0x0",
        "input": "0xa14481940000000000000000000000005d57b4486c006c1e20273a1b69424e390678df34000000000000000000000000000000000000000000000000000000000000345b",
        "nonce": "0x358c",
        "chainId": "0x2105"
      },
      "additionalContracts": [],
      "isFixedGasLimit": false
    },
    {
      "hash": "0xf5eeda4c954715f5978f59a0b0192927533313d217e218a4d27319a843f60461",
      "transactionType": "CALL",
      "contractName": null,
      "contractAddress": "0x3530bf96982fa5a9e0d8bad84d3587e51a33d332",
      "function": "safeMint(address,uint256)",
      "arguments": [
        "0xb22f8b47165193Dd47b534C4cE74b97A62e25aA6",
        "13404"
      ],
      "transaction": {
        "from": "0x027a5ce58fc466d0e3a9d1990404354029398541",
        "to": "0x3530bf96982fa5a9e0d8bad84d3587e51a33d332",
        "gas": "0x1b958",
        "value": "0x0",
        "input": "0xa1448194000000000000000000000000b22f8b47165193dd47b534c4ce74b97a62e25aa6000000000000000000000000000000000000000000000000000000000000345c",
        "nonce": "0x358d",
        "chainId": "0x2105"
      },
      "additionalContracts": [],
      "isFixedGasLimit": false
    },
    {
      "hash": "0xfe7dc94bc1122db3ac38735eb0a5ce53a9f8458d7aade836c4ec7d46cf90c190",
      "transactionType": "CALL",
      "contractName": null,
      "contractAddress": "0x3530bf96982fa5a9e0d8bad84d3587e51a33d332",
      "function": "safeMint(address,uint256)",
      "arguments": [
        "0x3be52dd4d4229f9B6BDe0640E698A9949A45F5c0",
        "13405"
      ],
      "transaction": {
        "from": "0x027a5ce58fc466d0e3a9d1990404354029398541",
        "to": "0x3530bf96982fa5a9e0d8bad84d3587e51a33d332",
        "gas": "0x1b958",
        "value": "0x0",
        "input": "0xa14481940000000000000000000000003be52dd4d4229f9b6bde0640e698a9949a45f5c0000000000000000000000000000000000000000000000000000000000000345d",
        "nonce": "0x358e",
        "chainId": "0x2105"
      },
      "additionalContracts": [],
      "isFixedGasLimit": false
    },
    {
      "hash": "0xcbad35f6cbd6e23f9ac6c066d21efb991da244c294ff17938849d0b94887808f",
      "transactionType": "CALL",
      "contractName": null,
      "contractAddress": "0x3530bf96982fa5a9e0d8bad84d3587e51a33d332",
      "function": "safeMint(address,uint256)",
      "arguments": [
        "0x880239580059889bC90228DFd127bCF069f1003C",
        "13406"
      ],
      "transaction": {
        "from": "0x027a5ce58fc466d0e3a9d1990404354029398541",
        "to": "0x3530bf96982fa5a9e0d8bad84d3587e51a33d332",
        "gas": "0x1b936",
        "value": "0x0",
        "input": "0xa1448194000000000000000000000000880239580059889bc90228dfd127bcf069f1003c000000000000000000000000000000000000000000000000000000000000345e",
        "nonce": "0x358f",
        "chainId": "0x2105"
      },
      "additionalContracts": [],
      "isFixedGasLimit": false
    },
    {
      "hash": "0xdcdb1debac351d2df1230e468f1c03c03c298a5f8c4860fd272b90bfac28b998",
      "transactionType": "CALL",
      "contractName": null,
      "contractAddress": "0x3530bf96982fa5a9e0d8bad84d3587e51a33d332",
      "function": "safeMint(address,uint256)",
      "arguments": [
        "0x5097e7875FA713071825e06c12240331CC54ca02",
        "13407"
      ],
      "transaction": {
        "from": "0x027a5ce58fc466d0e3a9d1990404354029398541",
        "to": "0x3530bf96982fa5a9e0d8bad84d3587e51a33d332",
        "gas": "0x1b958",
        "value": "0x0",
        "input": "0xa14481940000000000000000000000005097e7875fa713071825e06c12240331cc54ca02000000000000000000000000000000000000000000000000000000000000345f",
        "nonce": "0x3590",
        "chainId": "0x2105"
      },
      "additionalContracts": [],
      "isFixedGasLimit": false
    },
    {
      "hash": "0x402273317d289a503819552413a20e248aa2b5c66562500c1f0d5fe7166ec4d9",
      "transactionType": "CALL",
      "contractName": null,
      "contractAddress": "0x3530bf96982fa5a9e0d8bad84d3587e51a33d332",
      "function": "safeMint(address,uint256)",
      "arguments": [
        "0xFD4532d4Ec4F33DC237FDb958fCB207823E4504b",
        "13408"
      ],
      "transaction": {
        "from": "0x027a5ce58fc466d0e3a9d1990404354029398541",
        "to": "0x3530bf96982fa5a9e0d8bad84d3587e51a33d332",
        "gas": "0x1b958",
        "value": "0x0",
        "input": "0xa1448194000000000000000000000000fd4532d4ec4f33dc237fdb958fcb207823e4504b0000000000000000000000000000000000000000000000000000000000003460",
        "nonce": "0x3591",
        "chainId": "0x2105"
      },
      "additionalContracts": [],
      "isFixedGasLimit": false
    },
    {
      "hash": "0x6df6aec4a3516319af39b2aba44602ed3a7278f01c3f169ba28d89675882f848",
      "transactionType": "CALL",
      "contractName": null,
      "contractAddress": "0x3530bf96982fa5a9e0d8bad84d3587e51a33d332",
      "function": "safeMint(address,uint256)",
      "arguments": [
        "0x5Ac2D1cb7a23ED56fBA04946BEb1FD351F0c9f8a",
        "13409"
      ],
      "transaction": {
        "from": "0x027a5ce58fc466d0e3a9d1990404354029398541",
        "to": "0x3530bf96982fa5a9e0d8bad84d3587e51a33d332",
        "gas": "0x1b958",
        "value": "0x0",
        "input": "0xa14481940000000000000000000000005ac2d1cb7a23ed56fba04946beb1fd351f0c9f8a0000000000000000000000000000000000000000000000000000000000003461",
        "nonce": "0x3592",
        "chainId": "0x2105"
      },
      "additionalContracts": [],
      "isFixedGasLimit": false
    },
    {
      "hash": "0x21301c81e8a1785b3b8c194d96f54e5ca63b75c192c3b6ed269f9ba32a9fe07f",
      "transactionType": "CALL",
      "contractName": null,
      "contractAddress": "0x3530bf96982fa5a9e0d8bad84d3587e51a33d332",
      "function": "safeMint(address,uint256)",
      "arguments": [
        "0x957d605A6F4412B41c73cE40e9e3B615c02F25C2",
        "13410"
      ],
      "transaction": {
        "from": "0x027a5ce58fc466d0e3a9d1990404354029398541",
        "to": "0x3530bf96982fa5a9e0d8bad84d3587e51a33d332",
        "gas": "0x1b958",
        "value": "0x0",
        "input": "0xa1448194000000000000000000000000957d605a6f4412b41c73ce40e9e3b615c02f25c20000000000000000000000000000000000000000000000000000000000003462",
        "nonce": "0x3593",
        "chainId": "0x2105"
      },
      "additionalContracts": [],
      "isFixedGasLimit": false
    },
    {
      "hash": "0x30dcd0617200f64030d1e65b20c2ac22cb89f8f23c1f60fed7f8d95ce46e78e4",
      "transactionType": "CALL",
      "contractName": null,
      "contractAddress": "0x3530bf96982fa5a9e0d8bad84d3587e51a33d332",
      "function": "safeMint(address,uint256)",
      "arguments": [
        "0x5C794666020005d2FFFAcEa7b91b4b3b0915E8b4",
        "13411"
      ],
      "transaction": {
        "from": "0x027a5ce58fc466d0e3a9d1990404354029398541",
        "to": "0x3530bf96982fa5a9e0d8bad84d3587e51a33d332",
        "gas": "0x1d33d",
        "value": "0x0",
        "input": "0xa14481940000000000000000000000005c794666020005d2fffacea7b91b4b3b0915e8b40000000000000000000000000000000000000000000000000000000000003463",
        "nonce": "0x3594",
        "chainId": "0x2105"
      },
      "additionalContracts": [],
      "isFixedGasLimit": false
    },
    {
      "hash": "0x1e29b7937681f0579912ba3bcae720a4c51d8ffa9d061d6ac8979dfd6c4a5f40",
      "transactionType": "CALL",
      "contractName": null,
      "contractAddress": "0x3530bf96982fa5a9e0d8bad84d3587e51a33d332",
      "function": "safeMint(address,uint256)",
      "arguments": [
        "0x0000000000b92ac90d898eBa87fa5f2483f32234",
        "13412"
      ],
      "transaction": {
        "from": "0x027a5ce58fc466d0e3a9d1990404354029398541",
        "to": "0x3530bf96982fa5a9e0d8bad84d3587e51a33d332",
        "gas": "0x1d2f6",
        "value": "0x0",
        "input": "0xa14481940000000000000000000000000000000000b92ac90d898eba87fa5f2483f322340000000000000000000000000000000000000000000000000000000000003464",
        "nonce": "0x3595",
        "chainId": "0x2105"
      },
      "additionalContracts": [],
      "isFixedGasLimit": false
    },
    {
      "hash": "0x4ead067edf42ed1eb358311c6f210124bee9e670b1f57a8b681a61781d32d2aa",
      "transactionType": "CALL",
      "contractName": null,
      "contractAddress": "0x3530bf96982fa5a9e0d8bad84d3587e51a33d332",
      "function": "safeMint(address,uint256)",
      "arguments": [
        "0xd430011A7bED9625077be43d2B19062189fdDBAb",
        "13413"
      ],
      "transaction": {
        "from": "0x027a5ce58fc466d0e3a9d1990404354029398541",
        "to": "0x3530bf96982fa5a9e0d8bad84d3587e51a33d332",
        "gas": "0x1b958",
        "value": "0x0",
        "input": "0xa1448194000000000000000000000000d430011a7bed9625077be43d2b19062189fddbab0000000000000000000000000000000000000000000000000000000000003465",
        "nonce": "0x3596",
        "chainId": "0x2105"
      },
      "additionalContracts": [],
      "isFixedGasLimit": false
    },
    {
      "hash": "0x220ec7bcc887cd806dab8ad81e30d7a4a53e46b6d0d4690d5c43c8ce2635c942",
      "transactionType": "CALL",
      "contractName": null,
      "contractAddress": "0x3530bf96982fa5a9e0d8bad84d3587e51a33d332",
      "function": "safeMint(address,uint256)",
      "arguments": [
        "0xecD1D40d4541B9424FaBd25FeBb11ee11eFd85Bb",
        "13414"
      ],
      "transaction": {
        "from": "0x027a5ce58fc466d0e3a9d1990404354029398541",
        "to": "0x3530bf96982fa5a9e0d8bad84d3587e51a33d332",
        "gas": "0x1b958",
        "value": "0x0",
        "input": "0xa1448194000000000000000000000000ecd1d40d4541b9424fabd25febb11ee11efd85bb0000000000000000000000000000000000000000000000000000000000003466",
        "nonce": "0x3597",
        "chainId": "0x2105"
      },
      "additionalContracts": [],
      "isFixedGasLimit": false
    },
    {
      "hash": "0x2a45a8ae2ee4eb8b6a40a48c4e56c87097e4dee3a75e29de127c1b33449990f2",
      "transactionType": "CALL",
      "contractName": null,
      "contractAddress": "0x3530bf96982fa5a9e0d8bad84d3587e51a33d332",
      "function": "safeMint(address,uint256)",
      "arguments": [
        "0xcfe7c850DB1392e65d40407362665C8F67fCac5f",
        "13415"
      ],
      "transaction": {
        "from": "0x027a5ce58fc466d0e3a9d1990404354029398541",
        "to": "0x3530bf96982fa5a9e0d8bad84d3587e51a33d332",
        "gas": "0x1b958",
        "value": "0x0",
        "input": "0xa1448194000000000000000000000000cfe7c850db1392e65d40407362665c8f67fcac5f0000000000000000000000000000000000000000000000000000000000003467",
        "nonce": "0x3598",
        "chainId": "0x2105"
      },
      "additionalContracts": [],
      "isFixedGasLimit": false
    },
    {
      "hash": "0xcc77fd351fd12304e1b3c678251a4d72939e98ab18612dc3cf2b4a2e51226601",
      "transactionType": "CALL",
      "contractName": null,
      "contractAddress": "0x3530bf96982fa5a9e0d8bad84d3587e51a33d332",
      "function": "safeMint(address,uint256)",
      "arguments": [
        "0xd2dB4A48c52330D24f50C7ec9DDb8DA4c198bD64",
        "13416"
      ],
      "transaction": {
        "from": "0x027a5ce58fc466d0e3a9d1990404354029398541",
        "to": "0x3530bf96982fa5a9e0d8bad84d3587e51a33d332",
        "gas": "0x1b958",
        "value": "0x0",
        "input": "0xa1448194000000000000000000000000d2db4a48c52330d24f50c7ec9ddb8da4c198bd640000000000000000000000000000000000000000000000000000000000003468",
        "nonce": "0x3599",
        "chainId": "0x2105"
      },
      "additionalContracts": [],
      "isFixedGasLimit": false
    },
    {
      "hash": "0xd1f3299cda09844d49ca6ee2998826554c3b376a92d84cd948fd9c8932027be9",
      "transactionType": "CALL",
      "contractName": null,
      "contractAddress": "0x3530bf96982fa5a9e0d8bad84d3587e51a33d332",
      "function": "safeMint(address,uint256)",
      "arguments": [
        "0xA8e3DBD7bF557cc1F8D384a13B47141888F108aF",
        "13417"
      ],
      "transaction": {
        "from": "0x027a5ce58fc466d0e3a9d1990404354029398541",
        "to": "0x3530bf96982fa5a9e0d8bad84d3587e51a33d332",
        "gas": "0x1b958",
        "value": "0x0",
        "input": "0xa1448194000000000000000000000000a8e3dbd7bf557cc1f8d384a13b47141888f108af0000000000000000000000000000000000000000000000000000000000003469",
        "nonce": "0x359a",
        "chainId": "0x2105"
      },
      "additionalContracts": [],
      "isFixedGasLimit": false
    },
    {
      "hash": "0xc3ccfdea54cada64b9a9143ae2ed209437af43847f8ed062855a3dadb7ba4b98",
      "transactionType": "CALL",
      "contractName": null,
      "contractAddress": "0x3530bf96982fa5a9e0d8bad84d3587e51a33d332",
      "function": "safeMint(address,uint256)",
      "arguments": [
        "0x073197fa2656bdAf1ca018b7b333379683B1D8aD",
        "13418"
      ],
      "transaction": {
        "from": "0x027a5ce58fc466d0e3a9d1990404354029398541",
        "to": "0x3530bf96982fa5a9e0d8bad84d3587e51a33d332",
        "gas": "0x1b958",
        "value": "0x0",
        "input": "0xa1448194000000000000000000000000073197fa2656bdaf1ca018b7b333379683b1d8ad000000000000000000000000000000000000000000000000000000000000346a",
        "nonce": "0x359b",
        "chainId": "0x2105"
      },
      "additionalContracts": [],
      "isFixedGasLimit": false
    },
    {
      "hash": "0x11939b6c65db8266ba0fd4e961c969e9c524355062c57518a999348bce1632f5",
      "transactionType": "CALL",
      "contractName": null,
      "contractAddress": "0x3530bf96982fa5a9e0d8bad84d3587e51a33d332",
      "function": "safeMint(address,uint256)",
      "arguments": [
        "0xf7A2f863299C17dfA11CD8a14e7c7DCA92f315B9",
        "13419"
      ],
      "transaction": {
        "from": "0x027a5ce58fc466d0e3a9d1990404354029398541",
        "to": "0x3530bf96982fa5a9e0d8bad84d3587e51a33d332",
        "gas": "0x1b958",
        "value": "0x0",
        "input": "0xa1448194000000000000000000000000f7a2f863299c17dfa11cd8a14e7c7dca92f315b9000000000000000000000000000000000000000000000000000000000000346b",
        "nonce": "0x359c",
        "chainId": "0x2105"
      },
      "additionalContracts": [],
      "isFixedGasLimit": false
    },
    {
      "hash": "0x1602e260d615b70345196e2c06231cf58a0929373c7099be967cb60b5ffa0589",
      "transactionType": "CALL",
      "contractName": null,
      "contractAddress": "0x3530bf96982fa5a9e0d8bad84d3587e51a33d332",
      "function": "safeMint(address,uint256)",
      "arguments": [
        "0x76b5A83C8c8097E7723Eda897537B6345789B229",
        "13420"
      ],
      "transaction": {
        "from": "0x027a5ce58fc466d0e3a9d1990404354029398541",
        "to": "0x3530bf96982fa5a9e0d8bad84d3587e51a33d332",
        "gas": "0x1b958",
        "value": "0x0",
        "input": "0xa144819400000000000000000000000076b5a83c8c8097e7723eda897537b6345789b229000000000000000000000000000000000000000000000000000000000000346c",
        "nonce": "0x359d",
        "chainId": "0x2105"
      },
      "additionalContracts": [],
      "isFixedGasLimit": false
    },
    {
      "hash": "0xe1288a5028752bc5abddb42c4879f3c6d3f2ebb3bfc482547cf19f6a6b1f47a4",
      "transactionType": "CALL",
      "contractName": null,
      "contractAddress": "0x3530bf96982fa5a9e0d8bad84d3587e51a33d332",
      "function": "safeMint(address,uint256)",
      "arguments": [
        "0xcC2687c14915Fd68226cCF388842515739A739BD",
        "13421"
      ],
      "transaction": {
        "from": "0x027a5ce58fc466d0e3a9d1990404354029398541",
        "to": "0x3530bf96982fa5a9e0d8bad84d3587e51a33d332",
        "gas": "0x1b958",
        "value": "0x0",
        "input": "0xa1448194000000000000000000000000cc2687c14915fd68226ccf388842515739a739bd000000000000000000000000000000000000000000000000000000000000346d",
        "nonce": "0x359e",
        "chainId": "0x2105"
      },
      "additionalContracts": [],
      "isFixedGasLimit": false
    },
    {
      "hash": "0x129be3050dfc4e1dcd056ca89b36642e743aa9abdc634c4d4d43da147cd14eb7",
      "transactionType": "CALL",
      "contractName": null,
      "contractAddress": "0x3530bf96982fa5a9e0d8bad84d3587e51a33d332",
      "function": "safeMint(address,uint256)",
      "arguments": [
        "0x32B71d7041eb663f207292EfB32103494B235db0",
        "13422"
      ],
      "transaction": {
        "from": "0x027a5ce58fc466d0e3a9d1990404354029398541",
        "to": "0x3530bf96982fa5a9e0d8bad84d3587e51a33d332",
        "gas": "0x1b958",
        "value": "0x0",
        "input": "0xa144819400000000000000000000000032b71d7041eb663f207292efb32103494b235db0000000000000000000000000000000000000000000000000000000000000346e",
        "nonce": "0x359f",
        "chainId": "0x2105"
      },
      "additionalContracts": [],
      "isFixedGasLimit": false
    },
    {
      "hash": "0xd181ba73fd3ae6b962d9e8da230f2c7bf63aa20e0a0f7ad90b0222d6bbfa618d",
      "transactionType": "CALL",
      "contractName": null,
      "contractAddress": "0x3530bf96982fa5a9e0d8bad84d3587e51a33d332",
      "function": "safeMint(address,uint256)",
      "arguments": [
        "0xFbBe4c97A5Dc7765553513974b6d3a21881dFe90",
        "13423"
      ],
      "transaction": {
        "from": "0x027a5ce58fc466d0e3a9d1990404354029398541",
        "to": "0x3530bf96982fa5a9e0d8bad84d3587e51a33d332",
        "gas": "0x1b958",
        "value": "0x0",
        "input": "0xa1448194000000000000000000000000fbbe4c97a5dc7765553513974b6d3a21881dfe90000000000000000000000000000000000000000000000000000000000000346f",
        "nonce": "0x35a0",
        "chainId": "0x2105"
      },
      "additionalContracts": [],
      "isFixedGasLimit": false
    },
    {
      "hash": "0x7e5018861805c8f2b3a52a4474fa86caf199f6bf11702f68522601a96ef25e2b",
      "transactionType": "CALL",
      "contractName": null,
      "contractAddress": "0x3530bf96982fa5a9e0d8bad84d3587e51a33d332",
      "function": "safeMint(address,uint256)",
      "arguments": [
        "0x4DfC2e4C08810F92dDE6538CB9a20D5Ac50638A0",
        "13424"
      ],
      "transaction": {
        "from": "0x027a5ce58fc466d0e3a9d1990404354029398541",
        "to": "0x3530bf96982fa5a9e0d8bad84d3587e51a33d332",
        "gas": "0x1b958",
        "value": "0x0",
        "input": "0xa14481940000000000000000000000004dfc2e4c08810f92dde6538cb9a20d5ac50638a00000000000000000000000000000000000000000000000000000000000003470",
        "nonce": "0x35a1",
        "chainId": "0x2105"
      },
      "additionalContracts": [],
      "isFixedGasLimit": false
    },
    {
      "hash": "0x622c6abca64ec0f06d9f973645a17aa691c94463c4f81d26712727135fa6f6c9",
      "transactionType": "CALL",
      "contractName": null,
      "contractAddress": "0x3530bf96982fa5a9e0d8bad84d3587e51a33d332",
      "function": "safeMint(address,uint256)",
      "arguments": [
        "0x59D7Ff7C122A4F4073317683EFca0bd5CEf2E22b",
        "13425"
      ],
      "transaction": {
        "from": "0x027a5ce58fc466d0e3a9d1990404354029398541",
        "to": "0x3530bf96982fa5a9e0d8bad84d3587e51a33d332",
        "gas": "0x1b958",
        "value": "0x0",
        "input": "0xa144819400000000000000000000000059d7ff7c122a4f4073317683efca0bd5cef2e22b0000000000000000000000000000000000000000000000000000000000003471",
        "nonce": "0x35a2",
        "chainId": "0x2105"
      },
      "additionalContracts": [],
      "isFixedGasLimit": false
    },
    {
      "hash": "0x56c006181d5af68e813d086b812037c1126a2693289b5212d8e9066704da6dd1",
      "transactionType": "CALL",
      "contractName": null,
      "contractAddress": "0x3530bf96982fa5a9e0d8bad84d3587e51a33d332",
      "function": "safeMint(address,uint256)",
      "arguments": [
        "0xed237eDB351C5da602BFa65304fcaa0ad59b9AcA",
        "13426"
      ],
      "transaction": {
        "from": "0x027a5ce58fc466d0e3a9d1990404354029398541",
        "to": "0x3530bf96982fa5a9e0d8bad84d3587e51a33d332",
        "gas": "0x1b958",
        "value": "0x0",
        "input": "0xa1448194000000000000000000000000ed237edb351c5da602bfa65304fcaa0ad59b9aca0000000000000000000000000000000000000000000000000000000000003472",
        "nonce": "0x35a3",
        "chainId": "0x2105"
      },
      "additionalContracts": [],
      "isFixedGasLimit": false
    },
    {
      "hash": "0xb87c3026730f6dbc5fe437baa08f80cd0bbc6964220e66f66f670d37721bd37e",
      "transactionType": "CALL",
      "contractName": null,
      "contractAddress": "0x3530bf96982fa5a9e0d8bad84d3587e51a33d332",
      "function": "safeMint(address,uint256)",
      "arguments": [
        "0x48db64d9B9538F5DeCd1149f3dd3764DB5b57147",
        "13427"
      ],
      "transaction": {
        "from": "0x027a5ce58fc466d0e3a9d1990404354029398541",
        "to": "0x3530bf96982fa5a9e0d8bad84d3587e51a33d332",
        "gas": "0x1b958",
        "value": "0x0",
        "input": "0xa144819400000000000000000000000048db64d9b9538f5decd1149f3dd3764db5b571470000000000000000000000000000000000000000000000000000000000003473",
        "nonce": "0x35a4",
        "chainId": "0x2105"
      },
      "additionalContracts": [],
      "isFixedGasLimit": false
    },
    {
      "hash": "0x276f348fa15b7bd08ffe39b3edc3a91cf0adb1619c959e270e2922ceaed16295",
      "transactionType": "CALL",
      "contractName": null,
      "contractAddress": "0x3530bf96982fa5a9e0d8bad84d3587e51a33d332",
      "function": "safeMint(address,uint256)",
      "arguments": [
        "0xa7A935D45242F7e1754fd5F22D9F08e81aa76E86",
        "13428"
      ],
      "transaction": {
        "from": "0x027a5ce58fc466d0e3a9d1990404354029398541",
        "to": "0x3530bf96982fa5a9e0d8bad84d3587e51a33d332",
        "gas": "0x1b958",
        "value": "0x0",
        "input": "0xa1448194000000000000000000000000a7a935d45242f7e1754fd5f22d9f08e81aa76e860000000000000000000000000000000000000000000000000000000000003474",
        "nonce": "0x35a5",
        "chainId": "0x2105"
      },
      "additionalContracts": [],
      "isFixedGasLimit": false
    },
    {
      "hash": "0x27c49396f0389f1d9231c21f2666da47849a2a97c4405dffde4fa5f2adcf9587",
      "transactionType": "CALL",
      "contractName": null,
      "contractAddress": "0x3530bf96982fa5a9e0d8bad84d3587e51a33d332",
      "function": "safeMint(address,uint256)",
      "arguments": [
        "0xb1B14193E1246ca9F72059bA41B1d028F567B8CD",
        "13429"
      ],
      "transaction": {
        "from": "0x027a5ce58fc466d0e3a9d1990404354029398541",
        "to": "0x3530bf96982fa5a9e0d8bad84d3587e51a33d332",
        "gas": "0x1b958",
        "value": "0x0",
        "input": "0xa1448194000000000000000000000000b1b14193e1246ca9f72059ba41b1d028f567b8cd0000000000000000000000000000000000000000000000000000000000003475",
        "nonce": "0x35a6",
        "chainId": "0x2105"
      },
      "additionalContracts": [],
      "isFixedGasLimit": false
    },
    {
      "hash": "0xd164a0fcde87e28fb45e149243e4380779c6ced35ff85f645b49e7624faeedeb",
      "transactionType": "CALL",
      "contractName": null,
      "contractAddress": "0x3530bf96982fa5a9e0d8bad84d3587e51a33d332",
      "function": "safeMint(address,uint256)",
      "arguments": [
        "0x6e3F8d6b7DAdD1A2624aAD92c784A0C633Fd6f52",
        "13430"
      ],
      "transaction": {
        "from": "0x027a5ce58fc466d0e3a9d1990404354029398541",
        "to": "0x3530bf96982fa5a9e0d8bad84d3587e51a33d332",
        "gas": "0x1b958",
        "value": "0x0",
        "input": "0xa14481940000000000000000000000006e3f8d6b7dadd1a2624aad92c784a0c633fd6f520000000000000000000000000000000000000000000000000000000000003476",
        "nonce": "0x35a7",
        "chainId": "0x2105"
      },
      "additionalContracts": [],
      "isFixedGasLimit": false
    },
    {
      "hash": "0xcb23ac29d2aa3a0b00369afa4068267661639bdf02c7fc0cad3736b2a6b0a84c",
      "transactionType": "CALL",
      "contractName": null,
      "contractAddress": "0x3530bf96982fa5a9e0d8bad84d3587e51a33d332",
      "function": "safeMint(address,uint256)",
      "arguments": [
        "0xB8fdA4A24fb520963584C18e614CC6624443F897",
        "13431"
      ],
      "transaction": {
        "from": "0x027a5ce58fc466d0e3a9d1990404354029398541",
        "to": "0x3530bf96982fa5a9e0d8bad84d3587e51a33d332",
        "gas": "0x1b958",
        "value": "0x0",
        "input": "0xa1448194000000000000000000000000b8fda4a24fb520963584c18e614cc6624443f8970000000000000000000000000000000000000000000000000000000000003477",
        "nonce": "0x35a8",
        "chainId": "0x2105"
      },
      "additionalContracts": [],
      "isFixedGasLimit": false
    },
    {
      "hash": "0x973b7145d54c3913c0fdac14b6c07b50657cf0a2114e4f2b25a4319b3e7c6374",
      "transactionType": "CALL",
      "contractName": null,
      "contractAddress": "0x3530bf96982fa5a9e0d8bad84d3587e51a33d332",
      "function": "safeMint(address,uint256)",
      "arguments": [
        "0x291Ba8A8532850700636De34da56CD8034fe825C",
        "13432"
      ],
      "transaction": {
        "from": "0x027a5ce58fc466d0e3a9d1990404354029398541",
        "to": "0x3530bf96982fa5a9e0d8bad84d3587e51a33d332",
        "gas": "0x1b958",
        "value": "0x0",
        "input": "0xa1448194000000000000000000000000291ba8a8532850700636de34da56cd8034fe825c0000000000000000000000000000000000000000000000000000000000003478",
        "nonce": "0x35a9",
        "chainId": "0x2105"
      },
      "additionalContracts": [],
      "isFixedGasLimit": false
    },
    {
      "hash": "0x833d97d87558043086e429289de96573b810acbba37beab0b636325c9095a3d1",
      "transactionType": "CALL",
      "contractName": null,
      "contractAddress": "0x3530bf96982fa5a9e0d8bad84d3587e51a33d332",
      "function": "safeMint(address,uint256)",
      "arguments": [
        "0x147482A271Deedc86033d7B11144c1e6A2047a6A",
        "13433"
      ],
      "transaction": {
        "from": "0x027a5ce58fc466d0e3a9d1990404354029398541",
        "to": "0x3530bf96982fa5a9e0d8bad84d3587e51a33d332",
        "gas": "0x1b958",
        "value": "0x0",
        "input": "0xa1448194000000000000000000000000147482a271deedc86033d7b11144c1e6a2047a6a0000000000000000000000000000000000000000000000000000000000003479",
        "nonce": "0x35aa",
        "chainId": "0x2105"
      },
      "additionalContracts": [],
      "isFixedGasLimit": false
    },
    {
      "hash": "0xc6499b565543a3cf3d67689388cfd653cbc28e478021b7e03911ae8a4d1f3dc3",
      "transactionType": "CALL",
      "contractName": null,
      "contractAddress": "0x3530bf96982fa5a9e0d8bad84d3587e51a33d332",
      "function": "safeMint(address,uint256)",
      "arguments": [
        "0x000000000005aF2DDC1a93A03e9b7014064d3b8D",
        "13434"
      ],
      "transaction": {
        "from": "0x027a5ce58fc466d0e3a9d1990404354029398541",
        "to": "0x3530bf96982fa5a9e0d8bad84d3587e51a33d332",
        "gas": "0x1d2f6",
        "value": "0x0",
        "input": "0xa1448194000000000000000000000000000000000005af2ddc1a93a03e9b7014064d3b8d000000000000000000000000000000000000000000000000000000000000347a",
        "nonce": "0x35ab",
        "chainId": "0x2105"
      },
      "additionalContracts": [],
      "isFixedGasLimit": false
    },
    {
      "hash": "0xf3895580f408ae3343b36ec4848fb60a44b76849784cc299166dcebfb3cfb12e",
      "transactionType": "CALL",
      "contractName": null,
      "contractAddress": "0x3530bf96982fa5a9e0d8bad84d3587e51a33d332",
      "function": "safeMint(address,uint256)",
      "arguments": [
        "0x21FD80d6184aaC6978e0d21225396512eb97a591",
        "13435"
      ],
      "transaction": {
        "from": "0x027a5ce58fc466d0e3a9d1990404354029398541",
        "to": "0x3530bf96982fa5a9e0d8bad84d3587e51a33d332",
        "gas": "0x1b958",
        "value": "0x0",
        "input": "0xa144819400000000000000000000000021fd80d6184aac6978e0d21225396512eb97a591000000000000000000000000000000000000000000000000000000000000347b",
        "nonce": "0x35ac",
        "chainId": "0x2105"
      },
      "additionalContracts": [],
      "isFixedGasLimit": false
    },
    {
      "hash": "0x306c9632757b00a9c74552026db4f72dc489ed287fd380d205a8087b5d258770",
      "transactionType": "CALL",
      "contractName": null,
      "contractAddress": "0x3530bf96982fa5a9e0d8bad84d3587e51a33d332",
      "function": "safeMint(address,uint256)",
      "arguments": [
        "0x638BBC6f890687637b795E702BFA363F29D6BA8B",
        "13436"
      ],
      "transaction": {
        "from": "0x027a5ce58fc466d0e3a9d1990404354029398541",
        "to": "0x3530bf96982fa5a9e0d8bad84d3587e51a33d332",
        "gas": "0x1b958",
        "value": "0x0",
        "input": "0xa1448194000000000000000000000000638bbc6f890687637b795e702bfa363f29d6ba8b000000000000000000000000000000000000000000000000000000000000347c",
        "nonce": "0x35ad",
        "chainId": "0x2105"
      },
      "additionalContracts": [],
      "isFixedGasLimit": false
    },
    {
      "hash": "0xdd58afef6c7fc8b4de5c5956af0c0517bdfea476cbb34516e5f506c711527cfb",
      "transactionType": "CALL",
      "contractName": null,
      "contractAddress": "0x3530bf96982fa5a9e0d8bad84d3587e51a33d332",
      "function": "safeMint(address,uint256)",
      "arguments": [
        "0x634cf119d1964b88a426E1E782Bd09f37b51d949",
        "13437"
      ],
      "transaction": {
        "from": "0x027a5ce58fc466d0e3a9d1990404354029398541",
        "to": "0x3530bf96982fa5a9e0d8bad84d3587e51a33d332",
        "gas": "0x1b958",
        "value": "0x0",
        "input": "0xa1448194000000000000000000000000634cf119d1964b88a426e1e782bd09f37b51d949000000000000000000000000000000000000000000000000000000000000347d",
        "nonce": "0x35ae",
        "chainId": "0x2105"
      },
      "additionalContracts": [],
      "isFixedGasLimit": false
    },
    {
      "hash": "0xff4fed7b1b9bc722af7112c0176acf3448ccf9c67f612b8a7074f4ea41e36650",
      "transactionType": "CALL",
      "contractName": null,
      "contractAddress": "0x3530bf96982fa5a9e0d8bad84d3587e51a33d332",
      "function": "safeMint(address,uint256)",
      "arguments": [
        "0xBB7D62e9bF012B2De27c1f2a0d8BD90397D3c660",
        "13438"
      ],
      "transaction": {
        "from": "0x027a5ce58fc466d0e3a9d1990404354029398541",
        "to": "0x3530bf96982fa5a9e0d8bad84d3587e51a33d332",
        "gas": "0x1b958",
        "value": "0x0",
        "input": "0xa1448194000000000000000000000000bb7d62e9bf012b2de27c1f2a0d8bd90397d3c660000000000000000000000000000000000000000000000000000000000000347e",
        "nonce": "0x35af",
        "chainId": "0x2105"
      },
      "additionalContracts": [],
      "isFixedGasLimit": false
    },
    {
      "hash": "0xbb4160f931388a8a35b3c29bd86ec628439aba723747f889b05428265b0ea33f",
      "transactionType": "CALL",
      "contractName": null,
      "contractAddress": "0x3530bf96982fa5a9e0d8bad84d3587e51a33d332",
      "function": "safeMint(address,uint256)",
      "arguments": [
        "0x18C2199F7e9ff095023f760639651787cA154DAA",
        "13439"
      ],
      "transaction": {
        "from": "0x027a5ce58fc466d0e3a9d1990404354029398541",
        "to": "0x3530bf96982fa5a9e0d8bad84d3587e51a33d332",
        "gas": "0x1b958",
        "value": "0x0",
        "input": "0xa144819400000000000000000000000018c2199f7e9ff095023f760639651787ca154daa000000000000000000000000000000000000000000000000000000000000347f",
        "nonce": "0x35b0",
        "chainId": "0x2105"
      },
      "additionalContracts": [],
      "isFixedGasLimit": false
    },
    {
      "hash": "0x070f67a64b6045852f72c3acb6de13fc660c4e2bc6702b2f190360dd3f92f758",
      "transactionType": "CALL",
      "contractName": null,
      "contractAddress": "0x3530bf96982fa5a9e0d8bad84d3587e51a33d332",
      "function": "safeMint(address,uint256)",
      "arguments": [
        "0x4066e9bd5618373d2dA7A1Cb7BBa03Ef800875Ee",
        "13440"
      ],
      "transaction": {
        "from": "0x027a5ce58fc466d0e3a9d1990404354029398541",
        "to": "0x3530bf96982fa5a9e0d8bad84d3587e51a33d332",
        "gas": "0x1b958",
        "value": "0x0",
        "input": "0xa14481940000000000000000000000004066e9bd5618373d2da7a1cb7bba03ef800875ee0000000000000000000000000000000000000000000000000000000000003480",
        "nonce": "0x35b1",
        "chainId": "0x2105"
      },
      "additionalContracts": [],
      "isFixedGasLimit": false
    },
    {
      "hash": "0x11b367e83891945c4e903a7ef652df0df027125d1163cf5b4c47ba23fc03e345",
      "transactionType": "CALL",
      "contractName": null,
      "contractAddress": "0x3530bf96982fa5a9e0d8bad84d3587e51a33d332",
      "function": "safeMint(address,uint256)",
      "arguments": [
        "0xaE971465F3280b9528Caf04cfd4FA4C8F9c67e02",
        "13441"
      ],
      "transaction": {
        "from": "0x027a5ce58fc466d0e3a9d1990404354029398541",
        "to": "0x3530bf96982fa5a9e0d8bad84d3587e51a33d332",
        "gas": "0x1b958",
        "value": "0x0",
        "input": "0xa1448194000000000000000000000000ae971465f3280b9528caf04cfd4fa4c8f9c67e020000000000000000000000000000000000000000000000000000000000003481",
        "nonce": "0x35b2",
        "chainId": "0x2105"
      },
      "additionalContracts": [],
      "isFixedGasLimit": false
    },
    {
      "hash": "0x7f073bd3583988e61536aa24bf59731d1c82d7258d7afc5fb2b91289801a37b7",
      "transactionType": "CALL",
      "contractName": null,
      "contractAddress": "0x3530bf96982fa5a9e0d8bad84d3587e51a33d332",
      "function": "safeMint(address,uint256)",
      "arguments": [
        "0xE8c060F8052E07423f71D445277c61AC5138A2e5",
        "13442"
      ],
      "transaction": {
        "from": "0x027a5ce58fc466d0e3a9d1990404354029398541",
        "to": "0x3530bf96982fa5a9e0d8bad84d3587e51a33d332",
        "gas": "0x1b958",
        "value": "0x0",
        "input": "0xa1448194000000000000000000000000e8c060f8052e07423f71d445277c61ac5138a2e50000000000000000000000000000000000000000000000000000000000003482",
        "nonce": "0x35b3",
        "chainId": "0x2105"
      },
      "additionalContracts": [],
      "isFixedGasLimit": false
    },
    {
      "hash": "0xdccaf5ac8687aa770f726dce167fdcfa010c2dc1e698e7bb733052d4b3ee6cbe",
      "transactionType": "CALL",
      "contractName": null,
      "contractAddress": "0x3530bf96982fa5a9e0d8bad84d3587e51a33d332",
      "function": "safeMint(address,uint256)",
      "arguments": [
        "0x3C005bA2000F0000ba000d69000AC8Ec003800BC",
        "13443"
      ],
      "transaction": {
        "from": "0x027a5ce58fc466d0e3a9d1990404354029398541",
        "to": "0x3530bf96982fa5a9e0d8bad84d3587e51a33d332",
        "gas": "0x1b8d3",
        "value": "0x0",
        "input": "0xa14481940000000000000000000000003c005ba2000f0000ba000d69000ac8ec003800bc0000000000000000000000000000000000000000000000000000000000003483",
        "nonce": "0x35b4",
        "chainId": "0x2105"
      },
      "additionalContracts": [],
      "isFixedGasLimit": false
    },
    {
      "hash": "0x361795bad5b9f1659c968ab856e6b5a72ae43bba4205eb5a505deaa09edc50f6",
      "transactionType": "CALL",
      "contractName": null,
      "contractAddress": "0x3530bf96982fa5a9e0d8bad84d3587e51a33d332",
      "function": "safeMint(address,uint256)",
      "arguments": [
        "0x6980a47beE930a4584B09Ee79eBe46484FbDBDD0",
        "13444"
      ],
      "transaction": {
        "from": "0x027a5ce58fc466d0e3a9d1990404354029398541",
        "to": "0x3530bf96982fa5a9e0d8bad84d3587e51a33d332",
        "gas": "0x1b958",
        "value": "0x0",
        "input": "0xa14481940000000000000000000000006980a47bee930a4584b09ee79ebe46484fbdbdd00000000000000000000000000000000000000000000000000000000000003484",
        "nonce": "0x35b5",
        "chainId": "0x2105"
      },
      "additionalContracts": [],
      "isFixedGasLimit": false
    }
  ],
  "receipts": [
    {
      "status": "0x1",
      "cumulativeGasUsed": "0xca57c6",
      "logs": [
        {
          "address": "0x3530bf96982fa5a9e0d8bad84d3587e51a33d332",
          "topics": [
            "0xddf252ad1be2c89b69c2b068fc378daa952ba7f163c4a11628f55a4df523b3ef",
            "0x0000000000000000000000000000000000000000000000000000000000000000",
            "0x00000000000000000000000054ae72de93fe75e04ceb8edbceff562523794f5b",
            "0x0000000000000000000000000000000000000000000000000000000000003442"
          ],
          "data": "0x",
          "blockHash": "0xf991cec91858e5ad4e871abe19f9d0fff2e1eb8647790ec0080b0dee4e85d461",
          "blockNumber": "0xf8d5d5",
          "transactionHash": "0x8ce5283755a893b046e035a13762cbe1e33df5d0b2a6a61eb9515783cbe2bc47",
          "transactionIndex": "0x69",
          "logIndex": "0x16b",
          "removed": false
        }
      ],
      "logsBloom": "0x00000002000000000000000000000000000000000000000000000000000000000000000000000000000000000000000000000000000000000000000000040000000000000000100000000008000000000000800000000000000002000000000000000000020000000000000000000800000000000000000000080010000000000000000000000000000000000100000000000000000000000000000000000000000000000000000000000000000000000000000000000000000000000000000000000002000000000000000000000000000000000000000000020000000020000000000000000000000000000000000000000000000000000200000000000000",
      "type": "0x2",
      "transactionHash": "0x8ce5283755a893b046e035a13762cbe1e33df5d0b2a6a61eb9515783cbe2bc47",
      "transactionIndex": "0x69",
      "blockHash": "0xf991cec91858e5ad4e871abe19f9d0fff2e1eb8647790ec0080b0dee4e85d461",
      "blockNumber": "0xf8d5d5",
      "gasUsed": "0x13f87",
      "effectiveGasPrice": "0x865987",
      "from": "0x027a5ce58fc466d0e3a9d1990404354029398541",
      "to": "0x3530bf96982fa5a9e0d8bad84d3587e51a33d332",
      "contractAddress": null,
      "l1Fee": "0x305bad91d",
      "l1GasPrice": "0x1254d58d6",
      "l1GasUsed": "0x95c"
    },
    {
      "status": "0x1",
      "cumulativeGasUsed": "0xcb974d",
      "logs": [
        {
          "address": "0x3530bf96982fa5a9e0d8bad84d3587e51a33d332",
          "topics": [
            "0xddf252ad1be2c89b69c2b068fc378daa952ba7f163c4a11628f55a4df523b3ef",
            "0x0000000000000000000000000000000000000000000000000000000000000000",
            "0x000000000000000000000000cbd7d15cbb99ac716656eaab140cc5cb9d7d4b95",
            "0x0000000000000000000000000000000000000000000000000000000000003443"
          ],
          "data": "0x",
          "blockHash": "0xf991cec91858e5ad4e871abe19f9d0fff2e1eb8647790ec0080b0dee4e85d461",
          "blockNumber": "0xf8d5d5",
          "transactionHash": "0x5994e2058bd28f94f421807452886777521ea7e392f6331ed9b3a947adce7ebb",
          "transactionIndex": "0x6a",
          "logIndex": "0x16c",
          "removed": false
        }
      ],
      "logsBloom": "0x00000002000000000000000000000000000000000000000000000001000000000000000000000000000000000000000000000000000000000000000000040000000000000000100000000008000800000000000000000000000000000000000000000000020000000000000000000800000000000000000000000010000000000000000000000000000000000000000000000000000000000000000000000000000000000000000000000000000000000000200000000000000000000000000000000002000000000000000000000000000000000000000000000000000020000000000000000000000000000000000000020000100000000000008000000000",
      "type": "0x2",
      "transactionHash": "0x5994e2058bd28f94f421807452886777521ea7e392f6331ed9b3a947adce7ebb",
      "transactionIndex": "0x6a",
      "blockHash": "0xf991cec91858e5ad4e871abe19f9d0fff2e1eb8647790ec0080b0dee4e85d461",
      "blockNumber": "0xf8d5d5",
      "gasUsed": "0x13f87",
      "effectiveGasPrice": "0x865987",
      "from": "0x027a5ce58fc466d0e3a9d1990404354029398541",
      "to": "0x3530bf96982fa5a9e0d8bad84d3587e51a33d332",
      "contractAddress": null,
      "l1Fee": "0x3099ae02f",
      "l1GasPrice": "0x1254d58d6",
      "l1GasUsed": "0x968"
    },
    {
      "status": "0x1",
      "cumulativeGasUsed": "0xccd6d4",
      "logs": [
        {
          "address": "0x3530bf96982fa5a9e0d8bad84d3587e51a33d332",
          "topics": [
            "0xddf252ad1be2c89b69c2b068fc378daa952ba7f163c4a11628f55a4df523b3ef",
            "0x0000000000000000000000000000000000000000000000000000000000000000",
            "0x000000000000000000000000895a77133dac4b7dc21c428003c2633593def9f0",
            "0x0000000000000000000000000000000000000000000000000000000000003444"
          ],
          "data": "0x",
          "blockHash": "0xf991cec91858e5ad4e871abe19f9d0fff2e1eb8647790ec0080b0dee4e85d461",
          "blockNumber": "0xf8d5d5",
          "transactionHash": "0x9998893b529f998c0ac03dcab9064f82fb51101b4dbbbd2efb7f46261403da12",
          "transactionIndex": "0x6b",
          "logIndex": "0x16d",
          "removed": false
        }
      ],
      "logsBloom": "0x00000002000001000000000000000000000000000000000000000000000000000000000000002000000000000000000000000000000000000000000000040000000000000000100000000008000000000000000100000000000000000000000000000000020000000000000000000800000000000000000000000010000000000000000000000000000000000000000000000100000000800000000000000000000000000000000000000000000000000000000000000000000000000000000000000002000000000000000000000000000000000000000000000000000020000000000002000000000000000000000000000000000000000000000000000000",
      "type": "0x2",
      "transactionHash": "0x9998893b529f998c0ac03dcab9064f82fb51101b4dbbbd2efb7f46261403da12",
      "transactionIndex": "0x6b",
      "blockHash": "0xf991cec91858e5ad4e871abe19f9d0fff2e1eb8647790ec0080b0dee4e85d461",
      "blockNumber": "0xf8d5d5",
      "gasUsed": "0x13f87",
      "effectiveGasPrice": "0x865987",
      "from": "0x027a5ce58fc466d0e3a9d1990404354029398541",
      "to": "0x3530bf96982fa5a9e0d8bad84d3587e51a33d332",
      "contractAddress": null,
      "l1Fee": "0x3099ae02f",
      "l1GasPrice": "0x1254d58d6",
      "l1GasUsed": "0x968"
    },
    {
      "status": "0x1",
      "cumulativeGasUsed": "0xce165b",
      "logs": [
        {
          "address": "0x3530bf96982fa5a9e0d8bad84d3587e51a33d332",
          "topics": [
            "0xddf252ad1be2c89b69c2b068fc378daa952ba7f163c4a11628f55a4df523b3ef",
            "0x0000000000000000000000000000000000000000000000000000000000000000",
            "0x000000000000000000000000b68b0718d22887db9ca80ebfa6659e55c418c6e0",
            "0x0000000000000000000000000000000000000000000000000000000000003445"
          ],
          "data": "0x",
          "blockHash": "0xf991cec91858e5ad4e871abe19f9d0fff2e1eb8647790ec0080b0dee4e85d461",
          "blockNumber": "0xf8d5d5",
          "transactionHash": "0x6c675cbda6c3524c3b4d8126406c0bcae23ff44eef5570354e177cd77ea5c0eb",
          "transactionIndex": "0x6c",
          "logIndex": "0x16e",
          "removed": false
        }
      ],
      "logsBloom": "0x00000002000000000000000000000000000000000000000000000000000000000000000000000000000000000000020000000000000000000000000000040000000000000000100000000008000100000100000000000000000000000000000000000001020000000000000000000800000000000000000000000010000000000000000000000000000000000000000000000000000000000000000000000000000000000000000000000000000000000000000000000000000000000000000000000002000000000000000000000000000000000000000000000000000020000000020000000000000000000000000000000000004000000000000000000000",
      "type": "0x2",
      "transactionHash": "0x6c675cbda6c3524c3b4d8126406c0bcae23ff44eef5570354e177cd77ea5c0eb",
      "transactionIndex": "0x6c",
      "blockHash": "0xf991cec91858e5ad4e871abe19f9d0fff2e1eb8647790ec0080b0dee4e85d461",
      "blockNumber": "0xf8d5d5",
      "gasUsed": "0x13f87",
      "effectiveGasPrice": "0x865987",
      "from": "0x027a5ce58fc466d0e3a9d1990404354029398541",
      "to": "0x3530bf96982fa5a9e0d8bad84d3587e51a33d332",
      "contractAddress": null,
      "l1Fee": "0x3099ae02f",
      "l1GasPrice": "0x1254d58d6",
      "l1GasUsed": "0x968"
    },
    {
      "status": "0x1",
      "cumulativeGasUsed": "0xcf55e2",
      "logs": [
        {
          "address": "0x3530bf96982fa5a9e0d8bad84d3587e51a33d332",
          "topics": [
            "0xddf252ad1be2c89b69c2b068fc378daa952ba7f163c4a11628f55a4df523b3ef",
            "0x0000000000000000000000000000000000000000000000000000000000000000",
            "0x000000000000000000000000cd8e23bcc8f405f11d81075e4c58be8cd6641ae9",
            "0x0000000000000000000000000000000000000000000000000000000000003446"
          ],
          "data": "0x",
          "blockHash": "0xf991cec91858e5ad4e871abe19f9d0fff2e1eb8647790ec0080b0dee4e85d461",
          "blockNumber": "0xf8d5d5",
          "transactionHash": "0x65fa39402983fc02a174874f71c097d2125d349f1e4a368d6b65695916ba5c97",
          "transactionIndex": "0x6d",
          "logIndex": "0x16f",
          "removed": false
        }
      ],
      "logsBloom": "0x00000002000000000000000000000000000000000000800000000000000000000000000000000000000000000000000000000000000000000000000000040000000000000000100000000108000000000000000000000000000000000000000000000000220000000000000000000800000000000000000000000010000000000000000000000000000000000000000000000000000000020000000000000000000000000000000000000004000000000000000000000000000000000000000000000002000000000000000000000400000000000000000000000000000020000000000000000000000000000000000000000000000000000000000000000000",
      "type": "0x2",
      "transactionHash": "0x65fa39402983fc02a174874f71c097d2125d349f1e4a368d6b65695916ba5c97",
      "transactionIndex": "0x6d",
      "blockHash": "0xf991cec91858e5ad4e871abe19f9d0fff2e1eb8647790ec0080b0dee4e85d461",
      "blockNumber": "0xf8d5d5",
      "gasUsed": "0x13f87",
      "effectiveGasPrice": "0x865987",
      "from": "0x027a5ce58fc466d0e3a9d1990404354029398541",
      "to": "0x3530bf96982fa5a9e0d8bad84d3587e51a33d332",
      "contractAddress": null,
      "l1Fee": "0x3099ae02f",
      "l1GasPrice": "0x1254d58d6",
      "l1GasUsed": "0x968"
    },
    {
      "status": "0x1",
      "cumulativeGasUsed": "0xd09569",
      "logs": [
        {
          "address": "0x3530bf96982fa5a9e0d8bad84d3587e51a33d332",
          "topics": [
            "0xddf252ad1be2c89b69c2b068fc378daa952ba7f163c4a11628f55a4df523b3ef",
            "0x0000000000000000000000000000000000000000000000000000000000000000",
            "0x000000000000000000000000ffc54ef536b51f36ffc657b146fbcc431ba42a9e",
            "0x0000000000000000000000000000000000000000000000000000000000003447"
          ],
          "data": "0x",
          "blockHash": "0xf991cec91858e5ad4e871abe19f9d0fff2e1eb8647790ec0080b0dee4e85d461",
          "blockNumber": "0xf8d5d5",
          "transactionHash": "0xb874a2a130ef3f4dbdc3e6beefdd958a34c96007cdd7793b31c53a614f896839",
          "transactionIndex": "0x6e",
          "logIndex": "0x170",
          "removed": false
        }
      ],
      "logsBloom": "0x00000002000000000000000000000000000000000000000000000000000000000000000000000000000000000000000000000000000000000000000000440000000000000001100000000008002000000000000000000000000000000000000000000000020000000000000000000800000000000000000000000010000000000000000000000000000000000000000000000000000000000000000000000000000000000000000000000000000000010000000000000000000000000000000000000002000000000000000000000000000000000000000000000000000020000010000000002000000000000000000000000000000000000000000000000000",
      "type": "0x2",
      "transactionHash": "0xb874a2a130ef3f4dbdc3e6beefdd958a34c96007cdd7793b31c53a614f896839",
      "transactionIndex": "0x6e",
      "blockHash": "0xf991cec91858e5ad4e871abe19f9d0fff2e1eb8647790ec0080b0dee4e85d461",
      "blockNumber": "0xf8d5d5",
      "gasUsed": "0x13f87",
      "effectiveGasPrice": "0x865987",
      "from": "0x027a5ce58fc466d0e3a9d1990404354029398541",
      "to": "0x3530bf96982fa5a9e0d8bad84d3587e51a33d332",
      "contractAddress": null,
      "l1Fee": "0x3099ae02f",
      "l1GasPrice": "0x1254d58d6",
      "l1GasUsed": "0x968"
    },
    {
      "status": "0x1",
      "cumulativeGasUsed": "0xd1d4f0",
      "logs": [
        {
          "address": "0x3530bf96982fa5a9e0d8bad84d3587e51a33d332",
          "topics": [
            "0xddf252ad1be2c89b69c2b068fc378daa952ba7f163c4a11628f55a4df523b3ef",
            "0x0000000000000000000000000000000000000000000000000000000000000000",
            "0x0000000000000000000000007ce57277d19075f34fa09d82391c796f027759aa",
            "0x0000000000000000000000000000000000000000000000000000000000003448"
          ],
          "data": "0x",
          "blockHash": "0xf991cec91858e5ad4e871abe19f9d0fff2e1eb8647790ec0080b0dee4e85d461",
          "blockNumber": "0xf8d5d5",
          "transactionHash": "0xbb0cd7c5e7a2cd2f7d6d407eb6946ca7de5de6054ff4cc0fd6ec6e94e7336ad0",
          "transactionIndex": "0x6f",
          "logIndex": "0x171",
          "removed": false
        }
      ],
      "logsBloom": "0x00000002000000000000000000000000400000000000000000000000000000000000000000000000000000000000000000000000000000000000002000040000000000000000100000000008000000000100000000000000000000000000000000000000020000000000000000000800000000000000800000000010000000000000000000000000000000000000000000000000000000000000000000000000000000000000000000000000000000000000000000000000000000000000000000000002000000000000000000000002000000010000000000000000000020000000000000000000000000000000000000000000000000000000000000000000",
      "type": "0x2",
      "transactionHash": "0xbb0cd7c5e7a2cd2f7d6d407eb6946ca7de5de6054ff4cc0fd6ec6e94e7336ad0",
      "transactionIndex": "0x6f",
      "blockHash": "0xf991cec91858e5ad4e871abe19f9d0fff2e1eb8647790ec0080b0dee4e85d461",
      "blockNumber": "0xf8d5d5",
      "gasUsed": "0x13f87",
      "effectiveGasPrice": "0x865987",
      "from": "0x027a5ce58fc466d0e3a9d1990404354029398541",
      "to": "0x3530bf96982fa5a9e0d8bad84d3587e51a33d332",
      "contractAddress": null,
      "l1Fee": "0x3099ae02f",
      "l1GasPrice": "0x1254d58d6",
      "l1GasUsed": "0x968"
    },
    {
      "status": "0x1",
      "cumulativeGasUsed": "0xd3146b",
      "logs": [
        {
          "address": "0x3530bf96982fa5a9e0d8bad84d3587e51a33d332",
          "topics": [
            "0xddf252ad1be2c89b69c2b068fc378daa952ba7f163c4a11628f55a4df523b3ef",
            "0x0000000000000000000000000000000000000000000000000000000000000000",
            "0x000000000000000000000000affa58a1008301ded8732f991e51c4e3ffbd8a6c",
            "0x0000000000000000000000000000000000000000000000000000000000003449"
          ],
          "data": "0x",
          "blockHash": "0xf991cec91858e5ad4e871abe19f9d0fff2e1eb8647790ec0080b0dee4e85d461",
          "blockNumber": "0xf8d5d5",
          "transactionHash": "0x9e5428cdb8f3011a8d375c04b151e100c767e8cdeb25a085aea4a6397861c847",
          "transactionIndex": "0x70",
          "logIndex": "0x172",
          "removed": false
        }
      ],
      "logsBloom": "0x00000002000000000000000000000000000000000000800000000000000000000000000000000000000000000000000000000000000200000000000000040000000000000000100000000008000000000000800000000000000000000000000000000000020000000000000000000c00000000000000000000000010000200000000000000000000000000000000000000000000000000000000000000000000000000000000000000000000000000000000000000000000000000000000000000000002000000000000000000000000000000000000000000000000000020000000000000000000000000000000000000000000000000000000000000008000",
      "type": "0x2",
      "transactionHash": "0x9e5428cdb8f3011a8d375c04b151e100c767e8cdeb25a085aea4a6397861c847",
      "transactionIndex": "0x70",
      "blockHash": "0xf991cec91858e5ad4e871abe19f9d0fff2e1eb8647790ec0080b0dee4e85d461",
      "blockNumber": "0xf8d5d5",
      "gasUsed": "0x13f7b",
      "effectiveGasPrice": "0x865987",
      "from": "0x027a5ce58fc466d0e3a9d1990404354029398541",
      "to": "0x3530bf96982fa5a9e0d8bad84d3587e51a33d332",
      "contractAddress": null,
      "l1Fee": "0x305bad91d",
      "l1GasPrice": "0x1254d58d6",
      "l1GasUsed": "0x95c"
    },
    {
      "status": "0x1",
      "cumulativeGasUsed": "0xd453f2",
      "logs": [
        {
          "address": "0x3530bf96982fa5a9e0d8bad84d3587e51a33d332",
          "topics": [
            "0xddf252ad1be2c89b69c2b068fc378daa952ba7f163c4a11628f55a4df523b3ef",
            "0x0000000000000000000000000000000000000000000000000000000000000000",
            "0x000000000000000000000000407ac624e4876a51b756e333f0e010d56da95a56",
            "0x000000000000000000000000000000000000000000000000000000000000344a"
          ],
          "data": "0x",
          "blockHash": "0xf991cec91858e5ad4e871abe19f9d0fff2e1eb8647790ec0080b0dee4e85d461",
          "blockNumber": "0xf8d5d5",
          "transactionHash": "0x049f410cb97e7c5f2830ba56f9474e577ccf4144282105038bc759ffe9e7e6f8",
          "transactionIndex": "0x71",
          "logIndex": "0x173",
          "removed": false
        }
      ],
      "logsBloom": "0x000000020000000000000000000000000000000000000000000000000000000000000000000000000000000000000000000000000000000000000000000400000040000000001000000000080000000000000000000000000000000000000000000000000202000000000000000008000000000000000000000000100000000000000000000000000000000000000000000000000000000000000000000000000000000000000000000000000000000000000000000000000000000000001000400000020000000000000000000000000000000000000000000000000000a0000000000000000000000000040000000000000000000000000000000000000000",
      "type": "0x2",
      "transactionHash": "0x049f410cb97e7c5f2830ba56f9474e577ccf4144282105038bc759ffe9e7e6f8",
      "transactionIndex": "0x71",
      "blockHash": "0xf991cec91858e5ad4e871abe19f9d0fff2e1eb8647790ec0080b0dee4e85d461",
      "blockNumber": "0xf8d5d5",
      "gasUsed": "0x13f87",
      "effectiveGasPrice": "0x865987",
      "from": "0x027a5ce58fc466d0e3a9d1990404354029398541",
      "to": "0x3530bf96982fa5a9e0d8bad84d3587e51a33d332",
      "contractAddress": null,
      "l1Fee": "0x3099ae02f",
      "l1GasPrice": "0x1254d58d6",
      "l1GasUsed": "0x968"
    },
    {
      "status": "0x1",
      "cumulativeGasUsed": "0xd59379",
      "logs": [
        {
          "address": "0x3530bf96982fa5a9e0d8bad84d3587e51a33d332",
          "topics": [
            "0xddf252ad1be2c89b69c2b068fc378daa952ba7f163c4a11628f55a4df523b3ef",
            "0x0000000000000000000000000000000000000000000000000000000000000000",
            "0x000000000000000000000000832355ce6d1058d531ebde938da3eacb09437658",
            "0x000000000000000000000000000000000000000000000000000000000000344b"
          ],
          "data": "0x",
          "blockHash": "0xf991cec91858e5ad4e871abe19f9d0fff2e1eb8647790ec0080b0dee4e85d461",
          "blockNumber": "0xf8d5d5",
          "transactionHash": "0xb99db25be9edbcb93e2d0e03ddf73dae38feff650919051a327d5a8bc1ab8844",
          "transactionIndex": "0x72",
          "logIndex": "0x174",
          "removed": false
        }
      ],
      "logsBloom": "0x00000002000000000000000000000000000000000000000000000000000000000000000000000000000000000000000000000000000002000000000000040000000000000000100000000008000000000000000000000000000000000000000000000000020000000000000000000800000000000000000000000010000000000000000000000000000000000000000000000000000021000000000000000000000000000000000000000000000000000000000000000000000000000000000000000002000000040000000000000000000000000000000008000000000020000000000000000000000000000000000000000000000000000000000000004000",
      "type": "0x2",
      "transactionHash": "0xb99db25be9edbcb93e2d0e03ddf73dae38feff650919051a327d5a8bc1ab8844",
      "transactionIndex": "0x72",
      "blockHash": "0xf991cec91858e5ad4e871abe19f9d0fff2e1eb8647790ec0080b0dee4e85d461",
      "blockNumber": "0xf8d5d5",
      "gasUsed": "0x13f87",
      "effectiveGasPrice": "0x865987",
      "from": "0x027a5ce58fc466d0e3a9d1990404354029398541",
      "to": "0x3530bf96982fa5a9e0d8bad84d3587e51a33d332",
      "contractAddress": null,
      "l1Fee": "0x305bad91d",
      "l1GasPrice": "0x1254d58d6",
      "l1GasUsed": "0x95c"
    },
    {
      "status": "0x1",
      "cumulativeGasUsed": "0xd6d300",
      "logs": [
        {
          "address": "0x3530bf96982fa5a9e0d8bad84d3587e51a33d332",
          "topics": [
            "0xddf252ad1be2c89b69c2b068fc378daa952ba7f163c4a11628f55a4df523b3ef",
            "0x0000000000000000000000000000000000000000000000000000000000000000",
            "0x000000000000000000000000b8e59a6fb75d2feab9d01405964e3cefee83f74b",
            "0x000000000000000000000000000000000000000000000000000000000000344c"
          ],
          "data": "0x",
          "blockHash": "0xf991cec91858e5ad4e871abe19f9d0fff2e1eb8647790ec0080b0dee4e85d461",
          "blockNumber": "0xf8d5d5",
          "transactionHash": "0xa7db0267c3369b0f642684d89a9968447e116b37040cc2bb4283221c61a5f184",
          "transactionIndex": "0x73",
          "logIndex": "0x175",
          "removed": false
        }
      ],
      "logsBloom": "0x00000002000000000000000000000000000000000000000000000000000000000000000000000000000000000000000000000000000000000000000000040000000000000000100000000008000000000000000000000000000000000000000000000000020000000000000000000800000008000000000000000010020000000000000000000000000000000000000000080000000000000000000000000000000000000001000000000000000000000000000000000000000000000000000000000002000000000000000001000000000000000000000000000000000020000000000000000000000000000000004000000000000000000000000000000000",
      "type": "0x2",
      "transactionHash": "0xa7db0267c3369b0f642684d89a9968447e116b37040cc2bb4283221c61a5f184",
      "transactionIndex": "0x73",
      "blockHash": "0xf991cec91858e5ad4e871abe19f9d0fff2e1eb8647790ec0080b0dee4e85d461",
      "blockNumber": "0xf8d5d5",
      "gasUsed": "0x13f87",
      "effectiveGasPrice": "0x865987",
      "from": "0x027a5ce58fc466d0e3a9d1990404354029398541",
      "to": "0x3530bf96982fa5a9e0d8bad84d3587e51a33d332",
      "contractAddress": null,
      "l1Fee": "0x3099ae02f",
      "l1GasPrice": "0x1254d58d6",
      "l1GasUsed": "0x968"
    },
    {
      "status": "0x1",
      "cumulativeGasUsed": "0xd81287",
      "logs": [
        {
          "address": "0x3530bf96982fa5a9e0d8bad84d3587e51a33d332",
          "topics": [
            "0xddf252ad1be2c89b69c2b068fc378daa952ba7f163c4a11628f55a4df523b3ef",
            "0x0000000000000000000000000000000000000000000000000000000000000000",
            "0x0000000000000000000000001afd29b6c99272e0889206279b2299a34d928c47",
            "0x000000000000000000000000000000000000000000000000000000000000344d"
          ],
          "data": "0x",
          "blockHash": "0xf991cec91858e5ad4e871abe19f9d0fff2e1eb8647790ec0080b0dee4e85d461",
          "blockNumber": "0xf8d5d5",
          "transactionHash": "0x0396865e50921189e933de2192b005395130e93260e44fa67583b3a4495ece39",
          "transactionIndex": "0x74",
          "logIndex": "0x176",
          "removed": false
        }
      ],
      "logsBloom": "0x00000002000000000000000000000800000000000000000000000000000000000000000000000000000000000000000000000000000000000000000000040000000000000000100000000008000000000000000000000000000000000000200000000000020000000000000000000800000000010000000000000010000000000800000000000000000000000000000000004000000000000000000000000000000000000000000000000000000000000000000000000000000000000000000000000002000000000000000000000000000000000000000000000000000020000000000000000000000000000000000000002000000000000000000000000000",
      "type": "0x2",
      "transactionHash": "0x0396865e50921189e933de2192b005395130e93260e44fa67583b3a4495ece39",
      "transactionIndex": "0x74",
      "blockHash": "0xf991cec91858e5ad4e871abe19f9d0fff2e1eb8647790ec0080b0dee4e85d461",
      "blockNumber": "0xf8d5d5",
      "gasUsed": "0x13f87",
      "effectiveGasPrice": "0x865987",
      "from": "0x027a5ce58fc466d0e3a9d1990404354029398541",
      "to": "0x3530bf96982fa5a9e0d8bad84d3587e51a33d332",
      "contractAddress": null,
      "l1Fee": "0x3099ae02f",
      "l1GasPrice": "0x1254d58d6",
      "l1GasUsed": "0x968"
    },
    {
      "status": "0x1",
      "cumulativeGasUsed": "0xd9520e",
      "logs": [
        {
          "address": "0x3530bf96982fa5a9e0d8bad84d3587e51a33d332",
          "topics": [
            "0xddf252ad1be2c89b69c2b068fc378daa952ba7f163c4a11628f55a4df523b3ef",
            "0x0000000000000000000000000000000000000000000000000000000000000000",
            "0x000000000000000000000000fafec344b71676aef0677756ca0dead889962343",
            "0x000000000000000000000000000000000000000000000000000000000000344e"
          ],
          "data": "0x",
          "blockHash": "0xf991cec91858e5ad4e871abe19f9d0fff2e1eb8647790ec0080b0dee4e85d461",
          "blockNumber": "0xf8d5d5",
          "transactionHash": "0x1200cb8281db5c76ec3d0113378c935bf4efe40fd920c637db2cf34e1f70734a",
          "transactionIndex": "0x75",
          "logIndex": "0x177",
          "removed": false
        }
      ],
      "logsBloom": "0x00000002000000000000000000000000000000000000000000000000000000000000000000000000000000000000000000000000000000000000000000040000000000000000100000000008000000000000000000000000000000000000000000000000020000000000000000000800000000000000000000000010000000000000000000000000000000000000000000000000000000080000000100000000000000000000000000000000000040000000000000000000000000000000000000000002000000000000010000000000000000000000000000000000000020000000000000000000000000000000000000000000000002001000000000000000",
      "type": "0x2",
      "transactionHash": "0x1200cb8281db5c76ec3d0113378c935bf4efe40fd920c637db2cf34e1f70734a",
      "transactionIndex": "0x75",
      "blockHash": "0xf991cec91858e5ad4e871abe19f9d0fff2e1eb8647790ec0080b0dee4e85d461",
      "blockNumber": "0xf8d5d5",
      "gasUsed": "0x13f87",
      "effectiveGasPrice": "0x865987",
      "from": "0x027a5ce58fc466d0e3a9d1990404354029398541",
      "to": "0x3530bf96982fa5a9e0d8bad84d3587e51a33d332",
      "contractAddress": null,
      "l1Fee": "0x3099ae02f",
      "l1GasPrice": "0x1254d58d6",
      "l1GasUsed": "0x968"
    },
    {
      "status": "0x1",
      "cumulativeGasUsed": "0xda9195",
      "logs": [
        {
          "address": "0x3530bf96982fa5a9e0d8bad84d3587e51a33d332",
          "topics": [
            "0xddf252ad1be2c89b69c2b068fc378daa952ba7f163c4a11628f55a4df523b3ef",
            "0x0000000000000000000000000000000000000000000000000000000000000000",
            "0x000000000000000000000000d3858e21a6baa209be27d9e053458ce6906b4790",
            "0x000000000000000000000000000000000000000000000000000000000000344f"
          ],
          "data": "0x",
          "blockHash": "0xf991cec91858e5ad4e871abe19f9d0fff2e1eb8647790ec0080b0dee4e85d461",
          "blockNumber": "0xf8d5d5",
          "transactionHash": "0x9d0c8913c406b96af8cee7516038e2c08571c421973c4e8b547093cdd1f0ded6",
          "transactionIndex": "0x76",
          "logIndex": "0x178",
          "removed": false
        }
      ],
      "logsBloom": "0x00000002000000000000000000000000000000000000000000000000000000000000000000000000000000000000000000000000000000000000000000040000000000000000100000000008002000000000000000000000000000000000000000000000020000000000000000000800000004000000000000000010000000000000000000000000000000000000000000000000000000000000000000000000000000000000000000000000000000000000000000000000000000000000000800000002000000000000000000000000200000000000000000000000000020100000000000000000000020000000000000000000000000000000000000000000",
      "type": "0x2",
      "transactionHash": "0x9d0c8913c406b96af8cee7516038e2c08571c421973c4e8b547093cdd1f0ded6",
      "transactionIndex": "0x76",
      "blockHash": "0xf991cec91858e5ad4e871abe19f9d0fff2e1eb8647790ec0080b0dee4e85d461",
      "blockNumber": "0xf8d5d5",
      "gasUsed": "0x13f87",
      "effectiveGasPrice": "0x865987",
      "from": "0x027a5ce58fc466d0e3a9d1990404354029398541",
      "to": "0x3530bf96982fa5a9e0d8bad84d3587e51a33d332",
      "contractAddress": null,
      "l1Fee": "0x305bad91d",
      "l1GasPrice": "0x1254d58d6",
      "l1GasUsed": "0x95c"
    },
    {
      "status": "0x1",
      "cumulativeGasUsed": "0xdbd11c",
      "logs": [
        {
          "address": "0x3530bf96982fa5a9e0d8bad84d3587e51a33d332",
          "topics": [
            "0xddf252ad1be2c89b69c2b068fc378daa952ba7f163c4a11628f55a4df523b3ef",
            "0x0000000000000000000000000000000000000000000000000000000000000000",
            "0x000000000000000000000000aad1b961f39a37ae85b70ae357bd20de1954ed36",
            "0x0000000000000000000000000000000000000000000000000000000000003450"
          ],
          "data": "0x",
          "blockHash": "0xf991cec91858e5ad4e871abe19f9d0fff2e1eb8647790ec0080b0dee4e85d461",
          "blockNumber": "0xf8d5d5",
          "transactionHash": "0x380704f1c55ed7ddf9151c357acf2f548156006cbfae9af1c0605f13438aef18",
          "transactionIndex": "0x77",
          "logIndex": "0x179",
          "removed": false
        }
      ],
      "logsBloom": "0x00000002000000000000000000000000000000000000000000000000000000000000000000000000000000000000000000000000000810000000000000060000000000000000100000000008000000000000000000000080000000000000000000000000020000000000000000000800000000000000000000000010000000000000000000020000000000000000000000000000000000000000000000000000000000000000000000000000000000000000000000000000000000000000000000000002000000000000000000000000000000000000000000010000000020000000000000000000000000000000000000000000000000000000000000000000",
      "type": "0x2",
      "transactionHash": "0x380704f1c55ed7ddf9151c357acf2f548156006cbfae9af1c0605f13438aef18",
      "transactionIndex": "0x77",
      "blockHash": "0xf991cec91858e5ad4e871abe19f9d0fff2e1eb8647790ec0080b0dee4e85d461",
      "blockNumber": "0xf8d5d5",
      "gasUsed": "0x13f87",
      "effectiveGasPrice": "0x865987",
      "from": "0x027a5ce58fc466d0e3a9d1990404354029398541",
      "to": "0x3530bf96982fa5a9e0d8bad84d3587e51a33d332",
      "contractAddress": null,
      "l1Fee": "0x305bad91d",
      "l1GasPrice": "0x1254d58d6",
      "l1GasUsed": "0x95c"
    },
    {
      "status": "0x1",
      "cumulativeGasUsed": "0xdd10a3",
      "logs": [
        {
          "address": "0x3530bf96982fa5a9e0d8bad84d3587e51a33d332",
          "topics": [
            "0xddf252ad1be2c89b69c2b068fc378daa952ba7f163c4a11628f55a4df523b3ef",
            "0x0000000000000000000000000000000000000000000000000000000000000000",
            "0x000000000000000000000000ebebc21f43d46d59985878864146bc9f0a42227e",
            "0x0000000000000000000000000000000000000000000000000000000000003451"
          ],
          "data": "0x",
          "blockHash": "0xf991cec91858e5ad4e871abe19f9d0fff2e1eb8647790ec0080b0dee4e85d461",
          "blockNumber": "0xf8d5d5",
          "transactionHash": "0x9ff603d48fddca95150add1c542c7215589d41f97e95fa9daae10f712f5b941b",
          "transactionIndex": "0x78",
          "logIndex": "0x17a",
          "removed": false
        }
      ],
      "logsBloom": "0x00000002000000000008000000000000000000000000000000000000000000000000000000000000000000000000000000000000004000000000000000040000000000000000100000000008000000000000000000000000000000000000000800000000020000000000000000000800000020000000000000000010000000000000000000000000000000000000000000000000000000000000000000000000000000000000000000000000000010400000000000000000000000000000000000000002000000000000000000000000000000000000000000000000000020000000000000000000000000000000000000000000000000000000000000000000",
      "type": "0x2",
      "transactionHash": "0x9ff603d48fddca95150add1c542c7215589d41f97e95fa9daae10f712f5b941b",
      "transactionIndex": "0x78",
      "blockHash": "0xf991cec91858e5ad4e871abe19f9d0fff2e1eb8647790ec0080b0dee4e85d461",
      "blockNumber": "0xf8d5d5",
      "gasUsed": "0x13f87",
      "effectiveGasPrice": "0x865987",
      "from": "0x027a5ce58fc466d0e3a9d1990404354029398541",
      "to": "0x3530bf96982fa5a9e0d8bad84d3587e51a33d332",
      "contractAddress": null,
      "l1Fee": "0x3099ae02f",
      "l1GasPrice": "0x1254d58d6",
      "l1GasUsed": "0x968"
    },
    {
      "status": "0x1",
      "cumulativeGasUsed": "0xde502a",
      "logs": [
        {
          "address": "0x3530bf96982fa5a9e0d8bad84d3587e51a33d332",
          "topics": [
            "0xddf252ad1be2c89b69c2b068fc378daa952ba7f163c4a11628f55a4df523b3ef",
            "0x0000000000000000000000000000000000000000000000000000000000000000",
            "0x0000000000000000000000004463f3df05a4b297d29562a94f5c4ffdd98afa9a",
            "0x0000000000000000000000000000000000000000000000000000000000003452"
          ],
          "data": "0x",
          "blockHash": "0xf991cec91858e5ad4e871abe19f9d0fff2e1eb8647790ec0080b0dee4e85d461",
          "blockNumber": "0xf8d5d5",
          "transactionHash": "0x9551cb46aa7f826d7d16a1195f341cb25252856b9fea36ac05e6f5dd0157a6c0",
          "transactionIndex": "0x79",
          "logIndex": "0x17b",
          "removed": false
        }
      ],
      "logsBloom": "0x00000002000000000000000000000000000000000000000000000000000000000000000000000000000000000000000000000000000000000000000000040000000000000000100000000008000000000000000000000000000000000000000000000000020000000000000000000800000000000000000000000010000000000000000000000000000000000800000000000000000000000000000000000000000000000000000000000000000000000000000000000000000004000000000000000402000000100000000000000000000000400000000000000000000020000000000000000000000000000000000000000000000001000000000000000000",
      "type": "0x2",
      "transactionHash": "0x9551cb46aa7f826d7d16a1195f341cb25252856b9fea36ac05e6f5dd0157a6c0",
      "transactionIndex": "0x79",
      "blockHash": "0xf991cec91858e5ad4e871abe19f9d0fff2e1eb8647790ec0080b0dee4e85d461",
      "blockNumber": "0xf8d5d5",
      "gasUsed": "0x13f87",
      "effectiveGasPrice": "0x865987",
      "from": "0x027a5ce58fc466d0e3a9d1990404354029398541",
      "to": "0x3530bf96982fa5a9e0d8bad84d3587e51a33d332",
      "contractAddress": null,
      "l1Fee": "0x3099ae02f",
      "l1GasPrice": "0x1254d58d6",
      "l1GasUsed": "0x968"
    },
    {
      "status": "0x1",
      "cumulativeGasUsed": "0xdf8fb1",
      "logs": [
        {
          "address": "0x3530bf96982fa5a9e0d8bad84d3587e51a33d332",
          "topics": [
            "0xddf252ad1be2c89b69c2b068fc378daa952ba7f163c4a11628f55a4df523b3ef",
            "0x0000000000000000000000000000000000000000000000000000000000000000",
            "0x000000000000000000000000031bc8b88562493a23ebac35718e944d035fdea4",
            "0x0000000000000000000000000000000000000000000000000000000000003453"
          ],
          "data": "0x",
          "blockHash": "0xf991cec91858e5ad4e871abe19f9d0fff2e1eb8647790ec0080b0dee4e85d461",
          "blockNumber": "0xf8d5d5",
          "transactionHash": "0x1bc2d09119f778c52de5b7538db7e87aa75cdb622f67eb2185af4ad043481c77",
          "transactionIndex": "0x7a",
          "logIndex": "0x17c",
          "removed": false
        }
      ],
      "logsBloom": "0x00000002000000000000000000000000000000000000200000000000000000000000000000000000000000000000000000000000000000000040000000040000100000000000100000000008000000000000000000000000000000000000000000000000020000000000000000000801000000000000000000000010000000000000000000000000000000000000000000000000000000000000000000000000000000000000000000000000000000000000000000000000000000000000000000000002000100000000000000000000000000000000000000000000000020000000000000000000000000000000000000000000010000000000000000000000",
      "type": "0x2",
      "transactionHash": "0x1bc2d09119f778c52de5b7538db7e87aa75cdb622f67eb2185af4ad043481c77",
      "transactionIndex": "0x7a",
      "blockHash": "0xf991cec91858e5ad4e871abe19f9d0fff2e1eb8647790ec0080b0dee4e85d461",
      "blockNumber": "0xf8d5d5",
      "gasUsed": "0x13f87",
      "effectiveGasPrice": "0x865987",
      "from": "0x027a5ce58fc466d0e3a9d1990404354029398541",
      "to": "0x3530bf96982fa5a9e0d8bad84d3587e51a33d332",
      "contractAddress": null,
      "l1Fee": "0x305bad91d",
      "l1GasPrice": "0x1254d58d6",
      "l1GasUsed": "0x95c"
    },
    {
      "status": "0x1",
      "cumulativeGasUsed": "0xe0cf38",
      "logs": [
        {
          "address": "0x3530bf96982fa5a9e0d8bad84d3587e51a33d332",
          "topics": [
            "0xddf252ad1be2c89b69c2b068fc378daa952ba7f163c4a11628f55a4df523b3ef",
            "0x0000000000000000000000000000000000000000000000000000000000000000",
            "0x000000000000000000000000195cbcd2de87e11cd3dc3b7cc3a81e84b93ac521",
            "0x0000000000000000000000000000000000000000000000000000000000003454"
          ],
          "data": "0x",
          "blockHash": "0xf991cec91858e5ad4e871abe19f9d0fff2e1eb8647790ec0080b0dee4e85d461",
          "blockNumber": "0xf8d5d5",
          "transactionHash": "0xeb02c2b70dfd1e100ef60817f8a34813e6fc3eaee7d7ce39966731eb8200c61a",
          "transactionIndex": "0x7b",
          "logIndex": "0x17d",
          "removed": false
        }
      ],
      "logsBloom": "0x0000000200000000000000000200000000000000000000000000000000000000000000000000000000000000000000000000000000000000000000000004000000000000000010000000000c000000000000000000000000000000000000000000000000020800000000000000000800000000000000000000000010000000000000080000000000000000000000000000100000000000000000000040000000000000000000000000000000000000000000000000000000000000000000000000000002000000000000000000000000000000000000000000000000000020000000000000000000000000000000000000000000000000000000000000000000",
      "type": "0x2",
      "transactionHash": "0xeb02c2b70dfd1e100ef60817f8a34813e6fc3eaee7d7ce39966731eb8200c61a",
      "transactionIndex": "0x7b",
      "blockHash": "0xf991cec91858e5ad4e871abe19f9d0fff2e1eb8647790ec0080b0dee4e85d461",
      "blockNumber": "0xf8d5d5",
      "gasUsed": "0x13f87",
      "effectiveGasPrice": "0x865987",
      "from": "0x027a5ce58fc466d0e3a9d1990404354029398541",
      "to": "0x3530bf96982fa5a9e0d8bad84d3587e51a33d332",
      "contractAddress": null,
      "l1Fee": "0x3099ae02f",
      "l1GasPrice": "0x1254d58d6",
      "l1GasUsed": "0x968"
    },
    {
      "status": "0x1",
      "cumulativeGasUsed": "0xe20ebf",
      "logs": [
        {
          "address": "0x3530bf96982fa5a9e0d8bad84d3587e51a33d332",
          "topics": [
            "0xddf252ad1be2c89b69c2b068fc378daa952ba7f163c4a11628f55a4df523b3ef",
            "0x0000000000000000000000000000000000000000000000000000000000000000",
            "0x0000000000000000000000003ccd38faf46a8465231d2752bef36e5556545af0",
            "0x0000000000000000000000000000000000000000000000000000000000003455"
          ],
          "data": "0x",
          "blockHash": "0xf991cec91858e5ad4e871abe19f9d0fff2e1eb8647790ec0080b0dee4e85d461",
          "blockNumber": "0xf8d5d5",
          "transactionHash": "0x21b100f5031a41da3f3dbfa6207fd3873ad6dc5594e63a566cd6c6435329c21f",
          "transactionIndex": "0x7c",
          "logIndex": "0x17e",
          "removed": false
        }
      ],
      "logsBloom": "0x0000000200002000000000000000000000000000000000000000000000000000000000000000400000000000000000000000000000000000000000000004000000002000000010000000000c000000000000000000000000000000000000000000000000020000000000004000000800000000000000000000000010000000000000000000000000000000000000000000000000000000000000000000000000000000400000000000000000000000000000000000000000000000000000000000000002000000000000000000000000000000000000000000000000000020000000000000000000000000000000000000000000000000000000000000000000",
      "type": "0x2",
      "transactionHash": "0x21b100f5031a41da3f3dbfa6207fd3873ad6dc5594e63a566cd6c6435329c21f",
      "transactionIndex": "0x7c",
      "blockHash": "0xf991cec91858e5ad4e871abe19f9d0fff2e1eb8647790ec0080b0dee4e85d461",
      "blockNumber": "0xf8d5d5",
      "gasUsed": "0x13f87",
      "effectiveGasPrice": "0x865987",
      "from": "0x027a5ce58fc466d0e3a9d1990404354029398541",
      "to": "0x3530bf96982fa5a9e0d8bad84d3587e51a33d332",
      "contractAddress": null,
      "l1Fee": "0x3099ae02f",
      "l1GasPrice": "0x1254d58d6",
      "l1GasUsed": "0x968"
    },
    {
      "status": "0x1",
      "cumulativeGasUsed": "0xe34e46",
      "logs": [
        {
          "address": "0x3530bf96982fa5a9e0d8bad84d3587e51a33d332",
          "topics": [
            "0xddf252ad1be2c89b69c2b068fc378daa952ba7f163c4a11628f55a4df523b3ef",
            "0x0000000000000000000000000000000000000000000000000000000000000000",
            "0x000000000000000000000000dc5d0e333ea5220e41928538b023ea64ab41b81c",
            "0x0000000000000000000000000000000000000000000000000000000000003456"
          ],
          "data": "0x",
          "blockHash": "0xf991cec91858e5ad4e871abe19f9d0fff2e1eb8647790ec0080b0dee4e85d461",
          "blockNumber": "0xf8d5d5",
          "transactionHash": "0xb174679bf3446d587361c5e53f3e541c1e0cfdefdc178c0ee9836a73331637b8",
          "transactionIndex": "0x7d",
          "logIndex": "0x17f",
          "removed": false
        }
      ],
      "logsBloom": "0x00000002000000000000000000000000000000000000000000000000000000000000800000000000400000000000000000000000000000000000000000040008000000080000100000000008000000000000000000000000000000000000000000000000020000000000000000004800000000000000000000000010000000000000000000000000000000000000000000000000000000000000000000000000000000000000000000000000000000000000000000000000000000000000000000000002000000000004000000000000000000000000000000000000000020000000000000000000000000000000000000000000000000000000000000000000",
      "type": "0x2",
      "transactionHash": "0xb174679bf3446d587361c5e53f3e541c1e0cfdefdc178c0ee9836a73331637b8",
      "transactionIndex": "0x7d",
      "blockHash": "0xf991cec91858e5ad4e871abe19f9d0fff2e1eb8647790ec0080b0dee4e85d461",
      "blockNumber": "0xf8d5d5",
      "gasUsed": "0x13f87",
      "effectiveGasPrice": "0x865987",
      "from": "0x027a5ce58fc466d0e3a9d1990404354029398541",
      "to": "0x3530bf96982fa5a9e0d8bad84d3587e51a33d332",
      "contractAddress": null,
      "l1Fee": "0x301dad20b",
      "l1GasPrice": "0x1254d58d6",
      "l1GasUsed": "0x950"
    },
    {
      "status": "0x1",
      "cumulativeGasUsed": "0xe48dcd",
      "logs": [
        {
          "address": "0x3530bf96982fa5a9e0d8bad84d3587e51a33d332",
          "topics": [
            "0xddf252ad1be2c89b69c2b068fc378daa952ba7f163c4a11628f55a4df523b3ef",
            "0x0000000000000000000000000000000000000000000000000000000000000000",
            "0x000000000000000000000000c9cdd1dea780da17a95efc72780b6b33fd49134a",
            "0x0000000000000000000000000000000000000000000000000000000000003457"
          ],
          "data": "0x",
          "blockHash": "0xf991cec91858e5ad4e871abe19f9d0fff2e1eb8647790ec0080b0dee4e85d461",
          "blockNumber": "0xf8d5d5",
          "transactionHash": "0xfa44ee40c666e9b96f1dee2207fb07d4176bb5895248407ccc17578ba3853b9d",
          "transactionIndex": "0x7e",
          "logIndex": "0x180",
          "removed": false
        }
      ],
      "logsBloom": "0x00000002000000000000000000000000000000000000000000000000000000000000000000000000000000008000000000000000000000000000000000040000000000000000100000000008000000000000000000000000000000000000000000000000020000000000000000000800000000000000000000000010000000000000000000000000000000000000000000000000000000000000000000000000000000000080000000000000000000000000000000000808000000000000004000000002000000000000000000000000000000000000000000000000000220000000000000000000000000000000000000000000000000000000000000000000",
      "type": "0x2",
      "transactionHash": "0xfa44ee40c666e9b96f1dee2207fb07d4176bb5895248407ccc17578ba3853b9d",
      "transactionIndex": "0x7e",
      "blockHash": "0xf991cec91858e5ad4e871abe19f9d0fff2e1eb8647790ec0080b0dee4e85d461",
      "blockNumber": "0xf8d5d5",
      "gasUsed": "0x13f87",
      "effectiveGasPrice": "0x865987",
      "from": "0x027a5ce58fc466d0e3a9d1990404354029398541",
      "to": "0x3530bf96982fa5a9e0d8bad84d3587e51a33d332",
      "contractAddress": null,
      "l1Fee": "0x3099ae02f",
      "l1GasPrice": "0x1254d58d6",
      "l1GasUsed": "0x968"
    },
    {
      "status": "0x1",
      "cumulativeGasUsed": "0xe5cd54",
      "logs": [
        {
          "address": "0x3530bf96982fa5a9e0d8bad84d3587e51a33d332",
          "topics": [
            "0xddf252ad1be2c89b69c2b068fc378daa952ba7f163c4a11628f55a4df523b3ef",
            "0x0000000000000000000000000000000000000000000000000000000000000000",
            "0x000000000000000000000000b9cb4c538210b69a4d5b5dfa4e18c52193170fa9",
            "0x0000000000000000000000000000000000000000000000000000000000003458"
          ],
          "data": "0x",
          "blockHash": "0xf991cec91858e5ad4e871abe19f9d0fff2e1eb8647790ec0080b0dee4e85d461",
          "blockNumber": "0xf8d5d5",
          "transactionHash": "0x7e1692b860b50b3bf83dacb5bef72e47042aac0477a7dc49f068570d27b0e753",
          "transactionIndex": "0x7f",
          "logIndex": "0x181",
          "removed": false
        }
      ],
      "logsBloom": "0x00000002000000000000000000000000000000000000080000000000000000000000000000000000000000000000000000000000000000000000000000040000000000000010100000000008000000000000000000000000000000000000000000800000020000000000000000000800000000000000000000000010000000000000000000000000000000000000000000000000000000000000000000000000000000000000000000000000000000000000000000000000000000000000000000000002000000000000000000000000000000000000000020000000000020000000000000000000000010000000000000000000000000000000000000000000",
      "type": "0x2",
      "transactionHash": "0x7e1692b860b50b3bf83dacb5bef72e47042aac0477a7dc49f068570d27b0e753",
      "transactionIndex": "0x7f",
      "blockHash": "0xf991cec91858e5ad4e871abe19f9d0fff2e1eb8647790ec0080b0dee4e85d461",
      "blockNumber": "0xf8d5d5",
      "gasUsed": "0x13f87",
      "effectiveGasPrice": "0x865987",
      "from": "0x027a5ce58fc466d0e3a9d1990404354029398541",
      "to": "0x3530bf96982fa5a9e0d8bad84d3587e51a33d332",
      "contractAddress": null,
      "l1Fee": "0x3099ae02f",
      "l1GasPrice": "0x1254d58d6",
      "l1GasUsed": "0x968"
    },
    {
      "status": "0x1",
      "cumulativeGasUsed": "0xe70cdb",
      "logs": [
        {
          "address": "0x3530bf96982fa5a9e0d8bad84d3587e51a33d332",
          "topics": [
            "0xddf252ad1be2c89b69c2b068fc378daa952ba7f163c4a11628f55a4df523b3ef",
            "0x0000000000000000000000000000000000000000000000000000000000000000",
            "0x000000000000000000000000b9c1c633d7802aaf30c153c266759eae27d054bd",
            "0x0000000000000000000000000000000000000000000000000000000000003459"
          ],
          "data": "0x",
          "blockHash": "0xf991cec91858e5ad4e871abe19f9d0fff2e1eb8647790ec0080b0dee4e85d461",
          "blockNumber": "0xf8d5d5",
          "transactionHash": "0x7c78daa97336d4d8e5d4f6fb5569326121cd87c8e515ca57743e0bcffc7756ab",
          "transactionIndex": "0x80",
          "logIndex": "0x182",
          "removed": false
        }
      ],
      "logsBloom": "0x00000402000000000000000000000000000000000000000000000000000040000000000000000000000000000000000000000000000000000000000000040000000000000000100000800008000000000000000000000000000000000000000004000000020000000000000000000800000000000000000000000010000000000000000000000000000000000000000000000000000000000000000000000000000000000000000000000000000000000000000000000000000000000000000000000082000000000000000000000000000000000000000000000000000020000000000000000000000000000000000000002000000000000000000000000000",
      "type": "0x2",
      "transactionHash": "0x7c78daa97336d4d8e5d4f6fb5569326121cd87c8e515ca57743e0bcffc7756ab",
      "transactionIndex": "0x80",
      "blockHash": "0xf991cec91858e5ad4e871abe19f9d0fff2e1eb8647790ec0080b0dee4e85d461",
      "blockNumber": "0xf8d5d5",
      "gasUsed": "0x13f87",
      "effectiveGasPrice": "0x865987",
      "from": "0x027a5ce58fc466d0e3a9d1990404354029398541",
      "to": "0x3530bf96982fa5a9e0d8bad84d3587e51a33d332",
      "contractAddress": null,
      "l1Fee": "0x3099ae02f",
      "l1GasPrice": "0x1254d58d6",
      "l1GasUsed": "0x968"
    },
    {
      "status": "0x1",
      "cumulativeGasUsed": "0xe84c62",
      "logs": [
        {
          "address": "0x3530bf96982fa5a9e0d8bad84d3587e51a33d332",
          "topics": [
            "0xddf252ad1be2c89b69c2b068fc378daa952ba7f163c4a11628f55a4df523b3ef",
            "0x0000000000000000000000000000000000000000000000000000000000000000",
            "0x000000000000000000000000b4f35d3998512f45312fa4059bd2a6f466a66f31",
            "0x000000000000000000000000000000000000000000000000000000000000345a"
          ],
          "data": "0x",
          "blockHash": "0xf991cec91858e5ad4e871abe19f9d0fff2e1eb8647790ec0080b0dee4e85d461",
          "blockNumber": "0xf8d5d5",
          "transactionHash": "0x201e6e402281878749d0107d8782912b5d7d81820c3e954d9621cf7c77a05dc5",
          "transactionIndex": "0x81",
          "logIndex": "0x183",
          "removed": false
        }
      ],
      "logsBloom": "0x00000002000000000000000000000000000000000000000000000000000000000000000000000000080000000000000000000000000000000000000000040000010000000000100000000008000000000000000000000000000000000000000000000000020000000000000000000800000000000000000000000010000000000000000000000000000000000000000000800000000000000000000000000000000000000000000000000000000200000000000000000000000000000000000000000002000000000000000000400000000000000000000000000000000020000000000000000000000000000000000000000000000000000000000000010000",
      "type": "0x2",
      "transactionHash": "0x201e6e402281878749d0107d8782912b5d7d81820c3e954d9621cf7c77a05dc5",
      "transactionIndex": "0x81",
      "blockHash": "0xf991cec91858e5ad4e871abe19f9d0fff2e1eb8647790ec0080b0dee4e85d461",
      "blockNumber": "0xf8d5d5",
      "gasUsed": "0x13f87",
      "effectiveGasPrice": "0x865987",
      "from": "0x027a5ce58fc466d0e3a9d1990404354029398541",
      "to": "0x3530bf96982fa5a9e0d8bad84d3587e51a33d332",
      "contractAddress": null,
      "l1Fee": "0x3099ae02f",
      "l1GasPrice": "0x1254d58d6",
      "l1GasUsed": "0x968"
    },
    {
      "status": "0x1",
      "cumulativeGasUsed": "0xe98bdd",
      "logs": [
        {
          "address": "0x3530bf96982fa5a9e0d8bad84d3587e51a33d332",
          "topics": [
            "0xddf252ad1be2c89b69c2b068fc378daa952ba7f163c4a11628f55a4df523b3ef",
            "0x0000000000000000000000000000000000000000000000000000000000000000",
            "0x0000000000000000000000005d57b4486c006c1e20273a1b69424e390678df34",
            "0x000000000000000000000000000000000000000000000000000000000000345b"
          ],
          "data": "0x",
          "blockHash": "0xf991cec91858e5ad4e871abe19f9d0fff2e1eb8647790ec0080b0dee4e85d461",
          "blockNumber": "0xf8d5d5",
          "transactionHash": "0x60fcce34ff0003bbe98cf00e20f17421feea87e79be33ac85cd5c9ffd845104f",
          "transactionIndex": "0x82",
          "logIndex": "0x184",
          "removed": false
        }
      ],
      "logsBloom": "0x00000002000000000000000000002000000000000000000000000000000000000000000000000000000000000000000000000080200000000000000000040000000000000000100000000008000000000008000000000000000000000000000000000000020000000000000000000800000000000000000000000010000000000000000000000000000000000000000000000000000000000000000000800000000000000000000000000000000000000000000000000000000000000000000000000002000000000000000000000000000000000002000000000000000020000000000000000000000000000000000000000000000000000000000000000000",
      "type": "0x2",
      "transactionHash": "0x60fcce34ff0003bbe98cf00e20f17421feea87e79be33ac85cd5c9ffd845104f",
      "transactionIndex": "0x82",
      "blockHash": "0xf991cec91858e5ad4e871abe19f9d0fff2e1eb8647790ec0080b0dee4e85d461",
      "blockNumber": "0xf8d5d5",
      "gasUsed": "0x13f7b",
      "effectiveGasPrice": "0x865987",
      "from": "0x027a5ce58fc466d0e3a9d1990404354029398541",
      "to": "0x3530bf96982fa5a9e0d8bad84d3587e51a33d332",
      "contractAddress": null,
      "l1Fee": "0x305bad91d",
      "l1GasPrice": "0x1254d58d6",
      "l1GasUsed": "0x95c"
    },
    {
      "status": "0x1",
      "cumulativeGasUsed": "0xeacb64",
      "logs": [
        {
          "address": "0x3530bf96982fa5a9e0d8bad84d3587e51a33d332",
          "topics": [
            "0xddf252ad1be2c89b69c2b068fc378daa952ba7f163c4a11628f55a4df523b3ef",
            "0x0000000000000000000000000000000000000000000000000000000000000000",
            "0x000000000000000000000000b22f8b47165193dd47b534c4ce74b97a62e25aa6",
            "0x000000000000000000000000000000000000000000000000000000000000345c"
          ],
          "data": "0x",
          "blockHash": "0xf991cec91858e5ad4e871abe19f9d0fff2e1eb8647790ec0080b0dee4e85d461",
          "blockNumber": "0xf8d5d5",
          "transactionHash": "0xf5eeda4c954715f5978f59a0b0192927533313d217e218a4d27319a843f60461",
          "transactionIndex": "0x83",
          "logIndex": "0x185",
          "removed": false
        }
      ],
      "logsBloom": "0x00000002000000000000000000000000000000000000000000000000000000000000000000000000000000000000000000000000000000000000000000040000000000000000100000000008000000000000000000000000000800000000000000000000020000200000000000000800000000000000000000000010000000000000000000000000000200000000000000000000000000000000000000000000000000000000000000000000000000000000000000000000000000000000000000000002800000000000000000000000000000000000000000200000000020000000000000000000000000000000000008000000000000000000000000000000",
      "type": "0x2",
      "transactionHash": "0xf5eeda4c954715f5978f59a0b0192927533313d217e218a4d27319a843f60461",
      "transactionIndex": "0x83",
      "blockHash": "0xf991cec91858e5ad4e871abe19f9d0fff2e1eb8647790ec0080b0dee4e85d461",
      "blockNumber": "0xf8d5d5",
      "gasUsed": "0x13f87",
      "effectiveGasPrice": "0x865987",
      "from": "0x027a5ce58fc466d0e3a9d1990404354029398541",
      "to": "0x3530bf96982fa5a9e0d8bad84d3587e51a33d332",
      "contractAddress": null,
      "l1Fee": "0x3099ae02f",
      "l1GasPrice": "0x1254d58d6",
      "l1GasUsed": "0x968"
    },
    {
      "status": "0x1",
      "cumulativeGasUsed": "0xec0aeb",
      "logs": [
        {
          "address": "0x3530bf96982fa5a9e0d8bad84d3587e51a33d332",
          "topics": [
            "0xddf252ad1be2c89b69c2b068fc378daa952ba7f163c4a11628f55a4df523b3ef",
            "0x0000000000000000000000000000000000000000000000000000000000000000",
            "0x0000000000000000000000003be52dd4d4229f9b6bde0640e698a9949a45f5c0",
            "0x000000000000000000000000000000000000000000000000000000000000345d"
          ],
          "data": "0x",
          "blockHash": "0xf991cec91858e5ad4e871abe19f9d0fff2e1eb8647790ec0080b0dee4e85d461",
          "blockNumber": "0xf8d5d5",
          "transactionHash": "0xfe7dc94bc1122db3ac38735eb0a5ce53a9f8458d7aade836c4ec7d46cf90c190",
          "transactionIndex": "0x84",
          "logIndex": "0x186",
          "removed": false
        }
      ],
      "logsBloom": "0x00000002000000000000000000000000000000008000000000000000000000000000000000000000000000000000000000000000000000000000000000040000000000000000100000000008000000000000000000000000000000000000000000000000020000000000000000000800000000000000000000000010000000000000200000000008000000000000000000000000000000000000000000000000000000000000000000000000000000001000000000000008000000000000000000000002000000000000000000000000000000000000004000000000000020000000000000000000000000000000000000000000000000000000000000000000",
      "type": "0x2",
      "transactionHash": "0xfe7dc94bc1122db3ac38735eb0a5ce53a9f8458d7aade836c4ec7d46cf90c190",
      "transactionIndex": "0x84",
      "blockHash": "0xf991cec91858e5ad4e871abe19f9d0fff2e1eb8647790ec0080b0dee4e85d461",
      "blockNumber": "0xf8d5d5",
      "gasUsed": "0x13f87",
      "effectiveGasPrice": "0x865987",
      "from": "0x027a5ce58fc466d0e3a9d1990404354029398541",
      "to": "0x3530bf96982fa5a9e0d8bad84d3587e51a33d332",
      "contractAddress": null,
      "l1Fee": "0x3099ae02f",
      "l1GasPrice": "0x1254d58d6",
      "l1GasUsed": "0x968"
    },
    {
      "status": "0x1",
      "cumulativeGasUsed": "0xed4a5a",
      "logs": [
        {
          "address": "0x3530bf96982fa5a9e0d8bad84d3587e51a33d332",
          "topics": [
            "0xddf252ad1be2c89b69c2b068fc378daa952ba7f163c4a11628f55a4df523b3ef",
            "0x0000000000000000000000000000000000000000000000000000000000000000",
            "0x000000000000000000000000880239580059889bc90228dfd127bcf069f1003c",
            "0x000000000000000000000000000000000000000000000000000000000000345e"
          ],
          "data": "0x",
          "blockHash": "0xf991cec91858e5ad4e871abe19f9d0fff2e1eb8647790ec0080b0dee4e85d461",
          "blockNumber": "0xf8d5d5",
          "transactionHash": "0xcbad35f6cbd6e23f9ac6c066d21efb991da244c294ff17938849d0b94887808f",
          "transactionIndex": "0x85",
          "logIndex": "0x187",
          "removed": false
        }
      ],
      "logsBloom": "0x00000002000000000000000000000000000000000000000000000000000000000000000000000000000000000000000000000000000000000000000000040000000000000000100000000008000010000000000000000000000000000000000000000000020000000000000000000800000000000000000000000011000000000000000000000000000200000000000000000000000000000000000000000000000000000000000000000000000000000000000000000000000000000000000000000002000000004000000000000000000000000000000080000000000020000000000000000000000000100000000000000000000000000000000000000000",
      "type": "0x2",
      "transactionHash": "0xcbad35f6cbd6e23f9ac6c066d21efb991da244c294ff17938849d0b94887808f",
      "transactionIndex": "0x85",
      "blockHash": "0xf991cec91858e5ad4e871abe19f9d0fff2e1eb8647790ec0080b0dee4e85d461",
      "blockNumber": "0xf8d5d5",
      "gasUsed": "0x13f6f",
      "effectiveGasPrice": "0x865987",
      "from": "0x027a5ce58fc466d0e3a9d1990404354029398541",
      "to": "0x3530bf96982fa5a9e0d8bad84d3587e51a33d332",
      "contractAddress": null,
      "l1Fee": "0x301dad20b",
      "l1GasPrice": "0x1254d58d6",
      "l1GasUsed": "0x950"
    },
    {
      "status": "0x1",
      "cumulativeGasUsed": "0xee89e1",
      "logs": [
        {
          "address": "0x3530bf96982fa5a9e0d8bad84d3587e51a33d332",
          "topics": [
            "0xddf252ad1be2c89b69c2b068fc378daa952ba7f163c4a11628f55a4df523b3ef",
            "0x0000000000000000000000000000000000000000000000000000000000000000",
            "0x0000000000000000000000005097e7875fa713071825e06c12240331cc54ca02",
            "0x000000000000000000000000000000000000000000000000000000000000345f"
          ],
          "data": "0x",
          "blockHash": "0xf991cec91858e5ad4e871abe19f9d0fff2e1eb8647790ec0080b0dee4e85d461",
          "blockNumber": "0xf8d5d5",
          "transactionHash": "0xdcdb1debac351d2df1230e468f1c03c03c298a5f8c4860fd272b90bfac28b998",
          "transactionIndex": "0x86",
          "logIndex": "0x188",
          "removed": false
        }
      ],
      "logsBloom": "0x00000002000000000000000000000000000000000000000000000000000000000000000010000000000000000000000000000000000000000000000000040000001000000000100000000008000000000000000000000000000000000000000000000000020000000000000000000800000000000000000000000811000000000000000000000000000000002000000000000000000000000000000008000000000000000000000000000000000000000000000000000000000000000000000000000002000000000000000000000000000000000000000000000000000020000000000000000000000000000000000000000000000000000000000000000000",
      "type": "0x2",
      "transactionHash": "0xdcdb1debac351d2df1230e468f1c03c03c298a5f8c4860fd272b90bfac28b998",
      "transactionIndex": "0x86",
      "blockHash": "0xf991cec91858e5ad4e871abe19f9d0fff2e1eb8647790ec0080b0dee4e85d461",
      "blockNumber": "0xf8d5d5",
      "gasUsed": "0x13f87",
      "effectiveGasPrice": "0x865987",
      "from": "0x027a5ce58fc466d0e3a9d1990404354029398541",
      "to": "0x3530bf96982fa5a9e0d8bad84d3587e51a33d332",
      "contractAddress": null,
      "l1Fee": "0x3099ae02f",
      "l1GasPrice": "0x1254d58d6",
      "l1GasUsed": "0x968"
    },
    {
      "status": "0x1",
      "cumulativeGasUsed": "0xefc968",
      "logs": [
        {
          "address": "0x3530bf96982fa5a9e0d8bad84d3587e51a33d332",
          "topics": [
            "0xddf252ad1be2c89b69c2b068fc378daa952ba7f163c4a11628f55a4df523b3ef",
            "0x0000000000000000000000000000000000000000000000000000000000000000",
            "0x000000000000000000000000fd4532d4ec4f33dc237fdb958fcb207823e4504b",
            "0x0000000000000000000000000000000000000000000000000000000000003460"
          ],
          "data": "0x",
          "blockHash": "0xf991cec91858e5ad4e871abe19f9d0fff2e1eb8647790ec0080b0dee4e85d461",
          "blockNumber": "0xf8d5d5",
          "transactionHash": "0x402273317d289a503819552413a20e248aa2b5c66562500c1f0d5fe7166ec4d9",
          "transactionIndex": "0x87",
          "logIndex": "0x189",
          "removed": false
        }
      ],
      "logsBloom": "0x00000002100000800000000000000000000000000000000000000000000000000000000000000000000000000000000000000000001000000000000000040000000000000000100000000008000000000000000000000000000000000000000000000000020000000000000000000800000000000000000000020010000000000000000000000000000000000000000000000000000000000000000000000006000000000000000000000000000000000000000000000000000000000000000000000002000000000000000000000000000000000000000000000000000020000000000000000000000000000000000000000000000000000000000000000000",
      "type": "0x2",
      "transactionHash": "0x402273317d289a503819552413a20e248aa2b5c66562500c1f0d5fe7166ec4d9",
      "transactionIndex": "0x87",
      "blockHash": "0xf991cec91858e5ad4e871abe19f9d0fff2e1eb8647790ec0080b0dee4e85d461",
      "blockNumber": "0xf8d5d5",
      "gasUsed": "0x13f87",
      "effectiveGasPrice": "0x865987",
      "from": "0x027a5ce58fc466d0e3a9d1990404354029398541",
      "to": "0x3530bf96982fa5a9e0d8bad84d3587e51a33d332",
      "contractAddress": null,
      "l1Fee": "0x3099ae02f",
      "l1GasPrice": "0x1254d58d6",
      "l1GasUsed": "0x968"
    },
    {
      "status": "0x1",
      "cumulativeGasUsed": "0xf108ef",
      "logs": [
        {
          "address": "0x3530bf96982fa5a9e0d8bad84d3587e51a33d332",
          "topics": [
            "0xddf252ad1be2c89b69c2b068fc378daa952ba7f163c4a11628f55a4df523b3ef",
            "0x0000000000000000000000000000000000000000000000000000000000000000",
            "0x0000000000000000000000005ac2d1cb7a23ed56fba04946beb1fd351f0c9f8a",
            "0x0000000000000000000000000000000000000000000000000000000000003461"
          ],
          "data": "0x",
          "blockHash": "0xf991cec91858e5ad4e871abe19f9d0fff2e1eb8647790ec0080b0dee4e85d461",
          "blockNumber": "0xf8d5d5",
          "transactionHash": "0x6df6aec4a3516319af39b2aba44602ed3a7278f01c3f169ba28d89675882f848",
          "transactionIndex": "0x88",
          "logIndex": "0x18a",
          "removed": false
        }
      ],
      "logsBloom": "0x00000002000000000000000000000000000000000000000000000000000000000000000000000000000000000000000000000000000000000000000000140000000000000000120000000008000000000000000000000000002000000000000000000000020000000000000000000800000000000000000000000010000000000000000000000000000000000000000000000000000000000000000000000000000000000000000000000000000000000000000000000000000000100000000000000002000000000000001008000000000000000000000000000000000020000000000000000000000000000000000000000000000000000000000000000000",
      "type": "0x2",
      "transactionHash": "0x6df6aec4a3516319af39b2aba44602ed3a7278f01c3f169ba28d89675882f848",
      "transactionIndex": "0x88",
      "blockHash": "0xf991cec91858e5ad4e871abe19f9d0fff2e1eb8647790ec0080b0dee4e85d461",
      "blockNumber": "0xf8d5d5",
      "gasUsed": "0x13f87",
      "effectiveGasPrice": "0x865987",
      "from": "0x027a5ce58fc466d0e3a9d1990404354029398541",
      "to": "0x3530bf96982fa5a9e0d8bad84d3587e51a33d332",
      "contractAddress": null,
      "l1Fee": "0x3099ae02f",
      "l1GasPrice": "0x1254d58d6",
      "l1GasUsed": "0x968"
    },
    {
      "status": "0x1",
      "cumulativeGasUsed": "0xf24876",
      "logs": [
        {
          "address": "0x3530bf96982fa5a9e0d8bad84d3587e51a33d332",
          "topics": [
            "0xddf252ad1be2c89b69c2b068fc378daa952ba7f163c4a11628f55a4df523b3ef",
            "0x0000000000000000000000000000000000000000000000000000000000000000",
            "0x000000000000000000000000957d605a6f4412b41c73ce40e9e3b615c02f25c2",
            "0x0000000000000000000000000000000000000000000000000000000000003462"
          ],
          "data": "0x",
          "blockHash": "0xf991cec91858e5ad4e871abe19f9d0fff2e1eb8647790ec0080b0dee4e85d461",
          "blockNumber": "0xf8d5d5",
          "transactionHash": "0x21301c81e8a1785b3b8c194d96f54e5ca63b75c192c3b6ed269f9ba32a9fe07f",
          "transactionIndex": "0x89",
          "logIndex": "0x18b",
          "removed": false
        }
      ],
      "logsBloom": "0x00000002002000000000000000000000000000000000000000000000000000000000000000000000000000000000000000000000000000000080000000040000000000000000100000000008000000000000000000000000000000001000000000000000020000000000000000000800000000000000000000000010000000000000000000001000000000000000000000000000000000000000000000000000000000000000000000000000000000000000000000000000000000000000000000000002000000000000000000000000000000000000000000000000000020000000000000000400000000000000000000000000000000000000000000000000",
      "type": "0x2",
      "transactionHash": "0x21301c81e8a1785b3b8c194d96f54e5ca63b75c192c3b6ed269f9ba32a9fe07f",
      "transactionIndex": "0x89",
      "blockHash": "0xf991cec91858e5ad4e871abe19f9d0fff2e1eb8647790ec0080b0dee4e85d461",
      "blockNumber": "0xf8d5d5",
      "gasUsed": "0x13f87",
      "effectiveGasPrice": "0x865987",
      "from": "0x027a5ce58fc466d0e3a9d1990404354029398541",
      "to": "0x3530bf96982fa5a9e0d8bad84d3587e51a33d332",
      "contractAddress": null,
      "l1Fee": "0x3099ae02f",
      "l1GasPrice": "0x1254d58d6",
      "l1GasUsed": "0x968"
    },
    {
      "status": "0x1",
      "cumulativeGasUsed": "0xf387f1",
      "logs": [
        {
          "address": "0x3530bf96982fa5a9e0d8bad84d3587e51a33d332",
          "topics": [
            "0xddf252ad1be2c89b69c2b068fc378daa952ba7f163c4a11628f55a4df523b3ef",
            "0x0000000000000000000000000000000000000000000000000000000000000000",
            "0x0000000000000000000000005c794666020005d2fffacea7b91b4b3b0915e8b4",
            "0x0000000000000000000000000000000000000000000000000000000000003463"
          ],
          "data": "0x",
          "blockHash": "0xf991cec91858e5ad4e871abe19f9d0fff2e1eb8647790ec0080b0dee4e85d461",
          "blockNumber": "0xf8d5d5",
          "transactionHash": "0x30dcd0617200f64030d1e65b20c2ac22cb89f8f23c1f60fed7f8d95ce46e78e4",
          "transactionIndex": "0x8a",
          "logIndex": "0x18c",
          "removed": false
        }
      ],
      "logsBloom": "0x00000002000000000000000000000000000000000000000000000000000000000000001000000000000000000000000000000080000000000000000000040000000000000000100000000008000000000000000000000000000000000000000000000000020000000000000000000800000000000000004000000010000000000000000000000000000000100000000000000000000000000000000000000000000000000000000000000000000000000000000000000000000000400000000000000002000000000000000000000000000000000000000000020000000020000000000000000000000000000000000000000000000000000000000000000000",
      "type": "0x2",
      "transactionHash": "0x30dcd0617200f64030d1e65b20c2ac22cb89f8f23c1f60fed7f8d95ce46e78e4",
      "transactionIndex": "0x8a",
      "blockHash": "0xf991cec91858e5ad4e871abe19f9d0fff2e1eb8647790ec0080b0dee4e85d461",
      "blockNumber": "0xf8d5d5",
      "gasUsed": "0x13f7b",
      "effectiveGasPrice": "0x865987",
      "from": "0x027a5ce58fc466d0e3a9d1990404354029398541",
      "to": "0x3530bf96982fa5a9e0d8bad84d3587e51a33d332",
      "contractAddress": null,
      "l1Fee": "0x305bad91d",
      "l1GasPrice": "0x1254d58d6",
      "l1GasUsed": "0x95c"
    },
    {
      "status": "0x1",
      "cumulativeGasUsed": "0xf4c73c",
      "logs": [
        {
          "address": "0x3530bf96982fa5a9e0d8bad84d3587e51a33d332",
          "topics": [
            "0xddf252ad1be2c89b69c2b068fc378daa952ba7f163c4a11628f55a4df523b3ef",
            "0x0000000000000000000000000000000000000000000000000000000000000000",
            "0x0000000000000000000000000000000000b92ac90d898eba87fa5f2483f32234",
            "0x0000000000000000000000000000000000000000000000000000000000003464"
          ],
          "data": "0x",
          "blockHash": "0xf991cec91858e5ad4e871abe19f9d0fff2e1eb8647790ec0080b0dee4e85d461",
          "blockNumber": "0xf8d5d5",
          "transactionHash": "0x1e29b7937681f0579912ba3bcae720a4c51d8ffa9d061d6ac8979dfd6c4a5f40",
          "transactionIndex": "0x8b",
          "logIndex": "0x18d",
          "removed": false
        }
      ],
      "logsBloom": "0x00000002000000000000000000000000000000000000000000000000000000000000000000000000000000000000000000000000000000000000000000040000000000000000100000000008000000000000000000000000000000000000000000000000030000000000000000000800000000000000000000000010000000044002000000000000000000000000000000000000000000000000000000000000000000000000000000000000000000000000000000000000000000000000000000000002000000000000000000000008000000000000000000000000000020000000000000000000000000000000000000000000000040000000000000000000",
      "type": "0x2",
      "transactionHash": "0x1e29b7937681f0579912ba3bcae720a4c51d8ffa9d061d6ac8979dfd6c4a5f40",
      "transactionIndex": "0x8b",
      "blockHash": "0xf991cec91858e5ad4e871abe19f9d0fff2e1eb8647790ec0080b0dee4e85d461",
      "blockNumber": "0xf8d5d5",
      "gasUsed": "0x13f4b",
      "effectiveGasPrice": "0x865987",
      "from": "0x027a5ce58fc466d0e3a9d1990404354029398541",
      "to": "0x3530bf96982fa5a9e0d8bad84d3587e51a33d332",
      "contractAddress": null,
      "l1Fee": "0x2f25ab5c2",
      "l1GasPrice": "0x1254d58d6",
      "l1GasUsed": "0x920"
    },
    {
      "status": "0x1",
      "cumulativeGasUsed": "0xf606c3",
      "logs": [
        {
          "address": "0x3530bf96982fa5a9e0d8bad84d3587e51a33d332",
          "topics": [
            "0xddf252ad1be2c89b69c2b068fc378daa952ba7f163c4a11628f55a4df523b3ef",
            "0x0000000000000000000000000000000000000000000000000000000000000000",
            "0x000000000000000000000000d430011a7bed9625077be43d2b19062189fddbab",
            "0x0000000000000000000000000000000000000000000000000000000000003465"
          ],
          "data": "0x",
          "blockHash": "0xf991cec91858e5ad4e871abe19f9d0fff2e1eb8647790ec0080b0dee4e85d461",
          "blockNumber": "0xf8d5d5",
          "transactionHash": "0x4ead067edf42ed1eb358311c6f210124bee9e670b1f57a8b681a61781d32d2aa",
          "transactionIndex": "0x8c",
          "logIndex": "0x18e",
          "removed": false
        }
      ],
      "logsBloom": "0x00000002000000000000000000000000000000000000000000000000000000000000000000000000000000000000000000000000000000000000000000040000100000000000100000000008000000000000000000000000000000000000000000000000020000000000000000000800000000000000000000000010000000000000000000000000000000000000000000000000000000000000000000000000000000000000000000000000000000000000000000000000000000000000000000200002000000000000000000000000000000000000000010000000000020000000000000000200000000000000000000800000000004000000000000000000",
      "type": "0x2",
      "transactionHash": "0x4ead067edf42ed1eb358311c6f210124bee9e670b1f57a8b681a61781d32d2aa",
      "transactionIndex": "0x8c",
      "blockHash": "0xf991cec91858e5ad4e871abe19f9d0fff2e1eb8647790ec0080b0dee4e85d461",
      "blockNumber": "0xf8d5d5",
      "gasUsed": "0x13f87",
      "effectiveGasPrice": "0x865987",
      "from": "0x027a5ce58fc466d0e3a9d1990404354029398541",
      "to": "0x3530bf96982fa5a9e0d8bad84d3587e51a33d332",
      "contractAddress": null,
      "l1Fee": "0x3099ae02f",
      "l1GasPrice": "0x1254d58d6",
      "l1GasUsed": "0x968"
    },
    {
      "status": "0x1",
      "cumulativeGasUsed": "0xf7464a",
      "logs": [
        {
          "address": "0x3530bf96982fa5a9e0d8bad84d3587e51a33d332",
          "topics": [
            "0xddf252ad1be2c89b69c2b068fc378daa952ba7f163c4a11628f55a4df523b3ef",
            "0x0000000000000000000000000000000000000000000000000000000000000000",
            "0x000000000000000000000000ecd1d40d4541b9424fabd25febb11ee11efd85bb",
            "0x0000000000000000000000000000000000000000000000000000000000003466"
          ],
          "data": "0x",
          "blockHash": "0xf991cec91858e5ad4e871abe19f9d0fff2e1eb8647790ec0080b0dee4e85d461",
          "blockNumber": "0xf8d5d5",
          "transactionHash": "0x220ec7bcc887cd806dab8ad81e30d7a4a53e46b6d0d4690d5c43c8ce2635c942",
          "transactionIndex": "0x8d",
          "logIndex": "0x18f",
          "removed": false
        }
      ],
      "logsBloom": "0x00000002000000000000000000000000000000000000000002000000000000000000000000000000000000000000000000000000000000000000000000040000000000000000100000000008000000000000000000000000000000000000000000000000020000000000000000000800000000000000000100000050000000000000000000000000000020000000000000000000020000000000000000000000000000000000000000000000000000000040000000000000000000000000000000000002000000000000000000000000000000000000000000000000000020000000000000000000000000000000000000000000000000000000000000000000",
      "type": "0x2",
      "transactionHash": "0x220ec7bcc887cd806dab8ad81e30d7a4a53e46b6d0d4690d5c43c8ce2635c942",
      "transactionIndex": "0x8d",
      "blockHash": "0xf991cec91858e5ad4e871abe19f9d0fff2e1eb8647790ec0080b0dee4e85d461",
      "blockNumber": "0xf8d5d5",
      "gasUsed": "0x13f87",
      "effectiveGasPrice": "0x865987",
      "from": "0x027a5ce58fc466d0e3a9d1990404354029398541",
      "to": "0x3530bf96982fa5a9e0d8bad84d3587e51a33d332",
      "contractAddress": null,
      "l1Fee": "0x3099ae02f",
      "l1GasPrice": "0x1254d58d6",
      "l1GasUsed": "0x968"
    },
    {
      "status": "0x1",
      "cumulativeGasUsed": "0xf885d1",
      "logs": [
        {
          "address": "0x3530bf96982fa5a9e0d8bad84d3587e51a33d332",
          "topics": [
            "0xddf252ad1be2c89b69c2b068fc378daa952ba7f163c4a11628f55a4df523b3ef",
            "0x0000000000000000000000000000000000000000000000000000000000000000",
            "0x000000000000000000000000cfe7c850db1392e65d40407362665c8f67fcac5f",
            "0x0000000000000000000000000000000000000000000000000000000000003467"
          ],
          "data": "0x",
          "blockHash": "0xf991cec91858e5ad4e871abe19f9d0fff2e1eb8647790ec0080b0dee4e85d461",
          "blockNumber": "0xf8d5d5",
          "transactionHash": "0x2a45a8ae2ee4eb8b6a40a48c4e56c87097e4dee3a75e29de127c1b33449990f2",
          "transactionIndex": "0x8e",
          "logIndex": "0x190",
          "removed": false
        }
      ],
      "logsBloom": "0x00000002000000000000000000000000000020000000000000000000000000000000000000000000000000000000000000000000000000000000000000040000000000000000100000000008000000040000000000000000000000000000000000000000020000200000000000000800000000000000000000000010000000000000000001000200000000000000000000000000000000000000000000000000000000000000000000000000000000000000000000000000000000000000000000000002000000000000000000000010000000000000000000000000000020000000000000000000000000000000000000000000000000000000000000000000",
      "type": "0x2",
      "transactionHash": "0x2a45a8ae2ee4eb8b6a40a48c4e56c87097e4dee3a75e29de127c1b33449990f2",
      "transactionIndex": "0x8e",
      "blockHash": "0xf991cec91858e5ad4e871abe19f9d0fff2e1eb8647790ec0080b0dee4e85d461",
      "blockNumber": "0xf8d5d5",
      "gasUsed": "0x13f87",
      "effectiveGasPrice": "0x865987",
      "from": "0x027a5ce58fc466d0e3a9d1990404354029398541",
      "to": "0x3530bf96982fa5a9e0d8bad84d3587e51a33d332",
      "contractAddress": null,
      "l1Fee": "0x3099ae02f",
      "l1GasPrice": "0x1254d58d6",
      "l1GasUsed": "0x968"
    },
    {
      "status": "0x1",
      "cumulativeGasUsed": "0xf9c558",
      "logs": [
        {
          "address": "0x3530bf96982fa5a9e0d8bad84d3587e51a33d332",
          "topics": [
            "0xddf252ad1be2c89b69c2b068fc378daa952ba7f163c4a11628f55a4df523b3ef",
            "0x0000000000000000000000000000000000000000000000000000000000000000",
            "0x000000000000000000000000d2db4a48c52330d24f50c7ec9ddb8da4c198bd64",
            "0x0000000000000000000000000000000000000000000000000000000000003468"
          ],
          "data": "0x",
          "blockHash": "0xf991cec91858e5ad4e871abe19f9d0fff2e1eb8647790ec0080b0dee4e85d461",
          "blockNumber": "0xf8d5d5",
          "transactionHash": "0xcc77fd351fd12304e1b3c678251a4d72939e98ab18612dc3cf2b4a2e51226601",
          "transactionIndex": "0x8f",
          "logIndex": "0x191",
          "removed": false
        }
      ],
      "logsBloom": "0x00010002000000000000000000000000000000000000000000000000000200000000000000000000000000000000000000000000000000000000000000040000000000000010100000000008000000000000000000000000000000000080000000000000020000000000000010000800000000000000000000000010000000000000000000000000000000000000000000000000000000000000000000000000000000000000000000000000000000000000000000000000000000000000000000000002000000000000000000000000000000000000000000000200000020000000000000000000000000000000000000000000000000000000000000000000",
      "type": "0x2",
      "transactionHash": "0xcc77fd351fd12304e1b3c678251a4d72939e98ab18612dc3cf2b4a2e51226601",
      "transactionIndex": "0x8f",
      "blockHash": "0xf991cec91858e5ad4e871abe19f9d0fff2e1eb8647790ec0080b0dee4e85d461",
      "blockNumber": "0xf8d5d5",
      "gasUsed": "0x13f87",
      "effectiveGasPrice": "0x865987",
      "from": "0x027a5ce58fc466d0e3a9d1990404354029398541",
      "to": "0x3530bf96982fa5a9e0d8bad84d3587e51a33d332",
      "contractAddress": null,
      "l1Fee": "0x3099ae02f",
      "l1GasPrice": "0x1254d58d6",
      "l1GasUsed": "0x968"
    },
    {
      "status": "0x1",
      "cumulativeGasUsed": "0xfb04df",
      "logs": [
        {
          "address": "0x3530bf96982fa5a9e0d8bad84d3587e51a33d332",
          "topics": [
            "0xddf252ad1be2c89b69c2b068fc378daa952ba7f163c4a11628f55a4df523b3ef",
            "0x0000000000000000000000000000000000000000000000000000000000000000",
            "0x000000000000000000000000a8e3dbd7bf557cc1f8d384a13b47141888f108af",
            "0x0000000000000000000000000000000000000000000000000000000000003469"
          ],
          "data": "0x",
          "blockHash": "0xf991cec91858e5ad4e871abe19f9d0fff2e1eb8647790ec0080b0dee4e85d461",
          "blockNumber": "0xf8d5d5",
          "transactionHash": "0xd1f3299cda09844d49ca6ee2998826554c3b376a92d84cd948fd9c8932027be9",
          "transactionIndex": "0x90",
          "logIndex": "0x192",
          "removed": false
        }
      ],
      "logsBloom": "0x00020002000000000000000000000800000000000000000000000000000000000000000000000000000000000000000000000000000000000000000000040000000000000000100000000008000000000000000000000000000000000000000000000000020000000000000000000800000000000000000000000010000000000000000000000000000000000000000000000000000000000000000000000000000000000000000000000000000000000040000000000000000000000000000000000002000002000000000000002000000000000000000000000000000020000000000000000000002000000000000000000000000000000000000000000000",
      "type": "0x2",
      "transactionHash": "0xd1f3299cda09844d49ca6ee2998826554c3b376a92d84cd948fd9c8932027be9",
      "transactionIndex": "0x90",
      "blockHash": "0xf991cec91858e5ad4e871abe19f9d0fff2e1eb8647790ec0080b0dee4e85d461",
      "blockNumber": "0xf8d5d5",
      "gasUsed": "0x13f87",
      "effectiveGasPrice": "0x865987",
      "from": "0x027a5ce58fc466d0e3a9d1990404354029398541",
      "to": "0x3530bf96982fa5a9e0d8bad84d3587e51a33d332",
      "contractAddress": null,
      "l1Fee": "0x3099ae02f",
      "l1GasPrice": "0x1254d58d6",
      "l1GasUsed": "0x968"
    },
    {
      "status": "0x1",
      "cumulativeGasUsed": "0xfc4466",
      "logs": [
        {
          "address": "0x3530bf96982fa5a9e0d8bad84d3587e51a33d332",
          "topics": [
            "0xddf252ad1be2c89b69c2b068fc378daa952ba7f163c4a11628f55a4df523b3ef",
            "0x0000000000000000000000000000000000000000000000000000000000000000",
            "0x000000000000000000000000073197fa2656bdaf1ca018b7b333379683b1d8ad",
            "0x000000000000000000000000000000000000000000000000000000000000346a"
          ],
          "data": "0x",
          "blockHash": "0xf991cec91858e5ad4e871abe19f9d0fff2e1eb8647790ec0080b0dee4e85d461",
          "blockNumber": "0xf8d5d5",
          "transactionHash": "0xc3ccfdea54cada64b9a9143ae2ed209437af43847f8ed062855a3dadb7ba4b98",
          "transactionIndex": "0x91",
          "logIndex": "0x193",
          "removed": false
        }
      ],
      "logsBloom": "0x00000002000000000000000000000000000000000000000000000000000040001000000000000000000000000000000000000000000000000000000000040000000000000000100000000008000000000000000000000000000000000000000000000000020000000000000000000800000000000000000000000010000000000000000000000000000000000000000000000000000000000000000000000000000000020000000000000000000000000000000000000000000000000000000000000002000000000000010000000000000000000000000000000000000020000000000010000000000000000000000000000000000000000000002000000000",
      "type": "0x2",
      "transactionHash": "0xc3ccfdea54cada64b9a9143ae2ed209437af43847f8ed062855a3dadb7ba4b98",
      "transactionIndex": "0x91",
      "blockHash": "0xf991cec91858e5ad4e871abe19f9d0fff2e1eb8647790ec0080b0dee4e85d461",
      "blockNumber": "0xf8d5d5",
      "gasUsed": "0x13f87",
      "effectiveGasPrice": "0x865987",
      "from": "0x027a5ce58fc466d0e3a9d1990404354029398541",
      "to": "0x3530bf96982fa5a9e0d8bad84d3587e51a33d332",
      "contractAddress": null,
      "l1Fee": "0x3099ae02f",
      "l1GasPrice": "0x1254d58d6",
      "l1GasUsed": "0x968"
    },
    {
      "status": "0x1",
      "cumulativeGasUsed": "0xfd83ed",
      "logs": [
        {
          "address": "0x3530bf96982fa5a9e0d8bad84d3587e51a33d332",
          "topics": [
            "0xddf252ad1be2c89b69c2b068fc378daa952ba7f163c4a11628f55a4df523b3ef",
            "0x0000000000000000000000000000000000000000000000000000000000000000",
            "0x000000000000000000000000f7a2f863299c17dfa11cd8a14e7c7dca92f315b9",
            "0x000000000000000000000000000000000000000000000000000000000000346b"
          ],
          "data": "0x",
          "blockHash": "0xf991cec91858e5ad4e871abe19f9d0fff2e1eb8647790ec0080b0dee4e85d461",
          "blockNumber": "0xf8d5d5",
          "transactionHash": "0x11939b6c65db8266ba0fd4e961c969e9c524355062c57518a999348bce1632f5",
          "transactionIndex": "0x92",
          "logIndex": "0x194",
          "removed": false
        }
      ],
      "logsBloom": "0x00000002000000000000000000000000000000000000000000000000000000000000000000000000000000000000000000000000000000400000000000040000000000000000100000000008000000000000000000000000000000000000000000000000020000000000000000000800000000000000000000000010000000000000000000000000000000000000000000000000000000000000000200000000000000000000000000000000000000000000000000000000000000000400000000000002000000000800000000000000000000000000000000000000000020000000000000000000000000000000000000000000020000000000000100000000",
      "type": "0x2",
      "transactionHash": "0x11939b6c65db8266ba0fd4e961c969e9c524355062c57518a999348bce1632f5",
      "transactionIndex": "0x92",
      "blockHash": "0xf991cec91858e5ad4e871abe19f9d0fff2e1eb8647790ec0080b0dee4e85d461",
      "blockNumber": "0xf8d5d5",
      "gasUsed": "0x13f87",
      "effectiveGasPrice": "0x865987",
      "from": "0x027a5ce58fc466d0e3a9d1990404354029398541",
      "to": "0x3530bf96982fa5a9e0d8bad84d3587e51a33d332",
      "contractAddress": null,
      "l1Fee": "0x301dad20b",
      "l1GasPrice": "0x1254d58d6",
      "l1GasUsed": "0x950"
    },
    {
      "status": "0x1",
      "cumulativeGasUsed": "0xfec374",
      "logs": [
        {
          "address": "0x3530bf96982fa5a9e0d8bad84d3587e51a33d332",
          "topics": [
            "0xddf252ad1be2c89b69c2b068fc378daa952ba7f163c4a11628f55a4df523b3ef",
            "0x0000000000000000000000000000000000000000000000000000000000000000",
            "0x00000000000000000000000076b5a83c8c8097e7723eda897537b6345789b229",
            "0x000000000000000000000000000000000000000000000000000000000000346c"
          ],
          "data": "0x",
          "blockHash": "0xf991cec91858e5ad4e871abe19f9d0fff2e1eb8647790ec0080b0dee4e85d461",
          "blockNumber": "0xf8d5d5",
          "transactionHash": "0x1602e260d615b70345196e2c06231cf58a0929373c7099be967cb60b5ffa0589",
          "transactionIndex": "0x93",
          "logIndex": "0x195",
          "removed": false
        }
      ],
      "logsBloom": "0x00000002000000000000000000000000000000000000000000200000000000000000000000080000000000000000000000000000000000000000000000040000000000000000100000000008000000000000000000000000000000000000000000000800020000000000000000000800000000000000000001000010000000000000000000000000000000000000000000000000000000000000000000000000000000000000400000000000000000000000000000000000800000000000000000000002000000000000000000000000000000000000000000000000000020000000000000000000000000000000000000000000000000000000000000000000",
      "type": "0x2",
      "transactionHash": "0x1602e260d615b70345196e2c06231cf58a0929373c7099be967cb60b5ffa0589",
      "transactionIndex": "0x93",
      "blockHash": "0xf991cec91858e5ad4e871abe19f9d0fff2e1eb8647790ec0080b0dee4e85d461",
      "blockNumber": "0xf8d5d5",
      "gasUsed": "0x13f87",
      "effectiveGasPrice": "0x865987",
      "from": "0x027a5ce58fc466d0e3a9d1990404354029398541",
      "to": "0x3530bf96982fa5a9e0d8bad84d3587e51a33d332",
      "contractAddress": null,
      "l1Fee": "0x3099ae02f",
      "l1GasPrice": "0x1254d58d6",
      "l1GasUsed": "0x968"
    },
    {
      "status": "0x1",
      "cumulativeGasUsed": "0x10002fb",
      "logs": [
        {
          "address": "0x3530bf96982fa5a9e0d8bad84d3587e51a33d332",
          "topics": [
            "0xddf252ad1be2c89b69c2b068fc378daa952ba7f163c4a11628f55a4df523b3ef",
            "0x0000000000000000000000000000000000000000000000000000000000000000",
            "0x000000000000000000000000cc2687c14915fd68226ccf388842515739a739bd",
            "0x000000000000000000000000000000000000000000000000000000000000346d"
          ],
          "data": "0x",
          "blockHash": "0xf991cec91858e5ad4e871abe19f9d0fff2e1eb8647790ec0080b0dee4e85d461",
          "blockNumber": "0xf8d5d5",
          "transactionHash": "0xe1288a5028752bc5abddb42c4879f3c6d3f2ebb3bfc482547cf19f6a6b1f47a4",
          "transactionIndex": "0x94",
          "logIndex": "0x196",
          "removed": false
        }
      ],
      "logsBloom": "0x00000002000000000000000000000000000000000000000000000000000000000000000000100000000000000000000000000000000000000000000000040000000000000000100000000008000000000000000000000000000000400000000000000000020000000000000000000800000000008000000000000030000000000000000000000000000000000000000000000000000000000000000000000000000000000000000000000000004000000000000000000000000000000000000000000002000000000000000000000000000000000000000000000000000020000000000000000000000000000001000000000000000000000000000000000000",
      "type": "0x2",
      "transactionHash": "0xe1288a5028752bc5abddb42c4879f3c6d3f2ebb3bfc482547cf19f6a6b1f47a4",
      "transactionIndex": "0x94",
      "blockHash": "0xf991cec91858e5ad4e871abe19f9d0fff2e1eb8647790ec0080b0dee4e85d461",
      "blockNumber": "0xf8d5d5",
      "gasUsed": "0x13f87",
      "effectiveGasPrice": "0x865987",
      "from": "0x027a5ce58fc466d0e3a9d1990404354029398541",
      "to": "0x3530bf96982fa5a9e0d8bad84d3587e51a33d332",
      "contractAddress": null,
      "l1Fee": "0x3099ae02f",
      "l1GasPrice": "0x1254d58d6",
      "l1GasUsed": "0x968"
    },
    {
      "status": "0x1",
      "cumulativeGasUsed": "0x1014282",
      "logs": [
        {
          "address": "0x3530bf96982fa5a9e0d8bad84d3587e51a33d332",
          "topics": [
            "0xddf252ad1be2c89b69c2b068fc378daa952ba7f163c4a11628f55a4df523b3ef",
            "0x0000000000000000000000000000000000000000000000000000000000000000",
            "0x00000000000000000000000032b71d7041eb663f207292efb32103494b235db0",
            "0x000000000000000000000000000000000000000000000000000000000000346e"
          ],
          "data": "0x",
          "blockHash": "0xf991cec91858e5ad4e871abe19f9d0fff2e1eb8647790ec0080b0dee4e85d461",
          "blockNumber": "0xf8d5d5",
          "transactionHash": "0x129be3050dfc4e1dcd056ca89b36642e743aa9abdc634c4d4d43da147cd14eb7",
          "transactionIndex": "0x95",
          "logIndex": "0x197",
          "removed": false
        }
      ],
      "logsBloom": "0x00100002000000000000000000000000000000000000000000000000000000000000000000000000000000000000000000000000000000000000100000040000000000000000100000000008000000000000000000000000000000000000000000000000020000000000000000000800000000000000020000000010000000000000000000000000000000000000000000000000000000000000000000000000000000000000000000000000000001080000000000000000000000000000000000000002000000000000000000000000000000000000002000000000000020000000000000000000000000000000000000000000000000000000000000000000",
      "type": "0x2",
      "transactionHash": "0x129be3050dfc4e1dcd056ca89b36642e743aa9abdc634c4d4d43da147cd14eb7",
      "transactionIndex": "0x95",
      "blockHash": "0xf991cec91858e5ad4e871abe19f9d0fff2e1eb8647790ec0080b0dee4e85d461",
      "blockNumber": "0xf8d5d5",
      "gasUsed": "0x13f87",
      "effectiveGasPrice": "0x865987",
      "from": "0x027a5ce58fc466d0e3a9d1990404354029398541",
      "to": "0x3530bf96982fa5a9e0d8bad84d3587e51a33d332",
      "contractAddress": null,
      "l1Fee": "0x305bad91d",
      "l1GasPrice": "0x1254d58d6",
      "l1GasUsed": "0x95c"
    },
    {
      "status": "0x1",
      "cumulativeGasUsed": "0x1028209",
      "logs": [
        {
          "address": "0x3530bf96982fa5a9e0d8bad84d3587e51a33d332",
          "topics": [
            "0xddf252ad1be2c89b69c2b068fc378daa952ba7f163c4a11628f55a4df523b3ef",
            "0x0000000000000000000000000000000000000000000000000000000000000000",
            "0x000000000000000000000000fbbe4c97a5dc7765553513974b6d3a21881dfe90",
            "0x000000000000000000000000000000000000000000000000000000000000346f"
          ],
          "data": "0x",
          "blockHash": "0xf991cec91858e5ad4e871abe19f9d0fff2e1eb8647790ec0080b0dee4e85d461",
          "blockNumber": "0xf8d5d5",
          "transactionHash": "0xd181ba73fd3ae6b962d9e8da230f2c7bf63aa20e0a0f7ad90b0222d6bbfa618d",
          "transactionIndex": "0x96",
          "logIndex": "0x198",
          "removed": false
        }
      ],
      "logsBloom": "0x00000002000000000000000000000000000000000000000000000000000008000000000000000000000000000000000000000000008000000000000008040000020000000000100000000008000000000000000000000000000000000000000000000000021000000000000000000800000000000000000000000010000000000000000000000000000000000000000000000000000000000000000000000000000000000000000000000000000000000000000000000000000000000000000000000002000000000000000000000000000000000000000000000000000020000000000000000000000000000000000000000000000400000000000000000000",
      "type": "0x2",
      "transactionHash": "0xd181ba73fd3ae6b962d9e8da230f2c7bf63aa20e0a0f7ad90b0222d6bbfa618d",
      "transactionIndex": "0x96",
      "blockHash": "0xf991cec91858e5ad4e871abe19f9d0fff2e1eb8647790ec0080b0dee4e85d461",
      "blockNumber": "0xf8d5d5",
      "gasUsed": "0x13f87",
      "effectiveGasPrice": "0x865987",
      "from": "0x027a5ce58fc466d0e3a9d1990404354029398541",
      "to": "0x3530bf96982fa5a9e0d8bad84d3587e51a33d332",
      "contractAddress": null,
      "l1Fee": "0x3099ae02f",
      "l1GasPrice": "0x1254d58d6",
      "l1GasUsed": "0x968"
    },
    {
      "status": "0x1",
      "cumulativeGasUsed": "0x103c190",
      "logs": [
        {
          "address": "0x3530bf96982fa5a9e0d8bad84d3587e51a33d332",
          "topics": [
            "0xddf252ad1be2c89b69c2b068fc378daa952ba7f163c4a11628f55a4df523b3ef",
            "0x0000000000000000000000000000000000000000000000000000000000000000",
            "0x0000000000000000000000004dfc2e4c08810f92dde6538cb9a20d5ac50638a0",
            "0x0000000000000000000000000000000000000000000000000000000000003470"
          ],
          "data": "0x",
          "blockHash": "0xf991cec91858e5ad4e871abe19f9d0fff2e1eb8647790ec0080b0dee4e85d461",
          "blockNumber": "0xf8d5d5",
          "transactionHash": "0x7e5018861805c8f2b3a52a4474fa86caf199f6bf11702f68522601a96ef25e2b",
          "transactionIndex": "0x97",
          "logIndex": "0x199",
          "removed": false
        }
      ],
      "logsBloom": "0x00000002000000000000000000000000000000000000000000000000000000000000000000000000000000000000000000000000000000000000000000040000000000000000100000000008000000000000000000000000000000000000000000000000020000000000000000000800000000000000000000000010000000000000000000000000000000000000000000000000000000000000000000000000000000000000000000080000000000000000000000000000000000000000000000000002000200000000000000000040200000000000000000000000000020000000000000000000000000000800000000000000000000000000400000000000",
      "type": "0x2",
      "transactionHash": "0x7e5018861805c8f2b3a52a4474fa86caf199f6bf11702f68522601a96ef25e2b",
      "transactionIndex": "0x97",
      "blockHash": "0xf991cec91858e5ad4e871abe19f9d0fff2e1eb8647790ec0080b0dee4e85d461",
      "blockNumber": "0xf8d5d5",
      "gasUsed": "0x13f87",
      "effectiveGasPrice": "0x865987",
      "from": "0x027a5ce58fc466d0e3a9d1990404354029398541",
      "to": "0x3530bf96982fa5a9e0d8bad84d3587e51a33d332",
      "contractAddress": null,
      "l1Fee": "0x3099ae02f",
      "l1GasPrice": "0x1254d58d6",
      "l1GasUsed": "0x968"
    },
    {
      "status": "0x1",
      "cumulativeGasUsed": "0x1050117",
      "logs": [
        {
          "address": "0x3530bf96982fa5a9e0d8bad84d3587e51a33d332",
          "topics": [
            "0xddf252ad1be2c89b69c2b068fc378daa952ba7f163c4a11628f55a4df523b3ef",
            "0x0000000000000000000000000000000000000000000000000000000000000000",
            "0x00000000000000000000000059d7ff7c122a4f4073317683efca0bd5cef2e22b",
            "0x0000000000000000000000000000000000000000000000000000000000003471"
          ],
          "data": "0x",
          "blockHash": "0xf991cec91858e5ad4e871abe19f9d0fff2e1eb8647790ec0080b0dee4e85d461",
          "blockNumber": "0xf8d5d5",
          "transactionHash": "0x622c6abca64ec0f06d9f973645a17aa691c94463c4f81d26712727135fa6f6c9",
          "transactionIndex": "0x98",
          "logIndex": "0x19a",
          "removed": false
        }
      ],
      "logsBloom": "0x00000002000000000000000000000000000000000000000000000000000000000000000000000000000000000000000000000000000000000000000000040000000000000000100000000008000000000000000000000000000000000000000000000000020000000000002000000800000000000000000000000010000000000000000000000000000000000000000000000000000001000000000000000000000000000000000000000000000000000000000000000000000000000000000000000002400000000000000000000000000000000000000000000000000020000000000000000000000000000000004000000000000100000800000000000000",
      "type": "0x2",
      "transactionHash": "0x622c6abca64ec0f06d9f973645a17aa691c94463c4f81d26712727135fa6f6c9",
      "transactionIndex": "0x98",
      "blockHash": "0xf991cec91858e5ad4e871abe19f9d0fff2e1eb8647790ec0080b0dee4e85d461",
      "blockNumber": "0xf8d5d5",
      "gasUsed": "0x13f87",
      "effectiveGasPrice": "0x865987",
      "from": "0x027a5ce58fc466d0e3a9d1990404354029398541",
      "to": "0x3530bf96982fa5a9e0d8bad84d3587e51a33d332",
      "contractAddress": null,
      "l1Fee": "0x3099ae02f",
      "l1GasPrice": "0x1254d58d6",
      "l1GasUsed": "0x968"
    },
    {
      "status": "0x1",
      "cumulativeGasUsed": "0x106409e",
      "logs": [
        {
          "address": "0x3530bf96982fa5a9e0d8bad84d3587e51a33d332",
          "topics": [
            "0xddf252ad1be2c89b69c2b068fc378daa952ba7f163c4a11628f55a4df523b3ef",
            "0x0000000000000000000000000000000000000000000000000000000000000000",
            "0x000000000000000000000000ed237edb351c5da602bfa65304fcaa0ad59b9aca",
            "0x0000000000000000000000000000000000000000000000000000000000003472"
          ],
          "data": "0x",
          "blockHash": "0xf991cec91858e5ad4e871abe19f9d0fff2e1eb8647790ec0080b0dee4e85d461",
          "blockNumber": "0xf8d5d5",
          "transactionHash": "0x56c006181d5af68e813d086b812037c1126a2693289b5212d8e9066704da6dd1",
          "transactionIndex": "0x99",
          "logIndex": "0x19b",
          "removed": false
        }
      ],
      "logsBloom": "0x00000002000000000000000000000000000000000000000000000000000000020000000000000000000000000000000000000000000000000000000000040000000000000000100000000008000000000000000000000000000000000000000000000000020000000000000000000800000000000020000000000010000000000000000000000000000000000000000000000000000000000000000000000000000000000000000000000000000000000000000000000000000000000004000000000002000002000000000000000000000200000000000000000000000020000000000000000000000000000040000000000000000000000000000000000000",
      "type": "0x2",
      "transactionHash": "0x56c006181d5af68e813d086b812037c1126a2693289b5212d8e9066704da6dd1",
      "transactionIndex": "0x99",
      "blockHash": "0xf991cec91858e5ad4e871abe19f9d0fff2e1eb8647790ec0080b0dee4e85d461",
      "blockNumber": "0xf8d5d5",
      "gasUsed": "0x13f87",
      "effectiveGasPrice": "0x865987",
      "from": "0x027a5ce58fc466d0e3a9d1990404354029398541",
      "to": "0x3530bf96982fa5a9e0d8bad84d3587e51a33d332",
      "contractAddress": null,
      "l1Fee": "0x3099ae02f",
      "l1GasPrice": "0x1254d58d6",
      "l1GasUsed": "0x968"
    },
    {
      "status": "0x1",
      "cumulativeGasUsed": "0x1078025",
      "logs": [
        {
          "address": "0x3530bf96982fa5a9e0d8bad84d3587e51a33d332",
          "topics": [
            "0xddf252ad1be2c89b69c2b068fc378daa952ba7f163c4a11628f55a4df523b3ef",
            "0x0000000000000000000000000000000000000000000000000000000000000000",
            "0x00000000000000000000000048db64d9b9538f5decd1149f3dd3764db5b57147",
            "0x0000000000000000000000000000000000000000000000000000000000003473"
          ],
          "data": "0x",
          "blockHash": "0xf991cec91858e5ad4e871abe19f9d0fff2e1eb8647790ec0080b0dee4e85d461",
          "blockNumber": "0xf8d5d5",
          "transactionHash": "0xb87c3026730f6dbc5fe437baa08f80cd0bbc6964220e66f66f670d37721bd37e",
          "transactionIndex": "0x9a",
          "logIndex": "0x19c",
          "removed": false
        }
      ],
      "logsBloom": "0x00000002000000000000000000000000000000000000000000000000000000000100000000000000000000000000000000000000000000000000000000040000000000000000100000000008000000000000010000000000000000000000000000000000020000000000000000000800000000000000000000000010000000000000000000000000000000000000000000000000000000000000000104000000000000000000000000000000000000000000000000000000000000000000000000100002000000000000000000020000000000000000000000000000000020000000000000000000000000000000000000000000000000000000000000000000",
      "type": "0x2",
      "transactionHash": "0xb87c3026730f6dbc5fe437baa08f80cd0bbc6964220e66f66f670d37721bd37e",
      "transactionIndex": "0x9a",
      "blockHash": "0xf991cec91858e5ad4e871abe19f9d0fff2e1eb8647790ec0080b0dee4e85d461",
      "blockNumber": "0xf8d5d5",
      "gasUsed": "0x13f87",
      "effectiveGasPrice": "0x865987",
      "from": "0x027a5ce58fc466d0e3a9d1990404354029398541",
      "to": "0x3530bf96982fa5a9e0d8bad84d3587e51a33d332",
      "contractAddress": null,
      "l1Fee": "0x305bad91d",
      "l1GasPrice": "0x1254d58d6",
      "l1GasUsed": "0x95c"
    },
    {
      "status": "0x1",
      "cumulativeGasUsed": "0xc6aafc",
      "logs": [
        {
          "address": "0x3530bf96982fa5a9e0d8bad84d3587e51a33d332",
          "topics": [
            "0xddf252ad1be2c89b69c2b068fc378daa952ba7f163c4a11628f55a4df523b3ef",
            "0x0000000000000000000000000000000000000000000000000000000000000000",
            "0x000000000000000000000000a7a935d45242f7e1754fd5f22d9f08e81aa76e86",
            "0x0000000000000000000000000000000000000000000000000000000000003474"
          ],
          "data": "0x",
          "blockHash": "0x89d0c51da7b9c506e728de55c2b4fd7b092a7ccfbc1a50fc8ccdec795d989334",
          "blockNumber": "0xf8d5d6",
          "transactionHash": "0x276f348fa15b7bd08ffe39b3edc3a91cf0adb1619c959e270e2922ceaed16295",
          "transactionIndex": "0x3f",
          "logIndex": "0x132",
          "removed": false
        }
      ],
      "logsBloom": "0x00000002000000000000000000000000000000000000000000000000000000000000000000000000000000000000000000000000000000000000008100040000000000000000100000000008000000000000000000000000000000000000000000000000020000000000000000000800000000000000000000000010000000000000000000000000000000000000000000000000000020000000000000000000000000000000000000000000000004000000000010000000000000000000000000000002000000000000000000000000000000000000000000000000000020000000000000000000000000000000000008000000000000000000000000000000",
      "type": "0x2",
      "transactionHash": "0x276f348fa15b7bd08ffe39b3edc3a91cf0adb1619c959e270e2922ceaed16295",
      "transactionIndex": "0x3f",
      "blockHash": "0x89d0c51da7b9c506e728de55c2b4fd7b092a7ccfbc1a50fc8ccdec795d989334",
      "blockNumber": "0xf8d5d6",
      "gasUsed": "0x13f87",
      "effectiveGasPrice": "0x867a24",
      "from": "0x027a5ce58fc466d0e3a9d1990404354029398541",
      "to": "0x3530bf96982fa5a9e0d8bad84d3587e51a33d332",
      "contractAddress": null,
      "l1Fee": "0x3099ae02f",
      "l1GasPrice": "0x1254d58d6",
      "l1GasUsed": "0x968"
    },
    {
      "status": "0x1",
      "cumulativeGasUsed": "0xc7ea83",
      "logs": [
        {
          "address": "0x3530bf96982fa5a9e0d8bad84d3587e51a33d332",
          "topics": [
            "0xddf252ad1be2c89b69c2b068fc378daa952ba7f163c4a11628f55a4df523b3ef",
            "0x0000000000000000000000000000000000000000000000000000000000000000",
            "0x000000000000000000000000b1b14193e1246ca9f72059ba41b1d028f567b8cd",
            "0x0000000000000000000000000000000000000000000000000000000000003475"
          ],
          "data": "0x",
          "blockHash": "0x89d0c51da7b9c506e728de55c2b4fd7b092a7ccfbc1a50fc8ccdec795d989334",
          "blockNumber": "0xf8d5d6",
          "transactionHash": "0x27c49396f0389f1d9231c21f2666da47849a2a97c4405dffde4fa5f2adcf9587",
          "transactionIndex": "0x40",
          "logIndex": "0x133",
          "removed": false
        }
      ],
      "logsBloom": "0x00000002000000000000000000000000000000000000000000000000000000000000000000000000000000000000000000000000000000000000000000040000000000000000100000000008000100000000000000000000000000000000000000000000020000000000000000000800000000000000000000000010000000000000080000000000200000000000000000000000000000000000000000000000000000000000000000000000000000000000000000000000000000000010000000000002000000000000000000000000000000000000000000000000000020000000000001000000000000000080000000000000000000000000000000000000",
      "type": "0x2",
      "transactionHash": "0x27c49396f0389f1d9231c21f2666da47849a2a97c4405dffde4fa5f2adcf9587",
      "transactionIndex": "0x40",
      "blockHash": "0x89d0c51da7b9c506e728de55c2b4fd7b092a7ccfbc1a50fc8ccdec795d989334",
      "blockNumber": "0xf8d5d6",
      "gasUsed": "0x13f87",
      "effectiveGasPrice": "0x867a24",
      "from": "0x027a5ce58fc466d0e3a9d1990404354029398541",
      "to": "0x3530bf96982fa5a9e0d8bad84d3587e51a33d332",
      "contractAddress": null,
      "l1Fee": "0x3099ae02f",
      "l1GasPrice": "0x1254d58d6",
      "l1GasUsed": "0x968"
    },
    {
      "status": "0x1",
      "cumulativeGasUsed": "0xc92a0a",
      "logs": [
        {
          "address": "0x3530bf96982fa5a9e0d8bad84d3587e51a33d332",
          "topics": [
            "0xddf252ad1be2c89b69c2b068fc378daa952ba7f163c4a11628f55a4df523b3ef",
            "0x0000000000000000000000000000000000000000000000000000000000000000",
            "0x0000000000000000000000006e3f8d6b7dadd1a2624aad92c784a0c633fd6f52",
            "0x0000000000000000000000000000000000000000000000000000000000003476"
          ],
          "data": "0x",
          "blockHash": "0x89d0c51da7b9c506e728de55c2b4fd7b092a7ccfbc1a50fc8ccdec795d989334",
          "blockNumber": "0xf8d5d6",
          "transactionHash": "0xd164a0fcde87e28fb45e149243e4380779c6ced35ff85f645b49e7624faeedeb",
          "transactionIndex": "0x41",
          "logIndex": "0x134",
          "removed": false
        }
      ],
      "logsBloom": "0x00000002000000000000000000000000000000000000000000000000000000000000020000000000000000000000000000000000000000000000000000040000000000002000100000000008000000000000000000000000000000000000000000000000020000000000000000000800000000000000000000000010000001000000000000000000000000000000000000000000000000000000000100000000000000000000000000000000000000000000000800000000000000000000000000000002000000000000000000000000000000000000000000000000000020000000000000000004000000000000000000000000000000000000000000000000",
      "type": "0x2",
      "transactionHash": "0xd164a0fcde87e28fb45e149243e4380779c6ced35ff85f645b49e7624faeedeb",
      "transactionIndex": "0x41",
      "blockHash": "0x89d0c51da7b9c506e728de55c2b4fd7b092a7ccfbc1a50fc8ccdec795d989334",
      "blockNumber": "0xf8d5d6",
      "gasUsed": "0x13f87",
      "effectiveGasPrice": "0x867a24",
      "from": "0x027a5ce58fc466d0e3a9d1990404354029398541",
      "to": "0x3530bf96982fa5a9e0d8bad84d3587e51a33d332",
      "contractAddress": null,
      "l1Fee": "0x3099ae02f",
      "l1GasPrice": "0x1254d58d6",
      "l1GasUsed": "0x968"
    },
    {
      "status": "0x1",
      "cumulativeGasUsed": "0xca6991",
      "logs": [
        {
          "address": "0x3530bf96982fa5a9e0d8bad84d3587e51a33d332",
          "topics": [
            "0xddf252ad1be2c89b69c2b068fc378daa952ba7f163c4a11628f55a4df523b3ef",
            "0x0000000000000000000000000000000000000000000000000000000000000000",
            "0x000000000000000000000000b8fda4a24fb520963584c18e614cc6624443f897",
            "0x0000000000000000000000000000000000000000000000000000000000003477"
          ],
          "data": "0x",
          "blockHash": "0x89d0c51da7b9c506e728de55c2b4fd7b092a7ccfbc1a50fc8ccdec795d989334",
          "blockNumber": "0xf8d5d6",
          "transactionHash": "0xcb23ac29d2aa3a0b00369afa4068267661639bdf02c7fc0cad3736b2a6b0a84c",
          "transactionIndex": "0x42",
          "logIndex": "0x135",
          "removed": false
        }
      ],
      "logsBloom": "0x00200002000000000000000000000000000000000000000000000000000000000000000000000000000800000000000000000000000000000000000000040000000000000000100000000008000000000000000000000000000000040000000000000000020000000000000000000800000000000000000000000010000000000000000000000000000000000000000000000000000000000000000000000000000000000000000000000000000000000000000000000000000000000000000000000002000000000000000000000000000000000000000000000000000020000000000000000000100000000000000000000000000000000000010000000000",
      "type": "0x2",
      "transactionHash": "0xcb23ac29d2aa3a0b00369afa4068267661639bdf02c7fc0cad3736b2a6b0a84c",
      "transactionIndex": "0x42",
      "blockHash": "0x89d0c51da7b9c506e728de55c2b4fd7b092a7ccfbc1a50fc8ccdec795d989334",
      "blockNumber": "0xf8d5d6",
      "gasUsed": "0x13f87",
      "effectiveGasPrice": "0x867a24",
      "from": "0x027a5ce58fc466d0e3a9d1990404354029398541",
      "to": "0x3530bf96982fa5a9e0d8bad84d3587e51a33d332",
      "contractAddress": null,
      "l1Fee": "0x3099ae02f",
      "l1GasPrice": "0x1254d58d6",
      "l1GasUsed": "0x968"
    },
    {
      "status": "0x1",
      "cumulativeGasUsed": "0xcba918",
      "logs": [
        {
          "address": "0x3530bf96982fa5a9e0d8bad84d3587e51a33d332",
          "topics": [
            "0xddf252ad1be2c89b69c2b068fc378daa952ba7f163c4a11628f55a4df523b3ef",
            "0x0000000000000000000000000000000000000000000000000000000000000000",
            "0x000000000000000000000000291ba8a8532850700636de34da56cd8034fe825c",
            "0x0000000000000000000000000000000000000000000000000000000000003478"
          ],
          "data": "0x",
          "blockHash": "0x89d0c51da7b9c506e728de55c2b4fd7b092a7ccfbc1a50fc8ccdec795d989334",
          "blockNumber": "0xf8d5d6",
          "transactionHash": "0x973b7145d54c3913c0fdac14b6c07b50657cf0a2114e4f2b25a4319b3e7c6374",
          "transactionIndex": "0x43",
          "logIndex": "0x136",
          "removed": false
        }
      ],
      "logsBloom": "0x00000002000000000000000000000000080000000000020000000000000000000000000000000000000000000000000000000000000000000000000000040000000000000000100000000008000000000000000000000000000000000000000000000000020000000000000000000800000000000000000000000010000000000000000000000000000000000000000000000000008000000000000000002000000000000000000000000000000000000000000000000000000000000000000000000002000000000000000000000000000000000000000000000000000020000000000000000000010001000000000000000000000000000000000000000000",
      "type": "0x2",
      "transactionHash": "0x973b7145d54c3913c0fdac14b6c07b50657cf0a2114e4f2b25a4319b3e7c6374",
      "transactionIndex": "0x43",
      "blockHash": "0x89d0c51da7b9c506e728de55c2b4fd7b092a7ccfbc1a50fc8ccdec795d989334",
      "blockNumber": "0xf8d5d6",
      "gasUsed": "0x13f87",
      "effectiveGasPrice": "0x867a24",
      "from": "0x027a5ce58fc466d0e3a9d1990404354029398541",
      "to": "0x3530bf96982fa5a9e0d8bad84d3587e51a33d332",
      "contractAddress": null,
      "l1Fee": "0x3099ae02f",
      "l1GasPrice": "0x1254d58d6",
      "l1GasUsed": "0x968"
    },
    {
      "status": "0x1",
      "cumulativeGasUsed": "0xcce89f",
      "logs": [
        {
          "address": "0x3530bf96982fa5a9e0d8bad84d3587e51a33d332",
          "topics": [
            "0xddf252ad1be2c89b69c2b068fc378daa952ba7f163c4a11628f55a4df523b3ef",
            "0x0000000000000000000000000000000000000000000000000000000000000000",
            "0x000000000000000000000000147482a271deedc86033d7b11144c1e6a2047a6a",
            "0x0000000000000000000000000000000000000000000000000000000000003479"
          ],
          "data": "0x",
          "blockHash": "0x89d0c51da7b9c506e728de55c2b4fd7b092a7ccfbc1a50fc8ccdec795d989334",
          "blockNumber": "0xf8d5d6",
          "transactionHash": "0x833d97d87558043086e429289de96573b810acbba37beab0b636325c9095a3d1",
          "transactionIndex": "0x44",
          "logIndex": "0x137",
          "removed": false
        }
      ],
      "logsBloom": "0x00000002000000000000000000000000000000000000000000000000000000000000000000000000000000000000000000000000000000000000000000040000000000000000100000000008000000000000000000000000000000000000000000000000020000000000000000000800000000000000000000000010000000000000000000000000000000000000000000000800000000001000000000000000000040000000000000000000000000000000080000000000000000000000000000000002000000000000000000000000000000000000008000000000000020000000000000000000000000000000000000000000000000000000000008000000",
      "type": "0x2",
      "transactionHash": "0x833d97d87558043086e429289de96573b810acbba37beab0b636325c9095a3d1",
      "transactionIndex": "0x44",
      "blockHash": "0x89d0c51da7b9c506e728de55c2b4fd7b092a7ccfbc1a50fc8ccdec795d989334",
      "blockNumber": "0xf8d5d6",
      "gasUsed": "0x13f87",
      "effectiveGasPrice": "0x867a24",
      "from": "0x027a5ce58fc466d0e3a9d1990404354029398541",
      "to": "0x3530bf96982fa5a9e0d8bad84d3587e51a33d332",
      "contractAddress": null,
      "l1Fee": "0x3099ae02f",
      "l1GasPrice": "0x1254d58d6",
      "l1GasUsed": "0x968"
    },
    {
      "status": "0x1",
      "cumulativeGasUsed": "0xce27ea",
      "logs": [
        {
          "address": "0x3530bf96982fa5a9e0d8bad84d3587e51a33d332",
          "topics": [
            "0xddf252ad1be2c89b69c2b068fc378daa952ba7f163c4a11628f55a4df523b3ef",
            "0x0000000000000000000000000000000000000000000000000000000000000000",
            "0x000000000000000000000000000000000005af2ddc1a93a03e9b7014064d3b8d",
            "0x000000000000000000000000000000000000000000000000000000000000347a"
          ],
          "data": "0x",
          "blockHash": "0x89d0c51da7b9c506e728de55c2b4fd7b092a7ccfbc1a50fc8ccdec795d989334",
          "blockNumber": "0xf8d5d6",
          "transactionHash": "0xc6499b565543a3cf3d67689388cfd653cbc28e478021b7e03911ae8a4d1f3dc3",
          "transactionIndex": "0x45",
          "logIndex": "0x138",
          "removed": false
        }
      ],
      "logsBloom": "0x00000002000000000000000000000000000000000000000000000000000000000000000000000000000000000000000000000000000000000008000000040000000000000000100000000008000000000000000000000000000000000000000000000000020000001000002000000800000000000000000000000010000000000000000000000000000000000020000000000000000000000000000000000000000000080000000000000000000000000000000000000000000000000000000000000002000000000000000000000000000000000000000000000000000020000000000000000000000000000000000000000100000000000000000000000000",
      "type": "0x2",
      "transactionHash": "0xc6499b565543a3cf3d67689388cfd653cbc28e478021b7e03911ae8a4d1f3dc3",
      "transactionIndex": "0x45",
      "blockHash": "0x89d0c51da7b9c506e728de55c2b4fd7b092a7ccfbc1a50fc8ccdec795d989334",
      "blockNumber": "0xf8d5d6",
      "gasUsed": "0x13f4b",
      "effectiveGasPrice": "0x867a24",
      "from": "0x027a5ce58fc466d0e3a9d1990404354029398541",
      "to": "0x3530bf96982fa5a9e0d8bad84d3587e51a33d332",
      "contractAddress": null,
      "l1Fee": "0x2f63abcd4",
      "l1GasPrice": "0x1254d58d6",
      "l1GasUsed": "0x92c"
    },
    {
      "status": "0x1",
      "cumulativeGasUsed": "0xcf6771",
      "logs": [
        {
          "address": "0x3530bf96982fa5a9e0d8bad84d3587e51a33d332",
          "topics": [
            "0xddf252ad1be2c89b69c2b068fc378daa952ba7f163c4a11628f55a4df523b3ef",
            "0x0000000000000000000000000000000000000000000000000000000000000000",
            "0x00000000000000000000000021fd80d6184aac6978e0d21225396512eb97a591",
            "0x000000000000000000000000000000000000000000000000000000000000347b"
          ],
          "data": "0x",
          "blockHash": "0x89d0c51da7b9c506e728de55c2b4fd7b092a7ccfbc1a50fc8ccdec795d989334",
          "blockNumber": "0xf8d5d6",
          "transactionHash": "0xf3895580f408ae3343b36ec4848fb60a44b76849784cc299166dcebfb3cfb12e",
          "transactionIndex": "0x46",
          "logIndex": "0x139",
          "removed": false
        }
      ],
      "logsBloom": "0x00000002000000000000000000000000000000000000000000000000000000000000000000000000000000000000000000000000000000000000000000040000000000000000100000000008000004000000000000000000000000000000000000000200020000000000000000000800000000000000000000000010000000000000000000000008000000000000000000000000000000000000000000000000000000000000000000000000000000000000000000000000000000000000000040000002000000000000020000000000000000000000000000000000000020000000000000000000000000000000000000000000400000000000000000000000",
      "type": "0x2",
      "transactionHash": "0xf3895580f408ae3343b36ec4848fb60a44b76849784cc299166dcebfb3cfb12e",
      "transactionIndex": "0x46",
      "blockHash": "0x89d0c51da7b9c506e728de55c2b4fd7b092a7ccfbc1a50fc8ccdec795d989334",
      "blockNumber": "0xf8d5d6",
      "gasUsed": "0x13f87",
      "effectiveGasPrice": "0x867a24",
      "from": "0x027a5ce58fc466d0e3a9d1990404354029398541",
      "to": "0x3530bf96982fa5a9e0d8bad84d3587e51a33d332",
      "contractAddress": null,
      "l1Fee": "0x3099ae02f",
      "l1GasPrice": "0x1254d58d6",
      "l1GasUsed": "0x968"
    },
    {
      "status": "0x1",
      "cumulativeGasUsed": "0xd0a6f8",
      "logs": [
        {
          "address": "0x3530bf96982fa5a9e0d8bad84d3587e51a33d332",
          "topics": [
            "0xddf252ad1be2c89b69c2b068fc378daa952ba7f163c4a11628f55a4df523b3ef",
            "0x0000000000000000000000000000000000000000000000000000000000000000",
            "0x000000000000000000000000638bbc6f890687637b795e702bfa363f29d6ba8b",
            "0x000000000000000000000000000000000000000000000000000000000000347c"
          ],
          "data": "0x",
          "blockHash": "0x89d0c51da7b9c506e728de55c2b4fd7b092a7ccfbc1a50fc8ccdec795d989334",
          "blockNumber": "0xf8d5d6",
          "transactionHash": "0x306c9632757b00a9c74552026db4f72dc489ed287fd380d205a8087b5d258770",
          "transactionIndex": "0x47",
          "logIndex": "0x13a",
          "removed": false
        }
      ],
      "logsBloom": "0x00000002000000000000000000000000000000000000000000000000000000000000000000000000000000000000000000000000000000000000000000040000000000000000100000000008000000000000000000000000000000000000000000000000020000000000000000000800000000000000020000000010000000000000000000000000800000000000000008000000020000000000000000000000000000000000000000000000000000000000000000000000000000000000000000000002000000000000001000000000000000000000000000000000000020000000000000000000000000000000000000000000000000000000000000002000",
      "type": "0x2",
      "transactionHash": "0x306c9632757b00a9c74552026db4f72dc489ed287fd380d205a8087b5d258770",
      "transactionIndex": "0x47",
      "blockHash": "0x89d0c51da7b9c506e728de55c2b4fd7b092a7ccfbc1a50fc8ccdec795d989334",
      "blockNumber": "0xf8d5d6",
      "gasUsed": "0x13f87",
      "effectiveGasPrice": "0x867a24",
      "from": "0x027a5ce58fc466d0e3a9d1990404354029398541",
      "to": "0x3530bf96982fa5a9e0d8bad84d3587e51a33d332",
      "contractAddress": null,
      "l1Fee": "0x3099ae02f",
      "l1GasPrice": "0x1254d58d6",
      "l1GasUsed": "0x968"
    },
    {
      "status": "0x1",
      "cumulativeGasUsed": "0xd1e67f",
      "logs": [
        {
          "address": "0x3530bf96982fa5a9e0d8bad84d3587e51a33d332",
          "topics": [
            "0xddf252ad1be2c89b69c2b068fc378daa952ba7f163c4a11628f55a4df523b3ef",
            "0x0000000000000000000000000000000000000000000000000000000000000000",
            "0x000000000000000000000000634cf119d1964b88a426e1e782bd09f37b51d949",
            "0x000000000000000000000000000000000000000000000000000000000000347d"
          ],
          "data": "0x",
          "blockHash": "0x89d0c51da7b9c506e728de55c2b4fd7b092a7ccfbc1a50fc8ccdec795d989334",
          "blockNumber": "0xf8d5d6",
          "transactionHash": "0xdd58afef6c7fc8b4de5c5956af0c0517bdfea476cbb34516e5f506c711527cfb",
          "transactionIndex": "0x48",
          "logIndex": "0x13b",
          "removed": false
        }
      ],
      "logsBloom": "0x00000002000000000000000000000000000000000400000000000000000000000000000000000000004000000000000000000000000000000000000000040000000000000000100000000008000000000000000000000000000000000000010000000000020000000000000000000800000000000000000000800010000000000000000000000000000000000000000000000000000000000000000000000000000000000000000000000000000000000000000000000000000000000000000000000002000000000000000000000000000004000000000000000000000060000000000000000000000000000000000000000000000000000000000000000000",
      "type": "0x2",
      "transactionHash": "0xdd58afef6c7fc8b4de5c5956af0c0517bdfea476cbb34516e5f506c711527cfb",
      "transactionIndex": "0x48",
      "blockHash": "0x89d0c51da7b9c506e728de55c2b4fd7b092a7ccfbc1a50fc8ccdec795d989334",
      "blockNumber": "0xf8d5d6",
      "gasUsed": "0x13f87",
      "effectiveGasPrice": "0x867a24",
      "from": "0x027a5ce58fc466d0e3a9d1990404354029398541",
      "to": "0x3530bf96982fa5a9e0d8bad84d3587e51a33d332",
      "contractAddress": null,
      "l1Fee": "0x3099ae02f",
      "l1GasPrice": "0x1254d58d6",
      "l1GasUsed": "0x968"
    },
    {
      "status": "0x1",
      "cumulativeGasUsed": "0xd32606",
      "logs": [
        {
          "address": "0x3530bf96982fa5a9e0d8bad84d3587e51a33d332",
          "topics": [
            "0xddf252ad1be2c89b69c2b068fc378daa952ba7f163c4a11628f55a4df523b3ef",
            "0x0000000000000000000000000000000000000000000000000000000000000000",
            "0x000000000000000000000000bb7d62e9bf012b2de27c1f2a0d8bd90397d3c660",
            "0x000000000000000000000000000000000000000000000000000000000000347e"
          ],
          "data": "0x",
          "blockHash": "0x89d0c51da7b9c506e728de55c2b4fd7b092a7ccfbc1a50fc8ccdec795d989334",
          "blockNumber": "0xf8d5d6",
          "transactionHash": "0xff4fed7b1b9bc722af7112c0176acf3448ccf9c67f612b8a7074f4ea41e36650",
          "transactionIndex": "0x49",
          "logIndex": "0x13c",
          "removed": false
        }
      ],
      "logsBloom": "0x00000002000000000000000000000000000000000000000000000000000000000000000000000000000000000000000000000000000000000000000000040000000000000000100000000008004000000000000000000000000020000000000000000000020000000000000000000900000000000000000004000010000000000000000000000000000000000000080000000000000000000000000000000000000000000000000000000000000000000000000000000000000000000000000000000002000000000000000000000000000000000000000000000000000020000000000000000000000000000000000000000000000000100000000000000000",
      "type": "0x2",
      "transactionHash": "0xff4fed7b1b9bc722af7112c0176acf3448ccf9c67f612b8a7074f4ea41e36650",
      "transactionIndex": "0x49",
      "blockHash": "0x89d0c51da7b9c506e728de55c2b4fd7b092a7ccfbc1a50fc8ccdec795d989334",
      "blockNumber": "0xf8d5d6",
      "gasUsed": "0x13f87",
      "effectiveGasPrice": "0x867a24",
      "from": "0x027a5ce58fc466d0e3a9d1990404354029398541",
      "to": "0x3530bf96982fa5a9e0d8bad84d3587e51a33d332",
      "contractAddress": null,
      "l1Fee": "0x305bad91d",
      "l1GasPrice": "0x1254d58d6",
      "l1GasUsed": "0x95c"
    },
    {
      "status": "0x1",
      "cumulativeGasUsed": "0xd4658d",
      "logs": [
        {
          "address": "0x3530bf96982fa5a9e0d8bad84d3587e51a33d332",
          "topics": [
            "0xddf252ad1be2c89b69c2b068fc378daa952ba7f163c4a11628f55a4df523b3ef",
            "0x0000000000000000000000000000000000000000000000000000000000000000",
            "0x00000000000000000000000018c2199f7e9ff095023f760639651787ca154daa",
            "0x000000000000000000000000000000000000000000000000000000000000347f"
          ],
          "data": "0x",
          "blockHash": "0x89d0c51da7b9c506e728de55c2b4fd7b092a7ccfbc1a50fc8ccdec795d989334",
          "blockNumber": "0xf8d5d6",
          "transactionHash": "0xbb4160f931388a8a35b3c29bd86ec628439aba723747f889b05428265b0ea33f",
          "transactionIndex": "0x4a",
          "logIndex": "0x13d",
          "removed": false
        }
      ],
      "logsBloom": "0x00000002000000000000000000000000000000400000000000008000000000000000000000000000000040000000000000000000000000000000000000040000000000000000100000000008000000000000000000000000000200000000000000000000020000000000000000000800000000000000002000000010000000000000000000000000000000000000000000000000000000000000000000000000000000000000000000000000000000000000000000000000000000000000000000000002000000000000000000000000000000000000000000000020000020000000000000000000000000000000000000000000000000000000000000000000",
      "type": "0x2",
      "transactionHash": "0xbb4160f931388a8a35b3c29bd86ec628439aba723747f889b05428265b0ea33f",
      "transactionIndex": "0x4a",
      "blockHash": "0x89d0c51da7b9c506e728de55c2b4fd7b092a7ccfbc1a50fc8ccdec795d989334",
      "blockNumber": "0xf8d5d6",
      "gasUsed": "0x13f87",
      "effectiveGasPrice": "0x867a24",
      "from": "0x027a5ce58fc466d0e3a9d1990404354029398541",
      "to": "0x3530bf96982fa5a9e0d8bad84d3587e51a33d332",
      "contractAddress": null,
      "l1Fee": "0x3099ae02f",
      "l1GasPrice": "0x1254d58d6",
      "l1GasUsed": "0x968"
    },
    {
      "status": "0x1",
      "cumulativeGasUsed": "0xd5a514",
      "logs": [
        {
          "address": "0x3530bf96982fa5a9e0d8bad84d3587e51a33d332",
          "topics": [
            "0xddf252ad1be2c89b69c2b068fc378daa952ba7f163c4a11628f55a4df523b3ef",
            "0x0000000000000000000000000000000000000000000000000000000000000000",
            "0x0000000000000000000000004066e9bd5618373d2da7a1cb7bba03ef800875ee",
            "0x0000000000000000000000000000000000000000000000000000000000003480"
          ],
          "data": "0x",
          "blockHash": "0x89d0c51da7b9c506e728de55c2b4fd7b092a7ccfbc1a50fc8ccdec795d989334",
          "blockNumber": "0xf8d5d6",
          "transactionHash": "0x070f67a64b6045852f72c3acb6de13fc660c4e2bc6702b2f190360dd3f92f758",
          "transactionIndex": "0x4b",
          "logIndex": "0x13e",
          "removed": false
        }
      ],
      "logsBloom": "0x00000002000000000000002000000000000000000000000000000800000000000000000000000000000000000000000000000000000400000000000000040000000000000000100000000008000000000000000000000000000000000000000020008000020000000000000000000800000000000000000000000010000000000000000000000000000000000000000000000000000000000000000000000000000000000000000000000000000000000008000000000000000000000000000000000002000000000000000000000000000000000000000000000000000020000000000000000000000000000000000000000000000000000000000000000000",
      "type": "0x2",
      "transactionHash": "0x070f67a64b6045852f72c3acb6de13fc660c4e2bc6702b2f190360dd3f92f758",
      "transactionIndex": "0x4b",
      "blockHash": "0x89d0c51da7b9c506e728de55c2b4fd7b092a7ccfbc1a50fc8ccdec795d989334",
      "blockNumber": "0xf8d5d6",
      "gasUsed": "0x13f87",
      "effectiveGasPrice": "0x867a24",
      "from": "0x027a5ce58fc466d0e3a9d1990404354029398541",
      "to": "0x3530bf96982fa5a9e0d8bad84d3587e51a33d332",
      "contractAddress": null,
      "l1Fee": "0x305bad91d",
      "l1GasPrice": "0x1254d58d6",
      "l1GasUsed": "0x95c"
    },
    {
      "status": "0x1",
      "cumulativeGasUsed": "0xd6e49b",
      "logs": [
        {
          "address": "0x3530bf96982fa5a9e0d8bad84d3587e51a33d332",
          "topics": [
            "0xddf252ad1be2c89b69c2b068fc378daa952ba7f163c4a11628f55a4df523b3ef",
            "0x0000000000000000000000000000000000000000000000000000000000000000",
            "0x000000000000000000000000ae971465f3280b9528caf04cfd4fa4c8f9c67e02",
            "0x0000000000000000000000000000000000000000000000000000000000003481"
          ],
          "data": "0x",
          "blockHash": "0x89d0c51da7b9c506e728de55c2b4fd7b092a7ccfbc1a50fc8ccdec795d989334",
          "blockNumber": "0xf8d5d6",
          "transactionHash": "0x11b367e83891945c4e903a7ef652df0df027125d1163cf5b4c47ba23fc03e345",
          "transactionIndex": "0x4c",
          "logIndex": "0x13f",
          "removed": false
        }
      ],
      "logsBloom": "0x00000002000000000000000000000000000000000000000000000000000000000000000000000000000000020000000000000800000000000000000000040000000000000000100000000008000000000000000000000000000000000000000000000000020000000000000000000800000000000000000000000010000000000000000000000000000000000000000000000000000000000000000000000000000000000000000000000000000000000000000000000000000000000004000000000002000000000000001000000000000000000000000000100000000020000000000000000000000000000000000000000000000000000000000000000080",
      "type": "0x2",
      "transactionHash": "0x11b367e83891945c4e903a7ef652df0df027125d1163cf5b4c47ba23fc03e345",
      "transactionIndex": "0x4c",
      "blockHash": "0x89d0c51da7b9c506e728de55c2b4fd7b092a7ccfbc1a50fc8ccdec795d989334",
      "blockNumber": "0xf8d5d6",
      "gasUsed": "0x13f87",
      "effectiveGasPrice": "0x867a24",
      "from": "0x027a5ce58fc466d0e3a9d1990404354029398541",
      "to": "0x3530bf96982fa5a9e0d8bad84d3587e51a33d332",
      "contractAddress": null,
      "l1Fee": "0x3099ae02f",
      "l1GasPrice": "0x1254d58d6",
      "l1GasUsed": "0x968"
    },
    {
      "status": "0x1",
      "cumulativeGasUsed": "0xd82422",
      "logs": [
        {
          "address": "0x3530bf96982fa5a9e0d8bad84d3587e51a33d332",
          "topics": [
            "0xddf252ad1be2c89b69c2b068fc378daa952ba7f163c4a11628f55a4df523b3ef",
            "0x0000000000000000000000000000000000000000000000000000000000000000",
            "0x000000000000000000000000e8c060f8052e07423f71d445277c61ac5138a2e5",
            "0x0000000000000000000000000000000000000000000000000000000000003482"
          ],
          "data": "0x",
          "blockHash": "0x89d0c51da7b9c506e728de55c2b4fd7b092a7ccfbc1a50fc8ccdec795d989334",
          "blockNumber": "0xf8d5d6",
          "transactionHash": "0x7f073bd3583988e61536aa24bf59731d1c82d7258d7afc5fb2b91289801a37b7",
          "transactionIndex": "0x4d",
          "logIndex": "0x140",
          "removed": false
        }
      ],
      "logsBloom": "0x00000002000000000000000000000000000000000000000000000000000000000000000000000000000000000000000000000000000000000000800000040400000000000000100000000008000000000000000000100000000000000000000000000000020000000000000000000800000000000000000000000010100000000000000000000000000000000040000000000000000000000000000000000000000000000000000000000000000000000000000000000000000000000008000000000002000000000000000000000000000000000000000000000000000020000000000000000000000000000000000000000000000000000000000000000000",
      "type": "0x2",
      "transactionHash": "0x7f073bd3583988e61536aa24bf59731d1c82d7258d7afc5fb2b91289801a37b7",
      "transactionIndex": "0x4d",
      "blockHash": "0x89d0c51da7b9c506e728de55c2b4fd7b092a7ccfbc1a50fc8ccdec795d989334",
      "blockNumber": "0xf8d5d6",
      "gasUsed": "0x13f87",
      "effectiveGasPrice": "0x867a24",
      "from": "0x027a5ce58fc466d0e3a9d1990404354029398541",
      "to": "0x3530bf96982fa5a9e0d8bad84d3587e51a33d332",
      "contractAddress": null,
      "l1Fee": "0x3099ae02f",
      "l1GasPrice": "0x1254d58d6",
      "l1GasUsed": "0x968"
    },
    {
      "status": "0x1",
      "cumulativeGasUsed": "0xd96349",
      "logs": [
        {
          "address": "0x3530bf96982fa5a9e0d8bad84d3587e51a33d332",
          "topics": [
            "0xddf252ad1be2c89b69c2b068fc378daa952ba7f163c4a11628f55a4df523b3ef",
            "0x0000000000000000000000000000000000000000000000000000000000000000",
            "0x0000000000000000000000003c005ba2000f0000ba000d69000ac8ec003800bc",
            "0x0000000000000000000000000000000000000000000000000000000000003483"
          ],
          "data": "0x",
          "blockHash": "0x89d0c51da7b9c506e728de55c2b4fd7b092a7ccfbc1a50fc8ccdec795d989334",
          "blockNumber": "0xf8d5d6",
          "transactionHash": "0xdccaf5ac8687aa770f726dce167fdcfa010c2dc1e698e7bb733052d4b3ee6cbe",
          "transactionIndex": "0x4e",
          "logIndex": "0x141",
          "removed": false
        }
      ],
      "logsBloom": "0x0000000200000000000000000000000000000000000000000000000000040000000000000000000000000000000000100000000000000000000000008004000000000000000010000000000c000000000000000000000000000000000000000000000000020000000000000000000800000000000000000000000010000000000000000000000000000000000000000000000000000100000000000000000000000000000000000000000000000000000000000000000000000000000000000000000002000000000000000000000000000000000000000000000000000020000000000000000000000000000000000000000000000000000000000000000800",
      "type": "0x2",
      "transactionHash": "0xdccaf5ac8687aa770f726dce167fdcfa010c2dc1e698e7bb733052d4b3ee6cbe",
      "transactionIndex": "0x4e",
      "blockHash": "0x89d0c51da7b9c506e728de55c2b4fd7b092a7ccfbc1a50fc8ccdec795d989334",
      "blockNumber": "0xf8d5d6",
      "gasUsed": "0x13f27",
      "effectiveGasPrice": "0x867a24",
      "from": "0x027a5ce58fc466d0e3a9d1990404354029398541",
      "to": "0x3530bf96982fa5a9e0d8bad84d3587e51a33d332",
      "contractAddress": null,
      "l1Fee": "0x2ea9aa79e",
      "l1GasPrice": "0x1254d58d6",
      "l1GasUsed": "0x908"
    },
    {
      "status": "0x1",
      "cumulativeGasUsed": "0xdaa2d0",
      "logs": [
        {
          "address": "0x3530bf96982fa5a9e0d8bad84d3587e51a33d332",
          "topics": [
            "0xddf252ad1be2c89b69c2b068fc378daa952ba7f163c4a11628f55a4df523b3ef",
            "0x0000000000000000000000000000000000000000000000000000000000000000",
            "0x0000000000000000000000006980a47bee930a4584b09ee79ebe46484fbdbdd0",
            "0x0000000000000000000000000000000000000000000000000000000000003484"
          ],
          "data": "0x",
          "blockHash": "0x89d0c51da7b9c506e728de55c2b4fd7b092a7ccfbc1a50fc8ccdec795d989334",
          "blockNumber": "0xf8d5d6",
          "transactionHash": "0x361795bad5b9f1659c968ab856e6b5a72ae43bba4205eb5a505deaa09edc50f6",
          "transactionIndex": "0x4f",
          "logIndex": "0x142",
          "removed": false
        }
      ],
      "logsBloom": "0x00000002000000000000000000020000000000000000020000000000000000000000000000000000000000000000000000000001000000000000000000040000000000000000100001000008000000000000000000000000000000000000000000000000020000000000000000000800000000000000000000000010000000000000000000000000000000000000000200000000000000000000000000000000000000000000000000000000000000000000000000000000000000000000000000000002040000000000000000000000000000000000000000000000000020000000000000000000000000000000000000000000000000000000000000000000",
      "type": "0x2",
      "transactionHash": "0x361795bad5b9f1659c968ab856e6b5a72ae43bba4205eb5a505deaa09edc50f6",
      "transactionIndex": "0x4f",
      "blockHash": "0x89d0c51da7b9c506e728de55c2b4fd7b092a7ccfbc1a50fc8ccdec795d989334",
      "blockNumber": "0xf8d5d6",
      "gasUsed": "0x13f87",
      "effectiveGasPrice": "0x867a24",
      "from": "0x027a5ce58fc466d0e3a9d1990404354029398541",
      "to": "0x3530bf96982fa5a9e0d8bad84d3587e51a33d332",
      "contractAddress": null,
      "l1Fee": "0x3099ae02f",
      "l1GasPrice": "0x1254d58d6",
      "l1GasUsed": "0x968"
    }
  ],
  "libraries": [],
  "pending": [],
  "returns": {},
  "timestamp": 1719404699,
  "chain": 8453,
  "commit": "3dd2ed9"
}