{
  "transactions": [
    {
      "hash": null,
      "transactionType": "CALL",
      "contractName": null,
      "contractAddress": "0x3530bf96982fa5a9e0d8bad84d3587e51a33d332",
      "function": "safeMint(address,uint256)",
      "arguments": [
        "0xee1A6cD3196E42c6c61f8dd4c7511d0254D0e66D",
        "5001"
      ],
      "transaction": {
        "from": "0x027a5ce58fc466d0e3a9d1990404354029398541",
        "to": "0x3530bf96982fa5a9e0d8bad84d3587e51a33d332",
        "gas": "0x1b958",
        "value": "0x0",
        "input": "0xa1448194000000000000000000000000ee1a6cd3196e42c6c61f8dd4c7511d0254d0e66d0000000000000000000000000000000000000000000000000000000000001389",
        "nonce": "0x158b",
        "chainId": "0x2105"
      },
      "additionalContracts": [],
      "isFixedGasLimit": false
    },
    {
      "hash": null,
      "transactionType": "CALL",
      "contractName": null,
      "contractAddress": "0x3530bf96982fa5a9e0d8bad84d3587e51a33d332",
      "function": "safeMint(address,uint256)",
      "arguments": [
        "0x3DEE324e21fbe4Ab7623416AF5cC50BFeeFeB0E2",
        "5002"
      ],
      "transaction": {
        "from": "0x027a5ce58fc466d0e3a9d1990404354029398541",
        "to": "0x3530bf96982fa5a9e0d8bad84d3587e51a33d332",
        "gas": "0x1b958",
        "value": "0x0",
        "input": "0xa14481940000000000000000000000003dee324e21fbe4ab7623416af5cc50bfeefeb0e2000000000000000000000000000000000000000000000000000000000000138a",
        "nonce": "0x158c",
        "chainId": "0x2105"
      },
      "additionalContracts": [],
      "isFixedGasLimit": false
    },
    {
      "hash": null,
      "transactionType": "CALL",
      "contractName": null,
      "contractAddress": "0x3530bf96982fa5a9e0d8bad84d3587e51a33d332",
      "function": "safeMint(address,uint256)",
      "arguments": [
        "0x46c0A4dc52F365228b0C4e772146a58be1173EB4",
        "5003"
      ],
      "transaction": {
        "from": "0x027a5ce58fc466d0e3a9d1990404354029398541",
        "to": "0x3530bf96982fa5a9e0d8bad84d3587e51a33d332",
        "gas": "0x1b958",
        "value": "0x0",
        "input": "0xa144819400000000000000000000000046c0a4dc52f365228b0c4e772146a58be1173eb4000000000000000000000000000000000000000000000000000000000000138b",
        "nonce": "0x158d",
        "chainId": "0x2105"
      },
      "additionalContracts": [],
      "isFixedGasLimit": false
    },
    {
      "hash": null,
      "transactionType": "CALL",
      "contractName": null,
      "contractAddress": "0x3530bf96982fa5a9e0d8bad84d3587e51a33d332",
      "function": "safeMint(address,uint256)",
      "arguments": [
        "0x0651585D6e110a2816b7ba63abC72Aa5025B1651",
        "5004"
      ],
      "transaction": {
        "from": "0x027a5ce58fc466d0e3a9d1990404354029398541",
        "to": "0x3530bf96982fa5a9e0d8bad84d3587e51a33d332",
        "gas": "0x1b958",
        "value": "0x0",
        "input": "0xa14481940000000000000000000000000651585d6e110a2816b7ba63abc72aa5025b1651000000000000000000000000000000000000000000000000000000000000138c",
        "nonce": "0x158e",
        "chainId": "0x2105"
      },
      "additionalContracts": [],
      "isFixedGasLimit": false
    },
    {
      "hash": null,
      "transactionType": "CALL",
      "contractName": null,
      "contractAddress": "0x3530bf96982fa5a9e0d8bad84d3587e51a33d332",
      "function": "safeMint(address,uint256)",
      "arguments": [
        "0xc420e5f3C7Af1Cfb7387261fe5BA9de7212666F4",
        "5005"
      ],
      "transaction": {
        "from": "0x027a5ce58fc466d0e3a9d1990404354029398541",
        "to": "0x3530bf96982fa5a9e0d8bad84d3587e51a33d332",
        "gas": "0x1b958",
        "value": "0x0",
        "input": "0xa1448194000000000000000000000000c420e5f3c7af1cfb7387261fe5ba9de7212666f4000000000000000000000000000000000000000000000000000000000000138d",
        "nonce": "0x158f",
        "chainId": "0x2105"
      },
      "additionalContracts": [],
      "isFixedGasLimit": false
    },
    {
      "hash": null,
      "transactionType": "CALL",
      "contractName": null,
      "contractAddress": "0x3530bf96982fa5a9e0d8bad84d3587e51a33d332",
      "function": "safeMint(address,uint256)",
      "arguments": [
        "0xf6cfC18183Da4b1dAe22393c9D24D873CF3624eb",
        "5006"
      ],
      "transaction": {
        "from": "0x027a5ce58fc466d0e3a9d1990404354029398541",
        "to": "0x3530bf96982fa5a9e0d8bad84d3587e51a33d332",
        "gas": "0x1b958",
        "value": "0x0",
        "input": "0xa1448194000000000000000000000000f6cfc18183da4b1dae22393c9d24d873cf3624eb000000000000000000000000000000000000000000000000000000000000138e",
        "nonce": "0x1590",
        "chainId": "0x2105"
      },
      "additionalContracts": [],
      "isFixedGasLimit": false
    },
    {
      "hash": null,
      "transactionType": "CALL",
      "contractName": null,
      "contractAddress": "0x3530bf96982fa5a9e0d8bad84d3587e51a33d332",
      "function": "safeMint(address,uint256)",
      "arguments": [
        "0xE4Cf184b1290dd86EbfaD8682b89d308d9B18DA8",
        "5007"
      ],
      "transaction": {
        "from": "0x027a5ce58fc466d0e3a9d1990404354029398541",
        "to": "0x3530bf96982fa5a9e0d8bad84d3587e51a33d332",
        "gas": "0x1b958",
        "value": "0x0",
        "input": "0xa1448194000000000000000000000000e4cf184b1290dd86ebfad8682b89d308d9b18da8000000000000000000000000000000000000000000000000000000000000138f",
        "nonce": "0x1591",
        "chainId": "0x2105"
      },
      "additionalContracts": [],
      "isFixedGasLimit": false
    },
    {
      "hash": null,
      "transactionType": "CALL",
      "contractName": null,
      "contractAddress": "0x3530bf96982fa5a9e0d8bad84d3587e51a33d332",
      "function": "safeMint(address,uint256)",
      "arguments": [
        "0x98475bFf848e1e67BdCA6b12573D2c49A4442726",
        "5008"
      ],
      "transaction": {
        "from": "0x027a5ce58fc466d0e3a9d1990404354029398541",
        "to": "0x3530bf96982fa5a9e0d8bad84d3587e51a33d332",
        "gas": "0x1b958",
        "value": "0x0",
        "input": "0xa144819400000000000000000000000098475bff848e1e67bdca6b12573d2c49a44427260000000000000000000000000000000000000000000000000000000000001390",
        "nonce": "0x1592",
        "chainId": "0x2105"
      },
      "additionalContracts": [],
      "isFixedGasLimit": false
    },
    {
      "hash": null,
      "transactionType": "CALL",
      "contractName": null,
      "contractAddress": "0x3530bf96982fa5a9e0d8bad84d3587e51a33d332",
      "function": "safeMint(address,uint256)",
      "arguments": [
        "0xc917CC5330b0B9f4fDdd034a87B49047C2fd89E6",
        "5009"
      ],
      "transaction": {
        "from": "0x027a5ce58fc466d0e3a9d1990404354029398541",
        "to": "0x3530bf96982fa5a9e0d8bad84d3587e51a33d332",
        "gas": "0x1b958",
        "value": "0x0",
        "input": "0xa1448194000000000000000000000000c917cc5330b0b9f4fddd034a87b49047c2fd89e60000000000000000000000000000000000000000000000000000000000001391",
        "nonce": "0x1593",
        "chainId": "0x2105"
      },
      "additionalContracts": [],
      "isFixedGasLimit": false
    },
    {
      "hash": null,
      "transactionType": "CALL",
      "contractName": null,
      "contractAddress": "0x3530bf96982fa5a9e0d8bad84d3587e51a33d332",
      "function": "safeMint(address,uint256)",
      "arguments": [
        "0x6Db91D728422ecBaeaf39f04e7a9cA9d0C5450b9",
        "5010"
      ],
      "transaction": {
        "from": "0x027a5ce58fc466d0e3a9d1990404354029398541",
        "to": "0x3530bf96982fa5a9e0d8bad84d3587e51a33d332",
        "gas": "0x1b958",
        "value": "0x0",
        "input": "0xa14481940000000000000000000000006db91d728422ecbaeaf39f04e7a9ca9d0c5450b90000000000000000000000000000000000000000000000000000000000001392",
        "nonce": "0x1594",
        "chainId": "0x2105"
      },
      "additionalContracts": [],
      "isFixedGasLimit": false
    },
    {
      "hash": null,
      "transactionType": "CALL",
      "contractName": null,
      "contractAddress": "0x3530bf96982fa5a9e0d8bad84d3587e51a33d332",
      "function": "safeMint(address,uint256)",
      "arguments": [
        "0x7bF691192f3CA3922B01b9a03007Be096F83A3a1",
        "5011"
      ],
      "transaction": {
        "from": "0x027a5ce58fc466d0e3a9d1990404354029398541",
        "to": "0x3530bf96982fa5a9e0d8bad84d3587e51a33d332",
        "gas": "0x1b958",
        "value": "0x0",
        "input": "0xa14481940000000000000000000000007bf691192f3ca3922b01b9a03007be096f83a3a10000000000000000000000000000000000000000000000000000000000001393",
        "nonce": "0x1595",
        "chainId": "0x2105"
      },
      "additionalContracts": [],
      "isFixedGasLimit": false
    },
    {
      "hash": null,
      "transactionType": "CALL",
      "contractName": null,
      "contractAddress": "0x3530bf96982fa5a9e0d8bad84d3587e51a33d332",
      "function": "safeMint(address,uint256)",
      "arguments": [
        "0xDe5A1e220ecE3618Fc11e5f43db8EdC205f1f1E3",
        "5012"
      ],
      "transaction": {
        "from": "0x027a5ce58fc466d0e3a9d1990404354029398541",
        "to": "0x3530bf96982fa5a9e0d8bad84d3587e51a33d332",
        "gas": "0x1b958",
        "value": "0x0",
        "input": "0xa1448194000000000000000000000000de5a1e220ece3618fc11e5f43db8edc205f1f1e30000000000000000000000000000000000000000000000000000000000001394",
        "nonce": "0x1596",
        "chainId": "0x2105"
      },
      "additionalContracts": [],
      "isFixedGasLimit": false
    },
    {
      "hash": null,
      "transactionType": "CALL",
      "contractName": null,
      "contractAddress": "0x3530bf96982fa5a9e0d8bad84d3587e51a33d332",
      "function": "safeMint(address,uint256)",
      "arguments": [
        "0xEc3E301eADB65aEE6D58b6F19F0f52f7153fa078",
        "5013"
      ],
      "transaction": {
        "from": "0x027a5ce58fc466d0e3a9d1990404354029398541",
        "to": "0x3530bf96982fa5a9e0d8bad84d3587e51a33d332",
        "gas": "0x1b958",
        "value": "0x0",
        "input": "0xa1448194000000000000000000000000ec3e301eadb65aee6d58b6f19f0f52f7153fa0780000000000000000000000000000000000000000000000000000000000001395",
        "nonce": "0x1597",
        "chainId": "0x2105"
      },
      "additionalContracts": [],
      "isFixedGasLimit": false
    },
    {
      "hash": null,
      "transactionType": "CALL",
      "contractName": null,
      "contractAddress": "0x3530bf96982fa5a9e0d8bad84d3587e51a33d332",
      "function": "safeMint(address,uint256)",
      "arguments": [
        "0x1F906aB7Bd49059d29cac759Bc84f9008dBF4112",
        "5014"
      ],
      "transaction": {
        "from": "0x027a5ce58fc466d0e3a9d1990404354029398541",
        "to": "0x3530bf96982fa5a9e0d8bad84d3587e51a33d332",
        "gas": "0x1d33d",
        "value": "0x0",
        "input": "0xa14481940000000000000000000000001f906ab7bd49059d29cac759bc84f9008dbf41120000000000000000000000000000000000000000000000000000000000001396",
        "nonce": "0x1598",
        "chainId": "0x2105"
      },
      "additionalContracts": [],
      "isFixedGasLimit": false
    },
    {
      "hash": null,
      "transactionType": "CALL",
      "contractName": null,
      "contractAddress": "0x3530bf96982fa5a9e0d8bad84d3587e51a33d332",
      "function": "safeMint(address,uint256)",
      "arguments": [
        "0x155090d816581C3FB75DA2324B602D3eCe32bd27",
        "5015"
      ],
      "transaction": {
        "from": "0x027a5ce58fc466d0e3a9d1990404354029398541",
        "to": "0x3530bf96982fa5a9e0d8bad84d3587e51a33d332",
        "gas": "0x1b958",
        "value": "0x0",
        "input": "0xa1448194000000000000000000000000155090d816581c3fb75da2324b602d3ece32bd270000000000000000000000000000000000000000000000000000000000001397",
        "nonce": "0x1599",
        "chainId": "0x2105"
      },
      "additionalContracts": [],
      "isFixedGasLimit": false
    },
    {
      "hash": null,
      "transactionType": "CALL",
      "contractName": null,
      "contractAddress": "0x3530bf96982fa5a9e0d8bad84d3587e51a33d332",
      "function": "safeMint(address,uint256)",
      "arguments": [
        "0xDA82F4067fe4BCA7aa5B2607DBC4BcB39C92da68",
        "5016"
      ],
      "transaction": {
        "from": "0x027a5ce58fc466d0e3a9d1990404354029398541",
        "to": "0x3530bf96982fa5a9e0d8bad84d3587e51a33d332",
        "gas": "0x1b958",
        "value": "0x0",
        "input": "0xa1448194000000000000000000000000da82f4067fe4bca7aa5b2607dbc4bcb39c92da680000000000000000000000000000000000000000000000000000000000001398",
        "nonce": "0x159a",
        "chainId": "0x2105"
      },
      "additionalContracts": [],
      "isFixedGasLimit": false
    },
    {
      "hash": null,
      "transactionType": "CALL",
      "contractName": null,
      "contractAddress": "0x3530bf96982fa5a9e0d8bad84d3587e51a33d332",
      "function": "safeMint(address,uint256)",
      "arguments": [
        "0x381c94A065607144e022CA4Db1cb8AEE25C6aFeB",
        "5017"
      ],
      "transaction": {
        "from": "0x027a5ce58fc466d0e3a9d1990404354029398541",
        "to": "0x3530bf96982fa5a9e0d8bad84d3587e51a33d332",
        "gas": "0x1b958",
        "value": "0x0",
        "input": "0xa1448194000000000000000000000000381c94a065607144e022ca4db1cb8aee25c6afeb0000000000000000000000000000000000000000000000000000000000001399",
        "nonce": "0x159b",
        "chainId": "0x2105"
      },
      "additionalContracts": [],
      "isFixedGasLimit": false
    },
    {
      "hash": null,
      "transactionType": "CALL",
      "contractName": null,
      "contractAddress": "0x3530bf96982fa5a9e0d8bad84d3587e51a33d332",
      "function": "safeMint(address,uint256)",
      "arguments": [
        "0xdba1984CB29FA113B626A62aa975cf2a68A5568F",
        "5018"
      ],
      "transaction": {
        "from": "0x027a5ce58fc466d0e3a9d1990404354029398541",
        "to": "0x3530bf96982fa5a9e0d8bad84d3587e51a33d332",
        "gas": "0x1b958",
        "value": "0x0",
        "input": "0xa1448194000000000000000000000000dba1984cb29fa113b626a62aa975cf2a68a5568f000000000000000000000000000000000000000000000000000000000000139a",
        "nonce": "0x159c",
        "chainId": "0x2105"
      },
      "additionalContracts": [],
      "isFixedGasLimit": false
    },
    {
      "hash": null,
      "transactionType": "CALL",
      "contractName": null,
      "contractAddress": "0x3530bf96982fa5a9e0d8bad84d3587e51a33d332",
      "function": "safeMint(address,uint256)",
      "arguments": [
        "0x5dCd0191cD16853e41d4053347c3E7887e23a14C",
        "5019"
      ],
      "transaction": {
        "from": "0x027a5ce58fc466d0e3a9d1990404354029398541",
        "to": "0x3530bf96982fa5a9e0d8bad84d3587e51a33d332",
        "gas": "0x1b958",
        "value": "0x0",
        "input": "0xa14481940000000000000000000000005dcd0191cd16853e41d4053347c3e7887e23a14c000000000000000000000000000000000000000000000000000000000000139b",
        "nonce": "0x159d",
        "chainId": "0x2105"
      },
      "additionalContracts": [],
      "isFixedGasLimit": false
    },
    {
      "hash": null,
      "transactionType": "CALL",
      "contractName": null,
      "contractAddress": "0x3530bf96982fa5a9e0d8bad84d3587e51a33d332",
      "function": "safeMint(address,uint256)",
      "arguments": [
        "0xCD7c93CbC76a695c9459320cCAbd0c3663503Dcb",
        "5020"
      ],
      "transaction": {
        "from": "0x027a5ce58fc466d0e3a9d1990404354029398541",
        "to": "0x3530bf96982fa5a9e0d8bad84d3587e51a33d332",
        "gas": "0x1b958",
        "value": "0x0",
        "input": "0xa1448194000000000000000000000000cd7c93cbc76a695c9459320ccabd0c3663503dcb000000000000000000000000000000000000000000000000000000000000139c",
        "nonce": "0x159e",
        "chainId": "0x2105"
      },
      "additionalContracts": [],
      "isFixedGasLimit": false
    },
    {
      "hash": null,
      "transactionType": "CALL",
      "contractName": null,
      "contractAddress": "0x3530bf96982fa5a9e0d8bad84d3587e51a33d332",
      "function": "safeMint(address,uint256)",
      "arguments": [
        "0xf550D557471D70A06b2f423C94900d4673029b0e",
        "5021"
      ],
      "transaction": {
        "from": "0x027a5ce58fc466d0e3a9d1990404354029398541",
        "to": "0x3530bf96982fa5a9e0d8bad84d3587e51a33d332",
        "gas": "0x1b958",
        "value": "0x0",
        "input": "0xa1448194000000000000000000000000f550d557471d70a06b2f423c94900d4673029b0e000000000000000000000000000000000000000000000000000000000000139d",
        "nonce": "0x159f",
        "chainId": "0x2105"
      },
      "additionalContracts": [],
      "isFixedGasLimit": false
    },
    {
      "hash": null,
      "transactionType": "CALL",
      "contractName": null,
      "contractAddress": "0x3530bf96982fa5a9e0d8bad84d3587e51a33d332",
      "function": "safeMint(address,uint256)",
      "arguments": [
        "0x5ED82e910E272F0A8b90c00100CfBD08A6ED10eB",
        "5022"
      ],
      "transaction": {
        "from": "0x027a5ce58fc466d0e3a9d1990404354029398541",
        "to": "0x3530bf96982fa5a9e0d8bad84d3587e51a33d332",
        "gas": "0x1d33d",
        "value": "0x0",
        "input": "0xa14481940000000000000000000000005ed82e910e272f0a8b90c00100cfbd08a6ed10eb000000000000000000000000000000000000000000000000000000000000139e",
        "nonce": "0x15a0",
        "chainId": "0x2105"
      },
      "additionalContracts": [],
      "isFixedGasLimit": false
    },
    {
      "hash": null,
      "transactionType": "CALL",
      "contractName": null,
      "contractAddress": "0x3530bf96982fa5a9e0d8bad84d3587e51a33d332",
      "function": "safeMint(address,uint256)",
      "arguments": [
        "0x44335e2010a4a770ac89A646eB507ccb79faf4e8",
        "5023"
      ],
      "transaction": {
        "from": "0x027a5ce58fc466d0e3a9d1990404354029398541",
        "to": "0x3530bf96982fa5a9e0d8bad84d3587e51a33d332",
        "gas": "0x1b958",
        "value": "0x0",
        "input": "0xa144819400000000000000000000000044335e2010a4a770ac89a646eb507ccb79faf4e8000000000000000000000000000000000000000000000000000000000000139f",
        "nonce": "0x15a1",
        "chainId": "0x2105"
      },
      "additionalContracts": [],
      "isFixedGasLimit": false
    },
    {
      "hash": null,
      "transactionType": "CALL",
      "contractName": null,
      "contractAddress": "0x3530bf96982fa5a9e0d8bad84d3587e51a33d332",
      "function": "safeMint(address,uint256)",
      "arguments": [
        "0x5d20ddA1A24633075B9709E5977BF86e4EA5B962",
        "5024"
      ],
      "transaction": {
        "from": "0x027a5ce58fc466d0e3a9d1990404354029398541",
        "to": "0x3530bf96982fa5a9e0d8bad84d3587e51a33d332",
        "gas": "0x1b958",
        "value": "0x0",
        "input": "0xa14481940000000000000000000000005d20dda1a24633075b9709e5977bf86e4ea5b96200000000000000000000000000000000000000000000000000000000000013a0",
        "nonce": "0x15a2",
        "chainId": "0x2105"
      },
      "additionalContracts": [],
      "isFixedGasLimit": false
    },
    {
      "hash": null,
      "transactionType": "CALL",
      "contractName": null,
      "contractAddress": "0x3530bf96982fa5a9e0d8bad84d3587e51a33d332",
      "function": "safeMint(address,uint256)",
      "arguments": [
        "0x6357AD3A1C7a0e5E7f2253571353E039dFCF84dD",
        "5025"
      ],
      "transaction": {
        "from": "0x027a5ce58fc466d0e3a9d1990404354029398541",
        "to": "0x3530bf96982fa5a9e0d8bad84d3587e51a33d332",
        "gas": "0x1b958",
        "value": "0x0",
        "input": "0xa14481940000000000000000000000006357ad3a1c7a0e5e7f2253571353e039dfcf84dd00000000000000000000000000000000000000000000000000000000000013a1",
        "nonce": "0x15a3",
        "chainId": "0x2105"
      },
      "additionalContracts": [],
      "isFixedGasLimit": false
    },
    {
      "hash": null,
      "transactionType": "CALL",
      "contractName": null,
      "contractAddress": "0x3530bf96982fa5a9e0d8bad84d3587e51a33d332",
      "function": "safeMint(address,uint256)",
      "arguments": [
        "0xF06245EAc62137078f31b2c860321f2D1F74ed9e",
        "5026"
      ],
      "transaction": {
        "from": "0x027a5ce58fc466d0e3a9d1990404354029398541",
        "to": "0x3530bf96982fa5a9e0d8bad84d3587e51a33d332",
        "gas": "0x1b958",
        "value": "0x0",
        "input": "0xa1448194000000000000000000000000f06245eac62137078f31b2c860321f2d1f74ed9e00000000000000000000000000000000000000000000000000000000000013a2",
        "nonce": "0x15a4",
        "chainId": "0x2105"
      },
      "additionalContracts": [],
      "isFixedGasLimit": false
    },
    {
      "hash": null,
      "transactionType": "CALL",
      "contractName": null,
      "contractAddress": "0x3530bf96982fa5a9e0d8bad84d3587e51a33d332",
      "function": "safeMint(address,uint256)",
      "arguments": [
        "0xAE923D9D700248E394A375D3e83EB1b1f7464e95",
        "5027"
      ],
      "transaction": {
        "from": "0x027a5ce58fc466d0e3a9d1990404354029398541",
        "to": "0x3530bf96982fa5a9e0d8bad84d3587e51a33d332",
        "gas": "0x1b958",
        "value": "0x0",
        "input": "0xa1448194000000000000000000000000ae923d9d700248e394a375d3e83eb1b1f7464e9500000000000000000000000000000000000000000000000000000000000013a3",
        "nonce": "0x15a5",
        "chainId": "0x2105"
      },
      "additionalContracts": [],
      "isFixedGasLimit": false
    },
    {
      "hash": null,
      "transactionType": "CALL",
      "contractName": null,
      "contractAddress": "0x3530bf96982fa5a9e0d8bad84d3587e51a33d332",
      "function": "safeMint(address,uint256)",
      "arguments": [
        "0x759A4F022a5B9f4Ce6646Cf8F8b8D0dEdBf41345",
        "5028"
      ],
      "transaction": {
        "from": "0x027a5ce58fc466d0e3a9d1990404354029398541",
        "to": "0x3530bf96982fa5a9e0d8bad84d3587e51a33d332",
        "gas": "0x1b958",
        "value": "0x0",
        "input": "0xa1448194000000000000000000000000759a4f022a5b9f4ce6646cf8f8b8d0dedbf4134500000000000000000000000000000000000000000000000000000000000013a4",
        "nonce": "0x15a6",
        "chainId": "0x2105"
      },
      "additionalContracts": [],
      "isFixedGasLimit": false
    },
    {
      "hash": null,
      "transactionType": "CALL",
      "contractName": null,
      "contractAddress": "0x3530bf96982fa5a9e0d8bad84d3587e51a33d332",
      "function": "safeMint(address,uint256)",
      "arguments": [
        "0x4a11Be257491197De5F6E875078FfF134C86f716",
        "5029"
      ],
      "transaction": {
        "from": "0x027a5ce58fc466d0e3a9d1990404354029398541",
        "to": "0x3530bf96982fa5a9e0d8bad84d3587e51a33d332",
        "gas": "0x1b958",
        "value": "0x0",
        "input": "0xa14481940000000000000000000000004a11be257491197de5f6e875078fff134c86f71600000000000000000000000000000000000000000000000000000000000013a5",
        "nonce": "0x15a7",
        "chainId": "0x2105"
      },
      "additionalContracts": [],
      "isFixedGasLimit": false
    },
    {
      "hash": null,
      "transactionType": "CALL",
      "contractName": null,
      "contractAddress": "0x3530bf96982fa5a9e0d8bad84d3587e51a33d332",
      "function": "safeMint(address,uint256)",
      "arguments": [
        "0xfCa2C95e11dd9857E3442a2FcDaF8258C172451c",
        "5030"
      ],
      "transaction": {
        "from": "0x027a5ce58fc466d0e3a9d1990404354029398541",
        "to": "0x3530bf96982fa5a9e0d8bad84d3587e51a33d332",
        "gas": "0x1b958",
        "value": "0x0",
        "input": "0xa1448194000000000000000000000000fca2c95e11dd9857e3442a2fcdaf8258c172451c00000000000000000000000000000000000000000000000000000000000013a6",
        "nonce": "0x15a8",
        "chainId": "0x2105"
      },
      "additionalContracts": [],
      "isFixedGasLimit": false
    },
    {
      "hash": null,
      "transactionType": "CALL",
      "contractName": null,
      "contractAddress": "0x3530bf96982fa5a9e0d8bad84d3587e51a33d332",
      "function": "safeMint(address,uint256)",
      "arguments": [
        "0x9027539B029e3E11e4b0Bb52c442116d15Eb13eC",
        "5031"
      ],
      "transaction": {
        "from": "0x027a5ce58fc466d0e3a9d1990404354029398541",
        "to": "0x3530bf96982fa5a9e0d8bad84d3587e51a33d332",
        "gas": "0x1b958",
        "value": "0x0",
        "input": "0xa14481940000000000000000000000009027539b029e3e11e4b0bb52c442116d15eb13ec00000000000000000000000000000000000000000000000000000000000013a7",
        "nonce": "0x15a9",
        "chainId": "0x2105"
      },
      "additionalContracts": [],
      "isFixedGasLimit": false
    },
    {
      "hash": null,
      "transactionType": "CALL",
      "contractName": null,
      "contractAddress": "0x3530bf96982fa5a9e0d8bad84d3587e51a33d332",
      "function": "safeMint(address,uint256)",
      "arguments": [
        "0xd1548A3139441A95F11060891067F01623F828dF",
        "5032"
      ],
      "transaction": {
        "from": "0x027a5ce58fc466d0e3a9d1990404354029398541",
        "to": "0x3530bf96982fa5a9e0d8bad84d3587e51a33d332",
        "gas": "0x1b958",
        "value": "0x0",
        "input": "0xa1448194000000000000000000000000d1548a3139441a95f11060891067f01623f828df00000000000000000000000000000000000000000000000000000000000013a8",
        "nonce": "0x15aa",
        "chainId": "0x2105"
      },
      "additionalContracts": [],
      "isFixedGasLimit": false
    },
    {
      "hash": null,
      "transactionType": "CALL",
      "contractName": null,
      "contractAddress": "0x3530bf96982fa5a9e0d8bad84d3587e51a33d332",
      "function": "safeMint(address,uint256)",
      "arguments": [
        "0x89eEff9b056912541dCd1EC4F8c062BA3CBedeF6",
        "5033"
      ],
      "transaction": {
        "from": "0x027a5ce58fc466d0e3a9d1990404354029398541",
        "to": "0x3530bf96982fa5a9e0d8bad84d3587e51a33d332",
        "gas": "0x1b958",
        "value": "0x0",
        "input": "0xa144819400000000000000000000000089eeff9b056912541dcd1ec4f8c062ba3cbedef600000000000000000000000000000000000000000000000000000000000013a9",
        "nonce": "0x15ab",
        "chainId": "0x2105"
      },
      "additionalContracts": [],
      "isFixedGasLimit": false
    },
    {
      "hash": null,
      "transactionType": "CALL",
      "contractName": null,
      "contractAddress": "0x3530bf96982fa5a9e0d8bad84d3587e51a33d332",
      "function": "safeMint(address,uint256)",
      "arguments": [
        "0x4D1886100C052Df76C7CfCE35f36f10702f6D290",
        "5034"
      ],
      "transaction": {
        "from": "0x027a5ce58fc466d0e3a9d1990404354029398541",
        "to": "0x3530bf96982fa5a9e0d8bad84d3587e51a33d332",
        "gas": "0x1b958",
        "value": "0x0",
        "input": "0xa14481940000000000000000000000004d1886100c052df76c7cfce35f36f10702f6d29000000000000000000000000000000000000000000000000000000000000013aa",
        "nonce": "0x15ac",
        "chainId": "0x2105"
      },
      "additionalContracts": [],
      "isFixedGasLimit": false
    },
    {
      "hash": null,
      "transactionType": "CALL",
      "contractName": null,
      "contractAddress": "0x3530bf96982fa5a9e0d8bad84d3587e51a33d332",
      "function": "safeMint(address,uint256)",
      "arguments": [
        "0xCf456852c6f05E4719A752Af89F200bC6e96FEd9",
        "5035"
      ],
      "transaction": {
        "from": "0x027a5ce58fc466d0e3a9d1990404354029398541",
        "to": "0x3530bf96982fa5a9e0d8bad84d3587e51a33d332",
        "gas": "0x1d33d",
        "value": "0x0",
        "input": "0xa1448194000000000000000000000000cf456852c6f05e4719a752af89f200bc6e96fed900000000000000000000000000000000000000000000000000000000000013ab",
        "nonce": "0x15ad",
        "chainId": "0x2105"
      },
      "additionalContracts": [],
      "isFixedGasLimit": false
    },
    {
      "hash": null,
      "transactionType": "CALL",
      "contractName": null,
      "contractAddress": "0x3530bf96982fa5a9e0d8bad84d3587e51a33d332",
      "function": "safeMint(address,uint256)",
      "arguments": [
        "0xD30f64791A4418977f02DF77f5489F797903b7F1",
        "5036"
      ],
      "transaction": {
        "from": "0x027a5ce58fc466d0e3a9d1990404354029398541",
        "to": "0x3530bf96982fa5a9e0d8bad84d3587e51a33d332",
        "gas": "0x1b958",
        "value": "0x0",
        "input": "0xa1448194000000000000000000000000d30f64791a4418977f02df77f5489f797903b7f100000000000000000000000000000000000000000000000000000000000013ac",
        "nonce": "0x15ae",
        "chainId": "0x2105"
      },
      "additionalContracts": [],
      "isFixedGasLimit": false
    },
    {
      "hash": null,
      "transactionType": "CALL",
      "contractName": null,
      "contractAddress": "0x3530bf96982fa5a9e0d8bad84d3587e51a33d332",
      "function": "safeMint(address,uint256)",
      "arguments": [
        "0x64575e5d744bf67cb7320d145c8Ed5D7193dBa05",
        "5037"
      ],
      "transaction": {
        "from": "0x027a5ce58fc466d0e3a9d1990404354029398541",
        "to": "0x3530bf96982fa5a9e0d8bad84d3587e51a33d332",
        "gas": "0x1b958",
        "value": "0x0",
        "input": "0xa144819400000000000000000000000064575e5d744bf67cb7320d145c8ed5d7193dba0500000000000000000000000000000000000000000000000000000000000013ad",
        "nonce": "0x15af",
        "chainId": "0x2105"
      },
      "additionalContracts": [],
      "isFixedGasLimit": false
    },
    {
      "hash": null,
      "transactionType": "CALL",
      "contractName": null,
      "contractAddress": "0x3530bf96982fa5a9e0d8bad84d3587e51a33d332",
      "function": "safeMint(address,uint256)",
      "arguments": [
        "0x2369C621Ec0fAd8d1ec9d48D55b34695a01F730E",
        "5038"
      ],
      "transaction": {
        "from": "0x027a5ce58fc466d0e3a9d1990404354029398541",
        "to": "0x3530bf96982fa5a9e0d8bad84d3587e51a33d332",
        "gas": "0x1b958",
        "value": "0x0",
        "input": "0xa14481940000000000000000000000002369c621ec0fad8d1ec9d48d55b34695a01f730e00000000000000000000000000000000000000000000000000000000000013ae",
        "nonce": "0x15b0",
        "chainId": "0x2105"
      },
      "additionalContracts": [],
      "isFixedGasLimit": false
    },
    {
      "hash": null,
      "transactionType": "CALL",
      "contractName": null,
      "contractAddress": "0x3530bf96982fa5a9e0d8bad84d3587e51a33d332",
      "function": "safeMint(address,uint256)",
      "arguments": [
        "0x690A3b44ECa78742149B805065de59A305867F7e",
        "5039"
      ],
      "transaction": {
        "from": "0x027a5ce58fc466d0e3a9d1990404354029398541",
        "to": "0x3530bf96982fa5a9e0d8bad84d3587e51a33d332",
        "gas": "0x1b958",
        "value": "0x0",
        "input": "0xa1448194000000000000000000000000690a3b44eca78742149b805065de59a305867f7e00000000000000000000000000000000000000000000000000000000000013af",
        "nonce": "0x15b1",
        "chainId": "0x2105"
      },
      "additionalContracts": [],
      "isFixedGasLimit": false
    },
    {
      "hash": null,
      "transactionType": "CALL",
      "contractName": null,
      "contractAddress": "0x3530bf96982fa5a9e0d8bad84d3587e51a33d332",
      "function": "safeMint(address,uint256)",
      "arguments": [
        "0x0FE7294e808ff386DE33B9A1963e2e941DE29b31",
        "5040"
      ],
      "transaction": {
        "from": "0x027a5ce58fc466d0e3a9d1990404354029398541",
        "to": "0x3530bf96982fa5a9e0d8bad84d3587e51a33d332",
        "gas": "0x1b958",
        "value": "0x0",
        "input": "0xa14481940000000000000000000000000fe7294e808ff386de33b9a1963e2e941de29b3100000000000000000000000000000000000000000000000000000000000013b0",
        "nonce": "0x15b2",
        "chainId": "0x2105"
      },
      "additionalContracts": [],
      "isFixedGasLimit": false
    },
    {
      "hash": null,
      "transactionType": "CALL",
      "contractName": null,
      "contractAddress": "0x3530bf96982fa5a9e0d8bad84d3587e51a33d332",
      "function": "safeMint(address,uint256)",
      "arguments": [
        "0xbB14599128c11C9c57749ebd37C9CBfe87A77b51",
        "5041"
      ],
      "transaction": {
        "from": "0x027a5ce58fc466d0e3a9d1990404354029398541",
        "to": "0x3530bf96982fa5a9e0d8bad84d3587e51a33d332",
        "gas": "0x1b958",
        "value": "0x0",
        "input": "0xa1448194000000000000000000000000bb14599128c11c9c57749ebd37c9cbfe87a77b5100000000000000000000000000000000000000000000000000000000000013b1",
        "nonce": "0x15b3",
        "chainId": "0x2105"
      },
      "additionalContracts": [],
      "isFixedGasLimit": false
    },
    {
      "hash": null,
      "transactionType": "CALL",
      "contractName": null,
      "contractAddress": "0x3530bf96982fa5a9e0d8bad84d3587e51a33d332",
      "function": "safeMint(address,uint256)",
      "arguments": [
        "0xa588Dd121d206b0E68c848ac7DE5d9Ab6b1F6eFd",
        "5042"
      ],
      "transaction": {
        "from": "0x027a5ce58fc466d0e3a9d1990404354029398541",
        "to": "0x3530bf96982fa5a9e0d8bad84d3587e51a33d332",
        "gas": "0x1b958",
        "value": "0x0",
        "input": "0xa1448194000000000000000000000000a588dd121d206b0e68c848ac7de5d9ab6b1f6efd00000000000000000000000000000000000000000000000000000000000013b2",
        "nonce": "0x15b4",
        "chainId": "0x2105"
      },
      "additionalContracts": [],
      "isFixedGasLimit": false
    },
    {
      "hash": null,
      "transactionType": "CALL",
      "contractName": null,
      "contractAddress": "0x3530bf96982fa5a9e0d8bad84d3587e51a33d332",
      "function": "safeMint(address,uint256)",
      "arguments": [
        "0x296331b10E46f603661502F2b2Ebc8117F250B16",
        "5043"
      ],
      "transaction": {
        "from": "0x027a5ce58fc466d0e3a9d1990404354029398541",
        "to": "0x3530bf96982fa5a9e0d8bad84d3587e51a33d332",
        "gas": "0x1b958",
        "value": "0x0",
        "input": "0xa1448194000000000000000000000000296331b10e46f603661502f2b2ebc8117f250b1600000000000000000000000000000000000000000000000000000000000013b3",
        "nonce": "0x15b5",
        "chainId": "0x2105"
      },
      "additionalContracts": [],
      "isFixedGasLimit": false
    },
    {
      "hash": null,
      "transactionType": "CALL",
      "contractName": null,
      "contractAddress": "0x3530bf96982fa5a9e0d8bad84d3587e51a33d332",
      "function": "safeMint(address,uint256)",
      "arguments": [
        "0xfaB0c5B7DB16402823A3d0Ef4e6DD01DaF38ac58",
        "5044"
      ],
      "transaction": {
        "from": "0x027a5ce58fc466d0e3a9d1990404354029398541",
        "to": "0x3530bf96982fa5a9e0d8bad84d3587e51a33d332",
        "gas": "0x1b958",
        "value": "0x0",
        "input": "0xa1448194000000000000000000000000fab0c5b7db16402823a3d0ef4e6dd01daf38ac5800000000000000000000000000000000000000000000000000000000000013b4",
        "nonce": "0x15b6",
        "chainId": "0x2105"
      },
      "additionalContracts": [],
      "isFixedGasLimit": false
    },
    {
      "hash": null,
      "transactionType": "CALL",
      "contractName": null,
      "contractAddress": "0x3530bf96982fa5a9e0d8bad84d3587e51a33d332",
      "function": "safeMint(address,uint256)",
      "arguments": [
        "0x23cf8cb1A17A428F620446383538D6Cd5672C526",
        "5045"
      ],
      "transaction": {
        "from": "0x027a5ce58fc466d0e3a9d1990404354029398541",
        "to": "0x3530bf96982fa5a9e0d8bad84d3587e51a33d332",
        "gas": "0x1b958",
        "value": "0x0",
        "input": "0xa144819400000000000000000000000023cf8cb1a17a428f620446383538d6cd5672c52600000000000000000000000000000000000000000000000000000000000013b5",
        "nonce": "0x15b7",
        "chainId": "0x2105"
      },
      "additionalContracts": [],
      "isFixedGasLimit": false
    },
    {
      "hash": null,
      "transactionType": "CALL",
      "contractName": null,
      "contractAddress": "0x3530bf96982fa5a9e0d8bad84d3587e51a33d332",
      "function": "safeMint(address,uint256)",
      "arguments": [
        "0x455dE6d7FE6EAb30EBC79B1bC7e316Fbe10Bbe10",
        "5046"
      ],
      "transaction": {
        "from": "0x027a5ce58fc466d0e3a9d1990404354029398541",
        "to": "0x3530bf96982fa5a9e0d8bad84d3587e51a33d332",
        "gas": "0x1b958",
        "value": "0x0",
        "input": "0xa1448194000000000000000000000000455de6d7fe6eab30ebc79b1bc7e316fbe10bbe1000000000000000000000000000000000000000000000000000000000000013b6",
        "nonce": "0x15b8",
        "chainId": "0x2105"
      },
      "additionalContracts": [],
      "isFixedGasLimit": false
    },
    {
      "hash": null,
      "transactionType": "CALL",
      "contractName": null,
      "contractAddress": "0x3530bf96982fa5a9e0d8bad84d3587e51a33d332",
      "function": "safeMint(address,uint256)",
      "arguments": [
        "0x04555776f5CBaB5974058a59E12B002453c4a9Cc",
        "5047"
      ],
      "transaction": {
        "from": "0x027a5ce58fc466d0e3a9d1990404354029398541",
        "to": "0x3530bf96982fa5a9e0d8bad84d3587e51a33d332",
        "gas": "0x1d33d",
        "value": "0x0",
        "input": "0xa144819400000000000000000000000004555776f5cbab5974058a59e12b002453c4a9cc00000000000000000000000000000000000000000000000000000000000013b7",
        "nonce": "0x15b9",
        "chainId": "0x2105"
      },
      "additionalContracts": [],
      "isFixedGasLimit": false
    },
    {
      "hash": null,
      "transactionType": "CALL",
      "contractName": null,
      "contractAddress": "0x3530bf96982fa5a9e0d8bad84d3587e51a33d332",
      "function": "safeMint(address,uint256)",
      "arguments": [
        "0xB0Dbb7De6238fd699C1733659DF96d376747d56D",
        "5048"
      ],
      "transaction": {
        "from": "0x027a5ce58fc466d0e3a9d1990404354029398541",
        "to": "0x3530bf96982fa5a9e0d8bad84d3587e51a33d332",
        "gas": "0x1b958",
        "value": "0x0",
        "input": "0xa1448194000000000000000000000000b0dbb7de6238fd699c1733659df96d376747d56d00000000000000000000000000000000000000000000000000000000000013b8",
        "nonce": "0x15ba",
        "chainId": "0x2105"
      },
      "additionalContracts": [],
      "isFixedGasLimit": false
    },
    {
      "hash": null,
      "transactionType": "CALL",
      "contractName": null,
      "contractAddress": "0x3530bf96982fa5a9e0d8bad84d3587e51a33d332",
      "function": "safeMint(address,uint256)",
      "arguments": [
        "0xE7E6eef65A8a3A60b6A796e24B1BFcD0146d0Ee7",
        "5049"
      ],
      "transaction": {
        "from": "0x027a5ce58fc466d0e3a9d1990404354029398541",
        "to": "0x3530bf96982fa5a9e0d8bad84d3587e51a33d332",
        "gas": "0x1b958",
        "value": "0x0",
        "input": "0xa1448194000000000000000000000000e7e6eef65a8a3a60b6a796e24b1bfcd0146d0ee700000000000000000000000000000000000000000000000000000000000013b9",
        "nonce": "0x15bb",
        "chainId": "0x2105"
      },
      "additionalContracts": [],
      "isFixedGasLimit": false
    },
    {
      "hash": null,
      "transactionType": "CALL",
      "contractName": null,
      "contractAddress": "0x3530bf96982fa5a9e0d8bad84d3587e51a33d332",
      "function": "safeMint(address,uint256)",
      "arguments": [
        "0xb4aaee6D4BD74085f1492E489c272581d0C9B792",
        "5050"
      ],
      "transaction": {
        "from": "0x027a5ce58fc466d0e3a9d1990404354029398541",
        "to": "0x3530bf96982fa5a9e0d8bad84d3587e51a33d332",
        "gas": "0x1b958",
        "value": "0x0",
        "input": "0xa1448194000000000000000000000000b4aaee6d4bd74085f1492e489c272581d0c9b79200000000000000000000000000000000000000000000000000000000000013ba",
        "nonce": "0x15bc",
        "chainId": "0x2105"
      },
      "additionalContracts": [],
      "isFixedGasLimit": false
    },
    {
      "hash": null,
      "transactionType": "CALL",
      "contractName": null,
      "contractAddress": "0x3530bf96982fa5a9e0d8bad84d3587e51a33d332",
      "function": "safeMint(address,uint256)",
      "arguments": [
        "0xC7d9881642746eB778B6866150954D2f4da0cE8b",
        "5051"
      ],
      "transaction": {
        "from": "0x027a5ce58fc466d0e3a9d1990404354029398541",
        "to": "0x3530bf96982fa5a9e0d8bad84d3587e51a33d332",
        "gas": "0x1b958",
        "value": "0x0",
        "input": "0xa1448194000000000000000000000000c7d9881642746eb778b6866150954d2f4da0ce8b00000000000000000000000000000000000000000000000000000000000013bb",
        "nonce": "0x15bd",
        "chainId": "0x2105"
      },
      "additionalContracts": [],
      "isFixedGasLimit": false
    },
    {
      "hash": null,
      "transactionType": "CALL",
      "contractName": null,
      "contractAddress": "0x3530bf96982fa5a9e0d8bad84d3587e51a33d332",
      "function": "safeMint(address,uint256)",
      "arguments": [
        "0xe6081D3D4605402bF031f55D8DA5472064c4CEba",
        "5052"
      ],
      "transaction": {
        "from": "0x027a5ce58fc466d0e3a9d1990404354029398541",
        "to": "0x3530bf96982fa5a9e0d8bad84d3587e51a33d332",
        "gas": "0x1b958",
        "value": "0x0",
        "input": "0xa1448194000000000000000000000000e6081d3d4605402bf031f55d8da5472064c4ceba00000000000000000000000000000000000000000000000000000000000013bc",
        "nonce": "0x15be",
        "chainId": "0x2105"
      },
      "additionalContracts": [],
      "isFixedGasLimit": false
    },
    {
      "hash": null,
      "transactionType": "CALL",
      "contractName": null,
      "contractAddress": "0x3530bf96982fa5a9e0d8bad84d3587e51a33d332",
      "function": "safeMint(address,uint256)",
      "arguments": [
        "0xA9155AaC94181e96329101228491e665952B4D07",
        "5053"
      ],
      "transaction": {
        "from": "0x027a5ce58fc466d0e3a9d1990404354029398541",
        "to": "0x3530bf96982fa5a9e0d8bad84d3587e51a33d332",
        "gas": "0x1b958",
        "value": "0x0",
        "input": "0xa1448194000000000000000000000000a9155aac94181e96329101228491e665952b4d0700000000000000000000000000000000000000000000000000000000000013bd",
        "nonce": "0x15bf",
        "chainId": "0x2105"
      },
      "additionalContracts": [],
      "isFixedGasLimit": false
    },
    {
      "hash": null,
      "transactionType": "CALL",
      "contractName": null,
      "contractAddress": "0x3530bf96982fa5a9e0d8bad84d3587e51a33d332",
      "function": "safeMint(address,uint256)",
      "arguments": [
        "0x077697813B61b0532247532B60002Ff271d2F928",
        "5054"
      ],
      "transaction": {
        "from": "0x027a5ce58fc466d0e3a9d1990404354029398541",
        "to": "0x3530bf96982fa5a9e0d8bad84d3587e51a33d332",
        "gas": "0x1d33d",
        "value": "0x0",
        "input": "0xa1448194000000000000000000000000077697813b61b0532247532b60002ff271d2f92800000000000000000000000000000000000000000000000000000000000013be",
        "nonce": "0x15c0",
        "chainId": "0x2105"
      },
      "additionalContracts": [],
      "isFixedGasLimit": false
    },
    {
      "hash": null,
      "transactionType": "CALL",
      "contractName": null,
      "contractAddress": "0x3530bf96982fa5a9e0d8bad84d3587e51a33d332",
      "function": "safeMint(address,uint256)",
      "arguments": [
        "0xad15458B5Ac989dF2724c0AA42819F889073b91F",
        "5055"
      ],
      "transaction": {
        "from": "0x027a5ce58fc466d0e3a9d1990404354029398541",
        "to": "0x3530bf96982fa5a9e0d8bad84d3587e51a33d332",
        "gas": "0x1b958",
        "value": "0x0",
        "input": "0xa1448194000000000000000000000000ad15458b5ac989df2724c0aa42819f889073b91f00000000000000000000000000000000000000000000000000000000000013bf",
        "nonce": "0x15c1",
        "chainId": "0x2105"
      },
      "additionalContracts": [],
      "isFixedGasLimit": false
    },
    {
      "hash": null,
      "transactionType": "CALL",
      "contractName": null,
      "contractAddress": "0x3530bf96982fa5a9e0d8bad84d3587e51a33d332",
      "function": "safeMint(address,uint256)",
      "arguments": [
        "0x8B7c12Fd2119EeA7ee23CFb24cE4F417854957c9",
        "5056"
      ],
      "transaction": {
        "from": "0x027a5ce58fc466d0e3a9d1990404354029398541",
        "to": "0x3530bf96982fa5a9e0d8bad84d3587e51a33d332",
        "gas": "0x1b958",
        "value": "0x0",
        "input": "0xa14481940000000000000000000000008b7c12fd2119eea7ee23cfb24ce4f417854957c900000000000000000000000000000000000000000000000000000000000013c0",
        "nonce": "0x15c2",
        "chainId": "0x2105"
      },
      "additionalContracts": [],
      "isFixedGasLimit": false
    },
    {
      "hash": null,
      "transactionType": "CALL",
      "contractName": null,
      "contractAddress": "0x3530bf96982fa5a9e0d8bad84d3587e51a33d332",
      "function": "safeMint(address,uint256)",
      "arguments": [
        "0x49F71009717Ca98997264aA7120d79e53FE25A9b",
        "5057"
      ],
      "transaction": {
        "from": "0x027a5ce58fc466d0e3a9d1990404354029398541",
        "to": "0x3530bf96982fa5a9e0d8bad84d3587e51a33d332",
        "gas": "0x1b958",
        "value": "0x0",
        "input": "0xa144819400000000000000000000000049f71009717ca98997264aa7120d79e53fe25a9b00000000000000000000000000000000000000000000000000000000000013c1",
        "nonce": "0x15c3",
        "chainId": "0x2105"
      },
      "additionalContracts": [],
      "isFixedGasLimit": false
    },
    {
      "hash": null,
      "transactionType": "CALL",
      "contractName": null,
      "contractAddress": "0x3530bf96982fa5a9e0d8bad84d3587e51a33d332",
      "function": "safeMint(address,uint256)",
      "arguments": [
        "0x2488e7b087F1C92b2B69aC3A8D33Bf8902AdB9b0",
        "5058"
      ],
      "transaction": {
        "from": "0x027a5ce58fc466d0e3a9d1990404354029398541",
        "to": "0x3530bf96982fa5a9e0d8bad84d3587e51a33d332",
        "gas": "0x1b958",
        "value": "0x0",
        "input": "0xa14481940000000000000000000000002488e7b087f1c92b2b69ac3a8d33bf8902adb9b000000000000000000000000000000000000000000000000000000000000013c2",
        "nonce": "0x15c4",
        "chainId": "0x2105"
      },
      "additionalContracts": [],
      "isFixedGasLimit": false
    },
    {
      "hash": null,
      "transactionType": "CALL",
      "contractName": null,
      "contractAddress": "0x3530bf96982fa5a9e0d8bad84d3587e51a33d332",
      "function": "safeMint(address,uint256)",
      "arguments": [
        "0x96EB2fF984a94d5F104dC89bd9B4e3494187C7dA",
        "5059"
      ],
      "transaction": {
        "from": "0x027a5ce58fc466d0e3a9d1990404354029398541",
        "to": "0x3530bf96982fa5a9e0d8bad84d3587e51a33d332",
        "gas": "0x1b958",
        "value": "0x0",
        "input": "0xa144819400000000000000000000000096eb2ff984a94d5f104dc89bd9b4e3494187c7da00000000000000000000000000000000000000000000000000000000000013c3",
        "nonce": "0x15c5",
        "chainId": "0x2105"
      },
      "additionalContracts": [],
      "isFixedGasLimit": false
    },
    {
      "hash": null,
      "transactionType": "CALL",
      "contractName": null,
      "contractAddress": "0x3530bf96982fa5a9e0d8bad84d3587e51a33d332",
      "function": "safeMint(address,uint256)",
      "arguments": [
        "0x81Ae4C29fAd49C1D2a13e5CAEe7ad04652688165",
        "5060"
      ],
      "transaction": {
        "from": "0x027a5ce58fc466d0e3a9d1990404354029398541",
        "to": "0x3530bf96982fa5a9e0d8bad84d3587e51a33d332",
        "gas": "0x1b958",
        "value": "0x0",
        "input": "0xa144819400000000000000000000000081ae4c29fad49c1d2a13e5caee7ad0465268816500000000000000000000000000000000000000000000000000000000000013c4",
        "nonce": "0x15c6",
        "chainId": "0x2105"
      },
      "additionalContracts": [],
      "isFixedGasLimit": false
    },
    {
      "hash": null,
      "transactionType": "CALL",
      "contractName": null,
      "contractAddress": "0x3530bf96982fa5a9e0d8bad84d3587e51a33d332",
      "function": "safeMint(address,uint256)",
      "arguments": [
        "0x15aF03905b02a95E614A0b024B124f21aE312530",
        "5061"
      ],
      "transaction": {
        "from": "0x027a5ce58fc466d0e3a9d1990404354029398541",
        "to": "0x3530bf96982fa5a9e0d8bad84d3587e51a33d332",
        "gas": "0x1b958",
        "value": "0x0",
        "input": "0xa144819400000000000000000000000015af03905b02a95e614a0b024b124f21ae31253000000000000000000000000000000000000000000000000000000000000013c5",
        "nonce": "0x15c7",
        "chainId": "0x2105"
      },
      "additionalContracts": [],
      "isFixedGasLimit": false
    },
    {
      "hash": null,
      "transactionType": "CALL",
      "contractName": null,
      "contractAddress": "0x3530bf96982fa5a9e0d8bad84d3587e51a33d332",
      "function": "safeMint(address,uint256)",
      "arguments": [
        "0x5c151eA137E433ad21f60dA3Ef50F32f15C30B4d",
        "5062"
      ],
      "transaction": {
        "from": "0x027a5ce58fc466d0e3a9d1990404354029398541",
        "to": "0x3530bf96982fa5a9e0d8bad84d3587e51a33d332",
        "gas": "0x1b958",
        "value": "0x0",
        "input": "0xa14481940000000000000000000000005c151ea137e433ad21f60da3ef50f32f15c30b4d00000000000000000000000000000000000000000000000000000000000013c6",
        "nonce": "0x15c8",
        "chainId": "0x2105"
      },
      "additionalContracts": [],
      "isFixedGasLimit": false
    },
    {
      "hash": null,
      "transactionType": "CALL",
      "contractName": null,
      "contractAddress": "0x3530bf96982fa5a9e0d8bad84d3587e51a33d332",
      "function": "safeMint(address,uint256)",
      "arguments": [
        "0x91C655AaF3E183C77c34F9BaBcc694fFa4c17e14",
        "5063"
      ],
      "transaction": {
        "from": "0x027a5ce58fc466d0e3a9d1990404354029398541",
        "to": "0x3530bf96982fa5a9e0d8bad84d3587e51a33d332",
        "gas": "0x1b958",
        "value": "0x0",
        "input": "0xa144819400000000000000000000000091c655aaf3e183c77c34f9babcc694ffa4c17e1400000000000000000000000000000000000000000000000000000000000013c7",
        "nonce": "0x15c9",
        "chainId": "0x2105"
      },
      "additionalContracts": [],
      "isFixedGasLimit": false
    },
    {
      "hash": null,
      "transactionType": "CALL",
      "contractName": null,
      "contractAddress": "0x3530bf96982fa5a9e0d8bad84d3587e51a33d332",
      "function": "safeMint(address,uint256)",
      "arguments": [
        "0xE578C501B4a51741b39d390f6583e2dc871fA78d",
        "5064"
      ],
      "transaction": {
        "from": "0x027a5ce58fc466d0e3a9d1990404354029398541",
        "to": "0x3530bf96982fa5a9e0d8bad84d3587e51a33d332",
        "gas": "0x1b958",
        "value": "0x0",
        "input": "0xa1448194000000000000000000000000e578c501b4a51741b39d390f6583e2dc871fa78d00000000000000000000000000000000000000000000000000000000000013c8",
        "nonce": "0x15ca",
        "chainId": "0x2105"
      },
      "additionalContracts": [],
      "isFixedGasLimit": false
    },
    {
      "hash": null,
      "transactionType": "CALL",
      "contractName": null,
      "contractAddress": "0x3530bf96982fa5a9e0d8bad84d3587e51a33d332",
      "function": "safeMint(address,uint256)",
      "arguments": [
        "0x36a648FdcAb3B811030CD839315bBC71e692984f",
        "5065"
      ],
      "transaction": {
        "from": "0x027a5ce58fc466d0e3a9d1990404354029398541",
        "to": "0x3530bf96982fa5a9e0d8bad84d3587e51a33d332",
        "gas": "0x1b958",
        "value": "0x0",
        "input": "0xa144819400000000000000000000000036a648fdcab3b811030cd839315bbc71e692984f00000000000000000000000000000000000000000000000000000000000013c9",
        "nonce": "0x15cb",
        "chainId": "0x2105"
      },
      "additionalContracts": [],
      "isFixedGasLimit": false
    },
    {
      "hash": null,
      "transactionType": "CALL",
      "contractName": null,
      "contractAddress": "0x3530bf96982fa5a9e0d8bad84d3587e51a33d332",
      "function": "safeMint(address,uint256)",
      "arguments": [
        "0x820aaE697f6Cb588646CdbBA4487c3271B74c353",
        "5066"
      ],
      "transaction": {
        "from": "0x027a5ce58fc466d0e3a9d1990404354029398541",
        "to": "0x3530bf96982fa5a9e0d8bad84d3587e51a33d332",
        "gas": "0x1b958",
        "value": "0x0",
        "input": "0xa1448194000000000000000000000000820aae697f6cb588646cdbba4487c3271b74c35300000000000000000000000000000000000000000000000000000000000013ca",
        "nonce": "0x15cc",
        "chainId": "0x2105"
      },
      "additionalContracts": [],
      "isFixedGasLimit": false
    },
    {
      "hash": null,
      "transactionType": "CALL",
      "contractName": null,
      "contractAddress": "0x3530bf96982fa5a9e0d8bad84d3587e51a33d332",
      "function": "safeMint(address,uint256)",
      "arguments": [
        "0x596C3dF256F1839744efc29C5F22cAfC36048071",
        "5067"
      ],
      "transaction": {
        "from": "0x027a5ce58fc466d0e3a9d1990404354029398541",
        "to": "0x3530bf96982fa5a9e0d8bad84d3587e51a33d332",
        "gas": "0x1b958",
        "value": "0x0",
        "input": "0xa1448194000000000000000000000000596c3df256f1839744efc29c5f22cafc3604807100000000000000000000000000000000000000000000000000000000000013cb",
        "nonce": "0x15cd",
        "chainId": "0x2105"
      },
      "additionalContracts": [],
      "isFixedGasLimit": false
    },
    {
      "hash": null,
      "transactionType": "CALL",
      "contractName": null,
      "contractAddress": "0x3530bf96982fa5a9e0d8bad84d3587e51a33d332",
      "function": "safeMint(address,uint256)",
      "arguments": [
        "0xfE57b767bd580c29CFDAfC66e6E175a45E0096a0",
        "5068"
      ],
      "transaction": {
        "from": "0x027a5ce58fc466d0e3a9d1990404354029398541",
        "to": "0x3530bf96982fa5a9e0d8bad84d3587e51a33d332",
        "gas": "0x1d33d",
        "value": "0x0",
        "input": "0xa1448194000000000000000000000000fe57b767bd580c29cfdafc66e6e175a45e0096a000000000000000000000000000000000000000000000000000000000000013cc",
        "nonce": "0x15ce",
        "chainId": "0x2105"
      },
      "additionalContracts": [],
      "isFixedGasLimit": false
    },
    {
      "hash": null,
      "transactionType": "CALL",
      "contractName": null,
      "contractAddress": "0x3530bf96982fa5a9e0d8bad84d3587e51a33d332",
      "function": "safeMint(address,uint256)",
      "arguments": [
        "0x11fb8D0f2601cAEd5e680d1384a7208cf54360D7",
        "5069"
      ],
      "transaction": {
        "from": "0x027a5ce58fc466d0e3a9d1990404354029398541",
        "to": "0x3530bf96982fa5a9e0d8bad84d3587e51a33d332",
        "gas": "0x1b958",
        "value": "0x0",
        "input": "0xa144819400000000000000000000000011fb8d0f2601caed5e680d1384a7208cf54360d700000000000000000000000000000000000000000000000000000000000013cd",
        "nonce": "0x15cf",
        "chainId": "0x2105"
      },
      "additionalContracts": [],
      "isFixedGasLimit": false
    },
    {
      "hash": null,
      "transactionType": "CALL",
      "contractName": null,
      "contractAddress": "0x3530bf96982fa5a9e0d8bad84d3587e51a33d332",
      "function": "safeMint(address,uint256)",
      "arguments": [
        "0x9F8eCECcC2a55DA96Fc552AE97CA320F14C6827a",
        "5070"
      ],
      "transaction": {
        "from": "0x027a5ce58fc466d0e3a9d1990404354029398541",
        "to": "0x3530bf96982fa5a9e0d8bad84d3587e51a33d332",
        "gas": "0x1b958",
        "value": "0x0",
        "input": "0xa14481940000000000000000000000009f8ececcc2a55da96fc552ae97ca320f14c6827a00000000000000000000000000000000000000000000000000000000000013ce",
        "nonce": "0x15d0",
        "chainId": "0x2105"
      },
      "additionalContracts": [],
      "isFixedGasLimit": false
    },
    {
      "hash": null,
      "transactionType": "CALL",
      "contractName": null,
      "contractAddress": "0x3530bf96982fa5a9e0d8bad84d3587e51a33d332",
      "function": "safeMint(address,uint256)",
      "arguments": [
        "0x10C426368886DC6868c47e2d07F831bCFC48b808",
        "5071"
      ],
      "transaction": {
        "from": "0x027a5ce58fc466d0e3a9d1990404354029398541",
        "to": "0x3530bf96982fa5a9e0d8bad84d3587e51a33d332",
        "gas": "0x1b958",
        "value": "0x0",
        "input": "0xa144819400000000000000000000000010c426368886dc6868c47e2d07f831bcfc48b80800000000000000000000000000000000000000000000000000000000000013cf",
        "nonce": "0x15d1",
        "chainId": "0x2105"
      },
      "additionalContracts": [],
      "isFixedGasLimit": false
    },
    {
      "hash": null,
      "transactionType": "CALL",
      "contractName": null,
      "contractAddress": "0x3530bf96982fa5a9e0d8bad84d3587e51a33d332",
      "function": "safeMint(address,uint256)",
      "arguments": [
        "0x9FcAb2301410DEA16eaeF0B57286292E4022f01E",
        "5072"
      ],
      "transaction": {
        "from": "0x027a5ce58fc466d0e3a9d1990404354029398541",
        "to": "0x3530bf96982fa5a9e0d8bad84d3587e51a33d332",
        "gas": "0x1b958",
        "value": "0x0",
        "input": "0xa14481940000000000000000000000009fcab2301410dea16eaef0b57286292e4022f01e00000000000000000000000000000000000000000000000000000000000013d0",
        "nonce": "0x15d2",
        "chainId": "0x2105"
      },
      "additionalContracts": [],
      "isFixedGasLimit": false
    },
    {
      "hash": null,
      "transactionType": "CALL",
      "contractName": null,
      "contractAddress": "0x3530bf96982fa5a9e0d8bad84d3587e51a33d332",
      "function": "safeMint(address,uint256)",
      "arguments": [
        "0x2d4610e0D257f5eb0C671357608D87D51F8626b3",
        "5073"
      ],
      "transaction": {
        "from": "0x027a5ce58fc466d0e3a9d1990404354029398541",
        "to": "0x3530bf96982fa5a9e0d8bad84d3587e51a33d332",
        "gas": "0x1b958",
        "value": "0x0",
        "input": "0xa14481940000000000000000000000002d4610e0d257f5eb0c671357608d87d51f8626b300000000000000000000000000000000000000000000000000000000000013d1",
        "nonce": "0x15d3",
        "chainId": "0x2105"
      },
      "additionalContracts": [],
      "isFixedGasLimit": false
    },
    {
      "hash": null,
      "transactionType": "CALL",
      "contractName": null,
      "contractAddress": "0x3530bf96982fa5a9e0d8bad84d3587e51a33d332",
      "function": "safeMint(address,uint256)",
      "arguments": [
        "0x8f990525C45AA9122399bE5A1118DbAEa3e34A2C",
        "5074"
      ],
      "transaction": {
        "from": "0x027a5ce58fc466d0e3a9d1990404354029398541",
        "to": "0x3530bf96982fa5a9e0d8bad84d3587e51a33d332",
        "gas": "0x1b958",
        "value": "0x0",
        "input": "0xa14481940000000000000000000000008f990525c45aa9122399be5a1118dbaea3e34a2c00000000000000000000000000000000000000000000000000000000000013d2",
        "nonce": "0x15d4",
        "chainId": "0x2105"
      },
      "additionalContracts": [],
      "isFixedGasLimit": false
    },
    {
      "hash": null,
      "transactionType": "CALL",
      "contractName": null,
      "contractAddress": "0x3530bf96982fa5a9e0d8bad84d3587e51a33d332",
      "function": "safeMint(address,uint256)",
      "arguments": [
        "0x2C3b9Af0c76490F9AFbA13F347B9e35B70b7554a",
        "5075"
      ],
      "transaction": {
        "from": "0x027a5ce58fc466d0e3a9d1990404354029398541",
        "to": "0x3530bf96982fa5a9e0d8bad84d3587e51a33d332",
        "gas": "0x1b958",
        "value": "0x0",
        "input": "0xa14481940000000000000000000000002c3b9af0c76490f9afba13f347b9e35b70b7554a00000000000000000000000000000000000000000000000000000000000013d3",
        "nonce": "0x15d5",
        "chainId": "0x2105"
      },
      "additionalContracts": [],
      "isFixedGasLimit": false
    },
    {
      "hash": null,
      "transactionType": "CALL",
      "contractName": null,
      "contractAddress": "0x3530bf96982fa5a9e0d8bad84d3587e51a33d332",
      "function": "safeMint(address,uint256)",
      "arguments": [
        "0x81Bdb179A457EdeFfbEdc4dA65Aa5A5DdCF2C29c",
        "5076"
      ],
      "transaction": {
        "from": "0x027a5ce58fc466d0e3a9d1990404354029398541",
        "to": "0x3530bf96982fa5a9e0d8bad84d3587e51a33d332",
        "gas": "0x1b958",
        "value": "0x0",
        "input": "0xa144819400000000000000000000000081bdb179a457edeffbedc4da65aa5a5ddcf2c29c00000000000000000000000000000000000000000000000000000000000013d4",
        "nonce": "0x15d6",
        "chainId": "0x2105"
      },
      "additionalContracts": [],
      "isFixedGasLimit": false
    },
    {
      "hash": null,
      "transactionType": "CALL",
      "contractName": null,
      "contractAddress": "0x3530bf96982fa5a9e0d8bad84d3587e51a33d332",
      "function": "safeMint(address,uint256)",
      "arguments": [
        "0x67Fdc3DEC5d5B8B9ec7799E7097431fB5bce5eA4",
        "5077"
      ],
      "transaction": {
        "from": "0x027a5ce58fc466d0e3a9d1990404354029398541",
        "to": "0x3530bf96982fa5a9e0d8bad84d3587e51a33d332",
        "gas": "0x1b958",
        "value": "0x0",
        "input": "0xa144819400000000000000000000000067fdc3dec5d5b8b9ec7799e7097431fb5bce5ea400000000000000000000000000000000000000000000000000000000000013d5",
        "nonce": "0x15d7",
        "chainId": "0x2105"
      },
      "additionalContracts": [],
      "isFixedGasLimit": false
    },
    {
      "hash": null,
      "transactionType": "CALL",
      "contractName": null,
      "contractAddress": "0x3530bf96982fa5a9e0d8bad84d3587e51a33d332",
      "function": "safeMint(address,uint256)",
      "arguments": [
        "0x192759AA237d88C03aF9a1286c4150FB9193D880",
        "5078"
      ],
      "transaction": {
        "from": "0x027a5ce58fc466d0e3a9d1990404354029398541",
        "to": "0x3530bf96982fa5a9e0d8bad84d3587e51a33d332",
        "gas": "0x1b958",
        "value": "0x0",
        "input": "0xa1448194000000000000000000000000192759aa237d88c03af9a1286c4150fb9193d88000000000000000000000000000000000000000000000000000000000000013d6",
        "nonce": "0x15d8",
        "chainId": "0x2105"
      },
      "additionalContracts": [],
      "isFixedGasLimit": false
    },
    {
      "hash": null,
      "transactionType": "CALL",
      "contractName": null,
      "contractAddress": "0x3530bf96982fa5a9e0d8bad84d3587e51a33d332",
      "function": "safeMint(address,uint256)",
      "arguments": [
        "0xeb479d1f32652F831011b4bA0AA8D455e1c90def",
        "5079"
      ],
      "transaction": {
        "from": "0x027a5ce58fc466d0e3a9d1990404354029398541",
        "to": "0x3530bf96982fa5a9e0d8bad84d3587e51a33d332",
        "gas": "0x1b958",
        "value": "0x0",
        "input": "0xa1448194000000000000000000000000eb479d1f32652f831011b4ba0aa8d455e1c90def00000000000000000000000000000000000000000000000000000000000013d7",
        "nonce": "0x15d9",
        "chainId": "0x2105"
      },
      "additionalContracts": [],
      "isFixedGasLimit": false
    },
    {
      "hash": null,
      "transactionType": "CALL",
      "contractName": null,
      "contractAddress": "0x3530bf96982fa5a9e0d8bad84d3587e51a33d332",
      "function": "safeMint(address,uint256)",
      "arguments": [
        "0x0d51dFDFf7430C517abcD78665E1f1107a467127",
        "5080"
      ],
      "transaction": {
        "from": "0x027a5ce58fc466d0e3a9d1990404354029398541",
        "to": "0x3530bf96982fa5a9e0d8bad84d3587e51a33d332",
        "gas": "0x1b958",
        "value": "0x0",
        "input": "0xa14481940000000000000000000000000d51dfdff7430c517abcd78665e1f1107a46712700000000000000000000000000000000000000000000000000000000000013d8",
        "nonce": "0x15da",
        "chainId": "0x2105"
      },
      "additionalContracts": [],
      "isFixedGasLimit": false
    },
    {
      "hash": null,
      "transactionType": "CALL",
      "contractName": null,
      "contractAddress": "0x3530bf96982fa5a9e0d8bad84d3587e51a33d332",
      "function": "safeMint(address,uint256)",
      "arguments": [
        "0x9720196488E16a8716372e19Bf0470F8C5E408d2",
        "5081"
      ],
      "transaction": {
        "from": "0x027a5ce58fc466d0e3a9d1990404354029398541",
        "to": "0x3530bf96982fa5a9e0d8bad84d3587e51a33d332",
        "gas": "0x1b958",
        "value": "0x0",
        "input": "0xa14481940000000000000000000000009720196488e16a8716372e19bf0470f8c5e408d200000000000000000000000000000000000000000000000000000000000013d9",
        "nonce": "0x15db",
        "chainId": "0x2105"
      },
      "additionalContracts": [],
      "isFixedGasLimit": false
    },
    {
      "hash": null,
      "transactionType": "CALL",
      "contractName": null,
      "contractAddress": "0x3530bf96982fa5a9e0d8bad84d3587e51a33d332",
      "function": "safeMint(address,uint256)",
      "arguments": [
        "0xC67d7BCb9b05c83aeaB73D07F119E4851aEEC6cD",
        "5082"
      ],
      "transaction": {
        "from": "0x027a5ce58fc466d0e3a9d1990404354029398541",
        "to": "0x3530bf96982fa5a9e0d8bad84d3587e51a33d332",
        "gas": "0x1b958",
        "value": "0x0",
        "input": "0xa1448194000000000000000000000000c67d7bcb9b05c83aeab73d07f119e4851aeec6cd00000000000000000000000000000000000000000000000000000000000013da",
        "nonce": "0x15dc",
        "chainId": "0x2105"
      },
      "additionalContracts": [],
      "isFixedGasLimit": false
    },
    {
      "hash": null,
      "transactionType": "CALL",
      "contractName": null,
      "contractAddress": "0x3530bf96982fa5a9e0d8bad84d3587e51a33d332",
      "function": "safeMint(address,uint256)",
      "arguments": [
        "0xB44889a0Da462090922F72D7FaF69bCEB3aDb7C6",
        "5083"
      ],
      "transaction": {
        "from": "0x027a5ce58fc466d0e3a9d1990404354029398541",
        "to": "0x3530bf96982fa5a9e0d8bad84d3587e51a33d332",
        "gas": "0x1b958",
        "value": "0x0",
        "input": "0xa1448194000000000000000000000000b44889a0da462090922f72d7faf69bceb3adb7c600000000000000000000000000000000000000000000000000000000000013db",
        "nonce": "0x15dd",
        "chainId": "0x2105"
      },
      "additionalContracts": [],
      "isFixedGasLimit": false
    },
    {
      "hash": null,
      "transactionType": "CALL",
      "contractName": null,
      "contractAddress": "0x3530bf96982fa5a9e0d8bad84d3587e51a33d332",
      "function": "safeMint(address,uint256)",
      "arguments": [
        "0xB5e4c5D3Fd1ac0832bA9910eb7687b3A58F36637",
        "5084"
      ],
      "transaction": {
        "from": "0x027a5ce58fc466d0e3a9d1990404354029398541",
        "to": "0x3530bf96982fa5a9e0d8bad84d3587e51a33d332",
        "gas": "0x1b958",
        "value": "0x0",
        "input": "0xa1448194000000000000000000000000b5e4c5d3fd1ac0832ba9910eb7687b3a58f3663700000000000000000000000000000000000000000000000000000000000013dc",
        "nonce": "0x15de",
        "chainId": "0x2105"
      },
      "additionalContracts": [],
      "isFixedGasLimit": false
    },
    {
      "hash": null,
      "transactionType": "CALL",
      "contractName": null,
      "contractAddress": "0x3530bf96982fa5a9e0d8bad84d3587e51a33d332",
      "function": "safeMint(address,uint256)",
      "arguments": [
        "0x37e4a14E82cC0E0CbDB41067E29c2c939bB51851",
        "5085"
      ],
      "transaction": {
        "from": "0x027a5ce58fc466d0e3a9d1990404354029398541",
        "to": "0x3530bf96982fa5a9e0d8bad84d3587e51a33d332",
        "gas": "0x1b958",
        "value": "0x0",
        "input": "0xa144819400000000000000000000000037e4a14e82cc0e0cbdb41067e29c2c939bb5185100000000000000000000000000000000000000000000000000000000000013dd",
        "nonce": "0x15df",
        "chainId": "0x2105"
      },
      "additionalContracts": [],
      "isFixedGasLimit": false
    },
    {
      "hash": null,
      "transactionType": "CALL",
      "contractName": null,
      "contractAddress": "0x3530bf96982fa5a9e0d8bad84d3587e51a33d332",
      "function": "safeMint(address,uint256)",
      "arguments": [
        "0x88e03cf71DBaF44A2d3093f82595EED29a5bb2bc",
        "5086"
      ],
      "transaction": {
        "from": "0x027a5ce58fc466d0e3a9d1990404354029398541",
        "to": "0x3530bf96982fa5a9e0d8bad84d3587e51a33d332",
        "gas": "0x1b958",
        "value": "0x0",
        "input": "0xa144819400000000000000000000000088e03cf71dbaf44a2d3093f82595eed29a5bb2bc00000000000000000000000000000000000000000000000000000000000013de",
        "nonce": "0x15e0",
        "chainId": "0x2105"
      },
      "additionalContracts": [],
      "isFixedGasLimit": false
    },
    {
      "hash": null,
      "transactionType": "CALL",
      "contractName": null,
      "contractAddress": "0x3530bf96982fa5a9e0d8bad84d3587e51a33d332",
      "function": "safeMint(address,uint256)",
      "arguments": [
        "0x957AcE32dB2fFA5ce06488792dcd9b4B8d9055F8",
        "5087"
      ],
      "transaction": {
        "from": "0x027a5ce58fc466d0e3a9d1990404354029398541",
        "to": "0x3530bf96982fa5a9e0d8bad84d3587e51a33d332",
        "gas": "0x1b958",
        "value": "0x0",
        "input": "0xa1448194000000000000000000000000957ace32db2ffa5ce06488792dcd9b4b8d9055f800000000000000000000000000000000000000000000000000000000000013df",
        "nonce": "0x15e1",
        "chainId": "0x2105"
      },
      "additionalContracts": [],
      "isFixedGasLimit": false
    },
    {
      "hash": null,
      "transactionType": "CALL",
      "contractName": null,
      "contractAddress": "0x3530bf96982fa5a9e0d8bad84d3587e51a33d332",
      "function": "safeMint(address,uint256)",
      "arguments": [
        "0x54fC28f165a5329168D89d429391e17C90aa2fC7",
        "5088"
      ],
      "transaction": {
        "from": "0x027a5ce58fc466d0e3a9d1990404354029398541",
        "to": "0x3530bf96982fa5a9e0d8bad84d3587e51a33d332",
        "gas": "0x1b958",
        "value": "0x0",
        "input": "0xa144819400000000000000000000000054fc28f165a5329168d89d429391e17c90aa2fc700000000000000000000000000000000000000000000000000000000000013e0",
        "nonce": "0x15e2",
        "chainId": "0x2105"
      },
      "additionalContracts": [],
      "isFixedGasLimit": false
    },
    {
      "hash": null,
      "transactionType": "CALL",
      "contractName": null,
      "contractAddress": "0x3530bf96982fa5a9e0d8bad84d3587e51a33d332",
      "function": "safeMint(address,uint256)",
      "arguments": [
        "0x3947217dc84E655d42371683A5b80f461903b294",
        "5089"
      ],
      "transaction": {
        "from": "0x027a5ce58fc466d0e3a9d1990404354029398541",
        "to": "0x3530bf96982fa5a9e0d8bad84d3587e51a33d332",
        "gas": "0x1b958",
        "value": "0x0",
        "input": "0xa14481940000000000000000000000003947217dc84e655d42371683a5b80f461903b29400000000000000000000000000000000000000000000000000000000000013e1",
        "nonce": "0x15e3",
        "chainId": "0x2105"
      },
      "additionalContracts": [],
      "isFixedGasLimit": false
    },
    {
      "hash": null,
      "transactionType": "CALL",
      "contractName": null,
      "contractAddress": "0x3530bf96982fa5a9e0d8bad84d3587e51a33d332",
      "function": "safeMint(address,uint256)",
      "arguments": [
        "0x92e787b966599916Deeb4A9C767e65D83ac88F2f",
        "5090"
      ],
      "transaction": {
        "from": "0x027a5ce58fc466d0e3a9d1990404354029398541",
        "to": "0x3530bf96982fa5a9e0d8bad84d3587e51a33d332",
        "gas": "0x1b958",
        "value": "0x0",
        "input": "0xa144819400000000000000000000000092e787b966599916deeb4a9c767e65d83ac88f2f00000000000000000000000000000000000000000000000000000000000013e2",
        "nonce": "0x15e4",
        "chainId": "0x2105"
      },
      "additionalContracts": [],
      "isFixedGasLimit": false
    },
    {
      "hash": null,
      "transactionType": "CALL",
      "contractName": null,
      "contractAddress": "0x3530bf96982fa5a9e0d8bad84d3587e51a33d332",
      "function": "safeMint(address,uint256)",
      "arguments": [
        "0x8CDfF91c2C1Be71B0e180186c14441c5c46979cC",
        "5091"
      ],
      "transaction": {
        "from": "0x027a5ce58fc466d0e3a9d1990404354029398541",
        "to": "0x3530bf96982fa5a9e0d8bad84d3587e51a33d332",
        "gas": "0x1b958",
        "value": "0x0",
        "input": "0xa14481940000000000000000000000008cdff91c2c1be71b0e180186c14441c5c46979cc00000000000000000000000000000000000000000000000000000000000013e3",
        "nonce": "0x15e5",
        "chainId": "0x2105"
      },
      "additionalContracts": [],
      "isFixedGasLimit": false
    },
    {
      "hash": null,
      "transactionType": "CALL",
      "contractName": null,
      "contractAddress": "0x3530bf96982fa5a9e0d8bad84d3587e51a33d332",
      "function": "safeMint(address,uint256)",
      "arguments": [
        "0xABE6b4DC88EBe9aECE80Fb1D772Cba807c5C533E",
        "5092"
      ],
      "transaction": {
        "from": "0x027a5ce58fc466d0e3a9d1990404354029398541",
        "to": "0x3530bf96982fa5a9e0d8bad84d3587e51a33d332",
        "gas": "0x1b958",
        "value": "0x0",
        "input": "0xa1448194000000000000000000000000abe6b4dc88ebe9aece80fb1d772cba807c5c533e00000000000000000000000000000000000000000000000000000000000013e4",
        "nonce": "0x15e6",
        "chainId": "0x2105"
      },
      "additionalContracts": [],
      "isFixedGasLimit": false
    },
    {
      "hash": null,
      "transactionType": "CALL",
      "contractName": null,
      "contractAddress": "0x3530bf96982fa5a9e0d8bad84d3587e51a33d332",
      "function": "safeMint(address,uint256)",
      "arguments": [
        "0x633f98ccAC4ea34dc7AF658DbdfB87fDBE8eC2e2",
        "5093"
      ],
      "transaction": {
        "from": "0x027a5ce58fc466d0e3a9d1990404354029398541",
        "to": "0x3530bf96982fa5a9e0d8bad84d3587e51a33d332",
        "gas": "0x1b958",
        "value": "0x0",
        "input": "0xa1448194000000000000000000000000633f98ccac4ea34dc7af658dbdfb87fdbe8ec2e200000000000000000000000000000000000000000000000000000000000013e5",
        "nonce": "0x15e7",
        "chainId": "0x2105"
      },
      "additionalContracts": [],
      "isFixedGasLimit": false
    },
    {
      "hash": null,
      "transactionType": "CALL",
      "contractName": null,
      "contractAddress": "0x3530bf96982fa5a9e0d8bad84d3587e51a33d332",
      "function": "safeMint(address,uint256)",
      "arguments": [
        "0x5646FB881696B9EDcafD9e966fD82811D02A3011",
        "5094"
      ],
      "transaction": {
        "from": "0x027a5ce58fc466d0e3a9d1990404354029398541",
        "to": "0x3530bf96982fa5a9e0d8bad84d3587e51a33d332",
        "gas": "0x1b958",
        "value": "0x0",
        "input": "0xa14481940000000000000000000000005646fb881696b9edcafd9e966fd82811d02a301100000000000000000000000000000000000000000000000000000000000013e6",
        "nonce": "0x15e8",
        "chainId": "0x2105"
      },
      "additionalContracts": [],
      "isFixedGasLimit": false
    },
    {
      "hash": null,
      "transactionType": "CALL",
      "contractName": null,
      "contractAddress": "0x3530bf96982fa5a9e0d8bad84d3587e51a33d332",
      "function": "safeMint(address,uint256)",
      "arguments": [
        "0x6Be25de24b32951bd284408Cf71F0CF5822a1Dec",
        "5095"
      ],
      "transaction": {
        "from": "0x027a5ce58fc466d0e3a9d1990404354029398541",
        "to": "0x3530bf96982fa5a9e0d8bad84d3587e51a33d332",
        "gas": "0x1b958",
        "value": "0x0",
        "input": "0xa14481940000000000000000000000006be25de24b32951bd284408cf71f0cf5822a1dec00000000000000000000000000000000000000000000000000000000000013e7",
        "nonce": "0x15e9",
        "chainId": "0x2105"
      },
      "additionalContracts": [],
      "isFixedGasLimit": false
    },
    {
      "hash": null,
      "transactionType": "CALL",
      "contractName": null,
      "contractAddress": "0x3530bf96982fa5a9e0d8bad84d3587e51a33d332",
      "function": "safeMint(address,uint256)",
      "arguments": [
        "0x828Da80B16AF995FDa65e8a7fc1211a75935925F",
        "5096"
      ],
      "transaction": {
        "from": "0x027a5ce58fc466d0e3a9d1990404354029398541",
        "to": "0x3530bf96982fa5a9e0d8bad84d3587e51a33d332",
        "gas": "0x1b958",
        "value": "0x0",
        "input": "0xa1448194000000000000000000000000828da80b16af995fda65e8a7fc1211a75935925f00000000000000000000000000000000000000000000000000000000000013e8",
        "nonce": "0x15ea",
        "chainId": "0x2105"
      },
      "additionalContracts": [],
      "isFixedGasLimit": false
    },
    {
      "hash": null,
      "transactionType": "CALL",
      "contractName": null,
      "contractAddress": "0x3530bf96982fa5a9e0d8bad84d3587e51a33d332",
      "function": "safeMint(address,uint256)",
      "arguments": [
        "0x736299C606cF074DEF6222D289d95feF92d33770",
        "5097"
      ],
      "transaction": {
        "from": "0x027a5ce58fc466d0e3a9d1990404354029398541",
        "to": "0x3530bf96982fa5a9e0d8bad84d3587e51a33d332",
        "gas": "0x1b958",
        "value": "0x0",
        "input": "0xa1448194000000000000000000000000736299c606cf074def6222d289d95fef92d3377000000000000000000000000000000000000000000000000000000000000013e9",
        "nonce": "0x15eb",
        "chainId": "0x2105"
      },
      "additionalContracts": [],
      "isFixedGasLimit": false
    },
    {
      "hash": null,
      "transactionType": "CALL",
      "contractName": null,
      "contractAddress": "0x3530bf96982fa5a9e0d8bad84d3587e51a33d332",
      "function": "safeMint(address,uint256)",
      "arguments": [
        "0xbA818C60DD7B77719AA24a57E2c9a727ffdB1fC7",
        "5098"
      ],
      "transaction": {
        "from": "0x027a5ce58fc466d0e3a9d1990404354029398541",
        "to": "0x3530bf96982fa5a9e0d8bad84d3587e51a33d332",
        "gas": "0x1b958",
        "value": "0x0",
        "input": "0xa1448194000000000000000000000000ba818c60dd7b77719aa24a57e2c9a727ffdb1fc700000000000000000000000000000000000000000000000000000000000013ea",
        "nonce": "0x15ec",
        "chainId": "0x2105"
      },
      "additionalContracts": [],
      "isFixedGasLimit": false
    },
    {
      "hash": null,
      "transactionType": "CALL",
      "contractName": null,
      "contractAddress": "0x3530bf96982fa5a9e0d8bad84d3587e51a33d332",
      "function": "safeMint(address,uint256)",
      "arguments": [
        "0xC03d8DB64dfe98ebFD94a84bc1f825CAB90EE15B",
        "5099"
      ],
      "transaction": {
        "from": "0x027a5ce58fc466d0e3a9d1990404354029398541",
        "to": "0x3530bf96982fa5a9e0d8bad84d3587e51a33d332",
        "gas": "0x1b958",
        "value": "0x0",
        "input": "0xa1448194000000000000000000000000c03d8db64dfe98ebfd94a84bc1f825cab90ee15b00000000000000000000000000000000000000000000000000000000000013eb",
        "nonce": "0x15ed",
        "chainId": "0x2105"
      },
      "additionalContracts": [],
      "isFixedGasLimit": false
    },
    {
      "hash": null,
      "transactionType": "CALL",
      "contractName": null,
      "contractAddress": "0x3530bf96982fa5a9e0d8bad84d3587e51a33d332",
      "function": "safeMint(address,uint256)",
      "arguments": [
        "0x27A6Cec97A4d323a08e6533ab779E862878Aa8B6",
        "5100"
      ],
      "transaction": {
        "from": "0x027a5ce58fc466d0e3a9d1990404354029398541",
        "to": "0x3530bf96982fa5a9e0d8bad84d3587e51a33d332",
        "gas": "0x1b958",
        "value": "0x0",
        "input": "0xa144819400000000000000000000000027a6cec97a4d323a08e6533ab779e862878aa8b600000000000000000000000000000000000000000000000000000000000013ec",
        "nonce": "0x15ee",
        "chainId": "0x2105"
      },
      "additionalContracts": [],
      "isFixedGasLimit": false
    }
  ],
  "receipts": [],
  "libraries": [],
  "pending": [],
  "returns": {},
  "timestamp": 1719355501,
  "chain": 8453,
  "commit": "3dd2ed9"
}